:020000040800F2
:100000000000022045B90008011600080316000888
:100010000516000807160008091600080000000071
:100020000000000000000000000000000B160008A7
:100030000D160008000000000F1600081116000839
:1000400095B9000895B9000895B9000895B9000858
:1000500095B9000895B9000895B9000895B9000848
:1000600095B9000895B9000895B9000895B9000838
:1000700095B9000895B9000895B9000895B9000828
:1000800095B9000895B9000895B9000895B9000818
:1000900095B9000895B9000895B9000895B9000808
:1000A00095B9000895B9000895B9000895B90008F8
:1000B00095B9000895B9000895B9000895B90008E8
:1000C00095B9000895B9000895B9000819160008F7
:1000D00095B90008291600083916000849160008C5
:1000E00095B9000895B9000895B9000895B90008B8
:1000F00095B9000895B9000895B9000895B90008A8
:1001000095B9000895B9000895B9000895B9000897
:1001100095B9000895B9000895B9000895B9000887
:1001200095B9000895B9000895B9000895B9000877
:1001300095B9000895B9000895B9000895B9000867
:1001400095B9000895B9000895B9000895B9000857
:1001500095B9000895B9000895B9000895B9000847
:1001600095B9000895B9000895B9000895B9000837
:1001700095B9000895B9000895B90008000000007D
:0801800095B9000895B90008CB
:1001C00010B5054C237833B9044B13B10448AFF391
:1001D00000800123237010BDA81300200000000040
:1001E000B02C010808B5034B1BB103490348AFF31A
:1001F000008008BD00000000AC130020B02C0108F6
:10020000844641EA000313F003036DD1403A41D321
:1002100051F8043B40F8043B51F8043B40F8043BE0
:1002200051F8043B40F8043B51F8043B40F8043BD0
:1002300051F8043B40F8043B51F8043B40F8043BC0
:1002400051F8043B40F8043B51F8043B40F8043BB0
:1002500051F8043B40F8043B51F8043B40F8043BA0
:1002600051F8043B40F8043B51F8043B40F8043B90
:1002700051F8043B40F8043B51F8043B40F8043B80
:1002800051F8043B40F8043B51F8043B40F8043B70
:10029000403ABDD2303211D351F8043B40F8043B10
:1002A00051F8043B40F8043B51F8043B40F8043B50
:1002B00051F8043B40F8043B103AEDD20C3205D320
:1002C00051F8043B40F8043B043AF9D2043208D018
:1002D000D2071CBF11F8013B00F8013B01D30B888A
:1002E00003806046704700BF082A13D38B078DD068
:1002F00010F003038AD0C3F10403D21ADB071CBF3A
:1003000011F8013B00F8013B80D331F8023B20F8A3
:10031000023B7BE7043AD9D3013A11F8013B00F8DC
:10032000013BF9D20B7803704B7843708B78837064
:100330006046704700000000000000000000000060
:1003400090F800F06DE9024520F007016FF0000C15
:1003500010F0070491F820F040F049804FF00004BD
:100360006FF00700D1E9002391F840F000F1080098
:1003700082FA4CF2A4FA8CF283FA4CF3A2FA8CF3D0
:100380004BBBD1E9022382FA4CF200F10800A4FA37
:100390008CF283FA4CF3A2FA8CF3E3B9D1E904238B
:1003A00082FA4CF200F10800A4FA8CF283FA4CF3C2
:1003B000A2FA8CF37BB9D1E9062301F1200182FA7C
:1003C0004CF200F10800A4FA8CF283FA4CF3A2FA82
:1003D0008CF3002BC6D0002A04BF04301A4612BA90
:1003E000B2FA82F2FDE8024500EBD2007047D1E993
:1003F000002304F00305C4F100004FEAC50514F022
:10040000040F91F840F00CFA05F562EA05021CBFF2
:1004100063EA050362464FF00004A9E7000000000C
:1004200001F0FF01102A2BDB10F0070F08D010F8A5
:10043000013B013A8B422DD010F0070F42B3F6D1A9
:10044000F0B441EA012141EA014122F007047FF0C2
:1004500000070023F0E80256083C85EA010586EA19
:10046000010685FA47F5A3FA87F586FA47F6A5FA55
:1004700087F68EB9EED1F0BC01F0FF0102F0070261
:1004800032B110F8013B013A83EA010313B1F8D10C
:100490000020704701387047002D06BF35460338ED
:1004A000073815F0010F07D1013015F4807F02BF26
:1004B000013015F4C03F0130F0BC0138704700BF77
:1004C00081F0004102E000BF83F0004330B54FEA05
:1004D00041044FEA430594EA050F08BF90EA020F72
:1004E0001FBF54EA000C55EA020C7FEA645C7FEA05
:1004F000655C00F0E2804FEA5454D4EB5555B8BF28
:100500006D420CDD2C4480EA020281EA030382EA98
:10051000000083EA010180EA020281EA0303362D2A
:1005200088BF30BD11F0004F4FEA01314FF4801CFD
:100530004CEA113102D0404261EB410113F0004F0F
:100540004FEA03334CEA133302D0524263EB4303C6
:1005500094EA050F00F0A780A4F10104D5F1200E64
:100560000DDB02FA0EFC22FA05F2801841F10001BF
:1005700003FA0EF2801843FA05F359410EE0A5F193
:1005800020050EF1200E012A03FA0EFC28BF4CF0C4
:10059000020C43FA05F3C01851EBE37101F000457A
:1005A00007D54FF0000EDCF1000C7EEB00006EEB87
:1005B0000101B1F5801F1BD3B1F5001F0CD3490811
:1005C0005FEA30004FEA3C0C04F101044FEA445268
:1005D00012F5800F80F09A80BCF1004F08BF5FEAEF
:1005E000500C50F1000041EB045141EA050130BDCF
:1005F0005FEA4C0C404141EB0101013C28BFB1F5E1
:10060000801FE9D291F0000F04BF01460020B1FA2B
:1006100081F308BF2033A3F10B03B3F120020CDAFE
:100620000C3208DD02F1140CC2F10C0201FA0CF0DC
:1006300021FA02F10CE002F11402D8BFC2F1200C41
:1006400001FA02F120FA0CFCDCBF41EA0C019040F7
:10065000E41AA2BF01EB0451294330BD6FEA040440
:100660001F3C1CDA0C340EDC04F11404C4F120022B
:1006700020FA04F001FA02F340EA030021FA04F33D
:1006800045EA030130BDC4F10C04C4F1200220FA94
:1006900002F001FA04F340EA0300294630BD21FAD2
:1006A00004F0294630BD94F0000F83F4801306BF98
:1006B00081F480110134013D4EE77FEA645C18BF8C
:1006C0007FEA655C29D094EA050F08BF90EA020F23
:1006D00005D054EA000C04BF1946104630BD91EA1B
:1006E000030F1EBF0021002030BD5FEA545C05D11E
:1006F0004000494128BF41F0004130BD14F580045D
:100700003CBF01F5801130BD01F0004545F0FE41D0
:1007100041F470014FF0000030BD7FEA645C1ABF05
:10072000194610467FEA655C1CBF0B46024650EA3C
:10073000013406BF52EA033591EA030F41F4002168
:1007400030BD00BF90F0000F04BF0021704730B5EE
:100750004FF4806404F132044FF000054FF00001C3
:1007600050E700BF90F0000F04BF0021704730B584
:100770004FF4806404F1320410F0004548BF404259
:100780004FF000013EE700BF42004FEAE2014FEAAE
:1007900031014FEA02701FBF12F07F4393F07F4F89
:1007A00081F06051704732F07F4208BF704793F08C
:1007B0007F4F04BF41F40021704730B54FF460749F
:1007C00001F0004521F000411CE700BF50EA0102A2
:1007D00008BF704730B54FF000050AE050EA01024B
:1007E00008BF704730B511F0004502D5404261EBBB
:1007F00041014FF4806404F132045FEA915C3FF4FC
:10080000D8AE4FF003025FEADC0C18BF03325FEA98
:10081000DC0C18BF033202EBDC02C2F1200300FA49
:1008200003FC20FA02F001FA03FE40EA0E0021FA6E
:1008300002F11444BDE600BF70B54FF0FF0C4CF45C
:10084000E06C1CEA11541DBF1CEA135594EA0C0F0E
:1008500095EA0C0F00F0DEF82C4481EA030621EA49
:100860004C5123EA4C5350EA013518BF52EA033584
:1008700041F4801143F4801338D0A0FB02CE4FF036
:100880000005E1FB02E506F00042E0FB03E54FF066
:100890000006E1FB03569CF0000F18BF4EF0010E5E
:1008A000A4F1FF04B6F5007F64F5407404D25FEA5A
:1008B0004E0E6D4146EB060642EAC62141EA55510D
:1008C0004FEAC52040EA5E504FEACE2EB4F1FD0C4F
:1008D00088BFBCF5E06F1ED8BEF1004F08BF5FEACD
:1008E000500E50F1000041EB045170BD06F000467F
:1008F00046EA010140EA020081EA0301B4EB5C042C
:10090000C2BFD4EB0C0541EA045170BD41F4801123
:100910004FF0000E013C00F3AB8014F1360FDEBF48
:10092000002001F0004170BDC4F10004203C35DA24
:100930000C341BDC04F11404C4F1200500FA05F3A7
:1009400020FA04F001FA05F240EA020001F0004248
:1009500021F0004110EBD37021FA04F642EB0601BE
:100960005EEA430E08BF20EAD37070BDC4F10C04E8
:10097000C4F1200500FA04F320FA05F001FA04F2AC
:1009800040EA020001F0004110EBD37041F1000198
:100990005EEA430E08BF20EAD37070BDC4F12005A3
:1009A00000FA05F24EEA020E20FA04F301FA05F20B
:1009B00043EA020321FA04F001F0004121FA04F2B3
:1009C00020EA020000EBD3705EEA430E08BF20EA83
:1009D000D37070BD94F0000F0FD101F000464000BD
:1009E00041EB010111F4801F08BF013CF7D041EA3F
:1009F000060195F0000F18BF704703F00046520043
:100A000043EB030313F4801F08BF013DF7D043EA13
:100A10000603704794EA0C0F0CEA135518BF95EAC9
:100A20000C0F0CD050EA410618BF52EA4306D1D150
:100A300081EA030101F000414FF0000070BD50EA6F
:100A4000410606BF1046194652EA430619D094EAF9
:100A50000C0F02D150EA013613D195EA0C0F05D1E3
:100A600052EA03361CBF104619460AD181EA030137
:100A700001F0004141F0FE4141F470014FF00000EF
:100A800070BD41F0FE4141F4780170BD70B54FF08A
:100A9000FF0C4CF4E06C1CEA11541DBF1CEA13550A
:100AA00094EA0C0F95EA0C0F00F0A7F8A4EB0504EC
:100AB00081EA030E52EA03354FEA013100F08880E3
:100AC0004FEA03334FF0805545EA131343EA1263AC
:100AD0004FEA022245EA111545EA10654FEA002661
:100AE0000EF000419D4208BF964244F1FD0404F51A
:100AF000407402D25B084FEA3202B61A65EB030576
:100B00005B084FEA32024FF480104FF4002CB6EB32
:100B1000020E75EB030E22BFB61A754640EA0C00B2
:100B20005B084FEA3202B6EB020E75EB030E22BFF2
:100B3000B61A754640EA5C005B084FEA3202B6EB33
:100B4000020E75EB030E22BFB61A754640EA9C00F2
:100B50005B084FEA3202B6EB020E75EB030E22BFC2
:100B6000B61A754640EADC0055EA060E18D04FEA80
:100B7000051545EA16754FEA06164FEAC30343EA20
:100B800052734FEAC2025FEA1C1CC0D111F4801FED
:100B90000BD141EA00014FF000004FF0004CB6E7E6
:100BA00011F4801F04BF01430020B4F1FD0C88BF85
:100BB000BCF5E06F3FF6AFAEB5EB030C04BFB6EB90
:100BC000020C5FEA500C50F1000041EB045170BD83
:100BD0000EF0004E4EEA113114EB5C04C2BFD4EBB0
:100BE0000C0541EA045170BD41F480114FF0000E34
:100BF000013C90E645EA060E8DE60CEA135594EAB0
:100C00000C0F08BF95EA0C0F3FF43BAF94EA0C0FB2
:100C10000AD150EA01347FF434AF95EA0C0F7FF427
:100C200025AF104619462CE795EA0C0F06D152EA7B
:100C300003353FF4FDAE1046194622E750EA41065F
:100C400018BF52EA43067FF4C5AE50EA41047FF470
:100C50000DAF52EA43057FF4EBAE12E74FF0FF3CD5
:100C600006E000BF4FF0010C02E000BF4FF0010CA6
:100C70004DF804CD4FEA410C7FEA6C5C4FEA430C1F
:100C800018BF7FEA6C5C1BD001B050EA410C0CBF6E
:100C900052EA430C91EA030F02BF90EA020F0020D0
:100CA000704710F1000F91EA030F58BF994208BF37
:100CB00090422CBFD8176FEAE37040F001007047F4
:100CC0004FEA410C7FEA6C5C02D150EA013C07D14B
:100CD0004FEA430C7FEA6C5CD6D152EA033CD3D096
:100CE0005DF8040B704700BF8446104662468C4690
:100CF0001946634600E000BF01B5FFF7B7FF0028C3
:100D000048BF10F1000F01BD4DF808EDFFF7F4FFEB
:100D10000CBF012000205DF808FB00BF4DF808ED76
:100D2000FFF7EAFF34BF012000205DF808FB00BF99
:100D30004DF808EDFFF7E0FF94BF012000205DF8BB
:100D400008FB00BF4DF808EDFFF7CEFF94BF012070
:100D500000205DF808FB00BF4DF808EDFFF7C4FF69
:100D600034BF012000205DF808FB00BF4FEA410CB2
:100D70007FEA6C5C02D150EA013C0AD14FEA430C95
:100D80007FEA6C5C02D152EA033C02D14FF00000D2
:100D900070474FF0010070474FEA410212F5001210
:100DA00015D211D56FF47873B3EB625212D94FEAB2
:100DB000C12343F0004343EA505311F0004F23FA9C
:100DC00002F018BF404270474FF00000704750EAF1
:100DD000013005D111F0004008BF6FF000407047AE
:100DE0004FF00000704700BF4A0011D212F5001208
:100DF00011D20DD56FF47873B3EB62520ED44FEA73
:100E0000C12343F0004343EA505323FA02F07047F2
:100E10004FF00000704750EA013002D14FF0FF3030
:100E200070474FF0000070474FEA4102B2F1E043D3
:100E300024BFB3F5001CDCF1FE5C0DD901F0004CC1
:100E40004FEAC0024CEA5070B2F1004F40EB830011
:100E500008BF20F00100704711F0804F21D113F13D
:100E60003872BCBF01F00040704741F480114FEA76
:100E70005252C2F11802C2F1200C10FA0CF320FAFF
:100E800002F018BF40F001004FEAC1234FEAD3231C
:100E900003FA0CFC40EA0C0023FA02F34FEA430386
:100EA000CCE77FEA625307D150EA01331EBF4FF00F
:100EB000FE4040F44000704701F0004040F0FE402A
:100EC00040F40000704700BF53B94AB9002908BF79
:100ED00000281CBF4FF0FF314FF0FF3000F074B915
:100EE000ADF1080C6DE904CE00F006F8DDF804E081
:100EF000DDE9022304B070472DE9F047089D044660
:100F00008E46002B4DD18A42944669D9B2FA82F2BC
:100F100052B101FA02F3C2F1200120FA01F10CFAF8
:100F200002FC41EA030E94404FEA1C48210CBEFB30
:100F3000F8F61FFA8CF708FB16E341EA034306FBB9
:100F400007F199420AD91CEB030306F1FF3080F048
:100F50001F81994240F21C81023E63445B1AA4B295
:100F6000B3FBF8F008FB103344EA034400FB07F737
:100F7000A7420AD91CEB040400F1FF3380F00A8178
:100F8000A74240F207816444023840EA0640E41B6D
:100F900000261DB1D4400023C5E900433146BDE819
:100FA000F0878B4209D9002D00F0EF800026C5E9BB
:100FB000000130463146BDE8F087B3FA83F6002ED3
:100FC0004AD18B4202D3824200F2F980841A61EB4B
:100FD000030301209E46002DE0D0C5E9004EDDE769
:100FE00002B9FFDEB2FA82F2002A40F09280A1EB51
:100FF0000C014FEA1C471FFA8CFE0126200CB1FBA6
:10100000F7F307FB131140EA01410EFB03F088429E
:1010100008D91CEB010103F1FF3802D2884200F22B
:10102000CB804346091AA4B2B1FBF7F007FB1011BD
:1010300044EA01440EFB00FEA64508D91CEB04045B
:1010400000F1FF3102D2A64500F2BB800846A4EBB6
:101050000E0440EA03409CE7C6F12007B34022FAA1
:1010600007FC4CEA030C20FA07F401FA06F31C43D0
:10107000F9404FEA1C4900FA06F3B1FBF9F8200CDD
:101080001FFA8CFE09FB181140EA014108FB0EF023
:10109000884202FA06F20BD91CEB010108F1FF3A73
:1010A00080F08880884240F28580A8F1020861447F
:1010B000091AA4B2B1FBF9F009FB101144EA01418D
:1010C00000FB0EFE8E4508D91CEB010100F1FF3438
:1010D0006CD28E456AD90238614440EA0840A0FBD0
:1010E0000294A1EB0E01A142C846A64656D353D0A6
:1010F0005DB1B3EB080261EB0E0101FA07F722FACA
:1011000006F3F1401F43C5E9007100263146BDE8F2
:10111000F087C2F12003D8400CFA02FC21FA03F355
:10112000914001434FEA1C471FFA8CFEB3FBF7F0D6
:1011300007FB10360B0C43EA064300FB0EF69E42FB
:1011400004FA02F408D91CEB030300F1FF382FD294
:101150009E422DD9023863449B1B89B2B3FBF7F63C
:1011600007FB163341EA034106FB0EF38B4208D915
:101170001CEB010106F1FF3816D28B4214D9023E56
:101180006144C91A46EA004638E72E46284605E774
:101190000646E3E61846F8E64B45A9D2B9EB020845
:1011A00064EB0C0E0138A3E74646EAE7204694E7D5
:1011B0004046D1E7D0467BE7023B614432E7304608
:1011C00009E76444023842E7704700BF2DE9F04761
:1011D0008AB0002405940694079408940994009416
:1011E000614B1A6B42F001021A631A6B02F00102A2
:1011F0000092009A01941A6B42F002021A631A6B71
:1012000002F002020192019A02941A6B42F0040267
:101210001A631A6B02F004020292029A03941A6B88
:1012200042F008021A631A6B02F008020392039A52
:1012300004941A6B42F010021A631B6B03F0100344
:101240000493049B494E22464FF67F71304602F0CC
:101250007CF801228021304602F077F8444F0122C9
:101260004FF47C51384602F070F8DFF80891012203
:101270004FF41141484602F068F8DFF8FCA022461E
:1012800043F6FF71504602F060F8DFF8F08001226B
:10129000FC21404602F059F801224FF473414046C8
:1012A00002F053F84FF41143059301250695079476
:1012B000089405A9484601F04FFF4FF400630593D9
:1012C0000694079405A9484601F046FF4FF4E6430B
:1012D000059306950794089405A9404601F03CFF44
:1012E0004FF4804305930694079405A9384601F00E
:1012F00033FF43F6FF73059306950794089405A9F9
:10130000384601F029FF4FF4004305934FF01108D0
:10131000CDF8188007940223089305A9384601F0F8
:101320001BFF4FF6FF73059306950794089405A9D4
:10133000504601F011FF4CF2C00305930695079447
:10134000089405A9304601F007FF41F61F73059385
:10135000CDF818800794089405A9304601F0FCFEEA
:101360000AB0BDE8F08700BF00380240001002401C
:101370000008024000000240000C0240000402404D
:1013800072B6FEE708B50A480A4B03604FF46123C2
:10139000436000238360C36003610C224261836168
:1013A000C36100F03FFF00B908BDFFF7E9FF00BFD0
:1013B000781400200010014000B585B00023009390
:1013C0000193029303931448144A02604FF480324D
:1013D000426083600361037680F82030C362104A64
:1013E0008262C3600122C26180F83030426100F045
:1013F0004DFB60B9002300930122019202936946DC
:10140000054800F091FC20B905B05DF804FBFFF73A
:10141000B7FFFFF7B5FF00BFC41300200020014055
:101420000100000F08B50D480D4B03604FF48273A7
:10143000436000238360C360036143614FF4007223
:101440008261C3610362436283620A23C36202F062
:101450009FF900B908BDFFF793FF00BF20140020DB
:101460000030014008B50A480A4B03604FF4165398
:10147000436000238360C36003610C224261836187
:10148000C36100F0CFFE00B908BDFFF779FF00BFD0
:10149000BC1400200044004008B50A480A4B036011
:1014A0004FF41653436000238360C36003610C2232
:1014B00042618361C36100F0B5FE00B908BDFFF76A
:1014C0005FFF00BF001500200048004000B583B05A
:1014D0000023009301930A480A4B036000F0F0FCDC
:1014E00050B90022009201926946054800F045FD7E
:1014F00020B903B05DF804FBFFF742FFFFF740FFA0
:101500000C1400200074004000B595B0302200217A
:1015100008A80AF065FA0023039304930593069341
:1015200007930193204A116C41F080511164126CB1
:1015300002F080520192019A02931C4B1A6842F405
:1015400080421A601B6803F480430293029B0123CC
:1015500008934FF48033099302230E934FF48002D3
:101560000F9206221092A822119212930423139331
:1015700008A801F0F5F898B90F2303930223049308
:10158000002305934FF4A05306934FF48053079321
:10159000052103A801F032FB20B915B05DF804FB6A
:1015A000FFF7EEFEFFF7ECFE00380240007000404F
:1015B00010B501F0C9FFFFF7A7FFFFF707FEFFF720
:1015C000E1FEFFF7F9FEFFF72DFFFFF74BFFFFF7F7
:1015D00063FFFFF77BFF06F0A1F908F0EFF80024A6
:1015E00001F0D8FFA042FBD009F08EFC07F0FCFA16
:1015F00008F052FE07F05AFB01F0CCFF0446EFE77B
:10160000FEE7FEE7FEE7FEE7FEE77047704770473C
:1016100008B501F0B3FF08BD08B5024802F0D0FBE1
:1016200008BD00BF2014002008B5024800F01EFFCE
:1016300008BD00BF7814002008B5024800F016FF6E
:1016400008BD00BFBC14002008B5024800F00EFF22
:1016500008BD00BF0015002082B0002100910B4B97
:101660005A6C42F480425A645A6C02F480420092EE
:10167000009A01911A6C42F080521A641B6C03F0BC
:1016800080530193019B02B0704700BF00380240B5
:1016900030B589B000230393049305930693079311
:1016A000026803F1804303F590339A4201D009B0F8
:1016B00030BD0024009403F58C335A6C42F48072E0
:1016C0005A645A6C02F480720092009A01941A6B68
:1016D00042F001021A631A6B02F001020192019AB0
:1016E00002941A6B42F002021A631B6B03F00203AE
:1016F0000293029B03250395049503A9094801F071
:101700002BFD03950495059403A9074801F024FDDA
:1017100022462146122001F097FE122001F0CCFE55
:10172000C5E700BF000002400004024000B589B0D8
:101730000023039304930593069307930268134BC6
:101740009A4202D009B05DF804FB0021019103F533
:10175000E2331A6C42F000521A641A6C02F0005222
:101760000192019A02911A6B42F001021A631B6BFB
:1017700003F001030293029B1023039303230493BA
:1017800003A9034801F0E8FCDCE700BF0074004057
:101790000000024010B588B0002303930493059322
:1017A000069307930268184B9A4201D008B010BD07
:1017B0000024019403F584335A6C42F480525A6435
:1017C0005A6C02F480520192019A02941A6B42F010
:1017D00001021A631B6B03F001030293029BE023D7
:1017E000039302230493032306930523079303A97A
:1017F000064801F0B1FC22462146232001F024FED8
:10180000232001F059FED1E70030014000000240E2
:1018100010B58CB000230793089309930A930B9398
:101820000368474A934207D0464A934230D0464A1B
:10183000934258D00CB010BD00240194434B5A6C15
:1018400042F010025A645A6C02F010020192019A9E
:1018500002941A6B42F001021A631B6B03F001033E
:101860000293029B4FF4C063079302230893032360
:101870000A9307230B9307A9354801F06DFC224614
:101880002146252001F0E0FD252001F015FED1E7DD
:10189000002403942D4B1A6C42F400321A641A6C23
:1018A00002F400320392039A04941A6B42F001028C
:1018B0001A631B6B03F001030493049B0C2307932F
:1018C0000223089303230A9307230B9307A92048B5
:1018D00001F042FC22462146262001F0B5FD2620DB
:1018E00001F0EAFDA6E700240594184B1A6C42F4B7
:1018F00080221A641A6C02F480220592059A0694DA
:101900001A6B42F002021A631B6B03F00203069388
:10191000069B4FF4406307930223089303230A9323
:1019200007230B9307A90B4801F016FC224621461A
:10193000272001F089FD272001F0BEFD7AE700BFD6
:1019400000100140004400400048004000380240C0
:1019500000000240000402404A4B5A6822F4403220
:101960005A605A6841680A435A600268536823F40F
:101970008073536002685368016943EA012353602E
:101980000268536823F040735360026853688168AB
:101990000B4353600268936823F40063936002680A
:1019A0009368C1680B439360826A374B9A4257D061
:1019B0000268936823F07063936002689368816A99
:1019C0000B4393600268936823F04053936002686E
:1019D0009368C16A0B4393600268936823F0020323
:1019E000936002689368017E43EA4103936090F834
:1019F0002030002B3FD00268536843F400635360EB
:101A00000268536823F46043536001684B68426A7C
:101A1000013A43EA42334B600268D36A23F470030D
:101A2000D3620168CB6AC269013A43EA0253CB62CE
:101A30000268936823F4007393600268936890F8D7
:101A4000301043EA412393600268936823F4806373
:101A5000936002689368416943EA81239360704709
:101A60000268936823F0706393600268936823F0C0
:101A700040539360B0E70268536823F400635360F7
:101A8000CAE700BF002301400100000F38B310B5C2
:101A90000446036C43B1236C13F0100F0BD00120EC
:101AA000002384F83C3010BDFFF7F2FD002363648F
:101AB00084F83C30EFE7236C23F4885323F00203CF
:101AC00043F0020323642046FFF746FF00206064D2
:101AD000236C23F0030343F001032364E0E70120B8
:101AE0007047000082B00023019390F83C30012B36
:101AF00000F08980012380F83C3003689A6812F076
:101B0000010F13D19A6842F001029A60414B1B68A1
:101B1000414AA2FB03239B0C03EB4303019302E026
:101B2000019B013B0193019B002BF9D10268936853
:101B300013F0010F5CD0036C23F4E06323F0010386
:101B400043F480730364536813F4806F05D0036C0F
:101B500023F4405343F480530364036C13F4805F15
:101B60001BD0436C23F006034364002380F83C3011
:101B70006FF022031360294B5B6813F01F0F27D10E
:101B80000368274A934211D002F58072934207D02E
:101B9000244A934214D0002033E000234364E4E756
:101BA00002F50072526812F01F0FF1D19A6812F01C
:101BB000405F2AD19A6842F080429A60002020E07B
:101BC00002F58072526812F0100FEFD0002018E07A
:101BD0000368134A934201D0002012E09A6812F081
:101BE000405F14D19A6842F080429A60002008E079
:101BF000036C43F010030364436C43F0010343643C
:101C0000002002B070470220FBE70020F9E7002027
:101C1000F7E700BF0800002083DE1B4300230140DC
:101C2000002001400022014090F83C30012B19D0E7
:101C3000012380F83C300268936823F0010393602D
:101C400003689B6813F0010F07D1036C23F48853DA
:101C500023F0010343F001030364002380F83C30C8
:101C6000184670470220704770B504460D46036859
:101C70009A6812F4806F03D09B6813F4807F19D1A7
:101C800001F088FC064623681A6812F0020F20D182
:101C9000B5F1FF3FF7D0B5B923681B6813F0020F09
:101CA000F1D1236C43F004032364002384F83C3017
:101CB000032032E0036C43F020030364002380F828
:101CC0003C30012029E001F065FC801BA842DAD9F4
:101CD000E2E76FF012021A60236C43F4007323648E
:101CE00023689A6812F0405F16D1207EB0B9DA6A94
:101CF00012F4700F03D09B6813F4806F0DD1236C26
:101D000023F480732364236C13F4805F05D1236C68
:101D100043F00103236400E0002070BD0020FCE7D5
:101D20000368D86C7047000030B482B00023019380
:101D300090F83C30012B00F0BB80012380F83C3050
:101D40000B68092B41D90468E2689BB203EB43039B
:101D50001E3B4FF0070C0CFA03F322EA0303E36087
:101D60000468E2680B8803EB43031E3B8D6805FAA9
:101D700003F31343E3604B68062B3DD80468626BA2
:101D800003EB8303053B4FF01F0C0CFA03F322EA2D
:101D9000030363630468626B4B6803EB8303053BD7
:101DA000B1F800C00CFA03F3134363630268414BBC
:101DB0009A4251D002683F4B9A4256D0002380F895
:101DC0003C30184602B030BC7047046822699BB2B0
:101DD00003EB43034FF0070C0CFA03F322EA03036F
:101DE0002361046822690B8803EB43038D6805FABD
:101DF00003F313432361BEE70C2B16D805682A6B47
:101E000003EB8303233B1F2404FA03F322EA0303B7
:101E10002B6305682A6B4B6803EB8303233B0C8819
:101E200004FA03F313432B63C0E70568EA6A03EB84
:101E30008303413B1F2404FA03F322EA0303EB620A
:101E40000568EA6A4B6803EB8303413B0C8804FA9C
:101E500003F31343EB62A9E70B68122BAAD1164ACE
:101E6000536843F480035360A4E70B68103B012BD5
:101E7000A4D8114A536843F4000353600B68102B35
:101E80009CD10E4B1B6802F1467202F52E3202F213
:101E90008332A2FB03239B0C03EB83035B000193C0
:101EA00002E0019B013B0193019B002BF9D185E7E7
:101EB000022087E7002001400023014008000020A5
:101EC00070B110B50446037933B1022323710020A9
:101ED00020610123237110BD4371FFF727FCF4E754
:101EE000012070474379012B2ED010B40123437198
:101EF000022202710468226801F0100C03FA0CF34C
:101F00001343236091B90268136803F03C033C2B30
:101F100007D0012303710023437118465DF8044B79
:101F20007047536843F001035360F2E701680A68A1
:101F300002F470123C2303FA0CFC6245E9D14B68B1
:101F400043F002034B60E4E70220704710B483B013
:101F5000002401940068019051B901990A440832A3
:101F60000192019A1360002003B05DF8044B7047A2
:101F700001990A4414320192F3E74379012B25D0E9
:101F800010B54FF0010E80F805E0022303710468DC
:101F9000236802F0100240F6FE7C0CFA02FC23EAF1
:101FA0000C0C0B6849680B43934043EA0C03236015
:101FB00004682368C02101FA02F223EA02022260C7
:101FC00080F804E000234371184610BD02207047DA
:101FD000026802F10C0353E8003F23F490730C32C3
:101FE00042E800310029F3D1026802F1140353E8FA
:101FF000003F23F00103143242E800310029F3D1FD
:10200000036B012B05D0202380F83E3000230363AF
:102010007047026802F10C0353E8003F23F01003FD
:102020000C3242E800310029F3D1ECE790F83D3062
:10203000DBB2212B01D0022070478368B3F5805FAB
:1020400017D0036A5A1C02621A7803685A60C38C5C
:102050009BB2013B9BB2C3844BB90268D36823F0A7
:102060008003D3600268D36843F04003D36000204C
:1020700070470369002BE4D1036A1B880268C3F32D
:1020800008035360036A02330362E0E738B504468D
:102090000268136923F44053C1680B4313618368DA
:1020A0000269134342691343C2691A430168CB684A
:1020B00023F4164323F00C031343CB6002685369E7
:1020C00023F4407381690B4353610368314A93429F
:1020D00006D002F58062934202D000F045FE01E096
:1020E00000F052FEE369B3F5004F29D00021031838
:1020F00049411B1841F10001C90041EA5371DB005D
:10210000181863684FEA83024FEA937341F10001A4
:10211000FEF7DAFE204DA5FB00325109642303FBD4
:1021200011031B013233A5FB03235B0903F0F0020B
:1021300002EB011203F00F03216813448B6038BDDA
:102140000023021843EB0301121841F10001C900FA
:1021500041EA5271D200101841F1000162689218F0
:102160005B41FEF7B1FE0C4DA5FB00325109642323
:1021700003FB1103DB003233A5FB03235B095A0089
:1021800002F4F87202EB011203F007032168134412
:102190008B60D4E7001001401F85EB512DE9F84317
:1021A00005460F4616469946DDF820802C682468BF
:1021B00037EA04030CBF4FF0010C4FF0000CB4459C
:1021C0002DD1B8F1FF3FF1D0B8F1000F05D001F0EB
:1021D000E1F9A0EB09004045E8D92A6802F10C03B7
:1021E00053E8003F23F4D0730C3242E80031002959
:1021F000F3D12A6802F1140353E8003F23F00103EE
:10220000143242E800310029F3D1202385F83D3013
:1022100085F83E30002385F83C30032000E00020A4
:10222000BDE8F88358B310B5044690F83D300BB3C1
:10223000242384F83D302268D36823F40053D3600C
:102240002046FFF723FF2268136923F490431361AC
:102250002268536923F02A0353612268D36843F448
:102260000053D36000202064202384F83D3084F89C
:102270003E3010BD80F83C30FFF7CAFAD8E70120A5
:1022800070472DE9F04182B01E4690F83D30DBB238
:10229000202B54D104460D469046002953D0002AE5
:1022A00053D090F83C30012B51D0012380F83C30C2
:1022B00000230364212380F83D3001F06BF90746C9
:1022C000A4F82480A4F82680A368B3F5805F05D025
:1022D0004FF00008002384F83C3012E0236913B16A
:1022E0004FF00008F6E7A8460025F3E738F8023B70
:1022F0002268C3F308035360E28C92B2013A92B2AF
:10230000E284E38C9BB273B100963B4600228021AD
:102310002046FFF743FFE0B9002DE7D015F8012B69
:1023200023685A60E8E700963B4600224021204699
:10233000FFF734FF78B9202384F83D3000E0022015
:1023400002B0BDE8F0810120FAE70120F8E70220A1
:10235000F6E70320F4E70320F2E7704708B50168C9
:10236000CA6822F04002CA60202280F83D20FFF7B0
:10237000F4FF002008BD704708B5806B0023C385BB
:10238000C384FFF7F8FF08BD704790F83E30DBB21A
:10239000222B67D18368B3F5805F4DD0826AB3F595
:1023A000805F04D0002B54D10369002B51D1036806
:1023B0005B681370836A01338362C38D9BB2013BF8
:1023C0009BB2C385002B4FD100B583B00268D368A0
:1023D00023F02003D3600268D36823F48073D360B2
:1023E0000268536923F001035361202380F83E30D3
:1023F000036B012B33D100230363026802F10C034A
:1024000053E8003F23F010030C3242E8003100296A
:10241000F3D103681A6812F0100F06D0002201925F
:102420001A6801925B680193019B818DFFF7ACFFF5
:10243000002003B05DF804FB0269002AAED1826A75
:1024400003685B68C3F308031380836A0233836203
:10245000B3E703685B6803F07F031370AAE706F035
:102460003BFBE5E7022070470020704730B583B0A2
:10247000044602681368D068516913F00F0505D14E
:1024800013F0200F02D010F0200F19D12DB111F050
:10249000010119D110F4907F16D1216B01297DD053
:1024A00013F0800F03D010F0800F40F0158113F06F
:1024B000400F03D010F0400F40F0128103B030BD48
:1024C0002046FFF762FFF9E713F0010F06D010F482
:1024D000807F03D0226C42F00102226413F0040FCB
:1024E00004D019B1226C42F00202226413F0020FF0
:1024F00004D019B1226C42F00402226413F0080FD8
:1025000007D010F0200F00D119B1226C42F0080260
:102510002264226C002AD1D013F0200F02D010F0D8
:10252000200F29D123685B6903F04003226C12F06D
:10253000080F00D163B32046FFF74AFD23685B69AB
:1025400013F0400F20D0226802F1140353E8003F3B
:1025500023F04003143242E800310029F3D1A36B89
:1025600073B1614A1A65A06B00F048FF0028A5D03E
:10257000A06B036D9847A1E72046FFF706FFD1E760
:102580002046FFF7F8FE99E72046FFF7F4FE95E7AF
:102590002046FFF7F0FE002323648FE713F0100FAF
:1025A0003FF47EAF10F0100F3FF47AAF0023019399
:1025B0001368019353680193019B536913F0400F13
:1025C00050D0A26B13685B689BB2002B3FF476AFD0
:1025D000A18D99427FF672AFE385D369B3F5807F11
:1025E00037D0226802F10C0353E8003F23F48073D4
:1025F0000C3242E800310029F3D1226802F11403C1
:1026000053E8003F23F00103143242E8003100296F
:10261000F3D1226802F1140353E8003F23F0400392
:10262000143242E800310029F3D1202384F83E30EF
:1026300000232363226802F10C0353E8003F23F0D8
:1026400010030C3242E800310029F3D1A06B00F0F6
:102650008BFEA18DE38D9BB2C91A89B22046FFF78C
:1026600093FE2BE7A18DE38D9BB2C91A89B2E38D4E
:102670009BB2002B3FF422AF00293FF41FAF22682A
:1026800002F10C0353E8003F23F490730C3242E84C
:1026900000300028F3D1226802F1140353E8003F10
:1026A00023F00103143242E800300028F3D1202344
:1026B00084F83E3000232363226802F10C0353E8C0
:1026C000003F23F010030C3242E800300028F3D121
:1026D0002046FFF759FEF1E62046FFF7A7FCEDE69E
:1026E0002046FFF73BFEE9E67923000881628285F8
:1026F000C28500230364222280F83E2080F83C300B
:10270000036923B10268D36843F48073D36002681D
:10271000536943F0010353610268D36843F0200317
:10272000D3600020704708B590F83E30DBB2202B14
:102730000DD171B17AB190F83C30012B0DD001234D
:1027400080F83C3000230363FFF7D0FF00E0022055
:1027500008BD0120FCE70120FAE70220F8E70000AD
:10276000002800F0E08170B582B00446036813F0E1
:10277000010F3BD09F4B9B6803F00C03042B2CD024
:102780009C4B9B6803F00C03082B21D06368B3F5C6
:10279000803F4FD0B3F5A02F52D0964B1A6822F449
:1027A00080321A601A6822F480221A606368002B53
:1027B00050D000F0EFFE05468E4B1B6813F4003F2F
:1027C00014D100F0E7FE401B6428F5D90320B1E1E5
:1027D000884B5B6813F4800FD8D0864B1B6813F4CA
:1027E000003F03D06368002B00F09F81236813F043
:1027F000020F54D07F4B9B6813F00C0F3ED07D4BE3
:102800009B6803F00C03082B33D0E368002B68D0DF
:10281000794B01221A6000F0BDFE0546754B1B681E
:1028200013F0020F54D100F0B5FE401B0228F5D979
:1028300003207FE16F4A136843F480331360B5E7E8
:102840006C4B1A6842F480221A601A6842F4803293
:102850001A60ABE700F09EFE0546664B1B6813F45A
:10286000003FC3D000F096FE401B6428F5D903203A
:1028700060E1604B5B6813F4800FC6D15D4B1B6851
:1028800013F0020F03D0E368012B40F05081594A46
:10289000136823F0F803216943EAC1031360236836
:1028A00013F0080F42D063696BB3534B0122C3F896
:1028B000802E00F06FFE05464E4B5B6F13F0020F4B
:1028C00034D100F067FE401B0228F5D9032031E126
:1028D000484A136823F0F803216943EAC1031360EF
:1028E000DDE7454B00221A6000F054FE0546414BDF
:1028F0001B6813F0020FD2D000F04CFE401B0228E0
:10290000F5D9032016E13C4B0022C3F8802E00F0DD
:1029100041FE0546374B5B6F13F0020F06D000F007
:1029200039FE401B0228F5D9032003E1236813F088
:10293000040F77D02F4B1B6C13F0805F33D1002333
:1029400001932C4B1A6C42F080521A641B6C03F0FA
:1029500080530193019B0125284B1B6813F4807F52
:1029600023D0A368012B34D0052B38D0214B1A6F0C
:1029700022F001021A671A6F22F004021A67A36894
:10298000002B3DD000F006FE06461A4B1B6F13F0DD
:10299000020F46D100F0FEFD801B41F288339842C1
:1029A000F3D90320C6E00025D6E7144A136843F4A0
:1029B0008073136000F0EEFD0646104B1B6813F4A5
:1029C000807FCED100F0E6FD801B0228F5D90320E0
:1029D000B0E0084A136F43F001031367CFE7054BDC
:1029E0001A6F42F004021A671A6F42F001021A6766
:1029F000C5E700BF003802400000474200700040B9
:102A000000F0C8FD0646524B1B6F13F0020F08D0B2
:102A100000F0C0FD801B41F288339842F3D90320B7
:102A200088E0EDB9A369002B00F08380484A9268E2
:102A300002F00C02082A51D0022B17D0454B00227D
:102A40001A6600F0A7FD0446414B1B6813F0007F97
:102A500042D000F09FFD001B0228F5D9032069E059
:102A60003B4A136C23F080531364DBE7394B00229D
:102A70001A6600F08FFD0546354B1B6813F0007F8A
:102A800006D000F087FD401B0228F5D9032051E055
:102A9000E369226A1343626A43EA8213A26A520814
:102AA000013A43EA0243E26A43EA0263284A536076
:102AB000284B01221A6600F06DFD0446244B1B686A
:102AC00013F0007F06D100F065FD001B0228F5D948
:102AD00003202FE000202DE000202BE0012B2BD045
:102AE0001B4B5B6803F48001E269914226D103F03D
:102AF0003F02216A8A4223D1616A47F6C0721A40B6
:102B0000B2EB811F1ED103F44031A26A5208013A90
:102B1000B1EB024F18D103F07063E26AB3EB026FBE
:102B200014D1002006E001207047012002E00120BE
:102B300000E0002002B070BD0120FBE70120F9E7B2
:102B40000120F7E70120F5E70120F3E70120F1E795
:102B5000003802400000474208B5254B9B6803F04F
:102B60000C03042B3FD0082B3FD1214B5A6802F0B5
:102B70003F025B6813F4800F12D01D4B5968C1F3FC
:102B800088111C480023A1FB0001FEF79DF9184B9A
:102B90005B68C3F3014301335B00B0FBF3F025E056
:102BA000134B5968C1F3881C4FEA4C11B1EB0C0070
:102BB0006EEB0E0E4FEA8E1343EA90638101091A01
:102BC00063EB0E03DB0043EA5173C90011EB0C0CFD
:102BD00043F10003990200234FEA8C2041EA9C5103
:102BE000FEF772F9D3E7034800E0034808BD00BFD1
:102BF00000380240001BB7000024F400002800F059
:102C00009B8070B50D4604464F4B1B6803F00703CD
:102C10008B4208D2CBB24C4A1370136803F00703FF
:102C20008B4240F08B80236813F0020F17D013F013
:102C3000040F04D0454A936843F4E053936023683B
:102C400013F0080F04D0414A936843F46043936043
:102C50003E4A936823F0F003A1680B439360236816
:102C600013F0010F32D06368012B21D09A1E012A84
:102C700025D9364A126812F0020F61D033498A68AA
:102C800022F0030213438B6000F084FC06462F4BB6
:102C90009B6803F00C036268B3EB820F16D000F060
:102CA00079FC801B41F288339842F0D9032042E03E
:102CB000264A126812F4003FE0D101203BE0234A8B
:102CC000126812F0007FD9D1012034E01E4B1B683E
:102CD00003F00703AB4207D9EAB21B4B1A701B681B
:102CE00003F00703AB422DD1236813F0040F06D085
:102CF000164A936823F4E053E1680B43936023681A
:102D000013F0080F07D0114A936823F46043216938
:102D100043EAC1039360FFF71FFF0C4B9B68C3F3AB
:102D200003130B4AD35CD8400A4B18600A4B18684F
:102D300000F0E4FB002070BD012070470120FAE79D
:102D40000120F8E70120F6E7003C0240003802408D
:102D5000702D01080800002004000020014B1868B5
:102D6000704700BF0800002008B5FFF7F7FF044BCD
:102D70009B68C3F38223034AD35CD84008BD00BFDD
:102D800000380240802D010808B5FFF7E7FF044B2B
:102D90009B68C3F34233034AD35CD84008BD00BFED
:102DA00000380240802D010810B40A490C6924F44F
:102DB00040740C610C6944F440740C610C6944F07B
:102DC00001040C610260BFF36F8F43605DF8044B38
:102DD000704700BF003C0240074B1A6922F4407262
:102DE0001A611A6942F400721A611A6942F001020A
:102DF0001A610160704700BF003C0240074B1A692E
:102E000022F440721A611A6942F480721A611A69D6
:102E100042F001021A610180704700BF003C02408D
:102E2000064B1A6922F440721A611A691A611A690A
:102E300042F001021A610170704700BF003C02407D
:102E4000204BDB6813F0100F07D01F4AD36943F003
:102E50001003D3611B4B1022DA601A4BDB6813F0AE
:102E6000200F07D0184AD36943F00803D361154BEC
:102E70002022DA60134BDB6813F0400F07D0124AB0
:102E8000D36943F00403D3610E4B4022DA600D4B4B
:102E9000DB6813F0800F07D00B4AD36943F00203BD
:102EA000D361084B8022DA60064BDB6813F0020F17
:102EB00007D0054AD36943F02003D361014B0222B6
:102EC000DA607047003C024044150020094B1B6942
:102ED000002B01DB00207047064B074A5A6002F1C5
:102EE00088325A601B69002B01DB002070470120EB
:102EF000704700BF003C024023016745034A136945
:102F000043F0004313610020704700BF003C0240C3
:102F100038B50446144B0022DA6100F03BFB05464D
:102F2000124BDB6813F4803F0AD0B4F1FF3FF7D0B7
:102F300024B100F02FFB401BA042F1D903200DE08B
:102F40000A4BDB6813F0010F02D0084B0122DA6054
:102F5000064BDB6813F0F20F01D1002038BDFFF7FC
:102F60006FFF0120FAE700BF44150020003C02403B
:102F7000F8B516461B4A127E012A30D004460D468B
:102F80001F46184B01221A764CF25030FFF7C0FF53
:102F900090B9ACB1012C18D0022C1BD032463B4664
:102FA0002846FFF701FF4CF25030FFF7B1FF0E4A01
:102FB000136923F0010313610A4B00221A76F8BD4E
:102FC000F1B22846FFF72CFFEDE7B1B22846FFF734
:102FD00015FFE8E731462846FFF7FEFEE3E702204B
:102FE000EDE700BF44150020003C0240074B196983
:102FF00021F440711961196941F0040119611A69DC
:1030000042EA002242F480321A617047003C0240DA
:1030100049B1012921D0022902D04FF4407C04E0BB
:103020004FF4007C01E04FF0000C0D4B196921F4C6
:10303000407119611A6942EA0C021A611A6922F098
:10304000F8021A611A6942EAC00040F002001861F1
:103050001A6942F480321A6170474FF4807CE4E7C9
:10306000003C0240164B1B6813F4007F10D0144B39
:103070001A6822F400721A601A6842F400621A6038
:103080001A6822F400621A601A6842F400721A6028
:103090000B4B1B6813F4806F10D0094B1A6822F495
:1030A00080621A601A6842F480521A601A6822F428
:1030B00080521A601A6842F480621A60704700BF3A
:1030C000003C0240F8B5224B1B7E012B3ED004464B
:1030D0000E461F4B01221A764CF25030FFF718FFB4
:1030E000074670BB4FF0FF3333602368012B16D0C7
:1030F000A568E368A2681344AB4220D9217C284626
:10310000FFF786FF4CF25030FFF702FF114A1369B8
:1031100023F0FA031361074680B90135E9E76168D6
:10312000207CFFF763FF4CF25030FFF7F1FE0746BB
:10313000084A136923F00403136100E03560FFF7C8
:1031400091FF034B00221A763846F8BD0227FBE7B1
:1031500044150020003C024000230F2B00F2E480C5
:1031600070B582B060E085685E000324B44025EA53
:103170000405CC68B4402C438460456825EA020508
:103180004C68C4F300129A402A4342605AE0DC08BB
:10319000083450F8246003F0070295000F22AA407B
:1031A00026EA020E0A69AA4042EA0E0240F82420EA
:1031B0005CE0072200E0002202FA0EF22A43023409
:1031C0005A4D45F824205A4A94686FEA0C0224EAC2
:1031D0000C054E6816F4801F01D04CEA0405544CCF
:1031E000A560E46802EA04054E6816F4001F01D0E9
:1031F0004CEA04054E4CE560646802EA04054E683A
:1032000016F4003F01D04CEA0405494C656024687F
:1032100022404D6815F4803F01D04CEA0402444C32
:10322000226001330F2B7DD801229A400C6804EAFA
:10323000020C32EA0404F4D14C6804F00304013CAB
:10324000012C90D94A6802F00302032A09D0C4680D
:103250005D000322AA4024EA02048A68AA402243AD
:10326000C2604A6802F00302022A90D004684FEA62
:10327000430E032202FA0EF224EA02044A6802F024
:10328000030202FA0EF2224302604A6812F4403F3F
:10329000C7D000220192274A546C44F480445464FD
:1032A000526C02F480420192019A9C08A51C1F4AAC
:1032B00052F8255003F003024FEA820E0F2202FA61
:1032C0000EF225EA02051C4A90423FF474AF02F563
:1032D000806290421AD002F58062904218D002F5C6
:1032E0008062904216D002F58062904214D002F5BE
:1032F0008062904212D002F58062904210D002F5B6
:10330000806290423FF455AF082255E7012253E70F
:10331000022251E703224FE704224DE705224BE743
:10332000062249E702B070BD704700BF0038014077
:10333000003C01400038024000000240036919428D
:1033400001D001207047002070470AB181617047A9
:10335000090481617047436901EA030221EA03011C
:1033600041EA02418161704770B50446866D00F004
:1033700011F994F83530DBB2022B06D08023636557
:10338000002384F83430012070BD0546226813689C
:1033900023F0160313602268536923F080035361FE
:1033A000236CE3B12268136823F0080313602268DA
:1033B000136823F00103136023681B6813F0010FE7
:1033C00011D000F0E7F8431B052BF5D920236365E6
:1033D000032084F83500002384F83430D4E7A36C4C
:1033E000002BDFD1E3E7E26D3F239340B36001237D
:1033F00084F83530002084F83400C5E790F8353083
:10340000DBB2022B03D080234365012070470523E4
:1034100080F835300268136823F001031360002040
:1034200070470000074AD36823F4E0631B041B0CB9
:10343000000200F4E060034343F0BF6343F4003351
:10344000D360704700ED00E000B5194BDB68C3F3B3
:103450000223C3F1070CBCF1040F28BF4FF0040C8A
:1034600003F1040EBEF1060F18D9033B4FF0FF3EE7
:103470000EFA0CFC21EA0C0199400EFA03F322EA41
:103480000303194300280BDB0901C9B200F16040B6
:1034900000F5614080F800135DF804FB0023E5E7C8
:1034A00000F00F000901C9B2024B1954F4E700BF44
:1034B00000ED00E014ED00E0002807DB00F01F0243
:1034C000400901239340024A42F82030704700BF70
:1034D00000E100E00138B0F1807F0BD24FF0E02333
:1034E0005861054AF02182F82310002098610722D4
:1034F0001A6170470120704700ED00E010B50446E6
:103500000E4B18784FF47A73B3FBF0F30C4A106843
:10351000B0FBF3F0FFF7DEFF68B90F2C01D90120F3
:103520000AE0002221464FF0FF30FFF78DFF054BE8
:103530001C60002000E0012010BD00BF0000002042
:10354000080000200400002008B50B4B1A6842F464
:1035500000721A601A6842F480621A601A6842F4B3
:1035600080721A600320FFF75DFF0F20FFF7C6FF90
:10357000FEF772F8002008BD003C0240034A1168C3
:10358000034B1B780B441360704700BF6415002089
:1035900000000020014B1868704700BF6415002030
:1035A00038B50446FFF7F6FF0546B4F1FF3F02D0F9
:1035B000044B1B781C44FFF7EDFF401BA042FAD3DD
:1035C00038BD00BF000000202DE9F04782B005465D
:1035D000884617461E46FFF7DDFF0A9B1B1A03EBC2
:1035E0000609FFF7D7FF82462B4B1B68C3F3CB338B
:1035F00009FB03F301932B689C6838EA04030CBFB2
:103600004FF0010C4FF0000CBC4540D0B6F1FF3F2D
:10361000F1D0FFF7BFFFA0EB0A0048450AD2B9F18D
:10362000000F07D0019A02B14A46019B013B01936A
:103630009146E0E72A68536823F0E00353606B6823
:10364000B3F5827F0BD0AB6AB3F5005F14D00123D2
:1036500085F85130002385F85030032018E0AB681E
:10366000B3F5004F02D0B3F5806FECD12A68136830
:1036700023F040031360E6E72A68136823F400533D
:1036800013602A68136843F400531360DFE70020D7
:1036900002B0BDE8F08700BF0800002010B584B07C
:1036A0000446164B1868164BA3FB0030400D4FF430
:1036B0007A7303FB00F003906368B3F5827F0BD04D
:1036C000039BBBB1039B013B039323689B6813F0EF
:1036D000800FF5D100200EE000920B4600228021E1
:1036E0002046FFF771FF30B1636D43F0200363653F
:1036F000032000E0002004B010BD00BF080000203F
:10370000819F5E1610B582B004460B464168B1F544
:10371000827F14D06168B1F5827F2AD1A168B1F5AA
:10372000806F19D00092002280212046FFF74CFFC5
:1037300030B3636D43F020036365032020E08168AC
:10374000B1F5004F02D0B1F5806FE3D12068016878
:1037500021F040010160DDE70092002201212046B6
:10376000FFF732FF60B1636D43F020036365032010
:1037700006E00092002201212046FFF725FF08B94C
:1037800002B010BD636D43F0200363650320F7E7CB
:1037900000285AD010B50446436A33B94368B3F5DC
:1037A000827F05D00023C36102E0002303614361EF
:1037B0000023A36294F85130002B40D0022384F8F8
:1037C00051302268136823F040031360636803F4E8
:1037D0008273A26802F404421343E26802F40062B6
:1037E0001343226902F002021343626902F00102EC
:1037F0001343A26902F400721343E26902F0380233
:103800001343226A02F080021343A26A02F40052B8
:10381000216813430B60638B03F00403626A02F0B8
:103820001002216813434B602268D36923F40063BC
:10383000D36100206065012384F8513010BD84F805
:1038400050302046FDF7A6FFB8E7012070472DE96C
:10385000F04383B01D4690F85030012B00F0D1802A
:10386000044688469146012380F85030FFF792FEC7
:10387000074694F85160F6B2012E40F0AF80B8F1DF
:10388000000F00F0AC80B9F1000F00F0A880032316
:1038900084F8513000236365C4F83080A4F8349074
:1038A000A4F83690A363A387E38763642364A368C3
:1038B000B3F5004F1ED023681A6812F0400F03D1F1
:1038C0001A6842F040021A60E368B3F5006F1CD03A
:1038D000636813B1B9F1010F52D1226B23681278DA
:1038E0001A73236B01332363E38E9BB2013B9BB2BC
:1038F000E38645E02268136823F0400313602268E2
:10390000136843F480431360D5E7636813B1B9F1DA
:10391000010F16D1226B23681288DA60236B023301
:103920002363E38E9BB2013B9BB2E38609E0FFF782
:1039300031FEC01BA84202D3B5F1FF3F59D1002D83
:1039400059D0E38E9BB2002B33D023689A6812F0D3
:10395000020FECD0226B1288DA60236B02332363F0
:10396000E38E9BB2013B9BB2E386EAE7FFF712FED0
:10397000C01BA84202D3B5F1FF3F3ED1002D3ED07F
:10398000E38E9BB2ABB123689A6812F0020FEDD0C0
:10399000226B12781A73236B01332363B4F836C099
:1039A0001FFA8CFC0CF1FF3C1FFA8CFCA4F836C00B
:1039B000E6E73A4629462046FFF770FE08B1202385
:1039C0006365A36833B901932368DA6801929B6841
:1039D0000193019B636D13B9002600E002260123C9
:1039E00084F85130002384F85030304603B0BDE8ED
:1039F000F0830326F3E70326F1E70326EFE7032628
:103A0000EDE70226F1E72DE9F04383B01F460A9D5A
:103A100090F85030012B00F0108104468846914602
:103A2000012380F85030FFF7B5FD064694F8513079
:103A3000DBB26268012B0AD0B2F5827F40F0E380EE
:103A4000A268002A40F0E980042B40F0E880B8F139
:103A5000000F00F0E680B9F1000F00F0E480002FC5
:103A600000F0E38094F85130DBB2042B02D0052340
:103A700084F8513000236365C4F83890E787A7873E
:103A8000C4F83080E786A7862364636423681A68D5
:103A900012F0400F03D11A6842F040021A60E36846
:103AA000B3F5006F11D063680BB1012F0BD1226BFE
:103AB000236812781A73236B01332363E38E9BB25E
:103AC000013B9BB2E38601276BE063680BB1012FDA
:103AD0000BD1226B23681288DA60236B02332363D5
:103AE000E38E9BB2013B9BB2E38601271CE0236877
:103AF0009A6812F0010F0ED0E28F92B25AB1DA68D2
:103B0000A36B1A80A36B0233A363E38F9BB2013BC9
:103B10009BB2E3870127FFF73DFD801BA84203D33B
:103B2000B5F1FF3F40F08380E38E9BB21BB9E38F7A
:103B30009BB2002B53D023689A6812F0020FD6D0A4
:103B4000E28E92B2002AD2D0002FD0D0226B1288FF
:103B5000DA60236B02332363E38E9BB2013B9BB29B
:103B6000E3860027C3E723689A6812F0010F0ED09E
:103B7000E28F92B25AB1DA68A36B1A70A36B013369
:103B8000A363E38F9BB2013B9BB2E3870127FFF75F
:103B900001FD831BAB4202D3B5F1FF3F49D1002D9C
:103BA00049D0E38E9BB213B9E38F9BB2BBB12368BC
:103BB0009A6812F0020FD6D0E28E92B2002AD2D0CA
:103BC000002FD0D0226B12781A73236B013323633A
:103BD000E38E9BB2013B9BB2E3860027C3E73246EC
:103BE00029462046FFF75AFD48B9A36863B90193F7
:103BF0002368DA6801929B680193019B04E020230B
:103C00006365012000E00220012384F85130002385
:103C100084F8503003B0BDE8F0830220F4E70220BE
:103C2000F2E70120F0E70120EEE70120ECE70320B6
:103C3000EAE70320E8E70320E6E70220EAE72DE9C8
:103C4000F04383B00446884691461D464068B0F56F
:103C5000827F38D094F85030012B00F0AE800123E1
:103C600084F85030FFF796FC074694F85160F6B29E
:103C7000012E40F08F80B8F1000F00F08C80B9F178
:103C8000000F00F08880042384F85130002363651E
:103C9000C4F83880A4F83C90A4F83E902363A3862F
:103CA000E38623646364A368B3F5004F19D02368E7
:103CB0001A6812F0400F03D11A6842F040021A60ED
:103CC000E3681BB341E0A368002BC3D1042384F84D
:103CD0005130009513460A462046FFF794FE0646EB
:103CE0005FE02268136823F04003136022681368C2
:103CF00023F480431360DAE7FFF74CFCC01BA842B3
:103D000002D3B5F1FF3F50D1002D50D0E38F9BB2CD
:103D1000002B33D023689A6812F0010FECD0A26B0D
:103D20001B7B1370A36B0133A363E38F9BB2013B37
:103D30009BB2E387EAE7FFF72DFCC01BA84202D342
:103D4000B5F1FF3F35D1002D35D0E38F9BB2ABB13C
:103D500023689A6812F0010FEDD0DA68A36B1A801D
:103D6000A36B0233A363B4F83EC01FFA8CFC0CF1C2
:103D7000FF3C1FFA8CFCA4F83EC0E6E73A46294611
:103D80002046FFF7BFFC08B120236365636D13B9BC
:103D9000002600E00226012384F85130002384F835
:103DA0005030304603B0BDE8F0830326F3E7032626
:103DB000F1E70326EFE70326EDE70226F1E7704778
:103DC00030B585B00446026851689368C3F380102B
:103DD00013F0400F05D113F0010F02D011F0400F86
:103DE00069D113F0020F02D011F0800F67D1C3F335
:103DF000401513F0200F03D110B913F4807F61D068
:103E000011F0200F5ED078B194F85100C0B20328B1
:103E10005AD0606D40F00400606500200090D068CA
:103E2000009090680090009865B1606D40F00100CE
:103E300060650020029090680290106820F04000B9
:103E40001060029A13F4807F09D0636D43F0080379
:103E500063650023039323689B680393039B636D4F
:103E6000002B2FD02268536823F0E0035360012316
:103E700084F8513011F0030F2ED02268536823F0DC
:103E800003035360E36C4BB1154A1A65E06CFFF70E
:103E9000B5FA18B1636D43F040036365A36C8BB151
:103EA0000F4A1A65A06CFFF7A9FA58B1636D43F089
:103EB0004003636506E0236C2046984702E0636C8C
:103EC0002046984705B030BD00230193D368019385
:103ED00093680193019BF5E72046FFF770FFF1E738
:103EE000E53E000808B5806B0023C387C386FFF753
:103EF00066FF08BD034AD2F8883043F47003C2F865
:103F00008830704700ED00E008B54FF400610348C9
:103F1000FFF714FA012800D0002008BD000002407D
:103F200070B586B000230193029303930493059325
:103F30004FF40066019611230293012503951A4C54
:103F400001A92046FFF708F92A4631462046FFF727
:103F5000FCF92A464FF480512046FFF7F6F9134B3F
:103F60001B881A46013B002AFBD1FFF7CDFF10B991
:103F7000012006B070BD00224FF400610A48FFF72F
:103F8000E4F90A4B1B881A46013B002AFBD14FF487
:103F900080510548FFF7D9F9044B1B881A46013BAD
:103FA000002AFBD10020E4E7000002400C000020C2
:103FB00070B586B00024019402940394049405948F
:103FC0004FF4006601961123029301230393154DCC
:103FD00001A92846FFF7C0F8224631462846FFF7D8
:103FE000B4F922464FF480512846FFF7AEF90E4B44
:103FF0001B881A46013B002AFBD101224FF4805155
:104000000848FFF7A2F9084B1B881A46013B002A13
:10401000FBD101224FF400610248FFF796F906B088
:1040200070BD00BF000002400C00002010B5124C13
:1040300000224FF400612046FFF787F900224FF479
:1040400080512046FFF781F90C4B1B881A46013B33
:10405000002AFBD101224FF480510748FFF775F980
:10406000064B1B881A46013B002AFBD14FF48051B6
:104070000148FFF76AF910BD000002400C00002063
:1040800010B5124C01224FF400612046FFF75DF994
:1040900000224FF480512046FFF757F90C4B1B8844
:1040A0001A46013B002AFBD101224FF480510748F8
:1040B000FFF74BF9064B1B881A46013B002AFBD140
:1040C0004FF480510148FFF740F910BD0000024055
:1040D0000C00002030B587B00023019302930393B6
:1040E000049305934FF400630193224C01A92046E9
:1040F000FFF732F801224FF480512046FFF725F9EF
:104100001D4B1B881A46013B002AFBD1FFF7FCFE22
:10411000054630BB00224FF480511648FFF715F9D1
:10412000154B1B881A46013B002AFBD1114C01227A
:104130004FF400612046FFF708F900230193029332
:104140000393049305934FF40063019311230293A7
:104150000123039301A92046FEF7FEFF284607B07E
:1041600030BD00224FF480510248FFF7EEF80225DF
:10417000F4E700BF000002400C00002038B5044600
:1041800000224FF480511948FFF7DFF8002520E0A6
:1041900001224FF400611548FFF7D7F8144B1B8834
:1041A0001A46013B002AFBD16400E4B201224FF41D
:1041B00080510E48FFF7C9F80D4B1B881A46013B8A
:1041C000002AFBD14FF480510848FFF7BEF80135B3
:1041D000EDB2072D09D814F0800FD9D100224FF489
:1041E00000610248FFF7B1F8D8E738BD000002408F
:1041F0000C00002070B586B0002401940294039452
:10420000049405944FF400660196284D01A92846B0
:10421000FEF7A2FF012231462846FFF796F8254611
:1042200001E00134E4B2072C20D800224FF4805181
:104230001E48FFF78AF86D00EDB21D4B1B881A4629
:10424000013B002AFBD101224FF480511748FFF7B0
:104250007CF8174B1B881A46013B002AFBD1FFF75D
:1042600053FE0028DDD045F00105DAE700224FF4C7
:1042700080510E48FFF769F80D4B1B881A46013B29
:10428000002AFBD100230193029303930493059327
:104290004FF400630193112302930123039301A9B7
:1042A0000248FEF759FF284606B070BD00000240E4
:1042B0000C000020F8B504460F4616461D46FFF7D1
:1042C0002FFE10B101273846F8BD2046FFF756FFF4
:1042D000FFF700FF80B93846FFF750FFFFF7FAFEFF
:1042E000074668B9FFF71CFE44F00100FFF746FFE0
:1042F000FFF7F0FE002409E0FFF75AFE0227E2E78D
:10430000FFF756FE0227DEE70134A4B2AC4208D222
:10431000FFF770FF30556B1E9C42F5D0FFF786FE0D
:10432000F2E7FFF7ADFEFFF743FECCE708B5034B1E
:1043300099881868FFF702F808BD00BF68150020CB
:1043400008B5034B99881868FEF7F8FF08BD00BF51
:10435000681500202DE9F04387B00D460023019336
:10436000029303930493059302294FD0032900F08D
:104370008680012902D007B0BDE8F0830138654A84
:1043800082FB0032C317C3EBA20303EB8303A0EB52
:104390004303DAB2032A27D85F49604A0A61DBB2D5
:1043A0004FF4806202FA03F38B825A4B83FB0023A3
:1043B000C017C0EBA300C0B2574B594A1A60012284
:1043C00082409A80574A9A60012818D902384FF4DF
:1043D000805303FA00F0504B9881534B1D70534BA0
:1043E0004FF416721A80C6E74B49514A0A61DBB294
:1043F000043B4FF4806202FA03F38B82D5E74FF45B
:10440000807303FA00F0444B9881E6E70138414A93
:1044100082FB0032C317C3EBA203194603EB8303ED
:10442000A0EB43033C483D4A0261DBB2012202FAA1
:1044300003F38382C9B23A4C046002FA01F39BB2DF
:1044400083808460838191420FD902394FF4805375
:1044500003FA01F1002289B23248FEF776FF334BAE
:1044600032221A80304B1D7085E74FF4807303FAB7
:1044700001F1002289B22B48FEF767FFEFE7013810
:10448000244C84FB0034C017C0EBA4045FFA84F909
:10449000284F244E3E614023BB8201934FF0010818
:1044A000CDF808800223049301A93046FEF754FE9C
:1044B000BE618023BB83019300230293039301A970
:1044C0003046FEF749FE42464FF473413046FEF750
:1044D0003CFFC14518D9E3B29A1E4FF48053934074
:1044E000144A9380134B0F4A1A6002F540629A6097
:1044F000E4B2012202FA04F49C810C4B4FF41672D0
:104500001A80094B1D7036E74A464FF4807393407A
:10451000BB80E7E767666666681500200008024012
:104520000010024000040240A01500200E000020F0
:10453000000C02408015002008B5094B1B78022BA7
:1045400006D0084B002299899868FEF7FEFE08BD48
:10455000044B012299899868FEF7F7FEF7E700BF40
:10456000A01500206815002008B5094B1B78022B08
:1045700006D0084B012299899868FEF7E6FE08BD2F
:10458000044B002299899868FEF7DFFEF7E700BF29
:10459000A01500206815002008B5034B0122998A58
:1045A0001869FEF7D2FE08BD6815002008B5034B58
:1045B0000022998A1869FEF7C8FE08BD6815002018
:1045C00000B587B0002301930293039304930593EE
:1045D000154B9A8901921122029201A99868FEF75F
:1045E000BBFDFFF7A9FFFFF7D7FF104B1B881A464B
:1045F000013B002AFBD1FFF7B7FF0C4B1B881A4683
:104600001146013A0029FBD11A46013B002AFBD191
:10461000FFF7CCFF054B1B881A46013B002AFBD154
:10462000002007B05DF804FB681500200E00002094
:1046300000B587B00023019302930393049305937D
:104640000F4B9A8901921122029201A99868FEF7F4
:1046500083FDFFF789FFFFF7A9FF0A4B1B881A4666
:10466000013B002AFBD1FFF797FF064B1B881A4638
:10467000013B002AFBD1FFF75FFF07B05DF804FBA9
:10468000681500200E00002008B5FFF78FFF104BC3
:104690001B885B081A46013B002AFBD1FFF764FF29
:1046A0000B4B1B881A46013B002AFBD1FFF774FF16
:1046B000074B1B881A46013B002AFBD1FFF776FF08
:1046C000034B1B881A46013B002AFBD108BD00BFE3
:1046D0000E00002008B5FFF72FFFFFF767FF084B1C
:1046E0001B881A46013B002AFBD1FFF755FF044BFC
:1046F0001B881A46013B002AFBD1FFF757FF08BD74
:104700000E00002010B586B000230193029303939E
:10471000049305931A4B9A8801920222049201A9EC
:104720001868FEF719FDFFF737FF164B1B881A466E
:10473000013B002AFBD1FFF7F9FD0446D8B9FFF78A
:1047400035FF104B1B881A46013B002AFBD1FFF7AF
:10475000F3FE002301930293039304930593084B04
:104760009A8901921122029201A99868FEF7F4FC3D
:10477000204606B010BDFFF719FF0224F8E700BF7E
:10478000681500200E00002038B50446FFF70EFF24
:10479000002516E0FFF7D0FE124B1B881A46013B9E
:1047A000002AFBD16400E4B2FFF7F6FE0D4B1B8834
:1047B0005B081A46013B002AFBD1FFF7F7FE0135E3
:1047C000EDB2072D05D814F0800FE3D1FFF7CCFE32
:1047D000E2E7FFF7B1FE034B1B881A46013B002AB4
:1047E000FBD138BD0E00002030B587B00024019405
:1047F0000294039404940594224B9A880192022215
:10480000049201A91868FEF7A7FCFFF795FE25465C
:1048100001E00134E4B2072C19D8FFF7C7FE1A4BA8
:104820001B881A46013B002AFBD1FFF7B5FE164B49
:104830001B885B081A46013B002AFBD16D00EDB2D4
:10484000FFF774FD0028E4D045F00105E1E70E4BC9
:104850001B881A46013B002AFBD1FFF7A7FE002365
:1048600001930293039304930593064B9A89019253
:104870001122029201A99868FEF76EFC284607B043
:1048800030BD00BF681500200E000020F8B50446BA
:104890000F4616461D46FFF793FE10B10127384616
:1048A000F8BD2046FFF770FFFFF72CFF40B93846F0
:1048B000FFF76AFFFFF726FF074628B900240EE03E
:1048C000FFF7B6FE0227EAE7FFF7B2FE0227E6E7A8
:1048D000305DFFF759FFFFF715FF0134A4B2AC427A
:1048E000F6D3FFF7A5FEDAE7F8B504460F461646FD
:1048F0001D46FFF765FE10B101273846F8BD20467A
:10490000FFF742FFFFF7FEFE80B93846FFF73CFF96
:10491000FFF7F8FE074668B9FFF752FE44F00100C2
:10492000FFF732FFFFF7EEFE002409E0FFF780FEFD
:104930000227E2E7FFF77CFE0227DEE70134A4B29C
:10494000AC4208D2FFF750FF30556B1E9C42F5D0A9
:10495000FFF79AFEF2E7FFF7BDFEFFF769FECCE72F
:1049600008B501224FF400410148FEF7EEFC08BDF6
:104970000008024008B500224FF400410148FEF74C
:10498000E4FC08BD0008024008B500224FF4804155
:104990000148FEF7DAFC08BD0008024008B5012214
:1049A0004FF480410148FEF7D0FC08BD00080240EA
:1049B00008B54FF480410348FEF7C0FC012800D041
:1049C000002008BD0008024008B5FFF7C9FF00231A
:1049D00000E00133952BFCDDFFF7CCFF002300E066
:1049E0000133952BFCDD08BD30B587B0FFF7C2FF62
:1049F0000023019302930393049305934FF48043A0
:104A000001930123039301A91548FEF7A5FBFEF7C7
:104A1000C1FD0446FFF7CCFF28B9FEF7BBFD04F14A
:104A200064039842F6D9FFF7C3FF28B1FEF7B2FD41
:104A300004F164039842F6D90024254600E00134CD
:104A4000172C08DCFFF7C0FF6D00FFF7B1FF00284F
:104A5000F5D00135F3E7FFF78DFF284607B030BDED
:104A60000008024010B586B000240194029403941B
:104A70000494059419E007EE900AF8EEE77A9FEDAA
:104A8000307A67EE877A9FED2F7A67EE877A9FED0F
:104A90002E7A67EE877A9FED2D7A67EE877A06ABDE
:104AA00003EB840343ED057A0134042C0ADC042073
:104AB000FEF776FDFFF798FFB0F5000FDBDB00F1A6
:104AC0007F40D8E700211CE00133042B18DC06AA44
:104AD00002EB830252ED057AF4EEC77AF1EE10FA9A
:104AE000F2D506AA02EB810252F8144C06A800EB9C
:104AF000830040F8144C42ED057AB0EE677AE3E7A4
:104B00006146042908DC06AB03EB810313ED057A4B
:104B100001F1010C6346D8E7DFED0D7A012307E0D0
:104B200006AA02EB830212ED057A77EE877A01334B
:104B3000032BF5DDB0EE080A87EE800A06B010BD43
:104B400000401C4500007A440000003C0000803317
:104B50000000000030B587B0FFF70CFF0023019381
:104B600002930393049305934FF48043019301232D
:104B7000039301A94048FEF7EFFAFEF70BFD044648
:104B8000FFF716FF28B9FEF705FD04F1640398420C
:104B9000F6D9FFF70DFF28B1FEF7FCFC04F1640322
:104BA0009842F6D9002402E0FFF70EFF01341A2CD8
:104BB000FADD0025019502950395049505954FF4BE
:104BC00080430193112302930123039301A92A48EF
:104BD000FEF7C2FAFFF7E2FEFFF7F6FEFFF7F4FE7C
:104BE000562406E0FFF7D0FEFFF7EEFE6400E4B2C5
:104BF0000135062D05DC14F0400FF3D0FFF7CEFE93
:104C0000F2E7FFF7CBFE0025019502950395049589
:104C100005954FF4804301930123039301A916489E
:104C2000FEF79AFAFFF7D0FE2C4600E00135072D7B
:104C30000ADCFFF7C9FE6400E4B2FFF7B9FE002802
:104C4000F4D00134E4B2F1E700230193029303931B
:104C5000049305934FF4804301931123029301239E
:104C6000039301A90448FEF777FAFFF797FEFFF7D1
:104C7000ABFE204607B030BD0008024070B586B0DC
:104C80000546FFF777FE00230193029303930493F5
:104C900005934FF4804301930123039301A9304806
:104CA000FEF75AFAFEF776FC0446FFF781FE28B9B4
:104CB000FEF770FC04F164039842F6D9FFF778FE22
:104CC00028B1FEF767FC04F164039842F6D900248A
:104CD00002E0FFF779FE01341A2CFADD0026019676
:104CE00002960396049605964FF480430193112390
:104CF00002930123039301A91948FEF72DFAFFF748
:104D00004DFEFFF761FEFFF75FFE652406E0FFF74B
:104D10003BFEFFF759FE6400E4B20136062E05DCC7
:104D200014F0400FF3D0FFF739FEF2E7FFF736FE3D
:104D3000FFF74AFE002406E0FFF726FEFFF744FED9
:104D40006D00EDB20134072C05DC15F0800FF3D0B7
:104D5000FFF724FEF2E7FFF737FE06B070BD00BF95
:104D60000008024008B52C20FFF788FF0520FEF759
:104D700017FCFFF7EFFE2C2801D0002008BD012012
:104D8000FCE7000070B582B001238DF807300024E5
:104D9000132C24DC144D00224FF400412846FEF76A
:104DA000D4FA124E0A23012211493046FEF74FFD74
:104DB0000A2301220DF107013046FEF740FF0122D0
:104DC0004FF400412846FEF7C0FA9DF8073013F073
:104DD000010F06D00120FEF7E3FB0134D8E70020E5
:104DE00000E0012002B070BD00000240201400204D
:104DF00010000020022302E0C854000A013B002BEF
:104E0000FADA704730B583B00C462A4B1B89ADF8EF
:104E1000043000238DF8063001A9FFF7EBFFFFF700
:104E2000B1FF002842DD244D00224FF40041284606
:104E3000FEF78BFA0A23012220492148FEF707FDDD
:104E400001224FF400412846FEF77FFA012C1ED0C4
:104E5000022C20D00CB1002017E0C7238DF80730BA
:104E600000224FF400411448FEF76FFA0A23012292
:104E70000DF107011248FEF7EAFC84B901224FF454
:104E800000410D48FEF761FA012003B030BDD82380
:104E90008DF80730E4E720238DF80730E0E70A2398
:104EA000032201A90648FEF7D2FCE7E74FF0FF30E6
:104EB000EBE700BFC82C01080000024011000020F1
:104EC00020140020F0B583B02C4B1B89ADF80430C2
:104ED00000238DF806306FF07F43984248D2044695
:104EE0000D461646B2F5807F01D9002041E0FFF75C
:104EF00049FF00283DD001A92046FFF77BFF204C49
:104F000000224FF400412046FEF71FFA0A23012237
:104F10001C491D48FEF79BFC01224FF4004120462E
:104F2000FEF713FAFFF72EFF002824DD27460022A4
:104F30004FF400412046FEF708FA134C0A230122E1
:104F400012492046FEF783FC0A23032201A92046CA
:104F5000FEF77DFC0A23324629462046FEF777FC01
:104F600001224FF400413846FEF7EFF9012000E03E
:104F7000002003B0F0BD4FF0FF30FAE7C82C010865
:104F80000000024011000020201400201300002027
:104F9000F0B583B01F4B1B89ADF8043000238DF8AA
:104FA00006306FF07F43984230D204460D461646D5
:104FB000B2F5807F01D9002029E0FFF7E3FE30B38E
:104FC00001A92046FFF716FF134F00224FF40041BE
:104FD0003846FEF7BAF9114C0A230122104920463F
:104FE000FEF735FC0A23032201A92046FEF72FFC19
:104FF0003223324629462046FEF721FE01224FF495
:1050000000413846FEF7A1F9012000E0002003B07E
:10501000F0BD00BFC82C0108000002402014002091
:10502000120000200A68032302E0C254120A013B66
:10503000002BFADA70470022134604E011F803C08F
:105040000CEB02220133032BF8DDB2F1FF3F01D05C
:10505000026070476FF052530360704770B5ADF552
:10506000C06D04460D461646FF23009340F2FC52E5
:10507000002101A806F0B4FC012E0CD0022E1CD099
:105080001EB101200DF5C06D70BD322221462802EF
:10509000FFF77EFFF5E7322221462802FFF712FFD5
:1050A000EFE74FF480720DEB06213002FFF770FF3F
:1050B0000136052EF5DD002308E00026F9E703EBB5
:1050C000052214F803C00DF802C00133312BF6DDC0
:1050D0000520FEF765FA02210020FFF793FE32203B
:1050E000FEF75EFA00240AE04FF480720DEB042113
:1050F0002002FFF7E7FE0520FEF752FA0134052CE7
:10510000F2DDBEE770B582B0002301934B1EDBB227
:10511000312B3BD806460D46CC1D02EB4424422AD7
:1051200025D8422A32D8DFE802F02C313131313132
:10513000313144313131313131313131313131314C
:105140003131313131315831313131313131313128
:10515000313131313131313131315A61316831756B
:10516000828990979E31313131313131B500B2F5BC
:10517000807F00F0EA8040F201139A4206D10024B9
:10518000F0E0082201462046FFF702FF02B070BDA2
:1051900004220DEB02012046FFF7FAFEA81C01A92C
:1051A00006EB8000FFF747FF04340135042DEFDDE7
:1051B000ECE70025FAE704220DEB02012046FFF799
:1051C000E7FEA81D06EB800001A90430FFF733FFBE
:1051D00004340135042DEEDDD8E70025FAE701227D
:1051E00000F130012046FFF7D3FECFE7012200F1A6
:1051F00031012046FFF7CCFEC8E7022201A9204674
:10520000FFF7C6FE9DF804209DF8053003EB02234E
:105210007386BBE7022201A92046FFF7B9FE9DF87D
:1052200004209DF8053003EB0223B386AEE701228C
:1052300000F136012046FFF7ABFEA7E7012200F19F
:1052400037012046FFF7A4FEA0E7012200F1380154
:105250002046FFF79DFE99E7012200F13901204623
:10526000FFF796FE92E704220DEB02012046FFF7BE
:105270008FFE01A906F13C00FFF7DDFE04220DEBD5
:105280000201A018FFF784FE01A906F14000FFF714
:10529000D2FE7BE7022201A92046FFF779FE9DF8A6
:1052A00004209DF8053003EB0223A6F844300222C7
:1052B00001A9A018FFF76CFE9DF804209DF80530A9
:1052C00003EB0223A6F84630012206F14801201D17
:1052D000FFF75EFE012206F14901601DFFF758FE4F
:1052E000012206F14A01A01DFFF752FE012206F13C
:1052F0004B01E01DFFF74CFE04220DEB020104F10F
:105300000800FFF745FE01A906F14C00FFF793FEE8
:10531000022201A904F10C00FFF73AFE9DF80420D7
:105320009DF8053003EB0223A6F85030022201A9B4
:1053300004F10E00FFF72CFE9DF804209DF80530C7
:1053400003EB0223A6F8523020E7972200F1540124
:105350002046FFF71DFE19E7A2B229463046FFF7A7
:10536000D1FE0134B4F5807FF6DD0FE770B586B06D
:105370000023059301930293039304934B1EDBB226
:10538000312B3BD806460D46CC1D02EB4424422A65
:1053900025D8422A32D8DFE802F02C3131313131C0
:1053A00031314331313131313131313131313131DB
:1053B00031313131313156313131313131313131B8
:1053C00031313131313131313131585F3166317202
:1053D0007E858C93AC31313131313131AE00B2F553
:1053E000807F00F0CE8040F201139A4206D1002463
:1053F000D4E0082201462046FFF764FD06B070BDE8
:10540000A91C06EB810105A8FFF70CFE042205A9E3
:105410002046FFF757FD04340135042DF0DDEDE79C
:105420000025FAE7A91D06EB8101043105A8FFF765
:10543000F9FD042205A92046FFF744FD0434013597
:10544000042DEFDDDAE70025FAE7012200F1300153
:105450002046FFF737FDD1E7012200F13101204658
:10546000FFF730FDCAE7438E1A0A8DF814208DF835
:105470001530022205A92046FFF724FDBEE7838EE2
:105480001A0A8DF814208DF81530022205A920463D
:10549000FFF718FDB2E7012200F136012046FFF7C1
:1054A00011FDABE7012200F137012046FFF70AFDAD
:1054B000A4E7012200F138012046FFF703FD9DE734
:1054C000012200F139012046FFF7FCFC96E705F1C7
:1054D0000E0106EB8101043105A8FFF7A3FD0422AC
:1054E00005A92046FFF7EEFC04340135012DEEDD61
:1054F00084E70025FAE7B0F844301A0A8DF8042052
:105500008DF80530B0F846301A0A8DF806208DF86F
:10551000073090F848308DF8083090F849308DF811
:10552000093090F84A308DF80A3090F84B308DF8F9
:105530000B3000F14C0105A8FFF774FD00230AE0D1
:1055400003F11801694411F8041C03F120026A44B4
:1055500002F8141C0133032BF2DDB6F850301A0A9E
:105560008DF810208DF81130B6F852301A0A8DF8E7
:1055700012208DF81330102201A92046FFF7A2FC5B
:105580003CE7972200F154012046FFF79BFC35E7EA
:10559000A2B229463046FFF7E9FE0134B4F5807F18
:1055A000F6DD2BE72DE9F041044600268AE04FF4B2
:1055B00080724B4901EB072105EB0720FFF7E8FC60
:1055C00001370F2FF3DD4FF0000E2EE04FEA4E2291
:1055D0003A32630802EB8302002304E09918404842
:1055E000FF2747540133032BF8DD4FEA4E2808F11B
:1055F00008074FEA840C07EB8407002304E0DA195C
:105600003749FF2088540133032BF8DD08F11C08CB
:10561000C444002305E003EB0C023149FF20885409
:105620000133032BF7DD0EF1010EBEF11F0F31DC4C
:10563000062CF8D801A353F824F000BFEB5500085E
:10564000CD550008EB550008CD550008EB55000876
:1056500059560008775600084FEA4E2C0CF5807C0E
:10566000002305E003EB0C021D49FF2088540133A1
:10567000962BF7DDD7E74FEA4E2C0CF1420C0023B6
:1056800005E003EB0C021649FF20885401330F2B71
:10569000F7DDC8E702212846FFF7B4FB1420FDF729
:1056A0007FFF00270CE04FF480720D4901EB0721CA
:1056B00005EB0720FFF706FC0520FDF771FF01371A
:1056C0000F2FF0DD062E09DC4FF48052FF21044835
:1056D00006F086F901363503002772E7BDE8F08150
:1056E000A415002084B0F0B5B9B03FAC84E80E003A
:1056F000052812D8DFE800F0161831646F97E02211
:1057000042A96846FAF77CFD3FAB0ECB2046FFF777
:10571000E9FF0134E4B2052CF1D939B0BDE8F0401D
:1057200004B070470124F6E79DF8FF309DF8002192
:105730009DF801119DF802019DF803410494039026
:105740000291019200939DF8FE309DF8FD209DF896
:10575000FC10454801F044FEDFE7444801F040FEFC
:10576000002418E0A31C3EAA02EB8303A21D3EA95D
:1057700001EB820295685868FBF706F806460F466B
:105780002846FBF701F8CDE9000132463B46384890
:1057900001F026FE0134042CE4DD364801F020FE41
:1057A0004E98FAF7F1FF04460D464F98FAF7ECFFD2
:1057B000CDE9000122462B462F4801F011FEACE74F
:1057C0002E4801F00DFE9DF82D219DF82C112C483E
:1057D00001F006FEA1E72B4801F002FEBDF84221D0
:1057E000BDF84011284801F0FBFD9DF845219DF8CA
:1057F0004411264801F0F4FD9DF847219DF846111B
:10580000234801F0EDFD5298FAF7BEFF02460B4621
:10581000204801F0E5FDBDF84E21BDF84C111E48B1
:1058200001F0DEFD79E71D4801F0DAFD002408E013
:1058300004F1F8036B4493F85810194801F0D0FDB7
:105840000134962C3FF769AF164A82FB0432E31706
:10585000C3EBE20303EB8303B4EB830FE8D12146F0
:10586000114801F0BDFDE3E7882D0108B02D0108C6
:10587000C42D0108B0310108D42D0108002E010803
:10588000102E01082C2E01083C2E0108542E010870
:10589000702E01088C2E0108A42E0108BC2E0108D0
:1058A000D42E010867666666CC2E01082DE9F0410A
:1058B00080460F46FAF744FD061E40DDFDF706FB65
:1058C00000252C461DE0591CB1420FD00233B342D3
:1058D0002BD0B2420CD118F8045008EB04035A78CC
:1058E00005EB02259B7805EB034501E018F8045011
:1058F0002A46002339460220FDF73AFB04370434D8
:10590000A4B22346B44218DAE21CB242DBDA18F839
:10591000045008EB04035A7805EB02259A7805EB4E
:105920000245DB7805EB0365E2E718F8045008EB65
:1059300004035B7805EB0325DAE7FDF7DFFABDE842
:10594000F08100238B4211D210B49C469C5CFF2C4A
:1059500006D02CB1C45401339BB28B42F5D302E084
:10596000002300F80C305DF8044B7047704710B509
:1059700086B0002401940294039404940594009446
:10598000FDF7A4FA019407230393012304936946C6
:1059900001A8FDF797FBFDF7B1FA06B010BD0000B6
:1059A00030B583B005460023ADF804300023036012
:1059B00010238DF80430012301AA57216420FEF73B
:1059C00065FFD8BB142208E0B6EE007A67EE877A4E
:1059D0002EE00120FDF7E4FD2246531EDCB25AB34F
:1059E000022301AA56216420FEF77EFF9DF80530B0
:1059F00013F02000EDD19DF80420520007EE902A0C
:105A0000F8EEE77A13F0400F03D0B7EE007A77EEA6
:105A1000877A9FED0B7AF4EEC77AF1EE10FAD3DDB8
:105A20009FED087A77EEC77AB6EE007A67EE877A4E
:105A3000C5ED007A03B030BD0220FBE70220F9E794
:105A40000000C8430000004438B50546002404E0C7
:105A50000220FDF7A5FD0134E4B2092C0DD8FEF7B4
:105A60006FFC0028F4D002232A4681216420FEF72F
:105A70000DFF03460028EBD103E0034801F0B0FC22
:105A80000223184638BD00BFDC2E010810B582B0D5
:105A90000024ADF804400221FEF75CFC0520FDF770
:105AA0007FFD40238DF807300DF1070301221121FE
:105AB000204600F051FD00286ED10DF107030122B0
:105AC0007F21204600F02CFD002868D19DF807308A
:105AD00003F0C7038DF8073043F028038DF8073033
:105AE0000DF1070301227F21204600F035FD00283B
:105AF00057D10DF1050301228421204600F010FD4D
:105B0000002850D1F7238DF804309DF8053003F0BC
