:020000040800F2
:1000000000000120053D0008110A0008130A00083D
:10001000150A0008170A0008190A00080000000065
:100020000000000000000000000000001B0A0008A3
:100030001D0A0008000000001F0A0008210A00082D
:100040004D3D00084D3D00084D3D00084D3D000868
:100050004D3D00084D3D00084D3D00084D3D000858
:100060004D3D00084D3D00084D3D00084D3D000848
:100070004D3D00084D3D00084D3D00084D3D000838
:100080004D3D00084D3D00084D3D00084D3D000828
:100090004D3D00084D3D00084D3D00084D3D000818
:1000A0004D3D00084D3D00084D3D00084D3D000808
:1000B0004D3D00084D3D00084D3D00084D3D0008F8
:1000C0004D3D00084D3D00084D3D00084D3D0008E8
:1000D0004D3D0008290A00084D3D00084D3D00082F
:1000E0004D3D0008390A00084D3D00084D3D00080F
:1000F0004D3D00084D3D00084D3D00084D3D0008B8
:100100004D3D00084D3D00084D3D00084D3D0008A7
:100110004D3D00084D3D00084D3D00084D3D000897
:100120004D3D00084D3D00084D3D00084D3D000887
:1001300000000000000000000000000000000000BF
:1001400000000000000000000000000000000000AF
:10015000000000000000000000000000000000009F
:10016000000000000000000000000000000000008F
:10017000000000000000000000000000000000007F
:10018000000000000000000000000000000000006F
:10019000000000000000000000000000000000005F
:1001A000000000000000000000000000000000004F
:1001B000000000000000000000000000000000003F
:1001C000000000000000000000000000000000002F
:1001D000000000000000000000000000000000001F
:0401E0005FF8E0F1F3
:1001E40010B5054C237833B9044B13B10448AFF36D
:1001F40000800123237010BD9C000020000000003B
:100204008051000808B5034B1BB103490348AFF301
:10021400008008BD00000000A000002080510008FC
:1002240082B0019002E0019B013B0193019B002BF2
:10023400F9D102B070470000F0B59DB0984A137828
:1002440001331370974802F095FF00214FF4784072
:1002540002F09CFF944B1B88944A128800210846A4
:1002640002F008FD02F08CFF9149002002F0C6FE66
:1002740002F086FF8F49C08802F0C0FE8E4B1B88B7
:1002840049F24132934200F0F98048F252529342CB
:1002940000F0FD8002F074FFC08800EB4000874945
:1002A40080B202F0ABFE864802F064FF4FF4FC60BB
:1002B40002F076FF7A4B1A78824903A803F006FE0F
:1002C40002F05EFFC088800080B202F075FF02F089
:1002D40057FFC088800080B203A902F08FFE7A48DD
:1002E40002F048FF02F04CFFC088800080B202F0A8
:1002F40063FF1F2002F054FF02F042FFC088800019
:1003040080B2724902F07AFE4FF4784002F048FF5E
:10031400E623D222AA21322002F0E6FCF023D222E4
:10032400C821322002F0E0FC4FF4FC6002F038FFF8
:10033400E623C822AA21642002F0D6FCF023DC22A2
:10034400C821084602F0D0FC1F2002F029FFE62352
:100354006E22AA21104602F0C7FCF023DC22C82139
:10036400822002F0C1FC6FF07F40FFF759FF4E4E30
:100374003388803B4D4D9BB22A888021002002F0B7
:1003840079FC02F0FDFEC088800080B202F014FF08
:100394001F2002F005FF02F0F3FEC088800080B247
:1003A4004B4902F02BFE4FF4784002F0F9FE01278E
:1003B40000971E236422C821322002F0E7FC4FF488
:1003C400FC6002F0EDFE0024009428231422C821CE
:1003D400A02002F0DBFC1F2002F0E2FE00971423B1
:1003E4003222C821AA2002F0D1FC6FF07F40FFF72F
:1003F40017FF3388803B9BB22A888021204602F075
:1004040039FC02F0BDFEC088800080B202F0D4FE48
:100414001F2002F0C5FE02F0B3FEC088800080B247
:100424002C4902F0EBFD4FF4784002F0B9FE23466C
:100434001422C821642002F0E7FC4FF4FC6002F0AF
:10044400AFFE3B460A22C821642002F0DDFC1F20D7
:1004540002F0A6FE23461422C8218C2002F0D4FC0C
:100464006FF07F40FFF7DCFE3388803B9BB22A8825
:100474008021204602F0FEFB1DB0F0BD02F080FE9C
:10048400C088400080B2144902F0B8FD02E702F0CF
:1004940077FEC088400080B2104902F0AFFDF9E653
:1004A400B80000202C0000201800002016000020B6
:1004B40098510008B051000828020020F4510008A7
:1004C4001C00002010520008240000201C520008C8
:1004D4002852000834520008CC510008E0510008AA
:1004E40072B6FEE700B597B0282200210CA803F0ED
:1004F40057FC00230793089309930A930B930193E2
:100504000293039304930593069309230C934FF4E6
:1005140080330D93012210921292022213921493AB
:100524004FF4E01315930CA800F0B6FBC8B90F23E1
:10053400079302210891002309934FF480620A92E1
:100544000B9307A800F0DAFD68B9012301934FF477
:100554000073029301A800F0ADFE30B917B05DF846
:1005640004FBFFF7BDFFFFF7BBFFFFF7B9FF000078
:1005740008B500F057FBFFF7B5FF00F01DF800F0D9
:10058400E5F800F025F900F073F900F0DBF902F06A
:1005940029FB02F043FE062002F0C4FA044803F0EB
:1005A4008DFC044B187803F09BFAFFF745FEFCE73B
:1005B40040520008140000202DE9F0418CB00023C3
:1005C400089309930A930B9303F1804303F50433CF
:1005D4009A6942F040029A619A6902F040020192DB
:1005E400019A9A6942F010029A619A6902F0100223
:1005F4000292029A9A6942F080029A619A6902F020
:1006040080020392039A9A6942F004029A619A69F9
:1006140002F004020492049A9A6942F020029A6158
:100624009A6902F020020592059A9A6942F480724E
:100634009A619A6902F480720692069A9A6942F063
:1006440008029A619B6903F008030793079BDFF88C
:100654006C8001224021404601F052F8184F0122DB
:100664004FF46061384601F04BF8164E01224FF406
:100674000C61304601F044F84023089301240994A6
:100684000A9402250B9508A9404600F019FF4FF47F
:100694006063089309940A940B9508A9384600F0FE
:1006A4000FFF4FF40C63089309940A940B9508A95F
:1006B400304600F005FF0CB0BDE8F08100180140A1
:1006C400001C01400020014030B587B00023029394
:1006D400039304930593184B1B680BB107B030BD0B
:1006E400154B01221A60154B5A6942F480725A6103
:1006F4005B6903F480730193019B4FF68473029347
:10070400022503950324059402A90D4800F0D8FEA0
:100714004CF2337302930395059402A9094800F03F
:10072400CFFE4FF4805302930395059402A9064823
:1007340000F0C6FED2E700BFBC000020001002405B
:1007440000180140001401400020014000B589B0A8
:100754000022019202920392049205920692079259
:1007640017484FF02043036003F582734360062368
:100774008360C2600261102343618261C2610262CC
:1007840042624FF480518162C262026342638263B7
:10079400012101910F2102910A2103910593112353
:1007A400069301A900F0E6F938B9064AD36943F47F
:1007B4008063D36109B05DF804FBFFF791FEF4E7B1
:1007C400C00000200000014008B5FFF77DFF08BD10
:1007D40008B50B480B4B03600B4B4360002383604D
:1007E400C3604FF48042026143618361C361036269
:1007F40001F0D8F800B908BDFFF772FEFBE700BFAF
:100804000801002000540040A086010010B586B005
:10081400002302930393049305930268114B9A42B5
:1008240001D006B010BD104CA36943F00803A361C6
:10083400A36903F008030093009BC02302931223CF
:1008440003930323059302A9084800F039FEE369E2
:1008540043F40013E361E36903F400130193019B80
:10086400DFE700BF0054004000100240000C0140CC
:1008740000B583B00023ADF804308DF80630009342
:100884001A481B4B03604FF0FF3343604FF48073EF
:10089400836001F035FB00BB20238DF80430032373
:1008A4008DF8053031238DF80630012201A90F4857
:1008B40001F021FAA0B901228DF800208DF8012061
:1008C4008DF8022000238DF803306946074801F0B3
:1008D40073FA40B903B05DF804FBFFF701FEDBE7F0
:1008E400FFF7FEFDE7E7FFF7FBFDF3E75C01002000
:1008F400002800400268104B9A4200D0704700B5AF
:1009040083B001F049F80D4BDA6942F00062DA6114
:10091400DB6903F000630193019B094B0122C3F8D7
:100924003C2400221146292000F0DCFF292001F09C
:1009340011F803B05DF804FB0028004000100240E9
:100944000000424208B50D480D4B03604FF4E133FB
:10095400436000238360C36003610C2242618361AE
:10096400C36101F029FC30B9044B1A68D36843F021
:100974002003D36008BDFFF7B3FDF5E77001002045
:100984000038014030B587B00023029303930493E9
:10099400059302681B4B9A4201D007B030BD03F5A2
:1009A40058439A6942F480429A619A6902F48042F7
:1009B4000092009A9A6942F004029A619B6903F0DA
:1009C40004030193019B4FF40073029302230393E6
:1009D400032305930C4D02A9284600F071FD4FF442
:1009E4008063029300240394049402A9284600F02F
:1009F40067FD22462146252000F074FF252000F0E3
:100A0400A9FFCAE70038014000080140FEE7FEE7FD
:100A1400FEE7FEE7FEE770477047704708B500F051
:100A240013F908BD08B5024801F082FC08BD00BFF7
:100A34007001002008B5024801F02AFA08BD00BF81
:100A44005C01002082B00E4B9A6942F001029A6167
:100A54009A6902F001020092009ADA6942F0805227
:100A6400DA61DB6903F080530193019B054A536803
:100A740023F0E06343F00073536002B0704700BF9B
:100A8400001002400000014010B40A6850F82230FF
:100A940023F0010340F822308B68082B24D0002473
:100AA4004A6822431343CA6813430A6913434A69D1
:100AB4001343CA6913430A6A13434A6A13438A6A8B
:100AC4001343CA6A13430A6B13438A6913434A6B79
:100AD4001343096850F82140044A22401A4340F85D
:100AE4002120002010BC70474024D9E78000F0FF8B
:100AF4000B68D1F804C043EA0C13D1F808C043EAE8
:100B04000C23D1F80CC043EA0C43D1F810C00CF10B
:100B1400FF3C43EA0C53D1F814C0ACF1020C43EA95
:100B24000C63896901320B4340F82230002070477E
:100B3400B3F5804F05D06FF0704340F822300020A9
:100B4400704730B450F82230094C1C400B684D6893
:100B540043EA05138D6843EA05238D692B43C9686D
:100B640043EA0143234340F82230002030BC70475D
:100B74000000F0CF60B370B50E4615460446836995
:100B8400B3F5807F26D090F84130E3B1214651F887
:100B9400080BFFF779FFA26831462068FFF7A8FF2A
:100BA400236BA26829466068FFF7C2FF2268A16828
:100BB40052F8213043F0010342F82130012384F834
:100BC4004130002070BD80F84030FFF7FDFDDDE7C7
:100BD400012070470120F5E710B504460E4B187844
:100BE4004FF47A73B3FBF0F30C4A1068B0FBF3F0E4
:100BF40000F0BEFE68B90F2C01D901200AE00022E2
:100C040021464FF0FF3000F06DFE054B1C600020C4
:100C140000E0012010BD00BF0000002008000020FB
:100C24000400002008B5074A136843F0100313605A
:100C3400032000F045FE0F20FFF7CEFFFFF702FF71
:100C4400002008BD00200240034A1168034B1B78B2
:100C54000B441360704700BFB8010020000000205F
:100C6400014B1868704700BFB801002082B0084BE0
:100C74001B68084AA2FB03235B0A00FB03F30193EE
:100C840000BF019B5A1E0192002BF9D102B070479C
:100C940008000020D34D6210002800F0F18170B5E7
:100CA40082B00446036813F0010F2CD0994B5B68A3
:100CB40003F00C03042B1DD0964B5B6803F00C036C
:100CC400082B12D06368B3F5803F41D0002B55D177
:100CD40003F1804303F504331A6822F480321A6066
:100CE4001A6822F480221A6037E08A4B5B6813F496
:100CF400803FE7D0874B1B6813F4003F03D0636841
:100D0400002B00F0BF81236813F0020F75D0814BD4
:100D14005B6813F00C0F5FD07E4B5B6803F00C0331
:100D2400082B54D02369002B00F08A807A4B0122CF
:100D34001A60FFF795FF0546764B1B6813F0020F08
:100D440075D1FFF78DFF401B0228F5D903209EE1E2
:100D5400704A136843F480331360636843B3FFF746
:100D64007FFF05466B4B1B6813F4003FCBD1FFF7A5
:100D740077FF401B6428F5D9032088E1B3F5A02F41
:100D840009D0644B1A6822F480321A601A6822F47B
:100D940080221A60E1E703F18043A3F53C331A682B
:100DA40042F480221A601A6842F480321A60D4E74E
:100DB400FFF756FF0546574B1B6813F4003FA2D0BC
:100DC400FFF74EFF401B6428F5D903205FE1514B28
:100DD4005B6813F4803FA5D14E4B1B6813F0020FE0
:100DE40003D02369012B40F04F814A4A136823F052
:100DF400F803616943EAC1031360236813F0080F21
:100E040033D0A369002B5CD0434B0122C3F8802468
:100E1400FFF726FF05463F4B5B6A13F0020F21D113
:100E2400FFF71EFF401B0228F5D903202FE1394AA2
:100E3400136823F0F803616943EAC1031360DCE734
:100E4400354B00221A60FFF70BFF0546314B1B6838
:100E540013F0020FD1D0FFF703FF401B0228F5D98E
:100E6400032014E10120FFF701FF236813F0040FAE
:100E740000F09680274BDB6913F0805F34D1254B5B
:100E8400DA6942F08052DA61DB6903F0805301933E
:100E9400019B0125214B1B6813F4807F26D0E36856
:100EA400012B3DD0002B53D103F1804303F50433D0
:100EB4001A6A22F001021A621A6A22F004021A6201
:100EC40033E0154B0022C3F88024FFF7C9FE054622
:100ED400104B5B6A13F0020FC7D0FFF7C1FE401B33
:100EE4000228F5D90320D2E00025D3E70B4A136882
:100EF40043F480731360FFF7B3FE0646074B1B6889
:100F040013F4807FCBD1FFF7ABFE801B6428F5D9A7
:100F14000320BCE000100240000042420070004088
:100F24005F4A136A43F001031362E36833B3FFF7C4
:100F340097FE06465A4B1B6A13F0020F2FD1FFF798
:100F44008FFE801B41F288339842F3D903209EE040
:100F5400052B09D0524B1A6A22F001021A621A6A4E
:100F640022F004021A62E0E74D4B1A6A42F00402CE
:100F74001A621A6A42F001021A62D6E7FFF770FE9B
:100F84000646474B1B6A13F0020F08D0FFF768FEB2
:100F9400801B41F288339842F3D9032077E0E5B906
:100FA400E369002B72D03E4A526802F00C02082A10
:100FB40056D0022B17D03B4B00221A66FFF750FE87
:100FC4000446374B1B6813F0007F47D0FFF748FEF9
:100FD400001B0228F5D9032059E0314AD36923F0D4
:100FE4008053D361DCE72F4B00221A66FFF738FEEB
:100FF40005462B4B1B6813F0007F06D0FFF730FE2D
:10100400401B0228F5D9032041E0236AB3F5803F51
:101014001AD023494B6823F47413226A606A02438A
:1010240013434B601F4B01221A66FFF719FE044657
:101034001B4B1B6813F0007F0ED1FFF711FE001B42
:101044000228F5D9032022E0154A536823F400331B
:10105400A1680B435360DCE7002018E0002016E091
:10106400012B16D00E4B5B6803F48031226A914247
:1010740011D103F47013626A93420ED1002006E08A
:1010840001207047012002E0012000E0002002B0AE
:1010940070BD0120FBE70120F9E70120F7E700BF5D
:1010A40000100240000042420F4B5B6803F00C0248
:1010B400082A01D00D487047C3F383420C49885C69
:1010C40013F4803F0BD0084B5B68C3F34043094AD9
:1010D400D35C064A02FB00F0B0FBF3F07047064B0A
:1010E40003FB00F0704700BF0010024000127A00BA
:1010F400705200088052000800093D00002800F0EA
:10110400A08070B50D460446524B1B6803F00703DC
:101114008B420BD24F4A136823F007030B4313602F
:10112400136803F007038B4240F08D80236813F0AB
:10113400020F17D013F0040F04D0474A536843F446
:10114400E0635360236813F0080F04D0424A5368E5
:1011540043F460535360404A536823F0F003A1689A
:101164000B435360236813F0010F31D06368012BE4
:1011740020D0022B25D0384A126812F0020F64D016
:1011840035494A6822F0030213434B60FFF768FDB8
:101194000646314B5B6803F00C036268B3EB820FC5
:1011A40016D0FFF75DFD801B41F288339842F0D9D9
:1011B400032045E0284A126812F4003FE0D10120E0
:1011C4003EE0254A126812F0007FD9D1012037E0B1
:1011D400204B1B6803F00703AB420AD91D4A13686E
:1011E40023F007032B431360136803F00703AB4298
:1011F4002DD1236813F0040F06D0174A536823F443
:10120400E063E1680B435360236813F0080F07D0D1
:10121400114A536823F46053216943EAC1035360BC
:10122400FFF742FF0C4B5B68C3F303130B4AD35C19
:10123400D8400B4B18600B4B1868FFF7CDFC00200F
:1012440070BD012070470120FAE70120F8E7012072
:10125400F6E700BF00200240001002409852000848
:101264000800002004000020014B1868704700BFEC
:101274000800002008B5FFF7F7FF044B5B68C3F3D1
:101284000223034AD35CD84008BD00BF00100240CB
:10129400A852000808B5FFF7E7FF044B5B68C3F3E7
:1012A400C223034AD35CD84008BD00BF00100240EB
:1012B400A852000870B582B00446036813F0010F09
:1012C40036D03F4BDB6913F0805F49D13C4BDA6980
:1012D40042F08052DA61DB6903F080530193019B91
:1012E4000125384B1B6813F4807F3BD0344B1B6AB9
:1012F40013F4407313D0626802F440729A420ED021
:101304002F4A136A23F440702F490126C1F8406420
:101314000026C1F84064106213F0010F36D1284A48
:10132400136A23F4407361680B431362002D3ED1AA
:10133400236813F0020F06D0214A536823F4404374
:10134400A1680B435360236813F0100F34D01C4A78
:10135400536823F4800361690B43536000202CE03D
:101364000025BEE7174A136843F480731360FFF740
:1013740077FC0646134B1B6813F4807FB6D1FFF746
:101384006FFC801B6428F5D9032016E0FFF768FC86
:1013940006460B4B1B6A13F0020FC0D1FFF760FC2B
:1013A400801B41F288339842F3D9032005E0D369C6
:1013B40023F08053D361BBE7002002B070BD00BFAF
:1013C40000100240007000400000424208B501389D
:1013D4000F2863D8DFE800F03557622F626262326B
:1013E40062626262626262082F4B5A68186810F087
:1013F400807054D0C2F383432C49C85C12F4803FFC
:1014040015D0294B5B68C3F34043294AD25C294B6E
:10141400B3FBF2F303FB00F0234B5B6813F4800F80
:101424003DD14000244BA3FB0030400837E0234B60
:1014340003FB00F0F0E7FFF737FE30E0FFF734FE80
:101444002DE0194B1B6A40F202321A40B2F5817F3B
:1014540026D003F44073B3F5007F04D0B3F5407F86
:1014640009D000201BE0104A526A12F0020FF5D096
:1014740049F6404013E00C4B186810F400300ED0CD
:101484004FF224400BE0FFF705FF074B5B68C3F303
:10149400813301335B00B0FBF3F000E0002008BDB2
:1014A4004FF40040FBE700BF0010024084520008E4
:1014B4009452000800127A00ABAAAAAA00093D00BF
:1014C40070B582B00024A446B0E0874DAA4210D083
:1014D40007D9864DAA420CD005F58035AA4208D01A
:1014E40013E0A5F58015AA4203D005F57025AA429C
:1014F40007D18A68002A62D0012A5BD0436108249C
:1015040003E0A5F58015AA42F3D0BEF1FF0F58D829
:101514000646BEF1FF0F56D84FEA8C0233680F25FA
:10152400954023EA050304FA02F2134333604B683F
:1015340013F0805F78D06E4B9A6942F001029A6191
:101544009B6903F001030193019B4FEA9C02951CE4
:10155400684B53F825600CF003039D000F23AB4048
:1015640026EA0306644B984233D003F5806398421D
:1015740000F0988003F58063984200F0958003F5AD
:101584008063984200F0928003F58063984200F0F3
:101594008F8003F58063984219D006231AE0CC6843
:1015A400B3E7CC680434B0E7CC680834ADE7CC6862
:1015B4000C34AAE703610824A7E70024A5E7042460
:1015C400A3E7061DA5E7ACF108029200A6E70523F0
:1015D40000E00023AB4033430232464D45F822304D
:1015E4004B6813F4801F65D0444A936843EA0E03A2
:1015F40093604B6813F4001F62D0404AD36843EAF7
:101604000E03D3604B6813F4003F5FD03B4A53682A
:1016140043EA0E0353604B6813F4803F5CD0374AAF
:10162400136843EA0E0313600CF1010C0A6832FAE2
:101634000CF357D0012303FA0CF302EA030E33EA46
:101644000202F1D14A68122A3FF63FAF122A3FF64E
:101654005CAF01A555F822F0F7140008A3150008A3
:10166400AD150008BF1500080F1500080F15000878
:101674000F1500080F1500080F1500080F150008B6
:101684000F1500080F1500080F1500080F150008A6
:101694000F1500080F1500080F150008A7150008FE
:1016A400B3150008012395E7022393E7032391E789
:1016B40004238FE7114A936823EA0E03936098E7A3
:1016C4000E4AD36823EA0E03D3609BE70B4A5368A0
:1016D40023EA0E0353609EE7084A136823EA0E03C5
:1016E4001360A1E702B070BD0000221000003110A9
:1016F40000100240000001400008014000040140C5
:101704000AB10161704709040161704790F8213002
:10171400DBB2022B06D004238363002380F820303D
:10172400012070470268136823F00E0313600268F7
:10173400136823F001031360036CC16B012202FAE6
:1017440003F34B6080F82120002380F820301846F2
:101754007047000008B590F82130DBB2022B03D0AB
:1017640004238363012008BD0268136823F00E0379
:1017740013600268136823F00103136003684C4A82
:1017840093424ED9783A934224D01432934230D0C3
:10179400143293422FD0143293422FD014329342F6
:1017A4002FD0143293422FD0143293422FD002F50B
:1017B400627293422ED0143293422DD0143293424B
:1017C4002CD01432934202D04FF4803203E04FF411
:1017D400805200E00122374B5A60012380F8213007
:1017E400002380F82030436B002B5ED09847002004
:1017F400B9E71022EFE74FF48072ECE74FF4805220
:10180400E9E74FF48032E6E74FF48012E3E74FF064
:101814008072E0E70122DEE71022DCE74FF48072F9
:10182400D9E7254A934224D01432934225D0143266
:10183400934224D01432934224D01432934224D0BD
:101844001432934224D01432934224D002F56272AB
:10185400934223D01432934222D01432934221D0A3
:101864001432934202D04FF4803203E04FF480529A
:1018740000E00122114B5A60AFE71022FAE74FF45F
:101884008072F7E74FF48052F4E74FF48032F1E7C7
:101894004FF48012EEE74FF08072EBE70122E9E7A4
:1018A4001022E7E74FF48072E4E700205BE700BF13
:1018B4008000024000040240080002400000024090
:1018C400074AD36823F4E0631B041B0C000200F4F2
:1018D400E060034343F0BF6343F40033D3607047D5
:1018E40000ED00E000B5194BDB68C3F30223C3F13C
:1018F400070CBCF1040F28BF4FF0040C03F1040ED5
:10190400BEF1060F18D9033B4FF0FF3E0EFA0CFC54
:1019140021EA0C0199400EFA03F322EA0303194366
:1019240000280BDB0901C9B200F1604000F56140F9
:1019340080F800135DF804FB0023E5E700F00F00D6
:101944000901C9B2024B1954F4E700BF00ED00E0ED
:1019540014ED00E0002807DB00F01F02400901231A
:101964009340024A42F82030704700BF00E100E093
:101974000138B0F1807F0BD24FF0E0235861054A63
:10198400F02182F823100020986107221A61704721
:101994000120704700ED00E0014B01221A627047FC
:1019A40000000E42002800F0CC8070B5044690F888
:1019B4003D30002B77D0242384F83D30226813680F
:1019C40023F0010313602268136843F40043136097
:1019D4002268136823F400431360FFF74BFC62682A
:1019E4005A4B9A4264D85A4B98428CBF0023012325
:1019F400002B40F0A8805749A1FB00318B0C2568CF
:101A04006A6822F03F0242EA91426A6021680A6AE7
:101A140022F03F0266684D4DAE424FD80133134366
:101A24000B622168CA6922F44F4222F0FF02666801
:101A3400464B9E424CD8431E7600B3FBF6F301336B
:101A440040F6FC70034278D0C3F30B031343CB611D
:101A540021680B6823F0C003E269206A0243134340
:101A64000B6021688B6823F4034323F0FF0322698E
:101A7400E068024313438B602168CB6823F0FF03C3
:101A84006269A06902431343CB602268136843F080
:101A94000103136000202064202384F83D30206378
:101AA40084F83E0070BD80F83C30FEF7AFFE82E75C
:101AB400294B98428CBF0023012399E74FF4967574
:101AC40005FB03F3254DA5FB03539B090133A6E74F
:101AD400A368BBB9451E06EB460CB5FBFCF5013506
:101AE400C5F30B05B5FA85F56D0945BBC3B90138D6
:101AF40006EB4603B0FBF3F30133C3F30B0343F4E8
:101B04000043A3E7451E06EB860C0CEB8C0CB5FBDF
:101B1400FCF50135C5F30B05B5FA85F56D09E4E768
:101B2400013806EB860303EB8303B0FBF3F30133C5
:101B3400C3F30B0343F4404388E7042386E70123FC
:101B440084E7012070470120ACE700BFA0860100B4
:101B54007F841E0083DE1B43FF083D00D34D6210CB
:101B640010B4026894691FFA84FCD369916988B23D
:101B7400844505D0D06980B240EA014010BC70476A
:101B840098B240EA0440F9E70368186A5B6A9BB2BA
:101B940043EA00407047030903EB830300F00F009E
:101BA40000EB4300C0B2704700F5FA6C022921D85B
:101BB40001EB4103C1EBC3011E4BA3FB011302EB79
:101BC4005303634400F2CF7003EB90031A4AA2FB61
:101BD4000020A3EB501303EBD01304331748A0FBEE
:101BE40003201A1A00EB52008008C0EBC000181A38
:101BF400C0B2704701EB4103C1EBC3010D4BA3FB22
:101C0400011302EB5303634403EB9C030A4AA2FB54
:101C14000C2CA3EB5C1303EBDC1302330748A0FB8F
:101C240003201A1A00EB52008008C0EBC000181AF7
:101C3400DEE700BF398EE3381F85EB512549922436
:101C440038B50446FFF70CF8054623685A6812F0C5
:101C5400200F07D1FFF704F8401BB0F57A7FF4D9C1
:101C6400032004E05A6842F010025A60002038BD94
:101C740038B504460268536823F010035360FEF736
:101C8400EFFF054623685B6813F0200F07D1FEF7CA
:101C9400E7FF401BB0F57A7FF4D9032000E0002071
:101CA40038BD38B505460C46FFF7CAFF08B1012018
:101CB40038BD2B68220C9A612B68A4B2DC612846DB
:101CC400FFF7D6FF0028F3D00120F1E738B5054629
:101CD4000C46FFF7B5FF08B1012038BD2B68220C74
:101CE4001A622B68A4B25C622846FFF7C1FF002881
:101CF400F3D00120F1E770B5002857D00D46064611
:101D0400002955D0037C012B54D0012303740223F2
:101D14004374BAB908784B78C3EB03139C004FF4AF
:101D2400616303FB00448878044421463046FFF78E
:101D3400B8FF0546C8B10423737400233374012526
:101D4400284670BD0878FFF726FF4FF4616400FB56
:101D540004F46878FFF71FFFC0EB001004EB800465
:101D6400A878FFF718FF0444DFE73268536823F0CC
:101D7400050353603046FFF707FFB0F1FF3F01D082
:101D8400844204D80123737400233374D8E700F524
:101D9400A83101F5C0713046FFF798FF0028F1D053
:101DA40004237374002333740125C9E70125C7E7AD
:101DB4000125C5E70225C3E700285AD038B50D46EA
:101DC4000446002957D0037C012B56D00123037409
:101DD40002234374BAB9CB78C3734B7843738B78BB
:101DE4008373A27B617BE07BFFF7DEFE20732870A8
:101DF4002046FFF7B5FE224B984211D801236374A5
:101E04000020207438BDC878FFF7C5FEE0736878F9
:101E1400FFF7C1FE6073A878FFF7BDFEA073E0E78B
:101E2400184DA5FB00352D0C174B03FB1505294652
:101E34002046FFF736FF28B104236374002323747C
:101E44000120DFE72046FFF79FFEB0F1FF3FD5D02A
:101E54008542D3D900F5A83101F5C0712046FFF7BA
:101E640035FF0028CAD0042363740023237401209F
:101E7400C8E7012070470120C4E70220C2E700BF81
:101E84008F5F010007452EC280510100704700009A
:101E940010B5044603681A6812F0020F03D05B6899
:101EA40013F0020F06D1074B4FF400325A6101239D
:101EB400637410BDFFF7EAFF2268536823F002033E
:101EC4005360F0E700040140C0B138B5054602682C
:101ED400536823F008035360FEF7C2FE04462B68E0
:101EE4005B6813F0080F07D1FEF7BAFE001BB0F5CC
:101EF4007A7FF4D9032000E0002038BD0120704728
:101F0400002850D010B50446437C4BB102236374BF
:101F14002046FFF7D9FF38B104236374012010BDB4
:101F24000374FEF7E7FCF1E72046FFF789FE28BBC0
:101F34002268536823F007035360A36823B11B4A44
:101F4400136B23F001031363184AD36A23F46073F9
:101F5400A1680B43D3626368B3F1FF3F12D02268D8
:101F6400C3F30341916022689BB2D3602046FFF71C
:101F74007FFE88B1042363740120D0E704236374D3
:101F84000120CCE70120FFF721FA08B1431EE6E760
:101F9400042363740120C2E70023E3730123637302
:101FA400A3736374BBE70120704700BF006C00405B
:101FB400002856D010B50446436A33B94368B3F5D4
:101FC400827F05D00023C36102E0002303614361E3
:101FD4000023A36294F85130002B3CD0022384F8F0
:101FE40051302268136823F040031360636803F4DC
:101FF4008273A26802F404421343E26802F40062AA
:102004001343226902F002021343626902F00102DF
:102014001343A26902F400721343E26902F0380226
:102024001343226A02F080021343A26A02F40052AC
:10203400216813430B60638B226803F0040353602D
:102044002268D36923F40063D3610020606501230F
:1020540084F8513010BD84F85030204601F07AFDE8
:10206400BCE701207047026802F10C0353E8003F0B
:1020740023F490730C3242E800310029F3D1026852
:1020840002F1140353E8003F23F00103143242E841
:1020940000310029F3D1036B012B05D0202380F8F4
:1020A4004230002303637047026802F10C0353E8D3
:1020B400003F23F010030C3242E800310029F3D131
:1020C400ECE790F84130DBB2212B01D002207047BD
:1020D4008368B3F5805F17D0036A5A1C02621A78CA
:1020E40003685A60C38C9BB2013B9BB2C3844BB957
:1020F4000268D36823F08003D3600268D36843F096
:102104004003D360002070470369002BE4D1036AC5
:102114001B880268C3F308035360036A0233036233
:10212400E0E7000010B504460268136923F4405345
:10213400C1680B43136183680269134342691A43FC
:102144000168CB6823F4B05323F00C031343CB6032
:102154000268536923F4407381690B435361026835
:10216400134B9A4220D0FFF785F8024602EB820215
:1021740002EB820263689B00B2FBF3F20D48A0FB02
:1021840002314909642303FB11231B013233A0FBF1
:1021940003235B0903F0F00202EB011203F00F03C7
:1021A400216813448B6010BDFFF774F80246DDE725
:1021B400003801401F85EB5160B310B5044690F818
:1021C400413013B3242384F841302268D36823F4C4
:1021D4000053D3602046FFF7A5FF2268136923F458
:1021E400904313612268536923F02A0353612268E0
:1021F400D36843F40053D36000206064202384F840
:10220400413084F84230606310BD80F84030FEF7FE
:10221400B9FBD7E701207047704708B50168CA6861
:1022240022F04002CA60202280F84120FFF7F4FF28
:10223400002008BD7047704708B5406A0023C38575
:10224400C384FFF7F8FF08BD704790F84230DBB253
:10225400222B69D18368B3F5805F4FD0826AB3F5CE
:10226400805F04D0002B56D10369002B53D103683F
:102274005B681370836A01338362C38D9BB2013B35
:102284009BB2C385002B51D100B583B00268D368DB
:1022940023F02003D3600268D36823F48073D360EF
:1022A4000268536923F001035361202380F842300C
:1022B40000234363036B012B33D1002303630268C0
:1022C40002F10C0353E8003F23F010030C3242E800
:1022D40000310029F3D103681A6812F0100F06D0F8
:1022E400002201921A6801925B680193019B818D1F
:1022F400FFF7AAFF002003B05DF804FB0269002A7F
:10230400ACD1826A03685B68C3F308031380836AF1
:1023140002338362B1E703685B6803F07F031370E1
:10232400A8E7FFF787FFE5E7022070470020704722
:1023340030B583B0044602681368D068516913F05D
:102344000F0505D113F0200F02D010F0200F19D182
:102354002DB111F0010119D110F4907F16D1216B28
:1023640001297DD013F0800F03D010F0800F40F0CE
:10237400188113F0400F03D010F0400F40F0158186
:1023840003B030BD2046FFF760FFF9E713F0010FFB
:1023940006D010F4807F03D0626C42F001026264C4
:1023A40013F0040F04D019B1626C42F002026264AB
:1023B40013F0020F04D019B1626C42F0040262649B
:1023C40013F0080F07D010F0200F00D119B1626C80
:1023D40042F008026264626C002AD1D013F0200F2C
:1023E40002D010F0200F29D123685B6903F0400369
:1023F400626C12F0080F00D163B32046FFF733FE7E
:1024040023685B6913F0400F20D0226802F11403A3
:1024140053E8003F23F04003143242E8003100291E
:10242400F3D1E36B73B1634A5A63E06BFFF792F93C
:102434000028A5D0E06B436B9847A1E72046FFF73F
:1024440004FFD1E72046FFF7F6FE99E72046FFF7A1
:10245400F2FE95E72046FFF7EEFE002363648FE764
:1024640013F0100F3FF47EAF10F0100F3FF47AAF6B
:10247400002301931368019353680193019B5369EB
:1024840013F0400F51D0E26B13685B689BB2002BD2
:102494003FF476AFA18D99427FF672AFE3859369DD
:1024A400202B37D0226802F10C0353E8003F23F4B9
:1024B40080730C3242E800310029F3D1226802F122
:1024C400140353E8003F23F00103143242E80031BF
:1024D4000029F3D1226802F1140353E8003F23F0EA
:1024E4004003143242E800310029F3D1202384F858
:1024F400423000232363226802F10C0353E8003FB7
:1025040023F010030C3242E800310029F3D1E06BD0
:10251400FFF7FCF802236363A18DE38D9BB2C91A14
:1025240089B22046FFF790FE2AE7A18DE38D9BB286
:10253400C91A89B2E38D9BB2002B3FF421AF002965
:102544003FF41EAF226802F10C0353E8003F23F46A
:1025540090730C3242E800300028F3D1226802F173
:10256400140353E8003F23F00103143242E800301F
:102574000028F3D1202384F8423000232363226807
:1025840002F10C0353E8003F23F010030C3242E83D
:1025940000300028F3D1022363632046FFF754FE82
:1025A400EEE62046FFF78DFDEAE62046FFF735FE0E
:1025B400E6E600BF3D2200087047000010B5034660
:1025C4000C4A0D490D48006840B10C4800680344AA
:1025D400521A934206D8094A136010BD0748084CA2
:1025E4000460F2E701F0B2FB0C2303604FF0FF300C
:1025F400F3E700BF0000012000040000BC0100203C
:102604002004002070B50C461646002506E0AFF302
:102614000080214601F8010B01350C46B542F6DB7A
:10262400304670BD70B50C461646002504E014F81B
:10263400010BAFF300800135B542F8DB304670BDC5
:102644004FF0FF3070474FF400534B600020704749
:10265400012070470020704782B0019002E0019B86
:10266400013B0193019B002BF9D102B0704700009C
:1026740010B58AB02C4B9A6942F020029A619A698B
:1026840002F020020192019A9A6942F040029A6192
:102694009A6902F040020292029A9A6942F0800218
:1026A4009A619A6902F080020392039A9A6942F449
:1026B40080729A619A6902F480720492049A5A6947
:1026C40042F480725A615B6903F480730593059B3D
:1026D400012307930893032309934FF4805306932C
:1026E400124C06A92046FEF7EBFE4FF40063069356
:1026F40006A92046FEF7E4FE022307934CF2337347
:10270400069306A90A48FEF7DBFE4FF68473069388
:1027140006A90848FEF7D4FE4023069306A92046DE
:10272400FEF7CEFE0AB010BD0010024000200140AA
:10273400001401400018014038B5154C4FF02043F7
:10274400236003F582736360124D00232B606B607A
:102754000822AA60EB602B616B614FF08051A96184
:102764000621A160E360226110226261A361E3613A
:1027740063624FF48052A262E36223636363A363E0
:10278400FFF776FF2A4629462046FEF7F3F938BDBF
:10279400C40100200C02002020B1044B4FF480023D
:1027A4001A617047014B40221A61704700200140B2
:1027B4004FF0D84304221A804FF0DA431A881A885B
:1027C400188880B2000280B21B889BB2184348F27A
:1027D4005253984213D04FF0D843D3221A804FF06B
:1027E400DA431A881A88188880B2000280B21B88DB
:1027F4009BB2184349F24133984200D000207047FD
:102804002DE9F84FFFF7D4FF664B188049F24133A6
:10281400984206D048F25253984200F0C780BDE86F
:10282400F88F4FF0D844CF2323804FF0DA430022AF
:102834001A808121198030261E80ED20208064209A
:10284400188003271F80122018801980E821218016
:10285400852119804FF01009A3F800907821198080
:10286400CB2121804FF03908A3F800802C21198056
:102874001A803421198006201880F7212180202114
:102884001980EA2121801A801A80B12121801A80BE
:102894004FF01B0AA3F800A0B62121800A21198059
:1028A400A2211980C025258035251D80C1252580BC
:1028B4004FF0110CA3F800C0C525258045251D80C7
:1028C4001D80C72525801980F22121801A802625A4
:1028D40025804FF0010EA3F800E0E02121800F21B4
:1028E40019801D8024251D800B251D800E251D802B
:1028F40009251D804FF0540BA3F800B04FF0A80B2E
:10290400A3F800B04FF0460BA3F800B04FF00C0B47
:10291400A3F800B04FF0170BA3F800B01D80198086
:1029240007251D801A804FF0E10BA4F800B01A802F
:102934004FF0190BA3F800B0A3F800A04FF0040A5D
:10294400A3F800A0A3F800901D802A251D804FF055
:102954004709A3F80090A3F800801F80188018800E
:102964001E8038201880198036212180C8211980C2
:1029740025801A801A801A80EF2119802B2121804A
:102984001A801A80A3F800E03F221A803A2222809B
:1029940055221A80A4F800C00348FFF75DFE2923DE
:1029A40023803CE728020020FCBF02004FF0D844FB
:1029B400CF2323804FF0DA4300221A80C1261E80E1
:1029C4004FF0300EA3F800E0ED212180642119803E
:1029D400032119801221198081201880E820208089
:1029E400852018801020188078201880CB20208023
:1029F400392018802C251D801A803420188002204C
:102A04001880F727278020271F80EA2727801A802D
:102A14001A80C027278021271F80268011271F8026
:102A2400C52626804FF02D0CA3F800C033261E8047
:102A3400362626801A803A26268055261E80B12600
:102A440026801A804FF01709A3F80090B626268036
:102A54000A261E80A2261E80F626268001261E80B7
:102A6400A3F800E04FF0F20EA4F800E01A804FF053
:102A7400260EA4F800E01E80E02626804FF0D00841
:102A8400A3F800801A8018804FF0070EA3F800E026
:102A94000B261E801A261E8031261E8054261E8078
:102AA40040261E8029261E80198019801980A3F8CB
:102AB4000090E1212180A3F800801A801880A3F8F7
:102AC40000E005221A8025221A80A3F800C04422BF
:102AD4001A8045221A801C221A8018211980162176
:102AE40019801A801D221A8027800348FFF7B4FD3D
:102AF4002680258093E600BFFCBF020010B5084C79
:102B04004FF00063236140F6FF20FFF7A5FD4FF46B
:102B14000063236140F6FF20FFF79EFD10BD00BF58
:102B240000200140072853D810B42A4B187010F025
:102B3400010F39D1284BF0221A80284B4FF4A07290
:102B44001A804FF0D84336221A80254B1B8849F24D
:102B54004132934230D048F25252934233D04FF034
:102B6400D8412A230B804FF0DA43002018801880C4
:102B7400194C2288013AC2F307221A802288013AAA
:102B8400D2B21A802B220A80188018801348028837
:102B9400013AC2F307221A800288013AD2B21A809B
:102BA4002C230B8010BC70470B4B4FF4A0721A807F
:102BB4000A4BF0221A80C4E7400140F008004FF0AD
:102BC400DA431880CBE740014FF0DA431880C6E7B8
:102BD400704700BF140000201600002018000020D9
:102BE4002802002008B5FFF743FDFFF7A5FD0120EB
:102BF400FFF7D2FDFFF782FFFFF702FE024B1878C2
:102C0400FFF790FF08BD00BF1400002010B54FF07F
:102C1400D84E2A24AEF80040040A4FF0DA4CACF83F
:102C24000040C4B2ACF800401044421EC2F30F226C
:102C3400ACF8002080B20138C0B2ACF800002B22FE
:102C4400AEF800200A0AACF80020CAB2ACF80020A2
:102C540019444B1EC3F30F23ACF8003089B2013979
:102C6400C9B2ACF8001010BD08B501231A46FFF72D
:102C7400CDFF08BD38B514461D46FFF7C7FF05FB59
:102C840004F1074B18884FF0D8432C221A800023F4
:102C940003E04FF0DA42108001339942F9D838BD8D
:102CA4000C00002008B50D4B1B88834203D90C4B44
:102CB4001B888B4200D808BDFFF7D6FF094B198843
:102CC4004FF0D8432C221A80002303E04FF0DA425D
:102CD40011800133002BF9D0EDE700BF160000206E
:102CE40018000020C00100202DE9F04F83B0804679
:102CF4008946A2EB000AA3EB010BBAF1000F0DDD2C
:102D040001220092BBF1000F14DD01230193DA4587
:102D14001CDD564600252F462C461BE0BAF1000F59
:102D240005D0A0EB020A4FF0FF320092EAE7CDF89B
:102D340000A0E7E7BBF1000F05D0A1EB030B4FF0B8
:102D4400FF330193E3E7CDF804B0E0E75E46E1E743
:102D54000134A4B2731C9C4214DC49464046FFF77C
:102D6400A1FF57445D44BE4204DABF1B009B984454
:102D74001FFA88F8AE42EBDAAD1B019B99441FFAA7
:102D840089F9E5E703B0BDE8F08F0000F8B5064621
:102D94000D4614461F469DF818309BB13B46FFF77D
:102DA40035FF07FB04F3174A10884FF0D8422C2153
:102DB4001180002203E04FF0DA410880013293428F
:102DC400F9D8F8BD0444A4B2013CA4B20B4622468F
:102DD400FFF78AFF2F44BFB2013FBFB23B462246F2
:102DE40039463046FFF780FF3B4632462946304697
:102DF400FFF77AFF3B46224629462046FFF774FF39
:102E0400DFE700BFC00100202DE9F04F85B0834605
:102E14008A46039313B2019353009BB2C3F1030395
:102E24001BB202930023009356E0BDF8005005EB5B
:102E34000B07BFB2A4B204EB0A06B6B23146384659
:102E4400FFF730FFABEB05081FFA88F83146404620
:102E5400FFF728FFABEB04091FFA89F905EB0A0613
:102E6400B6B231464846FFF71DFFAAEB0505ADB2E1
:102E740029464846FFF716FFAAEB04091FFA89F909
:102E840049464046FFF70EFF49463846FFF70AFF1A
:102E940004EB0B07BFB229463846FFF703FF314660
:102EA4003846FFF7FFFE013424B2019BA342BCDA8B
:102EB400009A013293B212B20092029A002A54DBB1
:102EC400009B019A9B1A029901EB83030A331BB2FC
:102ED4000293531E1BB20193009B019A93424BDC55
:102EE400039B002B3FD1BDF8005005EB0B06B6B297
:102EF400BDF8044004EB0A081FFA88F8414630463E
:102F0400FFF7D0FEABEB0507BFB241463846FFF7EB
:102F1400C9FEABEB04081FFA88F805EB0A091FFA8F
:102F240089F949464046FFF7BDFEAAEB0505ADB257
:102F340029464046FFF7B6FEAAEB04081FFA88F8B4
:102F440041463846FFF7AEFE41463046FFF7AAFE3B
:102F54005C44A4B229462046FFF7A4FE4946204615
:102F6400FFF7A0FEA4E7009C9FE79B009BB21344DD
:102F740006331BB20293AFE705B0BDE8F08F000043
:102F840070B5A2F12004A4B2194B1D68AA88EB887D
:102F940003FB02F6002E0CDBC6F3C7062D6806FB06
:102FA40004F4FFF733FE4FF0D8432C221A8000209C
:102FB40018E00736F0E70F4A11884FF0DA42118023
:102FC4000133DBB2072B0BD82A19115C80221A417A
:102FD4001142F0D0084A11884FF0DA421180EFE72D
:102FE4000130C0B2B04201D20023EBE770BD00BF94
:102FF400100000200C000020C001002070B5054620
:103004000E46002411E0CB882B44104909888B42DA
:1030140001DD0024254629462046FFF7B1FF01368D
:103024000B4B1B689B881C44A4B2327862B1084BDA
:1030340019688B882344074800888342E3DDC888E5
:103044000544ADB20024DEE770BD00BF18000020C7
:10305400100000201600002010B588B0144610237C
:103064001A46FFF7D3FD4FF0D8432C221A8021468D
:10307400684600F0B1F84FF0000C17E0154A1088CC
:103084004FF0DA4210800133DBB20F2B0AD84FF431
:1030940000421A411142F1D00F4A10884FF0DA422F
:1030A4001080F0E70CF1010C5FFA8CFCBCF10F0FFF
:1030B4000ED84FEA4C0308AA02EB4C0212F8202C5B
:1030C40021336B4413F8201C41EA02210023DCE77E
:1030D40008B010BD0C000020C001002070B50446EB
:1030E4000D46164609E029462046FFF749FF1E4BC8
:1030F4001B6898880444A4B201363278002A32D07E
:103104007E2A14D8184B18688388234417490988E1
:103114008B4203DDC1880D44ADB20024C3882B4427
:10312400134909888B42DEDD00252C46DBE704F1D8
:103134000F030E4A1288934202DB1035ADB200240D
:1031440005F10F030A4A1288934201DB00252C463D
:1031540036F8022B52BA92B229462046FFF77CFF7A
:103164001034A4B2C9E770BD10000020160000207E
:1031740018000020014B1860704700BF10000020A9
:10318400014B1868704700BF10000020024B1880E4
:10319400024B1980704700BFC00100200C000020C2
:1031A400014B1880704700BFC0010020014B1880FC
:1031B400704700BF0C00002038B50446054B1D883D
:1031C400FFF7DEFFC3882A4621460020FFF752FDA1
:1031D40038BD00BF1600002038B505460C460E4B1E
:1031E4001B7893B1230AE1B2A3F1A1045E2303FB8C
:1031F4000411A1394901202201F5C11101F58051C1
:10320400284600F055FD002038BD00F0F9FC024BC3
:1032140001221A70E6E700BF2A02002070B586B0CA
:10322400224B9A6942F080029A619A6902F0800204
:103234000092009A9A6942F480729A619B6903F43D
:1032440080730193019B8023029303260596012535
:10325400039502A91648FEF733F94FF4006302936D
:10326400144C02A92046FEF72BF94FF48063029315
:103274000596039502A92046FEF722F940230293FE
:10328400059600260396049502A92046FEF718F930
:103294004FF0806323614FF4007302930396049507
:1032A40002A92046FEF70CF906B070BD00100240DA
:1032B40000200140001C014008B5027A034B1A713A
:1032C4004FF6FF711888FFF761FF08BD2C0200203C
:1032D40010B58068064C20604FF6FF7180B2FFF78E
:1032E40055FF2379082B00D010BD00222271FBE783
:1032F4002C02002000B583B04FF6FF710846FFF79B
:1033040045FF074B1A88523A01230093054B1B884B
:1033140092B200215120FFF739FD03B05DF804FBA0
:10332400160000201800002030B583B00446037B4B
:1033340023BB4FF6FF710089FFF728FF20886188BF
:10334400A288E3885B1A121A012500959BB292B2F7
:10335400FFF71CFD4FF6FF714FF40470FFF716FFE3
:1033640020886188A288E3885B1A121A00240094DA
:103374009BB292B2FFF70AFD03B030BD4FF6FF7166
:103384000846FFF703FF20886188A288E3885B1A58
:10339400121A012500959BB292B2FFF7F7FCD9E708
:1033A4002DE9F04F87B09DF84070A2EB000ABAF106
:1033B400000FB8BFCAF1000A0FFA8AFA5C1A002C8F
:1033C400B8BF644226B205B20FFA81F8824213D321
:1033D400012201928B4213D301230293B24513DBE2
:1033E4000AEBDA7B4BF34F0B019B0393002301930E
:1033F4000493002405961DE04FF0FF320192E9E7A3
:103404004FF0FF330293E9E706EBD67B4BF34F0B08
:103414005346B2461E46029B049300230293039331
:10342400E7E7039B1D442DB2049B98440FFA88F8E8
:10343400013424B2A24530DBEB19194A12889342B5
:10344400F6DCEB1B002BF3DB07EB0803154A1288B1
:103454009342EDDCA8EB0703002BE9DB1FFA85F9A7
:103464001FFA88F601233A4631464846FFF7CCFC5A
:10347400059B9B441FFA8BF30FFA8BFBDA45D0DCD8
:10348400A3EB0A030FFA83FB019B09EB03052DB29F
:10349400029B1E440FFA86F8C3E707B0BDE8F08F1D
:1034A400160000201800002030B583B00446037BCA
:1034B400002B36D14FF6FF714CF21860FFF766FE11
:1034C40020886188A288E3885B1A121A0125009576
:1034D4009BB292B2FFF75AFC4CF218614FF404709D
:1034E400FFF754FE20886188A288E3885B1A121AC9
:1034F400002500959BB292B2FFF748FC4FF6FF718E
:103504000020FFF743FEA368082B44D8DFE813F03C
:103514002D00450059006D0081009500A900BD00F3
:10352400F7004FF6FF710846FFF730FE20886188E8
:10353400A288E3885B1A121A012500959BB292B205
:10354400FFF724FC4FF6FF714FF40470FFF71EFEE3
:1035540020886188A288E3885B1A121A00250095E6
:103564009BB292B2FFF712FCC8E74FF6FF7100203E
:10357400FFF70CFE20886188E3885B1A03EBD373A2
:1035840001EB630189B2A288143A14300B4692B25B
:1035940080B2FFF7A9FB03B030BD20886188E388BF
:1035A4005B1A03EBD37301EB630189B2A288143A6B
:1035B4001430012300930B4692B280B2FFF7F0FE61
:1035C400E9E720886188E3885B1A03EBD37301EB96
:1035D400630189B2A288143A1430022300930B4683
:1035E40092B280B2FFF7DCFED5E720886188E388D9
:1035F4005B1A03EBD37301EB630189B2A288143A1B
:103604001430032300930B4692B280B2FFF7C8FE36
:10361400C1E720886188E3885B1A03EBD37301EB6D
:10362400630189B2A288143A1430042300930B4630
:1036340092B280B2FFF7B4FEADE720886188E388D8
:103644005B1A03EBD37301EB630189B2A288143ACA
:103654001430082300930B4692B280B2FFF7A0FE09
:1036640099E720886188E3885B1A03EBD37301EB45
:10367400630189B2A288143A14300A2300930B46DA
:1036840092B280B2FFF78CFE85E74FF6FF710020FF
:10369400FFF77CFD20886188E3885B1A03EBD37312
:1036A40001EB630189B2A288053A05300B4692B258
:1036B40080B2FFF719FB002514E005EB850300EB4E
:1036C400430080B26388E188C91A01EBD17103EB2E
:1036D400610105300123032289B280B2FFF794FB14
:1036E4000135ADB2A38820881B1A0A3B234A82FB0A
:1036F4000312DB17C3EBA2039D42DEDB4BE7002181
:103704004FF6FF70FFF742FD2388A088C01A1838CF
:1037140000EBD0706288E188891A283901EBD171F5
:1037240002EB610103EB60000123009318231A46A6
:1037340089B280B2FFF72AFB4CF218614FF478404B
:10374400FFF724FD0E48FFF715FD2288A088801A94
:10375400203800EBD0706388E188C91A283901EB5E
:10376400D17103EB610189B2183102EB6000054AA3
:1037740089B280B2FFF7B2FC0DE700BF67666666E8
:103784002C000020108E000830B583B00446037B63
:10379400002B43D14FF6FF714CF21860FFF7F6FC93
:1037A40020886188A288E3885B1A121A0125009593
:1037B4009BB292B2FFF7EAFA4CF218614FF47840E8
:1037C400FFF7E4FC2D48FFF7D5FC2388A088C01A36
:1037D400203800EBD0706288E188891A103901EB37
:1037E400D17102EB610103EB6000254A89B280B21A
:1037F400FFF774FC4FF6FF714FF40470FFF7C6FC3B
:1038040020886188A288E3885B1A121A0024009435
:103814009BB292B2FFF7BAFA03B030BD4FF6FF7114
:103824000846FFF7B3FC20886188A288E3885B1A06
:10383400121A012500959BB292B2FFF7A7FA4FF630
:10384400FF714FF47840FFF7A1FC0C48FFF792FC9E
:103854002388A088C01A203800EBD0706288E188E1
:10386400891A103901EBD17102EB610103EB60009D
:10387400034A89B280B2FFF731FCBBE72C00002079
:10388400188E00082DE9F04F8D4B00221A805A80C3
:10389400282199804FF01C0AA3F806A09A601A7395
:1038A400884C1C61884858611A83A3F81AA099832C
:1038B4004FF03809A3F81E9046F20C351D6283F8C8
:1038C40024209C62D8621A86A3F8329099864FF01D
:1038D4005408A3F836801F259D6383F83C201C649C
:1038E4005864A3F84820A3F84A80A3F84C10702722
:1038F400A3F84E7040F2FF751D6583F854209C6553
:10390400D865A3F86020A3F86270A3F864108C262D
:10391400A3F866604FF478459D6683F86C201C67B5
:103924005867A3F87820A3F87A60A3F87C10A82538
:10393400A3F87E504FF61F0CC3F880C083F8842090
:10394400C3F88840C3F88C00A3F89020A3F89250E1
:10395400A3F894104FF0C40EA3F896E04FF4FC6C57
:10396400C3F898C083F89C20C3F8A040C3F8A4000F
:10397400A3F8A820A3F8AAE0A3F8AC105348B0F821
:1039840000B0A3F8AEB04CF21860C3F8B00083F8EE
:10399400B4204F48C3F8B8004E48C3F8BC00A3F89D
:1039A400C010A3F8C2204FF0500CA3F8C4C0A3F871
:1039B400C6A0C3F8C82083F8CC20474CC3F8D04035
:1039C4004648C3F8D400A3F8D810A3F8DAA0A3F8A3
:1039D400DCC0A3F8DE904FF0010AC3F8E0A083F83E
:1039E400E420C3F8E840C3F8EC00A3F8F010A3F80F
:1039F400F290A3F8F4C0A3F8F6804FF00209C3F8DC
:103A0400F89083F8FC20C3F80041C3F80401A3F83C
:103A14000811A3F80A81A3F80CC1A3F80E714FF0A2
:103A24000308C3F8108183F81421C3F81841C3F8BC
:103A34001C01A3F82011A3F82271A3F824C1A3F850
:103A440026610427C3F8287183F82C21C3F8304178
:103A5400C3F83401A3F83811A3F83A61A3F83CC1C0
:103A6400A3F83E510526C3F8406183F84421C3F806
:103A74004841C3F84C01A3F85011A3F85251A3F8DC
:103A840054C1A3F856E10625C3F8585183F85C21C4
:103A9400C3F86041C3F86401A3F86811A3F86AE1AC
:103AA400A3F86CC1A3F86EB10821C3F8701183F8B0
:103AB4007421C3F87841C3F87C01BDE8F08F00BFDE
:103AC400340200202D330008D532000818000020ED
:103AD4008D370008F9320008AD340008BD32000803
:103AE40010B5FFF71FF84FF6FF70FFF75FFB104BA1
:103AF4001B88104A128800210846FFF7BBF8FFF71D
:103B0400C1FE00240AE00C4804EB4402D300034441
:103B14001969D300184488470134E4B20F2CF2D950
:103B2400064B002018601871FFF73AFB10BD00BF68
:103B34001800002016000020340200202C0200206F
:103B440008B50146024800F033F9002008BD00BF63
:103B5400208E000830B58BB0274B9A6942F00402DE
:103B64009A619A6902F004020192019A9A6942F0F8
:103B740004029A619A6902F004020292029A9A6912
:103B840042F004029A619A6902F004020392039AD1
:103B94009A6942F004029A619A6902F0040204925A
:103BA400049A9A6942F480529A619B6903F480539F
:103BB4000593059B2023069302230793012508956B
:103BC400032309930D4C06A92046FDF779FC4023F5
:103BD400069306A92046FDF773FC8023069306A9E5
:103BE4002046FDF76DFC10230693079506A9204691
:103BF400FDF766FC0BB030BD001002400008014028
:103C040010B5104C104B23600823E3610023A3601C
:103C14000122626102222261A3620722E262E3605E
:103C240023624FF40072A26163624FF48273636093
:103C34002046FEF7BDF92268136843F04003136081
:103C440010BD00BFB40300200030014008B5164B7E
:103C54004FF480521A60154B1B689A6812F0020FD9
:103C64000AD1114A1368591E1160002BF3D10020A8
:103C7400FFF766FFC0B208BDD8600B4A4FF480510D
:103C840011609A6812F0010F0AD107490A68501EA0
:103C94000860002AF5D10120FFF752FFC0B2EAE71D
:103CA400D868C0B2E7E700BF34000020B4030020A6
:103CB40070B506460C461546104B4FF480121A6137
:103CC4000320FFF7C3FFC4F30740FFF7BFFFC4F3AC
:103CD4000720FFF7BBFFE0B2FFF7B8FF05E0FF20C6
:103CE400FFF7B4FF06F8010B25466B1E9CB2002DAE
:103CF400F5D1024B10221A6170BD00BF00080140CB
:103D0400FEF75AFC0B480C490C4A002302E0D45835
:103D1400C4500433C4188C42F9D3094A094C002313
:103D240001E013600432A242FBD300F015F8FCF763
:103D34001FFC7047000000209C000020F08E00084B
:103D44009C0000201C040020FEE70000014B1868C2
:103D5400704700BF3800002070B500260C4D0D4C94
:103D6400641BA410A64209D101F008FA00260A4DEA
:103D74000A4C641BA410A64205D170BD55F8043B3F
:103D840098470136EEE755F8043B98470136F2E7C9
:103D9400E88E0008E88E0008E88E0008EC8E000823
:103DA40003460244934200D1704703F8011BF9E72C
:103DB4000FB40A4B13B51C6824B1A36913B9204688
:103DC40000F07AFA05AB2046049AA168019300F04A
:103DD400D9FD02B0BDE8104004B07047380000209F
:103DE40070B50E46054618B183690BB900F064FA44
:103DF400AB69AC6813B9284600F05EFA2C4B9C42C0
:103E040020D16C68636EDB0705D4A389980502D4BE
:103E1400A06D00F0EFFAA38919071DD52369DBB162
:103E2400013EA36816F8011F013BA36039BB002BB8
:103E340038DA22460A21284600F068F8013011D009
:103E44000A2511E01B4B9C4201D1AC68DAE71A4BFE
:103E54009C4208BFEC68D5E72146284600F0A8F844
:103E64000028DDD04FF0FF35636EDA0705D4A3894F
:103E74009B0502D4A06D00F0BEFA284670BD002B4D
:103E840004DAA2699A4206DC0A2904D023685A1C7F
:103E940022601970C5E72246284600F037F8013041
:103EA400BFD1DFE70A2523685A1C22601D70DBE7B7
:103EB400748E0008948E0008548E0008024B01464C
:103EC4001868FFF78DBF00BF380000200EB46FF0F4
:103ED400004100B59CB01DAB02900690079104917F
:103EE4000848094953F8042B0591006802A9019375
:103EF40000F020FC0022029B1A701CB05DF804EB59
:103F040003B07047380000200802FFFFF8B50E46E2
:103F14001446054618B183690BB900F0CDF9214B5D
:103F24009C422BD16C68A369A360A3891A072FD57F
:103F340023696BB323692068F6B2C01A63693746F4
:103F4400834204DC2146284600F022F930BBA368F2
:103F54000130013BA36023685A1C22601E70636910
:103F6400834204D0A389DB0706D50A2E04D1214657
:103F7400284600F00DF988B93846F8BD0A4B9C4232
:103F840001D1AC68CFE7094B9C4208BFEC68CAE793
:103F94002146284600F00CF80028CBD04FF0FF371C
:103FA400EAE700BF748E0008948E0008548E00085F
:103FB400324B70B51D6806460C4625B1AB6913B982
:103FC400284600F079F92E4B9C420FD16C68A389E6
:103FD400B4F90C2019072CD4DD0611D4092333605D
:103FE40042F040034FF0FF30A3813EE0254B9C425A
:103FF40001D1AC68EBE7244B9C4208BFEC68E6E7D0
:10400400580712D5616B41B104F14403994202D0BF
:10401400304600F057FA00236363A38923F0240396
:10402400A3810023636023692360A38943F0080309
:10403400A38123694BB9A38903F42073B3F5007FEB
:1040440003D02146304600F0FDF9A089B4F90C20D4
:1040540010F001030AD00023A36063695B42A361EB
:10406400236943B910F08000BAD170BD810758BFED
:104074006369A360F4E70020F7E700BF380000207D
:10408400748E0008948E0008548E00088A89F8B54E
:10409400054610070C4657D44B68002B04DC0B6C08
:1040A400002B01DC0020F8BDE66A002EFAD00023C4
:1040B40012F480522F682B6032D0606DA3895A07A6
:1040C40005D56368C01A636B0BB1236CC01A002357
:1040D4000246E66A2846216AB047431CA38906D1F2
:1040E40029681D292CD8294ACA40D60728D5002278
:1040F40062602269D904226004D5421C01D12B6874
:1041040003B96065616B2F600029CBD004F14403CF
:10411400994202D0284600F0D5F900206063C2E736
:10412400216A01232846B047411CC7D12B68002BC4
:10413400C4D01D2B01D0162B01D12F60B2E7A38967
:1041440043F04003A381AEE70F69002FAAD0930781
:1041540018BF00230E6808BF4B69F61B0F608B6005
:10416400002E9FDD33463A462846216AD4F828C0FB
:10417400E047002806DCA3894FF0FF3043F04003FA
:10418400A38190E70744361AEAE700BF0100402004
:1041940038B50B6905460C4613B90025284638BDC9
:1041A40018B183690BB900F087F8144B9C421BD1FA
:1041B4006C68B4F90C30002BEFD0626ED00704D4D5
:1041C400990502D4A06D00F015F928462146FFF7A1
:1041D4005DFF636E0546DA07E0D4A3899B05DDD451
:1041E400A06D00F008F9D9E7054B9C4201D1AC68F9
:1041F400DFE7044B9C4208BFEC68DAE7748E0008E2
:10420400948E0008548E0008002310B50446C0E9BB
:104214000033C0E90433836081814366C2818361D2
:10422400194608225C30FFF7BBFD054B246263622C
:10423400044BA362044BE362044B236310BD00BF31
:10424400354F0008574F00088F4F0008B34F000840
:10425400014900F0AFB800BF95410008682270B56D
:104264004D1E55430E4605F1740100F093F90446C2
:1042740040B10021C0E900160C30A06005F16802CD
:10428400FFF78EFD204670BD014800F0B3B800BFB3
:104294000D040020014800F0AEB800BF0D0400205A
:1042A400014800F0A7B800BF0E040020014800F048
:1042B400A2B800BF0E04002010B50446FFF7F0FFBB
:1042C400A3691BB1BDE81040FFF7F0BFC4E9123386
:1042D4002365134B134A1B68A262A34208BF012340
:1042E400204608BFA36100F01FF86060204600F07C
:1042F4001BF8A060204600F017F800220421E060BB
:104304006068FFF781FF01220921A068FFF77CFFA5
:1043140002221221E068FFF777FF0123A361D1E7AE
:10432400508E000855420008F8B50746FFF7ACFF69
:104334001E4B1E68B36913B93046FFF7BDFF4836FC
:10434400D6E90134013B03D533680BB33668F7E78C
:10435400B4F90C50D5B9164B04F15800E360656606
:1043640000F047F8FFF796FF08222946C4E90155F3
:10437400C4E904552560A56104F15C00FFF710FD54
:10438400C4E90D55C4E912552046F8BD6834D9E78F
:1043940004213846FFF762FF044630600028D5D177
:1043A400FFF778FF0C233B60EEE700BF508E000858
:1043B4000100FFFF2DE9F84306468846002700F177
:1043C4004804D4E90195B9F1010905D52468002C04
:1043D400F7D13846BDE8F883AB89012B07D9B5F985
:1043E4000E30013303D029463046C04707436835B1
:1043F400E9E770477047704770B50E46B1F90E1083
:10440400144600291D4696B008DA0022B6F90C308D
:104414002A601A0610D44FF480630EE06A4600F056
:10442400EDFD0028F1DB019A02F47042A2F500537D
:104434005A425A412A60EEE740230020236016B016
:1044440070BD00008B8973B59D0706460C4607D5E1
:1044540004F14703236023610123636102B070BD4B
:104464006A4601ABFFF7C8FF00990546304600F0E5
:1044740091F848B9B4F90C309A05EFD423F003034A
:1044840043F00203A381E3E70D4BB362A3892060E9
:1044940043F08003A381009B20616361019B5BB1B6
:1044A4003046B4F90E1000F0BBFD28B1A38923F007
:1044B400030343F00103A381A0890543A581CDE74C
:1044C4005542000838B50546002940D051F8043C4F
:1044D4000C1F002BB8BFE41800F0FAFD1C4A136847
:1044E40033B9636014602846BDE8384000F0F6BD77
:1044F400A34208D9206821188B4201BF19685B6860
:1045040009182160EDE71A465B680BB1A342FAD99A
:1045140011685018A0420BD12068014450188342FE
:104524001160E0D118685B68014411605360DAE7F8
:1045340002D90C232B60D6E7206821188B4201BFD7
:1045440019685B680918216063605460CBE738BD63
:104554001004002070B50E4E0C463168054611B9A2
:1045640000F0D6FC30602146284600F0D1FC431C04
:104574000AD0C41C24F00304A04207D0211A284600
:1045840000F0C6FC013001D14FF0FF34204670BD6D
:10459400140400202DE9F041CD1C25F00305083555
:1045A4000C2D38BF0C25002D074601DBA94205D987
:1045B4000C2300263B603046BDE8F0812E4E00F00F
:1045C40087FD33681C4634BB29463846FFF7C2FFD3
:1045D400431C04464DD134682646002E40D123683E
:1045E4003146384604EB030800F092FC80453AD18A
:1045F400216803356D1A25F0030508350C2D38BFE5
:104604000C2538462946FFF7A5FF01302BD0236837
:104614002B4423600EE02268521B1ED40B2A16D9A9
:104624006119A342256018BF5960636808BF3160EF
:1046340062514B60384604F10B0600F04FFD26F042
:104644000706231DF21AB6D09B1BA350B3E762687A
:10465400A3420CBF32605A60ECE723466468B2E7B9
:1046640034467668B9E70C2338463B6000F036FDE3
:10467400A1E72560DEE700BF100400202DE9F04724
:104684008E6882469E420C4690461F4638D88A89D8
:1046940012F4906F32D0256809690133A5EB010942
:1046A40065694B4405EB450505EBD5756D109D42D9
:1046B40038BF1D46530531D52946FFF76BFF064623
:1046C40050B90C234FF0FF30CAF80030A38943F0EF
:1046D4004003A381BDE8F0874A46216900F0D0FC7D
:1046E400A38923F4906343F08003A38126614E449D
:1046F40026603E466561A5EB0905A560BE4200D96A
:104704003E4632464146206800F0C8FCA3680020BB
:104714009B1BA360236833442360DBE72A4600F035
:10472400E3FC06460028E1D150462169FFF7CAFEA2
:10473400C7E700002DE9F04F98468B8907461B0612
:104744000D4614469DB00ED50B6963B94021FFF7A1
:1047540021FF2860286120B90C233B604FF0FF3013
:10476400D1E040236B610023099320238DF8293085
:1047740030234FF00109CDF80C80DFF8A4818DF8C7
:104784002A3023469A4613F8012B0AB1252AF9D177
:10479400BAEB040B0BD05B46224629463846FFF79A
:1047A4006DFF013000F0AA80099A5A4409929AF8E0
:1047B4000030002B00F0A28000234FF0FF32CDE93F
:1047C40005230AF1010A049307938DF853301A93D1
:1047D4005446052214F8011B514800F043FC049A86
:1047E400D8B9D00644BF20238DF85330110744BFF5
:1047F4002B238DF853309AF800302A2B15D05446C9
:1048040000204FF00A0C079A214611F8013B303B77
:10481400092B4ED9B0B1079214E0A0EB080309FAB2
:1048240003F31343A2460493D2E7039B191D1B68A9
:104834000391002BBBBF5B4242F002020793079334
:10484400B8BF049223782E2B0CD163782A2B35D150
:10485400039B02341A1D1B680392002BB8BF4FF050
:10486400FF330593DFF8BCA003225046217800F003
:10487400F9FB40B14023A0EB0A0003FA00F0049BCB
:1048840001340343049314F8011B062226488DF8CF
:10489400281000F0E7FB002838D0244B1BBB039BF7
:1048A400073323F0070308330393099B3344099325
:1048B40067E70C4601200CFB0232A5E700234FF00A
:1048C4000A0C194601340593204610F8012B303A9E
:1048D400092A03D9002BC5D00591C3E70446012357
:1048E4000CFB0121F0E703AB00932A463846104B3A
:1048F40004A9AFF30080421C0646D6D1AB895B06FF
:104904003FF52CAF09981DB0BDE8F08F03AB0093C1
:104914002A463846064B04A900F0D4F9EBE700BF59
:10492400B48E0008BA8E0008BE8E00080000000095
:1049340081460008936810B4013B002B936007DAAA
:104944009469A34201DB0A2902D110BCFFF7DEBA45
:104954001368581C10601970084610BC7047F8B5ED
:1049640006460F461446D518AC4201D1002007E094
:104974003A46304614F8011BFFF7DCFF431CF3D121
:10498400F8BD00002DE9F04F0D4614469846064642
:104994009DB018B183690BB9FFF78EFC894B9D421A
:1049A4001BD175686B6ED90705D4AB899A0502D4FF
:1049B400A86DFFF71FFDAB891B0701D52B69EBB968
:1049C40029463046FFF7F4FAC0B16B6EDC070ED50A
:1049D4004FF0FF301DB0BDE8F08F7B4B9D4201D1FD
:1049E400B568DFE7794B9D4208BFF568DAE7AB8924
:1049F4009805EDD4A86DFFF7FEFCE9E700230993C1
:104A040020238DF8293030234FF00109CDF80C8094
:104A1400DFF8BC818DF82A3023469A4613F8012B1F
:104A24000AB1252AF9D1BAEB040B0BD05B46224616
:104A340029463046FFF793FF013000F0AA80099A17
:104A44005A4409929AF80030002B00F0A280002307
:104A54004FF0FF32CDE905230AF1010A04930793CD
:104A64008DF853301A935446052214F8011B584804
:104A740000F0F8FA049AD8B9D10644BF20238DF87F
:104A84005330130744BF2B238DF853309AF800306A
:104A94002A2B15D0544600204FF00A0C079A2146C1
:104AA40011F8013B303B092B4ED9B0B1079214E009
:104AB400A0EB080309FA03F31343A2460493D2E7D5
:104AC400039B191D1B680391002BBBBF5B4242F083
:104AD400020207930793B8BF049223782E2B0CD1BC
:104AE40063782A2B35D1039B02341A1D1B68039269
:104AF400002BB8BF4FF0FF330593DFF8D8A0032293
:104B04005046217800F0AEFA40B14023A0EB0A00F1
:104B140003FA00F0049B01340343049314F8011BCB
:104B240006222D488DF8281000F09CFA00283FD06A
:104B34002A4B1BBB039B073323F007030833039360
:104B4400099B3B44099367E70C4601200CFB0232A6
:104B5400A5E700234FF00A0C1946013405932046BB
:104B640010F8012B303A092A03D9002BC5D005913E
:104B7400C3E7044601230CFB0121F0E703AB0093D8
:104B84002A463046164B04A9AFF300800746781C2A
:104B9400D6D16B6ED90705D4AB899A0502D4A86D1A
:104BA400FFF729FCAB895B063FF512AF099811E7C3
:104BB40003AB00932A463046094B04A900F082F85F
:104BC400E4E700BF748E0008948E0008548E000839
:104BD400B48E0008BA8E0008BE8E000800000000E3
:104BE400634900082DE9F047164699468A680B691F
:104BF40007469342B8BF1346336091F843200C46EE
:104C0400DDF820800AB1013333602368990642BF7E
:104C1400336802333360256815F0060506D104F1C4
:104C2400190AE36832689B1AAB4228DC94F84320E3
:104C3400131E226818BF012392062DD44946384614
:104C440004F14302C047013020D02368E56803F033
:104C54000603042B18BF002532684FF00006A36832
:104C640008BFAD1A226908BF25EAE5759342C4BF9F
:104C74009B1AED181A34B5421AD1002008E001231A
:104C8400524649463846C047013003D14FF0FF3001
:104C9400BDE8F0870135C4E73020E11881F843000E
:104CA4005A1C94F845102244023382F84310C5E795
:104CB4000123224649463846C0470130E6D0013632
:104CC400D9E700002DE9FF470F7E9146782F8046F3
:104CD4000C469A460C9D01F1430207D8622F0AD86C
:104CE400002F00F0D980582F00F0A48004F1420571
:104CF40084F842703AE0A7F16303152BF6D801A1BA
:104D040051F823F0614D0008754D0008F14C00087E
:104D1400F14C0008F14C0008F14C0008754D0008F6
:104D2400F14C0008F14C0008F14C0008F14C00086B
:104D3400834E0008A54D0008654E0008F14C00089C
:104D4400F14C0008A54E0008F14C0008A54D0008E0
:104D5400F14C0008F14C00086D4E00082B681A1D38
:104D64001B682A6004F1420584F842300123A4E060
:104D740020682968060601F104030AD50E682B6031
:104D8400002E03DA2D23764284F843300A235E484A
:104D940019E00E6810F0400F2B6018BF36B2EFE731
:104DA4002B682068191D2960010601D51E6802E0E0
:104DB4004606FBD51E886F2F0CBF08230A235248D2
:104DC400002184F843106568002DA8BF2168A56000
:104DD400A4BF21F0040121600EB9002D4DD0154669
:104DE400B6FBF3F103FB1167C75D05F8017D374698
:104DF400BB420E46F4D9082B0BD12368DE0708D535
:104E0400236961689942DEBF302305F8013C05F14E
:104E1400FF35521B22614B4621464046CDF800A087
:104E240003AAFFF7DFFE01304CD14FF0FF3004B08E
:104E3400BDE8F087344881F845702968236851F843
:104E4400046B29601D0614D5DF0744BF43F020031B
:104E540023601EB9236823F0200323601023AFE7E7
:104E6400236843F0200323607823284884F84530DE
:104E7400E3E7590648BFB6B2E6E71546BBE72B6839
:104E84002668181D6169286035061B6801D51960FC
:104E940002E07006FBD51980002315462361BAE7AA
:104EA4002B6800211A1D2A601D686268284600F0DC
:104EB400D9F808B1401B606063682361002384F85B
:104EC4004330A8E72A46494640462369D047013083
:104ED400ABD023689B0713D4E068039B9842B8BF08
:104EE4001846A4E70123324649464046D0470130DC
:104EF4009BD00135E36803995B1AAB42F2DCEBE724
:104F0400002504F11906F5E7C58E0008D68E0008C1
:104F140038B50023054D044608462B60FDF74EFBCB
:104F2400431C02D12B6803B1236038BD1804002050
:104F340010B50C46B1F90E1000F006F90028ABBF0D
:104F4400636DA3891B1823F48053ACBF6365A381ED
:104F540010BD2DE9F0411F468B890546DB050C4643
:104F6400164605D502230022B1F90E1000F068F8A8
:104F7400A389324623F48053A38128463B46B4F9DF
:104F84000E10BDE8F04100F017B810B50C46B1F9A9
:104F94000E1000F055F8431CA38915BF606523F477
:104FA400805343F48053A38118BFA38110BDB1F98A
:104FB4000E1000F013B8000038B504460846114638
:104FC4000022054D2A601A46FDF72CFB431C02D132
:104FD4002B6803B1236038BD1804002038B50023C2
:104FE400054D044608462B60FDF72AFB431C02D1FD
:104FF4002B6803B1236038BD1804002038B50023A2
:10500400064D0446084611462B60FDF71CFB431C65
:1050140002D12B6803B1236038BD00BF18040020FF
:1050240038B50023054D044608462B60FDF710FBF8
:10503400431C02D12B6803B1236038BD180400203F
:1050440038B50446084611460022054D2A601A4622
:10505400FDF700FB431C02D12B6803B1236038BD6C
:1050640018040020034610B5C9B2024493421846FE
:1050740001D1002003E0047801338C42F6D110BD45
:105084000A44914200F1FF3300D1704710B511F882
:10509400014B914203F8014FF9D110BD884210B57C
:1050A40001EB020402D98442234607D8431EA142DD
:1050B40008D011F8012B03F8012FF8E70146024448
:1050C4008A4200D110BD13F8014D02F8014DF7E7F3
:1050D4000148FFF78FB900BF0C0400200148FFF717
:1050E4008AB900BF0C0400202DE9F0418046144623
:1050F4000E4621B91146BDE8F041FFF74BBA2AB973
:10510400FFF7E0F925462846BDE8F08100F02EF8C7
:105114008442074602D8B4EB500F12D821464046C9
:10512400FFF738FA05460028EDD0BC422246314646
:1051340028BF3A46FFF7A4FF31464046FFF7C2F9BD
:10514400E1E73546DFE7000038B504460846114676
:105154000022054D2A601A46FDF754FA431C02D179
:105164002B6803B1236038BD1804002051F8043CB7
:10517400181F002BBCBF0B58C0187047F8B500BFF0
:10518400F8BC08BC9E467047F8B500BFF8BC08BC24
:045194009E4670477C
:10519800424820332E3220696E6368204C434420F5
:1051A800706172613A000000496D6167652072653F
:1051B800736F6C7574696F6E3A323430783332308D
:1051C80020707800494C4939333431204C4344200D
:1051D800647269766572000053543737383956203F
:1051E8004C4344206472697665720000585054320A
:1051F80030343620546F75636820506164206472BF
:105208006976657200000000436F756E74203A205D
:105218002564200044726177206C696E653A00004D
:105228004472617720526563743A00004472617772
:10523800204369723A0000000D0A202A2A2A2A2AE5
:105248002A2A2A2A2A20D2BABEA7C6C1D3A2CEC4E5
:10525800CFD4CABEB3CCD0F22A2A2A2A2A2A2A2A8A
:105268002A2A2A200D00000002030405060708095F
:105278000A0B0C0D0E0F10100102000002030405AA
:10528800060708090A0B0C0D0E0F1010010200008A
:1052980000000000000000000102030406070809DE
:1052A80000000000010203040000000000000000EC
:1052B80000000000000000000000000000000000E6
:1052C80000000000000000000000000000000000D6
:1052D80000000000000000000000000000000000C6
:1052E800000003800180018001800180018001802D
:1052F8000180018001800000000003C003C000009D
:105308000000000000000000000000000000000095
:1053180000000E700E700E700C30000000000000CF
:105328000000000000000000000000000000000075
:105338000000000000000000000000000000000065
:10534800000000000618063806307FFE0C300C30CE
:105358000C300C307FFE0C601C6018601860000078
:105368000000000000000000000000000000000035
:1053780000C000C00FF83CC831C031803D801F809C
:1053880003F001F8031C030C031C3FF83FE007007F
:1053980006000000000000000000000000000000FF
:1053A8001C007E0E630C631863307E6000C00180B1
:1053B8000300077C0EE61CC618C630C6607C0000D9
:1053C80000000000000000000000000000000000D5
:1053D80000000FE01CF0387038701C601FC00F0010
:1053E8003F8C71CC60EC607C70383CFC1FCE0000B8
:1053F80000000000000000000000000000000000A5
:10540800000003C00180018001800000000000004E
:105418000000000000000000000000000000000084
:105428000000000000000000000000000000000074
:10543800003000E001C001800300070006000600FC
:105448000E000E000E000E00060007000300038089
:1054580001C000E000300000000000000000000073
:105468000C0006000380018001C000E000600060BD
:105478000070007000700060006000E000C00180F3
:10548800038006000C00000000000000000000007F
:105498000000018011881DB803C007E03DBC0188E9
:1054A8000180000000000000000000000000000073
:1054B80000000000000000000000000000000000E4
:1054C80000000000000000000180018001800180D0
:1054D80001807FFE018001800180018000000000C2
:1054E80000000000000000000000000000000000B4
:1054F80000000000000000000000000000000000A4
:10550800000000000000000003C003C001C001C08B
:1055180003801F00000000000000000000000000E1
:105528000000000000000000000000000000000073
:1055380000000FF000000000000000000000000064
:105548000000000000000000000000000000000053
:105558000000000000000000000000000000000043
:10556800000000000000000003C003C003C00000EA
:105578000000000000000000000000000000000023
:105588000000001800380030006000E000C001C0D2
:1055980001800300030006000E000C001C00180028
:1055A80030000000000000000000000000000000C3
:1055B800000001800FF01C38381C301C707E70EE23
:1055C800738E7E0E7C0C300C381C1E780FE00000A9
:1055D80000000000000000000000000000000000C3
:1055E8000000000007C01FC039C001C001C001C0D1
:1055F80001C001C001C001C001C03FFC3FFC000068
:105608000000000000000000000000000000000092
:10561800000003801FF018380038001800380038E0
:10562800007001E0038007001C003FFC3FFC000005
:105638000000000000000000000000000000000062
:10564800000007801FF0003800380038003007E0FD
:1056580007F00038001C001C001820F83FE000008C
:105668000000000000000000000000000000000032
:105678000000000000F001B0033007300E301C308D
:10568800383070307FFE7FFE003000300030000080
:105698000000000000000000000000000000000002
:1056A800000000001FF818001800180018001FE07C
:1056B80000F8001C001C001C003800F01FC000008F
:1056C80000000000000000000000000000000000D2
:1056D8000000000003F80F001C001800300037F825
:1056E8003C3C300C300C380C381C1E380FF00000D5
:1056F80000000000000000000000000000000000A2
:10570800000000003FFC001C00180038007000601A
:1057180000E001C001800380070006000E000000C1
:105728000000000000000000000000000000000071
:10573800000003C01FF8381C381C381C1C380FF038
:1057480007F01C78381C300C381C3C380FF000006F
:105758000000000000000000000000000000000041
:10576800000003801FF03838301C701C700C380C97
:105778001FFC0FCC001C001800701FE01F800000E9
:105788000000000000000000000000000000000011
:105798000000000000000000000003C003C00180FA
:1057A800000000000000000003C003C003C00000A8
:1057B80000000000000000000000000000000000E1
:1057C8000000000000000000000003C003C00180CA
:1057D800000000000000000003C003C001C001C0B9
:1057E80003800F000000000000000000000000001F
:1057F8000000000000000000003800F001C00700B1
:105808001E0038000E00078001C000700030000044
:105818000000000000000000000000000000000080
:1058280000000000000000000000000000003FFC35
:10583800000000003FFC3FFC0000000000000000EA
:105848000000000000000000000000000000000050
:1058580000000000000000001C000F00038001E0B1
:105868000078001C007001E003800E000C000000AE
:105878000000000000000000000000000000000020
:1058880000000FC000F0003800380038003803F07E
:105898000380030003000000000007800780000069
:1058A80000000000000000000000000000000000F0
:1058B80000E007F80C0C18063006700363F3663333
:1058C800C673CC63CC62CC66CCE6C7FCE000600053
:1058D800700038101FF000000000000000000000F9
:1058E8000000000003C007E006E00E700E700C30E8
:1058F8001C3818183FFC3FFC700E600EE0070000D3
:10590800000000000000000000000000000000008F
:10591800000000003FF03838381C381C38383FF099
:105928003FF8381C380C380C381C3FF83FE00000B2
:10593800000000000000000000000000000000005F
:10594800000000E007FC1E0438003800300070003A
:1059580070007000300038003C001F9C07FC0000FD
:10596800000000000000000000000000000000002F
:10597800000000003FF03078301C300C300E300E44
:10598800300E300E300E301C30383FF03FC0000073
:1059980000000000000000000000000000000000FF
:1059A800000000001FF818001800180018001FF861
:1059B8001FF818001800180018001FF81FF800003A
:1059C80000000000000000000000000000000000CF
:1059D800000000001FF818001800180018001FF831
:1059E8001FF8180018001800180018001800000008
:1059F800000000000000000000000000000000009F
:105A0800000000F007FC1E04380030007000700031
:105A180070FC700C700C300C380C1F1C07FC00005C
:105A2800000000000000000000000000000000006E
:105A380000000000300C300C300C300C300C3FFCF7
:105A48003FFC300C300C300C300C300C300C0000AB
:105A5800000000000000000000000000000000003E
:105A6800000000003FFC018001800180018001806E
:105A7800018001800180018001803FFC3FFC000023
:105A8800000000000000000000000000000000000E
:105A9800000000001FF000300030003000300030FF
:105AA800003000300030003000701DE01FC00000E2
:105AB80000000000000000000000000000000000DE
:105AC80000000000381C387038E039C03B803F00C7
