:020000040801F1
:1000000000000220B1710108D5160108D7160108B9
:10001000D9160108DB160108DD16010800000000F2
:10002000000000000000000000000000714701080F
:10003000DF1601080000000011480108754801089A
:1000400001720108017201080172010801720108C0
:1000500001720108017201080172010801720108B0
:1000600001720108017201080172010801720108A0
:100070000172010801720108017201080172010890
:100080000172010801720108017201080172010880
:100090000172010801720108017201080172010870
:1000A0000172010801720108017201080172010860
:1000B000F1160108E1160108017201080172010838
:1000C000017201080172010801720108011701089B
:1000D00001720108111701082117010831170108E1
:1000E0000172010801720108017201080172010820
:1000F0000172010801720108017201080172010810
:1001000001720108017201080172010801720108FF
:1001100001720108017201080172010801720108EF
:1001200001720108017201080172010801720108DF
:1001300001720108017201080172010801720108CF
:1001400001720108017201080172010801720108BF
:1001500001720108017201080172010801720108AF
:10016000017201080172010801720108017201089F
:10017000017201080172010801720108000000000B
:0801800001720108017201087F
:1001C00010B5054C237833B9044B13B10448AFF391
:1001D00000800123237010BD901200200000000059
:1001E000C4D3010808B5034B1BB103490348AFF35F
:1001F000008008BD0000000094120020C4D3010854
:10020000844641EA000313F003036DD1403A41D321
:1002100051F8043B40F8043B51F8043B40F8043BE0
:1002200051F8043B40F8043B51F8043B40F8043BD0
:1002300051F8043B40F8043B51F8043B40F8043BC0
:1002400051F8043B40F8043B51F8043B40F8043BB0
:1002500051F8043B40F8043B51F8043B40F8043BA0
:1002600051F8043B40F8043B51F8043B40F8043B90
:1002700051F8043B40F8043B51F8043B40F8043B80
:1002800051F8043B40F8043B51F8043B40F8043B70
:10029000403ABDD2303211D351F8043B40F8043B10
:1002A00051F8043B40F8043B51F8043B40F8043B50
:1002B00051F8043B40F8043B103AEDD20C3205D320
:1002C00051F8043B40F8043B043AF9D2043208D018
:1002D000D2071CBF11F8013B00F8013B01D30B888A
:1002E00003806046704700BF082A13D38B078DD068
:1002F00010F003038AD0C3F10403D21ADB071CBF3A
:1003000011F8013B00F8013B80D331F8023B20F8A3
:10031000023B7BE7043AD9D3013A11F8013B00F8DC
:10032000013BF9D20B7803704B7843708B78837064
:100330006046704700000000000000000000000060
:1003400090F800F06DE9024520F007016FF0000C15
:1003500010F0070491F820F040F049804FF00004BD
:100360006FF00700D1E9002391F840F000F1080098
:1003700082FA4CF2A4FA8CF283FA4CF3A2FA8CF3D0
:100380004BBBD1E9022382FA4CF200F10800A4FA37
:100390008CF283FA4CF3A2FA8CF3E3B9D1E904238B
:1003A00082FA4CF200F10800A4FA8CF283FA4CF3C2
:1003B000A2FA8CF37BB9D1E9062301F1200182FA7C
:1003C0004CF200F10800A4FA8CF283FA4CF3A2FA82
:1003D0008CF3002BC6D0002A04BF04301A4612BA90
:1003E000B2FA82F2FDE8024500EBD2007047D1E993
:1003F000002304F00305C4F100004FEAC50514F022
:10040000040F91F840F00CFA05F562EA05021CBFF2
:1004100063EA050362464FF00004A9E7000000000C
:1004200001F0FF01102A2BDB10F0070F08D010F8A5
:10043000013B013A8B422DD010F0070F42B3F6D1A9
:10044000F0B441EA012141EA014122F007047FF0C2
:1004500000070023F0E80256083C85EA010586EA19
:10046000010685FA47F5A3FA87F586FA47F6A5FA55
:1004700087F68EB9EED1F0BC01F0FF0102F0070261
:1004800032B110F8013B013A83EA010313B1F8D10C
:100490000020704701387047002D06BF35460338ED
:1004A000073815F0010F07D1013015F4807F02BF26
:1004B000013015F4C03F0130F0BC0138704700BF77
:1004C00081F0004102E000BF83F0004330B54FEA05
:1004D00041044FEA430594EA050F08BF90EA020F72
:1004E0001FBF54EA000C55EA020C7FEA645C7FEA05
:1004F000655C00F0E2804FEA5454D4EB5555B8BF28
:100500006D420CDD2C4480EA020281EA030382EA98
:10051000000083EA010180EA020281EA0303362D2A
:1005200088BF30BD11F0004F4FEA01314FF4801CFD
:100530004CEA113102D0404261EB410113F0004F0F
:100540004FEA03334CEA133302D0524263EB4303C6
:1005500094EA050F00F0A780A4F10104D5F1200E64
:100560000DDB02FA0EFC22FA05F2801841F10001BF
:1005700003FA0EF2801843FA05F359410EE0A5F193
:1005800020050EF1200E012A03FA0EFC28BF4CF0C4
:10059000020C43FA05F3C01851EBE37101F000457A
:1005A00007D54FF0000EDCF1000C7EEB00006EEB87
:1005B0000101B1F5801F1BD3B1F5001F0CD3490811
:1005C0005FEA30004FEA3C0C04F101044FEA445268
:1005D00012F5800F80F09A80BCF1004F08BF5FEAEF
:1005E000500C50F1000041EB045141EA050130BDCF
:1005F0005FEA4C0C404141EB0101013C28BFB1F5E1
:10060000801FE9D291F0000F04BF01460020B1FA2B
:1006100081F308BF2033A3F10B03B3F120020CDAFE
:100620000C3208DD02F1140CC2F10C0201FA0CF0DC
:1006300021FA02F10CE002F11402D8BFC2F1200C41
:1006400001FA02F120FA0CFCDCBF41EA0C019040F7
:10065000E41AA2BF01EB0451294330BD6FEA040440
:100660001F3C1CDA0C340EDC04F11404C4F120022B
:1006700020FA04F001FA02F340EA030021FA04F33D
:1006800045EA030130BDC4F10C04C4F1200220FA94
:1006900002F001FA04F340EA0300294630BD21FAD2
:1006A00004F0294630BD94F0000F83F4801306BF98
:1006B00081F480110134013D4EE77FEA645C18BF8C
:1006C0007FEA655C29D094EA050F08BF90EA020F23
:1006D00005D054EA000C04BF1946104630BD91EA1B
:1006E000030F1EBF0021002030BD5FEA545C05D11E
:1006F0004000494128BF41F0004130BD14F580045D
:100700003CBF01F5801130BD01F0004545F0FE41D0
:1007100041F470014FF0000030BD7FEA645C1ABF05
:10072000194610467FEA655C1CBF0B46024650EA3C
:10073000013406BF52EA033591EA030F41F4002168
:1007400030BD00BF90F0000F04BF0021704730B5EE
:100750004FF4806404F132044FF000054FF00001C3
:1007600050E700BF90F0000F04BF0021704730B584
:100770004FF4806404F1320410F0004548BF404259
:100780004FF000013EE700BF42004FEAE2014FEAAE
:1007900031014FEA02701FBF12F07F4393F07F4F89
:1007A00081F06051704732F07F4208BF704793F08C
:1007B0007F4F04BF41F40021704730B54FF460749F
:1007C00001F0004521F000411CE700BF50EA0102A2
:1007D00008BF704730B54FF000050AE050EA01024B
:1007E00008BF704730B511F0004502D5404261EBBB
:1007F00041014FF4806404F132045FEA915C3FF4FC
:10080000D8AE4FF003025FEADC0C18BF03325FEA98
:10081000DC0C18BF033202EBDC02C2F1200300FA49
:1008200003FC20FA02F001FA03FE40EA0E0021FA6E
:1008300002F11444BDE600BF70B54FF0FF0C4CF45C
:10084000E06C1CEA11541DBF1CEA135594EA0C0F0E
:1008500095EA0C0F00F0DEF82C4481EA030621EA49
:100860004C5123EA4C5350EA013518BF52EA033584
:1008700041F4801143F4801338D0A0FB02CE4FF036
:100880000005E1FB02E506F00042E0FB03E54FF066
:100890000006E1FB03569CF0000F18BF4EF0010E5E
:1008A000A4F1FF04B6F5007F64F5407404D25FEA5A
:1008B0004E0E6D4146EB060642EAC62141EA55510D
:1008C0004FEAC52040EA5E504FEACE2EB4F1FD0C4F
:1008D00088BFBCF5E06F1ED8BEF1004F08BF5FEACD
:1008E000500E50F1000041EB045170BD06F000467F
:1008F00046EA010140EA020081EA0301B4EB5C042C
:10090000C2BFD4EB0C0541EA045170BD41F4801123
:100910004FF0000E013C00F3AB8014F1360FDEBF48
:10092000002001F0004170BDC4F10004203C35DA24
:100930000C341BDC04F11404C4F1200500FA05F3A7
:1009400020FA04F001FA05F240EA020001F0004248
:1009500021F0004110EBD37021FA04F642EB0601BE
:100960005EEA430E08BF20EAD37070BDC4F10C04E8
:10097000C4F1200500FA04F320FA05F001FA04F2AC
:1009800040EA020001F0004110EBD37041F1000198
:100990005EEA430E08BF20EAD37070BDC4F12005A3
:1009A00000FA05F24EEA020E20FA04F301FA05F20B
:1009B00043EA020321FA04F001F0004121FA04F2B3
:1009C00020EA020000EBD3705EEA430E08BF20EA83
:1009D000D37070BD94F0000F0FD101F000464000BD
:1009E00041EB010111F4801F08BF013CF7D041EA3F
:1009F000060195F0000F18BF704703F00046520043
:100A000043EB030313F4801F08BF013DF7D043EA13
:100A10000603704794EA0C0F0CEA135518BF95EAC9
:100A20000C0F0CD050EA410618BF52EA4306D1D150
:100A300081EA030101F000414FF0000070BD50EA6F
:100A4000410606BF1046194652EA430619D094EAF9
:100A50000C0F02D150EA013613D195EA0C0F05D1E3
:100A600052EA03361CBF104619460AD181EA030137
:100A700001F0004141F0FE4141F470014FF00000EF
:100A800070BD41F0FE4141F4780170BD70B54FF08A
:100A9000FF0C4CF4E06C1CEA11541DBF1CEA13550A
:100AA00094EA0C0F95EA0C0F00F0A7F8A4EB0504EC
:100AB00081EA030E52EA03354FEA013100F08880E3
:100AC0004FEA03334FF0805545EA131343EA1263AC
:100AD0004FEA022245EA111545EA10654FEA002661
:100AE0000EF000419D4208BF964244F1FD0404F51A
:100AF000407402D25B084FEA3202B61A65EB030576
:100B00005B084FEA32024FF480104FF4002CB6EB32
:100B1000020E75EB030E22BFB61A754640EA0C00B2
:100B20005B084FEA3202B6EB020E75EB030E22BFF2
:100B3000B61A754640EA5C005B084FEA3202B6EB33
:100B4000020E75EB030E22BFB61A754640EA9C00F2
:100B50005B084FEA3202B6EB020E75EB030E22BFC2
:100B6000B61A754640EADC0055EA060E18D04FEA80
:100B7000051545EA16754FEA06164FEAC30343EA20
:100B800052734FEAC2025FEA1C1CC0D111F4801FED
:100B90000BD141EA00014FF000004FF0004CB6E7E6
:100BA00011F4801F04BF01430020B4F1FD0C88BF85
:100BB000BCF5E06F3FF6AFAEB5EB030C04BFB6EB90
:100BC000020C5FEA500C50F1000041EB045170BD83
:100BD0000EF0004E4EEA113114EB5C04C2BFD4EBB0
:100BE0000C0541EA045170BD41F480114FF0000E34
:100BF000013C90E645EA060E8DE60CEA135594EAB0
:100C00000C0F08BF95EA0C0F3FF43BAF94EA0C0FB2
:100C10000AD150EA01347FF434AF95EA0C0F7FF427
:100C200025AF104619462CE795EA0C0F06D152EA7B
:100C300003353FF4FDAE1046194622E750EA41065F
:100C400018BF52EA43067FF4C5AE50EA41047FF470
:100C50000DAF52EA43057FF4EBAE12E74FF0FF3CD5
:100C600006E000BF4FF0010C02E000BF4FF0010CA6
:100C70004DF804CD4FEA410C7FEA6C5C4FEA430C1F
:100C800018BF7FEA6C5C1BD001B050EA410C0CBF6E
:100C900052EA430C91EA030F02BF90EA020F0020D0
:100CA000704710F1000F91EA030F58BF994208BF37
:100CB00090422CBFD8176FEAE37040F001007047F4
:100CC0004FEA410C7FEA6C5C02D150EA013C07D14B
:100CD0004FEA430C7FEA6C5CD6D152EA033CD3D096
:100CE0005DF8040B704700BF8446104662468C4690
:100CF0001946634600E000BF01B5FFF7B7FF0028C3
:100D000048BF10F1000F01BD4DF808EDFFF7F4FFEB
:100D10000CBF012000205DF808FB00BF4DF808ED76
:100D2000FFF7EAFF34BF012000205DF808FB00BF99
:100D30004DF808EDFFF7E0FF94BF012000205DF8BB
:100D400008FB00BF4DF808EDFFF7CEFF94BF012070
:100D500000205DF808FB00BF4DF808EDFFF7C4FF69
:100D600034BF012000205DF808FB00BF4FEA410CB2
:100D70007FEA6C5C02D150EA013C0AD14FEA430C95
:100D80007FEA6C5C02D152EA033C02D14FF00000D2
:100D900070474FF0010070474FEA410212F5001210
:100DA00015D211D56FF47873B3EB625212D94FEAB2
:100DB000C12343F0004343EA505311F0004F23FA9C
:100DC00002F018BF404270474FF00000704750EAF1
:100DD000013005D111F0004008BF6FF000407047AE
:100DE0004FF00000704700BF4FEA4102B2F1E0430C
:100DF00024BFB3F5001CDCF1FE5C0DD901F0004C02
:100E00004FEAC0024CEA5070B2F1004F40EB830051
:100E100008BF20F00100704711F0804F21D113F17D
:100E20003872BCBF01F00040704741F480114FEAB6
:100E30005252C2F11802C2F1200C10FA0CF320FA3F
:100E400002F018BF40F001004FEAC1234FEAD3235C
:100E500003FA0CFC40EA0C0023FA02F34FEA4303C6
:100E6000CCE77FEA625307D150EA01331EBF4FF04F
:100E7000FE4040F44000704701F0004040F0FE406A
:100E800040F40000704700BF53B94AB9002908BFB9
:100E900000281CBF4FF0FF314FF0FF3000F074B955
:100EA000ADF1080C6DE904CE00F006F8DDF804E0C1
:100EB000DDE9022304B070472DE9F047089D0446A0
:100EC0008E46002B4DD18A42944669D9B2FA82F2FD
:100ED00052B101FA02F3C2F1200120FA01F10CFA39
:100EE00002FC41EA030E94404FEA1C48210CBEFB71
:100EF000F8F61FFA8CF708FB16E341EA034306FBFA
:100F000007F199420AD91CEB030306F1FF3080F088
:100F10001F81994240F21C81023E63445B1AA4B2D5
:100F2000B3FBF8F008FB103344EA034400FB07F777
:100F3000A7420AD91CEB040400F1FF3380F00A81B8
:100F4000A74240F207816444023840EA0640E41BAD
:100F500000261DB1D4400023C5E900433146BDE859
:100F6000F0878B4209D9002D00F0EF800026C5E9FB
:100F7000000130463146BDE8F087B3FA83F6002E13
:100F80004AD18B4202D3824200F2F980841A61EB8B
:100F9000030301209E46002DE0D0C5E9004EDDE7A9
:100FA00002B9FFDEB2FA82F2002A40F09280A1EB91
:100FB0000C014FEA1C471FFA8CFE0126200CB1FBE6
:100FC000F7F307FB131140EA01410EFB03F08842DF
:100FD00008D91CEB010103F1FF3802D2884200F26C
:100FE000CB804346091AA4B2B1FBF7F007FB1011FE
:100FF00044EA01440EFB00FEA64508D91CEB04049C
:1010000000F1FF3102D2A64500F2BB800846A4EBF6
:101010000E0440EA03409CE7C6F12007B34022FAE1
:1010200007FC4CEA030C20FA07F401FA06F31C4310
:10103000F9404FEA1C4900FA06F3B1FBF9F8200C1D
:101040001FFA8CFE09FB181140EA014108FB0EF063
:10105000884202FA06F20BD91CEB010108F1FF3AB3
:1010600080F08880884240F28580A8F102086144BF
:10107000091AA4B2B1FBF9F009FB101144EA0141CD
:1010800000FB0EFE8E4508D91CEB010100F1FF3478
:101090006CD28E456AD90238614440EA0840A0FB10
:1010A0000294A1EB0E01A142C846A64656D353D0E6
:1010B0005DB1B3EB080261EB0E0101FA07F722FA0A
:1010C00006F3F1401F43C5E9007100263146BDE833
:1010D000F087C2F12003D8400CFA02FC21FA03F396
:1010E000914001434FEA1C471FFA8CFEB3FBF7F017
:1010F00007FB10360B0C43EA064300FB0EF69E423C
:1011000004FA02F408D91CEB030300F1FF382FD2D4
:101110009E422DD9023863449B1B89B2B3FBF7F67C
:1011200007FB163341EA034106FB0EF38B4208D955
:101130001CEB010106F1FF3816D28B4214D9023E96
:101140006144C91A46EA004638E72E46284605E7B4
:101150000646E3E61846F8E64B45A9D2B9EB020885
:1011600064EB0C0E0138A3E74646EAE7204694E715
:101170004046D1E7D0467BE7023B614432E7304648
:1011800009E76444023842E7704700BF2DE9F04F99
:101190008BB0002405940694079408940994009455
:1011A000694B1A6B42F010021A631A6B02F01002BC
:1011B0000092009A01941A6B42F004021A631A6BAF
:1011C00002F004020192019A02941A6B42F00102A9
:1011D0001A631A6B02F001020292029A03941A6BCC
:1011E00042F002021A631A6B02F002020392039A9F
:1011F00004941A6B42F008021A631B6B03F0080395
:101200000493049BDFF85081224640F63C0140469F
:1012100001F0DBFC01224FF2C071404601F0D5FC29
:10122000DFF8389122464FF4C041484601F0CDFC2A
:10123000464F01221021384601F0C7FC444E0122DE
:101240004FF4C041304601F0C0FC22464FF48051BB
:10125000384601F0BAFC22464FF47C71304601F06A
:10126000B4FC3C230593012506950794089405A931
:10127000404601F0B1FB4FF6C07ACDF814A00695B8
:101280000794089505A9404601F0A6FB4FF4C0431A
:10129000059306950794089405A9484601F09CFB20
:1012A000D0230593069507944FF00208CDF82080CF
:1012B00005A9384601F090FB4FF4805BCDF814B0DF
:1012C0000694079405A9304601F086FB4FF40053BD
:1012D0000593112306930794CDF8208005A9304685
:1012E00001F07AFB4FF48043059306950794CDF8FF
:1012F000208005A9304601F06FFBCDF814A00694BC
:10130000079505A9134801F067FB4FF47073059327
:101310000694079505A9484601F05EFBCDF814B088
:1013200006950794089405A9384601F055FB4FF43B
:101330007C73059306950794089405A9304601F03F
:101340004BFB0BB0BDE8F08F0038024000000240BC
:1013500000040240000C024000100240000802405D
:1013600010B5044602680A4B9A4208D02268094B1D
:101370009A4207D02268084B9A4206D010BD03F06B
:101380006BFDF3E704F09AF9F4E704F03BFDF5E7B1
:1013900000100140004400400048004010B50446E1
:1013A0000268074B9A4204D02368B3F1804F03D000
:1013B00010BD04F04BFEF7E701F0E6FCF8E700BFD4
:1013C0000004004072B6FEE708B50A480A4B036005
:1013D0004FF46123436000238360C36003610C22E8
:1013E00042618361C36102F055F900B908BDFFF79E
:1013F000E9FF00BFA01300200010014000B585B038
:10140000002300930193029303931448144A02604B
:101410004FF48032426083600361037680F82030AD
:10142000C362104A8262C3600122C26180F8303018
:10143000426100F09DFB60B90023009301220192FC
:1014400002936946054800F0E1FC20B905B05DF85B
:1014500004FBFFF7B7FFFFF7B5FF00BFB81200208E
:10146000002001400100000F00B587B00023029367
:10147000039304930593009301931348134A026066
:101480004360836040F66432C2600361836101F0AF
:10149000D7FE90B94FF48053029302A90A4801F095
:1014A00008FF60B90023009301936946064801F0E4
:1014B0007FFF30B907B05DF804FBFFF783FFFFF74C
:1014C00081FFFFF77FFF00BF58130020000400409A
:1014D00008B50A480A4B03604FF4E1334360002328
:1014E0008360C36003610C2242618361C36102F0C7
:1014F000D1F800B908BDFFF765FF00BFE413002075
:101500000044004008B50A480A4B03604FF4E13339
:10151000436000238360C36003610C2242618361E6
:10152000C36102F0B7F800B908BDFFF74BFF00BF79
:10153000281400200048004000B595B0302200215A
:1015400008A805F083FE00230393049305930693F4
:10155000079301931F4A116C41F080511164126C82
:1015600002F080520192019A02931B4A116841F4E1
:1015700080411160126802F480420292029A0222B3
:10158000089201210B9110210C910E920F930823C8
:101590001093A823119312920423139308A800F028
:1015A00001FD98B90F2303930223049300230593AD
:1015B0004FF4A05306934FF480530793052103A8DB
:1015C00000F03EFF20B915B05DF804FBFFF7FAFE0E
:1015D000FFF7F8FE003802400070004000B59DB0F3
:1015E00001F0B8FBFFF7A8FFFFF7D0FDFFF7ECFE17
:1015F000FFF704FFFFF738FFFFF76AFFFFF782FFEF
:10160000284803686FF001021A6101F0AFFC264C14
:101610000DF1540CA646BEE80F00ACE80F009EE8A2
:1016200007008CE80700002115A802F0EEFE1F4B12
:1016300018600DF1380C04F11C0EBEE80F00ACE888
:101640000F009EE807008CE8070000210EA802F0BA
:10165000DCFE174B18600DF11C0C04F1380EBEE8CF
:101660000F00ACE80F009EE807008CE8070000219F
:1016700007A802F0CAFE0F4B1860EE4604F1540CA6
:10168000BCE80F00AEE80F009CE807008EE80700FA
:101690000021684602F0B9FE074B186002F0B0FE68
:1016A000FEE700BF58130020E0D30108B01200206D
:1016B000AC120020B41200206C140020034B036015
:1016C000034B0B6080231360704700BF701600202F
:1016D00070140020FEE7FEE7FEE7FEE7FEE7704736
:1016E00008B5024801F08AFC08BD00BF581300206D
:1016F00008B5024801F082FC08BD00BFC4160020F6
:1017000008B5024801F068FB08BD00BF00130020C7
:1017100008B5024802F0E2F808BD00BFA01300209F
:1017200008B5024802F0DAF808BD00BFE413002053
:1017300008B5024802F0D2F808BD00BF2814002006
:1017400000B583B0002200920D4B596C41F48041EA
:101750005964596C01F48041009100990192196C0F
:1017600041F0805119641B6C03F080530193019B7D
:101770000F216FF0010001F0A7FA03B05DF804FB40
:101780000038024070B588B000230393049305939A
:1017900006930793026803F1804303F590339A425E
:1017A00001D008B070BD0024009403F58C335A6C4E
:1017B00042F480725A645A6C02F480720092009A69
:1017C00001941A6B42F001021A631A6B02F00102D3
:1017D0000192019A02941A6B42F002021A631B6B87
:1017E00003F002030293029B01260396032504954E
:1017F00003A9054801F0F0F803960495059403A9A0
:10180000024801F0E9F8CCE7000002400004024081
:1018100002680E4B9A4200D0704700B583B0002298
:10182000019203F50D33196C41F0020119641B6C30
:1018300003F002030193019B03211D2001F044FAF0
:101840001D2001F079FA03B05DF804FB00040040AC
:1018500010B58CB000230793089309930A930B9358
:101860000368474A934207D0464A934230D0464ADB
:10187000934258D00CB010BD00240194434B5A6CD5
:1018800042F010025A645A6C02F010020192019A5E
:1018900002941A6B42F001021A631B6B03F00103FE
:1018A0000293029B4FF4C063079302230893032320
:1018B0000A9307230B9307A9354801F08DF82246B8
:1018C0000521252001F000FA252001F035FAD1E7A5
:1018D000002403942D4B1A6C42F400321A641A6CE3
:1018E00002F400320392039A04941A6B42F001024C
:1018F0001A631B6B03F001030493049B0C230793EF
:101900000223089303230A9307230B9307A9204874
:1019100001F062F822460521262001F0D5F92620A3
:1019200001F00AFAA6E700240594184B1A6C42F459
:1019300080221A641A6C02F480220592059A069499
:101940001A6B42F002021A631B6B03F00203069348
:10195000069B4FF4406307930223089303230A93E3
:1019600007230B9307A90B4801F036F822460521FF
:10197000272001F0A9F9272001F0DEF97AE700BF5E
:101980000010014000440040004800400038024080
:10199000000002400004024030B589B00446002334
:1019A0000193224B1A6C42F001021A641B6C03F083
:1019B00001030193019B02A903A800F017FE069BF7
:1019C000D3B900F0F3FD03461948A0FB03239B0C99
:1019D000013B18484FF08042026040F2E732C2609B
:1019E0004360002303618360836101F029FC0546A5
:1019F00030B1284609B030BD00F0D8FD4300E3E720
:101A00000C4801F0B3FA05460028F2D11C2001F081
:101A100093F90F2C01D90125EBE7002221461C2068
:101A200001F052F9044B1C60E3E700BF00380240AC
:101A300083DE1B43C4160020040000204A4B5A6872
:101A400022F440325A605A6841680A435A60026878
:101A5000536823F48073536002685368016943EA52
:101A6000012353600268536823F040735360026897
:101A7000536881680B4353600268936823F40063E2
:101A8000936002689368C1680B439360826A374B26
:101A90009A4257D00268936823F07063936002689B
:101AA0009368816A0B4393600268936823F0405304
:101AB000936002689368C16A0B43936002689368FD
:101AC00023F00203936002689368017E43EA4103B6
:101AD000936090F82030002B3FD00268536843F4A5
:101AE000006353600268536823F4604353600168E5
:101AF0004B68426A013A43EA42334B600268D36A58
:101B000023F47003D3620168CB6AC269013A43EAE5
:101B10000253CB620268936823F4007393600268F7
:101B2000936890F8301043EA412393600268936809
:101B300023F48063936002689368416943EA8123D8
:101B4000936070470268936823F070639360026843
:101B5000936823F040539360B0E70268536823F41E
:101B600000635360CAE700BF002301400100000F7B
:101B700038B310B50446036C43B1236C13F0100F57
:101B80000BD00120002384F83C3010BDFFF7FAFD94
:101B90000023636484F83C30EFE7236C23F488531C
:101BA00023F0020343F0020323642046FFF746FFBD
:101BB00000206064236C23F0030343F001032364DB
:101BC000E0E701207047000082B00023019390F805
:101BD0003C30012B00F08980012380F83C30036801
:101BE0009A6812F0010F13D19A6842F001029A60CC
:101BF000414B1B68414AA2FB03239B0C03EB4303AD
:101C0000019302E0019B013B0193019B002BF9D161
:101C10000268936813F0010F5CD0036C23F4E06357
:101C200023F0010343F480730364536813F4806F5B
:101C300005D0036C23F4405343F480530364036CD6
:101C400013F4805F1BD0436C23F00603436400232E
:101C500080F83C306FF022031360294B5B6813F06F
:101C60001F0F27D10368274A934211D002F58072D3
:101C7000934207D0244A934214D0002033E000233B
:101C80004364E4E702F50072526812F01F0FF1D1CD
:101C90009A6812F0405F2AD19A6842F080429A60B6
:101CA000002020E002F58072526812F0100FEFD091
:101CB000002018E00368134A934201D0002012E08C
:101CC0009A6812F0405F14D19A6842F080429A609C
:101CD000002008E0036C43F010030364436C43F0FE
:101CE00001034364002002B070470220FBE700209C
:101CF000F9E70020F7E700BF0800002083DE1B4360
:101D000000230140002001400022014090F83C30B7
:101D1000012B19D0012380F83C300268936823F02E
:101D20000103936003689B6813F0010F07D1036CF4
:101D300023F4885323F0010343F0010303640023D9
:101D400080F83C30184670470220704770B5044652
:101D50000D4603689A6812F4806F03D09B6813F4F1
:101D6000807F19D101F01CF8064623681A6812F02A
:101D7000020F20D1B5F1FF3FF7D0B5B923681B683A
:101D800013F0020FF1D1236C43F00403236400230A
:101D900084F83C30032032E0036C43F020030364FA
:101DA000002380F83C30012029E000F0F9FF801B7F
:101DB000A842DAD9E2E76FF012021A60236C43F40A
:101DC0000073236423689A6812F0405F16D1207E66
:101DD000B0B9DA6A12F4700F03D09B6813F4806F05
:101DE0000DD1236C23F480732364236C13F4805F80
:101DF00005D1236C43F00103236400E0002070BD93
:101E00000020FCE70368D86C7047000030B482B053
:101E10000023019390F83C30012B00F0BB8001239C
:101E200080F83C300B68092B41D90468E2689BB20A
:101E300003EB43031E3B4FF0070C0CFA03F322EABB
:101E40000303E3600468E2680B8803EB43031E3B73
:101E50008D6805FA03F31343E3604B68062B3DD806
:101E60000468626B03EB8303053B4FF01F0C0CFA15
:101E700003F322EA030363630468626B4B6803EBBA
:101E80008303053BB1F800C00CFA03F3134363630B
:101E90000268414B9A4251D002683F4B9A4256D059
:101EA000002380F83C30184602B030BC704704680C
:101EB00022699BB203EB43034FF0070C0CFA03F3C8
:101EC00022EA03032361046822690B8803EB4303BE
:101ED0008D6805FA03F313432361BEE70C2B16D874
:101EE00005682A6B03EB8303233B1F2404FA03F3E7
:101EF00022EA03032B6305682A6B4B6803EB830319
:101F0000233B0C8804FA03F313432B63C0E70568F3
:101F1000EA6A03EB8303413B1F2404FA03F322EA3A
:101F20000303EB620568EA6A4B6803EB8303413BFA
:101F30000C8804FA03F31343EB62A9E70B68122B36
:101F4000AAD1164A536843F480035360A4E70B6890
:101F5000103B012BA4D8114A536843F4000353608B
:101F60000B68102B9CD10E4B1B6802F1467202F5D8
:101F70002E3202F28332A2FB03239B0C03EB83037A
:101F80005B00019302E0019B013B0193019B002B4D
:101F9000F9D185E7022087E70020014000230140B6
:101FA00008000020002800F0E08170B582B00446EF
:101FB000036813F0010F3BD09F4B9B6803F00C03A9
:101FC000042B2CD09C4B9B6803F00C03082B21D0D6
:101FD0006368B3F5803F4FD0B3F5A02F52D0964B36
:101FE0001A6822F480321A601A6822F480221A6079
:101FF0006368002B50D000F0D3FE05468E4B1B6863
:1020000013F4003F14D100F0CBFE401B6428F5D937
:102010000320B1E1884B5B6813F4800FD8D0864B66
:102020001B6813F4003F03D06368002B00F09F810E
:10203000236813F0020F54D07F4B9B6813F00C0FF2
:102040003ED07D4B9B6803F00C03082B33D0E36834
:10205000002B68D0794B01221A6000F0A1FE0546E2
:10206000754B1B6813F0020F54D100F099FE401B12
:102070000228F5D903207FE16F4A136843F48033C7
:102080001360B5E76C4B1A6842F480221A601A6834
:1020900042F480321A60ABE700F082FE0546664BE0
:1020A0001B6813F4003FC3D000F07AFE401B642885
:1020B000F5D9032060E1604B5B6813F4800FC6D153
:1020C0005D4B1B6813F0020F03D0E368012B40F057
:1020D0005081594A136823F0F803216943EAC10388
:1020E0001360236813F0080F42D063696BB3534B3E
:1020F0000122C3F8802E00F053FE05464E4B5B6F65
:1021000013F0020F34D100F04BFE401B0228F5D92A
:10211000032031E1484A136823F0F803216943EAB8
:10212000C1031360DDE7454B00221A6000F038FE62
:102130000546414B1B6813F0020FD2D000F030FE71
:10214000401B0228F5D9032016E13C4B0022C3F8BE
:10215000802E00F025FE0546374B5B6F13F0020F13
:1021600006D000F01DFE401B0228F5D9032003E134
:10217000236813F0040F77D02F4B1B6C13F0805F94
:1021800033D1002301932C4B1A6C42F080521A6415
:102190001B6C03F080530193019B0125284B1B68A6
:1021A00013F4807F23D0A368012B34D0052B38D0C3
:1021B000214B1A6F22F001021A671A6F22F00402F3
:1021C0001A67A368002B3DD000F0EAFD06461A4BC3
:1021D0001B6F13F0020F46D100F0E2FD801B41F2AD
:1021E00088339842F3D90320C6E00025D6E7144A85
:1021F000136843F48073136000F0D2FD0646104B61
:102200001B6813F4807FCED100F0CAFD801B02282A
:10221000F5D90320B0E0084A136F43F001031367B8
:10222000CFE7054B1A6F42F004021A671A6F42F0AB
:1022300001021A67C5E700BF0038024000004742AC
:102240000070004000F0ACFD0646524B1B6F13F0CF
:10225000020F08D000F0A4FD801B41F288339842A1
:10226000F3D9032088E0EDB9A369002B00F0838047
:10227000484A926802F00C02082A51D0022B17D06B
:10228000454B00221A6600F08BFD0446414B1B684B
:1022900013F0007F42D000F083FD001B0228F5D927
:1022A000032069E03B4A136C23F080531364DBE79F
:1022B000394B00221A6600F073FD0546354B1B684A
:1022C00013F0007F06D000F06BFD401B0228F5D90B
:1022D000032051E0E369226A1343626A43EA8213EE
:1022E000A26A5208013A43EA0243E26A43EA0263FD
:1022F000284A5360284B01221A6600F051FD04461B
:10230000244B1B6813F0007F06D100F049FD001B31
:102310000228F5D903202FE000202DE000202BE03B
:10232000012B2BD01B4B5B6803F48001E2699142C7
:1023300026D103F03F02216A8A4223D1616A47F61F
:10234000C0721A40B2EB811F1ED103F44031A26A61
:102350005208013AB1EB024F18D103F07063E26A00
:10236000B3EB026F14D1002006E00120704701207A
:1023700002E0012000E0002002B070BD0120FBE778
:102380000120F9E70120F7E70120F5E70120F3E755
:102390000120F1E7003802400000474208B5254B14
:1023A0009B6803F00C03042B3FD0082B3FD1214B3B
:1023B0005A6802F03F025B6813F4800F12D01D4B85
:1023C0005968C1F388111C480023A1FB0001FEF7E6
:1023D0005BFD184B5B68C3F3014301335B00B0FB4B
:1023E000F3F025E0134B5968C1F3881C4FEA4C11F8
:1023F000B1EB0C006EEB0E0E4FEA8E1343EA9063C6
:102400008101091A63EB0E03DB0043EA5173C90033
:1024100011EB0C0C43F10003990200234FEA8C20CE
:1024200041EA9C51FEF730FDD3E7034800E0034842
:1024300008BD00BF0038024040787D010024F40050
:10244000002800F09B8070B50D4604464F4B1B687A
:1024500003F007038B4208D2CBB24C4A13701368C7
:1024600003F007038B4240F08B80236813F0020FC8
:1024700017D013F0040F04D0454A936843F4E05397
:102480009360236813F0080F04D0414A936843F423
:10249000604393603E4A936823F0F003A1680B43C6
:1024A0009360236813F0010F32D06368012B21D0B1
:1024B0009A1E012A25D9364A126812F0020F61D0FD
:1024C00033498A6822F0030213438B6000F068FCF2
:1024D00006462F4B9B6803F00C036268B3EB820F38
:1024E00016D000F05DFC801B41F288339842F0D991
:1024F000032042E0264A126812F4003FE0D1012096
:102500003BE0234A126812F0007FD9D1012034E069
:102510001E4B1B6803F00703AB4207D9EAB21B4B03
:102520001A701B6803F00703AB422DD1236813F028
:10253000040F06D0164A936823F4E053E1680B4376
:102540009360236813F0080F07D0114A936823F4AF
:102550006043216943EAC1039360FFF71FFF0C4BFF
:102560009B68C3F303130B4AD35CD8400A4B186033
:102570000A4B1868FFF710FA002070BD0120704761
:102580000120FAE70120F8E70120F6E7003C0240CD
:102590000038024084D40108080000200400002014
:1025A000014B1868704700BF0800002008B5FFF70E
:1025B000F7FF044B9B68C3F38223034AD35CD840E4
:1025C00008BD00BF0038024094D4010808B5FFF7E9
:1025D000E7FF044B9B68C3F34233034AD35CD84004
:1025E00008BD00BF0038024094D401080F230360E7
:1025F0000B4B9A6802F0030242609A6802F0F00204
:1026000082609A6802F4E052C2609B68DB0803F4BF
:10261000E0530361034B1B6803F007030B60704733
:1026200000380240003C024010B40A490C6924F40E
:1026300040740C610C6944F440740C610C6944F002
:1026400001040C610260BFF36F8F43605DF8044BBF
:10265000704700BF003C0240074B1A6922F44072E9
:102660001A611A6942F400721A611A6942F0010291
:102670001A610160704700BF003C0240074B1A69B5
:1026800022F440721A611A6942F480721A611A695E
:1026900042F001021A610180704700BF003C024015
:1026A000064B1A6922F440721A611A691A611A6992
:1026B00042F001021A610170704700BF003C024005
:1026C000204BDB6813F0100F07D01F4AD36943F08B
:1026D0001003D3611B4B1022DA601A4BDB6813F036
:1026E000200F07D0184AD36943F00803D361154B74
:1026F0002022DA60134BDB6813F0400F07D0124A38
:10270000D36943F00403D3610E4B4022DA600D4BD2
:10271000DB6813F0800F07D00B4AD36943F0020344
:10272000D361084B8022DA60064BDB6813F0020F9E
:1027300007D0054AD36943F02003D361014B02223D
:10274000DA607047003C02400C170020094B1B69FF
:10275000002B01DB00207047064B074A5A6002F14C
:1027600088325A601B69002B01DB00207047012072
:10277000704700BF003C024023016745034A1369CC
:1027800043F0004313610020704700BF003C02404B
:1027900038B50446144B0022DA6100F001FB05460F
:1027A000124BDB6813F4803F0AD0B4F1FF3FF7D03F
:1027B00024B100F0F5FA401BA042F1D903200DE04E
:1027C0000A4BDB6813F0010F02D0084B0122DA60DC
:1027D000064BDB6813F0F20F01D1002038BDFFF784
:1027E0006FFF0120FAE700BF0C170020003C0240F9
:1027F000F8B516461B4A127E012A30D004460D4613
:102800001F46184B01221A764CF25030FFF7C0FFDA
:1028100090B9ACB1012C18D0022C1BD032463B46EB
:102820002846FFF701FF4CF25030FFF7B1FF0E4A88
:10283000136923F0010313610A4B00221A76F8BDD5
:10284000F1B22846FFF72CFFEDE7B1B22846FFF7BB
:1028500015FFE8E731462846FFF7FEFEE3E70220D2
:10286000EDE700BF0C170020003C0240074B196940
:1028700021F440711961196941F0040119611A6963
:1028800042EA002242F480321A617047003C024062
:1028900049B1012921D0022902D04FF4407C04E043
:1028A0004FF4007C01E04FF0000C0D4B196921F44E
:1028B000407119611A6942EA0C021A611A6922F020
:1028C000F8021A611A6942EAC00040F00200186179
:1028D0001A6942F480321A6170474FF4807CE4E751
:1028E000003C0240164B1B6813F4007F10D0144BC1
:1028F0001A6822F400721A601A6842F400621A60C0
:102900001A6822F400621A601A6842F400721A60AF
:102910000B4B1B6813F4806F10D0094B1A6822F41C
:1029200080621A601A6842F480521A601A6822F4AF
:1029300080521A601A6842F480621A60704700BFC1
:10294000003C0240F8B5224B1B7E012B3ED00446D2
:102950000E461F4B01221A764CF25030FFF718FF3B
:10296000074670BB4FF0FF3333602368012B16D04E
:10297000A568E368A2681344AB4220D9217C2846AD
:10298000FFF786FF4CF25030FFF702FF114A136940
:1029900023F0FA031361074680B90135E9E761685E
:1029A000207CFFF763FF4CF25030FFF7F1FE074643
:1029B000084A136923F00403136100E03560FFF750
:1029C00091FF034B00221A763846F8BD0227FBE739
:1029D0000C170020003C024000230F2B00F2E48083
:1029E00070B582B060E085685E000324B44025EADB
:1029F0000405CC68B4402C438460456825EA020590
:102A00004C68C4F300129A402A4342605AE0DC0842
:102A1000083450F8246003F0070295000F22AA4002
:102A200026EA020E0A69AA4042EA0E0240F8242071
:102A30005CE0072200E0002202FA0EF22A43023490
:102A40005A4D45F824205A4A94686FEA0C0224EA49
:102A50000C054E6816F4801F01D04CEA0405544C56
:102A6000A560E46802EA04054E6816F4001F01D070
:102A70004CEA04054E4CE560646802EA04054E68C1
:102A800016F4003F01D04CEA0405494C6560246807
:102A900022404D6815F4803F01D04CEA0402444CBA
:102AA000226001330F2B7DD801229A400C6804EA82
:102AB000020C32EA0404F4D14C6804F00304013C33
:102AC000012C90D94A6802F00302032A09D0C46895
:102AD0005D000322AA4024EA02048A68AA40224335
:102AE000C2604A6802F00302022A90D004684FEAEA
:102AF000430E032202FA0EF224EA02044A6802F0AC
:102B0000030202FA0EF2224302604A6812F4403FC6
:102B1000C7D000220192274A546C44F48044546484
:102B2000526C02F480420192019A9C08A51C1F4A33
:102B300052F8255003F003024FEA820E0F2202FAE8
:102B40000EF225EA02051C4A90423FF474AF02F5EA
:102B5000806290421AD002F58062904218D002F54D
:102B60008062904216D002F58062904214D002F545
:102B70008062904212D002F58062904210D002F53D
:102B8000806290423FF455AF082255E7012253E797
:102B9000022251E703224FE704224DE705224BE7CB
:102BA000062249E702B070BD704700BF00380140FF
:102BB000003C014000380240000002400369194215
:102BC00001D001207047002070470AB18161704731
:102BD000090481617047436901EA030221EA0301A4
:102BE00041EA02418161704770B50446866D00F08C
:102BF000D7F894F83530DBB2022B06D0802363651A
:102C0000002384F83430012070BD05462268136823
:102C100023F0160313602268536923F08003536185
:102C2000236CE3B12268136823F008031360226861
:102C3000136823F00103136023681B6813F0010F6E
:102C400011D000F0ADF8431B052BF5D920236365A7
:102C5000032084F83500002384F83430D4E7A36CD3
:102C6000002BDFD1E3E7E26D3F239340B360012304
:102C700084F83530002084F83400C5E790F835300A
:102C8000DBB2022B03D0802343650120704705236C
:102C900080F835300268136823F0010313600020C8
:102CA00070470000074AD36823F4E0631B041B0C41
:102CB000000200F4E060034343F0BF6343F40033D9
:102CC000D360704700ED00E000B5194BDB68C3F33B
:102CD0000223C3F1070CBCF1040F28BF4FF0040C12
:102CE00003F1040EBEF1060F18D9033B4FF0FF3E6F
:102CF0000EFA0CFC21EA0C0199400EFA03F322EAC9
:102D00000303194300280BDB0901C9B200F160403D
:102D100000F5614080F800135DF804FB0023E5E74F
:102D200000F00F000901C9B2024B1954F4E700BFCB
:102D300000ED00E014ED00E0002807DB00F01F02CA
:102D4000400901239340024A42F82030704700BFF7
:102D500000E100E008B50B4B1A6842F400721A60FB
:102D60001A6842F480621A601A6842F480721A602B
:102D70000320FFF797FF0F20FEF70EFEFEF7E0FCA3
:102D8000002008BD003C0240034A1168034B1B7839
:102D90000B441360704700BF2C1700200000002078
:102DA000014B1868704700BF2C17002038B5044647
:102DB000FFF7F6FF0546B4F1FF3F02D0044B1B7846
:102DC0001C44FFF7EDFF401BA042FAD338BD00BF03
:102DD000000000207047000030B585B0044602684E
:102DE00051689368C3F3801013F0400F05D113F0BE
:102DF000010F02D011F0400F69D113F0020F02D081
:102E000011F0800F67D1C3F3401513F0200F03D1E9
:102E100010B913F4807F61D011F0200F5ED078B12B
:102E200094F85100C0B203285AD0606D40F00400FD
:102E3000606500200090D068009090680090009835
:102E400065B1606D40F001006065002002909068FF
:102E50000290106820F040001060029A13F4807F06
:102E600009D0636D43F0080363650023039323686F
:102E70009B680393039B636D002B2FD022685368DC
:102E800023F0E0035360012384F8513011F0030F65
:102E90002ED02268536823F003035360E36C4BB1D8
:102EA000154A1A65E06CFFF7E9FE18B1636D43F04F
:102EB00040036365A36C8BB10F4A1A65A06CFFF7E2
:102EC000DDFE58B1636D43F04003636506E0236C9B
:102ED0002046984702E0636C2046984705B030BD15
:102EE00000230193D368019393680193019BF5E755
:102EF0002046FFF76FFFF1E7FD2E010808B5806B54
:102F00000023C387C386FFF765FF08BD10B4036ABB
:102F1000046A24F001040462846924F0F00C4CEA91
:102F2000021223F00A030B43826103625DF8044B33
:102F3000704710B4046A24F0100404628469036AC0
:102F400024F4704C4CEA023223F0A00343EA01134C
:102F5000826103625DF8044B7047836823F070035D
:102F60000B4343F0070383607047000090F83D3047
:102F7000DBB2012B37D1022380F83D300268D368E1
:102F800043F00103D3600368194A934220D0B3F1A0
:102F9000804F1DD0A2F57C42934219D002F5806289
:102FA000934215D002F58062934211D002F5784227
:102FB00093420DD002F57052934209D0A2F594329B
:102FC000934205D01A6842F001021A60002070474F
:102FD0009A6802F00702062A07D01A6842F0010236
:102FE0001A6000207047012070470020704700BF22
:102FF00000000140704770477047704710B50446A5
:1030000003681A6912F0020F11D0DA6812F0020F89
:103010000DD06FF002021A610123037703689B69E8
:1030200013F0030F70D0FFF7E6FF00232377236828
:103030001A6912F0040F12D0DA6812F0040F0ED0E1
:103040006FF004021A610223237723689B6913F44B
:10305000407F5FD02046FFF7CEFF00232377236811
:103060001A6912F0080F12D0DA6812F0080F0ED0A9
:103070006FF008021A61042323772368DB6913F0D9
:10308000030F4ED02046FFF7B6FF002323772368B7
:103090001A6912F0100F12D0DA6812F0100F0ED069
:1030A0006FF010021A61082323772368DB6913F499
:1030B000407F3DD02046FFF79EFF00232377236803
:1030C0001A6912F0010F03D0DA6812F0010F36D13D
:1030D00023681A6912F0800F03D0DA6812F0800FAB
:1030E00034D123681A6912F0400F03D0DA6812F065
:1030F000400F32D123681A6912F0200F03D0DA682A
:1031000012F0200F30D110BDFFF774FF2046FFF7FB
:1031100073FF8AE72046FFF76DFF2046FFF76CFF3D
:103120009BE72046FFF766FF2046FFF765FFACE709
:103130002046FFF75FFF2046FFF75EFFBDE76FF019
:1031400001021A612046FEF729F9C1E76FF08002FB
:103150001A61204600F073F9C3E76FF040021A616C
:103160002046FFF74AFFC5E76FF020021A612046AC
:1031700000F064F9C7E700000368304A904212D0BB
:10318000B0F1804F0FD0A2F57C4290420BD002F5F7
:103190008062904207D002F58062904203D002F52F
:1031A0007842904203D123F070034A681343234AC4
:1031B00090422AD0B0F1804F27D0A2F57C429042B5
:1031C00023D002F5806290421FD002F580629042C7
:1031D0001BD002F57842904217D002F5705290420F
:1031E00013D002F5806290420FD002F580629042C7
:1031F0000BD0A2F59832904207D002F5806290423F
:1032000003D002F58062904203D123F44073CA6870
:10321000134323F080034A69134303608B68C3623E
:103220000B688362054B984203D003F58063984294
:1032300001D10B6903630123436170470000014022
:1032400040B310B5044690F83D30F3B1022384F842
:103250003D30214651F8040BFFF78EFF012384F81F
:10326000463084F83E3084F83F3084F8403084F8AB
:10327000413084F8423084F8433084F8443084F894
:10328000453084F83D30002010BD80F83C30FEF71A
:10329000BFFADBE70120704710B4846824F47F4C48
:1032A00042EA03220A4342EA0C0282605DF8044BC0
:1032B000704790F83C30012B78D010B504460123BC
:1032C00080F83C30022380F83D300268936823F494
:1032D0007F4323F0770393600B68602B4CD029D891
:1032E000402B54D00CD9502B22D1CA6849680068B1
:1032F000FFF70CFE50212068FFF72FFE002005E0AD
:10330000202B0DD009D9302B0AD00120012384F8BD
:103310003D30002384F83C3010BD0BB1102B05D19B
:1033200019462068FFF719FE0020EFE70120EDE7BE
:103330000120EBE7B3F5805F34D0B3F5005F0CD12B
:10334000CB684A6889680068FFF7A6FF226893681F
:1033500043F4804393600020D8E7702B24D1CB68DE
:103360004A6889680068FFF797FF2268936843F00E
:10337000770393600020C9E7CA6849680068FFF7CF
:10338000D8FD60212068FFF7E8FD0020BEE7CA688D
:1033900049680068FFF7BAFD40212068FFF7DDFDAE
:1033A0000020B3E70020B1E70120AFE7022070471B
:1033B00090F83C30012B3DD010B4012380F83C3014
:1033C000022380F83D3003685A689C6822F0700C34
:1033D0000A6842EA0C025A600368174A93421AD0FC
:1033E000B3F1804F17D0A2F57C42934213D002F57F
:1033F000806293420FD002F5806293420BD002F5B7
:103400007842934207D002F57052934203D0A2F55E
:103410009432934204D124F080044A6814439C609F
:10342000012380F83D30002380F83C3018465DF8D9
:10343000044B7047022070470000014070477047FE
:10344000026802F10C0353E8003F23F490730C323E
:1034500042E800310029F3D1026802F1140353E875
:10346000003F23F00103143242E800310029F3D178
:10347000036B012B05D0202380F83E30002303632B
:103480007047026802F10C0353E8003F23F0100379
:103490000C3242E800310029F3D1ECE790F83D30DE
:1034A000DBB2212B01D0022070478368B3F5805F27
:1034B00017D0036A5A1C02621A7803685A60C38CD8
:1034C0009BB2013B9BB2C3844BB90268D36823F023
:1034D0008003D3600268D36843F04003D3600020C8
:1034E00070470369002BE4D1036A1B880268C3F3A9
:1034F00008035360036A02330362E0E738B5044609
:103500000268136923F44053C1680B431361836855
:103510000269134342691343C2691A430168CB68C5
:1035200023F4164323F00C031343CB600268536962
:1035300023F4407381690B4353610368314A93421A
:1035400006D002F58062934202D0FFF72FF801E027
:10355000FFF73CF8E369B3F5004F29D000210318C9
:1035600049411B1841F10001C90041EA5371DB00D8
:10357000181863684FEA83024FEA937341F1000120
:10358000FDF782FC204DA5FB00325109642303FBAB
:1035900011031B013233A5FB03235B0903F0F00287
:1035A00002EB011203F00F03216813448B6038BD56
:1035B0000023021843EB0301121841F10001C90076
:1035C00041EA5271D200101841F10001626892186C
:1035D0005B41FDF759FC0C4DA5FB003251096423FA
:1035E00003FB1103DB003233A5FB03235B095A0005
:1035F00002F4F87202EB011203F00703216813448E
:103600008B60D4E7001001401F85EB512DE9F84392
:1036100005460F4616469946DDF820802C6824683A
:1036200037EA04030CBF4FF0010C4FF0000CB44517
:103630002DD1B8F1FF3FF1D0B8F1000F05D0FFF761
:10364000AFFBA0EB09004045E8D92A6802F10C0362
:1036500053E8003F23F4D0730C3242E800310029D4
:10366000F3D12A6802F1140353E8003F23F0010369
:10367000143242E800310029F3D1202385F83D308F
:1036800085F83E30002385F83C30032000E0002020
:10369000BDE8F88358B310B5044690F83D300BB33D
:1036A000242384F83D302268D36823F40053D36088
:1036B0002046FFF723FF2268136923F49043136128
:1036C0002268536923F02A0353612268D36843F4C4
:1036D0000053D36000202064202384F83D3084F818
:1036E0003E3010BD80F83C30FEF7B2F8D8E701203C
:1036F00070472DE9F04182B01E4690F83D30DBB2B4
:10370000202B54D104460D469046002953D0002A60
:1037100053D090F83C30012B51D0012380F83C303D
:1037200000230364212380F83D30FFF739FB07466F
:10373000A4F82480A4F82680A368B3F5805F05D0A0
:103740004FF00008002384F83C3012E0236913B1E5
:103750004FF00008F6E7A8460025F3E738F8023BEB
:103760002268C3F308035360E28C92B2013A92B22A
:10377000E284E38C9BB273B100963B460022802129
:103780002046FFF743FFE0B9002DE7D015F8012BE5
:1037900023685A60E8E700963B4600224021204615
:1037A000FFF734FF78B9202384F83D3000E0022091
:1037B00002B0BDE8F0810120FAE70120F8E702201D
:1037C000F6E70320F4E70320F2E7704708B5016845
:1037D000CA6822F04002CA60202280F83D20FFF72C
:1037E000F4FF002008BD704708B5806B0023C38537
:1037F000C384FFF7F8FF08BD704790F83E30DBB296
:10380000222B67D18368B3F5805F4DD0826AB3F510
:10381000805F04D0002B54D10369002B51D1036881
:103820005B681370836A01338362C38D9BB2013B73
:103830009BB2C385002B4FD100B583B00268D3681B
:1038400023F02003D3600268D36823F48073D3602D
:103850000268536923F001035361202380F83E304E
:10386000036B012B33D100230363026802F10C03C5
:1038700053E8003F23F010030C3242E800310029E6
:10388000F3D103681A6812F0100F06D000220192DB
:103890001A6801925B680193019B818DFFF7ACFF71
:1038A000002003B05DF804FB0269002AAED1826AF1
:1038B00003685B68C3F308031380836A023383627F
:1038C000B3E703685B6803F07F031370AAE7FDF7B3
:1038D00047FDE5E7022070470020704730B583B010
:1038E000044602681368D068516913F00F0505D1CA
:1038F00013F0200F02D010F0200F19D12DB111F0CC
:10390000010119D110F4907F16D1216B01297DD0CE
:1039100013F0800F03D010F0800F40F0158113F0EA
:10392000400F03D010F0400F40F0128103B030BDC3
:103930002046FFF762FFF9E713F0010F06D010F4FD
:10394000807F03D0226C42F00102226413F0040F46
:1039500004D019B1226C42F00202226413F0020F6B
:1039600004D019B1226C42F00402226413F0080F53
:1039700007D010F0200F00D119B1226C42F00802DC
:103980002264226C002AD1D013F0200F02D010F054
:10399000200F29D123685B6903F04003226C12F0E9
:1039A000080F00D163B32046FFF74AFD23685B6927
:1039B00013F0400F20D0226802F1140353E8003FB7
:1039C00023F04003143242E800310029F3D1A36B05
:1039D00073B1614A1A65A06BFFF750F90028A5D0B2
:1039E000A06B036D9847A1E72046FFF706FFD1E7DC
:1039F0002046FFF7F8FE99E72046FFF7F4FE95E72B
:103A00002046FFF7F0FE002323648FE713F0100F2A
:103A10003FF47EAF10F0100F3FF47AAF0023019314
:103A20001368019353680193019B536913F0400F8E
:103A300050D0A26B13685B689BB2002B3FF476AF4B
:103A4000A18D99427FF672AFE385D369B3F5807F8C
:103A500037D0226802F10C0353E8003F23F480734F
:103A60000C3242E800310029F3D1226802F114033C
:103A700053E8003F23F00103143242E800310029EB
:103A8000F3D1226802F1140353E8003F23F040030E
:103A9000143242E800310029F3D1202384F83E306B
:103AA00000232363226802F10C0353E8003F23F054
:103AB00010030C3242E800310029F3D1A06BFFF76C
:103AC00093F8A18DE38D9BB2C91A89B22046FFF706
:103AD00093FE2BE7A18DE38D9BB2C91A89B2E38DCA
:103AE0009BB2002B3FF422AF00293FF41FAF2268A6
:103AF00002F10C0353E8003F23F490730C3242E8C8
:103B000000300028F3D1226802F1140353E8003F8B
:103B100023F00103143242E800300028F3D12023BF
:103B200084F83E3000232363226802F10C0353E83B
:103B3000003F23F010030C3242E800300028F3D19C
:103B40002046FFF759FEF1E62046FFF7A7FCEDE619
:103B50002046FFF73BFEE9E6E937010881628285EE
:103B6000C28500230364222280F83E2080F83C3086
:103B7000036923B10268D36843F48073D360026899
:103B8000536943F0010353610268D36843F0200393
:103B9000D3600020704708B590F83E30DBB2202B90
:103BA0000DD171B17AB190F83C30012B0DD00123C9
:103BB00080F83C3000230363FFF7D0FF00E00220D1
:103BC00008BD0120FCE70120FAE70220F8E7000029
:103BD000044BD3F8882042F47002C3F88820024ACC
:103BE0009A60704700ED00E00000010800F1080352
:103BF00043604FF0FF328260C360036100230360C3
:103C0000704700230361704743684B609A688A607D
:103C1000516099600861036801330360704730B4F4
:103C20000D68B5F1FF3F11D000F108031C465B6839
:103C30001A68AA42FAD963684B6099608C60616027
:103C4000086103680133036030BC70470469F2E720
:103C50000369416882688A60416851605A6882429B
:103C600006D0002202611A68013A1A60186870478B
:103C700082685A60F5E70000084B1B681B6823B98F
:103C8000074B4FF0FF321A607047044B1B68DB682C
:103C9000DB685A68024B1A60704700BF3417002077
:103CA000081800202DE9F04707469846089DDDF8E2
:103CB00024900A9C266B02F18042013A06EB8206B0
:103CC00026F0070600293AD08E464FF0000CBCF1D2
:103CD0000F0F0BD81EF80C2004EB0C0383F83420D4
:103CE0001EF80C3013B10CF1010CF0E7002384F83E
:103CF0004330062D00D90625E56265644FF0000AC1
:103D0000C4F848A0201DFFF77CFF04F11800FFF75E
:103D100078FF2461C5F10705A5616462C4F84CA071
:103D200084F850A042463946304600F009FD206034
:103D3000B9F1000F01D0C9F80040BDE8F0870023B9
:103D400084F83430D5E7000038B5002407E004EBF0
:103D5000840293000E481844FFF748FF0134062CF4
:103D6000F5D90C4D2846FFF741FF0B4C2046FFF7D5
:103D70003DFF0A48FFF73AFF0948FFF737FF0948B8
:103D8000FFF734FF084B1D60084B1C6038BD00BFB7
:103D90003C170020DC170020F0170020141800202A
:103DA000401800202C18002034170020381700205D
:103DB00010B5044600F0EEFC214A1368013313608D
:103DC000204B1B685BB1204B1B686BB91D4B1B68FC
:103DD000DA6AE36A9A4207D81A4B1C6004E0194B6E
:103DE0001C601368012B28D0184A13680133136034
:103DF000E06A01238340164A11680B43136000EB0D
:103E00008000211D134B03EB8000FFF7FDFE00F047
:103E1000E3FC0D4B1B687BB10A4B1B68DA6AE36A53
:103E20009A4209D24FF0E0234FF08052C3F8042D9C
:103E3000BFF34F8FBFF36F8F10BDFFF785FFD3E741
:103E4000C81700203017002028180020D4170020A1
:103E5000D81700203C17002010B5044690F85130C8
:103E600063B1012B11D0022B0ED04FF0500383F31E
:103E70001188BFF36F8FBFF34F8FFEE7006B00F029
:103E8000E3FB204600F0E0FB10BD00F0DDFBFBE7AC
:103E90000F4B1B68D3B110B500F07CFC0D4BDB68F9
:103EA000DC68201DFFF7D4FE0B4A1368013B13604A
:103EB000074A1368013B136000F08EFC2046FFF7B1
:103EC000CBFF034B1B68002BE6D110BD704700BF32
:103ED000CC17002040180020C817002008B5FFF7B5
:103EE000D7FF074B1B68012BF9D94FF0E0234FF0A8
:103EF0008052C3F8042DBFF34F8FBFF36F8FEEE7EF
:103F00003C17002070B504460D461D4B1E681D4B26
:103F100018680430FFF79CFE50B91A4B1B68DA6A28
:103F2000012303FA02F218490B6823EA02030B602B
:103F3000B4F1FF3F0DD03444124B1B685C60A642C5
:103F400010D9124B18680F4B19680431FFF767FE40
:103F500070BD002DEFD00B4B196804310C48FFF7F2
:103F600053FEF5E70B4B1868064B19680431FFF751
:103F700056FE094B1B68A342EAD9074B1C60E7E7D2
:103F80005418002030170020D817002038170020C0
:103F90002C180020341700200818002030B587B0F6
:103FA0000B9C7CB10C9DB5B154250495049D542DFA
:103FB0001AD04FF0500383F31188BFF36F8FBFF314
:103FC0004F8FFEE74FF0500383F31188BFF36F8FDD
:103FD000BFF34F8FFEE74FF0500383F31188BFF319
:103FE0006F8FBFF34F8FFEE7049D0C9D2C6302245F
:103FF00085F8514000240394029505AC01940A9C75
:104000000094FFF74FFE0C98FFF7D2FE059807B01B
:1040100030BD2DE9F04385B00746884614461E465C
:10402000900000F093FA00B38146542000F08EFA1D
:104030000546B0B1C0F83090E5B1002385F85130A5
:10404000039302950D9B01930C9B009333462246EC
:1040500041463846FFF726FE2846FFF7A9FE012015
:1040600005E0484600F0F0FAE6E74FF0FF3005B013
:10407000BDE8F0834FF0FF30F9E7000010B588B0DD
:1040800000240594069407AA06A905A8FDF716FBC7
:10409000059B0293069B019300942346079A0E49C1
:1040A0000E48FFF77BFF0E4B186090B14FF05003A6
:1040B00083F31188BFF36F8FBFF34F8F094B4FF01E
:1040C000FF321A60084B01221A60084B1C6000F096
:1040D000FBFB08B010BD00BF9CD40108DD3E010809
:1040E0000418002008180020281800205418002068
:1040F000024A136801331360704700BFD0170020D5
:10410000F8B53A4B1B68002B69D1394B1D68013556
:104110001D60C5B9374B1B681B6843B14FF0500396
:1041200083F31188BFF36F8FBFF34F8FFEE7314AE0
:104130001168314B186810601960304A13680133F8
:104140001360FFF799FD2E4B1B68AB423DD900274A
:104150002C4B1B68DB6A03EB83039A002A4B9B58AA
:10416000012B00D90127294B1B68002B3CD00127CC
:104170003AE001271F4B1B681B6843B31D4B1B68AC
:10418000DB68DC6863689D4226D3261D3046FFF756
:104190005FFDA36A1BB104F11800FFF759FDE36A44
:1041A00001229A401A49086802430A6003EB83031C
:1041B0009A00314614481044FFF726FDE26A114B7D
:1041C0001B68DB6A9A42D4D2D4E70027D2E70C4BB3
:1041D0004FF0FF321A60BBE7094A1360B8E70D4A97
:1041E00013680133136000273846F8BDD01700204C
:1041F0005418002034170020381700200C18002015
:1042000008180020301700203C1700205818002004
:10421000D81700201018002038B5354B1B6843B95B
:104220004FF0500383F31188BFF36F8FBFF34F8FAD
:10423000FEE700F0AFFA2E4B1A68013A1A601B68CD
:10424000002B4FD12B4B1B680BB900244BE00024F3
:10425000294B1B681BB3284BDB68DC6804F1180092
:10426000FFF7F6FC251D2846FFF7F2FCE06A012364
:104270008340224A11680B43136000EB80002946FB
:104280001F4B03EB8000FFF7BFFCE26A1D4B1B686E
:10429000DB6A9A42DCD31C4B01221A60D8E70CB1CE
:1042A000FFF7EAFC194B1C6884B9174B1C68D4B1A2
:1042B0004FF0E0234FF08052C3F8042DBFF34F8F2F
:1042C000BFF36F8F01240EE0013C07D0FFF718FF0A
:1042D0000028F9D00C4B01221A60F5E70B4B0022A5
:1042E0001A60E2E7002400F077FA204638BD00BFEC
:1042F000D0170020C817002014180020D81700205D
:104300003C170020301700205818002010180020FB
:1043100010B5A8B10446104B1B6843B14FF05003D1
:1043200083F31188BFF36F8FBFF34F8FFEE7FFF763
:10433000DFFE00212046FFF7E5FDFFF76DFF48B9DE
:104340004FF0E0234FF08052C3F8042DBFF34F8F9E
:10435000BFF36F8F10BD00BFD0170020204B1B682C
:104360001BB1204B01221A6070471E4B00221A60BD
:104370001D4B1B68B3FA83F3DBB2C3F11F0303EBDE
:1043800083018A0019498A5842B94FF0500383F3D8
:104390001188BFF36F8FBFF34F8FFEE7134903EB15
:1043A000830082000A4450684068506003EB830C2D
:1043B0004FEA8C0208321144884209D003EB830390
:1043C0009A000A4B13445B68DA68094B1A6070471D
:1043D000406862469100054A0A445060EEE700BF1B
:1043E000D017002058180020D81700203C170020B4
:1043F00030170020842801D0033070470020704718
:1044000008B5FFF73BFE002008BD2DE9F04387B05B
:1044100004460F464569BDB18669AEB1D0F8048047
:10442000D0F80090B0F90800FFF7E4FF029601957C
:1044300000903B46226949464046FFF7AFFD059094
:10444000059807B0BDE8F08365682668D4F8108049
:10445000B4F90800FFF7CEFF05AB019300903B468F
:104460001FFA88F231462846FFF7D3FD0128E7D02E
:104470000020E6E708B500B90120FFF749FF00205A
:1044800008BD0000124A12F0070F1ED0D11D21F006
:104490000701C1F5705313440A460E48026000211B
:1044A00041601344083B23F007030B480360596045
:1044B0001960991A51601360084B1960084B196014
:1044C000084B4FF000421A6070474FF47053E4E716
:1044D00060180020745400205C18002068540020EC
:1044E0006454002060540020164B1A461B68834217
:1044F000FBD3516802EB010C844509D0416800EB05
:10450000010C634509D00360904219D010607047D8
:104510004068014451601046F0E710B40A4C24682A
:10452000A3420BD05B681944416013681B680360A9
:10453000904200D010605DF8044B70470460F7E7CC
:10454000704700BF745400205C18002070B5054609
:10455000FFF7CEFD364B1B68A3B1364B1B681D42DF
:104560004ED135B1083515F0070F02D025F00705FB
:104570000835002D46D0304B1B68AB4251D32F4A33
:10458000146804E0FFF77EFFE7E722461C466368F5
:10459000AB4202D22368002BF7D1254B1B68A34204
:1045A00041D0166808362368136063685B1B102BC4
:1045B00010D9601910F0070F08D04FF0500383F3A3
:1045C0001188BFF36F8FBFF34F8FFEE743606560C5
:1045D000FFF78AFF626818490B689B1A0B6018493D
:1045E00009688B4201D216490B60124B1B681343BA
:1045F000636000232360134A13680133136002E0F1
:10460000002600E00026FFF707FE16F0070F0CD08B
:104610004FF0500383F31188BFF36F8FBFF34F8FB9
:10462000FEE70026EFE70026EDE7304670BD00BF4D
:104630005C18002060540020645400207454002052
:10464000685400206C540020002834D038B504464B
:10465000A0F1080550F8043C174A1268134208D12B
:104660004FF0500383F31188BFF36F8FBFF34F8F69
:10467000FEE750F8081C41B14FF0500383F3118856
:10468000BFF36F8FBFF34F8FFEE723EA020340F8BB
:10469000043CFFF72DFD54F8041C084A13680B4432
:1046A00013602846FFF720FF054A136801331360A3
:1046B000FFF7B2FD38BD70476054002064540020FD
:1046C0007054002082B0002301930D4B1B68B3F19E
:1046D000FF3F08D04FF0500383F31188BFF36F8F73
:1046E000BFF34F8FFEE74FF0500383F31188BFF302
:1046F0006F8FBFF34F8F019B002BFCD002B0704730
:104700000C00002008480068006880F308884FF01B
:10471000000080F3148862B661B6BFF34F8FBFF319
:104720006F8F00DF00BF000008ED00E0DFF80C0035
:10473000016841F4700101607047000088ED00E0FD
:104740004FF0807340F8043C21F0010140F8081C50
:10475000054B40F80C3C40F8202C6FF0020340F869
:10476000243C4438704700BFC546010800000000E3
:10477000074B19680868B0E8F04F80F30988BFF369
:104780006F8F4FF0000080F311887047AFF3008007
:10479000301700204FF0500383F31188BFF36F8F61
:1047A000BFF34F8F0B4A136801331360012B00D006
:1047B00070474FF0E023D3F8043D13F0FF0FF7D01C
:1047C0004FF0500383F31188BFF36F8FBFF34F8F08
:1047D000FEE700BF0C000020094B1B6843B94FF0F7
:1047E000500383F31188BFF36F8FBFF34F8FFEE742
:1047F000013B034A13600BB983F31188704700BF74
:104800000C0000200000000000000000000000007C
:10481000EFF30980BFF36F8F154B1A681EF0100F6E
:1048200008BF20ED108A20E9F04F10602DE9090043
:104830004FF0500080F31188BFF34F8FBFF36F8F9D
:10484000FFF78CFD4FF0000080F3118809BC196858
:104850000868B0E8F04F1EF0100F08BFB0EC108AE7
:1048600080F30988BFF36F8F704700BFAFF30080FC
:104870003017002008B54FF0500383F31188BFF3C1
:104880006F8FBFF34F8FFFF73BFC28B14FF0E02352
:104890004FF08052C3F8042D002383F3118808BD24
:1048A0004FF0E022002313619361054B1B6805491B
:1048B000A1FB03139B09013B53610723136170475D
:1048C00008000020D34D62104FF0E023D3F8002DF4
:1048D0003D4B9A421CD04FF0E023D3F8002D3B4BC8
:1048E0009A421ED030B583B0394B1A78D2B20192B9
:1048F000FF221A701B78DBB28DF803309DF803306D
:1049000003F05003334A1370334B07221A601BE045
:104910004FF0500383F31188BFF36F8FBFF34F8FB6
:10492000FEE74FF0500383F31188BFF36F8FBFF39F
:104930004F8FFEE7284A1368013B13609DF8033050
:104940005B00DBB28DF803309DF8033013F0800F6D
:10495000F0D1214B1B68032B08D04FF0500383F399
:104960001188BFF36F8FBFF34F8FFEE71B021A4A08
:10497000136003F4E0631360019BDBB2144A13700D
:104980004FF0E024D4F8203D43F47003C4F8203DF8
:10499000D4F8203D43F07043C4F8203DFFF780FF7A
:1049A00000250E4B1D60FFF7C1FED4F8343F43F0E5
:1049B0004043C4F8343FFFF7A5FEFFF7CFFCFFF7F5
:1049C00081FE284603B030BD71C20F4170C20F4155
:1049D00000E400E07C540020805400200C00002003
:1049E000BFF34F8F0549CA6802F4E062044B1343DA
:1049F000CB60BFF34F8F00BFFDE700BF00ED00E0CD
:104A00000400FA0570477047704700000FB4F0B516
:104A100083B008AD55F8047B0E4C4FF496763246C1
:104A20000021204602F012FC01952B463A46314601
:104A3000204604F03BFA2046FBF782FC4FF47A73E1
:104A400082B221460448FEF754FE03B0BDE8F040B0
:104A500004B07047585C0020A013002038B5002532
:104A60002C4600E00134272C0DDC094904EB8402BC
:104A70009300CA18CB5C002BF4D029460548FFF7F9
:104A8000C5FF0135EEE729460348FFF7BFFF38BDF4
:104A900010000020A4D40108ACD4010800B587B0F0
:104AA00000230493059304A801F070FEB8B99DF8A3
:104AB00013309DF814209DF8151002910192009377
:104AC0009DF812309DF811209DF810100648FFF750
:104AD0009DFF0648FFF79AFF07B05DF804FB044806
:104AE000FFF794FFF8E700BFC0D40108D8D401084D
:104AF000DCD4010810B584B004460023029303936C
:104B0000019302A801F042FE5449204601F09AFBAD
:104B1000B0F1FF3F14D0053001AAC1B2204601F028
:104B2000B6FB002800F09780019A4D4981FB0231C5
:104B3000D317C3EB6113642101FB13238DF80830F5
:104B40004849204601F07EFBB0F1FF3F13D004300E
:104B500001AAC1B2204601F09AFB00287BD0019A3D
:104B60003F4981FB0231D317C3EB6113642101FB81
:104B700013238DF809303C49204601F063FBB0F166
:104B8000FF3F13D0043001AAC1B2204601F07FFBE1
:104B9000002860D0019A324981FB0231D317C3EB60
:104BA0006113642101FB13238DF80A302F4920463D
:104BB00001F048FBB0F1FF3F13D0053001AAC1B2AC
:104BC000204601F064FB002845D0019A244981FB6E
:104BD0000231D317C3EB6113642101FB13238DF85A
:104BE0000B302349204601F02DFBB0F1FF3F12D0DE
:104BF000043001AAC1B2204601F049FB58B3019A22
:104C0000174981FB0231D317C3EB6113642101FB08
:104C100013238DF80C301749204601F013FBB0F137
:104C2000FF3F12D0043001AAC1B2204601F02FFB91
:104C300088B1019A0A4981FB0231D317C3EB611392
:104C4000642101FB13238DF80D3002A801F016FE3C
:104C50000948FFF7DBFE04B010BD00BFF0D4010827
:104C60001F85EB51F8D4010800D5010808D50108CB
:104C700010D5010818D5010820D5010830B583B03A
:104C80000A4B1868FBF780FD04460D46084B186870
:104C9000FBF77AFDCDE9000122462B460548FFF7D8
:104CA000B5FE0548FFF7B2FE03B030BDD86C00205A
:104CB000DC6C002038D50108D8D4010808B50248BA
:104CC000FFF7A4FEFFF78CFED8D4010838B50546DF
:104CD0000F4901F0B7FA041E05DD2846FBF730FB4B
:104CE000631C984203D80B48FFF790FE38BD0220A2
:104CF00001F04EFC01340849281901F0E7FB31208E
:104D000001F0D4FB0548FFF781FEFFF769FE00BF05
:104D100048D501084CD5010800C10008D8D40108C5
:104D200038B505460D4901F08DFA041E05DD28460B
:104D3000FBF706FB631C984203D80948FFF766FEA1
:104D400038BD012001F024FC01340649281901F086
:104D5000BDFB0548FFF75AFEF2E700BF48D5010842
:104D60004CD5010840C10008D8D4010800B585B071
:104D700000230093019302930393064A0F21684690
:104D800001F0EFFB69460448FFF740FE05B05DF80F
:104D900004FB00BF40C100085CD5010800B589B024
:104DA00000230093019302930393049305930693C6
:104DB0000793064A1F21684601F0D3FB6946044861
:104DC000FFF724FE09B05DF804FB00BF00C1000836
:104DD00068D5010800B583B001A801F093FC0199E2
:104DE0000448FFF713FE0448FFF710FE03B05DF818
:104DF00004FB00BF7CD50108D8D4010808B5012008
:104E000001F05CFC0148FFF701FE08BDD8D40108A1
:104E100008B501220B490C48FEF7BDFE4FF4FA62BB
:104E200000210A4802F012FA4FF496720021084855
:104E300002F00CFA6420FFF71DFB0648FFF7E6FDC1
:104E400008BD00BF885D0020A0130020885400200A
:104E5000585C002090D5010808B5184B1B883BB959
:104E6000174A1278202A22D00D2A20D00A2A1ED0D2
:104E7000B3F5FA6F09D2134A127832B9104A117891
:104E8000114AD15401330D4A13800C4B1B88B3F5E2
:104E9000FA6F03D20A4B1B78202B02D1094B012257
:104EA0001A70012206490948FEF775FE08BD012265
:104EB00003490648FEF76FFEF8E700BF905D00204B
:104EC000885D00208454002088540020A013002016
:104ED00038B5254B1B88002B3FD0244A12689342DB
:104EE0000CD8FDF75DFF224B1B686433984235D226
:104EF000204B1B78012B30D1002408E01B4A1360A3
:104F0000FDF74EFF1A4B1860EBE70134E4B2272C93
:104F100012D8194B04EB840203EB820113F8223000
:104F2000002BF2D0154801F08DF90028EDD1144B7B
:104F300053F8243011489847282C11D04FF4FA62C6
:104F400000210E4802F082F90023074A1380094A23
:104F50001370074A1360054A136038BD0024D6E772
:104F60000848FFF753FDE9E7905D0020845D0020CD
:104F70008C5D002084540020100000208854002004
:104F800030030020B0D50108F8B5002410E004EB90
:104F90004403164A02EB430301221A7107E004EBB3
:104FA0004403124A02EB430300225A801A7101346F
:104FB000032C19DC0D4D04EB44035E0015F813704F
:104FC0004FF40071214189B20948FDF7F7FDA8555A
:104FD0000028E4D1002FDAD104EB440305EB4303AE
:104FE0005A8805325A80E2E7F8BD00BFC45F00204E
:104FF00000080240034603282CD8462918D800EBA5
:105000004002154800EB42021079D0B103EB430295
:10501000114800EB420252888A4201D200207047B8
:1050200003EB430300EB430300221A710120704796
:1050300000EB4002084800EB420252888A4201D24B
:105040000020704703EB430300EB430300221A7177
:105050000120704700207047C45F0020F0B58FB07A
:1050600000230793089309930A930B930C93ADF8CD
:105070003430114B5B79114A1278934201D10FB051
:10508000F0BD04460D460D4A13700B4A51789078D6
:10509000D6781779049303970296019000911378BC
:1050A000074A1A2107A802F023F907AA2946204631
:1050B00001F01CFFE3E700BFE06C0020EC60002083
:1050C000C4D5010830B589B005460C4600230393CA
:1050D0000493059306930793194B1B78012B05D076
:1050E000174B1B78022B08D009B030BD144B02229D
:1050F0001A70144B00221A80F2E7134B5B79134AA3
:1051000012789342F0D0114A13700E4B1A88013274
:1051100092B21A800E4BA3FB02135909C1EB011185
:10512000A2EB810292B200925B090A4A142103A801
:1051300002F0DEF803AA2146284601F0D7FED3E7A5
:10514000DC5F0020EE600020E06C0020EB600020BF
:1051500089888888E4D5010810B5AAB00024119484
:105160006022214612A802F071F80D940E940F945B
:10517000CDF83F4009940A940B94CDF82F40059444
:105180000694079408942D4B5B792D4A127893422C
:1051900045D02B4A13702B4B1B78042B41D00F2288
:1051A00029490DA802F0E8F8284B1B78002B3ED0C7
:1051B0000F22274909A802F0DFF805AC254A0F2184
:1051C000204601F0CEF909AB0293234B01930094E2
:1051D0000DAB224A642111A802F08AF811AA0C2111
:1051E000012001F083FE64242246002111A802F070
:1051F0002DF81B4B1868FBF7C7FACDE90201194BD4
:105200001868FBF7C1FACDE90001174A214611A839
:1052100002F06EF811AA0D21012001F067FE2AB0FC
:1052200010BD0F2211490DA802F0A6F8BCE70F220D
:105230000F4909A802F0A0F8BFE700BFE06C00200A
:10524000EA600020A46B002000D60108D063002093
:1052500008D6010840C10008BC63002028D6010818
:10526000DC6C0020D86C002048D60108F4D5010879
:1052700018D60108002115E00C4BC1EBC100C2009B
:1052800098189954002202724272C260C1EBC10C9C
:105290004FEACC00203003445A609A60DA601A6109
:1052A0005A6101310929E7DD704700BF945D002094
:1052B00030B58DB0002400E00134092C25DC144BFE
:1052C00053F82430134A52F824209342F4D9114A57
:1052D00042F82430C4EBC402D3000F4D1D44EC4609
:1052E00005F1080EBEE80F00ACE80F00BEE80F00A5
:1052F000ACE80F009EE80F008CE80F0095E80C006A
:105300000621032001F0DAFED6E70DB030BD00BF64
:1053100024630020C0600020945D00200C4B5B687B
:105320000C4A1268934212D310B50A4A1360002443
:105330000AE004EB84029300E11C074A1A4489B294
:10534000042001F0D3FD01340A2CF2DD10BD7047BA
:1053500024630020BC600020E05F002000B585B021
:1053600086468C46164A01AB07CA03C31A809CF8CE
:1053700000300133DBB28CF800300EF110026A44C9
:1053800012F80C2C934210D300238CF800309CF8B8
:10539000002002EB82020B4B03EB8202022103206E
:1053A00001F0A4FD05B05DF804FB0EF10F020DEB5A
:1053B000020E1EF80C2C9342E9D28CF80020E6E78E
:1053C00068D601088404002038B54FF4FA71032030
:1053D000FFF710FE50B9814B1878042821D8DFE878
:1053E00010F016002F009500CE00F60001207B4B38
:1053F000187001F061FD01F0BDFD794B187801F0E6
:10540000C7FDFFF737FF774B00221A70E3E746210D
:105410000320FFF7EFFD28B90121704B1878FFF743
:105420001DFE38BD01246D4B1C70204601F044FD6B
:105430006B4D2C7001F09EFD287801F0A9FDEBE783
:105440000B21FFF70BFEFFF787FE46210020FFF739
:10545000D1FD002835D0624A1378013BDBB21370CE
:1054600013B9134609221A705D4B187801F090FDAC
:1054700046210320FFF7BEFD0028D2D0584B1B78F1
:10548000042B33D0564B1B78082B39D00320534ABA
:105490001070013B03EB8303534A02EB83020121AB
:1054A00001F024FD4D4B187801F006FD4F4B002212
:1054B0001A704F4A0221032001F018FD01F04EFE40
:1054C000AFE746210120FFF795FD0028D0D0444AE0
:1054D00013780133DBB21370092B02D91346012272
:1054E0001A703F4B187801F053FDC1E702203B4B87
:1054F000187001F0E1FC3F4B187801F05FFDC1E747
:105500000420364B187001F0D7FCCBE74621002071
:10551000FFF770FDF0B1374A1378013BDBB213702F
:1055200013B9134602221A70324B187801F046FD67
:1055300046210320FFF75EFD00283FF472AF274CA1
:105540000320207001F0B8FC2B4A0121207801F0E3
:10555000CDFC66E746210120FFF74CFD0028E7D08F
:10556000244A13780133DBB21370022B02D913469D
:1055700001221A701F4B187801F020FDD8E7042192
:10558000FFF76CFD46210220FFF734FD98B9462154
:105590000320FFF72FFD10B1144B187888B9FFF7DF
:1055A00087FE104B1B78002B3FF43BAF05210320F7
:1055B000FFF788FD35E70D49094B1878FFF7CEFE58
:1055C000E5E700F02DF9074B01221A70E7E7022109
:1055D000FFF744FDFFF7A2FE23E700BFE9600020CC
:1055E000E8600020DC5F0020D0030020925D0020F6
:1055F00084040020640600200C04002008B500F09C
:105600003BF80520FEF736FFFFF7BEFCFFF7DCFE98
:1056100000F08EF8F5E700000FB4F0B583B008ADE8
:1056200055F8047B0E4C4FF4967632460021204606
:1056300001F00CFE01952B463A463146204603F018
:1056400035FC2046FAF77CFE4FF47A7382B221468D
:105650000448FEF74EF803B0BDE8F04004B07047D0
:10566000C0610020E413002008B50248FFF7D4FF12
:1056700008BD00BFD8D4010808B501220A490B486B
:10568000FEF789FAC8220021094801F0DFFD4FF436
:1056900096720021074801F0D9FD0748FFF7BCFFCB
:1056A000002001F009FC08BDF0600020E413002098
:1056B000F8600020C061002074D6010808B5174BBF
:1056C0001B883BB9164A1278202A20D00D2A1ED0FA
:1056D0000A2A1CD0C72B09D8124A127832B9104AAC
:1056E0001178114AD15401330C4A13800B4B1B889B
:1056F000C72B03D80A4B1B78202B02D1094B012260
:105700001A70012206490948FEF745FA08BD012230
:1057100003490648FEF73FFAF8E700BFF4600020AF
:10572000F0600020F6600020F8600020E413002004
:1057300038B5224B1B88002B3CD0214A128893425B
:105740000ED91F4A13801F4B00221A801D4B1B8845
:10575000312B30D81C4B1B78012B2BD1002406E0B9
:10576000184A138801331380F0E70134E4B20E2C99
:1057700012D8164B04EB840203EB820113F822309B
:10578000002BF2D0124800F05DFD0028EDD1114B46
:1057900053F824300E489847C82200210C4801F0E5
:1057A00055FD0023054A1380074A1370054A1380EC
:1057B000034A138038BD0024D9E700BFF4600020FD
:1057C000EC620020F2600020F6600020A4060020B9
:1057D000F86000206806002010B5002408E0C4EB43
:1057E00004130B481844FAF7ABFD0A4B1855013463
:1057F000062CF4DD002408E0C4EB0413064818442A
:10580000FAF79EFD054B185501340A2CF4DD10BD46
:10581000D0070020046300203C0800200C63002017
:1058200038B50546002400E00134092C16DCC4EB31
:10583000C403DB0010330A490A48184400F002FD93
:105840000028F1DB04EB44132A460749074800EB24
:10585000C30000F0B2FB064B1D55E5E738BD00BFA5
:1058600090D60108945D002098D601084C6D002068
:10587000186300202DE9F04182B005460C46002354
:10588000019300230093FDF78BFA684B43F8250042
:105890006749204600F0D6FC002826DA65492046F4
:1058A00000F0D0FC002847DA6349204600F0CAFC2B
:1058B000002855DA6149204600F0C4FC00285FDA70
:1058C0005F49204600F0BEFC002869DA5D492046A9
:1058D00000F0B8FC002873DA5B49204600F0B2FC07
:1058E000061E7DDA02B0BDE8F081584FEE00C5EB30
:1058F000C50307EBC30807F833505549204600F0AD
:10590000A1FC411D01AAC9B2204600F031FD019B56
:10591000C8F80430731BDB001033DA190021D951A9
:1059200051609160D16011614A490868D8518888F6
:105930008B7990809371B1E7C5EBC500C000203032
:10594000424B1844002343608360C360036143619A
:10595000414B1B79414A1421043001F0C9FCA3E7F3
:105960003F4B5978014401AAC9B2204600F000FD1E
:10597000C5EBC503354A02EBC303019A5A6099E7A8
:10598000374B997801446A46C9B2204600F07FFC43
:10599000C5EBC5032D4A02EBC303009A1A728FE7C9
:1059A0002F4BD97801446A46C9B2204600F06FFCFB
:1059B000C5EBC503254A02EBC303009A5A7285E77B
:1059C000274B197901446A46C9B2204600F05FFCB2
:1059D000C5EBC5031D4A02EBC303009ADA607BE7FF
:1059E000C5EBC503DB002033184A13441F1D0022FA
:1059F0005A609A60DA601A615A611A49204600F0CA
:105A000021FC821B164B9979521A132A00DD1322AE
:105A100031442144384601F0AFFCC5EBC5050B48C5
:105A200000EBC505002385F837305BE724630020D1
:105A3000A8D60108BCD60108DF070020EE07002029
:105A4000FD0700200C0800202A080020945D00209B
:105A5000B4D6010890D60108E06C0020CCD601082D
:105A600004630020ACD501082DE9F04182B0064660
:105A70000D4600230193FDF793F9344B43F82600BC
:105A800000240CE038442918404601F075FC04EB72
:105A900084032F4A02EB83030022DA7401340A2CB8
:105AA00024DCC4EB04132B491944284600F0CAFB3C
:105AB000071EF3DB04EB8402254901EB8208002377
:105AC00041F82230C8F80430C8F80830C8F80C3063
:105AD000C8F810302049284600F0B4FBC21B1F4B09
:105AE000185D121A132ACDDD1322CBE71C49284674
:105AF00000F0A8FB002802DA02B0BDE8F081194FDF
:105B0000F400C6EBC60307EBC30807F83360164979
