:020000040800F2
:1000000000000120BD6500087103000873030008AB
:10001000750300087703000879030008000000005A
:100020000000000000000000000000007B0300084A
:100030007D030008000000007F0300088103000822
:1000400005660008056600080566000805660008E4
:1000500005660008056600080566000805660008D4
:1000600005660008056600080566000805660008C4
:100070008903000899030008A9030008B9030008D0
:1000800005660008056600080566000805660008A4
:100090000566000805660008056600080566000894
:1000A0000566000805660008056600080566000884
:1000B0000566000805660008056600080566000874
:1000C000056600080566000805660008C903000803
:1000D00005660008D9030008490400080566000801
:1000E0000566000805660008056600080566000844
:1000F0000566000805660008056600080566000834
:100100000566000805660008056600080566000823
:100110000566000805660008056600080566000813
:100120000566000805660008056600080566000803
:1001300000000000000000000000000000000000BF
:1001400000000000000000000000000000000000AF
:10015000000000000000000000000000000000009F
:10016000000000000000000000000000000000008F
:10017000000000000000000000000000000000007F
:10018000000000000000000000000000000000006F
:10019000000000000000000000000000000000005F
:1001A000000000000000000000000000000000004F
:1001B000000000000000000000000000000000003F
:1001C000000000000000000000000000000000002F
:1001D000000000000000000000000000000000001F
:0401E0005FF8E0F1F3
:1001E40010B5054C237833B9044B13B10448AFF36D
:1001F40000800123237010BD3004002000000000A3
:10020400B879000808B5034B1BB103490348AFF3A1
:10021400008008BD0000000034040020B879000804
:10022400034613F8012B002AFBD1181A0138704732
:100234000FB4F0B583B008AD55F8047B0E4C4FF401
:10024400807632460021204606F01EFA01952B46A0
:100254003A463146204606F0B7FA2046FFF7E0FF5B
:100264004FF47A7382B22146044801F0D0FE03B001
:10027400BDE8F04004B070474C040020140800208E
:1002840072B6FEE700B591B02822002106A806F058
:10029400FBF9002301930293039304930593012232
:1002A40006924FF4803307930A9202220D920E9322
:1002B4004FF4E0130F9306A800F0E0FD80B90F237C
:1002C400019302210291002303934FF4806204926C
:1002D400059301A801F004F820B911B05DF804FBFE
:1002E400FFF7CEFFFFF7CCFF10B500F079FDFFF765
:1002F400C9FF02F0F3F902F02BFC02F031FB02F02B
:100304003DFA02F05FFA02F04BFB02F053FC32209C
:1003140000F08AFD06F010F902F00EFC08B1FFF7B8
:10032400AFFF0E4A0E490F48FFF782FF002402E098
:1003340000F074FD044605F0A5FD00F06FFDA04239
:10034400F9D0094BA3FB042323F0030202EB93032C
:100354009C42EDD106F0E2F8EAE700BFEC79000830
:10036400F8790008047A0008CDCCCCCCFEE7FEE78F
:10037400FEE7FEE7FEE770477047704708B500F0F8
:1003840041FD08BD08B5024801F032FB08BD00BFBD
:100394005005002008B5024801F02AFB08BD00BF43
:1003A4009405002008B5024801F022FB08BD00BFF7
:1003B400D007002008B5024801F01AFB08BD00BFB1
:1003C4008C07002008B5024800F058FC08BD00BFA7
:1003D400D805002000B583B0154B1B681A6812F0CD
:1003E400100F05D1124801F073FF03B05DF804FB50
:1003F400002201921A6801925B680193019B0C48E8
:1004040001F06BFE0B4B1B685B68C3F580739BB2FA
:10041400094A138013889BB213B1084B01221A7046
:100424004FF480720649024802F044F9DAE700BF4B
:10043400140800208C0700208A0700208807002069
:100444008806002008B5024801F042FF08BD00BF3D
:100454005C08002082B00E4B9A6942F001029A6156
:100464009A6902F001020092009ADA6942F080521D
:10047400DA61DB6903F080530193019B054A5368F9
:1004840023F0E06343F00073536002B0704700BF91
:1004940000100240000001402DE9F04782B00546FB
:1004A400884617461E4600F0B9FC0A9B1B1A03EB4C
:1004B400060900F0B3FC82462B4B1B68C3F3CB3315
:1004C40009FB03F301932B689C6838EA04030CBF0F
:1004D4004FF0010C4FF0000CBC4540D0B6F1FF3F8B
:1004E400F1D000F09BFCA0EB0A0048450AD2B9F118
:1004F400000F07D0019A02B14A46019B013B0193C8
:100504009146E0E72A68536823F0E00353606B6880
:10051400B3F5827F0BD0AB6AB3F5005F14D001232F
:1005240085F85130002385F85030032018E0AB687B
:10053400B3F5004F02D0B3F5806FECD12A6813688D
:1005440023F040031360E6E72A68136823F400539A
:1005540013602A68136843F400531360DFE7002034
:1005640002B0BDE8F08700BF0800002070B582B07B
:1005740006460C46154600920B4601220221FFF75F
:100584008BFF48B900952346002280213046FFF7AF
:1005940083FF38B902B070BD736D43F020037365F7
:1005A4000320F7E7736D43F0200373650320F1E73D
:1005B40010B582B004460B464168B1F5827F10D075
:1005C4006168B1F5827F03D1A168B1F5806F15D060
:1005D4000092002280212046FFF75EFFE0B902B0BE
:1005E40010BD8168B1F5004F02D0B1F5806FE7D13D
:1005F4002068016821F040010160E1E700920022D7
:1006040001212046FFF748FF0028E8D0636D43F03E
:10061400200363650320E2E7636D43F02003636511
:100624000320DCE7002856D010B50446436A33B9EA
:100634004368B3F5827F05D00023C36102E0002341
:10064400036143610023A36294F85130002B3CD032
:10065400022384F851302268136823F040031360A6
:10066400636803F48273A26802F404421343E268E9
:1006740002F400621343226902F002021343626926
:1006840002F001021343A26902F400721343E26907
:1006940002F038021343226A02F080021343A26A72
:1006A40002F40052216813430B60638B226803F049
:1006B400040353602268D36923F40063D3610020E8
:1006C4006065012384F8513010BD84F85030204611
:1006D40002F09AF8BCE7012070472DE9F04383B09B
:1006E4000446894690461D4600F098FB94F85160F4
:1006F400F6B2012E40F0CC800746B9F1000F00F0AD
:10070400C880B8F1000F00F0C48094F85030012B79
:1007140000F0C380012384F85030032384F851305F
:1007240000236365C4F83090A4F83480A4F83680BC
:10073400A363A387E38763642364A368B3F5004FCB
:100744001ED023681A6812F0400F03D11A6842F0D1
:1007540040021A60E368B3F5006F1CD0636813B1FC
:10076400B8F1010F5FD1226B236812781A73236BDF
:1007740001332363E38E9BB2013B9BB2E38652E0D9
:100784002268136823F0400313602268136843F45B
:1007940080431360D5E7636813B1B8F1010F15D135
:1007A400226B23681288DA60236B02332363E38E9F
:1007B4009BB2013B9BB2E38608E000F02FFBC01B19
:1007C400A84202D3B5F1FF3F15D1A5B1E38E9BB288
:1007D400002B42D023689A6812F0020FEDD0226BEE
:1007E4001288DA60236B02332363E38E9BB2013BEE
:1007F4009BB2E386EAE7012384F85130002384F8AE
:100804005030032645E0226B12781A73236B0133B0
:100814002363B4F836C01FFA8CFC0CF1FF3C1FFABA
:100824008CFCA4F836C0E38E9BB2B3B123689A68FB
:1008340012F0020FE7D100F0F1FAC01BA84202D374
:10084400B5F1FF3F01D1002DEDD1012384F85130E2
:10085400002384F8503003261BE03A4629462046FC
:10086400FFF784FE08B120236365A36833B90193BD
:100874002368DA6801929B680193019B012384F841
:100884005130002384F85030636D13B9002600E022
:100894000226304603B0BDE8F0830226F9E72DE9CD
:1008A400F04383B00446884691461F460A9D00F0F3
:1008B400B5FA064694F85130DBB26268012B0AD0CF
:1008C400B2F5827F40F00581A268002A40F00581DC
:1008D400042B40F00481B8F1000F00F00281B9F15B
:1008E400000F00F00081002F00F0FF8094F85030DA
:1008F400012B00F0FC80012384F8503094F851302F
:10090400DBB2042B02D0052384F851300023636545
:10091400C4F83890E787A787C4F83080E786A786AD
:100924002364636423681A6812F0400F03D11A68C1
:1009340042F040021A60E368B3F5006F11D06368B7
:100944000BB1012F0BD1226B236812781A73236B1E
:1009540001332363E38E9BB2013B9BB2E386012701
:1009640071E063680BB1012F0BD1226B23681288ED
:10097400DA60236B02332363E38E9BB2013B9BB2A9
:10098400E38601271BE023689A6812F0010F0ED05A
:10099400E28F92B25AB1DA68A36B1A80A36B023366
:1009A400A363E38F9BB2013B9BB2E387012700F073
:1009B40035FA801BA84202D3B5F1FF3F1ED1E38E66
:1009C4009BB21BB9E38F9BB2002B62D023689A6859
:1009D40012F0020FD7D0E28E92B2002AD3D0002FA9
:1009E400D1D0226B1288DA60236B02332363E38E47
:1009F4009BB2013B9BB2E3860027C4E7012384F842
:100A04005130002384F85030032063E023689A684F
:100A140012F0010F0ED0E28F92B25AB1DA68A36BD2
:100A24001A70A36B0133A363E38F9BB2013B9BB2A8
:100A3400E387012700F0F2F9831BAB4202D3B5F13F
:100A4400FF3F1ED1EDB1E38E9BB213B9E38F9BB28E
:100A5400FBB123689A6812F0020FD7D0E28E92B2EB
:100A6400002AD3D0002FD1D0226B12781A73236BB3
:100A740001332363E38E9BB2013B9BB2E3860027E1
:100A8400C4E7012384F85130002384F85030032054
:100A940020E0324629462046FFF768FD90B9A36856
:100AA40033B901932368DA6801929B680193019B2F
:100AB400012384F85130002384F85030636D4BB126
:100AC400012007E020236365002384F850300120CF
:100AD40000E0022003B0BDE8F0830220FAE7022020
:100AE400F8E70120F6E70120F4E70120F2E702200D
:100AF400F0E72DE9F04383B090F85160F6B2012E8F
:100B040040F0B4800446894690461D464368B3F5D8
:100B1400827F01D1836893B300F080F90746B9F16D
:100B2400000F00F0A480B8F1000F00F0A08094F84A
:100B34005030012B00F09F80012384F850300423AF
:100B440084F8513000236365C4F83890A4F83C80DD
:100B5400A4F83E802363A386E38623646364A368C6
:100B6400B3F5004F15D023681A6812F0400F03D173
:100B74001A6842F040021A60E368F3B143E00423C8
:100B840080F85130009513460A46FFF788FE064662
:100B94006DE02268136823F0400313602268136831
:100BA40023F480431360DEE700F038F9C01BA84249
:100BB40002D3B5F1FF3F15D1A5B1E38F9BB2002B52
:100BC40042D023689A6812F0010FEDD0A26B1B7B10
:100BD4001370A36B0133A363E38F9BB2013B9BB2FE
:100BE400E387EAE7012384F85130002384F8503086
:100BF40003263CE000F012F9C01BA84202D3B5F171
:100C0400FF3F19D1C5B1E38F9BB2EBB123689A685A
:100C140012F0010FEED0DA68A36B1A80A36B0233D3
:100C2400A363B4F83EC01FFA8CFC0CF1FF3C1FFA1E
:100C34008CFCA4F83EC0E6E7012384F8513000237D
:100C440084F85030032612E03A4629462046FFF73E
:100C5400AFFC08B120236365012384F851300023DD
:100C640084F85030636D13B9002600E00226304644
:100C740003B0BDE8F0830226F9E7704730B585B0CC
:100C84000446026851689368C3F3801013F0400F60
:100C940005D113F0010F02D011F0400F5AD113F017
:100CA400020F02D011F0800F58D1C3F3401513F096
:100CB400200F01D1002854D011F0200F51D078B169
:100CC40094F85130DBB2032B4DD0636D43F0040331
:100CD400636500230193D368019393680193019B97
:100CE40065B1636D43F00103636500230393936867
:100CF4000393136823F040031360039B636D002B7D
:100D04002FD02268536823F0E0035360012384F852
:100D1400513011F0030F2ED02268536823F00303DF
:100D24005360E36C4BB1164A5A63E06C00F0AAFDC1
:100D340018B1636D43F040036365A36C8BB1104A33
:100D44005A63A06C00F09EFD58B1636D43F04003FC
:100D5400636506E0236C2046984702E0636C2046F6
:100D6400984705B030BD00230293D368029393687B
:100D74000293029BF5E72046FFF77FFFF1E700BFF0
:100D8400890D000808B5406A0023C387C386FFF7AE
:100D940074FF08BD10B504460E4B18784FF47A73EF
:100DA400B3FBF0F30C4A1068B0FBF3F000F0EEFF75
:100DB40068B90F2C01D901200AE0002221464FF026
:100DC400FF3000F09DFF054B1C60002000E0012077
:100DD40010BD00BF00000020080000200400002017
:100DE40008B5074A136843F010031360032000F0AA
:100DF40075FF0F20FFF7CEFFFFF72CFB002008BD87
:100E040000200240034A1168034B1B780B44136013
:100E1400704700BF4C05002000000020014B1868FB
:100E2400704700BF4C05002038B50446FFF7F6FFB5
:100E34000546B4F1FF3F02D0044B1B781C44FFF776
:100E4400EDFF401BA042FAD338BD00BF00000020D4
:100E540082B0084B1B68084AA2FB03235B0A00FB11
:100E640003F3019300BF019B5A1E0192002BF9D199
:100E740002B0704708000020D34D6210002800F033
:100E8400F18170B582B00446036813F0010F2CD0D1
:100E9400994B5B6803F00C03042B1DD0964B5B68E5
:100EA40003F00C03082B12D06368B3F5803F41D0E4
:100EB400002B55D103F1804303F504331A6822F45F
:100EC40080321A601A6822F480221A6037E08A4B52
:100ED4005B6813F4803FE7D0874B1B6813F4003F33
:100EE40003D06368002B00F0BF81236813F0020F66
:100EF40075D0814B5B6813F00C0F5FD07E4B5B6841
:100F040003F00C03082B54D02369002B00F08A80D3
:100F14007A4B01221A60FFF781FF0546764B1B6866
:100F240013F0020F75D1FFF779FF401B0228F5D9A2
:100F340003209EE1704A136843F4803313606368AE
:100F440043B3FFF76BFF05466B4B1B6813F4003F7D
:100F5400CBD1FFF763FF401B6428F5D9032088E158
:100F6400B3F5A02F09D0644B1A6822F480321A60BA
:100F74001A6822F480221A60E1E703F18043A3F5A2
:100F84003C331A6842F480221A601A6842F48032B0
:100F94001A60D4E7FFF742FF0546574B1B6813F46A
:100FA400003FA2D0FFF73AFF401B6428F5D9032085
:100FB4005FE1514B5B6813F4803FA5D14E4B1B6836
:100FC40013F0020F03D02369012B40F04F814A4AEA
:100FD400136823F0F803616943EAC10313602368CB
:100FE40013F0080F33D0A369002B5CD0434B0122CC
:100FF400C3F88024FFF712FF05463F4B5B6A13F0EA
:10100400020F21D1FFF70AFF401B0228F5D9032064
:101014002FE1394A136823F0F803616943EAC103F5
:101024001360DCE7354B00221A60FFF7F7FE054634
:10103400314B1B6813F0020FD1D0FFF7EFFE401BBA
:101044000228F5D9032014E10120FFF701FF2368EA
:1010540013F0040F00F09680274BDB6913F0805FD8
:1010640034D1254BDA6942F08052DA61DB6903F04E
:1010740080530193019B0125214B1B6813F4807F4E
:1010840026D0E368012B3DD0002B53D103F18043DC
:1010940003F504331A6A22F001021A621A6A22F072
:1010A40004021A6233E0154B0022C3F88024FFF7D0
:1010B400B5FE0546104B5B6A13F0020FC7D0FFF76D
:1010C400ADFE401B0228F5D90320D2E00025D3E76A
:1010D4000B4A136843F480731360FFF79FFE0646C0
:1010E400074B1B6813F4807FCBD1FFF797FE801B5F
:1010F4006428F5D90320BCE00010024000004242FD
:10110400007000405F4A136A43F001031362E3680E
:1011140033B3FFF783FE06465A4B1B6A13F0020FE4
:101124002FD1FFF77BFE801B41F288339842F3D91D
:1011340003209EE0052B09D0524B1A6A22F00102CB
:101144001A621A6A22F004021A62E0E74D4B1A6A24
:1011540042F004021A621A6A42F001021A62D6E7E5
:10116400FFF75CFE0646474B1B6A13F0020F08D0DC
:10117400FFF754FE801B41F288339842F3D90320D1
:1011840077E0E5B9E369002B72D03E4A526802F079
:101194000C02082A56D0022B17D03B4B00221A66A9
:1011A400FFF73CFE0446374B1B6813F0007F47D023
:1011B400FFF734FE001B0228F5D9032059E0314A19
:1011C400D36923F08053D361DCE72F4B00221A66E6
:1011D400FFF724FE05462B4B1B6813F0007F06D057
:1011E400FFF71CFE401B0228F5D9032041E0236AC7
:1011F400B3F5803F1AD023494B6823F47413226A51
:10120400606A024313434B601F4B01221A66FFF7C7
:1012140005FE04461B4B1B6813F0007F0ED1FFF73D
:10122400FDFD001B0228F5D9032022E0154A53686E
:1012340023F40033A1680B435360DCE7002018E07B
:10124400002016E0012B16D00E4B5B6803F48031AE
:10125400226A914211D103F47013626A93420ED14F
:10126400002006E001207047012002E0012000E098
:10127400002002B070BD0120FBE70120F9E7012046
:10128400F7E700BF00100240000042420F4B5B68CA
:1012940003F00C02082A01D00D487047C3F38342BF
:1012A4000C49885C13F4803F0BD0084B5B68C3F394
:1012B4004043094AD35C064A02FB00F0B0FBF3F05A
:1012C4007047064B03FB00F0704700BF001002405C
:1012D40000127A00207A0008307A000800093D00E4
:1012E400002800F0A08070B50D460446524B1B68E0
:1012F40003F007038B420BD24F4A136823F0070312
:101304000B431360136803F007038B4240F08D8096
:10131400236813F0020F17D013F0040F04D0474AC8
:10132400536843F4E0635360236813F0080F04D058
:10133400424A536843F460535360404A536823F06D
:10134400F003A1680B435360236813F0010F31D0FD
:101354006368012B20D0022B25D0384A126812F082
:10136400020F64D035494A6822F0030213434B60EC
:10137400FFF754FD0646314B5B6803F00C036268CB
:10138400B3EB820F16D0FFF749FD801B41F288337F
:101394009842F0D9032045E0284A126812F4003F2D
:1013A400E0D101203EE0254A126812F0007FD9D135
:1013B400012037E0204B1B6803F00703AB420AD936
:1013C4001D4A136823F007032B431360136803F0CB
:1013D4000703AB422DD1236813F0040F06D0174A3C
:1013E400536823F4E063E1680B435360236813F00C
:1013F400080F07D0114A536823F46053216943EA64
:10140400C1035360FFF742FF0C4B5B68C3F3031344
:101414000B4AD35CD8400B4B18600B4B1868FFF792
:10142400B9FC002070BD012070470120FAE70120BB
:10143400F8E70120F6E700BF002002400010024058
:10144400347A00080800002004000020014B1868CA
:10145400704700BF0800002008B5FFF7F7FF044BF2
:101464005B68C3F30223034AD35CD84008BD00BFC2
:1014740000100240447A000808B5FFF7E7FF044B68
:101484005B68C3F3C223034AD35CD84008BD00BFE2
:1014940000100240447A000870B582B00024A446CB
:1014A400B0E0874DAA4210D007D9864DAA420CD08D
:1014B40005F58035AA4208D013E0A5F58015AA42A7
:1014C40003D005F57025AA4207D18A68002A62D0A4
:1014D400012A5BD04361082403E0A5F58015AA42E4
:1014E400F3D0BEF1FF0F58D80646BEF1FF0F56D811
:1014F4004FEA8C0233680F25954023EA050304FA6A
:1015040002F2134333604B6813F0805F78D06E4B64
:101514009A6942F001029A619B6903F00103019305
:10152400019B4FEA9C02951C684B53F825600CF014
:1015340003039D000F23AB4026EA0306644B984245
:1015440033D003F58063984200F0988003F58063FC
:10155400984200F0958003F58063984200F09280F1
:1015640003F58063984200F08F8003F5806398420E
:1015740019D006231AE0CC68B3E7CC680434B0E78A
:10158400CC680834ADE7CC680C34AAE703610824BE
:10159400A7E70024A5E70424A3E7061DA5E7ACF10B
:1015A40008029200A6E7052300E00023AB40334382
:1015B4000232464D45F822304B6813F4801F65D043
:1015C400444A936843EA0E0393604B6813F4001F84
:1015D40062D0404AD36843EA0E03D3604B6813F4E5
:1015E400003F5FD03B4A536843EA0E0353604B68A5
:1015F40013F4803F5CD0374A136843EA0E03136048
:101604000CF1010C0A6832FA0CF357D0012303FAE7
:101614000CF302EA030E33EA0202F1D14A68122AF9
:101624003FF63FAF122A3FF65CAF01A555F822F012
:10163400CF1400087B1500088515000897150008CD
:10164400E7140008E7140008E7140008E71400088A
:10165400E7140008E7140008E7140008E71400087A
:10166400E7140008E7140008E7140008E71400086A
:10167400E71400087F1500088B150008012395E77F
:10168400022393E7032391E704238FE7114A936826
:1016940023EA0E03936098E70E4AD36823EA0E0305
:1016A400D3609BE70B4A536823EA0E0353609EE71B
:1016B400084A136823EA0E031360A1E702B070BD61
:1016C4000000221000003110001002400000014010
:1016D40000080140000401408368194201D0012040
:1016E4007047002070470AB1016170470904016125
:1016F4007047C36801EA030221EA030141EA024197
:101704000161704730B40124056CAC40C56B6C605A
:10171400046863604368102B05D00368996003680C
:10172400DA6030BC704703689A600368D960F8E7F0
:1017340000283AD010B4024600681D4B984229D8BC
:101744001C4B03441C49A1FB03131B099B0013649A
:101754001A4BD363022382F82130016821F47F51AC
:1017640021F03001536894682343D46823431469F7
:1017740023435469234394692343D46923430B4388
:10178400036000209063012382F8213082F8200056
:1017940010BC70470A4B03440749A1FB03131B0900
:1017A4009B001364074BD363D4E70120704700BF49
:1017B40007040240F8FFFDBFCDCCCCCC00000240B2
:1017C400F8FBFDBF0004024038B5044690F8200041
:1017D400012832D0012084F8200094F82100C0B2FE
:1017E400012804D0002384F82030022038BD0220D0
:1017F40084F821000020A0632568286820F00100F7
:1018040028602046FFF77EFFE36A5BB12268136815
:1018140043F00E0313602268136843F0010313605E
:101824000020E3E72268136823F0040313602268AE
:10183400136843F00A031360EDE70220D6E790F83B
:101844002130DBB2022B06D004238363002380F80B
:101854002030012070470268136823F00E031360E0
:101864000268136823F001031360036CC16B012247
:1018740002FA03F34B6080F82120002380F8203023
:101884001846704708B590F82130DBB2022B03D01C
:1018940004238363012008BD0268136823F00E0348
:1018A40013600268136823F00103136003684C4A51
:1018B40093424ED9783A934224D01432934230D092
:1018C400143293422FD0143293422FD014329342C5
:1018D4002FD0143293422FD0143293422FD002F5DA
:1018E400627293422ED0143293422DD0143293421A
:1018F4002CD01432934202D04FF4803203E04FF4E0
:10190400805200E00122374B5A60012380F82130D5
:10191400002380F82030436B002B5ED098470020D2
:10192400B9E71022EFE74FF48072ECE74FF48052EE
:10193400E9E74FF48032E6E74FF48012E3E74FF033
:101944008072E0E70122DEE71022DCE74FF48072C8
:10195400D9E7254A934224D01432934225D0143235
:10196400934224D01432934224D01432934224D08C
:101974001432934224D01432934224D002F562727A
:10198400934223D01432934222D01432934221D072
:101994001432934202D04FF4803203E04FF4805269
:1019A40000E00122114B5A60AFE71022FAE74FF42E
:1019B4008072F7E74FF48052F4E74FF48032F1E796
:1019C4004FF48012EEE74FF08072EBE70122E9E773
:1019D4001022E7E74FF48072E4E700205BE700BFE2
:1019E400800002400004024008000240000002405F
:1019F40038B5C36B1A6804682568016C04238B40EE
:101A0400134200F09B8015F0040F00F097802368C8
:101A140013F0200F03D1236823F004032360036829
:101A24009A4A934246D9783A934224D01432934244
:101A340028D01432934227D01432934227D0143240
:101A4400934227D01432934227D01432934227D0A2
:101A540002F56272934226D01432934225D0143296
:101A6400934224D01432934202D04FF4802203E0F4
:101A74004FF4804200E00422854B5A60C36A03B1EC
:101A8400984738BD4022F7E74FF48062F4E74FF4FB
:101A94008042F1E74FF48022EEE74FF48002EBE757
:101AA4004FF08062E8E70422E6E74022E4E74FF4DF
:101AB4008062E1E7774A934224D01432934225D0DE
:101AC4001432934224D01432934224D014329342D9
:101AD40024D01432934224D01432934224D002F5F9
:101AE4006272934223D01432934222D0143293422E
:101AF40021D01432934202D04FF4802203E04FF4F9
:101B0400804200E00422644B5A60B7E74022FAE7BF
:101B14004FF48062F7E74FF48042F4E74FF48022F9
:101B2400F1E74FF48002EEE74FF08062EBE7042226
:101B3400E9E74022E7E74FF48062E4E702238B40C1
:101B4400134200F0AB8015F0020F00F0A780236869
:101B540013F0200F06D1236823F00A032360012326
:101B640080F821300368494A93424BD9783A93422A
:101B740024D0143293422DD0143293422CD01432F8
:101B840093422CD0143293422CD0143293422CD052
:101B9400143293422CD002F5627293422BD0143249
:101BA40093422AD01432934229D01432934202D061
:101BB4004FF4003203E04FF4005200E00222344BB1
:101BC4005A60002380F82030836A002B3FF459AF19
:101BD400984756E72022F2E74FF40072EFE74FF4FC
:101BE4000052ECE74FF40032E9E74FF40012E6E765
:101BF4004FF00072E3E70222E1E72022DFE74FF42F
:101C04000072DCE7234A934224D01432934225D055
:101C14001432934224D01432934224D01432934287
:101C240024D01432934224D01432934224D002F5A7
:101C34006272934223D01432934222D014329342DC
:101C440021D01432934202D04FF4003203E04FF417
:101C5400005200E00222104B5A60B2E72022FAE759
:101C64004FF40072F7E74FF40052F4E74FF40032F8
:101C7400F1E74FF40012EEE74FF00072EBE70222B7
:101C8400E9E72022E7E74FF40072E4E7800002402E
:101C9400000402400800024000000240082303FA46
:101CA40001F111423FF4EDAE15F0080F3FF4E9AE37
:101CB400236823F00E032360026CC16B012303FA33
:101CC40002F24A60836380F82130002380F82030D8
:101CD400036B002B3FF4D5AE9847D2E6074AD3688E
:101CE40023F4E0631B041B0C000200F4E0600343D4
:101CF40043F0BF6343F40033D360704700ED00E06A
:101D040000B5194BDB68C3F30223C3F1070CBCF124
:101D1400040F28BF4FF0040C03F1040EBEF1060FAC
:101D240018D9033B4FF0FF3E0EFA0CFC21EA0C01DC
:101D340099400EFA03F322EA0303194300280BDB4C
:101D44000901C9B200F1604000F5614080F8001358
:101D54005DF804FB0023E5E700F00F000901C9B2B8
:101D6400024B1954F4E700BF00ED00E014ED00E06D
:101D7400002807DB00F01F02400901239340024AB8
:101D840042F82030704700BF00E100E00138B0F1B4
:101D9400807F0BD24FF0E0235861054AF02182F88E
:101DA40023100020986107221A61704701207047B0
:101DB40000ED00E0026802F10C0353E8003F23F059
:101DC400C0030C3242E800310029F3D1202380F80B
:101DD40041307047026802F10C0353E8003F23F4DA
:101DE40090730C3242E800310029F3D1026802F109
:101DF400140353E8003F23F00103143242E8003196
:101E04000029F3D1036B012B05D0202380F8423045
:101E1400002303637047026802F10C0353E8003F98
:101E240023F010030C3242E800310029F3D1ECE72F
:101E340090F84130DBB2212B01D002207047836837
:101E4400B3F5805F17D0036A5A1C02621A780368DC
:101E54005A60C38C9BB2013B9BB2C3844BB90268EA
:101E6400D36823F08003D3600268D36843F040034F
:101E7400D360002070470369002BE4D1036A1B88F8
:101E84000268C3F308035360036A02330362E0E7A2
:101E940010B504460268136923F44053C1680B4328
:101EA400136183680269134342691A430168CB686A
:101EB40023F4B05323F00C031343CB60026853693B
:101EC40023F4407381690B4353610268134B9A42B4
:101ED40020D0FFF7C1FA024602EB820202EB820233
:101EE40063689B00B2FBF3F20D48A0FB0231490981
:101EF400642303FB11231B013233A0FB03235B097F
:101F040003F0F00202EB011203F00F032168134403
:101F14008B6010BDFFF7B0FA0246DDE700380140E0
:101F24001F85EB512DE9F04383B005460E46174655
:101F34009946DDF828802C68246836EA04030CBF2F
:101F44004FF0010C4FF0000CBC4528D1B8F1FF3F15
:101F5400F1D0FEF763FFA0EB0900404523D8B8F1A8
:101F6400000F22D02B68DA6812F0040FE3D0802E21
:101F7400E1D0402EDFD01A6812F0080FDBD0002425
:101F840001941A6801925B680193019B2846FFF74C
:101F940021FF08236B6485F84040012000E0002005
:101FA40003B0BDE8F0830320FAE70320F8E760B349
:101FB40010B5044690F8413013B3242384F841301B
:101FC4002268D36823F40053D3602046FFF760FFF0
:101FD4002268136923F4904313612268536923F040
:101FE4002A0353612268D36843F40053D36000206A
:101FF4006064202384F8413084F84230606310BD6B
:1020040080F8403000F0E6FCD7E7012070472DE966
:10201400F04182B01E4690F84130DBB2202B56D1FD
:1020240004460D469046002955D00AB901204FE0D8
:1020340000234364212380F84130FEF7EFFE074676
:10204400A4F82480A4F82680A368B3F5805F02D0A6
:102054004FF0000814E023692BB34FF000080FE0A1
:10206400202384F84130032032E038F8023B226810
:10207400C3F308035360E28C92B2013A92B2E28451
:10208400E38C9BB293B100963B460022802120460C
:10209400FFF748FF0028E3D1002DE6D015F8012B07
:1020A40023685A60E7E7A8460025E9E700963B461F
:1020B400002240212046FFF735FF18B9202384F879
:1020C400413005E0202384F84130032000E0022061
:1020D40002B0BDE8F0810120FAE710B504460368B8
:1020E4005A6990F84130DBB2212B0AD023685A692F
:1020F40002F0400294F84230DBB2222B19D00020C7
:1021040010BD02F08002002AF0D0226802F114030C
:1021140053E8003F23F08003143242E800310029E1
:10212400F3D1A06B08B1FFF78AFB2046FFF742FE0C
:10213400DCE7002AE3D0226802F1140353E8003FED
:1021440023F04003143242E800310029F3D1E06B5C
:1021540008B1FFF774FB2046FFF73CFECFE770475A
:1021640008B50168CA6822F04002CA60202280F8DB
:102174004120FFF7F4FF002008BD70477047704707
:1021840010B5446A23685A6994F84130DBB2212BB4
:1021940010D023685A6902F0400294F84230DBB24E
:1021A400222B11D0636C43F0100363642046FFF7C5
:1021B400E6FF10BD02F08002002AEAD00023E38487
:1021C4002046FFF7F7FDE4E7002AEBD00023E38580
:1021D4002046FFF7FFFDE5E708B5406A0023C38505
:1021E400C384FFF7CCFF08BD704790F84230DBB2E0
:1021F400222B69D18368B3F5805F4FD0826AB3F52F
:10220400805F04D0002B56D10369002B53D103689F
:102214005B681370836A01338362C38D9BB2013B95
:102224009BB2C385002B51D100B583B00268D3683B
:1022340023F02003D3600268D36823F48073D3604F
:102244000268536923F001035361202380F842306C
:1022540000234363036B012B33D100230363026820
:1022640002F10C0353E8003F23F010030C3242E860
:1022740000310029F3D103681A6812F0100F06D058
:10228400002201921A6801925B680193019B818D7F
:10229400FFF7AAFF002003B05DF804FB0269002ADF
:1022A400ACD1826A03685B68C3F308031380836A52
:1022B40002338362B1E703685B6803F07F03137042
:1022C400A8E7FFF75AFFE5E70220704700207047B0
:1022D40030B583B0044602681368D068516913F0BE
:1022E4000F0505D113F0200F02D010F0200F19D1E3
:1022F4002DB111F0010119D110F4907F16D1216B89
:1023040001297DD013F0800F03D010F0800F40F02E
:10231400188113F0400F03D010F0400F40F01581E6
:1023240003B030BD2046FFF760FFF9E713F0010F5B
:1023340006D010F4807F03D0626C42F00102626424
:1023440013F0040F04D019B1626C42F0020262640B
:1023540013F0020F04D019B1626C42F004026264FB
:1023640013F0080F07D010F0200F00D119B1626CE0
:1023740042F008026264626C002AD1D013F0200F8C
:1023840002D010F0200F29D123685B6903F04003C9
:10239400626C12F0080F00D163B32046FFF71AFDF8
:1023A40023685B6913F0400F20D0226802F1140304
:1023B40053E8003F23F04003143242E8003100297F
:1023C400F3D1E36B73B1634A5A63E06BFFF75AFAD4
:1023D4000028A5D0E06B436B9847A1E72046FFF7A0
:1023E40004FFD1E72046FFF7CAFE99E72046FFF72E
:1023F400C6FE95E72046FFF7C2FE002363648FE71D
:1024040013F0100F3FF47EAF10F0100F3FF47AAFCB
:10241400002301931368019353680193019B53694B
:1024240013F0400F51D0E26B13685B689BB2002B32
:102434003FF476AFA18D99427FF672AFE38593693D
:10244400202B37D0226802F10C0353E8003F23F419
:1024540080730C3242E800310029F3D1226802F182
:10246400140353E8003F23F00103143242E800311F
:102474000029F3D1226802F1140353E8003F23F04A
:102484004003143242E800310029F3D1202384F8B8
:10249400423000232363226802F10C0353E8003F17
:1024A40023F010030C3242E800310029F3D1E06B31
:1024B400FFF7C5F902236363A18DE38D9BB2C91AAB
:1024C40089B22046FFF790FE2AE7A18DE38D9BB2E7
:1024D400C91A89B2E38D9BB2002B3FF421AF0029C6
:1024E4003FF41EAF226802F10C0353E8003F23F4CB
:1024F40090730C3242E800300028F3D1226802F1D4
:10250400140353E8003F23F00103143242E800307F
:102514000028F3D1202384F8423000232363226867
:1025240002F10C0353E8003F23F010030C3242E89D
:1025340000300028F3D1022363632046FFF754FEE2
:10254400EEE62046FFF774FCEAE62046FFF708FEB5
:10255400E6E600BFDD21000808B5406A01234363B5
:10256400036B012B02D0FFF709FE08BD818D4908DA
:10257400FFF73AFEF9E708B50346406A1B681B6893
:1025840013F0200F2BD10023C385026802F10C0342
:1025940053E8003F23F480730C3242E800310029F1
:1025A400F3D1026802F1140353E8003F23F001035E
:1025B400143242E800310029F3D1026802F1140315
:1025C40053E8003F23F04003143242E8003100296D
:1025D400F3D1202380F84230036B012B07D0002372
:1025E4004363036B012B0FD0FFF7C7FD08BD0268DF
:1025F40002F10C0353E8003F23F010030C3242E8CD
:1026040000310029F3D1EAE7818DFFF7EDFDEDE715
:1026140030B583B004461346816282850025456443
:10262400222280F84220C26B1F489062E26B1F484E
:10263400D062E26B1E481063E26B556320680A4661
:10264400011DE06BFFF7C0F8019523681A68019239
:102654005B680193019B23695BB1226802F10C035F
:1026640053E8003F43F480730C3242E80031002900
:10267400F3D1226802F1140353E8003F43F001034D
:10268400143242E800310029F3D1226802F1140324
:1026940053E8003F43F04003143242E8003100297C
:1026A400F3D1002003B030BD7B2500085D25000870
:1026B4008521000808B590F84230DBB2202B08D100
:1026C40049B10AB9012008BD00230363FFF7A0FF45
:1026D400F9E70220F7E70120F5E770472DE9F0411B
:1026E40088B000240494059406940794204B9A69B6
:1026F40042F010029A619A6902F010020192019A62
:102704009A6942F004029A619A6902F00402029200
:10271400029A9A6942F008029A619B6903F00803DD
:102724000393039BDFF84C80224610214046FEF7BA
:10273400DAFF114D224640212846FEF7D4FF10232C
:102744000493012705970694022607960DEB0301CF
:102754004046FEF7A1FE402304930597069407968E
:1027640004A92846FEF798FE08B0BDE8F08100BF32
:1027740000100240000801400010014008B50F4855
:102784000F4B03604FF48273436000238360C36084
:1027940002220261012242614FF40072826120220E
:1027A400C2610362436283620A23C362FDF73AFF94
:1027B40000B908BDFDF764FDFBE700BFD8050020A4
:1027C4000030014008B50E480E4B03604FF482738D
:1027D400436000238360C3600361012242614FF4BC
:1027E400007282612822C2610362436283620A2307
:1027F400C362FDF717FF00B908BDFDF741FDFBE714
:10280400300600200038004070B588B000230493DF
:102814000593069307930368484A934204D0484AB1
:10282400934260D008B070BD0446464B9A6942F4A6
:1028340080529A619A6902F480520092009A9A69CD
:1028440042F004029A619B6903F004030193019B23
:10285400A023049302230593032307933A4E04A968
:102864003046FEF719FE402304930025059506958E
:1028740004A93046FEF710FE3448354B036045602A
:1028840085608023C3600561456185614FF44053D1
:10289400C361FEF74DFF00BB2C4BE3645C622D4823
:1028A4002D4B036010234360002383608022C260A9
:1028B4000361436183614FF44053C361FEF738FF02
:1028C40070B9244BA3645C62002211462320FFF7F5
:1028D40017FA2320FFF74CFAA4E7FDF7D1FCDBE756
:1028E400FDF7CEFCEDE7174BDA6942F48042DA617A
:1028F400DA6902F480420292029A9A6942F008026A
:102904009A619B6903F008030393039B4FF42043EC
:1029140004930223059303230793104C04A9204630
:10292400FEF7BAFD4FF48043049300230593069306
:1029340004A92046FEF7B0FD74E700BF0030014053
:1029440000380040001002400008014050050020FB
:102954001C0002409405002030000240000C01409D
:1029640008B50D480D4B03604FF461234360002309
:102974008360C36003610C2242618361C361FFF71A
:1029840016FB30B9044B1A68D36843F01003D360C4
:1029940008BDFDF775FCF5E7140800200038014078
:1029A40008B50A480A4B03604FF4E133436000233F
:1029B4008360C36003610C2242618361C361FFF7DA
:1029C400F6FA00B908BDFDF75BFCFBE75C080020E4
:1029D4000044004070B588B0002304930593069327
:1029E400079303684C4A934204D04C4A934262D002
:1029F40008B070BD04464A4B9A6942F480429A6119
:102A04009A6902F480420092009A9A6942F00402A0
:102A14009A619B6903F004030193019B4FF40073D3
:102A2400049302230593032307933E4E04A93046DF
:102A3400FEF732FD4FF48063049300250595069557
:102A440004A93046FEF728FD3748384B036045603B
:102A540085608023C3600561456185614FF44053FF
:102A6400C361FEF765FE00BB2F4BE3635C62304835
:102A7400304B036010234360002383608022C260D4
:102A84000361436183614FF44053C361FEF750FE19
:102A940070B9274BA3635C62002211462520FFF71F
:102AA4002FF92520FFF764F9A2E7FDF7E9FBDBE73F
:102AB400FDF7E6FBEDE71A4BDA6942F40032DA611E
:102AC400DA6902F400320292029A9A6942F004022C
:102AD4009A619B6903F004030393039B0423049307
:102AE40002230593032307930E4D04A92846FEF7FA
:102AF400D3FC0823049300240594069404A92846CF
:102B0400FEF7CAFC224621462620FFF7F9F82620C4
:102B1400FFF72EF96CE700BF003801400044004085
:102B240000100240000801408C07002058000240B9
:102B3400D00700204400024008B54FF480720249D7
:102B44000248FFF7B7FD08BD8806002014080020DE
:102B540000B583B0164B5A6942F001025A615B69B1
:102B640003F001030193019B002211460C20FFF79F
:102B7400C7F80C20FFF7FCF8002211460D20FFF7E0
:102B8400BFF80D20FFF7F4F8002211460E20FFF7DE
:102B9400B7F80E20FFF7ECF8002211460F20FFF7DC
:102BA400AFF80F20FFF7E4F803B05DF804FB00BFB3
:102BB4000010024008B50B480B4B03600B4B4360FD
:102BC40000238360C3604FF48042026143618361E8
:102BD400C361036200F03EF800B908BDFDF750FB85
:102BE400FBE700BFA408002000540040801A060040
:102BF40010B586B0002302930393049305930268EF
:102C0400114B9A4201D006B010BD104CA36943F099
:102C14000803A361A36903F008030093009BC02386
:102C24000293122303930323059302A90848FEF792
:102C340033FCE36943F40013E361E36903F4001331
:102C44000193019BDFE700BF0054004000100240E5
:102C5400000C0140002800F0CC8070B5044690F8C8
:102C64003D30002B77D0242384F83D30226813684C
:102C740023F0010313602268136843F400431360D4
:102C84002268136823F400431360FEF7E5FB6268CF
:102C94005A4B9A4264D85A4B98428CBF0023012362
:102CA400002B40F0A8805749A1FB00318B0C25680C
:102CB4006A6822F03F0242EA91426A6021680A6A25
:102CC40022F03F0266684D4DAE424FD801331343A4
:102CD4000B622168CA6922F44F4222F0FF0266683F
:102CE400464B9E424CD8431E7600B3FBF6F30133A9
:102CF40040F6FC70034278D0C3F30B031343CB615B
:102D040021680B6823F0C003E269206A024313437D
:102D14000B6021688B6823F4034323F0FF032269CB
:102D2400E068024313438B602168CB6823F0FF0300
:102D34006269A06902431343CB602268136843F0BD
:102D44000103136000202064202384F83D302063B5
:102D540084F83E0070BD80F83C30FFF749FF82E7FD
:102D6400294B98428CBF0023012399E74FF49675B1
:102D740005FB03F3254DA5FB03539B090133A6E78C
:102D8400A368BBB9451E06EB460CB5FBFCF5013543
:102D9400C5F30B05B5FA85F56D0945BBC3B9013813
:102DA40006EB4603B0FBF3F30133C3F30B0343F425
:102DB4000043A3E7451E06EB860C0CEB8C0CB5FB1D
:102DC400FCF50135C5F30B05B5FA85F56D09E4E7A6
:102DD400013806EB860303EB8303B0FBF3F3013303
:102DE400C3F30B0343F4404388E7042386E701233A
:102DF40084E7012070470120ACE700BFA0860100F2
:102E04007F841E0083DE1B43FF083D00D34D621008
:102E14004278007840EA02207047C278837843EA17
:102E24000222437843EA0223007840EA03207047F1
:102E34000170090A417070470170C1F307234370A0
:102E4400C1F307438370090EC1707047802804D909
:102E5400FF2804D128B100207047002070470120CA
:102E64007047012070473F280BD97E280BD910F0FA
:102E7400800F02D148B100207047FF28FAD001200A
:102E840070470020704701207047012070470239C5
:102E94008369023B8B4204D9036B408901FB0030F8
:102EA40070470020704770B506460D4601F11A00C0
:102EB400FFF7AEFF3378032B00D070BD044605F155
:102EC4001400FFF7A5FF44EA0040F6E770B5064694
:102ED4000C46154691B204F11A00FFF7A9FF3378A6
:102EE400032B00D070BD290C04F11400FFF7A0FFE0
:102EF400F8E700002DE9F84380460F4691464B73EE
:102F04000F23CB7200240C73214607F11A00FFF73C
:102F14008FFF09F1FF3606EB460306EB83062546D1
:102F240002E001340C2C11D84FF6FF739D4202D0FD
:102F340038F8165001360C4B185D29463844FFF713
:102F440077FF002DEDD14FF6FF75EAE74FF6FF73DB
:102F54009D4202D038F816300BB949F0400987F881
:102F64000090BDE8F88300BFA07A000802460B2158
:102F74000020C30143EA5000C0B213780132184460
:102F8400C0B20139F5D1704784460168C9B10A4617
:102F9400137801321F2B01D93A2BF9D13A2B01D0E6
:102FA400002070470878A0F13003DBB2092B0BD85E
:102FB400023191420BD1303800280BDCCCF80020D0
:102FC40070474FF0FF3070474FF0FF3070474FF0BD
:102FD400FF3070474FF0FF30704738B50D46044658
:102FE40098B103689BB11A78A2B18188DA889142BA
:102FF40003D0092000242C6038BD587802F0DCF896
:1030040010F0010009D12468F5E70920F3E71C4614
:103014000920F0E709200024EDE709200024EAE76D
:1030240070B505790DB9284670BD044600F1340623
:103034000123026A3146407802F012F9054688B944
:1030440000232371216AA36ACB1AE2699342EAD26C
:10305400E378022BE7D101230A443146607802F079
:10306400FFF8E0E70125DEE770B5036A8B4202D181
:103074000026304670BD04460D46FFF7D1FF0646D4
:103084000028F6D101232A4604F13401607802F0C5
:10309400B7F810B101264FF0FF352562E9E70000CB
:1030A40038B50446002303714FF0FF330362FFF782
:1030B400DBFF00285AD104F23220FFF7A9FE0546AF
:1030C40094F83430EB2B09D0E92B07D0E82B05D04A
:1030D4004AF655239D4247D0032038BD4AF655236E
:1030E4009D4237D004F13F00FFF792FE94F841204F
:1030F400431E1842ECD1B0F5805FE9D3E8D8002A2A
:10310400E6D0531E1A42E3D104F14200FFF780FED9
:103114000028DDD094F84430013B012BD8D804F1C9
:103124004500FFF775FE0028D2D004F14700FFF7F1
:103134006FFE7F2806D804F15400FFF76EFEB0F549
:10314400803FC5D304F14A00FFF762FE0028BFD0D8
:103154000020C2E70822064904F1860003F076FA4B
:103164000028BFD10020B8E70220B6E70420B4E766
:103174004C7A000870B584B006460D460021FFF76E
:103184008FFF022803D02BD855B3002400E000247D
:10319400032C0ED806F13400230103F5E37318441D
:1031A400FFF73BFE04AB03EB840343F8100C01343C
:1031B400EEE70DB16C1E0AE02C4608E03046FFF73E
:1031C4006FFF6DB901280BD90134032C08D804AB67
:1031D40003EB840353F8101C0029EFD10320F0E71C
:1031E40004B070BD2DE9F84F0D46164600230B6060
:1031F400FFF7CAFE0028C0F217819E4B53F8204007
:10320400002C00F015812C6006F0FE06237873B1C3
:10321400607801F0D1FF10F0010508D1002E00F014
:10322400048110F0040F00F000810A25FDE0002362
:103234002370607801F0D6FF10F0010540F0FA80A9
:103244001EB110F0040F40F0F78000212046FFF774
:1032540091FF042800F0F280012800F2F180266A30
:1032640004F13F00FFF7D4FDB0F5805F40F0EA8041
:1032740004F14A00FFF7CCFD074620B904F15800D9
:10328400FFF7CBFD0746E76194F84420E270531E34
:10329400DBB2012B00F2D88007FB02F894F84190CE
:1032A400A4F80A90B9F1000F00F0D08009F1FF33BF
:1032B40019EA030F40F0CC8004F14500FFF7A8FDA4
:1032C4008246208110F07F0F40F0C48004F1470053
:1032D400FFF79EFD834620B904F15400FFF79DFDDE
:1032E400834604F14200FFF793FD0246002800F0F4
:1032F400B38000EB080303EBDA139B45C0F0AE8008
:10330400ABEB030BBBFBF9F1CB45C0F0A9805A48EA
:10331400814210D94FF0000B4FF6F570814201D86D
:103324004FF0020B40F6F570814207D9BBF1000F54
:1033340006D10D2579E04FF0030BEDE74FF0010BBB
:1033440001F10209C4F8189066623244A26233445F
:103354002363BBF1030F25D0BAF1000F00F0868080
:103364004244E262BBF1020F2DD009EB490309F09C
:10337400010909EB530909F6FF73B7EB133F77D340
:103384004FF0FF336361236180236371BBF1030F4B
:103394001CD084F800B0394A138801339BB21380DF
:1033A400E38042E004F15E00FFF732FD002859D1CA
:1033B400BAF1000F58D104F16000FFF72EFDE0626E
:1033C4004FEA8909D7E74FEA4909D4E704F16400D1
:1033D400FFF71EFD0128DCD1711C2046FFF744FED7
:1033E4000028D6D10023637104F13400FFF715FDE2
:1033F400234B9842CDD104F50670FFF70EFD214B07
:103404009842C6D104F50C70FFF707FD1E4B984295
:10341400BFD104F50770FFF700FD606104F5087083
:10342400FFF7FBFC2061B4E70B252846BDE8F88FC5
:103434000C25FAE70325F8E70A25F6E70125F4E762
:103444000D25F2E70D25F0E70D25EEE70D25ECE758
:103454000D25EAE70D25E8E70D25E6E70D25E4E768
:103464000D25E2E70D25E0E70D25DEE70D25DCE778
:103474000D25DAE7F8080020F5FFFF0FFC0800200F
:103484005252614172724161000055AA2DE9F04720
:10349400012940F2818007460C46164683698B4217
:1034A4007CD90378022B45D0032B58D0012B03D0B1
:1034B40002252846BDE8F08701EB5108816A01EB3B
:1034C4001831FFF7D1FD05460028F2D107F1340A7F
:1034D40008F10109C8F30B0814F001041FD01AF90C
:1034E400083003F00F03320102F47F621343DBB2AE
:1034F4000AF8083001233B71B96A01EB19313846E7
:10350400FFF7B2FD05460028D3D1C9F30B0944B136
:10351400C6F307120AF8092001233B71C9E7F3B285
:10352400E6E71AF9092022F00F02C6F30326324314
:10353400D2B2EFE7816A01EBD421FFF795FD05468E
:103544000028B6D107F1340040F6FE7303EA4404C0
:10355400B1B22044FFF76CFC01233B71A9E7816AF7
:1035640001EB9421FFF780FD05460028A1D126F048
:10357400704607F1340340F6FC7202EA84041C44EA
:103584002046FFF74AFC00F0704131432046FFF724
:1035940053FC01233B718CE702258AE7022588E767
:1035A400F8B50568012957D90C46AB698B4255D942
:1035B4002B78022B2DD0032B3CD0012B01D00120E2
:1035C4004BE001EB5106A96A01EB16312846FFF7DF
:1035D4004BFD10B14FF0FF303FE0771CC6F30B06F4
:1035E4002E4496F83460A96A01EB17312846FFF798
:1035F4003BFDA8BBC7F30B073D4495F8340046EAEE
:10360400002014F0010F01D0000926E0C0F30B00E4
:1036140023E0A96A01EBD4212846FFF725FD10BB5E
:1036240005F1340040F6FE7303EA44042044FFF736
:10363400EFFB12E0A96A01EB94212846FFF714FD81
:10364400A0B9343540F6FC7000EA84002844FFF742
:10365400E4FB20F0704000E00120F8BD0120FCE70D
:103664004FF0FF30F9E74FF0FF30F6E74FF0FF304F
:10367400F3E72DE9F041D0F80080B1F5001F40D206
:1036840006460F4611F01F0F3DD1016184682CB925
:1036940098F80030022B01D9D8F82C40B4B9B8F806
:1036A4000830B3EB571F30D9D8F82C30B3617461AC
:1036B400B36993B303EB1733B36108F13403C7F36E
:1036C4000B011944F1610020BDE8F081B8F80A50FB
:1036D4002D03AF420FD321463046FFF761FF044666
:1036E400B0F1FF3F13D0012813D9D8F81830834222
:1036F40011D97F1BEDE721464046FFF7C8FBB061B7
:10370400D5E70220E0E70220DEE70220DCE7012023
:10371400DAE70220D8E70220D6E70220D4E72DE931
:10372400F041054606680F4651B9D6F81080B8F145
:10373400000F12D0B369434511D84FF001080EE0D1
:10374400FFF72EFF0346012869D9B0F1FF3F6BD084
:10375400B269824268D8B84601E04FF00108736943
:10376400002B61D0B84501D0444641E008F1010482
:10377400B369A34200D8022421462846FFF710FF6C
:103784000346012850D0B0F1FF3F4DD038B1336922
:10379400012BE9D9B2699A42E6D99846E4E7002CAC
:1037A400E2D04FF0FF3221463046FFF76FFE03466A
:1037B40000B937BB63BB34617369C3B3B269023AFE
:1037C400934236D8013B7361737943F001037371FB
:1037D400234629E021462846FFF7E2FE0346002857
:1037E400DFD0012820D0B0F1FF3F1DD044451AD0CE
:1037F4000134B369A342EDD8B8F1010F11D9022401
:10380400E8E7224639463046FFF740FE0346D1E753
:10381400012B01D0012307E04FF0FF3304E0012323
:1038240002E0002300E000231846BDE8F0812346AF
:10383400FAE72346F8E7F8B50C46056801292ED9BE
:1038440006461146AB69A3422BD94AB14FF0FF3269
:103854002846FFF71BFE074610B123E0A24221D9F8
:10386400274621463046FFF79BFE0446E0B1012877
:103874001CD0B0F1FF3F1BD0002239462846FFF789
:1038840005FE074670B96B69AA69911E8B42E5D2A1
:1038940001336B616B7943F001036B71DEE702273F
:1038A40000E002273846F8BD0027FBE70227F9E7C6
:1038B4000127F7E7F8B505460C46FFF7B1FB08B159
:1038C4000120F8BD21462846FFF7E1FA06462862A2
:1038D40005F134074FF480520021384602F0D4FE3B
:1038E400002400E001346B89A34207D90123A21903
:1038F4003946687801F0B4FC0028F3D06889001BCD
:1039040018BF0120DDE72DE9F8430446884607681F
:1039140005692035B5F5001F01D300238361A36930
:10392400002B46D0C5F30B063EB90133A361616990
:1039340079B93B89B3EB551F07D9256107F13403E6
:103944003344E3610020BDE8F8830023A36104202D
:10395400F9E77B89013B13EA1533EED12046FFF7E3
:103964001FFE8146012826D9B0F1FF3F25D0BB694F
:10397400834212D8B8F1000F17D061692046FFF7CF
:10398400CEFE8146D8B101281BD0B0F1FF3F1AD03A
:1039940001463846FFF78EFFB8B9C4F8149049467B
:1039A4003846FFF774FAA061C7E70023A361042037
:1039B400C9E70420C7E70220C5E70120C3E70720C1
:1039C400C1E70220BFE70120BDE70120BBE7F8B54E
:1039D40004460E4607680021FFF74BFE0246C0B9B5
:1039E400002508E00135B54213D001212046FFF738
:1039F4008AFF024668B9A1693846FFF735FB0246DB
:103A040038B9E3691B78E52BECD0002BEAD000250C
:103A1400EBE7042A01D01046F8BD0722FBE70000BB
:103A24002DE9F04781460F4601F11A00FFF7F0F93E
:103A3400C8BB3E7806F03F06013E06EB460306EBA4
:103A440083064FF00108002506E000202CE04FF625
:103A5400FF7398422AD101350C2D18D8174B585DA5
:103A64003844FFF7D5F90446B8F1000FEFD0FF2E24
:103A7400EBD802F0D7F8804606F1010A39F81600AF
:103A840002F0D0F88045E0D1A0465646E3E73B7803
:103A940013F0400F0CD0B8F1000F0BD039F81630EA
:103AA40053B9012000E00020BDE8F0870020FBE7C7
:103AB4000120F9E70120F7E70020F5E7A07A0008E4
:103AC4002DE9F8430446D0F800800021FFF7D1FD2A
:103AD4000646002864D14FF0FF33E3624FF0FF093C
:103AE4004F460AE04FF0FF33E362FF2700212046F0
:103AF400FFF709FF0646002852D1A1694046FFF7A7
:103B0400B3FA064600284BD1E5692B78002B46D042
:103B1400E97A01F03F02A271E52BE3D011F0080F1E
:103B240001D00F2ADED10F2A16D027B92846FFF775
:103B34001DFA484534D094F82B3013F0010F06D108
:103B44000B2204F12001284602F080FD40B34FF01F
:103B5400FF33E362FF27C9E794F82B2012F0400FEC
:103B6400C4D113F0400F06D003F0BF032269E26210
:103B740095F80D901F46BB4201D0FF27B6E76B7B3B
:103B84004B4501D0FF27B1E72946D8F80C00FFF7D1
:103B940047FF10B1013FFFB2A8E7FF27A6E70426BD
:103BA4003046BDE8F88338B50D4614464FF46A71C3
:103BB40001F0DCFFFF2809D9012C01D8002038BD11
:103BC400C0F307232B7068700220F8E718B124B102
:103BD40028700120F3E70020F1E72046EFE72DE904
:103BE400F843D0F8009000238B758369002B72D0C2
:103BF40005460C46C36AB3F1FF3F2BD04FF00008D3
:103C0400464647460DE006F110012144C6F1FF0285
:103C1400063140EA0840FFF7C6FF98B106444FF06A
:103C24000008D9F80C3033F8170060B10137B8F147
:103C3400000FE8D100F520539BB2B3F5006FE2D238
:103C44008046EEE70646B8F1000F00D00026264471
:103C54000023B3750022134605E009290ED0A018ED
:103C6400437201320B460A2B0FD8E869591CC35C16
:103C7400202BF7D0052BF0D1E523EEE70B2AEED865
:103C8400A0182E2646720132E9E7A31800215972C2
:103C9400A37D63B9002A39D1511C22443F23937573
:103CA400214400238B75EB691B7B03B96372EB69B9
:103CB400DB7A03F03F032372E8691C30FFF7ADF8A9
:103CC4002060E8691630FFF7A3F8E080E86918304F
:103CD400FFF79EF8A080BDE8F88310260AE062187A
:103CE40093750130013123185B7A002BD8D09BB235
:103CF4002E2BF2D0A3F1410292B2192AEFD8EA692D
:103D0400127B3242EBD020339BB2E8E70826002135
:103D14000846E8E7F8B5054607683E4616F8010B7D
:103D240084B2FFF793F840B1BE1C7F783846FFF7A2
:103D34009AF888B107EB0424A4B214B920462E6083
:103D4400F8BD4FF46A71204601F042FF0446002892
:103D5400F4D14FF0FF30F3E74FF0FF30F0E700000D
:103D64002DE9F04F85B0064689460B680393036836
:103D7400DD68002405E0FE2C00F20A8125F81470A9
:103D8400013403A8FFF7C6FFB0F1FF3F00F0FE8047
:103D9400B0F5803F03D3030C25F81430013487B207
:103DA4001F2F0DD92F2F0BD05C2F09D07F2FE2D8D6
:103DB4003946784802F0BCFC0028DCD0062096E0A6
:103DC4001F2F07D84FF00408039BC9F8003010E0F8
:103DD40001330393039B1A782F2AF9D05C2AF7D076
:103DE4001F2A02D94FF00008EEE74FF00408EBE772
:103DF400013C44B104F10043013B35F81330202B5E
:103E0400F6D02E2BF4D0002325F8143014B9062054
:103E14006DE0013335F81320202AFAD00BB92E2A8D
:103E240001D148F0030844B104F10042013A35F8E5
:103E340012202E2A01D0013CF5E74FF020323262E5
:103E44007262C6F827204FF0080B002201929246B6
:103E540003F1010935F8137047B3202F19D02E2F21
:103E640015D0019B5B4518D24C4516D07F2F4ED8F8
:103E7400FF2F5DD90BF1FF33019A934252D9019977
:103E84004B1CC7F30722711881F820205AE04C45D7
:103E9400E7D048F003084B46DAE7BBF10B0F29D013
:103EA4004C4501D048F003084C4526D296F8203002
:103EB400E52B62D0BBF1080F63D00AF00C030C2B86
:103EC40003D00AF00303032B01D148F0020818F0D1
:103ED400020F09D11AF0010F01D048F010081AF0AE
:103EE400040F01D048F0080886F82B80002005B0A4
:103EF400BDE8F08F48F00308D8E74FEA8A0A5FFA72
:103F04008AFA23464FF00B0B08220192A0E748F0EF
:103F14000208384601F086FE4FF46A7101F026FE6D
:103F24000746A5E748F003084B46CDF804B08FE7F1
:103F340027B13946184802F0FBFB50B148F003089A
:103F4400019B5F275A1C0192334483F820704B462F
:103F54007EE7A7F141039BB2192B01D84AF0020A6C
:103F6400A7F161039BB2192B05D84AF0010A203F3F
:103F7400BFB2019BE6E7019BE4E7052386F8203006
:103F840098E74FEA8A0A5FFA8AFA96E70620AEE7CC
:103F94000620ACE7587A0008647A000870B582B04D
:103FA40004460191056801E001330193019B1A78ED
:103FB4002F2AF9D05C2AF7D00022A2601B781F2B8D
:103FC4001ED901A92046FFF7CBFE034600BB94F897
:103FD4002B602046FFF774FD0346E0B916F0040F8A
:103FE40016D1A37913F0100F1CD005F13403216905
:103FF400C1F30B0119442846FEF755FFA060E0E722
:10400400802384F82B3011462046FFF732FB034609
:10401400184602B070BD0428FAD116F0040FF7D187
:104024000523F5E70523F3E7F0B583B005460C68EF
:1040340048682C6068600889897A2881A972052BF0
:1040440018D91188A9B102324FF0000C01E00CF12B
:10405400010CBCF10F0FF4D801F0010E0EEB430379
:10406400490813F4803FF2D083F4883383F02103AA
:10407400EDE79BB2072709E007F10801694401F85D
:10408400082C7E1E0DD00F280BD9374603F00F01E4
:1040940001F1300218461B09392AEDD901F1370222
:1040A400EAE77E2206F108036B4403F8082C002497
:1040B40000E00134B44211D2285D20280ED0FEF76E
:1040C400C5FE0028F5D0BB1EA34207D00134F0E79B
:1040D4002022631C2A55072B09D81C46072EF7D823
:1040E40006F108036B4413F8082C0136F1E703B01A
:1040F400F0BD00002DE9F04184B0076890F82B5022
:1041040015F0A00F40F091800646002400E0013431
:10411400FB6833F81430002BF9D101AB306A716AB3
:10412400B26A07C315F0010F1DD0402386F82B3067
:10413400012500E00135632D0CD8ABB2FA6801A962
:1041440006F12000FFF770FF3046FFF7B9FC804608
:104154000028EFD0642D6BD0B8F1040F1BD19DF86B
:104164000F3086F82B309DF80F3013F0020F06D075
:104174000C34314BA3FB0434A408013400E00124C3
:1041840021463046FFF723FC804608B9013C06D19E
:10419400B8F1000F2AD0404604B0BDE8F08131697F
:1041A400A1EB44113046FFF764FA80460028EFD1B2
:1041B40006F12000FEF7DAFE0546B1693846FEF73F
:1041C40053FF80460028E3D12B46E2B2F169F86838
:1041D400FEF790FE01233B7100213046FFF793FB6D
:1041E40080460028D4D1013CE7D1D1E7B1693846F3
:1041F400FEF73AFF80460028CDD120220021F06945
:1042040002F042FAF369316A726A19605A60318DB8
:1042140096F82A2019819A7296F82B30F26903F0E5
:104224001803137301233B71B5E74FF00608B2E797
:104234004FF00708AFE700BF4FECC44E70B504461B
:10424400FEF7EEFE054648B96379012B08D000223B
:104254001146607801F066F800B10125284670BD6A
:10426400002363712378032BF1D104F134064FF456
:1042740080520021304602F007FA10493046FEF71A
:10428400DBFD0F4904F50670FEF7D6FD616904F500
:104294000770FEF7D1FD216904F50870FEF7CCFD27
:1042A400084904F50C70FEF7C7FD626A0132226208
:1042B40001233146607800F0D3FFC8E752526141D0
:1042C40072724161000055AA2DE9F04F85B001904A
:1042D4008B4600929A4603AA012101F023F8002894
:1042E40040F08880DDF80C80082444B1B8FBF4F277
:1042F4004FF63E439A4202D96400E4B2F5E704B9AA
:10430400FF244FF480520021504602F0BDF90AF513
:10431400DF763F254FF0000945E0474654E0A8EB1F
:104324000507002F56D0294606F10800FEF784FD44
:10433400394606F10C00FEF77FFD009B33712F4ACE
:10434400A2FB0513E91A03EB51035B09B3FBF4F178
:1043540004FB1130C3EB8313EB1ADBB20133DBB282
:104364007070880800F0C0000343B370F1703D44DE
:104374006B1EA2FB0312991A02EB51025209B2FB03
:10438400F4F104FB1120C2EB82129A1AD2B2013268
:10439400D2B270718B0803F0C0031A43B271F17189
:1043A400103609F10109B9F1030F13D895B1454548
:1043B40010D25BF82970642F06D8AED0104BA3FB43
:1043C40008235B0903FB07F7EB194345A7D8AB4266
:1043D400A7D2A4E74AF655210AF5FF70FEF728FD97
:1043E400012300225146019800F03AFF20B905B09C
:1043F400BDE8F08F0120FAE70120F8E70541100439
:104404001F85EB5110B584B00190009114460391BF
:1044140003A8FEF7B9FD00281CDB0F4B53F820302E
:1044240023B100220C4941F820201A70019B3BB1B2
:104434005870019B00221A70074B019A43F8202000
:1044440014B9204604B010BD002201A96846FEF745
:10445400C9FEF7E70B20F5E7F80800202DE9F0473F
:10446400ADF5107D0191002800F0F5801546064653
:1044740002F03F073A4683A901A8FEF7B3FE0446BB
:1044840038B10CB10023336020460DF5107DBDE832
:10449400F087839B3360849303AADA60019984A82C
:1044A400FFF77CFD044618B99DF93B32002B44DB31
:1044B40015F01C0F52D0002C46D0042C3FD047F0EE
:1044C4000807002C59D117F0080F56D0634D294620
:1044D4008B980E30FEF7B0FC29468B981630FEF709
:1044E400ABFCDDF80C82DDF82C9249464046FEF721
:1044F400DAFC0546202389F80B3000228B994046CC
:10450400FEF7E4FC00218B981C30FEF795FC839B9E
:1045140001221A718DB3D3F820800022294684A881
:10452400FFF789F9044640BB41468398FEF79CFD9A
:104534000446013D839B1D611FE00624B8E784A85F
:10454400FFF7D8FD0446BAE715F0040F14D19DF81F
:10455400163213F0110FB4D007240EE06CB99DF895
:10456400163213F0100F43D115F0020F05D013F0DB
:10457400010F02D007240BE008244CB917F0080FF0
:1045840001D047F04007839B1B6A33628B9B7362A5
:10459400002C7FF476AFDDF80CA2DDF82C824146C6
:1045A4005046FEF780FC0546B06008F11C00FEF79B
:1045B40034FC8046F060BAF80630B38037740021CA
:1045C4007174F161716106F128094FF48052484613
:1045D40002F05AF817F0200F3FF453AFB8F1000F70
:1045E4003FF44FAFC6F81480BAF80A703F0306E0F0
:1045F4000424CDE7B5F1FF3F0DD0A8EB070864B95B
:10460400B8450AD929463046FEF7CAFF05460128AF
:10461400F0D80224EEE70124EFE7B561002C7FF423
:1046240030AFC8F30B03002B3FF42BAF839F294615
:104634003846FEF72CFC08B9022423E700EB1832B5
:10464400F26101234946787800F0DAFD00283FF44E
:1046540018AF012416E7092416E700BF0000215A09
:104664002DE9F04F85B004460E46174698460023C0
:10467400C8F8003003A9FEF7B0FC0190002840F010
:10468400A880637C0193002B40F0A380237C13F06B
:10469400010F00F0BD80E5686369ED1ABD425CD38B
:1046A4003D465AE0A1692046FEF77AFF65E04FF0E7
:1046B400020A84F811A0CDF804A08AE04FF0010AA0
:1046C40084F811A0CDF804A083E04FF0020A84F826
:1046D40011A0CDF804A07CE094F91030002B02DB8B
:1046E4004FEA0A372FE0E069A0EB09005045F7D202
:1046F4004FF4805204F1280106EB003001F0B6FFBC
:10470400EEE7E2694A450DD094F91030002B64DBE2
:1047140001234A4604F128010398407800F070FD13
:1047240000286ED1C4F81C906369C3F30B03C3F56E
:104734008057BD4200D22F4604F128013A4619445D
:10474400304601F093FFED1BD8F800303B44C8F825
:1047540000303E4463693B446361002D39D0636992
:10476400C3F30B02002ADFD1039A5789013F17EAEA
:10477400133708D1002B95D1A068012897D9B0F13F
:10478400FF3F9BD0A061DDF80CB0A1695846FEF74D
:104794007EFB8146002898D0B9444FEA153AB5F516
:1047A400805FAED307EB0A03BBF80A20934201D91A
:1047B400A2EB070A53464A4631469BF8010000F033
:1047C4001FFD002888D04FF0010A84F811A0CDF80D
:1047D40004A0019805B0BDE8F08F012304F128017D
:1047E4009BF8010000F03CFD20B9237C03F07F031B
:1047F40023748DE74FF0010A84F811A0CDF804A0CA
:10480400E7E74FF0010A84F811A0CDF804A0E0E72F
:1048140007230193DDE72DE9F04F85B004460E46EA
:10482400154698460023C8F8003003A9FEF7D5FBC7
:104834000190002840F0CD80637C0193002B40F070
:10484400C880237C13F0020F00F0DD806369EB4223
:1048540075D3DD4373E000212046FEF760FF81E05D
:10486400A1692046FEF75BFF7CE04FF0020A84F862
:1048740011A0CDF804A0ACE04FF0010A84F811A017
:10488400CDF804A0A5E00123E26904F1280103980E
:10489400407800F0E5FC20B9237C03F07F03237407
:1048A40070E04FF0010A84F811A0CDF804A090E064
:1048B4004FF0020A84F811A0CDF804A089E0E16960
:1048C400A1EB0901514502D34FEA0A3728E04FF41E
:1048D400805206EB013104F1280001F0C7FE237C6D
:1048E40003F07F032374EFE7E3694B4503D0626968
:1048F400E3689A4271D3C4F81C906369C3F30B0351
:10490400C3F58057BD4200D22F4604F128003A4631
:104914003146184401F0AAFE237C63F07F0323741C
:10492400ED1BD8F800303B44C8F800303E446369BE
:104934001F446761E3689F4238BF1F46E760002D4C
:104944005CD06369C3F30B02002AD6D1039A57895A
:10495400013F17EA133711D1002B81D1A068002839
:104964003FF479AF002849D001283FF47EAFB0F17D
:10497400FF3F81D0A061A36803B9A06094F910300F
:10498400002B80DBDDF80CB0A1695846FEF77FFAF6
:10499400814600288CD0B9444FEA153AB5F5805FBA
:1049A400A2D307EB0A03BBF80A20934201D9A2EB76
:1049B400070A53464A4631469BF8010000F050FC72
:1049C40000283FF47CAF4FF0010A84F811A0CDF821
:1049D40004A0019805B0BDE8F08F01234A4604F114
:1049E40028019BF8010000F00BFC002883D04FF055
:1049F400010A84F811A0CDF804A0EAE7237C43F06F
:104A040040032374E5E707230193E2E730B583B05D
:104A1400044601A9FEF7E1FA58B9237C13F0400FCC
:104A240007D013F0800F06D1216A0198FEF71CFB12
:104A340078B103B030BD0123E26904F12801019883
:104A4400407800F00DFC38BB237C03F07F03237413
:104A5400EAE7656AEB7A43F02003EB72A268294621
:104A64002068FEF733FAE16805F11C00FEF7E4F96B
:104A74000A4905F11600FEF7DFF9002105F11200DD
:104A8400FEF7D6F9019801230371FFF7D7FB237CC6
:104A940023F040032374CCE70120CAE70000215A25
:104AA40010B582B00446FFF7B1FF08B102B010BDE3
:104AB40001A92046FEF791FA0028F7D12060F5E716
:104AC40030B5ADF50F7D01900C46002282A901A8F6
:104AD400FEF788FB054638B114B10DB10023A37568
:104AE40028460DF50F7D30BD829B02AADA6001993C
:104AF40082A8FFF753FA05460028EDD19DF9333219
:104B0400002B06DB002CE7D0214682A8FFF767F8CC
:104B1400E2E70625E0E700002DE9F04F91B00B90A5
:104B24000D46029201930BA8FEF72EFA0028C0F25C
:104B3400F082A24B53F820300BB100221A70C4B299
:104B4400204600F04FFB10F0010F40F0E48210F01B
:104B5400040F40F0E48205B36B680F93FBB10F9A26
:104B6400531EB3F5004F01D21A4201D001230F9313
:104B74002E786A78531EDBB2012B16D94FF0010B45
:104B8400D5F8089009F1FF33B3F5004F0FD219F0AF
:104B94007F0F0ED04FF400790BE0894DDCE70FAAAC
:104BA4000321204600F0BEFBD9E79346E8E74FF423
:104BB4000079ED68B5F1807F04D86B1E1D4202D0E8
:104BC400002500E000254FEA1538019B1A0B0492DA
:104BD400B3F5805FC0F0A582029B002B00F0A38296
:104BE40000230E930EAA0121204600F09BFB00280F
:104BF40040F09B8216F00803059307D10E9B3F2BD0
:104C04007AD93F3B0E933F23039301E000230393A0
:104C14000E997F2940F28B82B5F5012F01D34FF015
:104C2400800816F0020002D016F0010F67D016F0CB
:104C3400010F00F07E824FF0020A01F1B44303F544
:104C44000413079306944446BAF1030F5ED0002C74
:104C54007FD02646B1FBF6F340F6F572934240F25C
:104C640087809D1C6D0005F6FF752D0BC9F3D318C5
:104C74004FF0010C039B0CEB030E0BFB05E24244CB
:104C84000F9FBB18013B7F423B409B1ABAF1030FB5
:104C940076D0B3FBFBF70BFB173727B1013B0CF1C5
:104CA400010C0EF1010EB3FBFBF31D4402EB0612E3
:104CB400039BD21A9142C0F04D82A1EB0C070BFB6F
:104CC4001577A7EB0807B7FBF6F7BAF1030F5AD02D
:104CD400BAF1020F7CD14FF6F5739F4260D914B933
:104CE4007300402B0ED978B9002C40F03782740041
:104CF400802CA9D90E200FE20023039388E74FF0FC
:104D0400030A9AE71C469FE74FF0030A9CB1264624
:104D1400B1FBF6F39D1CAD0005F6FF752D0BA3F555
:104D24007F43F63B274A934200F205824FF0000886
:104D34004FF0200C9EE74D0C2246012601E0013283
:104D44007600214B33F81230002BE1D0AB42F6D978
:104D5400DEE70D0B224601261C4B33F81230002BE4
:104D64003FF478AFAB423FF675AF01327600F3E71C
:104D740003EB430501356D0803354FF0010A72E773
:104D84009C449E4492E74FF6F5739F42A0D8002CB2
:104D940040F0E2817408012E3FF656AF0E20BBE1CD
:104DA40040F6F5739F4213D8002C40F0D98174006B
:104DB400802C7FF649AF0E20AEE100BFF80800203A
:104DC400D07A0008FFFFFE0FC07A0008B07A00080E
:104DD400CDF824C0CDF820E0CDF82880069CBAF1A7
:104DE400010F04D140F6F5739F4200F2BB814FF4EA
:104DF400805842460021029801F046FCCF4B03CB79
:104E0400029A1060104651601A889B78028183725E
:104E1400414680460B30FEF70BF8404688F80D609B
:104E2400BDF824100E30FEF703F8404688F810B0A1
:104E34001130BAF1030F00F0A1801FFA89F1FDF7D8
:104E4400F7FF0E99B1F5803F80F09A8089B2029BFA
:104E540003F11300FDF7ECFFF823DDF8088088F870
:104E640015303F2108F11800FDF7E2FFFF2108F19A
:104E74001A00FDF7DDFF039908F11C00FDF7DCFFC4
:104E8400BAF1030F00F082800799DDF8088008F179
:104E94002700FDF7D1FFA9B208F11600FDF7C8FFFE
:104EA400802388F82430292388F82630DFF890C23C
:104EB400BCE80F00C8F82B00C8F82F10C8F833203E
:104EC400C8F83730BCF800209CF80230A8F83B2022
:104ED40088F83D30DDF8089009F5FF784AF6552149
:104EE4004046FDF7A5FF0123039A4946204600F0FA
:104EF400B7F9002840F03881BAF1030F7CD0019B48
:104F040023F47F6222F00F020021DDF8088040467E
:104F140001F0BAFB4FF00009089F06960395CDF8FF
:104F240004B0DDF810B0019B994580F0AE80BAF171
:104F3400030F00F09680BAF1010F00F0A4806FF027
:104F440007014046FDF778FF039E35465E4528BFBE
:104F54005D462B463A464146204600F081F900283A
:104F640040F004814FF480520021404601F08CFB54
:104F74002F44761BE9D109F10109D4E700215EE74A
:104F8400029B03F12000FDF757FF65E70799DDF861
:104F9400088008F14300FDF74FFF294608F124007B
:104FA400FDF74AFF022108F12C00FDF745FF01211E
:104FB40008F13000FDF73CFF062108F13200FDF74F
:104FC40037FF802388F84030292388F84230DFF8FF
:104FD40074C1BCE80F00C8F84700C8F84B10C8F803
:104FE4004F20C8F85330BCF800209CF80230A8F8D1
:104FF400572088F859306DE70123039A0632DDF80B
:1050040008904946204600F02BF94FF480520021C5
:10501400484601F039FB4C494846FDF70DFF4B4922
:1050240009F5F270FDF708FF791E09F5F470FDF734
:1050340003FF022109F5F670FDF7FEFE4AF655213D
:105044004046FDF7F5FE0123039FFA1D494620461D
:1050540000F006F90123FA184946204600F000F949
:105064004DE76FF007014046FDF7E6FE4FF0FF31D4
:1050740008F10400FDF7E0FE6FF0704108F108004C
:10508400FDF7DAFE60E732495BE70897069EBAF15E
:10509400030F20D0089F0A9EDDF81080DDF80890E9
:1050A4003546464528BF45462B463A46494620469E
:1050B40000F0D6F800285BD12F44761BF0D1BAF16A
:1050C400030F0FD00E9BB3F5803F20D2BAF1020F2D
:1050D40006D0012207E0DDF81080DDF80890DFE754
:1050E400042200E00C22059B4BB90E9B0C93002379
:1050F4000D93029B0CA92046FFF7E6F860B9002245
:105104001146204600F00EF930B1012004E00622D9
:10511400E9E70B2000E0032011B0BDE8F08F0A207E
:10512400FAE71120F8E71120F6E70120F4E70E2052
:10513400F2E71320F0E70E20EEE700BF6C7A0008D8
:105144008C7A0008787A0008525261417272416187
:10515400F8FFFF000E20DFE70E20DDE70E20DBE77F
:105164000E20D9E70E20D7E70120D5E70120D3E7A9
:105174000120D1E710B588B0002400940194029472
:10518400039404940594069407942022694600F03D
:1051940091FF23461F2B09D803F120026A4412F819
:1051A400202CFF2A04D10133DBB2F3E7012000E015
:1051B400002008B010BD000008B10120704710B5F0
:1051C400044600F023FF064B984205D04EF61673B2
:1051D400984203D0012010BD2046FCE72046FAE7A0
:1051E4001740EF0008B10120704708B5FDF7C6FA73
:1051F4001420FBF719FE0020FFF7DEFF08BD0000B6
:1052040038B5044680B9944671B16BB155025A025F
:1052140002EB4C2CBCF5000F0DD8284600F04AFFD9
:1052240001280FD1204605E00A4621460848FAF72E
:10523400FFFF042038BD074B29460748FAF7F8FF5B
:105244000120F7E729460548FAF7F2FF0120F1E7C4
:10525400E07A0008FFFF7F00147B0008487B000809
:105264002DE9F8438846014608BBB8F1000F1ED06B
:10527400EBB14FEA42295F0207EB4222B2F5000F7D
:105284001CD84FEA1934013A160BB4422AD8250324
:10529400284600F0DBFEC8B100F08CFE10F0010FD0
:1052A400FAD12846FFF766FFB0B10134EDE7424674
:1052B4001648FAF7BDFF0420BDE8F883144B3A46BC
:1052C40049461448FAF7B4FF0120F5E72946124885
:1052D400FAF7AEFF0120EFE729461048FAF7A8FFD6
:1052E4000120E9E73A464146484600F01BFF012801
:1052F40005D100F05FFE10F00100FAD1DCE7494669
:105304000748FAF795FF0120D6E700BF787B00082D
:10531400FFFF7F00B07B0008E47B0008087C0008E6
:10532400307C000808B50B46014628B9032B1CD86D
:10533400DFE803F0070D12170F48FAF779FF04208E
:1053440004E000F037FE10F00100FAD108BD4FF47C
:10535400804313600846F9E74FF40073138008464E
:10536400F4E7082313600846F0E719460348FAF700
:105374005FFF0420EAE700BF607C0008807C00082F
:1053840000B585B0374B1B78012B3CD00122364940
:105394003648FFF737F80146354B187050B3354897
:1053A400FAF746FF324B1B780D2B54D13248FAF7EB
:1053B4003FFF324BEC460FCB8CE80F004FF4805389
:1053C4002F4A61462848FFF7A7FB294B187000288D
:1053D40039D12C48FAF72CFF012223492348FFF73F
:1053E40011F8234B187030BB2748FAF721FF1D4BE7
:1053F40001221A702548FAF71BFF1A4B01221A7072
:1054040005B05DF804FB012217491848FEF7FAFFBE
:10541400174B187018B11E48FAF70AFFB6E71D4873
:10542400FAF706FF002211461046FFF77BFF0A2019
:10543400FBF7FAFCE4E701461748FAF7F9FE094BD3
:1054440000221A70DCE701461448FAF7F1FE054B16
:1054540000221A70D4E71248FAF7EAFE014B002240
:105464001A70CDE7662900209C7C000830190020C2
:1054740004090020E07C0008047D0008D0790008BD
:1054840068390020287D00084C7D0008F07D000864
:10549400BC7C0008A07C0008647D0008847D0008B2
:1054A400A07D000870B5002841D00446FFF768FFCE
:1054B400394B1B78002B3ED1012221463748FEF799
:1054C400CDFF354B1870002839D121463448FAF7FE
:1054D400AFFE3448FAF7ACFE304BDE684FF480522E
:1054E4000021314801F0D0F80024B44237D2321BF5
:1054F4002E4BB2F5805F28BF4FF480522A492748CB
:10550400FFF7AEF8244B187020BB284B196809B379
:10551400254D2A462648FAF78BFE244B1B681C446B
:105524004FF480520021284601F0AEF8DDE721480F
:10553400FAF77EFE22E02048FAF77AFE1EE00246E1
:1055440021461E48FAF774FE01221D490020FEF789
:1055540059FF13E0024621461A48FAF769FE0E4B3A
:105564001B7863B10D48FFF79BFA88B901221449EF
:105574000020FEF747FF1448FAF75AFE70BD13489F
:10558400FAF756FE224631461148FAF751FEE9E78A
:105594001048FAF74DFEE9E7040900200809002045
:1055A4007C7E0008907E0008682900200009002005
:1055B400F47E0008207E00083C7E0008587E000827
:1055C4009C7C0008C87E0008787F0008FC7E0008E8
:1055D400347F0008607F00082DE9F043D9B0BDF89E
:1055E4008091002862D00E4614461F46804600294A
:1055F4005ED0002B5ED0002A5ED0042A60D8B9F1B8
:10560400090F5FD9002148913C2249A801F03CF8D8
:10561400012512E000962B4642462B4948A801F08A
:105624003BF802A948A8FFF74BFA042825D0002824
:1056340038D10135B5F57A7F36D2012CEAD0022C67
:105644000BD0032C11D0042CEBD100962B464246F0
:105654001E4948A801F020F8E3E700962B4642468D
:105664001B4948A801F018F8DBE700962B46424690
:10567400184948A801F010F8D3E709F1FF3422468D
:1056840048A9384601F061F800233B5548A8FAF7C9
:10569400C7FD814501D900200FE00F48FAF7C8FD86
:1056A40001200AE0012008E0012006E0012004E0D6
:1056B400012002E0012000E0012059B0BDE8F083A0
:1056C4000120FAE70120F8E79C7F0008BC7F00086E
:1056D400A47F0008B07F0008C87F0008D9B138B59E
:1056E40014460D46C8B1B0F57A7F18D2092A01D8FC
:1056F400012013E002460B49284600F0CDFF28465E
:10570400FAF78EFDA04201D2002007E00648FAF71E
:105714008FFD012002E001207047012038BD0120E7
:10572400FCE700BF00800008108000082DE9F0416C
:10573400BDF818708046E8B10D4614461E46CAB13D
:10574400C1B11046FAF76CFD864213D297B180B20C
:10575400F319834201DD801B87B2AF4201D3013DBF
:10576400AFB23A46A119404600F0EFFF002308F813
:10577400073002E0002388F80030BDE8F081000023
:10578400F0B5ADF58C5D83B0421E40F2E6339A422B
:1057940067D8044601466248FAF74AFD41F22802F6
:1057A400002158A800F070FFFFF7EAFD5D4B19785F
:1057B40000295DD1002148913C2249A800F064FFF2
:1057C400402248A92046FFF789FF002854D148A960
:1057D4005548FAF72DFD02A948A8FFF771F9514B76
:1057E4001870042851D0002859D1012248A958A87A
:1057F400FEF734FE4B4B187000285AD148A94B4889
:10580400FAF716FD4A48FAF713FD5B9E01AB002533
:105814001D604FF480522946464800F035FFB542DA
:1058240056D2721B01ABB2F5805F28BF4FF4805291
:10583400404958A8FEF714FF3A4B1870002842D18B
:10584400019900293FD03B4F3A463B48FAF7F0FC18
:10585400019B1D444FF480520021384600F014FF90
:10586400DDE73648FAF7E4FC0DF58C5D03B0F0BDD6
:105874003348FAF7DDFCF7E73248FAF7D9FC01229E
:1058840031490020FEF7BEFDEEE748A92F48FAF79C
:10589400CFFC01222C490020FEF7B4FDE4E70146C9
:1058A4002B48FAF7C5FC012227490020FEF7AAFD80
:1058B400DAE701462748FAF7BBFC01222249002017
:1058C400FEF7A0FDD0E7024629462348FAF7B0FCCC
:1058D400144B1B7863B158A8FFF7E2F8E0B9012232
:1058E40019490020FEF78EFD1C48FAF7A1FCBBE71E
:1058F4001B48FAF79DFC21461A48FAF799FC48A977
:105904001948FAF795FC31461848FAF791FC2946EC
:105914001748FAF78DFCDEE71648FAF789FCDEE74C
:105924005882000804090020B48200087C7E000824
:10593400907E000868290020F47E00083C8200085C
:10594400948000088C8200089C7C0008CC820008AB
:10595400E8820008048300082083000868830008A4
:10596400FC7E0008B8810008C8810008D8810008BE
:1059740050830008607F000870B5ADF5065D84B003
:1059840000287BD00646644A138801331380634899
:10599400FAF74EFC41F2280200210DF58B50083035
:1059A40000F072FE00215A9140F6FC725BA800F0F0
:1059B4006BFE3046FAF734FC044685B2FFF7E0FC90
:1059C400574B1B78002B5DD10E2D5FD90F3DADB227
:1059D40000950F2332464FF480515AA8FFF7A6FED4
:1059E40029465048FAF724FC00214A913C224BA84E
:1059F40000F04AFE402300934AAB03224A494B4835
:105A0400FFF7EAFD00284BD14AA94948FAF710FCF0
:105A14000A224AA90DF58B500830FEF71FFD0146F6
:105A2400002856D102AB00241C602A465AA90DF561
:105A34008B500830FEF7EFFE05460DF58B5008300D
:105A4400FEF7E4FF224621462046FFF76BFC00F0F8
:105A5400B1FA10F0010FFAD10DB9029949BB029ABB
:105A640029463448FAF7E4FB0DF58B500830FFF76C
:105A740017F888B33048FAF7DBFB2DE02F48FAF724
:105A8400D7FB42E02E48FAF7D3FB3EE0A1B22D4803
:105A9400FAF7CEFB01222C490020FEF7B3FC34E0D8
:105AA4002A48FAF7C5FB012227490020FEF7AAFC81
:105AB4002BE02748FAF7BCFB03A94AA8FFF700F834
:105AC40018B92448FAF7B4FBCEE72348FAF7B0FB39
