:020000040800F2
:1000000000000120B9330008311000083310000847
:1000100035100008371000083910000800000000F3
:100020000000000000000000000000003B1000087D
:100030003D100008000000003F10000841100008BB
:1000400001340008013400080134000801340008BC
:1000500001340008013400080134000801340008AC
:10006000013400080134000801340008013400089C
:10007000013400080134000801340008013400088C
:10008000013400080134000801340008013400087C
:10009000013400080134000801340008013400086C
:1000A000013400080134000801340008013400085C
:1000B000013400080134000801340008013400084C
:1000C000013400080134000801340008013400083C
:1000D0000134000849100008591000086910000890
:1000E000013400080134000801340008013400081C
:1000F000013400080134000801340008013400080C
:1001000001340008013400080134000801340008FB
:1001100001340008013400080134000801340008EB
:1001200001340008013400080134000801340008DB
:1001300000000000000000000000000000000000BF
:1001400000000000000000000000000000000000AF
:10015000000000000000000000000000000000009F
:10016000000000000000000000000000000000008F
:10017000000000000000000000000000000000007F
:10018000000000000000000000000000000000006F
:10019000000000000000000000000000000000005F
:1001A000000000000000000000000000000000004F
:1001B000000000000000000000000000000000003F
:1001C000000000000000000000000000000000002F
:1001D000000000000000000000000000000000001F
:0401E0005FF8E0F1F3
:1001E80010B5054C237833B9044B13B10448AFF369
:1001F80000800123237010BD800D00200000000046
:10020800E094000808B5034B1BB103490348AFF35A
:10021800008008BD00000000840D0020E094000864
:10022800844641EA000313F0030349D1403A23D33B
:100238000B6803604B6843608B688360CB68C3605E
:100248000B6903614B6943618B698361CB69C36146
:100258000B6A03624B6A43628B6A8362CB6AC3622E
:100268000B6B03634B6B43638B6B8363CB6BC36316
:1002780040304031403ADBD230320BD30B68036058
:100288004B6843608B688360CB68C3601030103163
:10029800103AF3D20C3205D351F8043B40F8043B32
:1002A800043AF9D2043208D0D2071CBF11F8013B36
:1002B80000F8013B01D30B8803806046704700BFFC
:1002C800082A13D38B07B1D010F00303AED0C3F1C3
:1002D8000403D21ADB071CBF11F8013B00F8013BED
:1002E800A4D331F8023B20F8023B9FE7043AD9D364
:1002F800013A11F8013B00F8013BF9D20B78037081
:100308004B7843708B7883706046704781F000416A
:1003180002E000BF83F0004330B54FEA41044FEAE2
:10032800430594EA050F08BF90EA020F1FBF54EA7D
:10033800000C55EA020C7FEA645C7FEA655C00F019
:10034800E2804FEA5454D4EB5555B8BF6D420CDDEA
:100358002C4480EA020281EA030382EA000083EA6D
:10036800010180EA020281EA0303362D88BF30BD0D
:1003780011F0004F4FEA01314FF4801C4CEA113163
:1003880002D0404261EB410113F0004F4FEA0333C2
:100398004CEA133302D0524263EB430394EA050F4D
:1003A80000F0A780A4F10104D5F1200E0DDB02FABC
:1003B8000EFC22FA05F2801841F1000103FA0EF250
:1003C800801843FA05F359410EE0A5F120050EF116
:1003D800200E012A03FA0EFC28BF4CF0020C43FA47
:1003E80005F3C01851EBE37101F0004507D54FF054
:1003F800000EDCF1000C7EEB00006EEB0101B1F5A4
:10040800801F1BD3B1F5001F0CD349085FEA3000E9
:100418004FEA3C0C04F101044FEA445212F5800FF4
:1004280080F09A80BCF1004F08BF5FEA500C50F191
:10043800000041EB045141EA050130BD5FEA4C0C74
:10044800404141EB0101013C28BFB1F5801FE9D2D1
:1004580091F0000F04BF01460020B1FA81F308BFF4
:100468002033A3F10B03B3F120020CDA0C3208DDC0
:1004780002F1140CC2F10C0201FA0CF021FA02F19B
:100488000CE002F11402D8BFC2F1200C01FA02F10B
:1004980020FA0CFCDCBF41EA0C019040E41AA2BF30
:1004A80001EB0451294330BD6FEA04041F3C1CDAF8
:1004B8000C340EDC04F11404C4F1200220FA04F018
:1004C80001FA02F340EA030021FA04F345EA0301C2
:1004D80030BDC4F10C04C4F1200220FA02F001FA84
:1004E80004F340EA0300294630BD21FA04F0294606
:1004F80030BD94F0000F83F4801306BF81F480119F
:100508000134013D4EE77FEA645C18BF7FEA655C11
:1005180029D094EA050F08BF90EA020F05D054EAE3
:10052800000C04BF1946104630BD91EA030F1EBFE8
:100538000021002030BD5FEA545C05D140004941EC
:1005480028BF41F0004130BD14F580043CBF01F5DF
:10055800801130BD01F0004545F0FE4141F47001C5
:100568004FF0000030BD7FEA645C1ABF19461046A0
:100578007FEA655C1CBF0B46024650EA013406BFA1
:1005880052EA033591EA030F41F4002130BD00BF60
:1005980090F0000F04BF0021704730B54FF480641D
:1005A80004F132044FF000054FF0000150E700BF9E
:1005B80090F0000F04BF0021704730B54FF48064FD
:1005C80004F1320410F0004548BF40424FF00001EA
:1005D8003EE700BF42004FEAE2014FEA31014FEA2D
:1005E80002701FBF12F07F4393F07F4F81F060517C
:1005F800704732F07F4208BF704793F07F4F04BFC7
:1006080041F40021704730B54FF4607401F00045A3
:1006180021F000411CE700BF50EA010208BF704703
:1006280030B54FF000050AE050EA010208BF7047F4
:1006380030B511F0004502D5404261EB41014FF45D
:10064800806404F132045FEA915C3FF4D8AE4FF065
:1006580003025FEADC0C18BF03325FEADC0C18BF48
:10066800033202EBDC02C2F1200300FA03FC20FA99
:1006780002F001FA03FE40EA0E0021FA02F11444E6
:10068800BDE600BF70B54FF0FF0C4CF4E06C1CEAFF
:1006980011541DBF1CEA135594EA0C0F95EA0C0F70
:1006A80000F0DEF82C4481EA030621EA4C5123EAE3
:1006B8004C5350EA013518BF52EA033541F4801112
:1006C80043F4801338D0A0FB02CE4FF00005E1FBC5
:1006D80002E506F00042E0FB03E54FF00006E1FB0F
:1006E80003569CF0000F18BF4EF0010EA4F1FF0452
:1006F800B6F5007F64F5407404D25FEA4E0E6D4192
:1007080046EB060642EAC62141EA55514FEAC520A2
:1007180040EA5E504FEACE2EB4F1FD0C88BFBCF51E
:10072800E06F1ED8BEF1004F08BF5FEA500E50F1CF
:10073800000041EB045170BD06F0004646EA010195
:1007480040EA020081EA0301B4EB5C04C2BFD4EBC7
:100758000C0541EA045170BD41F480114FF0000EC0
:10076800013C00F3AB8014F1360FDEBF002001F02E
:10077800004170BDC4F10004203C35DA0C341BDCA8
:1007880004F11404C4F1200500FA05F320FA04F07A
:1007980001FA05F240EA020001F0004221F00041AE
:1007A80010EBD37021FA04F642EB06015EEA430E21
:1007B80008BF20EAD37070BDC4F10C04C4F1200551
:1007C80000FA04F320FA05F001FA04F240EA020004
:1007D80001F0004110EBD37041F100015EEA430ED5
:1007E80008BF20EAD37070BDC4F1200500FA05F2F5
:1007F8004EEA020E20FA04F301FA05F243EA020374
:1008080021FA04F001F0004121FA04F220EA020082
:1008180000EBD3705EEA430E08BF20EAD37070BDC8
:1008280094F0000F0FD101F00046400041EB0101A8
:1008380011F4801F08BF013CF7D041EA060195F08A
:10084800000F18BF704703F00046520043EB030344
:1008580013F4801F08BF013DF7D043EA0603704731
:1008680094EA0C0F0CEA135518BF95EA0C0F0CD03C
:1008780050EA410618BF52EA4306D1D181EA030182
:1008880001F000414FF0000070BD50EA410606BF7C
:100898001046194652EA430619D094EA0C0F02D1C1
:1008A80050EA013613D195EA0C0F05D152EA033606
:1008B8001CBF104619460AD181EA030101F0004124
:1008C80041F0FE4141F470014FF0000070BD41F06D
:1008D800FE4141F4780170BD70B54FF0FF0C4CF447
:1008E800E06C1CEA11541DBF1CEA135594EA0C0F66
:1008F80095EA0C0F00F0A7F8A4EB050481EA030EB3
:1009080052EA03354FEA013100F088804FEA033399
:100918004FF0805545EA131343EA12634FEA022267
:1009280045EA111545EA10654FEA00260EF0004128
:100938009D4208BF964244F1FD0404F5407402D27A
:100948005B084FEA3202B61A65EB03055B084FEA0B
:1009580032024FF480104FF4002CB6EB020E75EB08
:10096800030E22BFB61A754640EA0C005B084FEA30
:100978003202B6EB020E75EB030E22BFB61A7546AD
:1009880040EA5C005B084FEA3202B6EB020E75EBF8
:10099800030E22BFB61A754640EA9C005B084FEA70
:1009A8003202B6EB020E75EB030E22BFB61A75467D
:1009B80040EADC0055EA060E18D04FEA051545EA6C
:1009C80016754FEA06164FEAC30343EA52734FEA15
:1009D800C2025FEA1C1CC0D111F4801F0BD141EA8E
:1009E80000014FF000004FF0004CB6E711F4801FF3
:1009F80004BF01430020B4F1FD0C88BFBCF5E06FD3
:100A08003FF6AFAEB5EB030C04BFB6EB020C5FEAE2
:100A1800500C50F1000041EB045170BD0EF0004E37
:100A28004EEA113114EB5C04C2BFD4EB0C0541EA69
:100A3800045170BD41F480114FF0000E013C90E666
:100A480045EA060E8DE60CEA135594EA0C0F08BF2A
:100A580095EA0C0F3FF43BAF94EA0C0F0AD150EA29
:100A680001347FF434AF95EA0C0F7FF425AF1046BC
:100A780019462CE795EA0C0F06D152EA03353FF4E4
:100A8800FDAE1046194622E750EA410618BF52EA61
:100A980043067FF4C5AE50EA41047FF40DAF52EA35
:100AA80043057FF4EBAE12E74FF0FF3C06E000BFD2
:100AB8004FF0010C02E000BF4FF0010C4DF804CDDF
:100AC8004FEA410C7FEA6C5C4FEA430C18BF7FEA9F
:100AD8006C5C1BD001B050EA410C0CBF52EA430CCD
:100AE80091EA030F02BF90EA020F0020704710F14D
:100AF800000F91EA030F58BF994208BF90422CBFDC
:100B0800D8176FEAE37040F0010070474FEA410CD4
:100B18007FEA6C5C02D150EA013C07D14FEA430CF2
:100B28007FEA6C5CD6D152EA033CD3D05DF8040B63
:100B3800704700BF8446104662468C461946634695
:100B480000E000BF01B5FFF7B7FF002848BF10F16C
:100B5800000F01BD4DF808EDFFF7F4FF0CBF0120B1
:100B680000205DF808FB00BF4DF808EDFFF7EAFF2D
:100B780034BF012000205DF808FB00BF4DF808EDE8
:100B8800FFF7E0FF94BF012000205DF808FB00BFDD
:100B98004DF808EDFFF7CEFF94BF012000205DF867
:100BA80008FB00BF4DF808EDFFF7C4FF34BF012074
:100BB80000205DF808FB00BF4FEA410C7FEA6C5C3F
:100BC80002D150EA013C0AD14FEA430C7FEA6C5C3F
:100BD80002D152EA033C02D14FF0000070474FF0B7
:100BE800010070474FEA410212F5001215D211D5E3
:100BF8006FF47873B3EB625212D94FEAC12343F012
:100C0800004343EA505311F0004F23FA02F018BF93
:100C1800404270474FF00000704750EA013005D15C
:100C280011F0004008BF6FF0004070474FF000001F
:100C3800704700BF53B94AB9002908BF00281CBF34
:100C48004FF0FF314FF0FF3000F076B9ADF1080CEE
:100C58006DE904CE00F006F8DDF804E0DDE90223D2
:100C680004B070472DE9F047089E0D4604468846B3
:100C7800002B4DD18A42944668D9B2FA82F252B119
:100C880001FA02F3C2F1200120FA01F10CFA02FC88
:100C980041EA030894404FEA1C41B8FBF1F71FFAF8
:100CA8008CFE01FB178807FB0EF0230C43EA084370
:100CB80098420AD91CEB030307F1FF3580F01E8127
:100CC800984240F21B81023F63441B1AB3FBF1F0C8
:100CD80001FB103300FB0EFEA4B244EA0344A64510
:100CE8000AD91CEB040400F1FF3380F00981A64502
:100CF80040F20681644402380021A4EB0E0440EA65
:100D080007401EB10023D440C6E90043BDE8F08780
:100D18008B4208D9002E00F0EE800021C6E90005BC
:100D28000846BDE8F087B3FA83F100294AD1AB42FF
:100D380002D3824200F2FC80841A65EB030301208F
:100D48009846002EE2D0C6E90048DFE702B9FFDE88
:100D5800B2FA82F2002A40F09180A1EB0C00012146
:100D68004FEA1C471FFA8CFEB0FBF7F307FB130092
:100D7800250C45EA00450EFB03F0A84208D91CEBF8
:100D8800050503F1FF3802D2A84200F2CE8043469F
:100D98002D1AB5FBF7F007FB10550EFB00FEA4B2A9
:100DA80044EA0544A64508D91CEB040400F1FF35C4
:100DB80002D2A64500F2B6802846A4EB0E0440EA0B
:100DC80003409EE7C1F120078B4022FA07FC4CEA5A
:100DD800030C25FA07FA4FEA1C49BAFBF9F820FA7E
:100DE80007F309FB18AA8D401FFA8CFE1D4300FA71
:100DF80001F308FB0EF02C0C44EA0A44A04202FA64
:100E080001F20BD91CEB040408F1FF3A80F088804A
:100E1800A04240F28580A8F102086444241AB4FB79
:100E2800F9F009FB104400FB0EFEADB245EA04449C
:100E3800A64508D91CEB040400F1FF356CD2A64581
:100E48006AD90238644440EA0840A0FB0295A4EB42
:100E58000E04AC42C846AE4656D353D0002E69D0D5
:100E6800B3EB080264EB0E0422FA01F304FA07F765
:100E78001F43CC40C6E90074002147E70CFA02FC86
:100E8800C2F1200125FA01F34FEA1C4720FA01F1CB
:100E980095400D43B3FBF7F107FB11331FFA8CFEA6
:100EA800280C40EA034001FB0EF3834204FA02F4E3
:100EB80008D91CEB000001F1FF382FD283422DD94D
:100EC80002396044C01AB0FBF7F307FB1300ADB258
:100ED80045EA004503FB0EF0A84208D91CEB0505BE
:100EE80003F1FF3816D2A84214D9023B6544281AE8
:100EF80043EA014138E73146304607E72F46E4E642
:100F08001846F9E64B45A9D2B9EB020865EB0C0E79
:100F18000138A3E74346EAE7284694E74146D1E784
:100F2800D0467BE76444023847E7023B65442FE735
:100F3800084606E73146E9E6704700BF72B6FEE7A5
:100F480000B591B02822002106A802F07BFA002300
:100F580001930293039304930593012206924FF49D
:100F6800803307930A9202220D920E934FF4E013F6
:100F78000F9306A800F012F980B90F2301930221FC
:100F88000291002303934FF480620492059301A811
:100F980000F036FB20B911B05DF804FBFFF7CEFF77
:100FA800FFF7CCFF10B500F0ABF8FFF7C9FF01F071
:100FB800FDF901F047FA01F05FFA01F077FA01F064
:100FC800DFFF01220F49104801F0DBF901220F4928
:100FD8000F4801F0D6F901220E490F4801F0D1F966
:100FE8000E4A0F490F4801F02FFB002400F0A6F825
:100FF800A042FBD001F01AFF01F07AFF00F09EF842
:101008000446F3E748150020A00D00207C120020BC
:10101800E80D00204E150020300E0020F89400083E
:101028000495000810950008FEE7FEE7FEE7FEE7D6
:10103800FEE770477047704708B500F073F808BDC1
:1010480008B5024801F038F808BD00BFA00D00201F
:1010580008B5024801F030F808BD00BFE80D0020CF
:1010680008B5024801F028F808BD00BF300E00207E
:1010780082B00E4B9A6942F001029A619A6902F0B5
:1010880001020092009ADA6942F08052DA61DB6963
:1010980003F080530193019B054A536823F0E063F2
:1010A80043F00073536002B0704700BF0010024065
:1010B8000000014010B504460E4B18784FF47A73BF
:1010C800B3FBF0F30C4A1068B0FBF3F000F0D2FD6C
:1010D80068B90F2C01D901200AE0002221464FF0FF
:1010E800FF3000F081FD054B1C60002000E001206E
:1010F80010BD00BF000000200800002004000020F0
:1011080008B5074A136843F010031360032000F082
:1011180059FD0F20FFF7CEFFFFF7AAFF002008BDFB
:1011280000200240034A1168034B1B780B441360EC
:10113800704700BF9C0D002000000020014B18687C
:10114800704700BF9C0D002038B50446FFF7F6FF36
:101158000546B4F1FF3F02D0044B1B781C44FFF74F
:10116800EDFF401BA042FAD338BD00BF00000020AD
:1011780082B0084B1B68084AA2FB03235B0A00FBEA
:1011880003F3019300BF019B5A1E0192002BF9D172
:1011980002B0704708000020D34D6210002800F00C
:1011A800F18170B582B00446036813F0010F2CD0AA
:1011B800994B5B6803F00C03042B1DD0964B5B68BE
:1011C80003F00C03082B12D06368B3F5803F41D0BD
:1011D800002B55D103F1804303F504331A6822F438
:1011E80080321A601A6822F480221A6037E08A4B2B
:1011F8005B6813F4803FE7D0874B1B6813F4003F0C
:1012080003D06368002B00F0BF81236813F0020F3E
:1012180075D0814B5B6813F00C0F5FD07E4B5B6819
:1012280003F00C03082B54D02369002B00F08A80AC
:101238007A4B01221A60FFF781FF0546764B1B683F
:1012480013F0020F75D1FFF779FF401B0228F5D97B
:1012580003209EE1704A136843F480331360636887
:1012680043B3FFF76BFF05466B4B1B6813F4003F56
:10127800CBD1FFF763FF401B6428F5D9032088E131
:10128800B3F5A02F09D0644B1A6822F480321A6093
:101298001A6822F480221A60E1E703F18043A3F57B
:1012A8003C331A6842F480221A601A6842F4803289
:1012B8001A60D4E7FFF742FF0546574B1B6813F443
:1012C800003FA2D0FFF73AFF401B6428F5D903205E
:1012D8005FE1514B5B6813F4803FA5D14E4B1B680F
:1012E80013F0020F03D02369012B40F04F814A4AC3
:1012F800136823F0F803616943EAC10313602368A4
:1013080013F0080F33D0A369002B5CD0434B0122A4
:10131800C3F88024FFF712FF05463F4B5B6A13F0C2
:10132800020F21D1FFF70AFF401B0228F5D903203D
:101338002FE1394A136823F0F803616943EAC103CE
:101348001360DCE7354B00221A60FFF7F7FE05460D
:10135800314B1B6813F0020FD1D0FFF7EFFE401B93
:101368000228F5D9032014E10120FFF701FF2368C3
:1013780013F0040F00F09680274BDB6913F0805FB1
:1013880034D1254BDA6942F08052DA61DB6903F027
:1013980080530193019B0125214B1B6813F4807F27
:1013A80026D0E368012B3DD0002B53D103F18043B5
:1013B80003F504331A6A22F001021A621A6A22F04B
:1013C80004021A6233E0154B0022C3F88024FFF7A9
:1013D800B5FE0546104B5B6A13F0020FC7D0FFF746
:1013E800ADFE401B0228F5D90320D2E00025D3E743
:1013F8000B4A136843F480731360FFF79FFE064699
:10140800074B1B6813F4807FCBD1FFF797FE801B37
:101418006428F5D90320BCE00010024000004242D5
:10142800007000405F4A136A43F001031362E368E7
:1014380033B3FFF783FE06465A4B1B6A13F0020FBD
:101448002FD1FFF77BFE801B41F288339842F3D9F6
:1014580003209EE0052B09D0524B1A6A22F00102A4
:101468001A621A6A22F004021A62E0E74D4B1A6AFD
:1014780042F004021A621A6A42F001021A62D6E7BE
:10148800FFF75CFE0646474B1B6A13F0020F08D0B5
:10149800FFF754FE801B41F288339842F3D90320AA
:1014A80077E0E5B9E369002B72D03E4A526802F052
:1014B8000C02082A56D0022B17D03B4B00221A6682
:1014C800FFF73CFE0446374B1B6813F0007F47D0FC
:1014D800FFF734FE001B0228F5D9032059E0314AF2
:1014E800D36923F08053D361DCE72F4B00221A66BF
:1014F800FFF724FE05462B4B1B6813F0007F06D030
:10150800FFF71CFE401B0228F5D9032041E0236A9F
:10151800B3F5803F1AD023494B6823F47413226A29
:10152800606A024313434B601F4B01221A66FFF7A0
:1015380005FE04461B4B1B6813F0007F0ED1FFF716
:10154800FDFD001B0228F5D9032022E0154A536847
:1015580023F40033A1680B435360DCE7002018E054
:10156800002016E0012B16D00E4B5B6803F4803187
:10157800226A914211D103F47013626A93420ED128
:10158800002006E001207047012002E0012000E071
:10159800002002B070BD0120FBE70120F9E701201F
:1015A800F7E700BF00100240000042420F4B5B68A3
:1015B80003F00C02082A01D00D487047C3F3834298
:1015C8000C49885C13F4803F0BD0084B5B68C3F36D
:1015D8004043094AD35C064A02FB00F0B0FBF3F033
:1015E8007047064B03FB00F0704700BF0010024035
:1015F80000127A002C9500083C95000800093D006F
:10160800002800F0A08070B50D460446524B1B68B8
:1016180003F007038B420BD24F4A136823F00703EA
:101628000B431360136803F007038B4240F08D806F
:10163800236813F0020F17D013F0040F04D0474AA1
:10164800536843F4E0635360236813F0080F04D031
:10165800424A536843F460535360404A536823F046
:10166800F003A1680B435360236813F0010F31D0D6
:101678006368012B20D0022B25D0384A126812F05B
:10168800020F64D035494A6822F0030213434B60C5
:10169800FFF754FD0646314B5B6803F00C036268A4
:1016A800B3EB820F16D0FFF749FD801B41F2883358
:1016B8009842F0D9032045E0284A126812F4003F06
:1016C800E0D101203EE0254A126812F0007FD9D10E
:1016D800012037E0204B1B6803F00703AB420AD90F
:1016E8001D4A136823F007032B431360136803F0A4
:1016F8000703AB422DD1236813F0040F06D0174A15
:10170800536823F4E063E1680B435360236813F0E4
:10171800080F07D0114A536823F46053216943EA3C
:10172800C1035360FFF742FF0C4B5B68C3F303131D
:101738000B4AD35CD8400B4B18600B4B1868FFF76B
:10174800B9FC002070BD012070470120FAE7012094
:10175800F8E70120F6E700BF002002400010024031
:10176800409500080800002004000020014B18687C
:10177800704700BF0800002008B5FFF7F7FF044BCB
:101788005B68C3F30223034AD35CD84008BD00BF9B
:10179800001002405095000808B5FFF7E7FF044B1A
:1017A8005B68C3F3C223034AD35CD84008BD00BFBB
:1017B800001002405095000870B582B00024A4467D
:1017C800B0E0874DAA4210D007D9864DAA420CD066
:1017D80005F58035AA4208D013E0A5F58015AA4280
:1017E80003D005F57025AA4207D18A68002A62D07D
:1017F800012A5BD04361082403E0A5F58015AA42BD
:10180800F3D0BEF1FF0F58D80646BEF1FF0F56D8E9
:101818004FEA8C0233680F25954023EA050304FA42
:1018280002F2134333604B6813F0805F78D06E4B3D
:101838009A6942F001029A619B6903F001030193DE
:10184800019B4FEA9C02951C684B53F825600CF0ED
:1018580003039D000F23AB4026EA0306644B98421E
:1018680033D003F58063984200F0988003F58063D5
:10187800984200F0958003F58063984200F09280CA
:1018880003F58063984200F08F8003F580639842E7
:1018980019D006231AE0CC68B3E7CC680434B0E763
:1018A800CC680834ADE7CC680C34AAE70361082497
:1018B800A7E70024A5E70424A3E7061DA5E7ACF1E4
:1018C80008029200A6E7052300E00023AB4033435B
:1018D8000232464D45F822304B6813F4801F65D01C
:1018E800444A936843EA0E0393604B6813F4001F5D
:1018F80062D0404AD36843EA0E03D3604B6813F4BE
:10190800003F5FD03B4A536843EA0E0353604B687D
:1019180013F4803F5CD0374A136843EA0E03136020
:101928000CF1010C0A6832FA0CF357D0012303FAC0
:101938000CF302EA030E33EA0202F1D14A68122AD2
:101948003FF63FAF122A3FF65CAF01A555F822F0EB
:10195800F31700089F180008A9180008BB1800080A
:101968000B1800080B1800080B1800080B180008C3
:101978000B1800080B1800080B1800080B180008B3
:101988000B1800080B1800080B1800080B180008A3
:101998000B180008A3180008AF180008012395E7E2
:1019A800022393E7032391E704238FE7114A9368FF
:1019B80023EA0E03936098E70E4AD36823EA0E03DE
:1019C800D3609BE70B4A536823EA0E0353609EE7F4
:1019D800084A136823EA0E031360A1E702B070BD3A
:1019E80000002210000031100010024000000140E9
:1019F80000080140000401408368194201D0012019
:101A08007047002070470AB10161704709040161FD
:101A1800704790F82130DBB2022B06D00423836391
:101A2800002380F82030012070470268136823F0F3
:101A38000E0313600268136823F001031360036C3C
:101A4800C16B012202FA03F34B6080F821200023C6
:101A580080F820301846704708B590F82130DBB27E
:101A6800022B03D004238363012008BD0268136896
:101A780023F00E0313600268136823F00103136058
:101A880003684C4A93424ED9783A934224D0143290
:101A9800934230D0143293422FD0143293422FD035
:101AA800143293422FD0143293422FD014329342DF
:101AB8002FD002F5627293422ED0143293422DD069
:101AC800143293422CD01432934202D04FF4803215
:101AD80003E04FF4805200E00122374B5A600123A3
:101AE80080F82130002380F82030436B002B5ED033
:101AF80098470020B9E71022EFE74FF48072ECE72F
:101B08004FF48052E9E74FF48032E6E74FF4801251
:101B1800E3E74FF08072E0E70122DEE71022DCE71E
:101B28004FF48072D9E7254A934224D01432934265
:101B380025D01432934224D01432934224D0143244
:101B4800934224D01432934224D01432934224D0A6
:101B580002F56272934223D01432934222D0143297
:101B6800934221D01432934202D04FF4803203E0E2
:101B78004FF4805200E00122114B5A60AFE7102267
:101B8800FAE74FF48072F7E74FF48052F4E74FF426
:101B98008032F1E74FF48012EEE74FF08072EBE706
:101BA8000122E9E71022E7E74FF48072E4E700201A
:101BB8005BE700BF800002400004024008000240CA
:101BC80000000240074AD36823F4E0631B041B0C9F
:101BD800000200F4E060034343F0BF6343F40033C2
:101BE800D360704700ED00E000B5194BDB68C3F324
:101BF8000223C3F1070CBCF1040F28BF4FF0040CFB
:101C080003F1040EBEF1060F18D9033B4FF0FF3E57
:101C18000EFA0CFC21EA0C0199400EFA03F322EAB1
:101C28000303194300280BDB0901C9B200F1604026
:101C380000F5614080F800135DF804FB0023E5E738
:101C480000F00F000901C9B2024B1954F4E700BFB4
:101C580000ED00E014ED00E0002807DB00F01F02B3
:101C6800400901239340024A42F82030704700BFE0
:101C780000E100E00138B0F1807F0BD24FF0E023A3
:101C88005861054AF02182F8231000209861072244
:101C98001A6170470120704700ED00E0026802F108
:101CA8000C0353E8003F23F490730C3242E80031F0
:101CB8000029F3D1026802F1140353E8003F23F02E
:101CC8000103143242E800310029F3D1036B012BE0
:101CD80005D0202380F84230002303637047026850
:101CE80002F10C0353E8003F23F010030C3242E8E2
:101CF80000310029F3D1ECE790F84130DBB2212B19
:101D080001D0022070478368B3F5805F17D0036A5B
:101D18005A1C02621A7803685A60C38C9BB2013B52
:101D28009BB2C3844BB90268D36823F08003D360A5
:101D38000268D36843F04003D3600020704703690A
:101D4800002BE4D1036A1B880268C3F308035360BD
:101D5800036A02330362E0E710B5044602681369B8
:101D680023F44053C1680B4313618368026913432A
:101D780042691A430168CB6823F4B05323F00C037B
:101D88001343CB600268536923F4407381690B43A2
:101D980053610268134B9A4220D0FFF7EDFC0246CC
:101DA80002EB820202EB820263689B00B2FBF3F251
:101DB8000D48A0FB02314909642303FB11231B01D1
:101DC8003233A0FB03235B0903F0F00202EB01129C
:101DD80003F00F03216813448B6010BDFFF7DCFC90
:101DE8000246DDE7003801401F85EB512DE9F0433D
:101DF80083B005460E4617469946DDF828802C68BC
:101E0800246836EA04030CBF4FF0010C4FF0000CB5
:101E1800BC4528D1B8F1FF3FF1D0FFF78FF9A0EB0F
:101E28000900404523D8B8F1000F22D02B68DA68A2
:101E380012F0040FE3D0802EE1D0402EDFD01A68D4
:101E480012F0080FDBD0002401941A6801925B6835
:101E58000193019B2846FFF721FF08236B6485F84F
:101E68004040012000E0002003B0BDE8F0830320DB
:101E7800FAE70320F8E760B310B5044690F841305C
:101E880013B3242384F841302268D36823F4005321
:101E9800D3602046FFF760FF2268136923F490435C
:101EA80013612268536923F02A0353612268D368B7
:101EB80043F40053D36000206064202384F8413049
:101EC80084F84230606310BD80F8403000F008FBB1
:101ED800D7E7012070472DE9F04182B01E4690F8FF
:101EE8004130DBB2202B56D104460D4690460029DE
:101EF80055D00AB901204FE000234364212380F81C
:101F08004130FFF71BF90746A4F82480A4F826807F
:101F1800A368B3F5805F02D04FF0000814E023698E
:101F28002BB34FF000080FE0202384F84130032042
:101F380032E038F8023B2268C3F308035360E28CAE
:101F480092B2013A92B2E284E38C9BB293B10096CA
:101F58003B46002280212046FFF748FF0028E3D1B6
:101F6800002DE6D015F8012B23685A60E7E7A8464C
:101F78000025E9E700963B46002240212046FFF76E
:101F880035FF18B9202384F8413005E0202384F870
:101F98004130032000E0022002B0BDE8F0810120BA
:101FA800FAE7704708B50168CA6822F04002CA60BB
:101FB800202280F84120FFF7F4FF002008BD704779
:101FC80008B5406A0023C385C384FFF7F8FF08BD3E
:101FD800704790F84230DBB2222B69D18368B3F5A1
:101FE800805F4FD0826AB3F5805F04D0002B56D152
:101FF8000369002B53D103685B681370836A01334C
:102008008362C38D9BB2013B9BB2C385002B51D128
:1020180000B583B00268D36823F02003D360026858
:10202800D36823F48073D3600268536923F00103F3
:102038005361202380F8423000234363036B012B54
:1020480033D100230363026802F10C0353E8003F15
:1020580023F010030C3242E800310029F3D1036861
:102068001A6812F0100F06D0002201921A68019225
:102078005B680193019B818DFFF7AAFF002003B0E5
:102088005DF804FB0269002AACD1826A03685B68C8
:10209800C3F308031380836A02338362B1E70368DA
:1020A8005B6803F07F031370A8E700F0E1FDE5E744
:1020B800022070470020704730B583B0044602689C
:1020C8001368D068516913F00F0505D113F0200F7C
:1020D80002D010F0200F19D12DB111F0010119D142
:1020E80010F4907F16D1216B01297DD013F0800F59
:1020F80003D010F0800F40F0188113F0400F03D088
:1021080010F0400F40F0158103B030BD2046FFF7B6
:1021180060FFF9E713F0010F06D010F4807F03D0B9
:10212800626C42F00102626413F0040F04D019B12A
:10213800626C42F00202626413F0020F04D019B11B
:10214800626C42F00402626413F0080F07D010F0CA
:10215800200F00D119B1626C42F008026264626C0F
:10216800002AD1D013F0200F02D010F0200F29D16F
:1021780023685B6903F04003626C12F0080F00D11A
:1021880063B32046FFF78AFD23685B6913F0400FAD
:1021980020D0226802F1140353E8003F23F04003E3
:1021A800143242E800310029F3D1E36B73B1634A7A
:1021B8005A63E06BFFF750FC0028A5D0E06B436B37
:1021C8009847A1E72046FFF704FFD1E72046FFF72D
:1021D800F6FE99E72046FFF7F2FE95E72046FFF75F
:1021E800EEFE002363648FE713F0100F3FF47EAF19
:1021F80010F0100F3FF47AAF002301931368019396
:1022080053680193019B536913F0400F51D0E26B5F
:1022180013685B689BB2002B3FF476AFA18D99429F
:102228007FF672AFE3859369202B37D0226802F1DD
:102238000C0353E8003F23F480730C3242E800316A
:102248000029F3D1226802F1140353E8003F23F078
:102258000103143242E800310029F3D1226802F167
:10226800140353E8003F23F04003143242E80031DE
:102278000029F3D1202384F8423000232363226805
:1022880002F10C0353E8003F23F010030C3242E83C
:1022980000310029F3D1E06BFFF7BBFB0223636336
:1022A800A18DE38D9BB2C91A89B22046FFF790FE33
:1022B8002AE7A18DE38D9BB2C91A89B2E38D9BB23F
:1022C800002B3FF421AF00293FF41EAF226802F132
:1022D8000C0353E8003F23F490730C3242E80030BB
:1022E8000028F3D1226802F1140353E8003F23F0D9
:1022F8000103143242E800300028F3D1202384F887
:10230800423000232363226802F10C0353E8003FA4
:1023180023F010030C3242E800300028F3D10223E6
:1023280063632046FFF754FEEEE62046FFF7E4FC21
:10233800EAE62046FFF736FEE6E600BFC91F0008BA
:1023480090F8413090F842001843704781628285C6
:10235800C28500234364222380F84230036923B1F5
:102368000268D36843F48073D3600268536943F00A
:10237800010353610268D36843F02003D36000204F
:10238800704708B590F84230DBB2202B08D149B12C
:102398000AB9012008BD00230363FFF7D7FFF9E757
:1023A8000220F7E70120F5E770470000F0B589B093
:1023B80000230493059306930793204CA36943F0E5
:1023C8000403A361A36903F004030193019BA369B8
:1023D80043F00803A361A36903F008030293029B77
:1023E800174F012223213846FFF70DFB23230493BF
:1023F8000125059506950226079604A93846FFF794
:10240800DBF9A36943F08003A361A36903F08003A8
:102418000393039BA4F574442A464FF4C0712046E5
:10242800FFF7F1FA4FF4C0730493059506950796E4
:1024380004A92046FFF7C0F909B0F0BD001002401A
:10244800000C014008B50A480A4B03604FF46123A9
:10245800436000238360C36003610C22426183618F
:10246800C361FFF708FD00B908BDFEF767FDFBE78C
:10247800A00D00200038014008B50A480A4B036047
:102488004FF4E133436000238360C36003610C228F
:1024980042618361C361FFF7EEFC00B908BDFEF736
:1024A8004DFDFBE7E80D00200044004008B50A4850
:1024B8000A4B03604FF4E133436000238360C36039
:1024C80003610C2242618361C361FFF7D4FC00B948
:1024D80008BDFEF733FDFBE7300E00200048004042
:1024E80030B58BB0002306930793089309930368CC
:1024F8004F4A934207D04F4A934236D04E4A9342AE
:1025080063D00BB030BD4D4B9A6942F480429A615A
:102518009A6902F480420092009A9A6942F0040291
:102528009A619B6903F004030193019B4FF40073C4
:1025380006930223079303230993414D06A92846CE
:10254800FFF73AF94FF48063069300240794089440
:1025580006A92846FFF730F9224621462520FFF72D
:1025680043FB2520FFF778FBCBE7344BDA6942F4CD
:102578000032DA61DA6902F400320292029A9A6948
:1025880042F004029A619B6903F004030393039BDE
:10259800042306930223079303230993284D06A9CE
:1025A8002846FFF709F9082306930024079408949E
:1025B80006A92846FFF700F9224621462620FFF7FC
:1025C80013FB2620FFF748FB9BE71C4BDA6942F414
:1025D8008022DA61DA6902F480220492049A9A6904
:1025E80042F008029A619B6903F008030593059B72
:1025F8004FF4806306930223079303230993114D35
:1026080006A92846FFF7D8F84FF40063069300247C
:102618000794089406A92846FFF7CEF822462146D3
:102628002720FFF7E1FA2720FFF716FB69E700BF2D
:1026380000380140004400400048004000100240BB
:1026480000080140000C01400FB4F0B583B008AD9C
:1026580055F8047B0E4C4FF49676324600212046FE
:1026680000F0F0FE01952B463A463146204600F030
:1026780069FF204600F038FF4FF47A7382B2214692
:102688000448FFF728FC03B0BDE8F04004B07047E9
:1026980018140020A00D002070B500252C4606E077
:1026A800324629460C48FFF7CFFF01350134272C65
:1026B8000DDC0A4A04EB84018B00D618D35C002B8E
:1026C800F4D0002CECD10648FFF7BEFFE8E7294616
:1026D8000448FFF7B9FF70BD589500080C000020AA
:1026E800289500086095000870B505460C4600F06E
:1026F800FBFE0646204600F0F7FE864216DB014642
:10270800002002E08B4210D00130731A83420ADBAA
:1027180000238B42F6DAC21815F802C0E25C944531
:10272800F0D10133F5E74FF0FF3070BD4FF0FF30C7
:10273800FBE770B506460C46154600F0D5FEC2B25A
:10274800A24215D9A446315D2D2914D0631CC0B20C
:10275800834217DA302919D1B4449CF80130782B18
:1027680001D0582B16D10234E4B20120844607E088
:10277800002028604CE00134E4B200204FF0FF3C18
:10278800002312E000204FF0010CF9E700204FF081
:10279800010CF5E700204FF0010CF1E703EB830390
:1027A8000EEB4303303B0134E4B294422CD216F8CA
:1027B80004E0AEF13001C9B2092905D80028EDD0EE
:1027C8000EEB0313303BEEE7AEF16101C9B2052908
:1027D80007D818B10EEB0313573BE4E700232B602F
:1027E80016E0AEF14101C9B2052907D818B10EEBC0
:1027F8000313373BD7E700232B6009E0BEF1200F16
:1028080002D0BEF12C0FCED10CFB03F32B600120BC
:1028180070BD000030B58BB0054600230893ADF8B5
:1028280024308DF8263007934549FFF75DFF0446AD
:10283800B0F1FF3F0BD1B4F1FF3F11D0079999B127
:10284800B2293AD03F48FFF7FFFE0BB030BD043441
:1028580007AAE1B22846FFF76CFF0028EBD1F4E79E
:102868003848FFF7F1FEF0E7072308AAC9B2642049
:1028780000F04EFDA8B99DF823309DF822209DF860
:1028880021109DF8200003900291019200939DF879
:1028980024309DF825209DF826102B48FFF7D4FEFC
:1028A800D3E7082308AA9DF81C10642000F030FD27
:1028B80001462648FFF7C8FEC7E7082308AAC9B299
:1028C800642000F025FDC0B99DF823309DF8242030
:1028D8009DF825109DF826009DF827400494039044
:1028E8000291019200939DF822309DF821209DF8D5
:1028F80020101748FFF7A8FEA7E7082308AA9DF8A5
:102908001C10D02000F004FD00289ED19DF8233033
:102918009DF824209DF825109DF826009DF8274055
:10292800049403900291019200939DF822309DF83F
:1029380021209DF820100648FFF786FE85E700BF96
:10294800749500087C9500088C950008BC950008D3
:10295800D495000810B58AB004460023089309935B
:1029680007932B49FFF7C0FEB0F1FF3F06D0011DCA
:1029780007AAC9B22046FFF7DCFE38B3072308AA26
:102988009DF81C10642000F0C3FC01462148FFF7A5
:102998005BFE0799E1B9072308AAC9B2642000F0D1
:1029A800B7FC9DF823309DF822209DF821109DF852
:1029B800200003900291019200939DF824309DF825
:1029C80025209DF826101448FFF73EFE0AB010BDDA
:1029D800082308AAC9B2642000F09AFC9DF82330A5
:1029E8009DF824209DF825109DF826009DF8274085
:1029F800049403900291019200939DF822309DF86F
:102A080021209DF820100548FFF71EFEDEE700BFD5
:102A180074950008FC9500088C9500080896000835
:102A280010B586B00446002303930493ADF8143020
:102A380002936949FFF758FEB0F1FF3F5ED167493D
:102A48002046FFF751FEB0F1FF3F6CD164492046A4
:102A5800FFF74AFEB0F1FF3F7AD162492046FFF7FF
:102A680043FEB0F1FF3F40F088805F492046FFF702
:102A78003BFEB0F1FF3F40F095805C492046FFF7F0
:102A880033FEB0F1FF3F12D0043002AAC1B2204693
:102A9800FFF74FFE80B3029A554981FB0231D317E5
:102AA800C3EB6113642101FB13238DF812309DF8E9
:102AB80012308DF800309DF811308DF801309DF8F6
:102AC80010308DF8023000218DF803109DF80E307B
:102AD8008DF804309DF80D308DF805309DF80C30D8
:102AE8008DF8063007236A46642000F0E3FB0028CF
:102AF8006DD14048FFF7A8FD06B010BD053002AA09
:102B0800C1B22046FFF715FE0028F5D0029A3849D1
:102B180081FB0231D317C3EB6113642101FB13233B
:102B28008DF80C308BE7043002AAC1B22046FFF7BB
:102B380000FE0028E0D0029A2D4981FB0231D3170C
:102B4800C3EB6113642101FB13238DF80D307DE77E
:102B5800043002AAC1B22046FFF7EBFD0028CBD013
:102B6800029A234981FB0231D317C3EB6113642115
:102B780001FB13238DF80E306FE7053002AAC1B2AE
:102B88002046FFF7D6FD0028B6D0029A184981FBE7
:102B98000231D317C3EB6113642101FB13238DF8B2
:102BA800103062E7043002AAC1B22046FFF7C1FD27
:102BB8000028A1D0029A0E4981FB0231D317C3EB3A
:102BC8006113642101FB13238DF8113055E70A487E
:102BD800FFF73AFD90E700BF349600083C960008DE
:102BE800449600084C960008549600085C96000825
:102BF8001F85EB516496000878960008F8B50646DC
:102C08000D4614461F46084600F06EFCA04213DD30
:102C18004FF0000CBC450ADA0CEB040E864506DAC8
:102C280015F80EE006F80CE00CF1010CF2E70023B1
:102C380006F80C300120F8BD4FF0FF30FBE710B567
:102C480090B00446002100913C2201A800F0FAFB54
:102C5800204600F049FCA0F10B030B2221466846F0
:102C6800FFF7CCFF684600F08FFB10B010BD0000E6
:102C780010B5044602683D4B9A4208D022683C4B86
:102C88009A4223D022683B4B9A424CD010BD3A4B13
:102C98001B88C72B09D8394A127832B9384A1178B3
:102CA800384AD1540133344A1380334B1B88C72B1D
:102CB80003D8334B1B78202B02D1304B01221A70DA
:102CC80001222F493048FFF75CFBD7E72F4B1B88C1
:102CD8003BB92F4A1278202A1FD00D2A1DD00A2A64
:102CE8001BD0C72B09D82B4A127832B9284A117839
:102CF800294AD1540133254A1380244B1B88C72BFA
:102D080002D8234B1B7813B9224B01221A700122D7
:102D18001F492248FFF735FBB4E701221C491F4829
:102D2800FFF72FFBB2E71E4B1B6840F2FE329342BF
:102D38000CD8591C1A4A11601A4A11781A4AD154E7
:102D4800012218491948FFF71CFB9FE70021144B83
:102D580019604FF48062144800F074FB4FF6FF735B
:102D6800642213490848FFF7B6F8E9E7003801403C
:102D780000440040004800404C1500204C1300203F
:102D88004815002050130020A00D002080120020BC
:102D98007C1200208212002084120020E80D0020FE
:102DA800781200204E150020780E0020300E0020EA
:102DB8009096000808B54FF6FF730A4A12880A4928
:102DC8000A48FFF788F80948FFF7BAFA2128FAD025
:102DD8000021044B19604FF48062034800F032FB75
:102DE80008BD00BF78120020780E0020A00D00203A
:102DF80010B58CB00DF1040C0B4C0FCCACE80F00E7
:102E08000FCCACE80F0094E80700ACE803008CF89E
:102E1800002001A800F0B8FA4FF47A70FEF794F990
:102E2800FFF7C8FF0CB010BDA496000838B5284BB2
:102E38001B7813B9274A128892B1264A1288264964
:102E480009888A4211D924490A80244A002111801C
:102E5800224A1288632A35D8012B32D100240BE08C
:102E68001E4A13801C4A13802BE01C490A88013231
:102E78000A80EDE70134E4B2272C12D8184B04EB92
:102E8800840203EB820113F82230002BF2D015489C
:102E9800FFF72AFC0028EDD1134B53F824301148D2
:102EA8009847282C10D0C82200210E4800F0CAFAF2
:102EB8000023084A1380064A1370084A1380064AFA
:102EC800138038BD0024D7E70848FFF7BDFBEAE7C1
:102ED8004C1300204C150020461500204A150020F0
:102EE8000C000020501300202C030020D09600086E
:102EF80008B5184B1B7813B9174A1288FAB1164A45
:102F08001288164909888A421ED914490A80144A27
:102F180000211180124A1288632A01D8012B0DD191
:102F2800C82200210F4800F08DFA00230A4A1380B6
:102F3800084A13700A4A1380084A138008BD084AD1
:102F48001380064A1380F9E705490A8801320A8086
:102F5800E0E700BF82120020801200204415002004
:102F68007E1200208412002008B580210348FEF755
:102F780043FD012800D0002008BD00BF0008014023
:102F880000B587B00023029303930493059303F1DC
:102F9800804303F504339A6942F004029A619B69FD
:102FA80003F004030193019BC023029311230393AD
:102FB8000323059302A90348FEF7FEFB07B05DF85B
:102FC80004FB00BF0008014030B585B00023009322
:102FD8000193029303938025009511230193012304
:102FE800029302230393144C69462046FEF7E4FB40
:102FF800256140232361114B1B881A46013B002A97
:10300800FBD1FFF7B1FFA8B10B4B4FF400021A61D7
:103018000A4B1B881A461146013A0029FBD1064A79
:103028004FF4800111611A46013B002AFBD10020B0
:1030380005B030BD0120FBE700080140CC030020AB
:1030480010B584B000230093019302930393802367
:1030580000931123019301230293022303930F4C3E
:1030680069462046FEF7A8FB4FF4000323614FF49E
:10307800800323610A4B1B881A461146013A00292E
:10308800FBD1064A402111611A46013B002AFBD1B7
:10309800024B80221A6104B010BD00BF0008014035
:1030A800CC0300200C4B4FF400021A614FF480024D
:1030B8001A610A4B1B881A461146013A0029FBD1AE
:1030C800054A402111611A46013B002AFBD1024BF7
:1030D8004FF480021A61704700080140CC030020B9
:1030E8000C4B80221A614FF480021A610A4B1B882C
:1030F8001A461146013A0029FBD1064A40211161BE
:103108001A46013B002AFBD1024B4FF480021A6198
:10311800704700BF00080140CC03002010B584B000
:1031280000230093019302930393802300930223C7
:1031380003931B4C69462046FEF73EFB4023236160
:10314800184B1B881A46013B002AFBD1FFF70CFFDE
:103158000446F0B9124B4FF480021A61114B1B88D8
:103168001A46013B002AFBD10D4880220261002348
:103178000093019302930393009211230193012377
:103188000293022303936946FEF716FB204604B018
:1031980010BD034B4FF480021A610224F6E700BF0A
:1031A80000080140CC030020164B4FF480021A613E
:1031B8004FF0000C1AE0134B80221A61124B1B8847
:1031C8001A461146013A0029FBD14000C0B20D4A07
:1031D800402111611A46013B002AFBD1094B4FF4EB
:1031E80080021A610CF1010C5FFA8CFCBCF1070F2C
:1031F80007D810F0800FDED1024B4FF400021A619D
:10320800DCE7704700080140CC03002070B584B0AB
:1032180000240094019402940394802600960223CB
:103228000393224D69462846FEF7C6FA2E612546C5
:1032380001E00134E4B2072C1AD81C4B4FF4800289
:103248001A616D00EDB21A4B1B881A461146013AF5
:103258000029FBD1154A402111611A46013B002A79
:10326800FBD1FFF781FE0028E3D045F00105E0E738
:103278000E4B4FF480021A610D4B1B881A46013B16
:10328800002AFBD100230093019302930393802328
:1032980000931123019301230293022303936946A8
:1032A8000248FEF789FA284604B070BD00080140BC
:1032B800CC030020F8B504460F4616461D46FFF716
:1032C80083FE10B101273846F8BD2046FFF76CFF92
:1032D800FFF724FF40B93846FFF766FFFFF71EFFE8
:1032E800074628B900240EE0FFF7AAFE0227EAE7FE
:1032F800FFF7A6FE0227E6E7305DFFF755FFFFF769
:103308000DFF0134A4B2AC42F6D3FFF799FEDAE719
:10331800F8B504460F4616461D46FFF755FE10B190
:1033280001273846F8BD2046FFF73EFFFFF7F6FEB7
:1033380080B93846FFF738FFFFF7F0FE074668B94F
:10334800FFF742FE44F00100FFF72EFFFFF7E6FE0D
:10335800002409E0FFF774FE0227E2E7FFF770FE9A
:103368000227DEE70134A4B2AC4208D2FFF74EFFD1
:1033780030556B1E9C42F5D0FFF794FEF2E7FFF73D
:10338800AFFEFFF75DFECCE710B5044600F0ACF8E1
:103398004FF6FF7382B221460448FEF79CFD0348AE
:1033A800FEF7CEFF2128FAD010BD00BF300E002056
:1033B800FEF7FAFF0B480C490C4A002302E0D458E8
:1033C800C4500433C4188C42F9D3094A094C002369
:1033D80001E013600432A242FBD300F00FF8FDF7BE
:1033E800E1FD704700000020800D0020FC9A0008D5
:1033F800800D00209C150020FEE7000070B50D4EE2
:103408000D4D761BB61006D0002455F8043B013448
:103418009847A642F9D1094E094D06F05DF8761B8A
:10342800B61006D0002455F8043B01349847A6424C
:10343800F9D170BDF09A0008F09A0008F89A0008CF
:10344800F09A0008830730B548D0541E002A3FD0B0
:103458000346CAB201E0013C3AD303F8012B9D07A9
:10346800F9D1032C2DD9CDB245EA05250F2C45EA13
:10347800054536D9A4F1100222F00F0C03F1200EF5
:10348800E6444FEA121C03F1100242E9045542E9EE
:10349800025510327245F8D10CF1010214F00C0FEC
:1034A80003EB021204F00F0C13D0ACF1040323F069
:1034B80003030433134442F8045B9342FBD10CF03A
:1034C80003042CB1CAB21C4403F8012B9C42FBD163
:1034D80030BD64461346002CF4D1F9E70346144680
:1034E800BFE71A46A446E0E720F0030110F0030006
:1034F800C0F1000051F8043B00F1040C4FEACC0C79
:103508006FF000021CBF22FA0CF213434FF0010CBB
:103518004CEA0C2C4CEA0C4CA3EB0C0222EA0302FA
:1035280012EACC1204BF51F8043B0430F4D0C2F1C3
:10353800000102EA0102B2FA82F2C2F11F0200EBB4
:10354800D200704710B5194C002924689AB028DBBE
:10355800009004904FF402704FF6FF7CADF80C0019
:1035680011D001390291059120466946ADF80EC087
:1035780000F04CF8421C01DA8B2323600022009BE8
:103588001A701AB010BD0291059120466946ADF82F
:103598000EC000F03BF8431C01DA8B2323601AB0FD
:1035A80010BD8B234FF0FF302360F8E7D0030020D5
:1035B800024B13B1024800F005B870470000000044
:1035C800D9350008002301461A46184601F070BD97
:1035D80038B5084B084D5B1B9C1007D0043B1D44B5
:1035E800013C55F804399847002CF9D1BDE838401A
:1035F80005F078BFFC9A0008F89A0008704700BFE9
:10360800704700BF704700BF704700BF2DE9F04FFB
:10361800D5B00C460C9191460E930A9002F0DAFE52
:10362800036818461793FFF75FFFA38916901906DA
:1036380003D52369002B00F08F8700242BAB22468B
:1036480098464D46CDE92944289312940023002436
:10365800CDE914342B78CDE91922CDE91B22189233
:103668000892002B00F0CE81AA4604E01AF8013F28
:10367800002B00F00981252BF8D1BAEB050640F0A4
:1036880007819AF80030002B00F0BC8100234FF02E
:10369800FF324FF02B0920241F469AF80160079249
:1036A8000AF1010A8DF8833009930AF1010AA6F19B
:1036B80020035A2B00F22081DFE813F0CA021E0112
:1036C8001E01C5021E011E011E01A3021E011E01CC
:1036D8006A00F3021E014702D9021E01D4025B00F0
:1036E8005B005B005B005B005B005B005B005B00FA
:1036F8001E011E011E011E011E011E011E01B00138
:103708001E010B027A00B001B001B0011E011E01BA
:103718001E011E019E021E011E01B6001E011E0191
:103728001E0119021E014C021E011E013F071E0147
:103738001E011E011E011E011E011E011E01B001F7
:103748001E010B027C00B001B001B00191027C00A7
:1037580075001E0184021E017002B8005E02750029
:103768001E01190272001C071E011E011F071E01FF
:1037780072000022A6F130031AF8016B02EB8202F4
:1037880003EB4202A6F13003092BF5D909928EE723
:103798000E9B53F8042B002A09920E93C0F2D28193
:1037A8009AF8006081E79AF8006047F020077CE704
:1037B80047F01007BA060E9B40F17D81073323F0CE
:1037C80007031A465B6852F8084B99460E92002B7D
:1037D800C0F27F85079B013301F0398054EA090361
:1037E80027F0800B00F005850A2C79F1000380F0A2
:1037F800938701235F4630348DF84F410B930DF2C8
:103808004F15079A0B9900238A42B8BF0A460692B9
:103818009DF883200D930F9313931093002A7CD067
:10382800069B0133069378E047F0100717F020094C
:1038380000F032810E9B073323F00703D3F804907E
:1038480053F8084B0E93002327F4806B00228DF861
:103858008320079A511C00F02A8254EA09012BF0B0
:10386800800740F02382002A41F02B80002B40F093
:10387800C5841BF001030B9300F0548530230DF22F
:103888004F158DF84F31BCE7BAEB050600F0BA804A
:103898002A9BC8E9005633442A93299B0133072BF6
:1038A800299305DC08F10808089B33440893E8E6E7
:1038B8000C990A9828AA03F0B3FC80B90DF1AC085A
:1038C800F2E70C990A9828AA03F0AAFC002800F04D
:1038D8008A800D9B1BB10D990A9802F07BFC0C9B0A
:1038E8009B8913F0400F089B18BF4FF0FF330893D4
:1038F800089855B0BDE8F08F002E00F083800123B2
:1039080000228DF8EC6006933BAD8DF883200B9375
:103918000D9207920F921392109217F0020302D0A1
:1039280006990231069117F0840B07D10999069878
:10393800A1EB0009B9F1000F00F336832A9C82B18C
:103948000122C8F80420299A013401320DF18301BB
:10395800072A2A942992C8F8001000F3698308F10D
:1039680008087BB10223C8F80430299B02340133CC
:1039780021AA072B2A942993C8F8002000F36C8306
:1039880008F10808BBF1800F00F02E82079B0B9A04
:10399800A3EB020BBBF1000F00F37182FB0500F1F2
:1039A800C5810B9BC8F800501C44C8F80430299BFB
:1039B8002A940133072B299300F3EA8208F10808B7
:1039C8007B0705D5099B069A9D1A002D00F35083A5
:1039D800DDE9083206998A42ACBF9B185B18089348
:1039E800002C7FF46EAF002329930D9B1BB10D991A
:1039F8000A9802F0EFFB55460DF1AC082B78002B26
:103A08007FF432AE2A9B002B3FF469AF0C9C0A98D6
:103A1800214628AA03F004FCA38962E70E9B07331A
:103A280023F00702F2E80234CDE91434DDE9143456
:103A380024F00044994618460E9221464FF0FF3272
:103A4800B64BFDF7B9F8002840F096844846214661
:103A58004FF0FF32B14BFDF791F8002840F08C840D
:103A6800DDE9140100220023FDF77EF8002840F06C
:103A7800A6879DF8832000210320A94DA94B27F094
:103A880080070D910690472EC8BF1D4607910B90E1
:103A98000F9113911091C1E617F0100340F0628462
:103AA80017F0400200F07B870E9A994652F8044BB3
:103AB8000E92A4B2C7E653F8044B0E93FB0600F12E
:103AC80041847D0640F13B8444F3C0394B4624B21F
:103AD8007DE6012000220E9B069053F8041B3BADA7
:103AE8008DF883208DF8EC100E930B9010E74FF0B3
:103AF80000090E9C079B54F8045B8DF88390002DF9
:103B080000F0EE865A1C00F060851A4649462846A1
:103B180002F010FF0D90002801F09E800D9B9DF88B
:103B280083205B1B0B9323EAE373CDF81C900E9460
:103B38000693CDF83490CDF83C90CDF84C90CDF864
:103B480040906BE6099B5B4209939AF8006047F046
:103B58000407AAE547F0100B1BF0200900F0AA8320
:103B68000E9B073323F007031A4652F8084BD3F885
:103B780004900E92012369E6302278260E9B8DF878
:103B8800842053F8044B684A0E934FF0000902232F
:103B980047F0020B8DF88560189257E6BD0600F1D4
:103BA800D683FC0600F19386780600F15D87B90597
:103BB80040F18D860E9B089953F8042B55461170D9
:103BC8000E931BE79AF800606C2E03BF9AF8016009
:103BD80047F020070AF1010A47F0100765E59AF84F
:103BE8000060682E03BF9AF8016047F400770AF175
:103BF800010A47F0400758E59AF8006047F00807BF
:103C080053E50A9E304602F0E5FB436818461B93CD
:103C1800FFF76AFC034630461C931E4602F0DAFBA7
:103C280083681993002E3FF4BBAD199B002B3FF41A
:103C3800B7AD199B1B78002B3FF4B2AD9AF8006022
:103C480047F4806731E59AF8006047F001072CE5F2
:103C58009DF88330002B7FF4A3AD9AF800608DF8AF
:103C6800834022E59AF8006047F080071DE5524638
:103C780012F8016B2A2E01F0EB81A6F13003092B13
:103C8800924698BF002201F203801AF8016B02EBFA
:103C9800820203EB4202A6F13003092BF5D9079201
:103CA80005E59AF800608DF88390FEE4BB46012B89
:103CB8003FF49AAD022B54AD12D1189A04F00F03B9
:103CC800D35C240944EA09744FEA191905F8013D3F
:103CD80054EA0903F2D154AB5B1B5F460B9390E5A2
:103CE80004F00703E40844EA49744FEAD909303379
:103CF80054EA09012A4605F8013DF1D11BF0010FEC
:103D0800E9D0302BE7D03023023A05F8013C54AB18
:103D18009B1A5F4615460B9373E500BFFFFFEF7FC5
:103D2800EC960008F0960008FC960008652E40F313
:103D3800E980DDE9140100220023FCF70BFF0028CD
:103D480000F0D2810123C8F80430299BBF4A01330F
:103D58000134072B2A942993C8F8002000F37A85A8
:103D680008F10808229B129A934280F2D782169B88
:103D7800179A1C44C8E90023299B2A940133072B6E
:103D8800299300F3DD8308F10808129B5D1E002DBE
:103D98007FF716AE102D41F34181DFF8B492224629
:103DA80049461026B946299B0F46DDF828B00C9CD9
:103DB80005E008F10808103D102D40F3588501333F
:103DC8001032072BC8E90076CDE92932F1DD21460A
:103DD800584628AA03F024FA00287FF47AADDDE9D2
:103DE80029320DF1AC08E6E7099B069AA3EB020B12
:103DF800BBF1000F7FF7CAADBBF1100F41F305808F
:103E0800DFF84C9241462046A8464C461023299A92
:103E18000C9DDDF8289006E0ABF1100BBBF1100FFC
:103E280001F1080119DD01321030072AC1E9004308
:103E3800CDE92920F0DD2946484628AA03F0F0F903
:103E480000287FF446ADDDE92920ABF1100BBBF16A
:103E5800100F4FF010032BA9E5DC4546A146884614
:103E6800044601325C44072ACDE92924C8F80090A9
:103E7800C8F804B000F3188508F1080886E5BBF116
:103E8800100F40F39785DFF8C89141462046A846B1
:103E98004C461023299A0C9DDDF8289006E0ABF1DA
:103EA800100BBBF1100F01F1080119DD01321030C0
:103EB800072AC1E90043CDE92920F0DD2946484613
:103EC80028AA03F0ADF900287FF403ADDDE9292025
:103ED800ABF1100BBBF1100F4FF010032BA9E5DC71
:103EE8004546A1468846044601325C44072ACDE986
:103EF8002924C8F80090C8F804B000F3CE8108F16E
:103F080008084BE5129B012B40F37E810123299E73
:103F180001341E44072EC8F800502A94C8F804300B
:103F2800299600F3E18108F10808169B0136179AD3
:103F38001C44072EC8E90023CDE9296400F3E18178
:103F480008F108080022DDE914010023FCF702FE4D
:103F5800002840F07681129B0136013B01351C4454
:103F6800072EC8F800502996C8F804302A9400F3A0
:103F78005B8108F108081A9B01361C44C8F8043014
:103F8800072E24ABCDE92964C8F800307FF716ADB9
:103F98000C990A9828AA03F043F900287FF499ACF1
:103FA8002A9C0DF1AC080BE5B9F1100F40F35086CF
:103FB800DDE929214046CDE91D36B84610244F4693
:103FC8000C9EA9460A9D04E0103F102F00F108003E
:103FD80016DD01321F4B1031072AC0E90034CDE944
:103FE8002921F1DD3146284628AA03F019F90028CD
:103FF8007FF46FACDDE92921103F102F2BA8E8DCF6
:104008004D46DDE91D36B9464746804609EB0104B1
:1040180001321049072ACDE92924C8F80490C8F8C4
:10402800001000F3C3839DF8832008F1080886E494
:104038000C990A9828AA1D9303F0F2F800287FF437
:1040480048AC2A9C1D9B0DF1AC088AE42C9700080B
:1040580040970008309700080C990A9828AA03F09E
:10406800DFF800287FF435AC2A9C0DF1AC0889E410
:10407800102D40F3C4861026299B0A9FDDF8309046
:1040880004E0103D102D08F1080817DD0133B84A87
:104098001034072BC8E90026CDE92934F1DD49465B
:1040A800384628AA03F0BCF800287FF412ACDDE9F2
:1040B8002934103D102D0DF1AC08E7DC0133AC4A72
:1040C8002C44072BCDE92934C8F80450C8F800203F
:1040D8007FF77EAC0C990A9828AA03F0A1F800286B
:1040E8007FF4F7AB2A9C73E42299002940F36F838D
:1040F800DDF84090129B9945A8BF9946B9F1000F89
:104108000BDD299B4C440133072BC8E900592A943D
:10411800299300F31D8508F10808109EB9F1000FD6
:10412800A8BFA6EB0906002E00F32582DDF840B0F3
:104138007805AB4400F15F82229B129A934202DB1E
:10414800F90740F17684169A17991444C8E90012C1
:10415800299A2A940132072A299200F3138508F133
:104168000808129AAE18A6EB0B06D51AAE42A8BFDD
:104178002E46002E0DDD299B34440133072BC8F849
:1041880000B0C8F804602A94299300F3718508F1F7
:104198000808002EA8BFAD1B002D7FF711AC102D0D
:1041A80040F33C87DFF8CC91224649461026B946B1
:1041B800299B0F46DDF828B00C9C05E008F108089B
:1041C800103D102D40F3538301331032072BC8E9FB
:1041D8000076CDE92932F1DD2146584628AA03F0B8
:1041E8001FF800287FF475ABDDE929320DF1AC0822
:1041F800E6E7079B002B7FF4FCAA5F46002354AD3B
:1042080007930B93FFF7FDBAFA073FF57FAE01233B
:10421800299E01341E44072EC8F800502A94C8F875
:10422800043029967FF7A5AE0C990A9828AA02F0BF
:10423800F7FF00287FF44DABDDE929640DF1AC08E8
:1042480099E6129B5D1E002D7FF795AE102D40F369
:10425800DF86224607974FF0100BDFF818910A9C6B
:104268000C9F05E008F10808103D102D40F37F83EE
:1042780001361032072EC8E9009BCDE92962F1DD2D
:104288003946204628AA02F0CBFF00287FF421AB4C
:10429800DDE929620DF1AC08E6E70C990A9828AA2D
:1042A80002F0BEFF00287FF414AB2A9C0DF1AC0885
:1042B800FFF774BB1BF010030E9A3AD11BF04001B4
:1042C80033D052F8044B99460E920123A4B2FFF75B
:1042D800BDBA2D2364428DF88330BB464FF00103ED
:1042E80069EB4909FFF7B5BA0C990A9828AA02F0B0
:1042F80097FF00287FF4EDAADDE929640DF1AC08E9
:1043080013E60C990A9828AA02F08AFF00287FF47D
:10431800E0AADDE929640DF1AC0813E6FD077FF595
:104328004FAB24E554ADFFF76CBA1BF4007940F0AD
:104338008A8352F8044B01230E92FFF787BAB80517
:1043480000F19B834FEAE4794B46FFF740BA0E9B96
:10435800089853F8041BC2175546C1E900020E938A
:10436800FFF74CBB0E9B53F8044B0E93FFF76BBA49
:104378003097000840970008DDE9140102460B4613
:10438800FCF71AFC002840F0E985612E00F07D85D5
:10439800412E00F08B84079B013300F08F8326F0B9
:1043A8002003472B069300F08F85DDE9141247F4AC
:1043B80080730F931346002BC0F2B0850B93002334
:1043C8008B461D930D93069B462B00F0E983452BE6
:1043D80000F0468507990B9B01910221009126A9BF
:1043E800049123A9039122A95A460A98029100F040
:1043F8003BFF069B0546472B40F03A8617F0010F16
:10440800B9460F9F40F0FE84269B5B1B1293069BC8
:10441800472B00F06E83069B462B00F0F083229B0F
:104428001093109B069A013B412A229300F0BB850A
:104438000021F2B2002B8DF89020B6BF2D222B223E
:10444800109B8DF89120B8BFC3F10103092B40F3ED
:104458009B850DF19F0C6246B64F1C46104687FBA4
:104468000312D917C1EBA20101EB8102A3EB4202AF
:104478003032632C00F8012C0B4600F1FF32ECDCE3
:104488003033811EDBB28C4502F8013C40F2F985DD
:104498000DF1920101E012F8013B944501F8013B4E
:1044A800F9D10DF1A1030DF192021B1A134424AAAC
:1044B8009B1A1A93129B1A9A012B1A440B9240F3D7
:1044C80081850B9B169A13440B9300230B9A29F4AE
:1044D800806722EAE27247F480770F93069213937B
:1044E80010931D9B002B40F02C839DF8832007938D
:1044F800FFF794B9BB46FFF72FBB8F4B189317F004
:10450800200900F0F5800E9B073323F00703D3F84A
:10451800049053F8084B0E93F80709D554EA090399
:1045280006D030238DF8856047F002078DF8843077
:10453800022327F4806BFFF789B9804B1893DEE7D5
:104548000C990A9828AA02F06BFE00287FF4C1A9EA
:104558002A9C0DF1AC0818E440210A9801F03EFFAE
:104568000C9B18601861002800F0978540230C9A6E
:104578005361FFF762B8102E40F37685DFF8C091DB
:10458800424648462146A846B9464FF0100B074612
:10459800299B0A9C0C9D04E00832103E102E40F323
:1045A800138201331031072BC2E9007BCDE9293191
:1045B800F2DD2946204628AA02F032FE00287FF4C0
:1045C80088A9DDE929312BAAE7E72846CDF81C9010
:1045D8000E94FEF789FF20EAE0739DF883200B9084
:1045E800CDF83490CDF83C90CDF84C90CDF8409073
:1045F8000693FFF713B9129B4246DDF84C80EB187F
:104608005E460793CDF82CA010972146199FDDF838
:104618007090DDF828A0DDF830B00F9B1395B8F145
:10462800000F2ED083BB013F08F1FF381B9B494484
:10463800C2E90039299B2A910133072B299360DCB1
:104648000832079B38789B1B8342A8BF0346002B80
:104658001C460BDD2998194401300728C2E900637C
:104668002A91299000F3148138780832002CB4BFBD
:104678000546051B002D0BDC06440F9BB8F1000F07
:10468800D0D1002B00F026820F9B013B0F93CDE782
:10469800102D40F39D841024299804E0103D102D1E
:1046A80002F1080216DD0130254B10310728C2E956
:1046B8000034CDE92901F1DD5946504628AA02F017
:1046C800AFFD00287FF405A9DDE92901103D102D73
:1046D8002BAAE8DC01301A4B29440728CDE9290127
:1046E8005560136000F34182387808320644C4E705
:1046F80017F0100300F0A0800E9B53F8044B0E93A4
:104708000AE75946504628AA02F08AFD00287FF495
:10471800E0A82A992BAA94E700230BF48062069656
:10472800CDF82CA0CDF8348092461E46DDF8648082
:1047380054AF14E067666666FC9600081097000898
:10474800409700080023204649460A22FCF772FADF
:104758000A2C79F100031BD3044689462F462046CC
:104768000A2200234946FCF765FA30327D1E0136DD
:1047780007F8012CBAF1000FE4D098F800309E42F7
:10478800E0D1FF2EDED00A2C79F1000380F03081D1
:1047980054AB5B1BDDF82CA0CDF8648012965F4605
:1047A800069EDDF834800B93FFF72BB80C990A9816
:1047B80028AA1D9302F034FD00287FF48AA89DF8EA
:1047C80083202A9C1D9B0DF1AC08FFF7B8B8012384
:1047D800C8F80430299BBC4A01330134072B2A94BA
:1047E8002993C8F8002000F3178108F10808002968
:1047F80040F08680129A07F0010313433FF4E0A8C3
:10480800169B17991A19C8E90013299B2A92013394
:10481800072B299300F3378108F10808129901330F
:104828008C18072BCDE92934C8F80050C8F80410B3
:104838007FF7C4A8FFF7ACBB17F0400200F0A580D3
:104848000E9A994652F8044B0E92A4B264E6BB46FF
:10485800FEF7CABF0C990A9828AA02F0E1FC0028C2
:104868007FF437A82A9C0DF1AC08FFF77BBA1446F1
:104878003A464F46914601332C44072BC8F800901E
:10488800C8F80450CDE929347FF798A8FFF780BB12
:104898005946504628AA02F0C3FC00287FF419A8FC
:1048A80038782A992BAAE1E60C990A9828AA02F0E6
:1048B800B7FC00287FF40DA82A9C0DF1AC08FFF77F
:1048C80065B8012BBB467FF4F5A9FEF792BF0E9B96
:1048D800089953F8042B554611600E93FFF78EB8CC
:1048E800062B294628BF06232A4607950D950693C9
:1048F800764D0E940B930F9113911091FEF78EBF86
:10490800169B17981A19C8E90003299B2A920133A4
:10491800072B299300F3B78008F108080029BFF690
:104928007DAF4E42103180F2A98341461024A8463B
:10493800DFF89C91DDF828B00C9D04E00831103EAA
:10494800102E40F3A78201331032072BC1E90094DF
:10495800CDE92932F2DD2946584628AA02F060FC42
:1049680000287EF4B6AFDDE929322BA9E7E7144623
:10497800079F01362C44072ECDE92964C8F800901A
:10498800C8F804507FF7F5AA4EE417F400790E9B97
:1049980066D053F8044B91460E93E4B2BCE517F485
:1049A80000790E9B57D053F8044B91460E93E4B20E
:1049B800FEF749BF299ADFF81891FFF795BA2D221B
:1049C8008DF88320FFF757B8454690463A460C467F
:1049D8004F46914601333444072BCDE92934C8F8B2
:1049E8000090C8F804605CDC08F10808FFF79EBB7B
:1049F8001C9B1B99ED1A1A46284602F0DDFB98F815
:104A080001300BB108F10108204649460A2200236B
:104A18000026FCF70FF99FE60C990A9828AA02F0DD
:104A2800FFFB00287EF455AF22992A9C0DF1AC08B3
:104A3800DDE6129AAE18A6EB0B06D51AAE42A8BF51
:104A48002E46FFF7A6BB52F8044B894601230E9267
:104A5800E4B2FEF7FBBE53F8044B0E93FEF7F3BE29
:104A680053F8044B0E9357E50E9B089953F8042B03
:104A7800554611800E93FEF7C1BF44F3C0194B464B
:104A880064B2FEF7A4BE0C990A9828AA02F0C8FBE3
:104A980000287EF41EAFDDE9293222990DF1AC0819
:104AA8003CE70C990A9828AA02F0BAFB00287EF481
:104AB80010AF2A9C0DF1AC08FFF738BB062307930B
:104AC80026F02003069370E42C970008249700082A
:104AD80040970008DDE91235EB189E42B346199756
:104AE80090460C4628BF9B46DDF82CA0109FFFF788
:104AF80023BB229BDA1C109302DB079A934204DD46
:104B0800023E26F0200306938BE4109B129A9342F0
:104B1800C0F2C28019F0010F00F01D82169A1344EA
:104B28000B9319F4806F00F01482109B6726002BFA
:104B380076DC0B9B23EAE373069300230F9313930E
:104B4800CFE42D2200238DF883200793FEF768BE5B
:104B58000C990A9828AA02F063FB00287EF4B9AEE3
:104B68002A9C0DF1AC08FFF7D8BA5946504628AA36
:104B780002F056FB00287EF4ACAE38782A992BAAAE
:104B880006447AE50C990A9828AA02F049FB0028FD
:104B98007EF49FAE229B2A9C0DF1AC08FFF7E1BA88
:104BA80007990B9B01910321009126A9049123A940
:104BB800039122A95A460A98029100F055FB0378FE
:104BC8000546302B00F01682229B079AB9461344FB
:104BD8000F9FEC185846002200230B99FBF7BAFFE9
:104BE80008B1234611E4269BA342BFF40EAC302142
:104BF8005A1C26921970269B9C42F9D805E4229AE1
:104C0800002A109240F30E82079909F001030B4322
:104C180040F07E816626109B0B9319F4806F88D034
:104C280019990B78FF2B00F025820024109A204652
:104C380004E001300131FF2B00F05981934280F2EA
:104C48005681D21A4B78002BF3D10B780134F2E756
:104C5800DDE92921FFF7DAB9079B9DF883200E9437
:104C680006930B9307900F9013901090FEF7D6BD04
:104C78000C990A9828AA02F0D3FA00287EF429AEE3
:104C8800229D129B2A9C0DF1AC085D1BFFF781BA8F
:104C980000230793FEF70BBD129B169A9A18109BD8
:104CA8000B92002B40F385816726B6E730238DF8F9
:104CB800843058238DF88530079B47F00204632B16
:104CC80000F3C48000233BAD0D9347F481730F9329
:104CD800DDE914121346002B2746C0F284800B939B
:104CE80000238B461D9326F020030693612E00F0C7
:104CF8001881412E7FF467AB22AA58460B9902F01F
:104D080011FA00224FF07F53FBF7BCFC02460B461A
:104D1800CDE9102300220023FBF71CFF08B1012373
:104D28002293AD4B0B93079BCDE912A6CDE91E78D4
:104D3800DDE91067AB46DDF82CA003F1FF391095CB
:104D480006E00022002309F1FF39FBF703FFE8B969
:104D58000022A24B30463946FBF794FC0F46064624
:104D6800FBF740FF0446FBF723FC0B460246394697
:104D78003046FBF7CFFA1AF80430B9F1FF3FD846AE
:104D88004D4606460F460BF8013BDAD13046394608
:104D98000022934BA946DDF848A0109DCDF8488025
:104DA800CDE91001DDF87C80139E1E9FFBF7FAFE0B
:104DB80080BBDDE910010022894BFBF7CBFE08B16F
:104DC800E10727D44B46002B06DB302201335B4436
:104DD8000BF8012B5B45FBD1ABEB0503B9461293EE
:104DE8000F9FFFF714BB26F0200306932D22DDE961
:104DF80014349B4604F100431D920B9376E7299BDC
:104E0800FFF75CB9079BEC18E4E6299ADFF8D49120
:104E1800FFF727B8129B26930B9B1BF8012CD97B15
:104E28005B468A4209D1302003F8010C269B5A1EA2
:104E3800269213F8012C9142F6D0392A0BBF0B9A0F
:104E48000132927AD2B203F8012CC5E70A98591CAC
:104E580001F0C4FA0546002800F017810D9034E7E8
:104E68000221009107995A464C1C26A9049123A9AE
:104E7800039122A90B9B0A980194029100F0F4F97E
:104E88000546B9462C440F9FA4E630238DF884309C
:104E980078230FE74546884601333244072BCDE98E
:104EA8002932C8F80090C8F804607FF7B5AC0C99AF
:104EB8000A9828AA02F0B4F900287EF40AADDDE9C0
:104EC80029320DF1AC08A9E4079B002B08BF012388
:104ED800079347F480730F93159B002BC0F2B6809D
:104EE800DDF850B00D900B931D90FFF773BA199130
:104EF800109213900F940F9A139B1C9913440B9ABA
:104F080001FB03230B9323EAE3730693FFF7E9BA44
:104F1800169B6626D31819440B917EE600230D9341
:104F280064E722AA58460B9902F0FCF800224FF0D9
:104F38007F53FBF7A7FB02460B46CDE9102300225F
:104F48000023FBF707FE08B101232293264B0B939E
:104F5800E9E66726EDE5109B0B93E2E5159B032038
:104F6800002BB8BF2D224FF00003A8BF9DF8832067
:104F780019460D931D4D1E4BB8BF8DF8832027F0A1
:104F880080070690FEF77FBD002944D130228DF8B6
:104F980092200DF19302303302F8013B24ABD31A6F
:104FA8001A93FFF787BA06F10F020121D2B2FFF771
:104FB80041BAC3F101031A4422EAE27367260B924D
:104FC8000693BAE519F0010F3FF47FAAFFF779BA03
:104FD8002998FFF77FBB00BF1097000800003040FA
:104FE8000000E03F40970008FC960008F49600088F
:104FF800F89600085846002200230B99FBF7AAFDF3
:1050080000287FF4E1AD079BC3F101032293DCE59F
:10501800DFF89890ADE40DF19202BCE7299BDFF828
:105028008C9028E4079A09F0010959EA020304D18F
:105038000123662606930B937FE5169B66260133AC
:105048001A4422EAE2730B92069376E50D90CDE6B8
:105058000E9B9AF80160924653F8042B0E9342EA8D
:10506800E2730793FEF721BB299BDFF84090B1E478
:10507800079C06E700230F9313933CE7DFF82C9077
:105088000AE702231A93FFF715BA0C998B8943F0A4
:10509800400213468A81FEF724BC4FF0FF320C23EE
:1050A80008920A9A1360FEF723BC00BF40970008D5
:1050B8002DE9F047DFF87CA00646DAF800009846AC
:1050C8000F469146FEF79EFA1B4B1B68D3F84841E2
:1050D80024B365681F2D26DC5EB96B1C0235DAF82F
:1050E8000000636044F82570FEF78EFA0020BDE8E2
:1050F800F087012304EB8501C1F88890D4F8882152
:10510800AB401A43022EC4F88821C1F80881E4D1C3
:10511800D4F88C211343C4F88C31DEE703F5A67468
:10512800C3F84841D5E7DAF80000FEF76DFA4FF00A
:10513800FF30DCE700080020E89600082DE9F04F72
:1051480003690C6985B0A342C0F28980013C01F172
:105158001405A30000F11408019355F8243058F8F9
:10516800242001338A469A4208EB84018146B2FB27
:10517800F3F605EB840702913AD30021AE46404688
:105188000A46A34603955EF8045B0468ABB206FBC7
:1051980003132D0C190C06FB05119BB2D21A1FFA2A
:1051A80084FC94448AB2C2EB144202EB2C421FFAEC
:1051B8008CFC4CEA0243774540F8043B4FEA114126
:1051C8004FEA2242DFD2019B5C4658F80330039D28
:1051D80073B9029B043B984504D307E0984504F152
:1051E800FF3403D253F80429002AF7D0C9F8104035
:1051F8005146484601F06EFE00282CDB404600234D
:10520800013655F8041BD0F800C08AB29A1A1FFA62
:105218008CFE0B0C7244C3EB1C4303EB224392B28B
:1052280042EA0342AF4240F8042B4FEA2343E8D254
:1052380058F8242008EB84036AB9043B984504D342
:1052480007E0984504F1FF3403D253F80429002AF3
:10525800F7D0C9F81040304605B0BDE8F08F0020FF
:1052680005B0BDE8F08F00BF2DE9F04F9046994694
:10527800016C99B00446CDE90489259D41B101230B
:10528800426C93408B604A6001F0CEFB002323649C
:10529800B9F1000AB4BF012300232B60764BBCBFD1
:1052A8002AF0004ACDF814A033EA0A0300F0AA80D5
:1052B800DDE904231046194600220023CDE90A013E
:1052C800FBF748FC074670B10123249A1360269B1C
:1052D800002B00F0E68269481860431E0393039888
:1052E80019B0BDE8F08F16AB019317AB00932046B9
:1052F800DDE90A2301F0B4FE5FEA1A56054640F0DC
:105308009780DDE916763E4406F23240202840F3C5
:10531800B783C0F140000AFA00FA06F2124028FAF0
:1053280000F04AEA0000FBF733F90123013E0F932E
:10533800A1F1F8710022524BFAF7ECFF48A3D3E928
:105348000023FBF79FF948A3D3E90023FAF7E4FF0A
:10535800804630468946FBF72BF945A3D3E900235D
:10536800FBF790F902460B4640464946FAF7D4FF48
:1053780080468946FBF736FC0022834600234046D8
:105388004946FBF7F1FB002840F07E82BBF1160F7F
:1053980000F26D82DDE90A013A4B03EBCB03D3E956
:1053A8000023FBF7E1FB002872D00023BE1B0E93FD
:1053B800731E0BF1FF3B069300F1608200230993F3
:1053C800BBF1000F6BDA099BCDF81CB0A3EB0B0304
:1053D8000993CBF100030D93229B4FF0000B092B8F
:1053E80066D8052B40F34A830026043B2293229B70
:1053F800023B032B00F26C86DFE813F061045E04C5
:105408005504380442F20F73249ACAF3130A13603E
:105418005AEA08031AD1269B002B00F068861A4B1B
:1054280003930833269A0398136019B0BDE8F08FE8
:10543800DDE90A12C2F31303084643F07F510F97C0
:10544800A6F2FF36169F41F4401173E7269B002B06
:1054580040F0EF830D4B039341E700BFAFF30080AB
:1054680061436F63A787D23FB3C8608B288AC63F62
:10547800FB799F501344D33F0000F07F2D9700081D
:105488000000F83FA09800085497000850970008BB
:10549800BE1B731E069300F18A840E900990069B2A
:1054A8005B44CDE9063B00230D93229B092B98D939
:1054B800002322934FF0FF330126089300230C9614
:1054C80023930021089B61641293204601F086FA19
:1054D8000390002800F00486039B2364089B0E2B8E
:1054E80000F21481002E00F011810799002940F381
:1054F8006084AF4B01F00F0203EBC2030A46D3E905
:1055080000674FEA2118D10540F11784DDE90A0147
:10551800A84B4FF0030AD3E90823FBF7DDF9CDE9DF
:10552800100108F00F08B8F1000F13D0DFF88492CB
:1055380018F0010F09D0D9E9002330463946FBF7A6
:10554800A1F806460F460AF1010A5FEA680809F160
:105558000809EDD1DDE9100132463B46FBF7BCF9FD
:10556800804689460E9B43B1002240464946924BED
:10557800FBF7FAFA002840F035855046FBF718F893
:1055880042464B46FBF77EF88C4B0022FAF7C4FEE6
:10559800A1F15073CDE910011193089B002B00F085
:1055A8009780079B1493089B13930C9B002B00F088
:1055B800A984139A7E4B002003EBC20353E902230C
:1055C8007F49FBF789F9DDE91023FAF7A3FECDE956
:1055D800100149464046FBF705FB0746FAF7E8FF86
:1055E80002460B4640464946FAF794FEDDE9102389
:1055F800039E303706F8017B80468946FBF7B4FAEC
:10560800002840F02E85CDF854B00027DDE910AB16
:105618001095139D13942AE00137AF4280F22E852E
:10562800504659460022674BFBF72CF80022654B81
:1056380082468B4640464946FBF724F88946804611
:10564800FBF7D0FA0446FAF7B3FF02460B4640468A
:105658004946FAF75FFE303452465B4606F8014B7E
:1056680080468946FBF780FA002840F0F8844246D5
:105678004B4600205049FAF74DFE52465B46FBF771
:1056880073FA0028C8D0DDE91343109D039A0793E5
:1056980002E0964200F0CD84B24616F8013D392B5F
:1056A800F7D00133DBB23370079B01330793C8E1AE
:1056B8005046FAF77DFF42464B46FAF7E3FF3F4B69
:1056C8000022FAF729FEA1F15073CDE910011193D8
:1056D8004046494600223C4BFAF71CFEDDE910899A
:1056E8004B46424606460F46FBF75CFA81460028C1
:1056F80040F0AF84DDE91001024601F10043304675
:105708003946FBF731FA002840F04883179B002BF5
:10571800C0F28C80079A0E2A00F38880244B03EB92
:10572800C203D3E900AB239B002B1BDA089B002B99
:1057380018DC40F031830022234B50465946FAF7D3
:10574800A1FF02460B46DDE90A01FBF717FADDF86F
:1057580020904E46002800F0CA82239BDDF80C807A
:10576800DF43CCE25246DDE90A785B4638464146DB
:10577800FBF7B2F8FBF736FA81460990FAF718FFFB
:1057880052465B46FAF77EFF039E0B4602464146A9
:105798003846FAF7BFFD09F1300306F8013B089BCC
:1057A800012B00F05F83069401271C4604952AE02C
:1057B800A0980008789800080000F03F00001C40FE
:1057C8000000E03F000024400000144052465B46C1
:1057D80040464946FBF780F8FBF704FA0546FAF716
:1057E800E7FE52465B46FAF74DFF01370B46024685
:1057F80049464046FAF78EFD05F13003A74206F800
:10580800013B00F02C830022AB4BFAF73BFF002250
:10581800002380468946FBF79DF90028D6D0049DD1
:10582800069C079BB246013307930AE10C9A002AAB
:105838003DD0229A012A40F39F82089B03F1FF384A
:105848000D9B4345C0F27082A3EB0808089B002B10
:10585800C0F24083069A1A440692099A17461A44D7
:1058680009920121204601F087F9064623E0012329
:10587800BE1B0E93731E06937FF5A0ADC6F1010300
:105888000993002306939BE55846FAF791FE424692
:105898004B46FBF75FF900287FF478AD0BF1FF3B2F
:1058A80074E5864B0393039819B0BDE8F08FDDF8D3
:1058B8003480099F0C9E002F0CDD069900290B46A9
:1058C80008DDB942A8BF3B46099AFF1AD21ACB1A7B
:1058D800099206930D9BE3B10C9B002B00F06082AC
:1058E800B8F1000F10DD31464246204601F020FA9B
:1058F80006462A463146204601F06CF903462946F9
:1059080020461D4601F090F80D9BB3EB080240F0CD
:10591800DB820121204601F02FF9BBF1000F8146FF
:1059280000F3B380229B012B40F388814FF0000ADB
:105938000120BBF1000F40F0B480069A104410F02B
:105948001F0000F09280C0F12003042B40F3D383A2
:10595800099BC0F11C0003440244099307440692C2
:10596800099B002B05DD29461A46204601F03CFA22
:105978000546069B002B05DD49461A46204601F0E0
:1059880033FA81460E9B002B40F03881089B002B90
:1059980040F31E810C9B002B40F09F80079B013336
:1059A80007930127DDF80C80DDF820A007E02946E1
:1059B80000230A22204601F041F8054601374946EE
:1059C8002846FFF7BBFB574500F1300308F8013BB9
:1059D800EDDB089A0027002ACCBF93464FF0010B55
:1059E800039A9344294601222046049301F0FCF9C6
:1059F8004946054601F06EFA002840F3AB811BF8D2
:105A0800013C039A0BF1FF3B04E05A4500F0AD81DD
:105A18001BF8013D392B0BF1010AF6D001338BF845
:105A280000304946204600F0FFFF56B12FB1B7427B
:105A380003D03946204600F0F7FF3146204600F0F3
:105A4800F3FF2946204600F0EFFF0023079A8AF863
:105A58000030249B1A60269B002B3FF440AC03982F
:105A6800C3F800A019B0BDE8F08F1C20099B0744BB
:105A780003440993069B0344069371E70126B6E4A1
:105A8800C0F1200008FA00F04DE401465A462046CD
:105A980001F04EF9229B8146012B40F3B6814FF06D
:105AA800000AD9F8103009EB8303186901F018F8D7
:105AB800C0F1200041E700BF000024402C970008F7
:105AC800314600230A22204600F0B8FF129B064602
