:020000040800F2
:1000000000000120314A00087D1000087F10000820
:10001000811000088310000885100008000000000F
:100020000000000000000000000000008710000831
:1000300089100008000000008B1000088D100008D7
:10004000794A0008794A0008794A0008794A000884
:10005000794A0008794A0008794A0008794A000874
:10006000794A0008794A0008794A00089510000882
:10007000794A0008794A0008794A0008794A000854
:10008000794A0008794A0008A5100008794A000852
:10009000794A0008794A0008794A0008794A000834
:1000A000794A0008794A0008794A0008794A000824
:1000B000B5100008794A0008794A0008794A000812
:1000C000794A0008794A0008794A0008794A000804
:1000D000794A0008C5100008D5100008E51000088E
:1000E000794A0008794A0008794A0008794A0008E4
:1000F000794A0008794A0008794A0008794A0008D4
:10010000794A0008794A0008794A0008794A0008C3
:10011000794A0008794A0008794A0008794A0008B3
:10012000794A0008794A0008794A0008794A0008A3
:1001300000000000000000000000000000000000BF
:1001400000000000000000000000000000000000AF
:10015000000000000000000000000000000000009F
:10016000000000000000000000000000000000008F
:10017000000000000000000000000000000000007F
:10018000000000000000000000000000000000006F
:10019000000000000000000000000000000000005F
:1001A000000000000000000000000000000000004F
:1001B000000000000000000000000000000000003F
:1001C000000000000000000000000000000000002F
:1001D000000000000000000000000000000000001F
:0401E0005FF8E0F1F3
:1001E80010B5054C237833B9044B13B10448AFF369
:1001F80000800123237010BD800D00200000000046
:1002080058AB000808B5034B1BB103490348AFF3CB
:10021800008008BD00000000840D002058AB0008D5
:10022800844641EA000313F0030349D1403A23D33B
:100238000B6803604B6843608B688360CB68C3605E
:100248000B6903614B6943618B698361CB69C36146
:100258000B6A03624B6A43628B6A8362CB6AC3622E
:100268000B6B03634B6B43638B6B8363CB6BC36316
:1002780040304031403ADBD230320BD30B68036058
:100288004B6843608B688360CB68C3601030103163
:10029800103AF3D20C3205D351F8043B40F8043B32
:1002A800043AF9D2043208D0D2071CBF11F8013B36
:1002B80000F8013B01D30B8803806046704700BFFC
:1002C800082A13D38B07B1D010F00303AED0C3F1C3
:1002D8000403D21ADB071CBF11F8013B00F8013BED
:1002E800A4D331F8023B20F8023B9FE7043AD9D364
:1002F800013A11F8013B00F8013BF9D20B78037081
:100308004B7843708B7883706046704781F000416A
:1003180002E000BF83F0004330B54FEA41044FEAE2
:10032800430594EA050F08BF90EA020F1FBF54EA7D
:10033800000C55EA020C7FEA645C7FEA655C00F019
:10034800E2804FEA5454D4EB5555B8BF6D420CDDEA
:100358002C4480EA020281EA030382EA000083EA6D
:10036800010180EA020281EA0303362D88BF30BD0D
:1003780011F0004F4FEA01314FF4801C4CEA113163
:1003880002D0404261EB410113F0004F4FEA0333C2
:100398004CEA133302D0524263EB430394EA050F4D
:1003A80000F0A780A4F10104D5F1200E0DDB02FABC
:1003B8000EFC22FA05F2801841F1000103FA0EF250
:1003C800801843FA05F359410EE0A5F120050EF116
:1003D800200E012A03FA0EFC28BF4CF0020C43FA47
:1003E80005F3C01851EBE37101F0004507D54FF054
:1003F800000EDCF1000C7EEB00006EEB0101B1F5A4
:10040800801F1BD3B1F5001F0CD349085FEA3000E9
:100418004FEA3C0C04F101044FEA445212F5800FF4
:1004280080F09A80BCF1004F08BF5FEA500C50F191
:10043800000041EB045141EA050130BD5FEA4C0C74
:10044800404141EB0101013C28BFB1F5801FE9D2D1
:1004580091F0000F04BF01460020B1FA81F308BFF4
:100468002033A3F10B03B3F120020CDA0C3208DDC0
:1004780002F1140CC2F10C0201FA0CF021FA02F19B
:100488000CE002F11402D8BFC2F1200C01FA02F10B
:1004980020FA0CFCDCBF41EA0C019040E41AA2BF30
:1004A80001EB0451294330BD6FEA04041F3C1CDAF8
:1004B8000C340EDC04F11404C4F1200220FA04F018
:1004C80001FA02F340EA030021FA04F345EA0301C2
:1004D80030BDC4F10C04C4F1200220FA02F001FA84
:1004E80004F340EA0300294630BD21FA04F0294606
:1004F80030BD94F0000F83F4801306BF81F480119F
:100508000134013D4EE77FEA645C18BF7FEA655C11
:1005180029D094EA050F08BF90EA020F05D054EAE3
:10052800000C04BF1946104630BD91EA030F1EBFE8
:100538000021002030BD5FEA545C05D140004941EC
:1005480028BF41F0004130BD14F580043CBF01F5DF
:10055800801130BD01F0004545F0FE4141F47001C5
:100568004FF0000030BD7FEA645C1ABF19461046A0
:100578007FEA655C1CBF0B46024650EA013406BFA1
:1005880052EA033591EA030F41F4002130BD00BF60
:1005980090F0000F04BF0021704730B54FF480641D
:1005A80004F132044FF000054FF0000150E700BF9E
:1005B80090F0000F04BF0021704730B54FF48064FD
:1005C80004F1320410F0004548BF40424FF00001EA
:1005D8003EE700BF42004FEAE2014FEA31014FEA2D
:1005E80002701FBF12F07F4393F07F4F81F060517C
:1005F800704732F07F4208BF704793F07F4F04BFC7
:1006080041F40021704730B54FF4607401F00045A3
:1006180021F000411CE700BF50EA010208BF704703
:1006280030B54FF000050AE050EA010208BF7047F4
:1006380030B511F0004502D5404261EB41014FF45D
:10064800806404F132045FEA915C3FF4D8AE4FF065
:1006580003025FEADC0C18BF03325FEADC0C18BF48
:10066800033202EBDC02C2F1200300FA03FC20FA99
:1006780002F001FA03FE40EA0E0021FA02F11444E6
:10068800BDE600BF70B54FF0FF0C4CF4E06C1CEAFF
:1006980011541DBF1CEA135594EA0C0F95EA0C0F70
:1006A80000F0DEF82C4481EA030621EA4C5123EAE3
:1006B8004C5350EA013518BF52EA033541F4801112
:1006C80043F4801338D0A0FB02CE4FF00005E1FBC5
:1006D80002E506F00042E0FB03E54FF00006E1FB0F
:1006E80003569CF0000F18BF4EF0010EA4F1FF0452
:1006F800B6F5007F64F5407404D25FEA4E0E6D4192
:1007080046EB060642EAC62141EA55514FEAC520A2
:1007180040EA5E504FEACE2EB4F1FD0C88BFBCF51E
:10072800E06F1ED8BEF1004F08BF5FEA500E50F1CF
:10073800000041EB045170BD06F0004646EA010195
:1007480040EA020081EA0301B4EB5C04C2BFD4EBC7
:100758000C0541EA045170BD41F480114FF0000EC0
:10076800013C00F3AB8014F1360FDEBF002001F02E
:10077800004170BDC4F10004203C35DA0C341BDCA8
:1007880004F11404C4F1200500FA05F320FA04F07A
:1007980001FA05F240EA020001F0004221F00041AE
:1007A80010EBD37021FA04F642EB06015EEA430E21
:1007B80008BF20EAD37070BDC4F10C04C4F1200551
:1007C80000FA04F320FA05F001FA04F240EA020004
:1007D80001F0004110EBD37041F100015EEA430ED5
:1007E80008BF20EAD37070BDC4F1200500FA05F2F5
:1007F8004EEA020E20FA04F301FA05F243EA020374
:1008080021FA04F001F0004121FA04F220EA020082
:1008180000EBD3705EEA430E08BF20EAD37070BDC8
:1008280094F0000F0FD101F00046400041EB0101A8
:1008380011F4801F08BF013CF7D041EA060195F08A
:10084800000F18BF704703F00046520043EB030344
:1008580013F4801F08BF013DF7D043EA0603704731
:1008680094EA0C0F0CEA135518BF95EA0C0F0CD03C
:1008780050EA410618BF52EA4306D1D181EA030182
:1008880001F000414FF0000070BD50EA410606BF7C
:100898001046194652EA430619D094EA0C0F02D1C1
:1008A80050EA013613D195EA0C0F05D152EA033606
:1008B8001CBF104619460AD181EA030101F0004124
:1008C80041F0FE4141F470014FF0000070BD41F06D
:1008D800FE4141F4780170BD70B54FF0FF0C4CF447
:1008E800E06C1CEA11541DBF1CEA135594EA0C0F66
:1008F80095EA0C0F00F0A7F8A4EB050481EA030EB3
:1009080052EA03354FEA013100F088804FEA033399
:100918004FF0805545EA131343EA12634FEA022267
:1009280045EA111545EA10654FEA00260EF0004128
:100938009D4208BF964244F1FD0404F5407402D27A
:100948005B084FEA3202B61A65EB03055B084FEA0B
:1009580032024FF480104FF4002CB6EB020E75EB08
:10096800030E22BFB61A754640EA0C005B084FEA30
:100978003202B6EB020E75EB030E22BFB61A7546AD
:1009880040EA5C005B084FEA3202B6EB020E75EBF8
:10099800030E22BFB61A754640EA9C005B084FEA70
:1009A8003202B6EB020E75EB030E22BFB61A75467D
:1009B80040EADC0055EA060E18D04FEA051545EA6C
:1009C80016754FEA06164FEAC30343EA52734FEA15
:1009D800C2025FEA1C1CC0D111F4801F0BD141EA8E
:1009E80000014FF000004FF0004CB6E711F4801FF3
:1009F80004BF01430020B4F1FD0C88BFBCF5E06FD3
:100A08003FF6AFAEB5EB030C04BFB6EB020C5FEAE2
:100A1800500C50F1000041EB045170BD0EF0004E37
:100A28004EEA113114EB5C04C2BFD4EB0C0541EA69
:100A3800045170BD41F480114FF0000E013C90E666
:100A480045EA060E8DE60CEA135594EA0C0F08BF2A
:100A580095EA0C0F3FF43BAF94EA0C0F0AD150EA29
:100A680001347FF434AF95EA0C0F7FF425AF1046BC
:100A780019462CE795EA0C0F06D152EA03353FF4E4
:100A8800FDAE1046194622E750EA410618BF52EA61
:100A980043067FF4C5AE50EA41047FF40DAF52EA35
:100AA80043057FF4EBAE12E74FF0FF3C06E000BFD2
:100AB8004FF0010C02E000BF4FF0010C4DF804CDDF
:100AC8004FEA410C7FEA6C5C4FEA430C18BF7FEA9F
:100AD8006C5C1BD001B050EA410C0CBF52EA430CCD
:100AE80091EA030F02BF90EA020F0020704710F14D
:100AF800000F91EA030F58BF994208BF90422CBFDC
:100B0800D8176FEAE37040F0010070474FEA410CD4
:100B18007FEA6C5C02D150EA013C07D14FEA430CF2
:100B28007FEA6C5CD6D152EA033CD3D05DF8040B63
:100B3800704700BF8446104662468C461946634695
:100B480000E000BF01B5FFF7B7FF002848BF10F16C
:100B5800000F01BD4DF808EDFFF7F4FF0CBF0120B1
:100B680000205DF808FB00BF4DF808EDFFF7EAFF2D
:100B780034BF012000205DF808FB00BF4DF808EDE8
:100B8800FFF7E0FF94BF012000205DF808FB00BFDD
:100B98004DF808EDFFF7CEFF94BF012000205DF867
:100BA80008FB00BF4DF808EDFFF7C4FF34BF012074
:100BB80000205DF808FB00BF4FEA410C7FEA6C5C3F
:100BC80002D150EA013C0AD14FEA430C7FEA6C5C3F
:100BD80002D152EA033C02D14FF0000070474FF0B7
:100BE800010070474FEA410212F5001215D211D5E3
:100BF8006FF47873B3EB625212D94FEAC12343F012
:100C0800004343EA505311F0004F23FA02F018BF93
:100C1800404270474FF00000704750EA013005D15C
:100C280011F0004008BF6FF0004070474FF000001F
:100C3800704700BF53B94AB9002908BF00281CBF34
:100C48004FF0FF314FF0FF3000F076B9ADF1080CEE
:100C58006DE904CE00F006F8DDF804E0DDE90223D2
:100C680004B070472DE9F047089E0D4604468846B3
:100C7800002B4DD18A42944668D9B2FA82F252B119
:100C880001FA02F3C2F1200120FA01F10CFA02FC88
:100C980041EA030894404FEA1C41B8FBF1F71FFAF8
:100CA8008CFE01FB178807FB0EF0230C43EA084370
:100CB80098420AD91CEB030307F1FF3580F01E8127
:100CC800984240F21B81023F63441B1AB3FBF1F0C8
:100CD80001FB103300FB0EFEA4B244EA0344A64510
:100CE8000AD91CEB040400F1FF3380F00981A64502
:100CF80040F20681644402380021A4EB0E0440EA65
:100D080007401EB10023D440C6E90043BDE8F08780
:100D18008B4208D9002E00F0EE800021C6E90005BC
:100D28000846BDE8F087B3FA83F100294AD1AB42FF
:100D380002D3824200F2FC80841A65EB030301208F
:100D48009846002EE2D0C6E90048DFE702B9FFDE88
:100D5800B2FA82F2002A40F09180A1EB0C00012146
:100D68004FEA1C471FFA8CFEB0FBF7F307FB130092
:100D7800250C45EA00450EFB03F0A84208D91CEBF8
:100D8800050503F1FF3802D2A84200F2CE8043469F
:100D98002D1AB5FBF7F007FB10550EFB00FEA4B2A9
:100DA80044EA0544A64508D91CEB040400F1FF35C4
:100DB80002D2A64500F2B6802846A4EB0E0440EA0B
:100DC80003409EE7C1F120078B4022FA07FC4CEA5A
:100DD800030C25FA07FA4FEA1C49BAFBF9F820FA7E
:100DE80007F309FB18AA8D401FFA8CFE1D4300FA71
:100DF80001F308FB0EF02C0C44EA0A44A04202FA64
:100E080001F20BD91CEB040408F1FF3A80F088804A
:100E1800A04240F28580A8F102086444241AB4FB79
:100E2800F9F009FB104400FB0EFEADB245EA04449C
:100E3800A64508D91CEB040400F1FF356CD2A64581
:100E48006AD90238644440EA0840A0FB0295A4EB42
:100E58000E04AC42C846AE4656D353D0002E69D0D5
:100E6800B3EB080264EB0E0422FA01F304FA07F765
:100E78001F43CC40C6E90074002147E70CFA02FC86
:100E8800C2F1200125FA01F34FEA1C4720FA01F1CB
:100E980095400D43B3FBF7F107FB11331FFA8CFEA6
:100EA800280C40EA034001FB0EF3834204FA02F4E3
:100EB80008D91CEB000001F1FF382FD283422DD94D
:100EC80002396044C01AB0FBF7F307FB1300ADB258
:100ED80045EA004503FB0EF0A84208D91CEB0505BE
:100EE80003F1FF3816D2A84214D9023B6544281AE8
:100EF80043EA014138E73146304607E72F46E4E642
:100F08001846F9E64B45A9D2B9EB020865EB0C0E79
:100F18000138A3E74346EAE7284694E74146D1E784
:100F2800D0467BE76444023847E7023B65442FE735
:100F3800084606E73146E9E6704700BF72B6FEE7A5
:100F480000B597B0282200210CA803F0B7FD0023B4
:100F58000793089309930A930B93019302930393BE
:100F680004930593069301220C924FF480330D935A
:100F780010920222139214934FF4E01315930CA8C5
:100F880000F028FAC8B90F2307930221089100231B
:100F980009934FF480620A920B9307A800F04CFC67
:100FA80068B9022301934FF40043039301A800F0AA
:100FB8001FFD30B917B05DF804FBFFF7BFFFFFF75F
:100FC800BDFFFFF7BBFF000010B500F0B5F9FFF754
:100FD800B7FF01F0C9FF03F0C3F802F023F802F0ED
:100FE80071F802F089F802F0A1F803F03BF803F079
:100FF800BBFC01F0EBFF02F0A9FD02F0EFFF0122BC
:101008001249134801F09BFF01221249124801F0CE
:1010180096FF01221149124801F091FF114A124925
:10102800124802F051F9124801F0DAF903F05CFCB9
:10103800002400F09FF9A042FBD002F0DDFC02F092
:101048003DFD00F097F90446F3E700BF9C1500202A
:10105800F40D0020D01200203C0E0020A215002024
:10106800840E002070AB00087CAB000888AB000839
:1010780090160020FEE7FEE7FEE7FEE7FEE7704772
:101088007047704708B500F069F908BD08B502480F
:1010980000F096FF08BD00BFF015002008B5024813
:1010A80003F07CF808BD00BFA415002008B502486D
:1010B80001F0D6F908BD00BF9016002008B5024817
:1010C80001F0D8FD08BD00BFF40D002008B50248A6
:1010D80001F0D0FD08BD00BF3C0E002008B5024855
:1010E80001F0C8FD08BD00BF840E002082B00E4B81
:1010F8009A6942F001029A619A6902F0010200922B
:10110800009ADA6942F08052DA61DB6903F08053B1
:101118000193019B054A536823F0E06343F0007391
:10112800536002B0704700BF001002400000014049
:10113800002800F0CC8070B5044690F83D30002BB4
:1011480077D0242384F83D302268136823F0010304
:1011580013602268136843F400431360226813681D
:1011680023F40043136000F023FC62685A4B9A4250
:1011780064D85A4B98428CBF00230123002B40F0BF
:10118800A8805749A1FB00318B0C25686A6822F0BA
:101198003F0242EA91426A6021680A6A22F03F02ED
:1011A80066684D4DAE424FD8013313430B62216838
:1011B800CA6922F44F4222F0FF026668464B9E42FB
:1011C8004CD8431E7600B3FBF6F3013340F6FC70AF
:1011D800034278D0C3F30B031343CB6121680B6838
:1011E80023F0C003E269206A024313430B602168BD
:1011F8008B6823F4034323F0FF032269E06802436A
:1012080013438B602168CB6823F0FF036269A069F0
:1012180002431343CB602268136843F00103136051
:1012280000202064202384F83D30206384F83E00A9
:1012380070BD80F83C3001F013FF82E7294B9842DB
:101248008CBF0023012399E74FF4967505FB03F340
:10125800254DA5FB03539B090133A6E7A368BBB93A
:10126800451E06EB460CB5FBFCF50135C5F30B0531
:10127800B5FA85F56D0945BBC3B9013806EB4603D8
:10128800B0FBF3F30133C3F30B0343F40043A3E7C9
:10129800451E06EB860C0CEB8C0CB5FBFCF50135FA
:1012A800C5F30B05B5FA85F56D09E4E7013806EBDA
:1012B800860303EB8303B0FBF3F30133C3F30B03A0
:1012C80043F4404388E7042386E7012384E70120A9
:1012D80070470120ACE700BFA08601007F841E0094
:1012E80083DE1B43FF083D00D34D621010B5044652
:1012F8000E4B18784FF47A73B3FBF0F30C4A10686E
:10130800B0FBF3F001F02AF868B90F2C01D90120DD
:101318000AE0002221464FF0FF3000F0D9FF054BCC
:101328001C60002000E0012010BD00BF000000206C
:10133800080000200400002008B5074A136843F09D
:1013480010031360032000F0B1FF0F20FFF7CEFF5A
:10135800FFF7CCFE002008BD00200240034A1168B8
:10136800034B1B780B441360704700BF9C0D002093
:1013780000000020014B1868704700BF9C0D00203A
:1013880038B50446FFF7F6FF0546B4F1FF3F02D033
:10139800044B1B781C44FFF7EDFF401BA042FAD317
:1013A80038BD00BF0000002082B0084B1B68084A07
:1013B800A2FB03235B0A00FB03F3019300BF019B1D
:1013C8005A1E0192002BF9D102B070470800002084
:1013D800D34D6210002800F0F18170B582B0044648
:1013E800036813F0010F2CD0994B5B6803F00C03D2
:1013F800042B1DD0964B5B6803F00C03082B12D00E
:101408006368B3F5803F41D0002B55D103F1804389
:1014180003F504331A6822F480321A601A6822F439
:1014280080221A6037E08A4B5B6813F4803FE7D06C
:10143800874B1B6813F4003F03D06368002B00F050
:10144800BF81236813F0020F75D0814B5B6813F0DE
:101458000C0F5FD07E4B5B6803F00C03082B54D055
:101468002369002B00F08A807A4B01221A60FFF76B
:1014780081FF0546764B1B6813F0020F75D1FFF705
:1014880079FF401B0228F5D903209EE1704A1368B2
:1014980043F480331360636843B3FFF76BFF05467B
:1014A8006B4B1B6813F4003FCBD1FFF763FF401B66
:1014B8006428F5D9032088E1B3F5A02F09D0644B3F
:1014C8001A6822F480321A601A6822F480221A609C
:1014D800E1E703F18043A3F53C331A6842F4802224
:1014E8001A601A6842F480321A60D4E7FFF742FFA4
:1014F8000546574B1B6813F4003FA2D0FFF73AFF8D
:10150800401B6428F5D903205FE1514B5B6813F455
:10151800803FA5D14E4B1B6813F0020F03D02369FF
:10152800012B40F04F814A4A136823F0F8036169A0
:1015380043EAC1031360236813F0080F33D0A3698B
:10154800002B5CD0434B0122C3F88024FFF712FF25
:1015580005463F4B5B6A13F0020F21D1FFF70AFFE4
:10156800401B0228F5D903202FE1394A136823F0DC
:10157800F803616943EAC1031360DCE7354B0022D5
:101588001A60FFF7F7FE0546314B1B6813F0020F90
:10159800D1D0FFF7EFFE401B0228F5D9032014E154
:1015A8000120FFF701FF236813F0040F00F0968075
:1015B800274BDB6913F0805F34D1254BDA6942F0A1
:1015C8008052DA61DB6903F080530193019B0125A6
:1015D800214B1B6813F4807F26D0E368012B3DD094
:1015E800002B53D103F1804303F504331A6A22F028
:1015F80001021A621A6A22F004021A6233E0154BD9
:101608000022C3F88024FFF7B5FE0546104B5B6A3D
:1016180013F0020FC7D0FFF7ADFE401B0228F5D923
:101628000320D2E00025D3E70B4A136843F4807304
:101638001360FFF79FFE0646074B1B6813F4807F75
:10164800CBD1FFF797FE801B6428F5D90320BCE0B7
:101658000010024000004242007000405F4A136AD6
:1016680043F001031362E36833B3FFF783FE0646D2
:101678005A4B1B6A13F0020F2FD1FFF77BFE801B1A
:1016880041F288339842F3D903209EE0052B09D014
:10169800524B1A6A22F001021A621A6A22F00402F4
:1016A8001A62E0E74D4B1A6A42F004021A621A6A9B
:1016B80042F001021A62D6E7FFF75CFE0646474B86
:1016C8001B6A13F0020F08D0FFF754FE801B41F28B
:1016D80088339842F3D9032077E0E5B9E369002B12
:1016E80072D03E4A526802F00C02082A56D0022BE9
:1016F80017D03B4B00221A66FFF73CFE0446374BD7
:101708001B6813F0007F47D0FFF734FE001B022848
:10171800F5D9032059E0314AD36923F08053D361C6
:10172800DCE72F4B00221A66FFF724FE05462B4BF9
:101738001B6813F0007F06D0FFF71CFE401B022831
:10174800F5D9032041E0236AB3F5803F1AD0234935
:101758004B6823F47413226A606A024313434B6094
:101768001F4B01221A66FFF705FE04461B4B1B6838
:1017780013F0007F0ED1FFF7FDFD001B0228F5D9FD
:10178800032022E0154A536823F40033A1680B4371
:101798005360DCE7002018E0002016E0012B16D08B
:1017A8000E4B5B6803F48031226A914211D103F435
:1017B8007013626A93420ED1002006E00120704740
:1017C800012002E0012000E0002002B070BD0120ED
:1017D800FBE70120F9E70120F7E700BF001002400E
:1017E800000042420F4B5B6803F00C02082A01D04C
:1017F8000D487047C3F383420C49885C13F4803F5B
:101808000BD0084B5B68C3F34043094AD35C064AD4
:1018180002FB00F0B0FBF3F07047064B03FB00F04F
:10182800704700BF0010024000127A00B0AB0008F9
:10183800C0AB000800093D00002800F0A08070B58A
:101848000D460446524B1B6803F007038B420BD22C
:101858004F4A136823F007030B431360136803F020
:1018680007038B4240F08D80236813F0020F17D0D6
:1018780013F0040F04D0474A536843F4E0635360FD
:10188800236813F0080F04D0424A536843F46053A6
:101898005360404A536823F0F003A1680B43536038
:1018A800236813F0010F31D06368012B20D0022B7D
:1018B80025D0384A126812F0020F64D035494A68B8
:1018C80022F0030213434B60FFF754FD0646314BE9
:1018D8005B6803F00C036268B3EB820F16D0FFF766
:1018E80049FD801B41F288339842F0D9032045E036
:1018F800284A126812F4003FE0D101203EE0254A50
:10190800126812F0007FD9D1012037E0204B1B6804
:1019180003F00703AB420AD91D4A136823F00703F3
:101928002B431360136803F00703AB422DD12368E0
:1019380013F0040F06D0174A536823F4E063E168F4
:101948000B435360236813F0080F07D0114A5368FC
:1019580023F46053216943EAC1035360FFF742FF50
:101968000C4B5B68C3F303130B4AD35CD8400B4B97
:1019780018600B4B1868FFF7B9FC002070BD0120F8
:1019880070470120FAE70120F8E70120F6E700BFD9
:101998000020024000100240C4AB000808000020EC
:1019A80004000020014B1868704700BF08000020A1
:1019B80008B5FFF7F7FF044B5B68C3F30223034A3C
:1019C800D35CD84008BD00BF00100240D4AB00086B
:1019D80008B5FFF7E7FF044B5B68C3F3C223034A6C
:1019E800D35CD84008BD00BF00100240D4AB00084B
:1019F80070B582B00446036813F0010F36D03F4B30
:101A0800DB6913F0805F49D13C4BDA6942F08052C0
:101A1800DA61DB6903F080530193019B0125384BA0
:101A28001B6813F4807F3BD0344B1B6A13F440735C
:101A380013D0626802F440729A420ED02F4A136A99
:101A480023F440702F490126C1F840640026C1F8EC
:101A58004064106213F0010F36D1284A136A23F448
:101A6800407361680B431362002D3ED1236813F065
:101A7800020F06D0214A536823F44043A1680B4360
:101A88005360236813F0100F34D01C4A536823F4B2
:101A9800800361690B43536000202CE00025BEE7FA
:101AA800174A136843F480731360FFF763FC064614
:101AB800134B1B6813F4807FB6D1FFF75BFC801BC8
:101AC8006428F5D9032016E0FFF754FC06460B4BB3
:101AD8001B6A13F0020FC0D1FFF74CFC801B41F2C8
:101AE80088339842F3D9032005E0D36923F0805363
:101AF800D361BBE7002002B070BD00BF00100240F8
:101B0800007000400000424270B582B00024A44634
:101B1800B0E0874DAA4210D007D9864DAA420CD012
:101B280005F58035AA4208D013E0A5F58015AA422C
:101B380003D005F57025AA4207D18A68002A62D029
:101B4800012A5BD04361082403E0A5F58015AA4269
:101B5800F3D0BEF1FF0F58D80646BEF1FF0F56D896
:101B68004FEA8C0233680F25954023EA050304FAEF
:101B780002F2134333604B6813F0805F78D06E4BEA
:101B88009A6942F001029A619B6903F0010301938B
:101B9800019B4FEA9C02951C684B53F825600CF09A
:101BA80003039D000F23AB4026EA0306644B9842CB
:101BB80033D003F58063984200F0988003F5806382
:101BC800984200F0958003F58063984200F0928077
:101BD80003F58063984200F08F8003F58063984294
:101BE80019D006231AE0CC68B3E7CC680434B0E710
:101BF800CC680834ADE7CC680C34AAE70361082444
:101C0800A7E70024A5E70424A3E7061DA5E7ACF190
:101C180008029200A6E7052300E00023AB40334307
:101C28000232464D45F822304B6813F4801F65D0C8
:101C3800444A936843EA0E0393604B6813F4001F09
:101C480062D0404AD36843EA0E03D3604B6813F46A
:101C5800003F5FD03B4A536843EA0E0353604B682A
:101C680013F4803F5CD0374A136843EA0E031360CD
:101C78000CF1010C0A6832FA0CF357D0012303FA6D
:101C88000CF302EA030E33EA0202F1D14A68122A7F
:101C98003FF63FAF122A3FF65CAF01A555F822F098
:101CA800431B0008EF1B0008F91B00080B1C000869
:101CB8005B1B00085B1B00085B1B00085B1B000824
:101CC8005B1B00085B1B00085B1B00085B1B000814
:101CD8005B1B00085B1B00085B1B00085B1B000804
:101CE8005B1B0008F31B0008FF1B0008012395E796
:101CF800022393E7032391E704238FE7114A9368AC
:101D080023EA0E03936098E70E4AD36823EA0E038A
:101D1800D3609BE70B4A536823EA0E0353609EE7A0
:101D2800084A136823EA0E031360A1E702B070BDE6
:101D38000000221000003110001002400000014095
:101D480000080140000401408368194201D00120C5
:101D58007047002070470AB10161704709040161AA
:101D68007047C36801EA030221EA030141EA02411C
:101D78000161704700283AD010B4024600681D4B34
:101D8800984229D81C4B03441C49A1FB03131B0987
:101D98009B0013641A4BD363022382F82130016835
:101DA80021F47F5121F03001536894682343D468AB
:101DB8002343146923435469234394692343D4690F
:101DC80023430B43036000209063012382F82130F2
:101DD80082F8200010BC70470A4B03440749A1FB56
:101DE80003131B099B001364074BD363D4E701203B
:101DF800704700BF07040240F8FFFDBFCDCCCCCC34
:101E080000000240F8FBFDBF0004024090F82130BA
:101E1800DBB2022B06D004238363002380F8203032
:101E2800012070470268136823F00E0313600268EC
:101E3800136823F001031360036CC16B012202FADB
:101E480003F34B6080F82120002380F820301846E7
:101E58007047000008B590F82130DBB2022B03D0A0
:101E680004238363012008BD0268136823F00E036E
:101E780013600268136823F00103136003684C4A77
:101E880093424ED9783A934224D01432934230D0B8
:101E9800143293422FD0143293422FD014329342EB
:101EA8002FD0143293422FD0143293422FD002F500
:101EB800627293422ED0143293422DD01432934240
:101EC8002CD01432934202D04FF4803203E04FF406
:101ED800805200E00122374B5A60012380F82130FC
:101EE800002380F82030436B002B5ED098470020F9
:101EF800B9E71022EFE74FF48072ECE74FF4805215
:101F0800E9E74FF48032E6E74FF48012E3E74FF059
:101F18008072E0E70122DEE71022DCE74FF48072EE
:101F2800D9E7254A934224D01432934225D014325B
:101F3800934224D01432934224D01432934224D0B2
:101F48001432934224D01432934224D002F56272A0
:101F5800934223D01432934222D01432934221D098
:101F68001432934202D04FF4803203E04FF480528F
:101F780000E00122114B5A60AFE71022FAE74FF454
:101F88008072F7E74FF48052F4E74FF48032F1E7BC
:101F98004FF48012EEE74FF08072EBE70122E9E799
:101FA8001022E7E74FF48072E4E700205BE700BF08
:101FB8008000024000040240080002400000024085
:101FC80038B5C36B1A6804682568016C04238B4014
:101FD800134200F09B8015F0040F00F097802368EF
:101FE80013F0200F03D1236823F004032360036850
:101FF8009A4A934246D9783A934224D0143293426B
:1020080028D01432934227D01432934227D0143266
:10201800934227D01432934227D01432934227D0C8
:1020280002F56272934226D01432934225D01432BC
:10203800934224D01432934202D04FF4802203E01A
:102048004FF4804200E00422854B5A60C36A03B112
:10205800984738BD4022F7E74FF48062F4E74FF421
:102068008042F1E74FF48022EEE74FF48002EBE77D
:102078004FF08062E8E70422E6E74022E4E74FF405
:102088008062E1E7774A934224D01432934225D004
:102098001432934224D01432934224D014329342FF
:1020A80024D01432934224D01432934224D002F51F
:1020B8006272934223D01432934222D01432934254
:1020C80021D01432934202D04FF4802203E04FF41F
:1020D800804200E00422644B5A60B7E74022FAE7E6
:1020E8004FF48062F7E74FF48042F4E74FF4802220
:1020F800F1E74FF48002EEE74FF08062EBE704224D
:10210800E9E74022E7E74FF48062E4E702238B40E7
:10211800134200F0AB8015F0020F00F0A78023688F
:1021280013F0200F06D1236823F00A03236001234C
:1021380080F821300368494A93424BD9783A934250
:1021480024D0143293422DD0143293422CD014321E
:1021580093422CD0143293422CD0143293422CD078
:10216800143293422CD002F5627293422BD014326F
:1021780093422AD01432934229D01432934202D087
:102188004FF4003203E04FF4005200E00222344BD7
:102198005A60002380F82030836A002B3FF459AF3F
:1021A800984756E72022F2E74FF40072EFE74FF422
:1021B8000052ECE74FF40032E9E74FF40012E6E78B
:1021C8004FF00072E3E70222E1E72022DFE74FF455
:1021D8000072DCE7234A934224D01432934225D07C
:1021E8001432934224D01432934224D014329342AE
:1021F80024D01432934224D01432934224D002F5CE
:102208006272934223D01432934222D01432934202
:1022180021D01432934202D04FF4003203E04FF43D
:10222800005200E00222104B5A60B2E72022FAE77F
:102238004FF40072F7E74FF40052F4E74FF400321E
:10224800F1E74FF40012EEE74FF00072EBE70222DD
:10225800E9E72022E7E74FF40072E4E78000024054
:10226800000402400800024000000240082303FA6C
:1022780001F111423FF4EDAE15F0080F3FF4E9AE5D
:10228800236823F00E032360026CC16B012303FA59
:1022980002F24A60836380F82130002380F82030FE
:1022A800036B002B3FF4D5AE9847D2E6074AD368B4
:1022B80023F4E0631B041B0C000200F4E0600343FA
:1022C80043F0BF6343F40033D360704700ED00E090
:1022D80000B5194BDB68C3F30223C3F1070CBCF14B
:1022E800040F28BF4FF0040C03F1040EBEF1060FD3
:1022F80018D9033B4FF0FF3E0EFA0CFC21EA0C0103
:1023080099400EFA03F322EA0303194300280BDB72
:102318000901C9B200F1604000F5614080F800137E
:102328005DF804FB0023E5E700F00F000901C9B2DE
:10233800024B1954F4E700BF00ED00E014ED00E093
:10234800002807DB00F01F02400901239340024ADE
:1023580042F82030704700BF00E100E00138B0F1DA
:10236800807F0BD24FF0E0235861054AF02182F8B4
:1023780023100020986107221A61704701207047D6
:1023880000ED00E010B4036A046A24F0010404625A
:10239800846924F0F00C4CEA021223F00A030B4380
:1023A8008261036210BC704710B4036A046A24F0A7
:1023B80010040462846924F4704C4CEA023223F05D
:1023C800A00343EA01138261036210BC704783686B
:1023D80023F070030B4343F007038360704700004A
:1023E80090F83D30DBB2012B2FD1022380F83D302D
:1023F8000268D36843F00103D3600368154A934227
:1024080018D002F50062934214D0B3F1804F11D076
:10241800A2F5983293420DD002F58062934209D01A
:1024280002F58062934205D01A6842F001021A60F0
:10243800002070479A6802F00702062A07D01A6837
:1024480042F001021A600020704701207047002006
:10245800704700BF002C01407047704770477047B5
:1024680070B504460368DE681D6915F0020F10D0C8
:1024780016F0020F0DD06FF002021A6101230377E4
:1024880003689B6913F0030F5ED0FFF7E6FF002394
:10249800237715F0040F12D016F0040F0FD023681D
:1024A8006FF004021A610223237723689B6913F4EF
:1024B800407F4FD02046FFF7D0FF0023237715F049
:1024C800080F12D016F0080F0FD023686FF008021B
:1024D8001A61042323772368DB6913F0030F40D0C4
:1024E8002046FFF7BAFF0023237715F0100F12D00C
:1024F80016F0100F0FD023686FF010021A6108232E
:1025080023772368DB6913F4407F31D02046FFF737
:10251800A4FF0023237715F0010F02D016F0010F56
:102528002DD115F0800F02D016F0800F2FD115F0A5
:10253800400F02D016F0400F31D115F0200F02D015
:1025480016F0200F33D170BDFFF786FF2046FFF746
:1025580085FF9CE72046FFF77FFF2046FFF77EFFB9
:10256800ABE72046FFF778FF2046FFF777FFBAE78B
:102578002046FFF771FF2046FFF770FFC9E7236881
:102588006FF001021A61204602F044FAC9E7236895
:102598006FF080021A61204600F05DF9C7E72368F2
:1025A8006FF040021A612046FFF759FFC5E723681C
:1025B8006FF020021A61204600F04CF9C3E70000D2
:1025C8000368284A904212D002F5006290420ED069
:1025D800B0F1804F0BD0A2F59832904207D002F5A7
:1025E8008062904203D002F58062904203D123F0CA
:1025F80070034A6813431B4A904212D002F50062E6
:1026080090420ED0B0F1804F0BD0A2F59832904294
:1026180007D002F58062904203D002F580629042B2
:1026280003D123F44073CA68134323F080034A6933
:10263800134303608B68C3620B688362094B98423B
:1026480003D003F50063984201D10B6903630123AA
:102658004361036913F0010F03D0036923F00103F9
:1026680003617047002C014040B310B5044690F850
:102678003D30F3B1022384F83D30214651F8040B74
:10268800FFF79EFF012384F8463084F83E3084F833
:102698003F3084F8403084F8413084F8423084F880
:1026A800433084F8443084F8453084F83D300020C5
:1026B80010BD80F83C3002F08FF9DBE7012070474D
:1026C80010B4846824F47F4C42EA03220A4342EAA5
:1026D8000C02826010BC704790F83C30012B78D017
:1026E80010B50446012380F83C30022380F83D30C1
:1026F8000268936823F47F4323F0770393600B68A1
:10270800602B4CD029D8402B54D00CD9502B22D137
:10271800CA6849680068FFF735FE50212068FFF74E
:1027280056FE002005E0202B0DD009D9302B0AD009
:102738000120012384F83D30002384F83C3010BD8B
:102748000BB1102B05D119462068FFF740FE002079
:10275800EFE70120EDE70120EBE7B3F5805F34D028
:10276800B3F5005F0CD1CB684A6889680068FFF749
:10277800A7FF2268936843F4804393600020D8E75A
:10278800702B24D1CB684A6889680068FFF798FFE6
:102798002268936843F0770393600020C9E7CA680A
:1027A80049680068FFF700FE60212068FFF70FFE08
:1027B8000020BEE7CA6849680068FFF7E3FD4021CA
:1027C8002068FFF704FE0020B3E70020B1E70120EE
:1027D800AFE702207047000090F83C30012B34D05E
:1027E80010B4012380F83C30022380F83D300368A0
:1027F8005A689C6822F0700C0A6842EA0C025A6017
:102808000368134A934212D002F5006293420ED035
:10281800B3F1804F0BD0A2F59832934207D002F55E
:102828008062934203D002F58062934204D124F07F
:1028380080044A6814439C60012380F83D300023DB
:1028480080F83C30184610BC70470220704700BF23
:10285800002C014070477047026802F10C0353E8EE
:10286800003F23F490730C3242E800310029F3D181
:10287800026802F1140353E8003F23F00103143205
:1028880042E800310029F3D1036B012B05D0202346
:1028980080F84230002303637047026802F10C039A
:1028A80053E8003F23F010030C3242E800310029BE
:1028B800F3D1ECE790F84130DBB2212B01D00220B4
:1028C80070478368B3F5805F17D0036A5A1C0262A9
:1028D8001A7803685A60C38C9BB2013B9BB2C384CD
:1028E8004BB90268D36823F08003D3600268D368C9
:1028F80043F04003D360002070470369002BE4D104
:10290800036A1B880268C3F308035360036A02332F
:102918000362E0E710B504460268136923F44053E4
:10292800C1680B43136183680269134342691A4300
:102938000168CB6823F4B05323F00C031343CB6036
:102948000268536923F4407381690B435361026839
:10295800134B9A4220D0FFF72BF8024602EB820273
:1029680002EB820263689B00B2FBF3F20D48A0FB06
:1029780002314909642303FB11231B013233A0FBF5
:1029880003235B0903F0F00202EB011203F00F03CB
:10299800216813448B6010BDFFF71AF80246DDE783
:1029A800003801401F85EB512DE9F04383B00546FF
:1029B8000E4617469946DDF828802C68246836EAC2
:1029C80004030CBF4FF0010C4FF0000CBC4528D19C
:1029D800B8F1FF3FF1D0FEF7CDFCA0EB0900404570
:1029E80023D8B8F1000F22D02B68DA6812F0040F50
:1029F800E3D0802EE1D0402EDFD01A6812F0080F05
:102A0800DBD0002401941A6801925B680193019B52
:102A18002846FFF721FF08236B6485F84040012012
:102A280000E0002003B0BDE8F0830320FAE70320AC
:102A3800F8E760B310B5044690F8413013B3242387
:102A480084F841302268D36823F40053D3602046C9
:102A5800FFF760FF2268136923F49043136122682B
:102A6800536923F02A0353612268D36843F400535F
:102A7800D36000206064202384F8413084F8423019
:102A8800606310BD80F8403000F06AFBD7E7012092
:102A980070472DE9F04182B01E4690F84130DBB214
:102AA800202B56D104460D469046002955D00AB928
:102AB80001204FE000234364212380F84130FEF7D2
:102AC80059FC0746A4F82480A4F82680A368B3F527
:102AD800805F02D04FF0000814E023692BB34FF059
:102AE80000080FE0202384F84130032032E038F852
:102AF800023B2268C3F308035360E28C92B2013AA6
:102B080092B2E284E38C9BB293B100963B460022DA
:102B180080212046FFF748FF0028E3D1002DE6D0AA
:102B280015F8012B23685A60E7E7A8460025E9E76E
:102B380000963B46002240212046FFF735FF18B992
:102B4800202384F8413005E0202384F84130032015
:102B580000E0022002B0BDE8F0810120FAE77047EA
:102B680008B50168CA6822F04002CA60202280F8CD
:102B78004120FFF7F4FF002008BD704708B5406A00
:102B88000023C385C384FFF7F8FF08BD704790F89A
:102B98004230DBB2222B69D18368B3F5805F4FD016
:102BA800826AB3F5805F04D0002B56D10369002BED
:102BB80053D103685B681370836A01338362C38DE2
:102BC8009BB2013B9BB2C385002B51D100B583B0AA
:102BD8000268D36823F02003D3600268D36823F423
:102BE8008073D3600268536923F001035361202383
:102BF80080F8423000234363036B012B33D1002359
:102C08000363026802F10C0353E8003F23F010034A
:102C18000C3242E800310029F3D103681A6812F037
:102C2800100F06D0002201921A6801925B68019386
:102C3800019B818DFFF7AAFF002003B05DF804FB1C
:102C48000269002AACD1826A03685B68C3F308038F
:102C58001380836A02338362B1E703685B6803F019
:102C68007F031370A8E700F0E9FDE5E7022070474D
:102C78000020704730B583B0044602681368D068F6
:102C8800516913F00F0505D113F0200F02D010F091
:102C9800200F19D12DB111F0010119D110F4907F35
:102CA80016D1216B01297DD013F0800F03D010F0CD
:102CB800800F40F0188113F0400F03D010F0400F40
:102CC80040F0158103B030BD2046FFF760FFF9E7FB
:102CD80013F0010F06D010F4807F03D0626C42F02D
:102CE8000102626413F0040F04D019B1626C42F05F
:102CF8000202626413F0020F04D019B1626C42F050
:102D08000402626413F0080F07D010F0200F00D1FE
:102D180019B1626C42F008026264626C002AD1D078
:102D280013F0200F02D010F0200F29D123685B691F
:102D380003F04003626C12F0080F00D163B3204621
:102D4800FFF78AFD23685B6913F0400F20D02268E3
:102D580002F1140353E8003F23F04003143242E821
:102D680000310029F3D1E36B73B1634A5A63E06B16
:102D7800FFF770F80028A5D0E06B436B9847A1E7F0
:102D88002046FFF704FFD1E72046FFF7F6FE99E754
:102D98002046FFF7F2FE95E72046FFF7EEFE0023F8
:102DA80063648FE713F0100F3FF47EAF10F0100F3D
:102DB8003FF47AAF0023019313680193536801939A
:102DC800019B536913F0400F51D0E26B13685B68A5
:102DD8009BB2002B3FF476AFA18D99427FF672AF7C
:102DE800E3859369202B37D0226802F10C0353E85E
:102DF800003F23F480730C3242E800310029F3D1FC
:102E0800226802F1140353E8003F23F0010314324F
:102E180042E800310029F3D1226802F1140353E893
:102E2800003F23F04003143242E800310029F3D177
:102E3800202384F8423000232363226802F10C0324
:102E480053E8003F23F010030C3242E80031002918
:102E5800F3D1E06BFEF7DAFF02236363A18DE38D04
:102E68009BB2C91A89B22046FFF790FE2AE7A18DC6
:102E7800E38D9BB2C91A89B2E38D9BB2002B3FF454
:102E880021AF00293FF41EAF226802F10C0353E87A
:102E9800003F23F490730C3242E800300028F3D14D
:102EA800226802F1140353E8003F23F001031432AF
:102EB80042E800300028F3D1202384F84230002370
:102EC8002363226802F10C0353E8003F23F0100348
:102ED8000C3242E800300028F3D102236363204615
:102EE800FFF754FEEEE62046FFF7E4FCEAE620464C
:102EF800FFF736FEE6E600BF852B000890F8413064
:102F080090F842001843704781628285C285002389
:102F18004364222380F84230036923B10268D368EE
:102F280043F48073D3600268536943F0010353612B
:102F38000268D36843F02003D3600020704708B5C7
:102F480090F84230DBB2202B08D149B10AB90120F0
:102F580008BD00230363FFF7D7FFF9E70220F7E76F
:102F68000120F5E77047000010B586B000230293F2
:102F780003930493059303F1804303F504339A699B
:102F880042F004029A619A6902F004020092009ADF
:102F98009A6942F008029A619B6903F00803019359
:102FA800019B094C012223212046FEF7D4FE23234E
:102FB80002930123039304930223059302A9204655
:102FC800FEF7A2FD06B010BD000C014010B586B09A
:102FD8000023029303930493059303F1804303F5BD
:102FE80004339A6942F080029A619B6903F0800376
:102FF8000193019B0A4C01224FF4C0712046FEF751
:10300800AAFE4FF4C073029301230393049302238F
:10301800059302A92046FEF777FD06B010BD00BF54
:10302800001C014008B50B480B4B03600B4B436079
:1030380000238360C3604FF480420261436183616F
:10304800C3610362FEF774F800B908BDFDF776FFA7
:10305800FBE700BFA00D002000540040A08601003F
:1030680010B586B000230293039304930593026876
:10307800114B9A4201D006B010BD104CA36943F021
:103088000803A361A36903F008030093009BC0230E
:103098000293122303930323059302A90848FEF71A
:1030A80033FDE36943F40013E361E36903F40013B8
:1030B8000193019BDFE700BF00540040001002406D
:1030C800000C014008B50A480A4B03604FF461231D
:1030D800436000238360C36003610C224261836103
:1030E800C361FFF7A6FC00B908BDFDF727FFFBE7A2
:1030F800F40D00200038014008B50A480A4B036067
:103108004FF4E133436000238360C36003610C2202
:1031180042618361C361FFF78CFC00B908BDFDF70C
:103128000DFFFBE73C0E00200044004008B50A48AC
:103138000A4B03604FF4E133436000238360C360AC
:1031480003610C2242618361C361FFF772FC00B91D
:1031580008BDFDF7F3FEFBE7840E002000480040A1
:1031680030B58BB00023069307930893099303683F
:103178004F4A934207D04F4A934236D04E4A934221
:1031880063D00BB030BD4D4B9A6942F480429A61CE
:103198009A6902F480420092009A9A6942F0040205
:1031A8009A619B6903F004030193019B4FF4007338
:1031B80006930223079303230993414D06A9284642
:1031C800FEF7A2FC4FF4806306930024079408944A
:1031D80006A92846FEF798FC224605212520FFF778
:1031E80077F82520FFF7ACF8CBE7344BDA6942F4DF
:1031F8000032DA61DA6902F400320292029A9A69BC
:1032080042F004029A619B6903F004030393039B51
:10321800042306930223079303230993284D06A941
:103228002846FEF771FC08230693002407940894A7
:1032380006A92846FEF768FC224606212620FFF745
:1032480047F82620FFF77CF89BE71C4BDA6942F425
:103258008022DA61DA6902F480220492049A9A6977
:1032680042F008029A619B6903F008030593059BE5
:103278004FF4806306930223079303230993114DA8
:1032880006A92846FEF740FC4FF400630693002485
:103298000794089406A92846FEF736FC224607211B
:1032A8002720FFF715F82720FFF74AF869E700BF3E
:1032B800003801400044004000480040001002402F
:1032C80000080140000C01400FB4F0B583B008AD10
:1032D80055F8047B0E4C4FF4967632460021204672
:1032E80001F0ECFB01952B463A463146204601F0A9
:1032F80065FC204601F034FC4FF47A7382B2214613
:103308000448FFF7C6FB03B0BDE8F04004B07047BF
:103318006C140020F40D002070B500252C4606E042
:10332800324629460C48FFF7CFFF01350134272CD8
:103338000DDC0A4A04EB84018B00D618D35C002B01
:10334800F4D0002CECD10648FFF7BEFFE8E7294689
:103358000448FFF7B9FF70BDDCAB00080C00002083
:1033680000AC0008E4AB000808B50348FFF7ACFF61
:103378000248FFF7A9FF08BDF8AB000804AC000835
:1033880070B505460C4601F0EBFB0646204601F0F9
:10339800E7FB864216DB0146002002E08B4210D094
:1033A8000130731A83420ADB00238B42F6DAC21813
:1033B80015F802C0E25C9445F0D10133F5E74FF00F
:1033C800FF3070BD4FF0FF30FBE770B506460C4686
:1033D800154601F0C5FBC2B2A24215D9A446315D1B
:1033E8002D2914D0631CC0B2834217DA302919D1B1
:1033F800B4449CF80130782B01D0582B16D10234F4
:10340800E4B20120844607E0002028604CE0013443
:10341800E4B200204FF0FF3C002312E000204FF000
:10342800010CF9E700204FF0010CF5E700204FF000
:10343800010CF1E703EB83030EEB4303303B01344C
:10344800E4B294422CD216F804E0AEF13001C9B2CD
:10345800092905D80028EDD00EEB0313303BEEE721
:10346800AEF16101C9B2052907D818B10EEB0313F3
:10347800573BE4E700232B6016E0AEF14101C9B2E7
:10348800052907D818B10EEB0313373BD7E70023FC
:103498002B6009E0BEF1200F02D0BEF12C0FCED177
:1034A8000CFB03F32B60012070BD000030B58BB01E
:1034B800054600230893ADF824308DF8263007938D
:1034C8004549FFF75DFF0446B0F1FF3F0BD1B4F16A
:1034D800FF3F11D0079999B1B2293AD03F48FFF779
:1034E800F3FE0BB030BD043407AAE1B22846FFF75B
:1034F8006CFF0028EBD1F4E73848FFF7E5FEF0E76A
:10350800072308AAC9B2642000F020FDA8B99DF8D5
:1035180023309DF822209DF821109DF8200003906B
:103528000291019200939DF824309DF825209DF882
:1035380026102B48FFF7C8FED3E7082308AA9DF8F2
:103548001C10642000F002FD01462648FFF7BCFE6F
:10355800C7E7082308AAC9B2642000F0F7FCC0B97D
:103568009DF823309DF824209DF825109DF826000D
:103578009DF82740049403900291019200939DF8CE
:1035880022309DF821209DF820101748FFF79CFE57
:10359800A7E7082308AA9DF81C10D02000F0D6FC45
:1035A80000289ED19DF823309DF824209DF82510F1
:1035B8009DF826009DF827400494039002910192FB
:1035C80000939DF822309DF821209DF82010064890
:1035D800FFF77AFE85E700BF18AC000820AC0008AA
:1035E80030AC000860AC000878AC000810B586B0B4
:1035F8000446002303930493ADF8143002936949F9
:10360800FFF7BEFEB0F1FF3F5ED167492046FFF7E6
:10361800B7FEB0F1FF3F6CD164492046FFF7B0FE1A
:10362800B0F1FF3F7AD162492046FFF7A9FEB0F119
:10363800FF3F40F088805F492046FFF7A1FEB0F1C8
:10364800FF3F40F095805C492046FFF799FEB0F1B6
:10365800FF3F12D0043002AAC1B22046FFF7B5FEE0
:1036680080B3029A554981FB0231D317C3EB61132A
:10367800642101FB13238DF812309DF812308DF868
:1036880000309DF811308DF801309DF810308DF81C
:10369800023000218DF803109DF80E308DF80430AB
:1036A8009DF80D308DF805309DF80C308DF80630FA
:1036B80007236A46642000F01BFC00286DD14048AF
:1036C800FFF702FE06B010BD053002AAC1B22046BF
:1036D800FFF77BFE0028F5D0029A384981FB0231BA
:1036E800D317C3EB6113642101FB13238DF80C304E
:1036F8008BE7043002AAC1B22046FFF766FE002815
:10370800E0D0029A2D4981FB0231D317C3EB611334
:10371800642101FB13238DF80D307DE7043002AAE4
:10372800C1B22046FFF751FE0028CBD0029A2349A8
:1037380081FB0231D317C3EB6113642101FB13230F
:103748008DF80E306FE7053002AAC1B22046FFF7A8
:103758003CFE0028B6D0029A184981FB0231D317E3
:10376800C3EB6113642101FB13238DF8103062E76A
:10377800043002AAC1B22046FFF727FE0028A1D0D4
:10378800029A0E4981FB0231D317C3EB61136421FE
:1037980001FB13238DF8113055E70A48FFF794FD14
:1037A80090E700BFA0AC0008A8AC0008B0AC0008C7
:1037B800B8AC0008C0AC0008C8AC00081F85EB51C5
:1037C800D0AC0008E4AC0008F8B506460D4614462F
:1037D8001F46084601F0C4F9A04213DD4FF0000C63
:1037E800BC450ADA0CEB040E864506DA15F80EE03D
:1037F80006F80CE00CF1010CF2E7002306F80C3097
:103808000120F8BD4FF0FF30FBE710B590B004463B
:10381800002100913C2201A801F050F9204601F056
:103828009FF9A0F10B030B2221466846FFF7CCFF56
:10383800684600F003FC10B010BD000010B5044647
:1038480002683D4B9A4208D022683C4B9A4223D0EA
:1038580022683B4B9A424CD010BD3A4B1B88C72B71
:1038680009D8394A127832B9384A1178384AD154C5
:103878000133344A1380334B1B88C72B03D8334B8F
:103888001B78202B02D1304B01221A7001222F49BC
:103898003048FFF754FBD7E72F4B1B883BB92F4A1B
:1038A8001278202A1FD00D2A1DD00A2A1BD0C72B18
:1038B80009D82B4A127832B9284A1178294AD154A2
:1038C8000133254A1380244B1B88C72B02D8234B6E
:1038D8001B7813B9224B01221A7001221F49224872
:1038E800FFF72DFBB4E701221C491F48FFF727FB10
:1038F800B2E71E4B1B6840F2FE3293420CD8591CAB
:103908001A4A11601A4A11781A4AD15401221849E0
:103918001948FFF714FB9FE70021144B19604FF477
:103928008062144801F0CAF84FF6FF736422134905
:103938000848FFF7AEF8E9E70038014000440040C6
:1039480000480040A0150020A01300209C1500206E
:10395800A4130020F40D0020D4120020D01200205F
:10396800D6120020D81200203C0E0020CC120020D5
:10397800A2150020CC0E0020840E0020FCAC00080C
:1039880008B54FF6FF730A4A12880A490A48FFF732
:1039980080F80948FFF7B2FA2128FAD00021044B31
:1039A80019604FF48062034801F088F808BD00BF31
:1039B800CC120020CC0E0020F40D002010B58CB0E5
:1039C8000DF1040C0B4C0FCCACE80F000FCCACE89D
:1039D8000F0094E80700ACE803008CF8002001A869
:1039E80000F02CFB4FF47A70FDF7CAFCFFF7C8FF14
:1039F8000CB010BD10AD000838B5284B1B7813B9B2
:103A0800274A128892B1264A1288264909888A428A
:103A180011D924490A80244A00211180224A128897
:103A2800632A35D8012B32D100240BE01E4A1380BB
:103A38001C4A13802BE01C490A8801320A80EDE7F2
:103A48000134E4B2272C12D8184B04EB840203EBA0
:103A5800820113F82230002BF2D01548FFF790FCB2
:103A68000028EDD1134B53F8243011489847282CDF
:103A780010D0C82200210E4801F020F80023084A7F
:103A88001380064A1370084A1380064A138038BD0B
:103A98000024D7E70848FFF717FCEAE7A01300203F
:103AA800A01500209A1500209E1500200C0000206B
:103AB800A41300202C0300203CAD000808B5184BC7
:103AC8001B7813B9174A1288FAB1164A1288164990
:103AD80009888A421ED914490A80144A0021118093
:103AE800124A1288632A01D8012B0DD1C82200215D
:103AF8000F4800F0E3FF00230A4A1380084A1370B6
:103B08000A4A1380084A138008BD084A1380064AE7
:103B18001380F9E705490A8801320A80E0E700BF07
:103B2800D6120020D412002098150020D2120020AE
:103B3800D812002008B580210348FEF705F90128AE
:103B480000D0002008BD00BF000C0140F0B585B0D2
:103B58000024009401940294039480230093112775
:103B6800019702260396084D69462846FDF7CCFFC3
:103B78004023009301970294039669462846FDF76F
:103B8800C3FF05B0F0BD00BF000C014070B584B0A4
:103B98000023009301930293039380260096112338
:103BA80001930125029502230393194C6946204687
:103BB800FDF7AAFF2A4631462046FEF7CCF82A46EA
:103BC80040212046FEF7C7F8124B1B881A46013BD6
:103BD800002AFBD1FFF7AEFF10B9012004B070BD79
:103BE800002280210A48FEF7B6F80A4B1B881A46BD
:103BF800013B002AFBD140210548FEF7ACF8054BF4
:103C08001B881A46013B002AFBD10020E6E700BFCB
:103C1800000C0140CC03002070B584B0002400944F
:103C280001940294039480260096112301930123A2
:103C3800029302230393134D69462846FDF764FF58
:103C4800224631462846FEF786F822464021284675
:103C5800FEF781F80C4B1B881A46013B002AFBD162
:103C6800012240210748FEF776F8074B1B881A46C1
:103C7800013B002AFBD1012280210248FEF76BF8A4
:103C880004B070BD000C0140CC03002010B5104CEE
:103C9800002280212046FEF75EF8002240212046BF
:103CA800FEF759F80B4B1B881A46013B002AFBD13B
:103CB800012240210648FEF74EF8064B1B881A469B
:103CC800013B002AFBD140210148FEF744F810BD12
:103CD800000C0140CC03002010B5104C01228021BB
:103CE8002046FEF738F8002240212046FEF733F838
:103CF8000B4B1B881A46013B002AFBD101224021AD
:103D08000648FEF728F8064B1B881A46013B002A8E
:103D1800FBD140210148FEF71EF810BD000C014000
:103D2800CC03002030B585B00023009301930293A3
:103D380003938023009302230393204C6946204673
:103D4800FDF7E2FE012240212046FEF704F81C4B55
:103D58001B881A46013B002AFBD1FFF7EBFE0546FC
:103D680020BB002240211548FDF7F5FF144B1B88A6
:103D78001A46013B002AFBD1104C01228021204623
:103D8800FDF7E9FF00230093019302930393802337
:103D9800009311230193012302930223039369469D
:103DA8002046FDF7B1FE284605B030BD002240216F
:103DB8000248FDF7D0FF0225F5E700BF000C0140DF
:103DC800CC03002038B50446002240211748FDF7EF
:103DD800C2FF00251DE0012280211448FDF7BBFF2A
:103DE800134B1B881A46013B002AFBD16400E4B23E
:103DF800012240210D48FDF7AEFF0D4B1B881A46E6
:103E0800013B002AFBD140210848FDF7A4FF0135FA
:103E1800EDB2072D08D814F0800FDCD100228021E4
:103E28000248FDF798FFDBE738BD00BF000C0140F2
:103E3800CC03002070B584B000240094019402944F
:103E480003948026009602230393274D694628464B
:103E5800FDF75AFE012231462846FDF77CFF25462C
:103E680001E00134E4B2072C1ED8002240211E488C
:103E7800FDF771FF6D00EDB21C4B1B881A46013B24
:103E8800002AFBD1012240211748FDF764FF174B98
:103E98001B881A46013B002AFBD1FFF74BFE00287E
:103EA800DFD045F00105DCE7002240210E48FDF790
:103EB80052FF0E4B1B881A46013B002AFBD10023F8
:103EC800009301930293039380230093112301939A
:103ED800012302930223039369460348FDF714FE66
:103EE800284604B070BD00BF000C0140CC03002080
:103EF800F8B504460F4616461D46FFF747FE10B1B3
:103F080001273846F8BD2046FFF75CFFFFF70AFF98
:103F180040B93846FFF756FFFFF704FF074628B9B0
:103F280000240EE0FFF778FE0227EAE7FFF774FEA9
:103F38000227E6E7305DFFF745FFFFF7F3FE0134A0
:103F4800A4B2AC42F6D3FFF767FEDAE7F8B5044649
:103F58000F4616461D46FFF719FE10B101273846D1
:103F6800F8BD2046FFF72EFFFFF7DCFE80B9384684
:103F7800FFF728FFFFF7D6FE074688B9FFF706FECA
:103F880044F00100FFF71EFFFFF7CCFE002412E00B
:103F9800FFF742FE80211048FDF7E3FE0227DEE727
:103FA800FFF73AFE4FF480710B48FDF7DAFE02275F
:103FB800D5E70134A4B2AC4208D2FFF73BFF305535
:103FC8006B1E9C42F5D0FFF761FEF2E7FFF784FE17
:103FD800FFF722FEC3E700BF001C014070B586B0A2
:103FE80000240294039404940594124B9A6942F4B1
:103FF80080729A619B6903F480730193019B4FF46B
:10400800C0430293012603960496022305930A4DA2
:1040180002A92846FDF778FD32464FF4804128462C
:10402800FDF799FE22464FF400512846FDF793FE0E
:1040380006B070BD001002400020014010B50446D3
:1040480000F08EFD4FF6FF7382B221460448FEF75A
:1040580020FD0348FEF752FF2128FAD010BD00BF0B
:10406800840E002000B585B00023019302930393CA
:104078001A481B4A02604FF4807282600122027360
:1040880003754FF46022C26143600223036100F0AC
:10409800D3F9C8B91123019301230293042303938D
:1040A8000DEB03010D4800F0F9F880B910230193D6
:1040B800022302930523039301A9084800F0EEF8B0
:1040C80040B905B05DF804FBFCF738FFE2E7FCF700
:1040D80035FFEBE7FCF732FFF3E700BFA41500203C
:1040E8000024014002681B4B9A4200D0704710B56B
:1040F80082B0044603F56C439A6942F400729A61EF
:104108009B6903F400730193019B1348134B0360ED
:104118000023436083608022C2604FF48072026192
:104128004FF48062426120228261C361FDF722FE62
:1041380060B9094B23625C62002201211220FEF75C
:10414800C7F81220FEF7FCF802B010BDFCF7F6FE27
:10415800EFE700BF00240140F015002008000240EE
:1041680000B583B00A4B5A6942F001025A615B6993
:1041780003F001030193019B002211460B20FEF777
:10418800A7F80B20FEF7DCF803B05DF804FB00BFCE
:1041980000100240704770477047704770B504467A
:1041A80003681E685D6815F0200F17D016F0020F1F
:1041B80014D0826A12F0100F03D1826A42F400729E
:1041C80082629A6802F46022B2F5602F3ED0236BB7
:1041D8002046984723686FF012021A6015F0800F86
:1041E80022D016F0040F1FD0A36A13F0100F03D1CA
:1041F800A36A43F40053A3622268936803F4E0437C
:10420800B3F5E04F39D0536813F4806F05D1936844
:1042180003F46023B3F5602F2CD0236C2046984715
:1042280023686FF00C021A6015F0400F0DD016F0DD
:10423800010F0AD0A36A43F48033A362A36B20461C
:10424800984723686FF001021A6070BD227B002A2C
:10425800BDD15A6822F020025A60A36A23F4807301
:10426800A362A36A13F4805FB1D1A36A43F0010388
:10427800A362ACE7237B002BCFD1536823F08003E4
:104288005360A36A23F48053A362A36A13F4807F64
:10429800C3D1A36A43F00103A362BEE730B482B07E
:1042A8000022019290F82420012A00F09180034610
:1042B800012280F824204A68062A2DD80468606BF9
:1042C80002EB8202053A4FF01F0C0CFA02FC20EABE
:1042D8000C000D6805FA02F2024362630A68092AB3
:1042E8003AD91C68E06802EB42021E3A4FF0070C0C
:1042F8000CFA02FC20EA0C008D6805FA02F202436F
:10430800E2600A68103A012A36D90020002283F8B0
:10431800242002B030BC70470C2A0ED80568286BE0
:1043280002EB8202233A1F24944020EA04000C681E
:1043380004FA02F202432A63D0E70568E86A02EB4E
:104348008202413A1F24944020EA04000C6804FACF
:1043580002F20243EA62C1E71C68206902EB4202EA
:104368004FF0070C0CFA02FC20EA0C008D6805FAE5
:1043780002F202432261C4E71A681648824205D055
:104388009A6A42F020029A620120BFE7906810F40E
:10439800000F1BD1906840F4000090600A68102A52
:1043A80001D00020B2E70C4A12680C49A1FB0212A6
:1043B800920C02EB82025200019202E0019A013A49
:1043C8000192019A002AF9D100209FE700209DE779
:1043D80002209EE7002401400800002083DE1B43E2
:1043E80038B503689A6812F0010F01D1002038BD72
:1043F80004469A6822F001029A60FCF7BBFF054662
:1044080023689B6813F0010F13D0FCF7B3FF431B1D
:10441800022BF5D923689B6813F0010FF0D0A36A2B
:1044280043F01003A362E36A43F00103E36201204F
:10443800DDE70020DBE70000002800F0978070B57A
:104448000446836A93B9C36280F82430484B0363F7
:10445800484B4363484B8363484BC363484B0364EF
:10446800436C002B55D0636C204698472046FFF7D5
:10447800B7FFA36A13F0100372D1002870D1A26AA3
:1044880022F4885222F0020242F00202A26262681A
:1044980026683C498E423FD0E1690A43217B42EAC3
:1044A8004102A568B5F5807F02D0012D3BD01D469D
:1044B80094F814C0BCF1010F38D0716821F4694137
:1044C800294371602568AE682F4931401143A960BE
:1044D800A168B1F5807F01D0012902D12369013B90
:1044E8001B052568E96A21F470010B43EB62236818
:1044F8009968264B0B409A4229D0A36A23F01203ED
:1045080043F01003A362E36A43F00103E36201206E
:104518002BE01F4B4364A6E7E169B1F5402FBCD1FE
:104528004FF40021B9E74FF48075C1E731B9A169AB
:10453800013945EA413141F40065BEE7A16A41F01D
:104548002001A162E16A41F00101E162B5E70023BF
:10455800E362A36A23F0030343F00103A36204E0C8
:10456800A36A43F01003A362012070BD01207047C5
:104578009D4100089F410008A1410008A34100088F
:104588009D450008003C0140FDF7E1FFFE0E1FFFBE
:10459800ED400008704710B50446836800799847D5
:1045A800E37813F0070F02D0238801332380E378E0
:1045B800B0EBD31F13D01A46C3F3C203013303F081
:1045C800070363F3C502E270022B0CD9D3B260F380
:1045D800C713E370DBB26FF3C503E37003E0E3785E
:1045E8006FF3C503E370E37803F00703052B00F2CC
:1045F800E480DFE813F00600260050009C00E2008B
:10460800C400E378C3F38012B2EBD31F05D0A378BC
:10461800082262F30713A370D3E0A3786FF307139C
:10462800A370E3680BB12046984700232380A37842
:10463800012262F30303A370E37862F30203E370D9
:10464800BFE0E378C3F38012B2EBD31F10D0A37896
:10465800012262F30713A37023690BB12046984720
:1046680000232380E378022262F30203E370A8E0C8
:104678002388C82B40F2A580A378052262F307138C
:10468800A370236A0BB120469847E378052262F3AA
:104698000203E37095E0E378C3F38012B2EBD31F13
:1046A8000FD023883C2B40F28C80A37803F00F03B3
:1046B800012B26D0022B2FD0E3786FF30203E3708F
:1046C8007FE0A3786FF30713A370E3680BB120466C
:1046D8009847A37803F00F030F2B06D0A37803F0B5
:1046E8000F02013262F30303A37063690BB1204622
:1046F800984700232380E378032262F30203E370E0
:104708005FE0A378032262F30713A370A369002B69
:10471800D2D020469847CFE7A378042262F3071344
:10472800A370E369002BC7D020469847C4E7E37815
:10473800C3F38012B2EBD31F18D0A378012262F31F
:104748000713A37023690BB12046984723883B2B96
:1047580007D800232380E378022262F30203E37080
:104768002FE0E3786FF30203E3702AE023883C2B01
:1047780027D9E378012262F30203E37021E0E378AA
:10478800C3F38012B2EBD31F0DD0A378012262F3DA
:104798000713A37023690BB120469847E3786FF39A
:1047A8000203E3700DE0A378062262F30713A370F7
:1047B800636A33B12046984703E0E3786FF3020356
:1047C800E37010BD00B583B00D4B9A6942F010023A
:1047D8009A619B6903F010030193019B28B101289A
:1047E80008D0002003B05DF804FB01210548FDF75F
:1047F800ABFAF7E74FF400510348FDF7A5FAF1E7E4
:1048080000100240000801400010014008B50248AD
:10481800FEF75AFD08BD00BF54AD000808B50248B0
:10482800FEF752FD08BD00BF70AD000808B502488C
:10483800FEF74AFD08BD00BF88AD000808B502486C
:10484800FEF742FD08BD00BF9CAD0008F8B5044660
:104858000F4615461E462C22002100F02FF9A3789A
:10486800082262F30713A370A760B5FA85F35B0902
:10487800E27863F3C712E270D3B265F38613E3708C
:104888002671F8BD023100EB8100426070478078E4
:104898000009704708B5FFF7FAFF01460148FEF71F
:1048A80013FD08BDB4AD0008074B1A68134600E0B5
:1048B8009B6A23B18342FBD14FF0FF30704782627D
:1048C800014B1860002070478C16002010B5054B6E
:1048D8001C6803E02046FFF75EFEA46A002CF9D1AD
:1048E80010BD00BF8C16002070B5174E174C002362
:1048F800012231462046FFF7A9FF154D01231A462C
:1049080031462846FFF7A2FF124A03212046FFF747
:10491800B9FF114A05212046FFF7B4FF0F4A0421C9
:104928002046FFF7AFFF0E4A00212846FFF7AAFFEF
:104938000C4A04212846FFF7A5FF2046FFF7B4FFDD
:104948002846FFF7B1FF70BDCD4700083416002098
:10495800601600209D4800081548000825480008F2
:10496800354800084548000800B587B00023029381
:104978000393049305930093019316484FF08042E4
:10498800026041F61F42426083603122C2600361C7
:1049980080238361FDF768FE90B94FF4805302933A
:1049A80002A90C48FDF798FE68B90023009301930B
:1049B80069460848FDF710FF40B907B05DF804FBE9
:1049C800FCF7BCFAE9E7FCF7B9FAEEE7FCF7B6FA48
:1049D800F3E700BF901600200368B3F1804F00D0C2
:1049E800704700B583B003F50433DA6942F0010279
:1049F800DA61DB6903F001030193019B00220221C4
:104A08001C20FDF765FC1C20FDF79AFC03B05DF83F
:104A180004FB000008B5034B834200D008BDFFF734
:104A280055FFFBE790160020FEF79CFA0B480C494F
:104A38000C4A002302E0D458C4500433C4188C42F2
:104A4800F9D3094A094C002301E013600432A24259
:104A5800FBD300F00FF8FCF7B7FA7047000000200E
:104A6800800D0020E4B10008800D002024170020EC
:104A7800FEE7000070B50D4E0D4D761BB61006D042
:104A8800002455F8043B01349847A642F9D1094E51
:104A9800094D06F05DF8761BB61006D0002455F8CF
:104AA800043B01349847A642F9D170BDD8B100083B
:104AB800D8B10008E0B10008D8B10008830730B5C4
:104AC80048D0541E002A3FD00346CAB201E0013C38
:104AD8003AD303F8012B9D07F9D1032C2DD9CDB278
:104AE80045EA05250F2C45EA054536D9A4F11002FB
:104AF80022F00F0C03F1200EE6444FEA121C03F1DA
:104B0800100242E9045542E9025510327245F8D1C3
:104B18000CF1010214F00C0F03EB021204F00F0C5D
:104B280013D0ACF1040323F003030433134442F815
:104B3800045B9342FBD10CF003042CB1CAB21C44B1
:104B480003F8012B9C42FBD130BD64461346002C70
:104B5800F4D1F9E703461446BFE71A46A446E0E74E
:104B680020F0030110F00300C0F1000051F8043BED
:104B780000F1040C4FEACC0C6FF000021CBF22FAC3
:104B88000CF213434FF0010C4CEA0C2C4CEA0C4C81
:104B9800A3EB0C0222EA030212EACC1204BF51F87A
:104BA800043B0430F4D0C2F1000102EA0102B2FA77
:104BB80082F2C2F11F0200EBD200704710B5194C07
:104BC800002924689AB028DB009004904FF4027002
:104BD8004FF6FF7CADF80C0011D001390291059118
:104BE80020466946ADF80EC000F04CF8421C01DAC8
:104BF8008B2323600022009B1A701AB010BD02910B
:104C0800059120466946ADF80EC000F03BF8431CFC
:104C180001DA8B2323601AB010BD8B234FF0FF30CD
:104C28002360F8E7D0030020024B13B1024800F0DC
:104C380005B8704700000000514C000800230146E9
:104C48001A46184601F070BD38B5084B084D5B1B75
:104C58009C1007D0043B1D44013C55F80439984783
:104C6800002CF9D1BDE8384005F078BFE4B1000860
:104C7800E0B10008704700BF704700BF704700BF31
:104C8800704700BF2DE9F04FD5B00C460C91914606
:104C98000E930A9002F0DAFE036818461793FFF79E
:104CA8005FFFA3891690190603D52369002B00F02E
:104CB8008F8700242BAB224698464D46CDE92944E0
:104CC8002893129400230024CDE914342B78CDE9DD
:104CD8001922CDE91B2218920892002B00F0CE81F0
:104CE800AA4604E01AF8013F002B00F00981252BA1
:104CF800F8D1BAEB050640F007819AF80030002B8E
:104D080000F0BC8100234FF0FF324FF02B09202424
:104D18001F469AF8016007920AF1010A8DF883305C
:104D280009930AF1010AA6F120035A2B00F2208107
:104D3800DFE813F0CA021E011E01C5021E011E0192
:104D48001E01A3021E011E016A00F3021E01470292
:104D5800D9021E01D4025B005B005B005B005B00B4
:104D68005B005B005B005B001E011E011E011E0153
:104D78001E011E011E01B0011E010B027A00B001C6
:104D8800B001B0011E011E011E011E019E021E017E
:104D98001E01B6001E011E011E0119021E014C0251
:104DA8001E011E013F071E011E011E011E011E01DC
:104DB8001E011E011E01B0011E010B027C00B00184
:104DC800B001B00191027C0075001E0184021E0131
:104DD8007002B8005E0275001E01190272001C07FD
:104DE8001E011E011F071E0172000022A6F13003DA
:104DF8001AF8016B02EB820203EB4202A6F13003C0
:104E0800092BF5D909928EE70E9B53F8042B002A3B
:104E180009920E93C0F2D2819AF8006081E79AF85D
:104E2800006047F020077CE747F01007BA060E9BA2
:104E380040F17D81073323F007031A465B6852F877
:104E4800084B99460E92002BC0F27F85079B0133D1
:104E580001F0398054EA090327F0800B00F005853A
:104E68000A2C79F1000380F0938701235F463034E0
:104E78008DF84F410B930DF24F15079A0B990023AC
:104E88008A42B8BF0A4606929DF883200D930F9375
:104E980013931093002A7CD0069B0133069378E085
:104EA80047F0100717F0200900F032810E9B0733F6
:104EB80023F00703D3F8049053F8084B0E9300230C
:104EC80027F4806B00228DF88320079A511C00F08C
:104ED8002A8254EA09012BF0800740F02382002A35
:104EE80041F02B80002B40F0C5841BF001030B938D
:104EF80000F0548530230DF24F158DF84F31BCE783
:104F0800BAEB050600F0BA802A9BC8E9005633447C
:104F18002A93299B0133072B299305DC08F10808FC
:104F2800089B33440893E8E60C990A9828AA03F0EA
:104F3800B3FC80B90DF1AC08F2E70C990A9828AADD
:104F480003F0AAFC002800F08A800D9B1BB10D9984
:104F58000A9802F07BFC0C9B9B8913F0400F089B7E
:104F680018BF4FF0FF330893089855B0BDE8F08F8D
:104F7800002E00F08380012300228DF8EC60069358
:104F88003BAD8DF883200B930D9207920F921392ED
:104F9800109217F0020302D006990231069117F019
:104FA800840B07D109990698A1EB0009B9F1000F04
:104FB80000F336832A9C82B10122C8F80420299A7A
:104FC800013401320DF18301072A2A942992C8F885
:104FD800001000F3698308F108087BB10223C8F8C0
:104FE8000430299B0234013321AA072B2A942993E0
:104FF800C8F8002000F36C8308F10808BBF1800FA3
:1050080000F02E82079B0B9AA3EB020BBBF1000F5B
:1050180000F37182FB0500F1C5810B9BC8F80050B5
:105028001C44C8F80430299B2A940133072B299380
:1050380000F3EA8208F108087B0705D5099B069A60
:105048009D1A002D00F35083DDE9083206998A4243
:10505800ACBF9B185B180893002C7FF46EAF00233D
:1050680029930D9B1BB10D990A9802F0EFFB554649
:105078000DF1AC082B78002B7FF432AE2A9B002B65
:105088003FF469AF0C9C0A98214628AA03F004FC57
:10509800A38962E70E9B073323F00702F2E8023484
:1050A800CDE91434DDE9143424F000449946184657
:1050B8000E9221464FF0FF32B64BFBF77DFD0028DC
:1050C80040F09684484621464FF0FF32B14BFBF73B
:1050D80055FD002840F08C84DDE9140100220023EE
:1050E800FBF742FD002840F0A6879DF883200021A9
:1050F8000320A94DA94B27F080070D910690472E54
:10510800C8BF1D4607910B900F9113911091C1E6EE
:1051180017F0100340F0628417F0400200F07B871C
:105128000E9A994652F8044B0E92A4B2C7E653F869
:10513800044B0E93FB0600F141847D0640F13B844D
:1051480044F3C0394B4624B27DE6012000220E9B71
:10515800069053F8041B3BAD8DF883208DF8EC10B6
:105168000E930B9010E74FF000090E9C079B54F824
:10517800045B8DF88390002D00F0EE865A1C00F039
:1051880060851A464946284602F010FF0D9000280F
:1051980001F09E800D9B9DF883205B1B0B9323EAF7
:1051A800E373CDF81C900E940693CDF83490CDF8A7
:1051B8003C90CDF84C90CDF840906BE6099B5B4253
:1051C80009939AF8006047F00407AAE547F0100B26
:1051D8001BF0200900F0AA830E9B073323F0070376
:1051E8001A4652F8084BD3F804900E92012369E648
:1051F800302278260E9B8DF8842053F8044B684A99
:105208000E934FF00009022347F0020B8DF88560DA
:10521800189257E6BD0600F1D683FC0600F1938686
:10522800780600F15D87B90540F18D860E9B0899D7
:1052380053F8042B554611700E931BE79AF800603B
:105248006C2E03BF9AF8016047F020070AF1010AA3
:1052580047F0100765E59AF80060682E03BF9AF8D2
:10526800016047F400770AF1010A47F0400758E562
:105278009AF8006047F0080753E50A9E304602F0A6
:10528800E5FB436818461B93FFF76AFC0346304664
:105298001C931E4602F0DAFB83681993002E3FF434
:1052A800BBAD199B002B3FF4B7AD199B1B78002BA6
:1052B8003FF4B2AD9AF8006047F4806731E59AF898
:1052C800006047F001072CE59DF88330002B7FF440
:1052D800A3AD9AF800608DF8834022E59AF8006043
:1052E80047F080071DE5524612F8016B2A2E01F09F
:1052F800EB81A6F13003092B924698BF002201F2F8
:1053080003801AF8016B02EB820203EB4202A6F15A
:105318003003092BF5D9079205E59AF800608DF856
:105328008390FEE4BB46012B3FF49AAD022B54ADAB
:1053380012D1189A04F00F03D35C240944EA0974C3
:105348004FEA191905F8013D54EA0903F2D154ABA3
:105358005B1B5F460B9390E504F00703E40844EAFF
:1053680049744FEAD909303354EA09012A4605F845
:10537800013DF1D11BF0010FE9D0302BE7D03023EC
:10538800023A05F8013C54AB9B1A5F4615460B934D
:1053980073E500BFFFFFEF7FD4AD0008D8AD00086C
:1053A800E4AD0008652E40F3E980DDE91401002230
:1053B8000023FBF7CFFB002800F0D2810123C8F8B7
:1053C8000430299BBF4A01330134072B2A942993BF
:1053D800C8F8002000F37A8508F10808229B129A81
:1053E800934280F2D782169B179A1C44C8E900237F
:1053F800299B2A940133072B299300F3DD8308F1B5
:105408000808129B5D1E002D7FF716AE102D41F384
:105418004181DFF8B492224649461026B946299BB5
:105428000F46DDF828B00C9C05E008F10808103D8F
:10543800102D40F3588501331032072BC8E9007648
:10544800CDE92932F1DD2146584628AA03F024FA8D
:1054580000287FF47AADDDE929320DF1AC08E6E7E2
:10546800099B069AA3EB020BBBF1000F7FF7CAADAD
:10547800BBF1100F41F30580DFF84C9241462046FE
:10548800A8464C461023299A0C9DDDF8289006E082
:10549800ABF1100BBBF1100F01F1080119DD01325E
:1054A8001030072AC1E90043CDE92920F0DD29465B
:1054B800484628AA03F0F0F900287FF446ADDDE954
:1054C8002920ABF1100BBBF1100F4FF010032BA9E3
:1054D800E5DC4546A1468846044601325C44072A75
:1054E800CDE92924C8F80090C8F804B000F318855D
:1054F80008F1080886E5BBF1100F40F39785DFF83F
:10550800C89141462046A8464C461023299A0C9D2E
:10551800DDF8289006E0ABF1100BBBF1100F01F19C
:10552800080119DD01321030072AC1E90043CDE92D
:105538002920F0DD2946484628AA03F0ADF90028BD
:105548007FF403ADDDE92920ABF1100BBBF1100F9F
:105558004FF010032BA9E5DC4546A14688460446D2
:1055680001325C44072ACDE92924C8F80090C8F81C
:1055780004B000F3CE8108F108084BE5129B012B1B
:1055880040F37E810123299E01341E44072EC8F86A
:1055980000502A94C8F80430299600F3E18108F1F4
:1055A8000808169B0136179A1C44072EC8E90023E1
:1055B800CDE9296400F3E18108F108080022DDE95A
:1055C80014010023FBF7C6FA002840F07681129BED
:1055D8000136013B01351C44072EC8F800502996B6
:1055E800C8F804302A9400F35B8108F108081A9B74
:1055F80001361C44C8F80430072E24ABCDE92964D1
:10560800C8F800307FF716AD0C990A9828AA03F05D
:1056180043F900287FF499AC2A9C0DF1AC080BE5FE
:10562800B9F1100F40F35086DDE929214046CDE954
:105638001D36B84610244F460C9EA9460A9D04E024
:10564800103F102F00F1080016DD01321F4B1031FA
:10565800072AC0E90034CDE92921F1DD3146284681
:1056680028AA03F019F900287FF46FACDDE9292195
:10567800103F102F2BA8E8DC4D46DDE91D36B94652
:105688004746804609EB010401321049072ACDE953
:105698002924C8F80490C8F8001000F3C3839DF8C3
:1056A800832008F1080886E40C990A9828AA1D9313
:1056B80003F0F2F800287FF448AC2A9C1D9B0DF1FA
:1056C800AC088AE414AE000828AE000818AE00083A
:1056D8000C990A9828AA03F0DFF800287FF435AC63
:1056E8002A9C0DF1AC0889E4102D40F3C4861026DD
:1056F800299B0A9FDDF8309004E0103D102D08F139
:10570800080817DD0133B84A1034072BC8E900260A
:10571800CDE92934F1DD4946384628AA03F0BCF81A
:1057280000287FF412ACDDE92934103D102D0DF16D
:10573800AC08E7DC0133AC4A2C44072BCDE929340B
:10574800C8F80450C8F800207FF77EAC0C990A9876
:1057580028AA03F0A1F800287FF4F7AB2A9C73E489
:105768002299002940F36F83DDF84090129B9945F8
:10577800A8BF9946B9F1000F0BDD299B4C440133B2
:10578800072BC8E900592A94299300F31D8508F1CD
:105798000808109EB9F1000FA8BFA6EB0906002E55
:1057A80000F32582DDF840B07805AB4400F15F8254
:1057B800229B129A934202DBF90740F17684169AEB
:1057C80017991444C8E90012299A2A940132072A21
:1057D800299200F3138508F10808129AAE18A6EB6F
:1057E8000B06D51AAE42A8BF2E46002E0DDD299B0A
:1057F80034440133072BC8F800B0C8F804602A9471
:10580800299300F3718508F10808002EA8BFAD1B85
:10581800002D7FF711AC102D40F33C87DFF8CC91B9
:10582800224649461026B946299B0F46DDF828B07E
:105838000C9C05E008F10808103D102D40F3538337
:1058480001331032072BC8E90076CDE92932F1DDA2
:105858002146584628AA03F01FF800287FF475ABA4
:10586800DDE929320DF1AC08E6E7079B002B7FF450
:10587800FCAA5F46002354AD07930B93FFF7FDBACC
:10588800FA073FF57FAE0123299E01341E44072EF7
:10589800C8F800502A94C8F8043029967FF7A5AEB6
:1058A8000C990A9828AA02F0F7FF00287FF44DAB5C
:1058B800DDE929640DF1AC0899E6129B5D1E002D07
:1058C8007FF795AE102D40F3DF86224607974FF0FD
:1058D800100BDFF818910A9C0C9F05E008F10808E6
:1058E800103D102D40F37F8301361032072EC8E992
:1058F800009BCDE92962F1DD3946204628AA02F04D
:10590800CBFF00287FF421ABDDE929620DF1AC085B
:10591800E6E70C990A9828AA02F0BEFF00287FF44F
:1059280014AB2A9C0DF1AC08FFF774BB1BF01003F5
:105938000E9A3AD11BF0400133D052F8044B9946E5
:105948000E920123A4B2FFF7BDBA2D2364428DF84D
:105958008330BB464FF0010369EB4909FFF7B5BA3D
:105968000C990A9828AA02F097FF00287FF4EDAA5C
:10597800DDE929640DF1AC0813E60C990A9828AA08
:1059880002F08AFF00287FF4E0AADDE929640DF11E
:10599800AC0813E6FD077FF54FAB24E554ADFFF7E0
:1059A8006CBA1BF4007940F08A8352F8044B012347
:1059B8000E92FFF787BAB80500F19B834FEAE479A6
:1059C8004B46FFF740BA0E9B089853F8041BC217C2
:1059D8005546C1E900020E93FFF74CBB0E9B53F8E6
:1059E800044B0E93FFF76BBA18AE000828AE0008F8
:1059F800DDE9140102460B46FBF7DEF8002840F00B
:105A0800E985612E00F07D85412E00F08B84079B8F
:105A1800013300F08F8326F02003472B069300F014
:105A28008F85DDE9141247F480730F931346002B1A
:105A3800C0F2B0850B9300238B461D930D93069BF4
:105A4800462B00F0E983452B00F0468507990B9B10
:105A580001910221009126A9049123A9039122A969
:105A68005A460A98029100F03BFF069B0546472BD1
:105A780040F03A8617F0010FB9460F9F40F0FE84B8
:105A8800269B5B1B1293069B472B00F06E83069B9D
:105A9800462B00F0F083229B1093109B069A013B43
:105AA800412A229300F0BB850021F2B2002B8DF829
:105AB8009020B6BF2D222B22109B8DF89120B8BFC5
:105AC800C3F10103092B40F39B850DF19F0C62463E
