:020000040800F2
:10000000000001201D360008190900081B0900081E
:100010001D0900081F090008210900080000000050
:10002000000000000000000000000000230900089C
:100030002509000800000000270900082909000818
:100040006536000865360008653600086536000824
:100050006536000865360008653600086536000814
:100060006536000865360008653600086536000804
:1000700065360008653600086536000865360008F4
:1000800065360008653600086536000865360008E4
:1000900065360008653600086536000865360008D4
:1000A00065360008653600086536000865360008C4
:1000B00065360008653600086536000865360008B4
:1000C00065360008653600086536000865360008A4
:1000D0006536000831090008410900086536000846
:1000E0006536000865360008653600086536000884
:1000F0006536000865360008653600086536000874
:100100006536000865360008653600086536000863
:100110006536000865360008653600086536000853
:100120006536000865360008653600086536000843
:1001300000000000000000000000000000000000BF
:1001400000000000000000000000000000000000AF
:10015000000000000000000000000000000000009F
:10016000000000000000000000000000000000008F
:10017000000000000000000000000000000000007F
:10018000000000000000000000000000000000006F
:10019000000000000000000000000000000000005F
:1001A000000000000000000000000000000000004F
:1001B000000000000000000000000000000000003F
:1001C000000000000000000000000000000000002F
:1001D000000000000000000000000000000000001F
:0401E0005FF8E0F1F3
:1001E40010B5054C237833B9044B13B10448AFF36D
:1001F40000800123237010BD8C000020000000004B
:10020400F43F000808B5034B1BB103490348AFF39F
:10021400008008BD0000000090000020F43F0008AA
:10022400034613F8012B002AFBD1181A0138704732
:100234000FB4F0B583B008AD55F8047B0E4C4FF401
:10024400807632460021204603F044FA01952B467D
:100254003A463146204603F071FA2046FFF7E0FFA4
:100264004FF47A7382B22146044802F088FA03B04C
:10027400BDE8F04004B07047180400206801002075
:1002840072B6FEE700B597B0282200210CA803F04F
:1002940021FA00230793089309930A930B9301937C
:1002A400029303930493059306930D230C934FF445
:1002B40080320D920123109312930F930223139310
:1002C40014924FF4E01315930CA800F0D5FBC8B9B1
:1002D4000F23079302210891002309934FF48062AE
:1002E4000A920B9307A800F0F9FD68B90123019362
:1002F4004FF48073029301A800F0CCFE30B917B01C
:100304005DF804FBFFF7BCFFFFF7BAFFFFF7B8FF88
:1003140000B583B000F062FBFFF7B4FF00F044F8CF
:1003240000F074F800F0DEF800F0DEF900F038FABE
:1003340000F050FA02F0A2FD03F07EF80122134906
:10034400134802F06CFC0DF105020DF106010DF1EC
:10035400070000F053F99DF805309DF806209DF83C
:1003640007100C48FFF764FF0B4A0C490C48FFF7D1
:100374005FFF0C4803F0E2F84FF47A7003F0E8F8FA
:10038400FF28F9D003F08AF8F6E700BF180500202B
:1003940068010020284000083C400008484000084C
:1003A400544000087440000830B587B0002402941B
:1003B400039404940594134B9A6942F004029A61DD
:1003C4009A6902F004020092009A9A6942F00802C3
:1003D4009A619B6903F008030193019B0A4D22462D
:1003E4001021284601F083F810230293012303937C
:1003F40004940223059302A9284600F051FF07B094
:1004040030BD00BF001002400008014008B50B4891
:100414000B4B03600B4B436000238360C3604FF4BA
:100424008042026143618361C361036201F0B0F9F8
:1004340000B908BDFFF724FFFBE700BFA8000020B8
:1004440000540040A086010010B586B0002302933A
:100454000393049305930268114B9A4201D006B0AA
:1004640010BD104CA36943F00803A361A36903F012
:1004740008030093009BC0230293122303930323D6
:10048400059302A9084800F00BFFE36943F4001345
:10049400E361E36903F400130193019BDFE700BF09
:1004A4000054004000100240000C0140054B5B6802
:1004B40013F0200FFAD0034A536843F0100353603B
:1004C400704700BF00280040054A536823F010031A
:1004D4005360034B5B6813F0200FFAD0704700BFE2
:1004E4000028004030B589B0304A136A43F0010354
:1004F40013622E4B1B6A13F0020FFAD000240294ED
:1005040003940494059406940794012302934FF4EE
:100514008075039502A800F0BDFDADF804408DF888
:10052400064000942248234B03604FF0FF3343609E
:10053400856001F0BDFB80BB1F4B5A6845F65A230A
:100544009A4228D0FFF7B2FF1A4B00249C6047F66A
:10055400FF72DA60FFF7B8FF174B45F65A225A606C
:100564008DF804408DF805408DF80640224601A917
:100574000F4801F0B6FA98B901238DF800308DF8D0
:1005840001308DF8023000228DF8032069460848B6
:1005940001F008FB38B909B030BDFFF771FECBE7B5
:1005A400FFF76EFEE8E7FFF76BFEF4E7001002408A
:1005B400FC00002000280040006C004002680C4B46
:1005C4009A4200D0704700B583B001F0DBF8094BC4
:1005D400DA6942F00062DA61DB6903F000630193D7
:1005E400019B054B0122C3F83C2403B05DF804FBD6
:1005F400002800400010024000004242F0B587B0DD
:1006040006460D469646344B9A69DB6943EA024C2A
:10061400324BA3FB0C3C4FEA1C4C6C46304F0FCFC3
:100624000FC497E8030084E803004FF4FA6311E071
:100634002C4CA4FB0324E4094FF4C87202FB1434C9
:10064400A4B2BCB140F26D12944516D3ACEB020CCB
:1006540001339BB213F00301EAD1224AA2FB030245
:100664005209642000FB123292B2002AE0D04FF407
:10067400B772E9E74FF4B772E6E71A4AA2FB03023E
:100684005209642000FB123290B2327001B948B9A9
:10069400144AA2FB0312D2094FF4C87101FB1233AE
:1006A4009BB213B91D23ADF8023000230B2B0BD8DA
:1006B40006AA02EB430232F8182C624504D8ACEBCC
:1006C400020C0133DBB2F1E701332B700CF1010CA6
:1006D4008EF800C007B0F0BD0028004007452EC2C8
:1006E4000C4000081F85EB5108B50E480E4B036003
:1006F4004FF48273436000238360C36003614361EA
:100704004FF4007282611822C26103624362836201
:100714000A23C36201F0EAFB00B908BDFFF7B0FD8C
:10072400FBE700BF100100200030014010B586B087
:10073400002302930393049305930268164B9A4291
:1007440001D006B010BD03F560439A6942F48052AB
:100754009A619A6902F480520092009A9A6942F06E
:1007640004029A619B6903F004030193019BA02393
:1007740002930223039303230593084C02A9204602
:1007840000F08EFD4023029300230393049302A9F7
:10079400204600F085FDD4E7003001400008014008
:1007A40008B50A480A4B03604FF4E1334360002361
:1007B4008360C36003610C2242618361C36101F001
:1007C400AEFF00B908BDFFF75BFDFBE76801002041
:1007D4000038014008B50F480F4B03604FF4E13374
:1007E400436000238360C36003610C224261836120
:1007F400C36101F094FF48B90849B1F800319BB2D4
:1008040001221944034802F00AFA08BDFFF738FD33
:10081400F2E700BFB001002000440040F8010020CE
:1008240030B589B0002304930593069307930368B6
:10083400344A934204D0344A934233D009B030BD91
:10084400324B9A6942F480429A619A6902F4804276
:100854000092009A9A6942F004029A619B6903F03B
:1008640004030193019B4FF4007304930223059343
:1008740003230793264D04A9284600F011FD4FF4E5
:100884008063049300240594069404A9284600F088
:1008940007FD22462146252000F01AFF252000F0FE
:1008A4004FFFCBE7194BDA6942F40032DA61DA69B7
:1008B40002F400320292029A9A6942F004029A61A6
:1008C4009B6903F004030393039B0423049302230F
:1008D4000593032307930E4D04A9284600F0E0FC7A
:1008E4000823049300240594069404A9284600F0E0
:1008F400D7FC22460121262000F0EAFE262000F043
:100904001FFF9BE7003801400044004000100240F4
:1009140000080140FEE7FEE7FEE7FEE7FEE770475A
:100924007047704708B500F06BF808BD08B5024879
:1009340002F016F808BD00BF6801002008B502489F
:1009440002F00EF808BD00BFB001002082B00E4BCB
:100954009A6942F001029A619A6902F001020092D6
:10096400009ADA6942F08052DA61DB6903F080535D
:100974000193019B054A536823F0E06343F000733D
:10098400536002B0704700BF0010024000000140F5
:1009940010B504460E4B18784FF47A73B3FBF0F39A
:1009A4000C4A1068B0FBF3F000F0D8FE68B90F2CC5
:1009B40001D901200AE0002221464FF0FF3000F067
:1009C40087FE054B1C60002000E0012010BD00BF25
:1009D40000000020080000200400002008B5074A99
:1009E400136843F010031360032000F05FFE0F2030
:1009F400FFF7CEFFFFF7AAFF002008BD002002404A
:100A0400034A1168034B1B780B441360704700BF03
:100A1400FC02002000000020014B1868704700BF52
:100A2400FC02002038B50446FFF7F6FF0546B4F192
:100A3400FF3F02D0044B1B781C44FFF7EDFF401B23
:100A4400A042FAD338BD00BF0000002082B0084B9A
:100A54001B68084AA2FB03235B0A00FB03F3019310
:100A640000BF019B5A1E0192002BF9D102B07047BE
:100A740008000020D34D6210002800F0F18170B509
:100A840082B00446036813F0010F2CD0994B5B68C5
:100A940003F00C03042B1DD0964B5B6803F00C038E
:100AA400082B12D06368B3F5803F41D0002B55D199
:100AB40003F1804303F504331A6822F480321A6088
:100AC4001A6822F480221A6037E08A4B5B6813F4B8
:100AD400803FE7D0874B1B6813F4003F03D0636863
:100AE400002B00F0BF81236813F0020F75D0814BF7
:100AF4005B6813F00C0F5FD07E4B5B6803F00C0354
:100B0400082B54D02369002B00F08A807A4B0122F1
:100B14001A60FFF781FF0546764B1B6813F0020F3E
:100B240075D1FFF779FF401B0228F5D903209EE118
:100B3400704A136843F480331360636843B3FFF768
:100B44006BFF05466B4B1B6813F4003FCBD1FFF7DB
:100B540063FF401B6428F5D9032088E1B3F5A02F77
:100B640009D0644B1A6822F480321A601A6822F49D
:100B740080221A60E1E703F18043A3F53C331A684D
:100B840042F480221A601A6842F480321A60D4E770
:100B9400FFF742FF0546574B1B6813F4003FA2D0F2
:100BA400FFF73AFF401B6428F5D903205FE1514B5E
:100BB4005B6813F4803FA5D14E4B1B6813F0020F02
:100BC40003D02369012B40F04F814A4A136823F074
:100BD400F803616943EAC1031360236813F0080F43
:100BE40033D0A369002B5CD0434B0122C3F880248B
:100BF400FFF712FF05463F4B5B6A13F0020F21D14A
:100C0400FFF70AFF401B0228F5D903202FE1394AD8
:100C1400136823F0F803616943EAC1031360DCE756
:100C2400354B00221A60FFF7F7FE0546314B1B686F
:100C340013F0020FD1D0FFF7EFFE401B0228F5D9C5
:100C4400032014E10120FFF701FF236813F0040FD0
:100C540000F09680274BDB6913F0805F34D1254B7D
:100C6400DA6942F08052DA61DB6903F08053019360
:100C7400019B0125214B1B6813F4807F26D0E36878
:100C8400012B3DD0002B53D103F1804303F50433F2
:100C94001A6A22F001021A621A6A22F004021A6223
:100CA40033E0154B0022C3F88024FFF7B5FE054658
:100CB400104B5B6A13F0020FC7D0FFF7ADFE401B69
:100CC4000228F5D90320D2E00025D3E70B4A1368A4
:100CD40043F480731360FFF79FFE0646074B1B68BF
:100CE40013F4807FCBD1FFF797FE801B6428F5D9DE
:100CF4000320BCE0001002400000424200700040AB
:100D04005F4A136A43F001031362E36833B3FFF7E6
:100D140083FE06465A4B1B6A13F0020F2FD1FFF7CE
:100D24007BFE801B41F288339842F3D903209EE076
:100D3400052B09D0524B1A6A22F001021A621A6A70
:100D440022F004021A62E0E74D4B1A6A42F00402F0
:100D54001A621A6A42F001021A62D6E7FFF75CFED1
:100D64000646474B1B6A13F0020F08D0FFF754FEE8
:100D7400801B41F288339842F3D9032077E0E5B928
:100D8400E369002B72D03E4A526802F00C02082A32
:100D940056D0022B17D03B4B00221A66FFF73CFEBD
:100DA4000446374B1B6813F0007F47D0FFF734FE2F
:100DB400001B0228F5D9032059E0314AD36923F0F6
:100DC4008053D361DCE72F4B00221A66FFF724FE21
:100DD40005462B4B1B6813F0007F06D0FFF71CFE63
:100DE400401B0228F5D9032041E0236AB3F5803F74
:100DF4001AD023494B6823F47413226A606A0243AD
:100E040013434B601F4B01221A66FFF705FE04468D
:100E14001B4B1B6813F0007F0ED1FFF7FDFD001B79
:100E24000228F5D9032022E0154A536823F400333D
:100E3400A1680B435360DCE7002018E0002016E0B3
:100E4400012B16D00E4B5B6803F48031226A914269
:100E540011D103F47013626A93420ED1002006E0AC
:100E640001207047012002E0012000E0002002B0D0
:100E740070BD0120FBE70120F9E70120F7E700BF7F
:100E840000100240000042420F4B5B6803F00C026A
:100E9400082A01D00D487047C3F383420C49885C8B
:100EA40013F4803F0BD0084B5B68C3F34043094AFB
:100EB400D35C064A02FB00F0B0FBF3F07047064B2C
:100EC40003FB00F0704700BF0010024000127A00DC
:100ED4007C4000088C40000800093D00002800F018
:100EE400A08070B50D460446524B1B6803F00703FF
:100EF4008B420BD24F4A136823F007030B43136052
:100F0400136803F007038B4240F08D80236813F0CD
:100F1400020F17D013F0040F04D0474A536843F468
:100F2400E0635360236813F0080F04D0424A536807
:100F340043F460535360404A536823F0F003A168BC
:100F44000B435360236813F0010F31D06368012B06
:100F540020D0022B25D0384A126812F0020F64D038
:100F640035494A6822F0030213434B60FFF754FDEE
:100F74000646314B5B6803F00C036268B3EB820FE7
:100F840016D0FFF749FD801B41F288339842F0D90F
:100F9400032045E0284A126812F4003FE0D1012002
:100FA4003EE0254A126812F0007FD9D1012037E0D3
:100FB400204B1B6803F00703AB420AD91D4A136890
:100FC40023F007032B431360136803F00703AB42BA
:100FD4002DD1236813F0040F06D0174A536823F465
:100FE400E063E1680B435360236813F0080F07D0F4
:100FF400114A536823F46053216943EAC1035360DF
:10100400FFF742FF0C4B5B68C3F303130B4AD35C3B
:10101400D8400B4B18600B4B1868FFF7B9FC002045
:1010240070BD012070470120FAE70120F8E7012094
:10103400F6E700BF0020024000100240A440000870
:101044000800002004000020014B1868704700BF0E
:101054000800002008B5FFF7F7FF044B5B68C3F3F3
:101064000223034AD35CD84008BD00BF00100240ED
:10107400B440000808B5FFF7E7FF044B5B68C3F30F
:10108400C223034AD35CD84008BD00BF001002400D
:10109400B440000870B582B00446036813F0010F31
:1010A40036D03F4BDB6913F0805F49D13C4BDA69A2
:1010B40042F08052DA61DB6903F080530193019BB3
:1010C4000125384B1B6813F4807F3BD0344B1B6ADB
:1010D40013F4407313D0626802F440729A420ED043
:1010E4002F4A136A23F440702F490126C1F8406443
:1010F4000026C1F84064106213F0010F36D1284A6B
:10110400136A23F4407361680B431362002D3ED1CC
:10111400236813F0020F06D0214A536823F4404396
:10112400A1680B435360236813F0100F34D01C4A9A
:10113400536823F4800361690B43536000202CE05F
:101144000025BEE7174A136843F480731360FFF762
:1011540063FC0646134B1B6813F4807FB6D1FFF77C
:101164005BFC801B6428F5D9032016E0FFF754FCD0
:1011740006460B4B1B6A13F0020FC0D1FFF74CFC61
:10118400801B41F288339842F3D9032005E0D369E8
:1011940023F08053D361BBE7002002B070BD00BFD1
:1011A40000100240007000400000424208B50138BF
:1011B4000F2863D8DFE800F03557622F626262328D
:1011C40062626262626262082F4B5A68186810F0A9
:1011D400807054D0C2F383432C49C85C12F4803F1E
:1011E40015D0294B5B68C3F34043294AD25C294B91
:1011F400B3FBF2F303FB00F0234B5B6813F4800FA3
:101204003DD14000244BA3FB0030400837E0234B82
:1012140003FB00F0F0E7FFF737FE30E0FFF734FEA2
:101224002DE0194B1B6A40F202321A40B2F5817F5D
:1012340026D003F44073B3F5007F04D0B3F5407FA8
:1012440009D000201BE0104A526A12F0020FF5D0B8
:1012540049F6404013E00C4B186810F400300ED0EF
:101264004FF224400BE0FFF705FF074B5B68C3F325
:10127400813301335B00B0FBF3F000E0002008BDD4
:101284004FF40040FBE700BF00100240904000080C
:10129400A040000800127A00ABAAAAAA00093D00E7
:1012A40070B582B00024A446B0E0874DAA4210D0A5
:1012B40007D9864DAA420CD005F58035AA4208D03C
:1012C40013E0A5F58015AA4203D005F57025AA42BE
:1012D40007D18A68002A62D0012A5BD043610824BE
:1012E40003E0A5F58015AA42F3D0BEF1FF0F58D84C
:1012F4000646BEF1FF0F56D84FEA8C0233680F251D
:10130400954023EA050304FA02F2134333604B6861
:1013140013F0805F78D06E4B9A6942F001029A61B3
:101324009B6903F001030193019B4FEA9C02951C06
:10133400684B53F825600CF003039D000F23AB406A
:1013440026EA0306644B984233D003F5806398423F
:1013540000F0988003F58063984200F0958003F5CF
:101364008063984200F0928003F58063984200F015
:101374008F8003F58063984219D006231AE0CC6865
:10138400B3E7CC680434B0E7CC680834ADE7CC6884
:101394000C34AAE703610824A7E70024A5E7042482
:1013A400A3E7061DA5E7ACF108029200A6E7052312
:1013B40000E00023AB4033430232464D45F822306F
:1013C4004B6813F4801F65D0444A936843EA0E03C4
:1013D40093604B6813F4001F62D0404AD36843EA19
:1013E4000E03D3604B6813F4003F5FD03B4A53684D
:1013F40043EA0E0353604B6813F4803F5CD0374AD2
:10140400136843EA0E0313600CF1010C0A6832FA04
:101414000CF357D0012303FA0CF302EA030E33EA68
:101424000202F1D14A68122A3FF63FAF122A3FF670
:101434005CAF01A555F822F0D71200088313000809
:101444008D1300089F130008EF120008EF12000824
:10145400EF120008EF120008EF120008EF12000864
:10146400EF120008EF120008EF120008EF12000854
:10147400EF120008EF120008EF12000887130008AB
:1014840093130008012395E7022393E7032391E7CD
:1014940004238FE7114A936823EA0E03936098E7C5
:1014A4000E4AD36823EA0E03D3609BE70B4A5368C2
:1014B40023EA0E0353609EE7084A136823EA0E03E7
:1014C4001360A1E702B070BD0000221000003110CB
:1014D40000100240000001400008014000040140E7
:1014E4008368194201D001207047002070470AB177
:1014F4000161704709040161704790F82130DBB243
:10150400022B06D004238363002380F820300120BB
:1015140070470268136823F00E03136002681368AF
:1015240023F001031360036CC16B012202FA03F37D
:101534004B6080F82120002380F820301846704743
:1015440008B590F82130DBB2022B03D00423836367
:10155400012008BD0268136823F00E0313600268BB
:10156400136823F00103136003684C4A93424ED975
:10157400783A934224D01432934230D014329342B6
:101584002FD0143293422FD0143293422FD01432DE
:1015940093422FD0143293422FD002F562729342B9
:1015A4002ED0143293422DD0143293422CD01432C4
:1015B400934202D04FF4803203E04FF4805200E0B3
:1015C4000122374B5A60012380F82130002380F830
:1015D4002030436B002B5ED098470020B9E71022DF
:1015E400EFE74FF48072ECE74FF48052E9E74FF4F1
:1015F4008032E6E74FF48012E3E74FF08072E0E7D1
:101604000122DEE71022DCE74FF48072D9E7254A95
:10161400934224D01432934225D01432934224D0DE
:101624001432934224D01432934224D0143293427D
:1016340024D01432934224D002F56272934223D010
:101644001432934222D01432934221D01432934262
:1016540002D04FF4803203E04FF4805200E00122C4
:10166400114B5A60AFE71022FAE74FF48072F7E7A4
:101674004FF48052F4E74FF48032F1E74FF48012D4
:10168400EEE74FF08072EBE70122E9E71022E7E78B
:101694004FF48072E4E700205BE700BF8000024063
:1016A400000402400800024000000240074AD368D8
:1016B40023F4E0631B041B0C000200F4E06003430A
:1016C40043F0BF6343F40033D360704700ED00E0A0
:1016D40000B5194BDB68C3F30223C3F1070CBCF15B
:1016E400040F28BF4FF0040C03F1040EBEF1060FE3
:1016F40018D9033B4FF0FF3E0EFA0CFC21EA0C0113
:1017040099400EFA03F322EA0303194300280BDB82
:101714000901C9B200F1604000F5614080F800138E
:101724005DF804FB0023E5E700F00F000901C9B2EE
:10173400024B1954F4E700BF00ED00E014ED00E0A3
:10174400002807DB00F01F02400901239340024AEE
:1017540042F82030704700BF00E100E00138B0F1EA
:10176400807F0BD24FF0E0235861054AF02182F8C4
:1017740023100020986107221A61704701207047E6
:1017840000ED00E0014B01221A62704700000E4296
:10179400002800F0CC8070B5044690F83D30002B52
:1017A40077D0242384F83D302268136823F00103A2
:1017B40013602268136843F40043136022681368BB
:1017C40023F400431360FFF745FC62685A4B9A42C6
:1017D40064D85A4B98428CBF00230123002B40F05D
:1017E400A8805749A1FB00318B0C25686A6822F058
:1017F4003F0242EA91426A6021680A6A22F03F028B
:1018040066684D4DAE424FD8013313430B622168D5
:10181400CA6922F44F4222F0FF026668464B9E4298
:101824004CD8431E7600B3FBF6F3013340F6FC704C
:10183400034278D0C3F30B031343CB6121680B68D5
:1018440023F0C003E269206A024313430B6021685A
:101854008B6823F4034323F0FF032269E068024307
:1018640013438B602168CB6823F0FF036269A0698E
:1018740002431343CB602268136843F001031360EF
:1018840000202064202384F83D30206384F83E0047
:1018940070BD80F83C30FEF7D7FD82E7294B9842B3
:1018A4008CBF0023012399E74FF4967505FB03F3DE
:1018B400254DA5FB03539B090133A6E7A368BBB9D8
:1018C400451E06EB460CB5FBFCF50135C5F30B05CF
:1018D400B5FA85F56D0945BBC3B9013806EB460376
:1018E400B0FBF3F30133C3F30B0343F40043A3E767
:1018F400451E06EB860C0CEB8C0CB5FBFCF5013598
:10190400C5F30B05B5FA85F56D09E4E7013806EB77
:10191400860303EB8303B0FBF3F30133C3F30B033D
:1019240043F4404388E7042386E7012384E7012046
:1019340070470120ACE700BFA08601007F841E0031
:1019440083DE1B43FF083D00D34D621010B40268D0
:1019540094691FFA84FCD369916988B2844505D0DF
:10196400D06980B240EA014010BC704798B240EAA6
:101974000440F9E70368186A5B6A9BB243EA0040D3
:101984007047030903EB830300F00F0000EB4300EF
:10199400C0B2704700F5FA6C022921D801EB41036B
:1019A400C1EBC3011E4BA3FB011302EB53036344BE
:1019B40000F2CF7003EB90031A4AA2FB0020A3EBC2
:1019C400501303EBD01304331748A0FB03201A1A57
:1019D40000EB52008008C0EBC000181AC0B2704778
:1019E40001EB4103C1EBC3010D4BA3FB011302EB5C
:1019F4005303634403EB9C030A4AA2FB0C2CA3EBA2
:101A04005C1303EBDC1302330748A0FB03201A1A10
:101A140000EB52008008C0EBC000181ADEE700BFDC
:101A2400398EE3381F85EB512549922438B5044695
:101A3400FEF7F2FF054623685A6812F0200F07D11B
:101A4400FEF7EAFF401BB0F57A7FF4D9032004E0E7
:101A54005A6842F010025A60002038BD38B5044676
:101A64000268536823F010035360FEF7D5FF054660
:101A740023685B6813F0200F07D1FEF7CDFF401BEE
:101A8400B0F57A7FF4D9032000E0002038BD38B5E2
:101A940005460C46FFF7CAFF08B1012038BD2B6884
:101AA400220C9A612B68A4B2DC612846FFF7D6FFAA
:101AB4000028F3D00120F1E738B505460C46FFF7BE
:101AC400B5FF08B1012038BD2B68220C1A622B68BF
:101AD400A4B25C622846FFF7C1FF0028F3D00120BE
:101AE400F1E770B5002857D00D460646002955D0B9
:101AF400037C012B54D00123037402234374BAB929
:101B040008784B78C3EB03139C004FF4616303FB29
:101B140000448878044421463046FFF7B8FF054660
:101B2400C8B104237374002333740125284670BD9F
:101B34000878FFF726FF4FF4616400FB04F468782B
:101B4400FFF71FFFC0EB001004EB8004A878FFF739
:101B540018FF0444DFE73268536823F00503536039
:101B64003046FFF707FFB0F1FF3F01D0844204D8AD
:101B74000123737400233374D8E700F5A83101F509
:101B8400C0713046FFF798FF0028F1D00423737426
:101B9400002333740125C9E70125C7E70125C5E7FB
:101BA4000225C3E700285AD038B50D46044600295B
:101BB40057D0037C012B56D00123037402234374B2
:101BC400BAB9CB78C3734B7843738B788373A27B96
:101BD400617BE07BFFF7DEFE207328702046FFF771
:101BE400B5FE224B984211D801236374002020745F
:101BF40038BDC878FFF7C5FEE0736878FFF7C1FE0B
:101C04006073A878FFF7BDFEA073E0E7184DA5FB4D
:101C140000352D0C174B03FB150529462046FFF70D
:101C240036FF28B104236374002323740120DFE703
:101C34002046FFF79FFEB0F1FF3FD5D08542D3D9B0
:101C440000F5A83101F5C0712046FFF735FF0028E3
:101C5400CAD004236374002323740120C8E701203D
:101C640070470120C4E70220C2E700BF8F5F010074
:101C740007452EC280510100C0B138B5054602683F
:101C8400536823F008035360FEF7C6FE04462B682E
:101C94005B6813F0080F07D1FEF7BEFE001BB0F51A
:101CA4007A7FF4D9032000E0002038BD012070477A
:101CB400002850D010B50446437C4BB10223637412
:101CC4002046FFF7D9FF38B104236374012010BD07
:101CD4000374FEF773FCF1E72046FFF7A7FE28BB69
:101CE4002268536823F007035360A36823B11B4A97
:101CF400136B23F001031363184AD36A23F460734C
:101D0400A1680B43D3626368B3F1FF3F12D022682A
:101D1400C3F30341916022689BB2D3602046FFF76E
:101D24009DFE88B1042363740120D0E70423637407
:101D34000120CCE70120FFF739FA08B1431EE6E79A
:101D4400042363740120C2E70023E3730123637354
:101D5400A3736374BBE70120704700BF006C0040AD
:101D64002DE9F04782B00546884617461E46FEF721
:101D740053FE0A9B1B1A03EB0609FEF74DFE82462F
:101D84002B4B1B68C3F3CB3309FB03F301932B6881
:101D94009C6838EA04030CBF4FF0010C4FF0000CB0
:101DA400BC4540D0B6F1FF3FF1D0FEF735FEA0EBC5
:101DB4000A0048450AD2B9F1000F07D0019A02B1CE
:101DC4004A46019B013B01939146E0E72A68536828
:101DD40023F0E00353606B68B3F5827F0BD0AB6AEA
:101DE400B3F5005F14D0012385F85130002385F842
:101DF4005030032018E0AB68B3F5004F02D0B3F5C0
:101E0400806FECD12A68136823F040031360E6E77F
:101E14002A68136823F4005313602A68136843F490
:101E240000531360DFE7002002B0BDE8F08700BF75
:101E34000800002070B582B006460C461546009294
:101E44000B4601220221FFF78BFF48B90095234678
:101E5400002280213046FFF783FF38B902B070BDFD
:101E6400736D43F0200373650320F7E7736D43F04C
:101E7400200373650320F1E710B582B004460B46D6
:101E84004168B1F5827F10D06168B1F5827F03D1DA
:101E9400A168B1F5806F15D0009200228021204600
:101EA400FFF75EFFE0B902B010BD8168B1F5004FE5
:101EB40002D0B1F5806FE7D12068016821F04001BC
:101EC4000160E1E70092002201212046FFF748FF6C
:101ED4000028E8D0636D43F0200363650320E2E744
:101EE400636D43F0200363650320DCE7002856D0CC
:101EF40010B50446436A33B94368B3F5827F05D00D
:101F04000023C36102E00023036143610023A36251
:101F140094F85130002B3CD0022384F851302268CD
:101F2400136823F040031360636803F48273A268A8
:101F340002F404421343E26802F400621343226988
:101F440002F002021343626902F001021343A26920
:101F540002F400721343E26902F038021343226A66
:101F640002F080021343A26A02F400522168134370
:101F74000B60638B226803F0040353602268D36907
:101F840023F40063D36100206065012384F8513099
:101F940010BD84F850302046FEF7C8FBBCE7012092
:101FA40070472DE9F04383B00446894690461D46A8
:101FB400FEF732FD94F85160F6B2012E40F0CC8069
:101FC4000746B9F1000F00F0C880B8F1000F00F027
:101FD400C48094F85030012B00F0C380012384F8AE
:101FE4005030032384F8513000236365C4F83090E3
:101FF400A4F83480A4F83680A363A387E3876364DA
:102004002364A368B3F5004F1ED023681A6812F046
:10201400400F03D11A6842F040021A60E368B3F536
:10202400006F1CD0636813B1B8F1010F5FD1226B4C
:10203400236812781A73236B01332363E38E9BB2F4
:10204400013B9BB2E38652E02268136823F040030D
:1020540013602268136843F480431360D5E7636810
:1020640013B1B8F1010F15D1226B23681288DA601D
:10207400236B02332363E38E9BB2013B9BB2E38663
:1020840008E0FEF7C9FCC01BA84202D3B5F1FF3F2C
:1020940015D1A5B1E38E9BB2002B42D023689A6878
:1020A40012F0020FEDD0226B1288DA60236B023338
:1020B4002363E38E9BB2013B9BB2E386EAE70123F1
:1020C40084F85130002384F85030032645E0226B15
:1020D40012781A73236B01332363B4F836C01FFAE2
:1020E4008CFC0CF1FF3C1FFA8CFCA4F836C0E38E88
:1020F4009BB2B3B123689A6812F0020FE7D1FEF7DE
:102104008BFCC01BA84202D3B5F1FF3F01D1002DC7
:10211400EDD1012384F85130002384F85030032694
:102124001BE03A4629462046FFF784FE08B12023E7
:102134006365A36833B901932368DA6801929B68E5
:102144000193019B012384F85130002384F850301B
:10215400636D13B9002600E00226304603B0BDE8E3
:10216400F0830226F9E72DE9F04383B0044688465C
:1021740091461F460A9DFEF74FFC064694F85130DF
:10218400DBB26268012B0AD0B2F5827F40F0058190
:10219400A268002A40F00581042B40F00481B8F1C4
:1021A400000F00F00281B9F1000F00F00081002F50
:1021B40000F0FF8094F85030012B00F0FC800123E4
:1021C40084F8503094F85130DBB2042B02D005234C
:1021D40084F8513000236365C4F83890E787A787F3
:1021E400C4F83080E786A7862364636423681A688A
:1021F40012F0400F03D11A6842F040021A60E368FB
:10220400B3F5006F11D063680BB1012F0BD1226BB2
:10221400236812781A73236B01332363E38E9BB212
:10222400013B9BB2E386012771E063680BB1012F88
:102234000BD1226B23681288DA60236B0233236389
:10224400E38E9BB2013B9BB2E38601271BE023682C
:102254009A6812F0010F0ED0E28F92B25AB1DA6886
:10226400A36B1A80A36B0233A363E38F9BB2013B7E
:102274009BB2E3870127FEF7CFFB801BA84202D362
:10228400B5F1FF3F1ED1E38E9BB21BB9E38F9BB226
:10229400002B62D023689A6812F0020FD7D0E28E26
:1022A40092B2002AD3D0002FD1D0226B1288DA60E8
:1022B400236B02332363E38E9BB2013B9BB2E38621
:1022C4000027C4E7012384F85130002384F85030F8
:1022D400032063E023689A6812F0010F0ED0E28FA6
:1022E40092B25AB1DA68A36B1A70A36B0133A36379
:1022F400E38F9BB2013B9BB2E3870127FEF78CFB84
:10230400831BAB4202D3B5F1FF3F1ED1EDB1E38E87
:102314009BB213B9E38F9BB2FBB123689A6812F0A6
:10232400020FD7D0E28E92B2002AD3D0002FD1D0A0
:10233400226B12781A73236B01332363E38E9BB2EF
:10234400013B9BB2E3860027C4E7012384F85130A4
:10235400002384F85030032020E0324629462046EA
:10236400FFF768FD90B9A36833B901932368DA686D
:1023740001929B680193019B012384F8513000234F
:1023840084F85030636D4BB1012007E0202363656E
:10239400002384F85030012000E0022003B0BDE89F
:1023A400F0830220FAE70220F8E70120F6E7012093
:1023B400F4E70120F2E70220F0E72DE9F04383B0CF
:1023C40090F85160F6B2012E40F0B480044689467C
:1023D40090461D464368B3F5827F01D1836893B369
:1023E400FEF71AFB0746B9F1000F00F0A480B8F11C
:1023F400000F00F0A08094F85030012B00F09F8073
:10240400012384F85030042384F851300023636599
:10241400C4F83890A4F83C80A4F83E802363A386D3
:10242400E38623646364A368B3F5004F15D023687F
:102434001A6812F0400F03D11A6842F040021A6081
:10244400E368F3B143E0042380F851300095134668
:102454000A46FFF788FE06466DE02268136823F0FB
:10246400400313602268136823F480431360DEE79B
:10247400FEF7D2FAC01BA84202D3B5F1FF3F15D133
:10248400A5B1E38F9BB2002B42D023689A6812F067
:10249400010FEDD0A26B1B7B1370A36B0133A363FD
:1024A400E38F9BB2013B9BB2E387EAE7012384F805
:1024B4005130002384F8503003263CE0FEF7ACFA98
:1024C400C01BA84202D3B5F1FF3F19D1C5B1E38FB8
:1024D4009BB2EBB123689A6812F0010FEED0DA6870
:1024E400A36B1A80A36B0233A363B4F83EC01FFA34
:1024F4008CFC0CF1FF3C1FFA8CFCA4F83EC0E6E710
:10250400012384F85130002384F85030032612E06C
:102514003A4629462046FFF7AFFC08B120236365FD
:10252400012384F85130002384F85030636D13B9CB
:10253400002600E00226304603B0BDE8F083022600
:10254400F9E7026802F10C0353E8003F23F49073A7
:102554000C3242E800310029F3D1026802F114037D
:1025640053E8003F23F00103143242E8003100290C
:10257400F3D1036B012B05D0202380F842300023D4
:1025840003637047026802F10C0353E8003F23F031
:1025940010030C3242E800310029F3D1ECE790F843
:1025A4004130DBB2212B01D0022070478368B3F5A0
:1025B400805F17D0036A5A1C02621A7803685A6053
:1025C400C38C9BB2013B9BB2C3844BB90268D368F2
:1025D40023F08003D3600268D36843F04003D360E0
:1025E400002070470369002BE4D1036A1B8802684A
:1025F400C3F308035360036A02330362E0E7000095
:1026040010B504460268136923F44053C1680B43B0
:10261400136183680269134342691A430168CB68F2
:1026240023F4B05323F00C031343CB6002685369C3
:1026340023F4407381690B4353610268134B9A423C
:1026440020D0FEF707FD024602EB820202EB820273
:1026540063689B00B2FBF3F20D48A0FB0231490909
:10266400642303FB11231B013233A0FB03235B0907
:1026740003F0F00202EB011203F00F03216813448C
:102684008B6010BDFEF7F6FC0246DDE70038014022
:102694001F85EB512DE9F04383B005460E461746DE
:1026A4009946DDF828802C68246836EA04030CBFB8
:1026B4004FF0010C4FF0000CBC4528D1B8F1FF3F9E
:1026C400F1D0FEF7A9F9A0EB0900404523D8B8F1F1
:1026D400000F22D02B68DA6812F0040FE3D0802EAA
:1026E400E1D0402EDFD01A6812F0080FDBD00024AE
:1026F40001941A6801925B680193019B2846FFF7D5
:1027040020FF08236B6485F84040012000E000208E
:1027140003B0BDE8F0830320FAE70320F8E760B3D1
:1027240010B5044690F8413013B3242384F84130A3
:102734002268D36823F40053D3602046FFF760FF78
:102744002268136923F4904313612268536923F0C8
:102754002A0353612268D36843F40053D3600020F2
:102764006064202384F8413084F84230606310BDF3
:1027740080F84030FEF754F8D7E7012070472DE980
:10278400F04182B01E4690F84130DBB2202B56D186
:1027940004460D469046002955D00AB901204FE061
:1027A40000234364212380F84130FEF735F90746BE
:1027B400A4F82480A4F82680A368B3F5805F02D02F
:1027C4004FF0000814E023692BB34FF000080FE02A
:1027D400202384F84130032032E038F8023B226899
:1027E400C3F308035360E28C92B2013A92B2E284DA
:1027F400E38C9BB293B100963B4600228021204695
:10280400FFF748FF0028E3D1002DE6D015F8012B8F
:1028140023685A60E7E7A8460025E9E700963B46A7
:10282400002240212046FFF735FF18B9202384F801
:10283400413005E0202384F84130032000E00220E9
:1028440002B0BDE8F0810120FAE7704708B50168DD
:10285400CA6822F04002CA60202280F84120FFF7B3
:10286400F4FF002008BD704708B5406A0023C38503
:10287400C384FFF7F8FF08BD704790F84230DBB21D
:10288400222B69D18368B3F5805F4FD0826AB3F598
:10289400805F04D0002B56D10369002B53D1036809
:1028A4005B681370836A01338362C38D9BB2013BFF
:1028B4009BB2C385002B51D100B583B00268D368A5
:1028C40023F02003D3600268D36823F48073D360B9
:1028D4000268536923F001035361202380F84230D6
:1028E40000234363036B012B33D10023036302688A
:1028F40002F10C0353E8003F23F010030C3242E8CA
:1029040000310029F3D103681A6812F0100F06D0C1
:10291400002201921A6801925B680193019B818DE8
:10292400FFF7AAFF002003B05DF804FB0269002A48
:10293400ACD1826A03685B68C3F308031380836ABB
:1029440002338362B1E703685B6803F07F031370AB
:10295400A8E700F017FDE5E7022070470020704764
:1029640030B583B0044602681368D068516913F027
:102974000F0505D113F0200F02D010F0200F19D14C
:102984002DB111F0010119D110F4907F16D1216BF2
:1029940001297DD013F0800F03D010F0800F40F098
:1029A400188113F0400F03D010F0400F40F0158150
:1029B40003B030BD2046FFF760FFF9E713F0010FC5
:1029C40006D010F4807F03D0626C42F0010262648E
:1029D40013F0040F04D019B1626C42F00202626475
:1029E40013F0020F04D019B1626C42F00402626465
:1029F40013F0080F07D010F0200F00D119B1626C4A
:102A040042F008026264626C002AD1D013F0200FF5
:102A140002D010F0200F29D123685B6903F0400332
:102A2400626C12F0080F00D163B32046FFF789FDF2
:102A340023685B6913F0400F20D0226802F114036D
:102A440053E8003F23F04003143242E800310029E8
:102A5400F3D1E36B73B1634A5A63E06BFEF770FD25
:102A64000028A5D0E06B436B9847A1E72046FFF709
:102A740004FFD1E72046FFF7F6FE99E72046FFF76B
:102A8400F2FE95E72046FFF7EEFE002363648FE72E
:102A940013F0100F3FF47EAF10F0100F3FF47AAF35
:102AA400002301931368019353680193019B5369B5
:102AB40013F0400F51D0E26B13685B689BB2002B9C
:102AC4003FF476AFA18D99427FF672AFE3859369A7
:102AD400202B37D0226802F10C0353E8003F23F483
:102AE40080730C3242E800310029F3D1226802F1EC
:102AF400140353E8003F23F00103143242E8003189
:102B04000029F3D1226802F1140353E8003F23F0B3
:102B14004003143242E800310029F3D1202384F821
:102B2400423000232363226802F10C0353E8003F80
:102B340023F010030C3242E800310029F3D1E06B9A
:102B4400FEF7DBFC02236363A18DE38D9BB2C91AFC
:102B540089B22046FFF790FE2AE7A18DE38D9BB250
:102B6400C91A89B2E38D9BB2002B3FF421AF00292F
:102B74003FF41EAF226802F10C0353E8003F23F434
:102B840090730C3242E800300028F3D1226802F13D
:102B9400140353E8003F23F00103143242E80030E9
:102BA4000028F3D1202384F84230002323632268D1
:102BB40002F10C0353E8003F23F010030C3242E807
:102BC40000300028F3D1022363632046FFF754FE4C
:102BD400EEE62046FFF7E3FCEAE62046FFF736FE82
:102BE400E6E600BF6D28000881628285C285002365
:102BF4004364222380F84230036923B10268D36816
:102C040043F48073D3600268536943F00103536152
:102C14000268D36843F02003D3600020704708B5EE
:102C240090F84230DBB2202B08D149B10AB9012017
:102C340008BD00230363FFF7D7FFF9E70220F7E796
:102C44000120F5E77047000010B503460C4A0D4912
:102C54000D48006840B10C4800680344521A93427E
:102C640006D8094A136010BD0748084C0460F2E70F
:102C740000F0F8FC0C2303604FF0FF30F3E700BFD3
:102C840000000120000400000003002030050020A3
:102C940008B528B10C4B01221A700B4B187808BDEB
:102CA40000F0E2F9094B984207D04EF616739842A9
:102CB40003D0054B01221A70EFE7034A137803F09F
:102CC400FE031370E9E700BF0C0000201740EF007B
:102CD40008B530B10B4B01221A700A4B1878C0B2F8
:102CE40008BD00F017FB28B1064B01221A701878B2
:102CF400C0B2F5E70020FFF7CBFF024B18701B783A
:102D0400EBE700BF0C000020D8B970B50D4616469D
:102D14001C46C1B1CBB1FFF7BBFF10F0010F16D1B8
:102D2400B6F5006F15D2A319B3F5006F01D90120D0
:102D34000CE022032946300300F048FA30B10120A8
:102D440004E004207047042000E0042070BD032048
:102D5400FCE70120FAE770B598BB0E461446FFF76E
:102D640097FF10F001052FD144B1092E2ED8DFE8CA
:102D740006F0090D11152D2D2D2D2D18002EF4D032
:102D840004251FE000F00CF935461BE04FF4006306
:102D9400236017E04FF48053238013E00123236062
:102DA40010E0266800E001366368B34206D3B6F546
:102DB400006FF8D2300300F057FAF4E700F0F0F8AF
:102DC40000E00425284670BD0325FBE70425F9E748
:102DD4002DE9F84FD0BB0D4617461E46C9B3DBB3E9
:102DE400FFF756FF10F001083BD1B7F5006F3BD257
:102DF400F319B3F5006F3AD84FF0000B03E000F07D
:102E0400CFF80BF1010BB3451AD20BEB07094FEACC
:102E140009394FEA0B3A484600F026FA0024B4F583
:102E2400805FECD20AEB04014FF48072294404EB76
:102E3400090000F063F9E8B904F58074A4B2EEE780
:102E440000221146104600F035F807E04FF0040860
:102E540004E04FF0040801E04FF004084046BDE8E8
:102E6400F88F4FF00308F9E74FF00108F6E74FF049
:102E74000108F3E74FF00108F0E7000008B508493E
:102E8400084800F04DF8084B187018B90748FDF7CA
:102E9400CFF908BD01460648FDF7CAF9F9E700BFB6
:102EA400240000201000002004030020E04000085B
:102EB400BC40000810B5044B03EB8004646824692B
:102EC4000344187AA04710BD08030020134B5B7A13
:102ED400DBB2012B01D90120704710B404460F4B1B
:102EE40093F809C05FFA8CFC002003F80C0093F8F7
:102EF40009C003EB8C0CCCF804405C7A1C442272AD
:102F04005A7A541CE4B25C7230320A703A234B7021
:102F14002F238B70C87010BC704700BF08030020BB
:102F240008B50022FFF7D2FF08BD000000B583B04A
:102F340005238DF8073000228DF80620102116484D
:102F4400FEF7D5FA4FF47A7301220DF10701134805
:102F5400FFF727F890B94FF47A7301220DF10601B7
:102F64000E48FFF72AFA80B9012210210A48FEF719
:102F7400BEFA9DF8060003B05DF804FB012210219F
:102F84000548FEF7B4FAFF20F5E7012210210248B4
:102F9400FEF7ADFAFF20EEE7000801401001002023
:102FA40038B54CF25034FFF7C1FF10F0010F07D0D1
:102FB400651E24B10120FDF735FD2C46F3E72C46B0
:102FC400B4FA84F0400938BD10B582B006238DF8F8
:102FD4000730002210210E48FEF789FA4FF47A7365
:102FE40001220DF107010B48FEF7DBFF40B904464F
:102FF400012210210648FEF77AFA204602B010BDDD
:10300400012210210248FEF772FA0124F5E700BFFD
:10301400000801401001002010B582B004238DF88F
:103024000730002210210E48FEF761FA4FF47A733C
:1030340001220DF107010B48FEF7B3FF40B9044626
:10304400012210210648FEF752FA204602B010BDB4
:10305400012210210248FEF74AFA0124F5E700BFD5
:10306400000801401001002000B583B09F238DF8B3
:1030740007301F4B1B88ADF8043000228DF8062062
:1030840010211C48FEF733FA4FF47A7301220DF134
:1030940007011948FEF785FFC8B94FF47A73032274
:1030A40001A91548FFF789F9C8B90122102111486F
:1030B400FEF71DFA9DF804309DF80500000240EA71
:1030C40003409DF80630184303B05DF804FB012269
:1030D40010210848FEF70BFA4FF0FF30F4E7012205
:1030E40010210448FEF703FA4FF0FF30ECE700BF6D
:1030F40024400008000801401001002030B583B0CE
:1031040002238DF80430030C8DF80530030A8DF882
:1031140006308DF8070000294BD014460D46002ACE
:1031240049D0B2F5807F4AD8B0F5000F01D301240D
:1031340042E0FFF749FF08B101243DE000221021DD
:1031440000F1804000F58430FEF7D1F94FF47A7332
:1031540004220DEB02011B48FEF723FF98B94FF43C
:103164007A73224629461748FEF71BFFA0B90122AD
:1031740010211548FEF7BBF9FFF712FF0446A0B96A
:10318400FFF74AFF18E0012210210F48FEF7AFF9BC
:10319400FFF742FF01240FE0012210210A48FEF745
:1031A400A6F9FFF739FF012406E0FFF735FF0124F4
:1031B40002E0012400E00124204603B030BD0124D4
:1031C400FAE700BF100100200008014030B583B0C9
:1031D40003238DF80430030C8DF80530030A8DF8B1
:1031E40006308DF80700A1B314460D469AB3104477
:1031F4000138B0F5000F01D301242DE00022102185
:103204001748FEF774F94FF47A7304220DEB0201A8
:103214001448FEF7C6FE70B94FF47A73A2B2294679
:103224001048FFF7CAF8044660B9012210210C487F
:10323400FEF75DF910E0012210210948FEF757F965
:10324400012409E0012210210548FEF750F9012468
:1032540002E0012400E00124204603B030BD00BF99
:10326400000801401001002030B583B020238DF800
:103274000430030C8DF80530030A8DF806308DF800
:103284000700B0F5000F03D30125284603B030BD75
:103294000446FFF799FE08B10125F6E70022102144
:1032A40000F1804000F58430FEF721F94FF47A7381
:1032B40004220DEB02011548FEF773FEB0B901229A
:1032C40010211348FEF713F9FFF76AFE0546B0B95B
:1032D40001220DF103012046FFF778FF9DF803302A
:1032E400FF2B10D0FFF798FE0125CEE70122102115
:1032F4000748FEF7FCF8FFF78FFE0125C5E7FFF747
:103304008BFE0125C1E7FFF787FEBEE71001002011
:103314000008014030B583B0FFF7A6FE164B984273
:1033240003D04EF61673984223D1FFF7FFFD10F039
:10333400020001D103B030BDFFF746FE0F4C00225E
:1033440010212046FEF7D3F80125ADF804504FF4C0
:103354007A73022201A90A48FEF723FE2A461021A5
:103364002046FEF7C4F8FFF71BFEFFF755FE0020CA
:10337400E0E70120DEE700BF1740EF00000801404E
:103384001001002010B504460268224B9A4204D072
:103394002268214B9A4221D010BD204B1B88FF2B61
:1033A40009D81F4A127832B9591C1C4A11801D4A87
:1033B40011781D4AD154194B1B88FF2B05D8194B82
:1033C4001B780D2B01D00A2B02D1154B01221A7048
:1033D400012214491548FFF722FCD9E71449B1F832
:1033E40000319BB201335A42DBB2D2B258BF5342CE
:1033F4009BB2B1F8022192B29A4201D0A1F80031F5
:103404000B49B1F800319BB2012219440948FFF776
:1034140006FCC1E700380140004400401A050020C2
:103424001403002018050020180300206801002060
:10343400F8010020B0010020F0B587B00024029408
:10344400039404940594134B9A6942F008029A6118
:103454009B6903F008030193019B4FF40057029703
:10346400012503950495032305930B4E02A93046C9
:10347400FDF716FF4FF4804302930394049502A9C9
:103484003046FDF70DFF2A4639463046FEF72FF841
:1034940007B0F0BD00100240000C014038B50546ED
:1034A40000224FF400512248FEF721F8214B1B68FB
:1034B400214AA2FB03239B0C682202FB03F301E0D5
:1034C40000BF13465A1E002BFAD1002406E000BFA9
:1034D40013465A1E002BFAD10134E4B2072C11D83A
:1034E40005F001024FF400511148FEF700F86D0891
:1034F400104B1B68104AA2FB03239B0C682202FB9F
:1035040003F3E6E701224FF400510948FDF7EFFF0A
:10351400084B1B68084AA2FB03239B0C682202FB8E
:1035240003F301E000BF13465A1E002BFAD138BD45
:10353400000C01400800002083DE1B4310B5044644
:1035440002E00134FFF7AAFF20780028F9D110BD6A
:10355400F8B5064600244FF480412C48FDF7C0FF1F
:10356400074628B10134A642F5D2FF273846F8BDF4
:1035740072B6274B1B68274AA2FB03239B0C6822C5
:1035840002FB03F301E000BF13465A1E002BFAD1DD
:103594001F4B1C681F4BA3FB0434A40C342303FBF4
:1035A40004F401E000BF1C46631E002CFAD13D4622
:1035B4000BE00123AB401F43FFB20FE000BF1346F3
:1035C4005A1E002BFAD10135EDB2072D10D84FF455
:1035D40080410E48FDF784FF0128EAD00C4B1B689C
:1035E4000C4AA2FB03239B0C682202FB03F3E7E7CC
:1035F40062B64FF480410548FDF772FF0028B5D14B
:103604000134B442F5D9FF27B0E700BF000C0140F4
:103614000800002083DE1B43FFF714FB0B480C4912
:103624000C4A002302E0D458C4500433C4188C421A
:10363400F9D3094A094C002301E013600432A24281
:10364400FBD300F015F8FCF763FE70470000002080
:103654008C000020444100088C0000202C05002030
:10366400FEE70000014B1868704700BF28000020E7
:1036740070B500260C4D0D4C641BA410A64209D154
:1036840000F0B6FC00260A4D0A4C641BA410A642A6
:1036940005D170BD55F8043B98470136EEE755F85F
:1036A400043B98470136F2E73C4100083C410008DE
:1036B4003C410008404100080A44914200F1FF33B4
:1036C40000D1704710B511F8014B914203F8014F36
:1036D400F9D110BD03460244934200D1704703F868
:1036E400011BF9E730B51446002C05461A469BB079
:1036F40005DA8B2303604FF0FF301BB030BD4FF46D
:103704000273ADF80C300CBF234604F1FF3302936F
:1037140005934FF6FF7300910491ADF80E3069469E
:103724001E9B00F075F8431CBCBF8B232B60002C40
:10373400E3D00022009B1A70DFE7000007B5009376
:1037440013460A46014603480068FFF7CBFF03B05F
:103754005DF804FB280000202DE9F0478E688246BE
:103764009E420C4690461F4638D88A8912F4906FC0
:1037740032D0256809690133A5EB010965694B4419
:1037840005EB450505EBD5756D109D4238BF1D460B
:10379400530531D5294600F061FB064650B90C2388
:1037A4004FF0FF30CAF80030A38943F04003A381EF
:1037B400BDE8F0874A462169FFF77EFFA38923F419
:1037C400906343F08003A38126614E4426603E4605
:1037D4006561A5EB0905A560BE4200D93E463246A7
:1037E4004146206800F0B8FAA36800209B1BA36040
:1037F400236833442360DBE72A4600F0A3FB064634
:103804000028E1D15046216900F0C0FAC7E7000062
:103814002DE9F04F98468B8907461B060D46144642
:103824009DB00ED50B6963B9402100F017FB2860E9
:10383400286120B90C233B604FF0FF30D1E04023D6
:103844006B610023099320238DF8293030234FF036
:103854000109CDF80C80DFF8A4818DF82A302346C5
:103864009A4613F8012B0AB1252AF9D1BAEB040BB5
:103874000BD05B46224629463846FFF76DFF0130E0
:1038840000F0AA80099A5A4409929AF80030002B51
:1038940000F0A28000234FF0FF32CDE905230AF1A6
:1038A400010A049307938DF853301A935446052262
:1038B40014F8011B514800F041FA049AD8B9D00613
:1038C40044BF20238DF85330110744BF2B238DF8B8
:1038D40053309AF800302A2B15D0544600204FF06C
:1038E4000A0C079A214611F8013B303B092B4ED9AB
:1038F400B0B1079214E0A0EB080309FA03F31343F1
:10390400A2460493D2E7039B191D1B680391002B65
:10391400BBBF5B4242F0020207930793B8BF049215
:1039240023782E2B0CD163782A2B35D1039B0234B8
:103934001A1D1B680392002BB8BF4FF0FF33059389
:10394400DFF8BCA003225046217800F0F7F940B11B
:103954004023A0EB0A0003FA00F0049B0134034364
:10396400049314F8011B062226488DF8281000F051
:10397400E5F9002838D0244B1BBB039B073323F005
:10398400070308330393099B3344099367E70C4601
:1039940001200CFB0232A5E700234FF00A0C194664
:1039A40001340593204610F8012B303A092A03D933
:1039B400002BC5D00591C3E7044601230CFB01216C
:1039C400F0E703AB00932A463846104B04A9AFF343
:1039D4000080421C0646D6D1AB895B063FF52CAF6E
:1039E40009981DB0BDE8F08F03AB00932A46384612
:1039F400064B04A900F07CF8EBE700BF084100087F
:103A04000E41000812410008000000005D37000864
:103A14002DE9F047164699468A680B690746934292
:103A2400B8BF1346336091F843200C46DDF820807C
:103A34000AB1013333602368990642BF3368023305
:103A44003360256815F0060506D104F1190AE36808
:103A540032689B1AAB4228DC94F84320131E226878
:103A640018BF012392062DD44946384604F1430277
:103A7400C047013020D02368E56803F00603042B17
:103A840018BF002532684FF00006A36808BFAD1ABE
:103A9400226908BF25EAE5759342C4BF9B1AED1855
:103AA4001A34B5421AD1002008E00123524649468F
:103AB4003846C047013003D14FF0FF30BDE8F087EE
:103AC4000135C4E73020E11881F843005A1C94F80A
:103AD40045102244023382F84310C5E701232246ED
:103AE40049463846C0470130E6D00136D9E70000E0
:103AF4002DE9FF470F7E9146782F80460C469A4663
:103B04000C9D01F1430207D8622F0AD8002F00F060
:103B1400D980582F00F0A48004F1420584F8427043
:103B24003AE0A7F16303152BF6D801A151F823F06D
:103B34008D3B0008A13B00081D3B00081D3B00080D
:103B44001D3B00081D3B0008A13B00081D3B00086D
:103B54001D3B00081D3B00081D3B0008AF3C00084E
:103B6400D13B0008913C00081D3B00081D3B0008A8
:103B7400D13C00081D3B0008D13B00081D3B000858
:103B84001D3B0008993C00082B681A1D1B682A601D
:103B940004F1420584F842300123A4E02068296836
:103BA400060601F104030AD50E682B60002E03DA21
:103BB4002D23764284F843300A235E4819E00E68C8
:103BC40010F0400F2B6018BF36B2EFE72B68206867
:103BD400191D2960010601D51E6802E04606FBD5C1
:103BE4001E886F2F0CBF08230A235248002184F833
:103BF40043106568002DA8BF2168A560A4BF21F00B
:103C0400040121600EB9002D4DD01546B6FBF3F129
:103C140003FB1167C75D05F8017D3746BB420E46BD
:103C2400F4D9082B0BD12368DE0708D52369616812
:103C34009942DEBF302305F8013C05F1FF35521BE4
:103C440022614B4621464046CDF800A003AAFFF767
:103C5400DFFE01304CD14FF0FF3004B0BDE8F087F7
:103C6400344881F845702968236851F8046B296049
:103C74001D0614D5DF0744BF43F0200323601EB99B
:103C8400236823F0200323601023AFE7236843F065
:103C9400200323607823284884F84530E3E7590655
:103CA40048BFB6B2E6E71546BBE72B682668181D81
:103CB4006169286035061B6801D5196002E0700649
:103CC400FBD51980002315462361BAE72B68002130
:103CD4001A1D2A601D686268284600F02FF808B192
:103CE400401B606063682361002384F84330A8E7C5
:103CF4002A46494640462369D0470130ABD0236861
:103D04009B0713D4E068039B9842B8BF1846A4E706
:103D14000123324649464046D04701309BD0013505
:103D2400E36803995B1AAB42F2DCEBE7002504F18C
:103D34001906F5E7194100082A410008034610B5A1
:103D4400C9B202449342184601D1002003E004782A
:103D540001338C42F6D110BD884210B501EB020448
:103D640002D98442234607D8431EA14208D011F841
:103D7400012B03F8012FF8E7014602448A4200D1DF
:103D840010BD13F8014D02F8014DF7E738B50546AB
:103D9400002940D051F8043C0C1F002BB8BFE41894
:103DA40000F010F91C4A136833B9636014602846A4
:103DB400BDE8384000F00CB9A34208D920682118A6
:103DC4008B4201BF19685B6809182160EDE71A4648
:103DD4005B680BB1A342FAD911685018A0420BD109
:103DE40020680144501883421160E0D118685B6870
:103DF400014411605360DAE702D90C232B60D6E743
:103E0400206821188B4201BF19685B68091821607A
:103E140063605460CBE738BD1C05002070B50E4EBE
:103E24000C463168054611B900F0BCF830602146F3
:103E3400284600F0B7F8431C0AD0C41C24F003043D
:103E4400A04207D0211A284600F0ACF8013001D175
:103E54004FF0FF34204670BD200500202DE9F041CD
:103E6400CD1C25F0030508350C2D38BF0C25002D7D
:103E7400074601DBA94205D90C2300263B603046E6
:103E8400BDE8F0812E4E00F09DF833681C4634BB2B
:103E940029463846FFF7C2FF431C04464DD1346817
:103EA4002646002E40D123683146384604EB0308E9
:103EB40000F078F880453AD1216803356D1A25F071
:103EC400030508350C2D38BF0C2538462946FFF765
:103ED400A5FF01302BD023682B4423600EE0226819
:103EE400521B1ED40B2A16D96119A342256018BF90
:103EF4005960636808BF316062514B60384604F111
:103F04000B0600F065F826F00706231DF21AB6D05A
:103F14009B1BA350B3E76268A3420CBF32605A6094
:103F2400ECE723466468B2E734467668B9E70C23C5
:103F340038463B6000F04CF8A1E72560DEE700BF9F
:103F44001C0500202DE9F041804614460E4621B997
:103F54001146BDE8F041FFF781BF2AB9FFF716FF0C
:103F640025462846BDE8F08100F038F8844207462B
:103F740002D8B4EB500F12D821464046FFF76EFF2B
:103F840005460028EDD0BC422246314628BF3A46B9
:103F9400FFF792FB31464046FFF7F8FEE1E735466E
:103FA400DFE7000038B50023054D044608462B60C2
:103FB400FEF74AFE431C02D12B6803B1236038BDCF
:103FC40024050020014800F011B800BF2805002096
:103FD400014800F00CB800BF2805002051F8043C4B
:103FE400181F002BBCBF0B58C01870477047704790
:103FF400F8B500BFF8BC08BC9E467047F8B500BFD2
:08400400F8BC08BC9E467047A1
:10400C001F001C001F001E001F001E001F001F00B1
:10401C001E001F001E001F0000000000525443CA67
:10402C00B1BCE4A3BA25642D25642D25640A0000D7
:10403C0031313A30343A3432000000004D61722094
:10404C0032362032303236003D3D3D3D3D2044611C
:10405C0074613A25732054696D653A2573202120CB
:10406C003D3D3D3D3D0D0A003636360D0A00000043
:10407C0002030405060708090A0B0C0D0E0F10109D
:10408C000102000002030405060708090A0B0C0DC7
:10409C000E0F1010010200000000000000000000D4
:1040AC0001020304060708090000000001020304D2
:1040BC005B66617466735D20C7FDB6AFC1B4BDD3DA
:1040CC00CAA7B0DCA3A1B4EDCEF3C2EBA3BA2564AE
:1040DC000D0A00005B66617466735D20B3F5CABCA3
:1040EC00BBAFCDEAB3C9A3A1C7EBD6B4D0D0B9D27C
:1040FC00D4D82FB8F1CABDBBAF0D0A00232D302B7D
:10410C002000686C4C0065666745464700303132CC
:10411C003334353637383941424344454600303123
:10412C003233343536373839616263646566000082
:04413C00090200086C
:04414000E50100088D
:10414400010000001000000000127A0001000000CD
:10415400D52C0008952C00080D2D0008D52D00083D
:104164005B2D0008303A00002C0000200000000005
:10417400000000000000000000000000000000003B
:10418400000000000000000000000000000000002B
:10419400000000000000000000000000000000001B
:1041A400000000000000000000000000000000000B
:1041B40000000000000000000000000000000000FB
:0C41C400000000000000000000000000EF
:040000050800361D9C
:00000001FF
