:020000040800F2
:1000000000000120495E0008A1100008A3100008AC
:10001000A5100008A7100008A910000800000000A3
:10002000000000000000000000000000AB1000080D
:10003000AD10000800000000AF100008B11000086B
:10004000915E0008915E0008915E0008915E0008D4
:10005000915E0008915E0008915E0008915E0008C4
:10006000915E0008915E0008915E0008B9100008DA
:10007000915E0008915E0008915E0008915E0008A4
:10008000915E0008915E0008C9100008915E0008AA
:10009000915E0008915E0008915E0008915E000884
:1000A000915E0008915E0008915E0008915E000874
:1000B000D9100008E9100008915E0008915E000860
:1000C000915E0008915E0008915E0008915E000854
:1000D000915E0008F91000080911000819110008C4
:1000E000915E0008915E0008915E0008915E000834
:1000F000915E0008915E0008915E0008915E000824
:10010000915E0008915E0008915E0008915E000813
:10011000915E0008915E0008915E0008915E000803
:10012000915E0008915E0008915E0008915E0008F3
:1001300000000000000000000000000000000000BF
:1001400000000000000000000000000000000000AF
:10015000000000000000000000000000000000009F
:10016000000000000000000000000000000000008F
:10017000000000000000000000000000000000007F
:10018000000000000000000000000000000000006F
:10019000000000000000000000000000000000005F
:1001A000000000000000000000000000000000004F
:1001B000000000000000000000000000000000003F
:1001C000000000000000000000000000000000002F
:1001D000000000000000000000000000000000001F
:0401E0005FF8E0F1F3
:1001E80010B5054C237833B9044B13B10448AFF369
:1001F80000800123237010BD800D00200000000046
:1002080070BF000808B5034B1BB103490348AFF39F
:10021800008008BD00000000840D002070BF0008A9
:10022800844641EA000313F0030349D1403A23D33B
:100238000B6803604B6843608B688360CB68C3605E
:100248000B6903614B6943618B698361CB69C36146
:100258000B6A03624B6A43628B6A8362CB6AC3622E
:100268000B6B03634B6B43638B6B8363CB6BC36316
:1002780040304031403ADBD230320BD30B68036058
:100288004B6843608B688360CB68C3601030103163
:10029800103AF3D20C3205D351F8043B40F8043B32
:1002A800043AF9D2043208D0D2071CBF11F8013B36
:1002B80000F8013B01D30B8803806046704700BFFC
:1002C800082A13D38B07B1D010F00303AED0C3F1C3
:1002D8000403D21ADB071CBF11F8013B00F8013BED
:1002E800A4D331F8023B20F8023B9FE7043AD9D364
:1002F800013A11F8013B00F8013BF9D20B78037081
:100308004B7843708B7883706046704781F000416A
:1003180002E000BF83F0004330B54FEA41044FEAE2
:10032800430594EA050F08BF90EA020F1FBF54EA7D
:10033800000C55EA020C7FEA645C7FEA655C00F019
:10034800E2804FEA5454D4EB5555B8BF6D420CDDEA
:100358002C4480EA020281EA030382EA000083EA6D
:10036800010180EA020281EA0303362D88BF30BD0D
:1003780011F0004F4FEA01314FF4801C4CEA113163
:1003880002D0404261EB410113F0004F4FEA0333C2
:100398004CEA133302D0524263EB430394EA050F4D
:1003A80000F0A780A4F10104D5F1200E0DDB02FABC
:1003B8000EFC22FA05F2801841F1000103FA0EF250
:1003C800801843FA05F359410EE0A5F120050EF116
:1003D800200E012A03FA0EFC28BF4CF0020C43FA47
:1003E80005F3C01851EBE37101F0004507D54FF054
:1003F800000EDCF1000C7EEB00006EEB0101B1F5A4
:10040800801F1BD3B1F5001F0CD349085FEA3000E9
:100418004FEA3C0C04F101044FEA445212F5800FF4
:1004280080F09A80BCF1004F08BF5FEA500C50F191
:10043800000041EB045141EA050130BD5FEA4C0C74
:10044800404141EB0101013C28BFB1F5801FE9D2D1
:1004580091F0000F04BF01460020B1FA81F308BFF4
:100468002033A3F10B03B3F120020CDA0C3208DDC0
:1004780002F1140CC2F10C0201FA0CF021FA02F19B
:100488000CE002F11402D8BFC2F1200C01FA02F10B
:1004980020FA0CFCDCBF41EA0C019040E41AA2BF30
:1004A80001EB0451294330BD6FEA04041F3C1CDAF8
:1004B8000C340EDC04F11404C4F1200220FA04F018
:1004C80001FA02F340EA030021FA04F345EA0301C2
:1004D80030BDC4F10C04C4F1200220FA02F001FA84
:1004E80004F340EA0300294630BD21FA04F0294606
:1004F80030BD94F0000F83F4801306BF81F480119F
:100508000134013D4EE77FEA645C18BF7FEA655C11
:1005180029D094EA050F08BF90EA020F05D054EAE3
:10052800000C04BF1946104630BD91EA030F1EBFE8
:100538000021002030BD5FEA545C05D140004941EC
:1005480028BF41F0004130BD14F580043CBF01F5DF
:10055800801130BD01F0004545F0FE4141F47001C5
:100568004FF0000030BD7FEA645C1ABF19461046A0
:100578007FEA655C1CBF0B46024650EA013406BFA1
:1005880052EA033591EA030F41F4002130BD00BF60
:1005980090F0000F04BF0021704730B54FF480641D
:1005A80004F132044FF000054FF0000150E700BF9E
:1005B80090F0000F04BF0021704730B54FF48064FD
:1005C80004F1320410F0004548BF40424FF00001EA
:1005D8003EE700BF42004FEAE2014FEA31014FEA2D
:1005E80002701FBF12F07F4393F07F4F81F060517C
:1005F800704732F07F4208BF704793F07F4F04BFC7
:1006080041F40021704730B54FF4607401F00045A3
:1006180021F000411CE700BF50EA010208BF704703
:1006280030B54FF000050AE050EA010208BF7047F4
:1006380030B511F0004502D5404261EB41014FF45D
:10064800806404F132045FEA915C3FF4D8AE4FF065
:1006580003025FEADC0C18BF03325FEADC0C18BF48
:10066800033202EBDC02C2F1200300FA03FC20FA99
:1006780002F001FA03FE40EA0E0021FA02F11444E6
:10068800BDE600BF70B54FF0FF0C4CF4E06C1CEAFF
:1006980011541DBF1CEA135594EA0C0F95EA0C0F70
:1006A80000F0DEF82C4481EA030621EA4C5123EAE3
:1006B8004C5350EA013518BF52EA033541F4801112
:1006C80043F4801338D0A0FB02CE4FF00005E1FBC5
:1006D80002E506F00042E0FB03E54FF00006E1FB0F
:1006E80003569CF0000F18BF4EF0010EA4F1FF0452
:1006F800B6F5007F64F5407404D25FEA4E0E6D4192
:1007080046EB060642EAC62141EA55514FEAC520A2
:1007180040EA5E504FEACE2EB4F1FD0C88BFBCF51E
:10072800E06F1ED8BEF1004F08BF5FEA500E50F1CF
:10073800000041EB045170BD06F0004646EA010195
:1007480040EA020081EA0301B4EB5C04C2BFD4EBC7
:100758000C0541EA045170BD41F480114FF0000EC0
:10076800013C00F3AB8014F1360FDEBF002001F02E
:10077800004170BDC4F10004203C35DA0C341BDCA8
:1007880004F11404C4F1200500FA05F320FA04F07A
:1007980001FA05F240EA020001F0004221F00041AE
:1007A80010EBD37021FA04F642EB06015EEA430E21
:1007B80008BF20EAD37070BDC4F10C04C4F1200551
:1007C80000FA04F320FA05F001FA04F240EA020004
:1007D80001F0004110EBD37041F100015EEA430ED5
:1007E80008BF20EAD37070BDC4F1200500FA05F2F5
:1007F8004EEA020E20FA04F301FA05F243EA020374
:1008080021FA04F001F0004121FA04F220EA020082
:1008180000EBD3705EEA430E08BF20EAD37070BDC8
:1008280094F0000F0FD101F00046400041EB0101A8
:1008380011F4801F08BF013CF7D041EA060195F08A
:10084800000F18BF704703F00046520043EB030344
:1008580013F4801F08BF013DF7D043EA0603704731
:1008680094EA0C0F0CEA135518BF95EA0C0F0CD03C
:1008780050EA410618BF52EA4306D1D181EA030182
:1008880001F000414FF0000070BD50EA410606BF7C
:100898001046194652EA430619D094EA0C0F02D1C1
:1008A80050EA013613D195EA0C0F05D152EA033606
:1008B8001CBF104619460AD181EA030101F0004124
:1008C80041F0FE4141F470014FF0000070BD41F06D
:1008D800FE4141F4780170BD70B54FF0FF0C4CF447
:1008E800E06C1CEA11541DBF1CEA135594EA0C0F66
:1008F80095EA0C0F00F0A7F8A4EB050481EA030EB3
:1009080052EA03354FEA013100F088804FEA033399
:100918004FF0805545EA131343EA12634FEA022267
:1009280045EA111545EA10654FEA00260EF0004128
:100938009D4208BF964244F1FD0404F5407402D27A
:100948005B084FEA3202B61A65EB03055B084FEA0B
:1009580032024FF480104FF4002CB6EB020E75EB08
:10096800030E22BFB61A754640EA0C005B084FEA30
:100978003202B6EB020E75EB030E22BFB61A7546AD
:1009880040EA5C005B084FEA3202B6EB020E75EBF8
:10099800030E22BFB61A754640EA9C005B084FEA70
:1009A8003202B6EB020E75EB030E22BFB61A75467D
:1009B80040EADC0055EA060E18D04FEA051545EA6C
:1009C80016754FEA06164FEAC30343EA52734FEA15
:1009D800C2025FEA1C1CC0D111F4801F0BD141EA8E
:1009E80000014FF000004FF0004CB6E711F4801FF3
:1009F80004BF01430020B4F1FD0C88BFBCF5E06FD3
:100A08003FF6AFAEB5EB030C04BFB6EB020C5FEAE2
:100A1800500C50F1000041EB045170BD0EF0004E37
:100A28004EEA113114EB5C04C2BFD4EB0C0541EA69
:100A3800045170BD41F480114FF0000E013C90E666
:100A480045EA060E8DE60CEA135594EA0C0F08BF2A
:100A580095EA0C0F3FF43BAF94EA0C0F0AD150EA29
:100A680001347FF434AF95EA0C0F7FF425AF1046BC
:100A780019462CE795EA0C0F06D152EA03353FF4E4
:100A8800FDAE1046194622E750EA410618BF52EA61
:100A980043067FF4C5AE50EA41047FF40DAF52EA35
:100AA80043057FF4EBAE12E74FF0FF3C06E000BFD2
:100AB8004FF0010C02E000BF4FF0010C4DF804CDDF
:100AC8004FEA410C7FEA6C5C4FEA430C18BF7FEA9F
:100AD8006C5C1BD001B050EA410C0CBF52EA430CCD
:100AE80091EA030F02BF90EA020F0020704710F14D
:100AF800000F91EA030F58BF994208BF90422CBFDC
:100B0800D8176FEAE37040F0010070474FEA410CD4
:100B18007FEA6C5C02D150EA013C07D14FEA430CF2
:100B28007FEA6C5CD6D152EA033CD3D05DF8040B63
:100B3800704700BF8446104662468C461946634695
:100B480000E000BF01B5FFF7B7FF002848BF10F16C
:100B5800000F01BD4DF808EDFFF7F4FF0CBF0120B1
:100B680000205DF808FB00BF4DF808EDFFF7EAFF2D
:100B780034BF012000205DF808FB00BF4DF808EDE8
:100B8800FFF7E0FF94BF012000205DF808FB00BFDD
:100B98004DF808EDFFF7CEFF94BF012000205DF867
:100BA80008FB00BF4DF808EDFFF7C4FF34BF012074
:100BB80000205DF808FB00BF4FEA410C7FEA6C5C3F
:100BC80002D150EA013C0AD14FEA430C7FEA6C5C3F
:100BD80002D152EA033C02D14FF0000070474FF0B7
:100BE800010070474FEA410212F5001215D211D5E3
:100BF8006FF47873B3EB625212D94FEAC12343F012
:100C0800004343EA505311F0004F23FA02F018BF93
:100C1800404270474FF00000704750EA013005D15C
:100C280011F0004008BF6FF0004070474FF000001F
:100C3800704700BF53B94AB9002908BF00281CBF34
:100C48004FF0FF314FF0FF3000F076B9ADF1080CEE
:100C58006DE904CE00F006F8DDF804E0DDE90223D2
:100C680004B070472DE9F047089E0D4604468846B3
:100C7800002B4DD18A42944668D9B2FA82F252B119
:100C880001FA02F3C2F1200120FA01F10CFA02FC88
:100C980041EA030894404FEA1C41B8FBF1F71FFAF8
:100CA8008CFE01FB178807FB0EF0230C43EA084370
:100CB80098420AD91CEB030307F1FF3580F01E8127
:100CC800984240F21B81023F63441B1AB3FBF1F0C8
:100CD80001FB103300FB0EFEA4B244EA0344A64510
:100CE8000AD91CEB040400F1FF3380F00981A64502
:100CF80040F20681644402380021A4EB0E0440EA65
:100D080007401EB10023D440C6E90043BDE8F08780
:100D18008B4208D9002E00F0EE800021C6E90005BC
:100D28000846BDE8F087B3FA83F100294AD1AB42FF
:100D380002D3824200F2FC80841A65EB030301208F
:100D48009846002EE2D0C6E90048DFE702B9FFDE88
:100D5800B2FA82F2002A40F09180A1EB0C00012146
:100D68004FEA1C471FFA8CFEB0FBF7F307FB130092
:100D7800250C45EA00450EFB03F0A84208D91CEBF8
:100D8800050503F1FF3802D2A84200F2CE8043469F
:100D98002D1AB5FBF7F007FB10550EFB00FEA4B2A9
:100DA80044EA0544A64508D91CEB040400F1FF35C4
:100DB80002D2A64500F2B6802846A4EB0E0440EA0B
:100DC80003409EE7C1F120078B4022FA07FC4CEA5A
:100DD800030C25FA07FA4FEA1C49BAFBF9F820FA7E
:100DE80007F309FB18AA8D401FFA8CFE1D4300FA71
:100DF80001F308FB0EF02C0C44EA0A44A04202FA64
:100E080001F20BD91CEB040408F1FF3A80F088804A
:100E1800A04240F28580A8F102086444241AB4FB79
:100E2800F9F009FB104400FB0EFEADB245EA04449C
:100E3800A64508D91CEB040400F1FF356CD2A64581
:100E48006AD90238644440EA0840A0FB0295A4EB42
:100E58000E04AC42C846AE4656D353D0002E69D0D5
:100E6800B3EB080264EB0E0422FA01F304FA07F765
:100E78001F43CC40C6E90074002147E70CFA02FC86
:100E8800C2F1200125FA01F34FEA1C4720FA01F1CB
:100E980095400D43B3FBF7F107FB11331FFA8CFEA6
:100EA800280C40EA034001FB0EF3834204FA02F4E3
:100EB80008D91CEB000001F1FF382FD283422DD94D
:100EC80002396044C01AB0FBF7F307FB1300ADB258
:100ED80045EA004503FB0EF0A84208D91CEB0505BE
:100EE80003F1FF3816D2A84214D9023B6544281AE8
:100EF80043EA014138E73146304607E72F46E4E642
:100F08001846F9E64B45A9D2B9EB020865EB0C0E79
:100F18000138A3E74346EAE7284694E74146D1E784
:100F2800D0467BE76444023847E7023B65442FE735
:100F3800084606E73146E9E6704700BF72B6FEE7A5
:100F480000B597B0282200210CA804F0C3FF0023A5
:100F58000793089309930A930B93019302930393BE
:100F680004930593069301220C924FF480330D935A
:100F780010920222139214934FF4E01315930CA8C5
:100F880000F0DEFDC8B90F23079302210891002362
:100F980009934FF480620A920B9307A801F002F8B4
:100FA80068B9022301934FF40043039301A801F0A9
:100FB800D5F830B917B05DF804FBFFF7BFFFFFF7AE
:100FC800BDFFFFF7BBFF000010B500F06BFDFFF79A
:100FD800B7FF03F0FFFE02F031FE02F07FFE02F0E1
:100FE80097FE02F0AFFE03F077FE04F009FB04F071
:100FF8003FFB04F033FC04F055FC02F0E9FD02F07D
:10100800BBFD03F0DDFB03F023FE0122174918485E
:1010180002F09DFD01221749174802F098FD0122B0
:101028001649174802F093FD164A1749174802F067
:1010380057FF174801F0DAFD04F0A2FA154C2046D4
:1010480001F0D4FD0021204602F0B4F804F0BAFC07
:10105800002400F045FDA042FBD003F007FB03F09D
:1010680067FB00F03DFD0446F3E700BF9C15002038
:10107800F40D0020D01200203C0E0020A215002004
:10108800840E002088BF000894BF0008A0BF000895
:1010980098160020E0160020FEE7FEE7FEE7FEE7D0
:1010A800FEE770477047704708B500F00DFD08BDB2
:1010B80008B5024801F03AFB08BD00BFF015002052
:1010C80008B5024803F0A4FE08BD00BFA41500201F
:1010D80008B5024801F0E3FD08BD00BF98160020DE
:1010E80008B5024801F0DBFD08BD00BFE01600208E
:1010F80008B5024802F0C6FB08BD00BFF40D002089
:1011080008B5024802F0BEFB08BD00BF3C0E002037
:1011180008B5024802F0B6FB08BD00BF840E0020E7
:1011280082B00E4B9A6942F001029A619A6902F004
:1011380001020092009ADA6942F08052DA61DB69B2
:1011480003F080530193019B054A536823F0E06341
:1011580043F00073536002B0704700BF00100240B4
:101168000000014003685A6912F4806F01D1002021
:1011780070476FF480625A6100230363202280F86D
:101188003D2080F83E30026C42F00402026480F890
:101198003C30012070472DE9F04106460C461746C1
:1011A80098463BE000F09CFC069BC01A404502D8DC
:1011B800B8F1000F32D1012D18D033689B6924EAA9
:1011C80003039BB2B3FA83F35B099F4226D1002342
:1011D8003363202286F83D2086F83E30326C42F098
:1011E8002002326486F83C30012027E033685B69CE
:1011F80024EA03039BB2B3FA83F35B09E5E7336898
:101208005B6924EA030C1FFA8CFCBCFA8CFC4FEADD
:101218005C1C674511D1B8F1FF3FC3D1C4F3074542
:10122800012DECD033689B6924EA030C1FFA8CFC6F
:10123800BCFA8CFC4FEA5C1CEBE70020BDE8F081AF
:101248002DE9F84305460E469046994653E01A683C
:1012580042F400721A602B686FF480625A610023AE
:101268002B63202285F83D2085F83E302A6C42F019
:1012780004022A6485F83C3001204AE000F030FC82
:10128800A0EB0900404502D8B8F1000F33D1012F77
:1012980017D02B689B6926EA03039BB2003B18BF53
:1012A800012343B300232B63202285F83D2085F8D2
:1012B8003E302A6C42F020022A6485F83C30012036
:1012C80027E02B685B6926EA03039BB2003B18BF43
:1012D8000123E6E72B689C6926EA0404A4B2003CD3
:1012E80018BF0124A4B12B685A6912F4806FAED1DB
:1012F800B8F1FF3FC2D1C6F30747012FEAD12B68E7
:101308005C6926EA0404A4B2003C18BF0124E9E79A
:101318000020BDE8F88370B504460D4616462368DC
:101328005B6913F0800F21D12046FFF71BFFF8B946
:10133800B5F1FF3FF3D000F0D3FB801BA84201D8E2
:10134800002DECD123685B6913F0800FE7D10023EF
:101358002363202284F83D2084F83E30226C42F03A
:101368002002226484F83C30012000E0002070BD97
:101378000120FCE72DE9F04784B004460D461646E7
:1013880099460C9FDDF834800268136843F4806343
:1013980013600368196841F480711960CDF8008002
:1013A8003B4600224FF00111FFF7F5FE70B95FFAD6
:1013B80085FA236805F0FE051D6143463A46414912
:1013C8002046FFF73DFF68B1012008E023681B684D
:1013D80013F4807F02D04FF400732364032004B019
:1013E800BDE8F0870023039323685A6903929B6939
:1013F8000393039B424639462046FFF78CFF80B98A
:10140800B9F1010F18D12368F6B21E614246394678
:101418002046FFF780FF68B3236C042B24D00120FB
:10142800DDE7236C042B01D00120D8E7226813687C
:1014380043F400731360F7E72368320A1A614246DF
:1014480039462046FFF767FF18B92368F6B21E61D0
:10145800DCE7236C042B01D00120C0E72268136865
:1014680043F400731360F7E72268136843F40073CA
:101478001360D4E72268136843F480731360CDF8CF
:1014880000803B4600224FF001112046FFF783FE03
:1014980068B922684AF00103136143463A4609498C
:1014A8002046FFF7CDFE002899D0012097E7236852
:1014B8001B6813F4807F02D04FF400732364032069
:1014C8008DE700BF0200010070B504460D461646C0
:1014D80014E06FF010025A6100232363202284F87D
:1014E8003D2084F83E30226C226484F83C30012090
:1014F80025E023685B6913F0400F10D02368586912
:1015080010F0400F1AD1586910F0100FE1D100F017
:10151800E7FA801BA842ECD8002DEFD1E9E70023B9
:101528002363202284F83D2084F83E30226C42F068
:101538002002226484F83C30012000E0002070BDC5
:10154800002800F0CC8070B5044690F83D30002BA0
:1015580077D0242384F83D302268136823F00103F0
:1015680013602268136843F4004313602268136809
:1015780023F40043136000F0D1FD62685A4B9A428D
:1015880064D85A4B98428CBF00230123002B40F0AB
:10159800A8805749A1FB00318B0C25686A6822F0A6
:1015A8003F0242EA91426A6021680A6A22F03F02D9
:1015B80066684D4DAE424FD8013313430B62216824
:1015C800CA6922F44F4222F0FF026668464B9E42E7
:1015D8004CD8431E7600B3FBF6F3013340F6FC709B
:1015E800034278D0C3F30B031343CB6121680B6824
:1015F80023F0C003E269206A024313430B602168A9
:101608008B6823F4034323F0FF032269E068024355
:1016180013438B602168CB6823F0FF036269A069DC
:1016280002431343CB602268136843F0010313603D
:1016380000202064202384F83D30206384F83E0095
:1016480070BD80F83C3002F017FB82E7294B9842C6
:101658008CBF0023012399E74FF4967505FB03F32C
:10166800254DA5FB03539B090133A6E7A368BBB926
:10167800451E06EB460CB5FBFCF50135C5F30B051D
:10168800B5FA85F56D0945BBC3B9013806EB4603C4
:10169800B0FBF3F30133C3F30B0343F40043A3E7B5
:1016A800451E06EB860C0CEB8C0CB5FBFCF50135E6
:1016B800C5F30B05B5FA85F56D09E4E7013806EBC6
:1016C800860303EB8303B0FBF3F30133C3F30B038C
:1016D80043F4404388E7042386E7012384E7012095
:1016E80070470120ACE700BFA08601007F841E0080
:1016F80083DE1B43FF083D00D34D62102DE9F04304
:1017080089B004460F4690469946129E00230793D7
:1017180000F0E6F9054694F83D00C0B2202804D050
:101728000227384609B0BDE8F08300951923012245
:1017380081492046FFF72FFD002840F07C8194F86E
:101748003C30012B00F07981012384F83C30236878
:101758001A6812F0010F03D11A6842F001021A60E8
:101768002268136823F400631360222384F83D3051
:10177800402384F83E3000232364109B6362BDF845
:1017880044306385638D23856C4BE3620195009635
:101798004B46424639462046FFF7ECFD07460028EF
:1017A80040F04D81238D5BB9039323685A690392F6
:1017B8009A690392039A1A6842F400721A60F2E076
:1017C800012B0FD0022B21D02268136843F48063C9
:1017D80013600023069323685A6906929B6906934F
:1017E800069BE0E02268136823F48063136072B6F6
:1017F8000023049323685A6904929A690492049A0C
:101808001A6842F400721A6062B6CCE02268136863
:1018180043F40063136072B60023059323685A6982
:1018280005929A690592059A1A6822F480621A60EC
:1018380062B6B8E02A4631462046FFF745FE002842
:1018480040F0FF8023681A69636A1A70636A01337B
:101858006362238D013B2385638D9BB2013B9BB261
:101868006385A0E000953346002235492046FFF7FE
:1018780092FC002840F0E9802268136823F4806312
:10188800136072B623681A69636A1A70636A01334F
:101898006362238D013B2385638D9BB2013B9BB221
:1018A8006385284B1B68DB08274AA2FB03231B0A16
:1018B80003EB8303C3EBC3030793079B013B079326
:1018C800079B002B28D023685A6912F0040FF4D024
:1018D8001A6842F400721A6023681A69636A1A70F7
:1018E800636A01336362238D013B2385638D9BB259
:1018F800013B9BB2638562B623681A69636A1A70F2
:10190800636A01336362238D013B2385638D9BB238
:10191800013B9BB2638546E02363202284F83D2087
:1019280084F83E30226C42F02002226462B684F8C9
:101938003C300127F5E600BF020010000000FFFF61
:10194800040001000800002089B5F8142A46314631
:101958002046FFF7B9FD002879D123681A69636A20
:101968001A70636A01336362228D013A92B222854A
:10197800638D9BB2013B9BB263852368596911F063
:10198800040F10D0032A48D023681A69636A1A70B2
:10199800636A01336362238D013B2385638D9BB2A8
:1019A800013B9BB26385238D002B3BD0032BCDD805
:1019B800012B3FF43FAF022B7FF454AF0095334621
:1019C800002224492046FFF7E6FB00283BD172B6E7
:1019D8002268136843F40073136023681A69636A02
:1019E8001A70636A01336362238D013B2385638D1B
:1019F8009BB2013B9BB2638562B623681A69636A2E
:101A08001A70636A01336362238D013B2385638DFA
:101A18009BB2013B9BB26385C5E71A6822F48062DA
:101A28001A60B1E7202384F83D30002384F83E3063
:101A380084F83C3075E6022773E6022771E6012731
:101A48006FE601276DE601276BE6012769E60127A6
:101A580067E600BF0400010010B504460E4B187875
:101A68004FF47A73B3FBF0F30C4A1068B0FBF3F051
:101A780001F02AF868B90F2C01D901200AE00022E8
:101A880021464FF0FF3000F0D9FF054B1C600020C5
:101A980000E0012010BD00BF000000200800002069
:101AA8000400002008B5074A136843F010031360C8
:101AB800032000F0B1FF0F20FFF7CEFFFFF730FB48
:101AC800002008BD00200240034A1168034B1B7820
:101AD8000B441360704700BF9C0D002000000020DD
:101AE800014B1868704700BF9C0D002038B50446AC
:101AF800FFF7F6FF0546B4F1FF3F02D0044B1B7811
:101B08001C44FFF7EDFF401BA042FAD338BD00BFCD
:101B18000000002082B0084B1B68084AA2FB032380
:101B28005B0A00FB03F3019300BF019B5A1E01925D
:101B3800002BF9D102B0704708000020D34D621085
:101B4800002800F0F18170B582B00446036813F0F4
:101B5800010F2CD0994B5B6803F00C03042B1DD0AC
:101B6800964B5B6803F00C03082B12D06368B3F53F
:101B7800803F41D0002B55D103F1804303F5043356
:101B88001A6822F480321A601A6822F480221A60D5
:101B980037E08A4B5B6813F4803FE7D0874B1B68BC
:101BA80013F4003F03D06368002B00F0BF81236863
:101BB80013F0020F75D0814B5B6813F00C0F5FD0E8
:101BC8007E4B5B6803F00C03082B54D02369002B71
:101BD80000F08A807A4B01221A60FFF781FF0546E0
:101BE800764B1B6813F0020F75D1FFF779FF401B86
:101BF8000228F5D903209EE1704A136843F4803324
:101C08001360636843B3FFF76BFF05466B4B1B68B4
:101C180013F4003FCBD1FFF763FF401B6428F5D9CD
:101C2800032088E1B3F5A02F09D0644B1A6822F489
:101C380080321A601A6822F480221A60E1E703F100
:101C48008043A3F53C331A6842F480221A601A686C
:101C580042F480321A60D4E7FFF742FF0546574B3B
:101C68001B6813F4003FA2D0FFF73AFF401B64281B
:101C7800F5D903205FE1514B5B6813F4803FA5D190
:101C88004E4B1B6813F0020F03D02369012B40F061
:101C98004F814A4A136823F0F803616943EAC10394
:101CA8001360236813F0080F33D0A369002B5CD0AE
:101CB800434B0122C3F88024FFF712FF05463F4B30
:101CC8005B6A13F0020F21D1FFF70AFF401B0228BD
:101CD800F5D903202FE1394A136823F0F803616925
:101CE80043EAC1031360DCE7354B00221A60FFF7B3
:101CF800F7FE0546314B1B6813F0020FD1D0FFF7F2
:101D0800EFFE401B0228F5D9032014E10120FFF75C
:101D180001FF236813F0040F00F09680274BDB695E
:101D280013F0805F34D1254BDA6942F08052DA61D2
:101D3800DB6903F080530193019B0125214B1B684C
:101D480013F4807F26D0E368012B3DD0002B53D1BC
:101D580003F1804303F504331A6A22F001021A6280
:101D68001A6A22F004021A6233E0154B0022C3F803
:101D78008024FFF7B5FE0546104B5B6A13F0020F8F
:101D8800C7D0FFF7ADFE401B0228F5D90320D2E0EB
:101D98000025D3E70B4A136843F480731360FFF7F9
:101DA8009FFE0646074B1B6813F4807FCBD1FFF7D5
:101DB80097FE801B6428F5D90320BCE00010024080
:101DC80000004242007000405F4A136A43F001037A
:101DD8001362E36833B3FFF783FE06465A4B1B6A68
:101DE80013F0020F2FD1FFF77BFE801B41F28833DF
:101DF8009842F3D903209EE0052B09D0524B1A6A6A
:101E080022F001021A621A6A22F004021A62E0E75A
:101E18004D4B1A6A42F004021A621A6A42F0010231
:101E28001A62D6E7FFF75CFE0646474B1B6A13F0BB
:101E3800020F08D0FFF754FE801B41F28833984206
:101E4800F3D9032077E0E5B9E369002B72D03E4A65
:101E5800526802F00C02082A56D0022B17D03B4BCE
:101E680000221A66FFF73CFE0446374B1B6813F046
:101E7800007F47D0FFF734FE001B0228F5D9032066
:101E880059E0314AD36923F08053D361DCE72F4B03
:101E980000221A66FFF724FE05462B4B1B6813F039
:101EA800007F06D0FFF71CFE401B0228F5D903204F
:101EB80041E0236AB3F5803F1AD023494B6823F4E5
:101EC8007413226A606A024313434B601F4B01225A
:101ED8001A66FFF705FE04461B4B1B6813F0007FCC
:101EE8000ED1FFF7FDFD001B0228F5D9032022E0E3
:101EF800154A536823F40033A1680B435360DCE7A9
:101F0800002018E0002016E0012B16D00E4B5B686D
:101F180003F48031226A914211D103F47013626A8A
:101F280093420ED1002006E001207047012002E014
:101F3800012000E0002002B070BD0120FBE7012075
:101F4800F9E70120F7E700BF001002400000424215
:101F58000F4B5B6803F00C02082A01D00D4870474C
:101F6800C3F383420C49885C13F4803F0BD0084BC1
:101F78005B68C3F34043094AD35C064A02FB00F09E
:101F8800B0FBF3F07047064B03FB00F0704700BF4F
:101F98000010024000127A00C8BF0008D8BF00082D
:101FA80000093D00002800F0A08070B50D460446E9
:101FB800524B1B6803F007038B420BD24F4A13683E
:101FC80023F007030B431360136803F007038B42E6
:101FD80040F08D80236813F0020F17D013F0040F20
:101FE80004D0474A536843F4E0635360236813F00E
:101FF800080F04D0424A536843F460535360404A80
:10200800536823F0F003A1680B435360236813F06F
:10201800010F31D06368012B20D0022B25D0384A1C
:10202800126812F0020F64D035494A6822F00302A0
:1020380013434B60FFF754FD0646314B5B6803F0D2
:102048000C036268B3EB820F16D0FFF749FD801BC3
:1020580041F288339842F0D9032045E0284A1268B3
:1020680012F4003FE0D101203EE0254A126812F048
:10207800007FD9D1012037E0204B1B6803F007030C
:10208800AB420AD91D4A136823F007032B43136098
:10209800136803F00703AB422DD1236813F0040F34
:1020A80006D0174A536823F4E063E1680B43536092
:1020B800236813F0080F07D0114A536823F46053BC
:1020C800216943EAC1035360FFF742FF0C4B5B6889
:1020D800C3F303130B4AD35CD8400B4B18600B4B6C
:1020E8001868FFF7B9FC002070BD01207047012077
:1020F800FAE70120F8E70120F6E700BF00200240D8
:1021080000100240DCBF0008080000200400002086
:10211800014B1868704700BF0800002008B5FFF79A
:10212800F7FF044B5B68C3F30223034AD35CD84030
:1021380008BD00BF00100240ECBF000808B5FFF75B
:10214800E7FF044B5B68C3F3C223034AD35CD84060
:1021580008BD00BF00100240ECBF000870B582B097
:102168000446036813F0010F36D03F4BDB6913F0C8
:10217800805F49D13C4BDA6942F08052DA61DB6911
:1021880003F080530193019B0125384B1B6813F41E
:10219800807F3BD0344B1B6A13F4407313D06268C2
:1021A80002F440729A420ED02F4A136A23F4407008
:1021B8002F490126C1F840640026C1F84064106226
:1021C80013F0010F36D1284A136A23F4407361686B
:1021D8000B431362002D3ED1236813F0020F06D083
:1021E800214A536823F44043A1680B435360236892
:1021F80013F0100F34D01C4A536823F4800361692C
:102208000B43536000202CE00025BEE7174A1368F3
:1022180043F480731360FFF763FC0646134B1B6897
:1022280013F4807FB6D1FFF75BFC801B6428F5D9D7
:10223800032016E0FFF754FC06460B4B1B6A13F00D
:10224800020FC0D1FFF74CFC801B41F28833984243
:10225800F3D9032005E0D36923F08053D361BBE7AA
:10226800002002B070BD00BF0010024000700040A6
:102278000000424270B582B00024A446B0E0874D09
:10228800AA4210D007D9864DAA420CD005F5803550
:10229800AA4208D013E0A5F58015AA4203D005F597
:1022A8007025AA4207D18A68002A62D0012A5BD029
:1022B8004361082403E0A5F58015AA42F3D0BEF1D6
:1022C800FF0F58D80646BEF1FF0F56D84FEA8C02CA
:1022D80033680F25954023EA050304FA02F21343F5
:1022E80033604B6813F0805F78D06E4B9A6942F088
:1022F80001029A619B6903F001030193019B4FEA74
:102308009C02951C684B53F825600CF003039D0054
:102318000F23AB4026EA0306644B984233D003F5FB
:102328008063984200F0988003F58063984200F03B
:10233800958003F58063984200F0928003F58063EE
:10234800984200F08F8003F58063984219D00623E5
:102358001AE0CC68B3E7CC680434B0E7CC6808343A
:10236800ADE7CC680C34AAE703610824A7E700248A
:10237800A5E70424A3E7061DA5E7ACF1080292002F
:10238800A6E7052300E00023AB4033430232464D65
:1023980045F822304B6813F4801F65D0444A93688F
:1023A80043EA0E0393604B6813F4001F62D0404A5F
:1023B800D36843EA0E03D3604B6813F4003F5FD041
:1023C8003B4A536843EA0E0353604B6813F4803F5B
:1023D8005CD0374A136843EA0E0313600CF1010C12
:1023E8000A6832FA0CF357D0012303FA0CF302EA15
:1023F800030E33EA0202F1D14A68122A3FF63FAFD0
:10240800122A3FF65CAF01A555F822F0AF2200086A
:102418005B2300086523000877230008C72200080B
:10242800C7220008C7220008C7220008C7220008E0
:10243800C7220008C7220008C7220008C7220008D0
:10244800C7220008C7220008C7220008C7220008C0
:102458005F2300086B230008012395E7022393E715
:10246800032391E704238FE7114A936823EA0E03B5
:10247800936098E70E4AD36823EA0E03D3609BE77C
:102488000B4A536823EA0E0353609EE7084A136811
:1024980023EA0E031360A1E702B070BD000022100A
:1024A8000000311000100240000001400008014007
:1024B800000401408368194201D0012070470020C0
:1024C80070470AB101617047090401617047C36828
:1024D80001EA030221EA030141EA0241016170476E
:1024E80000283AD010B4024600681D4B984229D8FB
:1024F8001C4B03441C49A1FB03131B099B001364D9
:102508001A4BD363022382F82130016821F47F51EA
:1025180021F03001536894682343D4682343146935
:1025280023435469234394692343D46923430B43C6
:10253800036000209063012382F8213082F8200094
:1025480010BC70470A4B03440749A1FB03131B093E
:102558009B001364074BD363D4E70120704700BF87
:1025680007040240F8FFFDBFCDCCCCCC00000240F0
:10257800F8FBFDBF0004024090F82130DBB2022BCB
:1025880006D004238363002380F82030012070479D
:102598000268136823F00E0313600268136823F0BF
:1025A80001031360036CC16B012202FA03F34B6051
:1025B80080F82120002380F820301846704700005A
:1025C80008B590F82130DBB2022B03D004238363D3
:1025D800012008BD0268136823F00E031360026827
:1025E800136823F00103136003684C4A93424ED9E1
:1025F800783A934224D01432934230D01432934222
:102608002FD0143293422FD0143293422FD0143249
:1026180093422FD0143293422FD002F56272934224
:102628002ED0143293422DD0143293422CD014322F
:10263800934202D04FF4803203E04FF4805200E01E
:102648000122374B5A60012380F82130002380F89B
:102658002030436B002B5ED098470020B9E710224A
:10266800EFE74FF48072ECE74FF48052E9E74FF45C
:102678008032E6E74FF48012E3E74FF08072E0E73C
:102688000122DEE71022DCE74FF48072D9E7254A01
:10269800934224D01432934225D01432934224D04A
:1026A8001432934224D01432934224D014329342E9
:1026B80024D01432934224D002F56272934223D07C
:1026C8001432934222D01432934221D014329342CE
:1026D80002D04FF4803203E04FF4805200E0012230
:1026E800114B5A60AFE71022FAE74FF48072F7E710
:1026F8004FF48052F4E74FF48032F1E74FF4801240
:10270800EEE74FF08072EBE70122E9E71022E7E7F6
:102718004FF48072E4E700205BE700BF80000240CE
:1027280000040240080002400000024038B5C36BB4
:102738001A6804682568016C04238B40134200F072
:102748009B8015F0040F00F09780236813F0200F8A
:1027580003D1236823F00403236003689A4A934251
:1027680046D9783A934224D01432934228D014326E
:10277800934227D01432934227D01432934227D061
:102788001432934227D01432934227D002F5627252
:10279800934226D01432934225D01432934224D047
:1027A8001432934202D04FF4802203E04FF4804267
:1027B80000E00422854B5A60C36A03B1984738BDCC
:1027C8004022F7E74FF48062F4E74FF48042F1E7E4
:1027D8004FF48022EEE74FF48002EBE74FF080627F
:1027E800E8E70422E6E74022E4E74FF48062E1E705
:1027F800774A934224D01432934225D0143293421C
:1028080024D01432934224D01432934224D0143268
:10281800934224D01432934224D002F56272934238
:1028280023D01432934222D01432934221D014324E
:10283800934202D04FF4802203E04FF4804200E03C
:102848000422644B5A60B7E74022FAE74FF48062EB
:10285800F7E74FF48042F4E74FF48022F1E74FF4B2
:102868008002EEE74FF08062EBE70422E9E74022BE
:10287800E7E74FF48062E4E702238B40134200F05D
:10288800AB8015F0020F00F0A780236813F0200F2B
:1028980006D1236823F00A032360012380F821303E
:1028A8000368494A93424BD9783A934224D0143268
:1028B80093422DD0143293422CD0143293422CD010
:1028C800143293422CD0143293422CD014329342B7
:1028D8002CD002F5627293422BD0143293422AD044
:1028E8001432934229D01432934202D04FF400326A
:1028F80003E04FF4005200E00222344B5A600023F8
:1029080080F82030836A002B3FF459AF984756E788
:102918002022F2E74FF40072EFE74FF40052ECE7A1
:102928004FF40032E9E74FF40012E6E74FF0007287
:10293800E3E70222E1E72022DFE74FF40072DCE759
:10294800234A934224D01432934225D0143293421E
:1029580024D01432934224D01432934224D0143217
:10296800934224D01432934224D002F562729342E7
:1029780023D01432934222D01432934221D01432FD
:10298800934202D04FF4003203E04FF4005200E0CB
:102998000222104B5A60B2E72022FAE74FF4007285
:1029A800F7E74FF40052F4E74FF40032F1E74FF441
:1029B8000012EEE74FF00072EBE70222E9E720226F
:1029C800E7E74FF40072E4E78000024000040240A9
:1029D8000800024000000240082303FA01F11142F6
:1029E8003FF4EDAE15F0080F3FF4E9AE236823F08D
:1029F8000E032360026CC16B012303FA02F24A60E2
:102A0800836380F82130002380F82030036B002B8B
:102A18003FF4D5AE9847D2E6074AD36823F4E0637B
:102A28001B041B0C000200F4E060034343F0BF6387
:102A380043F40033D360704700ED00E000B5194B54
:102A4800DB68C3F30223C3F1070CBCF1040F28BFF2
:102A58004FF0040C03F1040EBEF1060F18D9033B26
:102A68004FF0FF3E0EFA0CFC21EA0C0199400EFAD9
:102A780003F322EA0303194300280BDB0901C9B257
:102A880000F1604000F5614080F800135DF804FB38
:102A98000023E5E700F00F000901C9B2024B195401
:102AA800F4E700BF00ED00E014ED00E0002807DBCC
:102AB80000F01F02400901239340024A42F82030E7
:102AC800704700BF00E100E00138B0F1807F0BD211
:102AD8004FF0E0235861054AF02182F823100020C6
:102AE800986107221A6170470120704700ED00E0E5
:102AF80010B4036A046A24F001040462846924F0AF
:102B0800F00C4CEA021223F00A030B4382610362C1
:102B180010BC704730B4056A046A24F010040462DB
:102B2800846924F4407C4CEA022C2CF4704C1B037E
:102B38009BB243EA0C0325F0A005090101F0A001AE
:102B480029438361016230BC704710B4036A046A88
:102B580024F010040462846924F4704C4CEA0232B4
:102B680023F0A00343EA01138261036210BC70479B
:102B780030B4056A046A24F480740462C46924F0D9
:102B8800030C4CEA020C2CF0F00C1B01DBB243EAFC
:102B98000C0325F40075090201F400712943C3618F
:102BA800016230BC704730B4056A046A24F480546A
:102BB8000462C46924F4407C4CEA022C2CF4704C66
:102BC8001B039BB243EA0C0325F40055090301F4E7
:102BD80000512943C361016230BC7047836823F008
:102BE80070030B4343F007038360704790F83D3050
:102BF800DBB2012B2FD1022380F83D300268D36865
:102C080043F00103D3600368154A934218D002F5D4
:102C18000062934214D0B3F1804F11D0A2F59832DC
:102C280093420DD002F58062934209D002F580628A
:102C3800934205D01A6842F001021A6000207047DA
:102C48009A6802F00702062A07D01A6842F00102C1
:102C58001A6000207047012070470020704700BFAD
:102C6800002C014070470C2914D8DFE801F0071345
:102C780013130A1313130D13131310000368586B5F
:102C880070470368986B70470368D86B7047036890
:102C9800186C70470020704770477047704770B5D0
:102CA80004460368DE681D6915F0020F10D016F09F
:102CB800020F0DD06FF002021A6101230377036837
:102CC8009B6913F0030F5ED002F07CFD002323778D
:102CD80015F0040F12D016F0040F0FD023686FF010
:102CE80004021A610223237723689B6913F4407F47
:102CF8004FD0204602F066FD0023237715F0080F19
:102D080012D016F0080F0FD023686FF008021A616E
:102D1800042323772368DB6913F0030F40D0204690
:102D280002F050FD0023237715F0100F12D016F093
:102D3800100F0FD023686FF010021A610823237751
:102D48002368DB6913F4407F31D0204602F03AFD56
:102D58000023237715F0010F02D016F0010F2DD1B3
:102D680015F0800F02D016F0800F2FD115F0400F0C
:102D780002D016F0400F31D115F0200F02D016F016
:102D8800200F33D170BDFFF787FF2046FFF785FF7F
:102D98009CE72046FFF780FF2046FFF77EFFABE762
:102DA8002046FFF779FF2046FFF777FFBAE720466E
:102DB800FFF772FF2046FFF770FFC9E723686FF03F
:102DC80001021A61204602F031FDC9E723686FF05D
:102DD80080021A61204600F046FBC7E723686FF0BF
:102DE80040021A612046FFF759FFC5E723686FF0D4
:102DF80020021A61204600F035FBC3E70368284A21
:102E0800904212D002F5006290420ED0B0F1804F8D
:102E18000BD0A2F59832904207D002F5806290421A
:102E280003D002F58062904203D123F070034A6810
:102E380013431B4A904212D002F5006290420ED012
:102E4800B0F1804F0BD0A2F59832904207D002F52E
:102E58008062904203D002F58062904203D123F44D
:102E68004073CA68134323F080034A69134303601D
:102E78008B68C3620B688362094B984203D003F5E1
:102E88000063984201D10B6903630123436103691D
:102E980013F0010F03D0036923F0010303617047A6
:102EA800002C014040B310B5044690F83D30F3B112
:102EB800022384F83D30214651F8040BFFF79EFFAA
:102EC800012384F8463084F83E3084F83F3084F893
:102ED800403084F8413084F8423084F8433084F834
:102EE800443084F8453084F83D30002010BD80F827
:102EF8003C3002F011FCDBE70120704740B310B50D
:102F0800044690F83D30F3B1022384F83D30214661
:102F180051F8040BFFF772FF012384F8463084F858
:102F28003E3084F83F3084F8403084F8413084F8EB
:102F3800423084F8433084F8443084F8453084F8CB
:102F48003D30002010BD80F83C30FFF78BFEDBE7FA
:102F58000120704770B4066A046A24F00104046210
:102F68008469154DA84215D005F50065A84211D011
:102F7800B0F1804F0ED0A5F59835A8420AD005F5D6
:102F88008065A84206D005F58065A84202D044F0C5
:102F9800010202E024F00304224322F0F0021B01A4
:102FA800DBB2134326F00A0201F00A0111438361E0
:102FB800016270BC704700BF002C014038B590F822
:102FC8003C30012B5AD004460D46012380F83C3092
:102FD80052B1042A1AD0082A2BD00C2A3BD001203F
:102FE800002384F83C3038BDCB684A68096800681B
:102FF800FFF7B0FF2268936923F00C0393612268FE
:103008009369A9680B4393610020E9E7CB684A6894
:1030180009680068FFF77EFD2268936923F440631E
:10302800936122689369A96843EA012393610020A8
:10303800D6E7CB684A6809680068FFF799FD2268F7
:10304800D36923F00C03D3612268D369A9680B43C1
:10305800D3610020C4E7CB684A6809680068FFF7B5
:10306800A2FD2268D36923F44063D3612268D3693F
:10307800A96843EA0123D3610020B1E70220B2E73F
:1030880010B4846824F47F4C42EA03220A4342EADB
:103098000C02826010BC704790F83C30012B78D04D
:1030A80010B50446012380F83C30022380F83D30F7
:1030B8000268936823F47F4323F0770393600B68D7
:1030C800602B4CD029D8402B54D00CD9502B22D16E
:1030D800CA6849680068FFF70BFD50212068FFF7B0
:1030E8007DFD002005E0202B0DD009D9302B0AD01A
:1030F8000120012384F83D30002384F83C3010BDC2
:103108000BB1102B05D119462068FFF767FD002089
:10311800EFE70120EDE70120EBE7B3F5805F34D05E
:10312800B3F5005F0CD1CB684A6889680068FFF77F
:10313800A7FF2268936843F4804393600020D8E790
:10314800702B24D1CB684A6889680068FFF798FF1C
:103158002268936843F0770393600020C9E7CA6840
:1031680049680068FFF7F1FC60212068FFF736FD29
:103178000020BEE7CA6849680068FFF7B9FC40212B
:103188002068FFF72BFD0020B3E70020B1E70120FE
:10319800AFE70220704701F01F01012303FA01FC89
:1031A800036A23EA0C030362036A02FA01F10B4380
:1031B8000362704710B504460B4609BB90F83E0001
:1031C800C0B26BBB94F84220D2B2012840F09C8078
:1031D800012A40F09A809BBB022184F83E10002B04
:1031E8003ED1022184F842100C2B00F28F80DFE8D8
:1031F80003F0478D8D8D6E8D8D8D748D8D8D7A003C
:10320800042905D0082907D090F84100C0B2D8E7B2
:1032180090F83F00C0B2D4E790F84000C0B2D0E7C1
:10322800042B05D0082B07D094F84520D2B2CCE760
:1032380094F84320D2B2C8E794F84420D2B2C4E745
:10324800042B05D0082B07D0022184F84110C6E7CB
:10325800022184F83F10C2E7022184F84010BEE73B
:10326800042B05D0082B07D0022184F84510BBE7B2
:10327800022184F84310B7E7022184F84410B3E729
:103288002168CA6842F00202CA6001221946206811
:10329800FFF781FF23681F4A93422AD002F5006294
:1032A800934226D0B3F1804F23D0A2F598329342AF
:1032B8001FD002F5806293421BD002F580629342D0
:1032C80017D01A6842F001021A6000201DE0216838
:1032D800CA6842F00402CA60D7E72168CA6842F0A7
:1032E8000802CA60D1E72168CA6842F01002CA60C1
:1032F800CBE79A6802F00702062A09D01A6842F05A
:1033080001021A60002000E0012010BD1046FCE711
:103318000020FAE7002C014038B505460C460C2978
:1033280060D8DFE801F0075F5F5F2A5F5F5F305FAB
:103338005F5F36000268D36823F00203D36000227F
:1033480021462868FFF727FF2B68196A41F21112F6
:10335800114208D1196A40F24442114203D11A6855
:1033680022F001021A60D4B9012385F83E3034BB3B
:10337800012385F84230002035E00268D36823F045
:103388000403D360DBE70268D36823F00803D36043
:10339800D5E70268D36823F01003D360CFE7042C85
:1033A80005D0082C07D0012385F84130DFE7012339
:1033B80085F83F30DBE7012385F84030D7E7042C58
:1033C80006D0082C09D0012385F8453000200AE0F2
:1033D800012385F84330002005E0012385F84430B7
:1033E800002000E0012038BD90F83C30012B34D09B
:1033F80010B4012380F83C30022380F83D30036884
:103408005A689C6822F0700C0A6842EA0C025A60FA
:103418000368134A934212D002F5006293420ED019
:10342800B3F1804F0BD0A2F59832934207D002F542
:103438008062934203D002F58062934204D124F063
:1034480080044A6814439C60012380F83D300023BF
:1034580080F83C30184610BC70470220704700BF07
:10346800002C014070477047026802F10C0353E8D2
:10347800003F23F490730C3242E800310029F3D165
:10348800026802F1140353E8003F23F001031432E9
:1034980042E800310029F3D1036B012B05D020232A
:1034A80080F84230002303637047026802F10C037E
:1034B80053E8003F23F010030C3242E800310029A2
:1034C800F3D1ECE790F84130DBB2212B01D0022098
:1034D80070478368B3F5805F17D0036A5A1C02628D
:1034E8001A7803685A60C38C9BB2013B9BB2C384B1
:1034F8004BB90268D36823F08003D3600268D368AD
:1035080043F04003D360002070470369002BE4D1E7
:10351800036A1B880268C3F308035360036A023313
:103528000362E0E710B504460268136923F44053C8
:10353800C1680B43136183680269134342691A43E4
:103548000168CB6823F4B05323F00C031343CB601A
:103558000268536923F4407381690B43536102681D
:10356800134B9A4220D0FEF7D9FD024602EB8202A5
:1035780002EB820263689B00B2FBF3F20D48A0FBEA
:1035880002314909642303FB11231B013233A0FBD9
:1035980003235B0903F0F00202EB011203F00F03AF
:1035A800216813448B6010BDFEF7C8FD0246DDE7B5
:1035B800003801401F85EB512DE9F04383B00546E3
:1035C8000E4617469946DDF828802C68246836EAA6
:1035D80004030CBF4FF0010C4FF0000CBC4528D180
:1035E800B8F1FF3FF1D0FEF77BFAA0EB09004045A8
:1035F80023D8B8F1000F22D02B68DA6812F0040F34
:10360800E3D0802EE1D0402EDFD01A6812F0080FE8
:10361800DBD0002401941A6801925B680193019B36
:103628002846FFF721FF08236B6485F840400120F6
:1036380000E0002003B0BDE8F0830320FAE7032090
:10364800F8E760B310B5044690F8413013B324236B
:1036580084F841302268D36823F40053D3602046AD
:10366800FFF760FF2268136923F49043136122680F
:10367800536923F02A0353612268D36843F4005343
:10368800D36000206064202384F8413084F84230FD
:10369800606310BD80F8403000F06EFBD7E7012072
:1036A80070472DE9F04182B01E4690F84130DBB2F8
:1036B800202B56D104460D469046002955D00AB90C
:1036C80001204FE000234364212380F84130FEF7B6
:1036D80007FA0746A4F82480A4F82680A368B3F55F
:1036E800805F02D04FF0000814E023692BB34FF03D
:1036F80000080FE0202384F84130032032E038F836
:10370800023B2268C3F308035360E28C92B2013A89
:1037180092B2E284E38C9BB293B100963B460022BE
:1037280080212046FFF748FF0028E3D1002DE6D08E
:1037380015F8012B23685A60E7E7A8460025E9E752
:1037480000963B46002240212046FFF735FF18B976
:10375800202384F8413005E0202384F841300320F9
:1037680000E0022002B0BDE8F0810120FAE77047CE
:1037780008B50168CA6822F04002CA60202280F8B1
:103788004120FFF7F4FF002008BD704708B5406AE4
:103798000023C385C384FFF7F8FF08BD704790F87E
:1037A8004230DBB2222B69D18368B3F5805F4FD0FA
:1037B800826AB3F5805F04D0002B56D10369002BD1
:1037C80053D103685B681370836A01338362C38DC6
:1037D8009BB2013B9BB2C385002B51D100B583B08E
:1037E8000268D36823F02003D3600268D36823F407
:1037F8008073D3600268536923F001035361202367
:1038080080F8423000234363036B012B33D100233C
:103818000363026802F10C0353E8003F23F010032E
:103828000C3242E800310029F3D103681A6812F01B
:10383800100F06D0002201921A6801925B6801936A
:10384800019B818DFFF7AAFF002003B05DF804FB00
:103858000269002AACD1826A03685B68C3F3080373
:103868001380836A02338362B1E703685B6803F0FD
:103878007F031370A8E700F01BFEE5E702207047FE
:103888000020704730B583B0044602681368D068DA
:10389800516913F00F0505D113F0200F02D010F075
:1038A800200F19D12DB111F0010119D110F4907F19
:1038B80016D1216B01297DD013F0800F03D010F0B1
:1038C800800F40F0188113F0400F03D010F0400F24
:1038D80040F0158103B030BD2046FFF760FFF9E7DF
:1038E80013F0010F06D010F4807F03D0626C42F011
:1038F8000102626413F0040F04D019B1626C42F043
:103908000202626413F0020F04D019B1626C42F033
:103918000402626413F0080F07D010F0200F00D1E2
:1039280019B1626C42F008026264626C002AD1D05C
:1039380013F0200F02D010F0200F29D123685B6903
:1039480003F04003626C12F0080F00D163B3204605
:10395800FFF78AFD23685B6913F0400F20D02268C7
:1039680002F1140353E8003F23F04003143242E805
:1039780000310029F3D1E36B73B1634A5A63E06BFA
:10398800FEF71EFE0028A5D0E06B436B9847A1E721
:103998002046FFF704FFD1E72046FFF7F6FE99E738
:1039A8002046FFF7F2FE95E72046FFF7EEFE0023DC
:1039B80063648FE713F0100F3FF47EAF10F0100F21
:1039C8003FF47AAF0023019313680193536801937E
:1039D800019B536913F0400F51D0E26B13685B6889
:1039E8009BB2002B3FF476AFA18D99427FF672AF60
:1039F800E3859369202B37D0226802F10C0353E842
:103A0800003F23F480730C3242E800310029F3D1DF
:103A1800226802F1140353E8003F23F00103143233
:103A280042E800310029F3D1226802F1140353E877
:103A3800003F23F04003143242E800310029F3D15B
:103A4800202384F8423000232363226802F10C0308
:103A580053E8003F23F010030C3242E800310029FC
:103A6800F3D1E06BFEF788FD02236363A18DE38D3C
:103A78009BB2C91A89B22046FFF790FE2AE7A18DAA
:103A8800E38D9BB2C91A89B2E38D9BB2002B3FF438
:103A980021AF00293FF41EAF226802F10C0353E85E
:103AA800003F23F490730C3242E800300028F3D131
:103AB800226802F1140353E8003F23F00103143293
:103AC80042E800300028F3D1202384F84230002354
:103AD8002363226802F10C0353E8003F23F010032C
:103AE8000C3242E800300028F3D1022363632046F9
:103AF800FFF754FEEEE62046FFF7E4FCEAE6204630
:103B0800FFF736FEE6E600BF9537000890F841302B
:103B180090F842001843704781628285C28500236D
:103B28004364222380F84230036923B10268D368D2
:103B380043F48073D3600268536943F0010353610F
:103B48000268D36843F02003D3600020704708B5AB
:103B580090F84230DBB2202B08D149B10AB90120D4
:103B680008BD00230363FFF7D7FFF9E70220F7E753
:103B78000120F5E77047000010B586B000230293D6
:103B880003930493059303F1804303F504339A697F
:103B980042F080029A619B6903F080030193019BC4
:103BA8000A4C01224FF4C0712046FEF78AFC4FF4FC
:103BB800C07302930123039304930223059302A97C
:103BC8002046FEF757FB06B010BD00BF001C0140A1
:103BD80070B586B000240294039404940594144BA1
:103BE8009A6942F004029A619A6902F0040200920A
:103BF800009A9A6942F008029A619B6903F00803E7
:103C08000193019B10230293012603960325059532
:103C180002A90848FEF72EFB4FF48053029303963F
:103C28000494059502A90448FEF724FB06B070BD6C
:103C38000010024000080140000C014008B50B4884
:103C48000B4B03600B4B436000238360C3604FF44E
:103C58008042026143618361C3610362FDF770FCC6
:103C680000B908BDFDF76AF9FBE700BFA00D002009
:103C780000540040A086010010B586B000230293CE
:103C88000393049305930268114B9A4201D006B03E
:103C980010BD104CA36943F00803A361A36903F0A6
:103CA80008030093009BC02302931223039303236A
:103CB800059302A90848FEF7DDFAE36943F4001307
:103CC800E361E36903F400130193019BDFE700BF9D
:103CD8000054004000100240000C014008B50A489A
:103CE8000A4B03604FF46123436000238360C36081
:103CF80003610C2242618361C361FFF7A2FC00B932
:103D080008BDFDF71BF9FBE7F40D00200038014062
:103D180008B50A480A4B03604FF4E13343600023B7
:103D28008360C36003610C2242618361C361FFF752
:103D380088FC00B908BDFDF701F9FBE73C0E00203F
:103D48000044004008B50A480A4B03604FF4E133C9
:103D5800436000238360C36003610C224261836176
:103D6800C361FFF76EFC00B908BDFDF7E7F8FBE794
:103D7800840E00200048004030B58BB00023069325
:103D880007930893099303684F4A934207D04F4A11
:103D9800934236D04E4A934263D00BB030BD4D4B60
:103DA8009A6942F480429A619A6902F480420092C8
:103DB800009A9A6942F004029A619B6903F004032D
:103DC8000193019B4FF40073069302230793032387
:103DD8000993414D06A92846FEF74CFA4FF4806333
:103DE800069300240794089406A92846FEF742FA89
:103DF800224605212520FEF721FE2520FEF756FE46
:103E0800CBE7344BDA6942F40032DA61DA6902F45A
:103E180000320292029A9A6942F004029A619B69FE
:103E280003F004030393039B0423069302230793DD
:103E380003230993284D06A92846FEF71BFA0823F1
:103E4800069300240794089406A92846FEF712FA58
:103E5800224606212620FEF7F1FD2620FEF726FE43
:103E68009BE71C4BDA6942F48022DA61DA6902F4D2
:103E780080220492049A9A6942F008029A619B6926
:103E880003F008030593059B4FF480630693022310
:103E9800079303230993114D06A92846FEF7EAF96B
:103EA8004FF40063069300240794089406A9284653
:103EB800FEF7E0F9224607212720FEF7BFFD27205D
:103EC800FEF7F4FD69E700BF0038014000440040F8
:103ED800004800400010024000080140000C01406A
:103EE8000FB4F0B583B008AD55F8047B0E4C4FF411
:103EF800967632460021204601F0ECFF01952B46CC
:103F08003A463146204602F065F8204602F034F879
:103F18004FF47A7382B221460448FFF7C2FB03B01C
:103F2800BDE8F04004B070476C140020F40D002088
:103F380070B500252C4606E0324629460C48FFF7A6
:103F4800CFFF01350134272C0DDC0A4A04EB84012C
:103F58008B00D618D35C002BF4D0002CECD106488B
:103F6800FFF7BEFFE8E729460448FFF7B9FF70BD31
:103F7800F4BF00080C00002018C10008FCBF0008AE
:103F880010B588B0174B93E803000690ADF81C10E5
:103F9800090C8DF81E1000220492ADF814208DF83B
:103FA80016204FF47A7302930723019304AB00930E
:103FB800012332210C48FDF7A1FB70B9002408E069
:103FC80004F120036B4413F8101C0848FFF788FF1E
:103FD8000134062CF4DD08B010BD0548FFF780FF5A
:103FE800F9E700BF30C00008A00D002010C000088D
:103FF80018C0000870B505460C4601F0BDFF06461E
:10400800204601F0B9FF864216DB0146002002E097
:104018008B4210D00130731A83420ADB00238B4293
:10402800F6DAC21815F802C0E25C9445F0D1013303
:10403800F5E74FF0FF3070BD4FF0FF30FBE770B58C
:1040480006460C46154601F097FFC2B2A24215D9A2
:10405800A446315D2D2914D0631CC0B2834217DAFF
:10406800302919D1B4449CF80130782B01D0582B51
:1040780016D10234E4B20120844607E0002028600B
:104088004CE00134E4B200204FF0FF3C002312E082
:1040980000204FF0010CF9E700204FF0010CF5E784
:1040A80000204FF0010CF1E703EB83030EEB430311
:1040B800303B0134E4B294422CD216F804E0AEF15D
:1040C8003001C9B2092905D80028EDD00EEB031339
:1040D800303BEEE7AEF16101C9B2052907D818B146
:1040E8000EEB0313573BE4E700232B6016E0AEF119
:1040F8004101C9B2052907D818B10EEB0313373BA4
:10410800D7E700232B6009E0BEF1200F02D0BEF1F3
:104118002C0FCED10CFB03F32B60012070BD0000E7
:1041280030B58BB0054600230893ADF824308DF8E0
:10413800263007934549FFF75DFF0446B0F1FF3F7E
:104148000BD1B4F1FF3F11D0079999B1B2293AD0F8
:104158003F48FFF7C5FE0BB030BD043407AAE1B2F3
:104168002846FFF76CFF0028EBD1F4E73848FFF743
:10417800B7FEF0E7072308AAC9B2642000F020FDC3
:10418800A8B99DF823309DF822209DF821109DF8AC
:10419800200003900291019200939DF824309DF82D
:1041A80025209DF826102B48FFF79AFED3E7082311
:1041B80008AA9DF81C10642000F002FD014626485C
:1041C800FFF78EFEC7E7082308AAC9B2642000F0EB
:1041D800F7FCC0B99DF823309DF824209DF82510E0
:1041E8009DF826009DF827400494039002910192BF
:1041F80000939DF822309DF821209DF82010174843
:10420800FFF76EFEA7E7082308AA9DF81C10D02028
:1042180000F0D6FC00289ED19DF823309DF824207C
:104228009DF825109DF826009DF8274004940390DA
:104238000291019200939DF822309DF821209DF86B
:1042480020100648FFF74CFE85E700BF38C000087D
:1042580040C0000850C0000880C0000898C000088E
:1042680010B586B00446002303930493ADF81430C8
:1042780002936949FFF7BEFEB0F1FF3F5ED167497F
:104288002046FFF7B7FEB0F1FF3F6CD164492046E6
:10429800FFF7B0FEB0F1FF3F7AD162492046FFF741
:1042A800A9FEB0F1FF3F40F088805F492046FFF744
:1042B800A1FEB0F1FF3F40F095805C492046FFF732
:1042C80099FEB0F1FF3F12D0043002AAC1B22046D5
:1042D800FFF7B5FE80B3029A554981FB0231D31727
:1042E800C3EB6113642101FB13238DF812309DF891
:1042F80012308DF800309DF811308DF801309DF89E
:1043080010308DF8023000218DF803109DF80E3022
:104318008DF804309DF80D308DF805309DF80C307F
:104328008DF8063007236A46642000F01BFC00283D
:104338006DD14048FFF7D4FD06B010BD053002AA84
:10434800C1B22046FFF77BFE0028F5D0029A384913
:1043580081FB0231D317C3EB6113642101FB1323E3
:104368008DF80C308BE7043002AAC1B22046FFF763
:1043780066FE0028E0D0029A2D4981FB0231D3174E
:10438800C3EB6113642101FB13238DF80D307DE726
:10439800043002AAC1B22046FFF751FE0028CBD054
:1043A800029A234981FB0231D317C3EB61136421BD
:1043B80001FB13238DF80E306FE7053002AAC1B256
:1043C8002046FFF73CFE0028B6D0029A184981FB28
:1043D8000231D317C3EB6113642101FB13238DF85A
:1043E800103062E7043002AAC1B22046FFF727FE68
:1043F8000028A1D0029A0E4981FB0231D317C3EBE2
:104408006113642101FB13238DF8113055E70A4825
:10441800FFF766FD90E700BFC0C00008C8C00008ED
:10442800D0C00008D8C00008E0C00008E8C00008F4
:104438001F85EB51F0C0000804C10008F8B5064616
:104448000D4614461F46084601F096FDA04213DDAE
:104458004FF0000CBC450ADA0CEB040E864506DA70
:1044680015F80EE006F80CE00CF1010CF2E7002359
:1044780006F80C300120F8BD4FF0FF30FBE710B50F
:1044880090B00446002100913C2201A801F022FDD1
:10449800204601F071FDA0F10B030B22214668466E
:1044A800FFF7CCFF684600F003FC10B010BD000019
:1044B80010B5044602683D4B9A4208D022683C4B2E
:1044C8009A4223D022683B4B9A424CD010BD3A4BBB
:1044D8001B88C72B09D8394A127832B9384A11785B
:1044E800384AD1540133344A1380334B1B88C72BC5
:1044F80003D8334B1B78202B02D1304B01221A7082
:1045080001222F493048FFF722FBD7E72F4B1B88A2
:104518003BB92F4A1278202A1FD00D2A1DD00A2A0B
:104528001BD0C72B09D82B4A127832B9284A1178E0
:10453800294AD1540133254A1380244B1B88C72BA1
:1045480002D8234B1B7813B9224B01221A7001227F
:104558001F492248FFF7FBFAB4E701221C491F480C
:10456800FFF7F5FAB2E71E4B1B6840F2FE329342A2
:104578000CD8591C1A4A11601A4A11781A4AD1548F
:10458800012218491948FFF7E2FA9FE70021144B66
:1045980019604FF48062144801F09CFC4FF6FF73D9
:1045A800642213490848FFF77CF8E9E7003801401E
:1045B8000044004000480040A0150020A01300203F
:1045C8009C150020A4130020F40D0020D412002014
:1045D800D0120020D6120020D81200203C0E002055
:1045E800CC120020A2150020CC0E0020840E002042
:1045F8001CC1000808B54FF6FF730A4A12880A4919
:104608000A48FFF74EF80948FFF780FA2128FAD040
:104618000021044B19604FF48062034801F05AFCF2
:1046280008BD00BFCC120020CC0E0020F40D0020E5
:1046380010B58CB00DF1040C0B4C0FCCACE80F008E
:104648000FCCACE80F0094E80700ACE803008CF846
:10465800002001A800F02CFB4FF47A70FDF746FA11
:10466800FFF7C8FF0CB010BD30C1000838B5284BA3
:104678001B7813B9274A128892B1264A128826490C
:1046880009888A4211D924490A80244A00211180C4
:10469800224A1288632A35D8012B32D100240BE034
:1046A8001E4A13801C4A13802BE01C490A880132D9
:1046B8000A80EDE70134E4B2272C12D8184B04EB3A
:1046C800840203EB820113F82230002BF2D0154844
:1046D800FFF790FC0028EDD1134B53F82430114814
:1046E8009847282C10D0C82200210E4801F0F2FB70
:1046F8000023084A1380064A1370084A1380064AA2
:10470800138038BD0024D7E70848FFF7E9FBEAE73C
:10471800A0130020A01500209A1500209E15002047
:104728000C000020A41300202C0300205CC100080A
:1047380008B5184B1B7813B9174A1288FAB1164AEC
:104748001288164909888A421ED914490A80144ACF
:1047580000211180124A1288632A01D8012B0DD139
:10476800C82200210F4801F0B5FB00230A4A138034
:10477800084A13700A4A1380084A138008BD084A79
:104788001380064A1380F9E705490A8801320A802E
:10479800E0E700BFD6120020D412002098150020B0
:1047A800D2120020D812002008B580210348FDF756
:1047B80081FE012800D0002008BD00BF000C014088
:1047C800F0B585B0002400940194029403948023EA
:1047D80000931127019702260396084D694628463B
:1047E800FDF748FD4023009301970294039669461C
:1047F8002846FDF73FFD05B0F0BD00BF000C0140A5
:1048080070B584B00023009301930293039380262C
:104818000096112301930125029502230393194C55
:1048280069462046FDF726FD2A4631462046FDF713
:1048380048FE2A4640212046FDF743FE124B1B88BE
:104848001A46013B002AFBD1FFF7AEFF10B9012041
:1048580004B070BD002280210A48FDF732FE0A4BE1
:104868001B881A46013B002AFBD140210548FDF769
:1048780028FE054B1B881A46013B002AFBD1002065
:10488800E6E700BF000C0140CC03002070B584B0FF
:104898000024009401940294039480260096112326
:1048A80001930123029302230393134D694628467B
:1048B800FDF7E0FC224631462846FDF702FE224677
:1048C80040212846FDF7FDFD0C4B1B881A46013B8D
:1048D800002AFBD1012240210748FDF7F2FD074BD2
:1048E8001B881A46013B002AFBD10122802102487D
:1048F800FDF7E7FD04B070BD000C0140CC030020BB
:1049080010B5104C002280212046FDF7DAFD002268
:1049180040212046FDF7D5FD0B4B1B881A46013B6D
:10492800002AFBD1012240210648FDF7CAFD064BAB
:104938001B881A46013B002AFBD140210148FDF79C
:10494800C0FD10BD000C0140CC03002010B5104C78
:10495800012280212046FDF7B4FD00224021204697
:10496800FDF7AFFD0B4B1B881A46013B002AFBD114
:10497800012240210648FDF7A4FD064B1B881A4674
:10498800013B002AFBD140210148FDF79AFD10BDEB
:10499800000C0140CC03002030B585B00023009303
:1049A8000193029303938023009302230393204CE3
:1049B80069462046FDF75EFC012240212046FDF7AE
:1049C80080FD1C4B1B881A46013B002AFBD1FFF7D0
:1049D800EBFE054620BB002240211548FDF771FD7E
:1049E800144B1B881A46013B002AFBD1104C0122AC
:1049F80080212046FDF765FD002300930193029373
:104A0800039380230093112301930123029302232C
:104A1800039369462046FDF72DFC284605B030BDB6
:104A2800002240210248FDF74CFD0225F5E700BFB2
:104A3800000C0140CC03002038B504460022402178
:104A48001748FDF73EFD00251DE00122802114488E
:104A5800FDF737FD134B1B881A46013B002AFBD193
:104A68006400E4B2012240210D48FDF72AFD0D4BF8
:104A78001B881A46013B002AFBD140210848FDF754
:104A880020FD0135EDB2072D08D814F0800FDCD1D8
:104A9800002280210248FDF714FDDBE738BD00BF86
:104AA800000C0140CC03002070B584B000240094B1
:104AB8000194029403948026009602230393274DC1
:104AC80069462846FDF7D6FB012231462846FDF700
:104AD800F8FC254601E00134E4B2072C1ED8002278
:104AE80040211E48FDF7EDFC6D00EDB21C4B1B8804
:104AF8001A46013B002AFBD1012240211748FDF745
:104B0800E0FC174B1B881A46013B002AFBD1FFF734
:104B18004BFE0028DFD045F00105DCE700224021EC
:104B28000E48FDF7CEFC0E4B1B881A46013B002AA7
:104B3800FBD10023009301930293039380230093F6
:104B48001123019301230293022303936946034827
:104B5800FDF790FB284604B070BD00BF000C014073
:104B6800CC030020F8B504460F4616461D46FFF74D
:104B780047FE10B101273846F8BD2046FFF75CFF15
:104B8800FFF70AFF40B93846FFF756FFFFF704FF63
:104B9800074628B900240EE0FFF778FE0227EAE767
:104BA800FFF774FE0227E6E7305DFFF745FFFFF7E2
:104BB800F3FE0134A4B2AC42F6D3FFF767FEDAE79E
:104BC800F8B504460F4616461D46FFF719FE10B104
:104BD80001273846F8BD2046FFF72EFFFFF7DCFE19
:104BE80080B93846FFF728FFFFF7D6FE074688B991
:104BF800FFF706FE44F00100FFF71EFFFFF7CCFEAB
:104C0800002412E0FFF742FE80211048FDF75FFC08
:104C18000227DEE7FFF73AFE4FF480710B48FDF7F5
:104C280056FC0227D5E70134A4B2AC4208D2FFF7FC
:104C38003BFF30556B1E9C42F5D0FFF761FEF2E753
:104C4800FFF784FEFFF722FEC3E700BF001C014008
:104C580070B586B000240294039404940594124B12
:104C68009A6942F480729A619B6903F48073019394
:104C7800019B4FF4C0430293012603960496022336
:104C880005930A4D02A92846FDF7F4FA32464FF477
:104C980080412846FDF715FC22464FF4005128466E
:104CA800FDF70FFC06B070BD001002400020014067
:104CB80010B5044601F060F94FF6FF7382B2214641
:104CC8000448FEF7EEFC0348FEF720FF2128FAD03F
:104CD80010BD00BF840E002000B585B000230193ED
:104CE800029303931A481B4A02604FF48072826051
:104CF8000122027303754FF46022C26143600223EC
:104D0800036100F0D3F9C8B9112301930123029379
:104D1800042303930DEB03010D4800F0F9F880B963
:104D280010230193022302930523039301A9084842
:104D380000F0EEF840B905B05DF804FBFCF7FEF8AA
:104D4800E2E7FCF7FBF8EBE7FCF7F8F8F3E700BF5E
:104D5800A41500200024014002681B4B9A4200D091
:104D6800704710B582B0044603F56C439A6942F463
:104D780000729A619B6903F400730193019B1348C5
:104D8800134B03600023436083608022C2604FF4AA
:104D9800807202614FF48062426120228261C361A5
:104DA800FDF79EFB60B9094B23625C62002201217A
:104DB8001220FDF743FE1220FDF778FE02B010BD69
:104DC800FCF7BCF8EFE700BF00240140F015002015
:104DD8000800024000B583B00A4B5A6942F001024C
:104DE8005A615B6903F001030193019B002211469C
:104DF8000B20FDF723FE0B20FDF758FE03B05DF8EE
:104E080004FB00BF001002407047704770477047AE
:104E180070B5044603681E685D6815F0200F17D04A
:104E280016F0020F14D0826A12F0100F03D1826AB2
:104E380042F4007282629A6802F46022B2F5602F2E
:104E48003ED0236B2046984723686FF012021A6001
:104E580015F0800F22D016F0040F1FD0A36A13F0AC
:104E6800100F03D1A36A43F40053A3622268936826
:104E780003F4E043B3F5E04F39D0536813F4806F7F
:104E880005D1936803F46023B3F5602F2CD0236C0D
:104E98002046984723686FF00C021A6015F0400FFF
:104EA8000DD016F0010F0AD0A36A43F48033A36231
:104EB800A36B2046984723686FF001021A6070BD03
:104EC800227B002ABDD15A6822F020025A60A36AC8
:104ED80023F48073A362A36A13F4805FB1D1A36A39
:104EE80043F00103A362ACE7237B002BCFD15368C7
:104EF80023F080035360A36A23F48053A362A36A58
:104F080013F4807FC3D1A36A43F00103A362BEE711
:104F180030B482B00022019290F82420012A00F0D7
:104F280091800346012280F824204A68062A2DD859
:104F38000468606B02EB8202053A4FF01F0C0CFA12
:104F480002FC20EA0C000D6805FA02F202436263D3
:104F58000A68092A3AD91C68E06802EB42021E3A3C
:104F68004FF0070C0CFA02FC20EA0C008D6805FAD9
:104F780002F20243E2600A68103A012A36D9002098
:104F8800002283F8242002B030BC70470C2A0ED8C7
:104F98000568286B02EB8202233A1F24944020EA1A
:104FA80004000C6804FA02F202432A63D0E7056899
:104FB800E86A02EB8202413A1F24944020EA040086
:104FC8000C6804FA02F20243EA62C1E71C6820692D
:104FD80002EB42024FF0070C0CFA02FC20EA0C002C
:104FE8008D6805FA02F202432261C4E71A6816487E
:104FF800824205D09A6A42F020029A620120BFE7F5
:10500800906810F4000F1BD1906840F40000906085
:105018000A68102A01D00020B2E70C4A12680C492D
:10502800A1FB0212920C02EB82025200019202E0F2
:10503800019A013A0192019A002AF9D100209FE7CA
:1050480000209DE702209EE7002401400800002080
:1050580083DE1B4338B503689A6812F0010F01D14B
:10506800002038BD04469A6822F001029A60FCF7D5
:1050780037FD054623689B6813F0010F13D0FCF732
:105088002FFD431B022BF5D923689B6813F0010FF2
:10509800F0D0A36A43F01003A362E36A43F001036C
:1050A800E3620120DDE70020DBE70000002800F0D4
:1050B800978070B50446836A93B9C36280F8243038
:1050C800484B0363484B4363484B8363484BC36374
:1050D800484B0364436C002B55D0636C20469847BB
:1050E8002046FFF7B7FFA36A13F0100372D1002818
:1050F80070D1A26A22F4885222F0020242F002021F
:10510800A262626826683C498E423FD0E1690A4340
:10511800217B42EA4102A568B5F5807F02D0012DC6
:105128003BD01D4694F814C0BCF1010F38D071680B
:1051380021F46941294371602568AE682F493140DF
:105148001143A960A168B1F5807F01D0012902D17E
:105158002369013B1B052568E96A21F470010B43AB
:10516800EB6223689968264B0B409A4229D0A36AC0
:1051780023F0120343F01003A362E36A43F0010330
:10518800E36201202BE01F4B4364A6E7E169B1F518
:10519800402FBCD14FF40021B9E74FF48075C1E727
:1051A80031B9A169013945EA413141F40065BEE7E9
:1051B800A16A41F02001A162E16A41F00101E162C6
:1051C800B5E70023E362A36A23F0030343F0010376
:1051D800A36204E0A36A43F01003A362012070BD38
:1051E80001207047114E0008134E0008154E0008A4
:1051F800174E000811520008003C0140FDF7E1FF7E
:10520800FE0E1FFF614D0008704710B50446836805
:1052180000799847E37813F0070F02D02388013309
:105228002380E378B0EBD31F13D01A46C3F3C2032D
:10523800013303F0070363F3C502E270022B0CD9B4
:10524800D3B260F3C713E370DBB26FF3C503E37047
:1052580003E0E3786FF3C503E370E37803F0070333
:10526800052B00F2E480DFE813F00600260050006A
:105278009C00E200C400E378C3F38012B2EBD31FB2
:1052880005D0A378082262F30713A370D3E0A378AC
:105298006FF30713A370E3680BB120469847002308
:1052A8002380A378012262F30303A370E37862F3F7
:1052B8000203E370BFE0E378C3F38012B2EBD31FBD
:1052C80010D0A378012262F30713A37023690BB1EE
:1052D8002046984700232380E378022262F30203E2
:1052E800E370A8E02388C82B40F2A580A3780522A4
:1052F80062F30713A370236A0BB120469847E3783B
:10530800052262F30203E37095E0E378C3F38012A9
:10531800B2EBD31F0FD023883C2B40F28C80A378AC
:1053280003F00F03012B26D0022B2FD0E3786FF365
:105338000203E3707FE0A3786FF30713A370E368B9
:105348000BB120469847A37803F00F030F2B06D024
:10535800A37803F00F02013262F30303A3706369B9
:105368000BB12046984700232380E378032262F399
:105378000203E3705FE0A378032262F30713A370CC
:10538800A369002BD2D020469847CFE7A378042200
:1053980062F30713A370E369002BC7D02046984730
:1053A800C4E7E378C3F38012B2EBD31F18D0A37815
:1053B800012262F30713A37023690BB120469847B3
:1053C80023883B2B07D800232380E378022262F34B
:1053D8000203E3702FE0E3786FF30203E3702AE03F
:1053E80023883C2B27D9E378012262F30203E37078
:1053F80021E0E378C3F38012B2EBD31F0DD0A3787A
:10540800012262F30713A37023690BB12046984762
:10541800E3786FF30203E3700DE0A378062262F3EA
:105428000713A370636A33B12046984703E0E37813
:105438006FF30203E37010BD00B583B0124B9A6995
:1054480042F004029A619A6902F004020092009AFA
:105458009A6942F010029A619B6903F01003019364
:10546800019B012805D0022808D0002003B05DF870
:1054780004FB01210548FDF71DF8F7E74FF400513B
:105488000348FDF717F8F1E7001002400008014053
:105498000010014008B50248FEF722FD08BD00BF14
:1054A80074C1000808B50248FEF71AFD08BD00BF20
:1054B80090C1000808B50248FEF712FD08BD00BFFC
:1054C800A8C1000808B50448FEF70AFD4FF480712A
:1054D8000248FCF7FCFF08BDC0C10008001C0140E1
:1054E80008B50448FEF7FCFC80210348FCF7EFFFF1
:1054F80008BD00BFD8C10008001C0140F8B504462B
:105508000F4615461E462C22002100F0E3FCA37826
:10551800082262F30713A370A760B5FA85F35B0945
:10552800E27863F3C712E270D3B265F38613E370CF
:105538002671F8BD023100EB81004260704700001F
:10554800074B1A68134600E09B6A23B18342FBD1DC
:105558004FF0FF3070478262014B1860002070479F
:105568008C16002010B5054B1C6803E02046FFF799
:105578004CFEA46A002CF9D110BD00BF8C16002087
:1055880070B5174E174C01231A4631462046FFF7CF
:10559800B5FF154D0223012231462846FFF7AEFF1D
:1055A800124A03212046FFF7C5FF114A052120466C
:1055B800FFF7C0FF0F4A04212046FFF7BBFF0E4A42
:1055C80000212846FFF7B6FF0C4A04212846FFF7BA
:1055D800B1FF2046FFF7B4FF2846FFF7B1FF70BDC3
:1055E800415400083416002060160020CD540008ED
:1055F8009D540008AD540008E9540008BD54000843
:1056080000B587B000230293039304930593009396
:10561800019316484FF08042026041F61F424260F3
:1056280083603122C260036180238361FDF73AFC05
:1056380090B94FF48053029302A90C48FDF72CFD52
:1056480068B900230093019369460848FDF7CCFE2A
:1056580040B907B05DF804FBFBF770FCE9E7FBF71E
:105668006DFCEEE7FBF76AFCF3E700BF9816002035
:1056780000B58BB00023069307930893099304930E
:10568800059300930193029303932148214A0260F2
:1056980041F61F424260836042F20F72C2600361AA
:1056A80080238361FDF7FEFB18BB4FF480530693FC
:1056B80006A91748FDF7F0FCF0B91548FDF71EFCE0
:1056C800E8B900230493059304A91148FDF78CFE5B
:1056D800C0B90223009301230193002202920F23F1
:1056E800039369460A48FDF769FC70B90BB05DF889
:1056F80004FBFBF723FCD8E7FBF720FCDDE7FBF70F
:105708001DFCDEE7FBF71AFCE3E7FBF717FCEDE708
:10571800E01600200004004000B589B0002304937F
:105728000593069307930368B3F1804F05D0214A88
:10573800934216D009B05DF804FB03F50433DA6927
:1057480042F00102DA61DB6903F001030193019B76
:10575800002211461C20FDF771F91C20FDF7A6F95F
:10576800E8E7154BDA6942F00202DA61DA6902F019
:1057780002020292029A9A6942F010029A619B69A7
:1057880003F010030393039B4023049304A90B48DD
:10579800FCF770FD0A4A536843F0E06343F4406342
:1057A8005360002211461D20FDF748F91D20FDF722
:1057B8007DF9BFE7000400400010024000100140DE
:1057C80000000140164B834200D0704710B5154BBE
:1057D8001B7813B1012B14D010BD114C00212046A9
:1057E800FDF741FA104B188023681A6A22F00A0262
:1057F8001A621A6A42F002021A620A4B01221A70ED
:10580800EAE7074C00212046FDF72DFA064B5880A1
:1058180000212046FDF780FD024B02221A70DBE7CB
:10582800E0160020281700209016002010B5044626
:10583800074B984203D0074B9C4203D010BDFFF79B
:1058480091FEF8E7044A138801331380F6E700BF96
:1058580098160020E01600209416002008B50F487E
:105868000F4B03604FF48273436000238360C3606F
:1058780002220261012242614FF400728261102209
:10588800C2610362436283620A23C36200F052F971
:1058980000B908BDFBF752FBFBE700BF2C1700203F
:1058A8000030014008B50F480F4B03604FF4827376
:1058B800436000238360C3600222026101224261C7
:1058C8004FF4007282612022C261036243628362E4
:1058D8000A23C36200F02EF900B908BDFBF72EFBBE
:1058E800FBE700BF841700200038004010B588B0DF
:1058F8000023049305930693079303682C4A934265
:1059080004D02C4A934229D008B010BD2A4B9A697A
:1059180042F480529A619A6902F480520092009A85
:105928009A6942F004029A619B6903F004030193A7
:10593800019BA023049302230593032307931F4C81
:1059480004A92046FCF796FC402304930023059302
:10595800069304A92046FCF78DFCD5E7164BDA69B7
:1059680042F48042DA61DA6902F480420292029AD1
:105978009A6942F008029A619B6903F0080303934D
:10598800039B4FF4204304930223059303230793B7
:105998000B4C04A92046FCF76DFC4FF4804304939C
:1059A80000230593069304A92046FCF763FCABE7A4
:1059B800003001400038004000100240000801405B
:1059C800000C014010B584B09F238DF80F300022E1
:1059D80002920F4C10212046FCF773FD4FF47A73A6
:1059E8000093042302AA0DF10F010A4800F0FDF804
:1059F800012210212046FCF764FD9DF80B309DF82C
:105A08000A209DF809100448FEF76AFA04B010BD90
:105A1800000801402C170020ECC100082DE9F047D0
:105A280082B00546884617461E46FCF759F80A9B79
:105A38001B1A03EB0609FCF753F882462B4B1B682D
:105A4800C3F3CB3309FB03F301932B689C6838EA53
:105A580004030CBF4FF0010C4FF0000CBC4540D0C4
:105A6800B6F1FF3FF1D0FCF73BF8A0EB0A00484540
:105A78000AD2B9F1000F07D0019A02B14A46019B38
:105A8800013B01939146E0E72A68536823F0E0035D
:105A980053606B68B3F5827F0BD0AB6AB3F5005FD8
:105AA80014D0012385F85130002385F850300320A5
:105AB80018E0AB68B3F5004F02D0B3F5806FECD1B6
:105AC8002A68136823F040031360E6E72A6813681E
