:020000040800F2
:1000000000000120E578000855090008570900089C
:10001000590900085B0900085D090008000000009C
:100020000000000000000000000000005F09000860
:100030006109000800000000630900086509000864
:100040002D7900082D7900082D7900082D790008F8
:100050002D7900082D7900082D7900082D790008E8
:100060002D7900082D7900082D7900082D790008D8
:100070002D7900082D7900082D7900082D790008C8
:100080002D7900082D7900082D7900082D790008B8
:100090002D7900082D7900082D7900082D790008A8
:1000A0002D7900082D7900082D7900082D79000898
:1000B0002D7900082D7900082D7900082D79000888
:1000C0002D7900082D7900082D7900082D79000878
:1000D0002D7900086D0900087D0900082D790008B8
:1000E0002D7900082D7900082D7900082D79000858
:1000F0002D7900082D7900082D7900082D79000848
:100100002D7900082D7900082D7900082D79000837
:100110002D7900082D7900082D7900082D79000827
:100120002D7900082D7900082D7900082D79000817
:1001300000000000000000000000000000000000BF
:1001400000000000000000000000000000000000AF
:10015000000000000000000000000000000000009F
:10016000000000000000000000000000000000008F
:10017000000000000000000000000000000000007F
:10018000000000000000000000000000000000006F
:10019000000000000000000000000000000000005F
:1001A000000000000000000000000000000000004F
:1001B000000000000000000000000000000000003F
:1001C000000000000000000000000000000000002F
:1001D000000000000000000000000000000000001F
:0401E0005FF8E0F1F3
:1001E40010B5054C237833B9044B13B10448AFF36D
:1001F40000800123237010BDB40300200000000020
:10020400AC84000808B5034B1BB103490348AFF3A2
:10021400008008BD00000000B8030020AC84000882
:10022400034613F8012B002AFBD1181A0138704732
:100234000FB4F0B583B008AD55F8047B0E4C4FF401
:10024400807632460021204607F0B0FB01952B460C
:100254003A463146204607F0CDFC2046FFF7E0FF42
:100264004FF47A7382B22146044802F0A0FA03B034
:10027400BDE8F04004B07047BC2700209004002083
:1002840072B6FEE700B597B0282200210CA807F04B
:100294008DFB00230793089309930A930B9301930F
:1002A400029303930493059306930D230C934FF445
:1002B40080320D920123109312930F930223139310
:1002C40014924FF4E01315930CA800F0F3FBC8B993
:1002D4000F23079302210891002309934FF48062AE
:1002E4000A920B9307A800F017FE68B90123019343
:1002F4004FF48073029301A800F0EAFE30B917B0FE
:100304005DF804FBFFF7BCFFFFF7BAFFFFF7B8FF88
:1003140010B582B000F080FBFFF7B4FF00F042F8A4
:1003240000F072F800F0DCF800F092F900F0ECF95B
:1003340000F004FA02F0BAFD01221449144802F054
:1003440086FC144A14491548FFF772FF002402E0A2
:1003540000F080FB044600F07DFBA042FBD006F0D9
:1003640027FF07F069FA0E4BA3FB04239B094FF404
:100374007A7202FB1343002BEAD10DF105020DF151
:1003840006010DF1070000F037F9E1E7BE2800206F
:1003940090040020C8840008D4840008E084000885
:1003A400D34D621030B587B00024029403940494B2
:1003B4000594134B9A6942F004029A619A6902F017
:1003C40004020092009A9A6942F008029A619B69B9
:1003D40003F008030193019B0A4D2246102128468D
:1003E40001F09CF810230293012303930494022345
:1003F400059302A9284600F071FF07B030BD00BF85
:10040400001002400008014008B50B480B4B036084
:100414000B4B436000238360C3604FF4804202614E
:1004240043618361C361036201F0CAF900B908BD85
:10043400FFF726FFFBE700BFD00300200054004075
:10044400A086010010B586B00023029303930493A1
:1004540005930268114B9A4201D006B010BD104CAE
:10046400A36943F00803A361A36903F0080300939D
:10047400009BC0230293122303930323059302A931
:10048400084800F02BFFE36943F40013E361E369D8
:1004940003F400130193019BDFE700BF0054004005
:1004A40000100240000C0140054B5B6813F0200F64
:1004B400FAD0034A536843F010035360704700BFF7
:1004C40000280040054A536823F010035360034B8F
:1004D4005B6813F0200FFAD0704700BF002800407B
:1004E40030B589B0304A136A43F0010313622E4BCE
:1004F4001B6A13F0020FFAD00024029403940494AC
:10050400059406940794012302934FF48075039590
:1005140002A800F0DDFDADF804408DF8064000941B
:100524002248234B03604FF0FF334360856001F0A2
:10053400D7FB80BB1F4B5A6845F65A239A4228D0F2
:10054400FFF7B2FF1A4B00249C6047F6FF72DA6093
:10055400FFF7B8FF174B45F65A225A608DF804404E
:100564008DF805408DF80640224601A90F4801F098
:10057400D0FA98B901238DF800308DF801308DF848
:10058400023000228DF803206946084801F022FB5E
:1005940038B909B030BDFFF773FECBE7FFF770FE43
:1005A400E8E7FFF76DFEF4E70010024024040020A2
:1005B40000280040006C004002680C4B9A4200D0B6
:1005C400704700B583B001F0F5F8094BDA6942F0E1
:1005D4000062DA61DB6903F000630193019B054B60
:1005E4000122C3F83C2403B05DF804FB002800405A
:1005F400001002400000424210B5124B9C69DB69B6
:1006040043EA044E104BA3FB0E4C4FEA5C1C6446B9
:10061400CCEB0C1CAEEB8C0C82F800C0A3FB0423C7
:100624005B091A46C3EB0313A4EB83030B70074B5C
:10063400A3FB02131B0903EB4303A2EBC3030370E5
:1006440010BD00BF0028004089888888ABAAAAAAE8
:1006540008B50E480E4B03604FF4827343600023C9
:100664008360C360036143614FF4007282611822A6
:10067400C2610362436283620A23C36201F04EFCD7
:1006840000B908BDFFF7FCFDFBE700BF38040020FC
:100694000030014010B586B0002302930393049305
:1006A40005930268164B9A4201D006B010BD03F5BB
:1006B40060439A6942F480529A619A6902F48052C2
:1006C4000092009A9A6942F004029A619B6903F0CD
:1006D40004030193019BA0230293022303930323A6
:1006E4000593084C02A9204600F0F8FD402302932C
:1006F40000230393049302A9204600F0EFFDD4E7FE
:10070400003001400008014008B50A480A4B036064
:100714004FF4E133436000238360C36003610C2220
:1007240042618361C36102F012F800B908BDFFF7AA
:10073400A7FDFBE7900400200038014008B50F48EE
:100744000F4B03604FF4E133436000238360C360C5
:1007540003610C2242618361C36101F0F8FF48B96F
:100764000849B1F800319BB201221944034802F050
:100774006EFA08BDFFF784FDF2E700BFD80400203D
:100784000044004020050020E0B1104BB3F80021E4
:1007940092B2B3F802319BB29A4215D00B4AB2F826
:1007A40002319BB2D35C0370B2F802319BB20133C5
:1007B4005942DBB2C9B258BF4B429BB2A2F80231D4
:1007C400012070470020704700207047200500205A
:1007D4002DE9F04182B080460E460A46002107F01A
:1007E400E5F800273D463C4605E00135012000F0D0
:1007F40037F9C82D29D8731E9C4226DA0DF107005B
:10080400FFF7C2FF0028F0D02CB99DF807300D2B5C
:1008140013D00A2B13D09DF807300D2B01D00A2BCF
:1008240000D197B90D2B0CD00A2B0CD0621C08F800
:10083400043094B201270025DDE70025DBE700251D
:10084400D9E70025D7E70025D5E7002308F80430C9
:1008540007B91C46204602B0BDE8F08130B589B026
:10086400002304930593069307930368344A934241
:1008740004D0344A934233D009B030BD324B9A6924
:1008840042F480429A619A6902F480420092009A8A
:100894009A6942F004029A619B6903F0040301938C
:1008A400019B4FF4007304930223059303230793DE
:1008B400264D04A9284600F011FD4FF480630493EB
:1008C40000240594069404A9284600F007FD224656
:1008D4002146252000F014FF252000F049FFCBE736
:1008E400194BDA6942F40032DA61DA6902F400324F
:1008F4000292029A9A6942F004029A619B6903F097
:1009040004030393039B0423049302230593032307
:1009140007930E4D04A9284600F0E0FC0823049335
:1009240000240594069404A9284600F0D7FC224626
:100934000121262000F0E4FE262000F019FF9BE7A9
:10094400003801400044004000100240000801400B
:10095400FEE7FEE7FEE7FEE7FEE7704770477047F5
:1009640008B500F06BF808BD08B5024802F010F8AD
:1009740008BD00BF9004002008B5024802F008F842
:1009840008BD00BFD804002082B00E4B9A6942F023
:1009940001029A619A6902F001020092009ADA69EE
:1009A40042F08052DA61DB6903F080530193019BCA
:1009B400054A536823F0E06343F00073536002B0C8
:1009C400704700BF001002400000014010B504460B
:1009D4000E4B18784FF47A73B3FBF0F30C4A10689B
:1009E400B0FBF3F000F0D2FE68B90F2C01D901205E
:1009F4000AE0002221464FF0FF3000F081FE054B53
:100A04001C60002000E0012010BD00BF0000002099
:100A1400080000200400002008B5074A136843F0CA
:100A240010031360032000F059FE0F20FFF7CEFFE0
:100A3400FFF7AAFF002008BD00200240034A116806
:100A4400034B1B780B441360704700BF240600203F
:100A540000000020014B1868704700BF24060020E6
:100A640038B50446FFF7F6FF0546B4F1FF3F02D060
:100A7400044B1B781C44FFF7EDFF401BA042FAD344
:100A840038BD00BF0000002082B0084B1B68084A34
:100A9400A2FB03235B0A00FB03F3019300BF019B4A
:100AA4005A1E0192002BF9D102B0704708000020B1
:100AB400D34D6210002800F0F18170B582B0044675
:100AC400036813F0010F2CD0994B5B6803F00C03FF
:100AD400042B1DD0964B5B6803F00C03082B12D03B
:100AE4006368B3F5803F41D0002B55D103F18043B7
:100AF40003F504331A6822F480321A601A6822F467
:100B040080221A6037E08A4B5B6813F4803FE7D099
:100B1400874B1B6813F4003F03D06368002B00F07D
:100B2400BF81236813F0020F75D0814B5B6813F00B
:100B34000C0F5FD07E4B5B6803F00C03082B54D082
:100B44002369002B00F08A807A4B01221A60FFF798
:100B540081FF0546764B1B6813F0020F75D1FFF732
:100B640079FF401B0228F5D903209EE1704A1368DF
:100B740043F480331360636843B3FFF76BFF0546A8
:100B84006B4B1B6813F4003FCBD1FFF763FF401B93
:100B94006428F5D9032088E1B3F5A02F09D0644B6C
:100BA4001A6822F480321A601A6822F480221A60C9
:100BB400E1E703F18043A3F53C331A6842F4802251
:100BC4001A601A6842F480321A60D4E7FFF742FFD1
:100BD4000546574B1B6813F4003FA2D0FFF73AFFBA
:100BE400401B6428F5D903205FE1514B5B6813F483
:100BF400803FA5D14E4B1B6813F0020F03D023692D
:100C0400012B40F04F814A4A136823F0F8036169CD
:100C140043EAC1031360236813F0080F33D0A369B8
:100C2400002B5CD0434B0122C3F88024FFF712FF52
:100C340005463F4B5B6A13F0020F21D1FFF70AFF11
:100C4400401B0228F5D903202FE1394A136823F009
:100C5400F803616943EAC1031360DCE7354B002202
:100C64001A60FFF7F7FE0546314B1B6813F0020FBD
:100C7400D1D0FFF7EFFE401B0228F5D9032014E181
:100C84000120FFF701FF236813F0040F00F09680A2
:100C9400274BDB6913F0805F34D1254BDA6942F0CE
:100CA4008052DA61DB6903F080530193019B0125D3
:100CB400214B1B6813F4807F26D0E368012B3DD0C1
:100CC400002B53D103F1804303F504331A6A22F055
:100CD40001021A621A6A22F004021A6233E0154B06
:100CE4000022C3F88024FFF7B5FE0546104B5B6A6B
:100CF40013F0020FC7D0FFF7ADFE401B0228F5D951
:100D04000320D2E00025D3E70B4A136843F4807331
:100D14001360FFF79FFE0646074B1B6813F4807FA2
:100D2400CBD1FFF797FE801B6428F5D90320BCE0E4
:100D34000010024000004242007000405F4A136A03
:100D440043F001031362E36833B3FFF783FE0646FF
:100D54005A4B1B6A13F0020F2FD1FFF77BFE801B47
:100D640041F288339842F3D903209EE0052B09D041
:100D7400524B1A6A22F001021A621A6A22F0040221
:100D84001A62E0E74D4B1A6A42F004021A621A6AC8
:100D940042F001021A62D6E7FFF75CFE0646474BB3
:100DA4001B6A13F0020F08D0FFF754FE801B41F2B8
:100DB40088339842F3D9032077E0E5B9E369002B3F
:100DC40072D03E4A526802F00C02082A56D0022B16
:100DD40017D03B4B00221A66FFF73CFE0446374B04
:100DE4001B6813F0007F47D0FFF734FE001B022876
:100DF400F5D9032059E0314AD36923F08053D361F4
:100E0400DCE72F4B00221A66FFF724FE05462B4B26
:100E14001B6813F0007F06D0FFF71CFE401B02285E
:100E2400F5D9032041E0236AB3F5803F1AD0234962
:100E34004B6823F47413226A606A024313434B60C1
:100E44001F4B01221A66FFF705FE04461B4B1B6865
:100E540013F0007F0ED1FFF7FDFD001B0228F5D92A
:100E6400032022E0154A536823F40033A1680B439E
:100E74005360DCE7002018E0002016E0012B16D0B8
:100E84000E4B5B6803F48031226A914211D103F462
:100E94007013626A93420ED1002006E0012070476D
:100EA400012002E0012000E0002002B070BD01201A
:100EB400FBE70120F9E70120F7E700BF001002403B
:100EC400000042420F4B5B6803F00C02082A01D079
:100ED4000D487047C3F383420C49885C13F4803F88
:100EE4000BD0084B5B68C3F34043094AD35C064A02
:100EF40002FB00F0B0FBF3F07047064B03FB00F07D
:100F0400704700BF0010024000127A0000850008FC
:100F14001085000800093D00002800F0A08070B58D
:100F24000D460446524B1B6803F007038B420BD259
:100F34004F4A136823F007030B431360136803F04D
:100F440007038B4240F08D80236813F0020F17D003
:100F540013F0040F04D0474A536843F4E06353602A
:100F6400236813F0080F04D0424A536843F46053D3
:100F74005360404A536823F0F003A1680B43536065
:100F8400236813F0010F31D06368012B20D0022BAA
:100F940025D0384A126812F0020F64D035494A68E5
:100FA40022F0030213434B60FFF754FD0646314B16
:100FB4005B6803F00C036268B3EB820F16D0FFF793
:100FC40049FD801B41F288339842F0D9032045E063
:100FD400284A126812F4003FE0D101203EE0254A7D
:100FE400126812F0007FD9D1012037E0204B1B6832
:100FF40003F00703AB420AD91D4A136823F0070321
:101004002B431360136803F00703AB422DD123680D
:1010140013F0040F06D0174A536823F4E063E16821
:101024000B435360236813F0080F07D0114A536829
:1010340023F46053216943EAC1035360FFF742FF7D
:101044000C4B5B68C3F303130B4AD35CD8400B4BC4
:1010540018600B4B1868FFF7B9FC002070BD012025
:1010640070470120FAE70120F8E70120F6E700BF06
:1010740000200240001002402885000808000020DB
:1010840004000020014B1868704700BF08000020CE
:1010940008B5FFF7F7FF044B5B68C3F30223034A69
:1010A400D35CD84008BD00BF00100240388500085A
:1010B40008B5FFF7E7FF044B5B68C3F3C223034A99
:1010C400D35CD84008BD00BF00100240388500083A
:1010D40070B582B00446036813F0010F36D03F4B5D
:1010E400DB6913F0805F49D13C4BDA6942F08052EE
:1010F400DA61DB6903F080530193019B0125384BCE
:101104001B6813F4807F3BD0344B1B6A13F4407389
:1011140013D0626802F440729A420ED02F4A136AC6
:1011240023F440702F490126C1F840640026C1F819
:101134004064106213F0010F36D1284A136A23F475
:10114400407361680B431362002D3ED1236813F092
:10115400020F06D0214A536823F44043A1680B438D
:101164005360236813F0100F34D01C4A536823F4DF
:10117400800361690B43536000202CE00025BEE727
:10118400174A136843F480731360FFF763FC064641
:10119400134B1B6813F4807FB6D1FFF75BFC801BF5
:1011A4006428F5D9032016E0FFF754FC06460B4BE0
:1011B4001B6A13F0020FC0D1FFF74CFC801B41F2F5
:1011C40088339842F3D9032005E0D36923F0805390
:1011D400D361BBE7002002B070BD00BF0010024025
:1011E400007000400000424208B501380F2863D85F
:1011F400DFE800F03557622F626262326262626237
:10120400626262082F4B5A68186810F0807054D0DC
:10121400C2F383432C49C85C12F4803F15D0294B98
:101224005B68C3F34043294AD25C294BB3FBF2F316
:1012340003FB00F0234B5B6813F4800F3DD14000A7
:10124400244BA3FB0030400837E0234B03FB00F0A2
:10125400F0E7FFF737FE30E0FFF734FE2DE0194BDF
:101264001B6A40F202321A40B2F5817F26D003F4A1
:101274004073B3F5007F04D0B3F5407F09D000205C
:101284001BE0104A526A12F0020FF5D049F64040B2
:1012940013E00C4B186810F400300ED04FF22440C9
:1012A4000BE0FFF705FF074B5B68C3F381330133A2
:1012B4005B00B0FBF3F000E0002008BD4FF40040F9
:1012C400FBE700BF001002401485000824850008D5
:1012D40000127A00ABAAAAAA00093D0070B582B038
:1012E4000024A446B0E0874DAA4210D007D9864D09
:1012F400AA420CD005F58035AA4208D013E0A5F522
:101304008015AA4203D005F57025AA4207D18A6840
:10131400002A62D0012A5BD04361082403E0A5F5CA
:101324008015AA42F3D0BEF1FF0F58D80646BEF18D
:10133400FF0F56D84FEA8C0233680F25954023EAF5
:10134400050304FA02F2134333604B6813F0805F21
:1013540078D06E4B9A6942F001029A619B6903F05E
:1013640001030193019B4FEA9C02951C684B53F8BF
:1013740025600CF003039D000F23AB4026EA03060F
:10138400644B984233D003F58063984200F0988010
:1013940003F58063984200F0958003F580639842DA
:1013A40000F0928003F58063984200F08F8003F58B
:1013B4008063984219D006231AE0CC68B3E7CC685E
:1013C4000434B0E7CC680834ADE7CC680C34AAE741
:1013D40003610824A7E70024A5E70424A3E7061D66
:1013E400A5E7ACF108029200A6E7052300E000237C
:1013F400AB4033430232464D45F822304B6813F478
:10140400801F65D0444A936843EA0E0393604B6897
:1014140013F4001F62D0404AD36843EA0E03D3603A
:101424004B6813F4003F5FD03B4A536843EA0E0312
:1014340053604B6813F4803F5CD0374A136843EA27
:101444000E0313600CF1010C0A6832FA0CF357D046
:10145400012303FA0CF302EA030E33EA0202F1D188
:101464004A68122A3FF63FAF122A3FF65CAF01A545
:1014740055F822F013130008BF130008C91300081D
:10148400DB1300082B1300082B1300082B13000890
:101494002B1300082B1300082B1300082B13000830
:1014A4002B1300082B1300082B1300082B13000820
:1014B4002B1300082B130008C3130008CF130008D4
:1014C400012395E7022393E7032391E704238FE79E
:1014D400114A936823EA0E03936098E70E4AD3688F
:1014E40023EA0E03D3609BE70B4A536823EA0E03F7
:1014F40053609EE7084A136823EA0E031360A1E7CA
:1015040002B070BD00002210000031100010024033
:101514000000014000080140000401400AB10161DB
:10152400704709040161704790F82130DBB2022B47
:1015340006D004238363002380F820300120704701
:101544000268136823F00E0313600268136823F023
:1015540001031360036CC16B012202FA03F34B60B5
:1015640080F82120002380F82030184670470000BE
:1015740008B590F82130DBB2022B03D00423836337
:10158400012008BD0268136823F00E03136002688B
:10159400136823F00103136003684C4A93424ED945
:1015A400783A934224D01432934230D01432934286
:1015B4002FD0143293422FD0143293422FD01432AE
:1015C40093422FD0143293422FD002F56272934289
:1015D4002ED0143293422DD0143293422CD0143294
:1015E400934202D04FF4803203E04FF4805200E083
:1015F4000122374B5A60012380F82130002380F800
:101604002030436B002B5ED098470020B9E71022AE
:10161400EFE74FF48072ECE74FF48052E9E74FF4C0
:101624008032E6E74FF48012E3E74FF08072E0E7A0
:101634000122DEE71022DCE74FF48072D9E7254A65
:10164400934224D01432934225D01432934224D0AE
:101654001432934224D01432934224D0143293424D
:1016640024D01432934224D002F56272934223D0E0
:101674001432934222D01432934221D01432934232
:1016840002D04FF4803203E04FF4805200E0012294
:10169400114B5A60AFE71022FAE74FF48072F7E774
:1016A4004FF48052F4E74FF48032F1E74FF48012A4
:1016B400EEE74FF08072EBE70122E9E71022E7E75B
:1016C4004FF48072E4E700205BE700BF8000024033
:1016D400000402400800024000000240074AD368A8
:1016E40023F4E0631B041B0C000200F4E0600343DA
:1016F40043F0BF6343F40033D360704700ED00E070
:1017040000B5194BDB68C3F30223C3F1070CBCF12A
:10171400040F28BF4FF0040C03F1040EBEF1060FB2
:1017240018D9033B4FF0FF3E0EFA0CFC21EA0C01E2
:1017340099400EFA03F322EA0303194300280BDB52
:101744000901C9B200F1604000F5614080F800135E
:101754005DF804FB0023E5E700F00F000901C9B2BE
:10176400024B1954F4E700BF00ED00E014ED00E073
:10177400002807DB00F01F02400901239340024ABE
:1017840042F82030704700BF00E100E00138B0F1BA
:10179400807F0BD24FF0E0235861054AF02182F894
:1017A40023100020986107221A61704701207047B6
:1017B40000ED00E0014B01221A62704700000E4266
:1017C400002800F0CC8070B5044690F83D30002B22
:1017D40077D0242384F83D302268136823F0010372
:1017E40013602268136843F400431360226813688B
:1017F40023F400431360FFF74BFC62685A4B9A4290
:1018040064D85A4B98428CBF00230123002B40F02C
:10181400A8805749A1FB00318B0C25686A6822F027
:101824003F0242EA91426A6021680A6A22F03F025A
:1018340066684D4DAE424FD8013313430B622168A5
:10184400CA6922F44F4222F0FF026668464B9E4268
:101854004CD8431E7600B3FBF6F3013340F6FC701C
:10186400034278D0C3F30B031343CB6121680B68A5
:1018740023F0C003E269206A024313430B6021682A
:101884008B6823F4034323F0FF032269E0680243D7
:1018940013438B602168CB6823F0FF036269A0695E
:1018A40002431343CB602268136843F001031360BF
:1018B40000202064202384F83D30206384F83E0017
:1018C40070BD80F83C30FEF7BDFD82E7294B98429D
:1018D4008CBF0023012399E74FF4967505FB03F3AE
:1018E400254DA5FB03539B090133A6E7A368BBB9A8
:1018F400451E06EB460CB5FBFCF50135C5F30B059F
:10190400B5FA85F56D0945BBC3B9013806EB460345
:10191400B0FBF3F30133C3F30B0343F40043A3E736
:10192400451E06EB860C0CEB8C0CB5FBFCF5013567
:10193400C5F30B05B5FA85F56D09E4E7013806EB47
:10194400860303EB8303B0FBF3F30133C3F30B030D
:1019540043F4404388E7042386E7012384E7012016
:1019640070470120ACE700BFA08601007F841E0001
:1019740083DE1B43FF083D00D34D621010B40268A0
:1019840094691FFA84FCD369916988B2844505D0AF
:10199400D06980B240EA014010BC704798B240EA76
:1019A4000440F9E70368186A5B6A9BB243EA0040A3
:1019B4007047030903EB830300F00F0000EB4300BF
:1019C400C0B2704700F5FA6C022921D801EB41033B
:1019D400C1EBC3011E4BA3FB011302EB530363448E
:1019E40000F2CF7003EB90031A4AA2FB0020A3EB92
:1019F400501303EBD01304331748A0FB03201A1A27
:101A040000EB52008008C0EBC000181AC0B2704747
:101A140001EB4103C1EBC3010D4BA3FB011302EB2B
:101A24005303634403EB9C030A4AA2FB0C2CA3EB71
:101A34005C1303EBDC1302330748A0FB03201A1AE0
:101A440000EB52008008C0EBC000181ADEE700BFAC
:101A5400398EE3381F85EB512549922438B5044665
:101A6400FEF7F8FF054623685A6812F0200F07D1E5
:101A7400FEF7F0FF401BB0F57A7FF4D9032004E0B1
:101A84005A6842F010025A60002038BD38B5044646
:101A94000268536823F010035360FEF7DBFF05462A
:101AA40023685B6813F0200F07D1FEF7D3FF401BB8
:101AB400B0F57A7FF4D9032000E0002038BD38B5B2
:101AC40005460C46FFF7CAFF08B1012038BD2B6854
:101AD400220C9A612B68A4B2DC612846FFF7D6FF7A
:101AE4000028F3D00120F1E738B505460C46FFF78E
:101AF400B5FF08B1012038BD2B68220C1A622B688F
:101B0400A4B25C622846FFF7C1FF0028F3D001208D
:101B1400F1E770B5002857D00D460646002955D088
:101B2400037C012B54D00123037402234374BAB9F8
:101B340008784B78C3EB03139C004FF4616303FBF9
:101B440000448878044421463046FFF7B8FF054630
:101B5400C8B104237374002333740125284670BD6F
:101B64000878FFF726FF4FF4616400FB04F46878FB
:101B7400FFF71FFFC0EB001004EB8004A878FFF709
:101B840018FF0444DFE73268536823F00503536009
:101B94003046FFF707FFB0F1FF3F01D0844204D87D
:101BA4000123737400233374D8E700F5A83101F5D9
:101BB400C0713046FFF798FF0028F1D004237374F6
:101BC400002333740125C9E70125C7E70125C5E7CB
:101BD4000225C3E700285AD038B50D46044600292B
:101BE40057D0037C012B56D0012303740223437482
:101BF400BAB9CB78C3734B7843738B788373A27B66
:101C0400617BE07BFFF7DEFE207328702046FFF740
:101C1400B5FE224B984211D801236374002020742E
:101C240038BDC878FFF7C5FEE0736878FFF7C1FEDA
:101C34006073A878FFF7BDFEA073E0E7184DA5FB1D
:101C440000352D0C174B03FB150529462046FFF7DD
:101C540036FF28B104236374002323740120DFE7D3
:101C64002046FFF79FFEB0F1FF3FD5D08542D3D980
:101C740000F5A83101F5C0712046FFF735FF0028B3
:101C8400CAD004236374002323740120C8E701200D
:101C940070470120C4E70220C2E700BF8F5F010044
:101CA40007452EC280510100C0B138B5054602680F
:101CB400536823F008035360FEF7CCFE04462B68F8
:101CC4005B6813F0080F07D1FEF7C4FE001BB0F5E4
:101CD4007A7FF4D9032000E0002038BD012070474A
:101CE400002850D010B50446437C4BB102236374E2
:101CF4002046FFF7D9FF38B104236374012010BDD7
:101D04000374FEF759FCF1E72046FFF7A7FE28BB52
:101D14002268536823F007035360A36823B11B4A66
:101D2400136B23F001031363184AD36A23F460731B
:101D3400A1680B43D3626368B3F1FF3F12D02268FA
:101D4400C3F30341916022689BB2D3602046FFF73E
:101D54009DFE88B1042363740120D0E704236374D7
:101D64000120CCE70120FFF73FFA08B1431EE6E764
:101D7400042363740120C2E70023E3730123637324
:101D8400A3736374BBE70120704700BF006C00407D
:101D94002DE9F04782B00546884617461E46FEF7F1
:101DA40059FE0A9B1B1A03EB0609FEF753FE8246F3
:101DB4002B4B1B68C3F3CB3309FB03F301932B6851
:101DC4009C6838EA04030CBF4FF0010C4FF0000C80
:101DD400BC4540D0B6F1FF3FF1D0FEF73BFEA0EB8F
:101DE4000A0048450AD2B9F1000F07D0019A02B19E
:101DF4004A46019B013B01939146E0E72A685368F8
:101E040023F0E00353606B68B3F5827F0BD0AB6AB9
:101E1400B3F5005F14D0012385F85130002385F811
:101E24005030032018E0AB68B3F5004F02D0B3F58F
:101E3400806FECD12A68136823F040031360E6E74F
:101E44002A68136823F4005313602A68136843F460
:101E540000531360DFE7002002B0BDE8F08700BF45
:101E64000800002070B582B006460C461546009264
:101E74000B4601220221FFF78BFF48B90095234648
:101E8400002280213046FFF783FF38B902B070BDCD
:101E9400736D43F0200373650320F7E7736D43F01C
:101EA400200373650320F1E710B582B004460B46A6
:101EB4004168B1F5827F10D06168B1F5827F03D1AA
:101EC400A168B1F5806F15D00092002280212046D0
:101ED400FFF75EFFE0B902B010BD8168B1F5004FB5
:101EE40002D0B1F5806FE7D12068016821F040018C
:101EF4000160E1E70092002201212046FFF748FF3C
:101F04000028E8D0636D43F0200363650320E2E713
:101F1400636D43F0200363650320DCE7002856D09B
:101F240010B50446436A33B94368B3F5827F05D0DC
:101F34000023C36102E00023036143610023A36221
:101F440094F85130002B3CD0022384F8513022689D
:101F5400136823F040031360636803F48273A26878
:101F640002F404421343E26802F400621343226958
:101F740002F002021343626902F001021343A269F0
:101F840002F400721343E26902F038021343226A36
:101F940002F080021343A26A02F400522168134340
:101FA4000B60638B226803F0040353602268D369D7
:101FB40023F40063D36100206065012384F8513069
:101FC40010BD84F850302046FEF764FBBCE70120C6
:101FD40070472DE9F04383B00446894690461D4678
:101FE400FEF738FD94F85160F6B2012E40F0CC8033
:101FF4000746B9F1000F00F0C880B8F1000F00F0F7
:10200400C48094F85030012B00F0C380012384F87D
:102014005030032384F8513000236365C4F83090B2
:10202400A4F83480A4F83680A363A387E3876364A9
:102034002364A368B3F5004F1ED023681A6812F016
:10204400400F03D11A6842F040021A60E368B3F506
:10205400006F1CD0636813B1B8F1010F5FD1226B1C
:10206400236812781A73236B01332363E38E9BB2C4
:10207400013B9BB2E38652E02268136823F04003DD
:1020840013602268136843F480431360D5E76368E0
:1020940013B1B8F1010F15D1226B23681288DA60ED
:1020A400236B02332363E38E9BB2013B9BB2E38633
:1020B40008E0FEF7CFFCC01BA84202D3B5F1FF3FF6
:1020C40015D1A5B1E38E9BB2002B42D023689A6848
:1020D40012F0020FEDD0226B1288DA60236B023308
:1020E4002363E38E9BB2013B9BB2E386EAE70123C1
:1020F40084F85130002384F85030032645E0226BE5
:1021040012781A73236B01332363B4F836C01FFAB1
:102114008CFC0CF1FF3C1FFA8CFCA4F836C0E38E57
:102124009BB2B3B123689A6812F0020FE7D1FEF7AD
:1021340091FCC01BA84202D3B5F1FF3F01D1002D91
:10214400EDD1012384F85130002384F85030032664
:102154001BE03A4629462046FFF784FE08B12023B7
:102164006365A36833B901932368DA6801929B68B5
:102174000193019B012384F85130002384F85030EB
:10218400636D13B9002600E00226304603B0BDE8B3
:10219400F0830226F9E72DE9F04383B0044688462C
:1021A40091461F460A9DFEF755FC064694F85130A9
:1021B400DBB26268012B0AD0B2F5827F40F0058160
:1021C400A268002A40F00581042B40F00481B8F194
:1021D400000F00F00281B9F1000F00F00081002F20
:1021E40000F0FF8094F85030012B00F0FC800123B4
:1021F40084F8503094F85130DBB2042B02D005231C
:1022040084F8513000236365C4F83890E787A787C2
:10221400C4F83080E786A7862364636423681A6859
:1022240012F0400F03D11A6842F040021A60E368CA
:10223400B3F5006F11D063680BB1012F0BD1226B82
:10224400236812781A73236B01332363E38E9BB2E2
:10225400013B9BB2E386012771E063680BB1012F58
:102264000BD1226B23681288DA60236B0233236359
:10227400E38E9BB2013B9BB2E38601271BE02368FC
:102284009A6812F0010F0ED0E28F92B25AB1DA6856
:10229400A36B1A80A36B0233A363E38F9BB2013B4E
:1022A4009BB2E3870127FEF7D5FB801BA84202D32C
:1022B400B5F1FF3F1ED1E38E9BB21BB9E38F9BB2F6
:1022C400002B62D023689A6812F0020FD7D0E28EF6
:1022D40092B2002AD3D0002FD1D0226B1288DA60B8
:1022E400236B02332363E38E9BB2013B9BB2E386F1
:1022F4000027C4E7012384F85130002384F85030C8
:10230400032063E023689A6812F0010F0ED0E28F75
:1023140092B25AB1DA68A36B1A70A36B0133A36348
:10232400E38F9BB2013B9BB2E3870127FEF792FB4D
:10233400831BAB4202D3B5F1FF3F1ED1EDB1E38E57
:102344009BB213B9E38F9BB2FBB123689A6812F076
:10235400020FD7D0E28E92B2002AD3D0002FD1D070
:10236400226B12781A73236B01332363E38E9BB2BF
:10237400013B9BB2E3860027C4E7012384F8513074
:10238400002384F85030032020E0324629462046BA
:10239400FFF768FD90B9A36833B901932368DA683D
:1023A40001929B680193019B012384F8513000231F
:1023B40084F85030636D4BB1012007E0202363653E
:1023C400002384F85030012000E0022003B0BDE86F
:1023D400F0830220FAE70220F8E70120F6E7012063
:1023E400F4E70120F2E70220F0E72DE9F04383B09F
:1023F40090F85160F6B2012E40F0B480044689464C
:1024040090461D464368B3F5827F01D1836893B338
:10241400FEF720FB0746B9F1000F00F0A480B8F1E5
:10242400000F00F0A08094F85030012B00F09F8042
:10243400012384F85030042384F851300023636569
:10244400C4F83890A4F83C80A4F83E802363A386A3
:10245400E38623646364A368B3F5004F15D023684F
:102464001A6812F0400F03D11A6842F040021A6051
:10247400E368F3B143E0042380F851300095134638
:102484000A46FFF788FE06466DE02268136823F0CB
:10249400400313602268136823F480431360DEE76B
:1024A400FEF7D8FAC01BA84202D3B5F1FF3F15D1FD
:1024B400A5B1E38F9BB2002B42D023689A6812F037
:1024C400010FEDD0A26B1B7B1370A36B0133A363CD
:1024D400E38F9BB2013B9BB2E387EAE7012384F8D5
:1024E4005130002384F8503003263CE0FEF7B2FA62
:1024F400C01BA84202D3B5F1FF3F19D1C5B1E38F88
:102504009BB2EBB123689A6812F0010FEED0DA683F
:10251400A36B1A80A36B0233A363B4F83EC01FFA03
:102524008CFC0CF1FF3C1FFA8CFCA4F83EC0E6E7DF
:10253400012384F85130002384F85030032612E03C
:102544003A4629462046FFF7AFFC08B120236365CD
:10255400012384F85130002384F85030636D13B99B
:10256400002600E00226304603B0BDE8F0830226D0
:10257400F9E7026802F10C0353E8003F23F4907377
:102584000C3242E800310029F3D1026802F114034D
:1025940053E8003F23F00103143242E800310029DC
:1025A400F3D1036B012B05D0202380F842300023A4
:1025B40003637047026802F10C0353E8003F23F001
:1025C40010030C3242E800310029F3D1ECE790F813
:1025D4004130DBB2212B01D0022070478368B3F570
:1025E400805F17D0036A5A1C02621A7803685A6023
:1025F400C38C9BB2013B9BB2C3844BB90268D368C2
:1026040023F08003D3600268D36843F04003D360AF
:10261400002070470369002BE4D1036A1B88026819
:10262400C3F308035360036A02330362E0E7000064
:1026340010B504460268136923F44053C1680B4380
:10264400136183680269134342691A430168CB68C2
:1026540023F4B05323F00C031343CB600268536993
:1026640023F4407381690B4353610268134B9A420C
:1026740020D0FEF70DFD024602EB820202EB82023D
:1026840063689B00B2FBF3F20D48A0FB02314909D9
:10269400642303FB11231B013233A0FB03235B09D7
:1026A40003F0F00202EB011203F00F03216813445C
:1026B4008B6010BDFEF7FCFC0246DDE700380140EC
:1026C4001F85EB512DE9F04383B005460E461746AE
:1026D4009946DDF828802C68246836EA04030CBF88
:1026E4004FF0010C4FF0000CBC4528D1B8F1FF3F6E
:1026F400F1D0FEF7AFF9A0EB0900404523D8B8F1BB
:10270400000F22D02B68DA6812F0040FE3D0802E79
:10271400E1D0402EDFD01A6812F0080FDBD000247D
:1027240001941A6801925B680193019B2846FFF7A4
:1027340020FF08236B6485F84040012000E000205E
:1027440003B0BDE8F0830320FAE70320F8E760B3A1
:1027540010B5044690F8413013B3242384F8413073
:102764002268D36823F40053D3602046FFF760FF48
:102774002268136923F4904313612268536923F098
:102784002A0353612268D36843F40053D3600020C2
:102794006064202384F8413084F84230606310BDC3
:1027A40080F84030FEF75AF8D7E7012070472DE94A
:1027B400F04182B01E4690F84130DBB2202B56D156
:1027C40004460D469046002955D00AB901204FE031
:1027D40000234364212380F84130FEF73BF9074688
:1027E400A4F82480A4F82680A368B3F5805F02D0FF
:1027F4004FF0000814E023692BB34FF000080FE0FA
:10280400202384F84130032032E038F8023B226868
:10281400C3F308035360E28C92B2013A92B2E284A9
:10282400E38C9BB293B100963B4600228021204664
:10283400FFF748FF0028E3D1002DE6D015F8012B5F
:1028440023685A60E7E7A8460025E9E700963B4677
:10285400002240212046FFF735FF18B9202384F8D1
:10286400413005E0202384F84130032000E00220B9
:1028740002B0BDE8F0810120FAE7704708B50168AD
:10288400CA6822F04002CA60202280F84120FFF783
:10289400F4FF002008BD704708B5406A0023C385D3
:1028A400C384FFF7F8FF08BD704790F84230DBB2ED
:1028B400222B69D18368B3F5805F4FD0826AB3F568
:1028C400805F04D0002B56D10369002B53D10368D9
:1028D4005B681370836A01338362C38D9BB2013BCF
:1028E4009BB2C385002B51D100B583B00268D36875
:1028F40023F02003D3600268D36823F48073D36089
:102904000268536923F001035361202380F84230A5
:1029140000234363036B012B33D100230363026859
:1029240002F10C0353E8003F23F010030C3242E899
:1029340000310029F3D103681A6812F0100F06D091
:10294400002201921A6801925B680193019B818DB8
:10295400FFF7AAFF002003B05DF804FB0269002A18
:10296400ACD1826A03685B68C3F308031380836A8B
:1029740002338362B1E703685B6803F07F0313707B
:10298400A8E704F0BBFBE5E702207047002070478E
:1029940030B583B0044602681368D068516913F0F7
:1029A4000F0505D113F0200F02D010F0200F19D11C
:1029B4002DB111F0010119D110F4907F16D1216BC2
:1029C40001297DD013F0800F03D010F0800F40F068
:1029D400188113F0400F03D010F0400F40F0158120
:1029E40003B030BD2046FFF760FFF9E713F0010F95
:1029F40006D010F4807F03D0626C42F0010262645E
:102A040013F0040F04D019B1626C42F00202626444
:102A140013F0020F04D019B1626C42F00402626434
:102A240013F0080F07D010F0200F00D119B1626C19
:102A340042F008026264626C002AD1D013F0200FC5
:102A440002D010F0200F29D123685B6903F0400302
:102A5400626C12F0080F00D163B32046FFF789FDC2
:102A640023685B6913F0400F20D0226802F114033D
:102A740053E8003F23F04003143242E800310029B8
:102A8400F3D1E36B73B1634A5A63E06BFEF770FDF5
:102A94000028A5D0E06B436B9847A1E72046FFF7D9
:102AA40004FFD1E72046FFF7F6FE99E72046FFF73B
:102AB400F2FE95E72046FFF7EEFE002363648FE7FE
:102AC40013F0100F3FF47EAF10F0100F3FF47AAF05
:102AD400002301931368019353680193019B536985
:102AE40013F0400F51D0E26B13685B689BB2002B6C
:102AF4003FF476AFA18D99427FF672AFE385936977
:102B0400202B37D0226802F10C0353E8003F23F452
:102B140080730C3242E800310029F3D1226802F1BB
:102B2400140353E8003F23F00103143242E8003158
:102B34000029F3D1226802F1140353E8003F23F083
:102B44004003143242E800310029F3D1202384F8F1
:102B5400423000232363226802F10C0353E8003F50
:102B640023F010030C3242E800310029F3D1E06B6A
:102B7400FEF7DAFC02236363A18DE38D9BB2C91ACD
:102B840089B22046FFF790FE2AE7A18DE38D9BB220
:102B9400C91A89B2E38D9BB2002B3FF421AF0029FF
:102BA4003FF41EAF226802F10C0353E8003F23F404
:102BB40090730C3242E800300028F3D1226802F10D
:102BC400140353E8003F23F00103143242E80030B9
:102BD4000028F3D1202384F84230002323632268A1
:102BE40002F10C0353E8003F23F010030C3242E8D7
:102BF40000300028F3D1022363632046FFF754FE1C
:102C0400EEE62046FFF7E3FCEAE62046FFF736FE51
:102C1400E6E600BF9D28000881628285C285002304
:102C24004364222380F84230036923B10268D368E5
:102C340043F48073D3600268536943F00103536122
:102C44000268D36843F02003D3600020704708B5BE
:102C540090F84230DBB2202B08D149B10AB90120E7
:102C640008BD00230363FFF7D7FFF9E70220F7E766
:102C74000120F5E77047000010B503460C4A0D49E2
:102C84000D48006840B10C4800680344521A93424E
:102C940006D8094A136010BD0748084C0460F2E7DF
:102CA40004F04CFE0C2303604FF0FF30F3E700BF49
:102CB400000001200004000028060020D82800207D
:102CC40008B528B10C4B01221A700B4B187808BDBB
:102CD40003F0DAFB094B984207D04EF6167398427C
:102CE40003D0054B01221A70EFE7034A137803F06F
:102CF400FE031370E9E700BF0C0000201740EF004B
:102D040008B530B10B4B01221A700A4B1878C0B2C7
:102D140008BD03F057FD28B1064B01221A7018783C
:102D2400C0B2F5E70020FFF7CBFF024B18701B7809
:102D3400EBE700BF0C000020D8B970B50D4616466D
:102D44001C46C1B1CBB1FFF7BBFF10F0010F16D188
:102D5400B6F5006F15D2A319B3F5006F01D90120A0
:102D64000CE022032946300303F040FC30B101207B
:102D740004E004207047042000E0042070BD032018
:102D8400FCE70120FAE770B598BB0E461446FFF73E
:102D940097FF10F001052FD144B1092E2ED8DFE89A
:102DA40006F0090D11152D2D2D2D2D18002EF4D002
:102DB40004251FE003F004FB35461BE04FF40063D9
:102DC400236017E04FF48053238013E00123236032
:102DD40010E0266800E001366368B34206D3B6F516
:102DE400006FF8D2300303F04FFCF4E703F0E8FA85
:102DF40000E00425284670BD0325FBE70425F9E718
:102E04002DE9F84FD0BB0D4617461E46C9B3DBB3B8
:102E1400FFF756FF10F001083BD1B7F5006F3BD226
:102E2400F319B3F5006F3AD84FF0000B03E003F049
:102E3400C7FA0BF1010BB3451AD20BEB07094FEAA2
:102E440009394FEA0B3A484603F01EFC0024B4F556
:102E5400805FECD20AEB04014FF48072294404EB46
:102E6400090003F05BFBE8B904F58074A4B2EEE753
:102E740000221146104600F0BBF907E04FF00408A9
:102E840004E04FF0040801E04FF004084046BDE8B8
:102E9400F88F4FF00308F9E74FF00108F6E74FF019
:102EA4000108F3E74FF00108F0E7000008B508490E
:102EB400084803F009FA084B187018B90748FDF7D9
:102EC400B7F908BD01460648FDF7B2F9F9E700BFB6
:102ED40024000020100000208826002064850008BB
:102EE400408500081C4B1A8840F2BB739A4203D8F1
:102EF400194B40F2BC721A80174B9B7813B9164BCE
:102F040001229A70144B9B780C2B02D9124B0C2281
:102F14009A70114BDB7813B90F4B0122DA700E4B08
:102F2400DB781F2B02D90C4B1F22DA700A4A138854
:102F3400A3F2BC7093785B0543EA4063D07843EA1C
:102F44000043107943EAC023507943EA401390794F
:102F540043EA5000704700BF2800002038B5124CE7
:102F640000222146104601F047FE104D2870012230
:102F740021460F4801F040FE0446287040B1014646
:102F84000D280AD00B48FDF753F9084B1C7802E0D2
:102F94000948FDF74DF9204638BD0848FDF748F9C2
:102FA400024B1C78F7E700BF24000020882600208D
:102FB4002C060020C08500088C850008A085000828
:102FC40010B52448FDF734F9234C0022214610465D
:102FD40001F012FE00221146104600F009F9012208
:102FE40021461E4801F008FE10B104460D2823D1E5
:102FF4001B48FDF71DF900220121174802F006FEC7
:103004000446E8B900221146104600F0F1F8012206
:103014001149124801F0F0FD0446B0B9114B19787A
:103024001148FDF705F900221146104600F0E0F8BA
:1030340003F0C6F9204610BD0C48FDF7F9F8F9E78E
:1030440001460B48FDF7F4F8F4E701460948FDF79B
:10305400EFF8E8E7D8850008240000202C060020BB
:10306400088600082C1600203C860008F08500081D
:103074002086000864860008F0B5ADF5835D81B054
:103084003648FDF7D5F836490EA802F0ABFB0446E6
:1030940010B30D2809D003280BD001463148FDF7A1
:1030A400C7F83148FDF7C4F84FE03048FDF7C0F8E1
:1030B400F7E72F48FDF7BCF8F3E7069D0595AD0A41
:1030C400049503910297019600900DF1210129487E
:1030D400FDF7AEF80134E4B22022002106A804F082
:1030E40065FC06A90EA802F0EAFB38BB9DF8213066
:1030F40023B32E2BF0D09DF820C01CF0060FEBD18B
:10310400BDF81C00BDF81E10420A02F2BC72C0F3E6
:10311400431300F01F00CE0AC1F3451701F01F014D
:1031240049001CF0100FC8D003910297019600903B
:103134000DF121011048FDF77BF8CBE74CB10EA847
:1031440002F0AAFB0848FDF773F80DF5835D01B0A2
:10315400F0BD0A48FDF76CF8F1E700BF848600086B
:1031640024000020C8860008E4860008A086000821
:10317400B486000828870008F886000868870008D5
:1031840008B5044B03EB8002526852680344187A72
:10319400904708BDAC26002008B5084B1B5C53B90A
:1031A400064B01221A5403EB800252681268184439
:1031B400007A904708BD0020FCE700BFAC26002041
:1031C40038B5044C04EB80056D68AD680444207A7E
:1031D400A84738BDAC26002038B5044C04EB800564
:1031E4006D68ED680444207AA84738BDAC260020F9
:1031F40010B5044B03EB8004646824690344187A13
:10320400A04710BDAC26002004E011F8012B00F803
:10321400012B1A46531E002AF7D1704702E000F82A
:10322400011B1A46531E002AF9D1704710B40346F5
:1032340000201446013A34B113F8010B11F801CB04
:10324400B0EB0C00F5D010BC7047034600E001332E
:10325400187808B18842FAD17047000030B40025CC
:103264002B4601E001250133012B21D803EB430256
:103274001D4C54F82220002AF4D000F58054246810
:10328400A242F0D103EB4302174C04EB82025468D0
:1032940000F5805292689442E5D103EB4302124C4C
:1032A40004EB8202148900F58052D2889442DAD168
:1032B400022B0CD0B1B903EB43030B4A02EB83039B
:1032C4005B89B3F5807F0BD0002030BC70472DB9EB
:1032D400022901D01220F8E70020F6E70020F4E7E5
:1032E4001020F2E71020F0E790260020002000E0F4
:1032F4000130012806D800EB40029300034AD3585A
:10330400002BF5D1023818BF012070479026002009
:1033140010B5002300E00133012B1FD803EB430257
:103324002F4C54F8224000F5805212689442F2D196
:1033340003EB43022A4C04EB8202546800F58052EA
:1033440092689442E7D103EB4302254C04EB8202DA
:10335400148900F58052D2889442DCD1022B12D019
:1033640039B103EB43021E4800EB82025289002A62
:1033740034D139BB03EB4302194901EB8202518971
:10338400013189B220E00023012B07D803EB43026B
:10339400134C54F822200AB10133F5E7022B1BD059
:1033A40000F580500E4C03EB430C04EB8C02D0F878
:1033B40000E044F82CE084685460C0881081002048
:1033C4005081CDE74FF4807103EB4300044A02EBD4
:1033D40080025181581C10BD0020FCE70020FAE750
:1033E40090260020013801281AD800EB40030E4A29
:1033F40002EB83035B89B3F5807F03D01BB1013BF0
:103404009BB200E0002300EB4002074901EB82027B
:1034140053813BB900EB400083000020C850704743
:10342400022070470020704790260020002302E00D
:1034340010BC70470133012B17D803EB43020B492F
:1034440051F822208242F5D110B403EB43029200DA
:1034540000248C500133012BEAD803EB43020349C7
:1034640051F822208242F5D1EFE7704790260020E0
:1034740000F58050436A0433026802F58052508993
:10348400B1FBF0F19278B1FBF2F101E0091A0833D3
:10349400186818B18142F9D2586808447047CA7E46
:1034A4008B7E43EA022300F580500278032A01D080
:1034B40018467047487D0A7D42EA002243EA0243E7
:1034C400F6E78176C1F30723C376C1F30743037597
:1034D400090E41757047000030B591F800E00EF018
:1034E4003F0E0EF1FF3E0EEB4E030EEB830E012555
:1034F400002206E04FF6FF74A34225D101320C2AC4
:1035040014D8144B13F802C00CF10103CC5C11F86D
:103514000C3043EA0423002DECD0BEF1FE0F11D889
:1035240020F81E301D460EF1010EE7E70B7813F06C
:10353400400F0BD0BEF1FE0F0AD8002320F81E3036
:10354400012004E0002002E0002000E0012030BD62
:103554000020FCE7C487000830B54B730F23CB72FF
:103564004FF0000E81F80CE081F81AE081F81BE0BE
:10357400541E04EB440304EB8304734604E00EF18D
:10358400010EBEF10C0F15D84FF6FF75AB4202D0F9
:1035940030F8143001340D4D15F80EC001F80C301C
:1035A4000CF1010C1D0A01F80C50002BE7D14FF669
:1035B400FF73E4E74FF6FF75AB4202D030F81430E6
:1035C4000BB942F040020A7030BD00BFC487000846
:1035D40070B582B0054616461C460B22FFF714FE52
:1035E400052C11D8072020E001310F290CD803F055
:1035F400010C0CEB44045B0814F4803FF4D084F415
:10360400883484F02104EFE73388002BEAD00236B3
:103614000021EAE7411E00F108026A4402F8083C6E
:1036240023090F2C0AD908461C4604F00F0202F1A4
:103634003003392BEED902F13703EBE77E2201F197
:1036440008036B4403F8082C002300E001338B4289
:1036540011D2EA5C202A0ED07F32D2B27D2AF5D86C
:10366400821E9A4207D00133F0E720205A1CE85406
:10367400072A09D813460729F7D801F108026A4432
:1036840012F8080C0131F1E702B070BD02460B21BB
:103694000020C30143EA5000C0B213780132184439
:1036A400C0B20139F5D170470146006838B102460D
:1036B40013781F2B06D93A2B04D00132F8E74FF0C8
:1036C400FF3070473A2B01D00020704710B40346F6
:1036D40013F8010B3038092808D89A4202D04FF069
:1036E400FF3005E030B901320A6001E04FF0FF30ED
:1036F40010BC70474FF0FF30FAE7F8B500F580537F
:103704001D790DB92846F8BD04461846DE6A012322
:10371400324621464078FFF75FFD0546D0B904F5EF
:10372400805200231371136AF31A92699342E9D207
:1037340004F58053DF780AE004F5805083691E4461
:103744000123324621464078FFF746FD013F012F11
:10375400F2D8D7E70125D5E770B500F58053DB6AC9
:103764008B4202D10026304670BD04460D46FFF759
:10377400C4FF06460028F6D104F5805001232A46EA
:1037840021464078FFF71CFD10B101264FF0FF35AC
:1037940004F58054E562E6E710B5044600F580536D
:1037A40000221A714FF0FF32DA62FFF7D5FF98BB9F
:1037B400024694F8FF1194F8FE3143EA01231BB248
:1037C40017498B422AD194F8391094F838301B04E5
:1037D40043EA016394F8371043EA012394F836105E
:1037E4000B4323F07F430F498B4213D094F85510B9
:1037F40094F854301B0443EA016394F8531043EAE9
:10380400012394F852100B4323F07F4305498B4264
:1038140000D00122104610BD0322FBE70222F9E783
:1038240055AAFFFF46415400D8B108B500F58053AE
:103834001B685BB103F58051097839B103F58051F8
:10384400C98800F580529288914201D0092008BDB0
:1038540003F580535878FFF793FC10F00100F6D07D
:10386400F4E70920704700002DE9F04784B00446CE
:103874001746002303600846FFF716FF051EC0F233
:10388400C981B34B53F82560002E00F0C88126602F
:1038940006F580531B7883B106F580535878FFF7FB
:1038A4006FFC10F0010408D1002F00F0B48110F077
:1038B400040F00F0B0810A24ADE106F58053002224
:1038C4001A70E8B25870FFF767FC10F0010F40F06F
:1038D400A8811FB110F0040F40F0A58106F58053B4
:1038E4001A460A3202215878FFF782FC002840F079
:1038F4009C8106F580535B89B3F5007FC0F0978106
:10390400B3F5805F01D9012485E100213046FFF73A
:1039140043FF0446012800F0E8800027032C00F050
:103924008881002C40F08781327BF37A43EA0223BA
:103934001BB206F580525189B2F90A20934240F035
:103944007C81F27DB37D53EA02230DD196F82720C2
:1039540096F826301B0443EA026396F8252043EACE
:10396400022396F82420134306F580529361307C99
:10397400D070421ED2B2012A00F2618103FB00F032
:1039840096F80DE006F5805282F802E0BEF1000FD1
:1039940000F057810EF1FF321EEA020F40F053810E
:1039A400B27C757C45EA022506F5805215814FEA02
:1039B4005118B5FBF8F208FB125292B2002A40F0FB
:1039C400448196F814C0F27C52EA0C220ED196F887
:1039D40023C096F82220120442EA0C6296F821C011
:1039E40042EA0C2296F820C042EA0C0296F80FC074
:1039F40096F80E9059EA0C2900F0298109EB000A87
:103A0400B5FBF8FCD4446245C0F02381A2EB0C0260
:103A1400B2FBFEFA7245C0F01E8140F6F572924583
:103A24007CD84FF001084FF6F572924501D94FF05A
:103A340003080AF1020206F5805ECEF81420CEF8DF
:103A44001C70B944CEF82090BC44CEF828C0B8F11C
:103A5400030F66D0002D00F00281484406F580551E
:103A64006862B8F1020F71D002EB420002F0010269
:103A740002EB50020A44013AB2FBF1F1994200F21E
:103A8400F08006F580534FF0FF321A61DA6080222D
:103A94005A71B8F1030F5FD006F5805282F80080A6
:103AA4002C490B8801339BB20B80D3803046FFF73F
:103AB400BDFCB0E0002304AA02EB810242F8103CF2
:103AC4000131032913D80B0103F5DF7333441A7949
:103AD400002AEFD0D87A9A7A120442EA0062587A1D
:103AE40042EA00221B7A1343E5E70021E9E70025B7
:103AF4000BE039463046FFF74FFE044600283FF4FA
:103B04000DAF0135032D3FF609AF04AB03EB85037D
:103B140053F8107C002FECD10224F2E74FF0020896
:103B240081E7002D40F0998096F82F5096F82E00EA
:103B3400000440EA056096F82D5040EA052096F806
:103B44002C502843CEF82400920093E7520091E7CA
:103B54008C260020A826002096F8312096F83030D4
:103B640043EA02231BB2012B96D1791C3046FFF79E
:103B7400F3FD002890D106F5805300225A7196F87F
:103B8400FF2196F8FE3143EA02231BB2364A9342E0
:103B940082D1F278B3781B0443EA0263727843EA71
:103BA400022332781343314A93427FF475AF96F877
:103BB400E72196F8E6311B0443EA026396F8E5210F
:103BC40043EA022396F8E4211343294A93427FF4FB
:103BD40063AF96F8EB2196F8EA311B0443EA0263DB
:103BE40096F8E92143EA022396F8E821134306F5FF
:103BF4008052136196F8EF1196F8EE311B0443EAF4
:103C0400016396F8ED1143EA012396F8EC110B4396
:103C1400D36041E70B24204604B0BDE8F0870C24B0
:103C2400F9E70324F7E70A24F5E70124F3E701247D
:103C3400F1E70124EFE70D24EDE70D24EBE70D2474
:103C4400E9E70D24E7E70D24E5E70D24E3E70D2478
:103C5400E1E70D24DFE70D24DDE70D24DBE70D2488
:103C6400D9E70D24D7E700BF55AAFFFF525261419F
:103C74007272416170B50446FFF73FFD054668B9AD
:103C840004F580531B78032B0AD004F580540022DA
:103C940011466078FFF7ACFA00B10125284670BDE3
:103CA40004F580535B79012BEFD104F580567289BA
:103CB40000212046FFF7B2FA552384F8FE31AA23E7
:103CC40084F8FF315223237063706123A37041226F
:103CD400E270722184F8E41184F8E51184F8E62195
:103CE40084F8E731336984F8E831C3F3072284F8B0
:103CF400E921C3F3074284F8EA211B0E84F8EB316F
:103D0400F36884F8EC31C3F3072284F8ED21C3F39C
:103D1400074284F8EE211B0E84F8EF31F269013278
:103D2400F262012321467078FFF756FA002373717B
:103D3400ABE7F8B50C4601F1090C00F580531B699B
:103D4400002B40D000F58053596900230AE0E52395
:103D540010E02E250CF8015B0EE0102517E00CF89E
:103D6400013B13460A2B17D85A1CCB5C202BF8D0E6
:103D7400052BECD0092AECD0A3F1410E5FFA8EFE9C
:103D8400BEF1190FEBD80E7B082AE6D808252E427F
:103D9400E5D02033DBB2E2E7CB7A2372CA7F8B7F94
:103DA4001B0443EA02634A7F43EA02230A7F134364
:103DB40023604A7E0B7E43EA0223A380CA7D8B7D67
:103DC40043EA0223E38000238CF80030A7693FB361
:103DD40000F580531D690DB3E569FDB19A8C4FF66A
:103DE400FF739A4219D000F58050066A002505E059
:103DF400E369013BAB4216D97A55013536F8020B1B
:103E040060B1002102F066FA024650B1FF28EFD9F2
:103E1400C0F307237B550135EAE7002500237B55D2
:103E2400F8BD0025FAE70025F8E700002DE9F04F7A
:103E340083B0064689460F6800E001373B782F2B94
:103E4400FBD05C2BF9D006F580531D6A0024A046F4
:103E54000CE09046012102F03DFA8246002800F071
:103E64001E817F2825D925F814A0013408F1010208
:103E740017F8083098B21F2823D92F2821D05C289E
:103E84001FD0FE2C00F209817F33DBB27D2BE0D8FA
:103E940008F10208BB5C03EB002080B2A3F14002EE
:103EA400D2B23E2AD6D983F080037E2BD2D9062003
:103EB4009CE001467C48FFF7C8F90028D3D00620CF
:103EC40094E01744C9F800701F2802D84FF0040882
:103ED40003E04FF0000800E0013C44B104F100436A
:103EE400013B35F81330202BF6D02E2BF4D0002CC8
:103EF40000F0D780002725F8147006F580530B22B4
:103F040020219869FFF78AF900E0013735F8172076
:103F1400202AFAD02E2AF8D01FB148F0030800E076
:103F2400013C64B104F10042013A35F812202E2A12
:103F3400F6D14FF0080B002301939A460AE001944E
:103F44004FF0080B4FF0000A04E04C450BD048F04A
:103F540003084F4607F1010935F817701FB3202FE6
:103F6400F5D02E2FF1D0019B5B4513D24C4511D0D7
:103F74007F2F4BD8FF2F59D90BF1FF33019A93426E
:103F84004ED906F580539A690198431CC7F307215B
:103F9400115450E0BBF10B0F2BD04C4501D048F02D
:103FA40003084C4528D206F580539B691A78E52A04
:103FB40065D0BBF1080F65D00AF00C030C2B03D0BD
:103FC4000AF00302032A01D148F0020818F0020F94
:103FD40006D10AF0030ABAF1010F58D0042B59D0C4
:103FE40006F58056B36983F80B80002003B0BDE862
:103FF400F08F48F00308D6E74FEA8A0A5FFA8AFA94
:1040040027464FF00B0B08230193A3E7384602F031
:104014008BF9002102F05EF9074648F00208A9E78F
:1040240048F003084F46CDF804B093E75FB948F071
:104034000308019B5F2706F580529269591C019180
:10404400D7544F4686E739461848FFF7FEF800284C
:10405400EDD1A7F141039BB2192B03D84AF0020A10
:10406400019BE8E7A7F161039BB2192B05D84AF03D
:10407400010A203FBFB2019BDDE7019BDBE705227C
:104084001A7096E74FEA8A0A5FFA8AFA94E748F0C8
:104094001008A3E748F00808A2E70620A6E70620D0
:1040A400A4E70620A2E700BF7C87000888870008F1
:1040B4002DE9F84380460D460F7827F04007013F6D
:1040C40007EB470307EB83070126002410E002F007
:1040D4002BF90646FE2F1AD807F1010938F8170004
:1040E40002F022F9B04212D14F4601340C2C10D800
:1040F400104B1B5D5A1CAA5CE85C40EA0220002EAF
:10410400E5D14FF6FF739842EFD000200CE0002079
:104114000AE02B7813F0400F05D03EB138F8173081
:1041240033B9012000E00120BDE8F8830120FBE75A
:104134000020F9E7C4870008023900F580535B6961
:10414400023B8B4206D900F580508378806A01FBDC
:104154000300704700207047012940F28180F8B5C0
:1041640005460C4600F580535B698B427AD900F50D
:1041740080531B78022B38D0032B50D0012B01D055
:10418400012070E001EB510600F58053196A5B8948
:10419400B6FBF3F31944FFF7DFFA10B14FF0FF3029
:1041A40061E0771C05F580525389B6FBF3F103FBFC
:1041B4001166AE5D116AB7FBF3F319442846FFF7A5
:1041C400CBFA002850D105F580535B89B7FBF3F295
:1041D40003FB1277E85D46EA002014F0010F01D0DA
:1041E400000940E0C0F30B003DE000F58053196A7C
:1041F4005B895B08B4FBF3F31944FFF7ADFA0028BD
:1042040035D1640005F580535B89B4FBF3F203FBFD
:1042140012442B195B78285D40EA032023E000F563
:104224008053196A5B899B08B4FBF3F31944FFF7C5
:1042340093FAF8B9A40005F580535B89B4FBF3F253
:1042440003FB12442B19DA789878000440EA0260E0
:104254005B7840EA03202B5D184320F0704002E0B5
:10426400012070470120F8BD4FF0FF30FBE74FF00D
:10427400FF30F8E74FF0FF30F5E7F8B500F580536D
:10428400D9809C68012C5BD006460D461B6803F55B
:1042940080525269A24255D924B903F5805212784A
:1042A400032A22D02CBB03F580521289AA424BD98F
:1042B40003F580535A6A06F58053DC60002A4BD01C
:1042C4001E461B6803F5805148894009B5FBF0F090
:1042D4001044306149894909B5FBF1F201FB1255DB
:1042E40003EB451575610020F8BD03F58052546A4F
:1042F400D8E703F580535F897F099B7803FB07F7B1
:10430400BD4215D306F5805321461868FFF724FFF4
:104314000446B0F1FF3F19D0012819D906F580539E
:104324001B6803F580535B69834213D9ED1BE7E7F0
:1043340006F5805321461868FFF7FEFE0246BAE7E9
:104344000220D1E70220CFE70220CDE70120CBE70E
:104354000220C9E70220C7E70220C5E7012940F28D
:10436400A7802DE9F04105460C46164600F580531A
:104374005B698B4240F29E8000F580531B78022BD0
:1043840051D0032B6BD0012B02D00220BDE8F08169
:1043940001EB510700F58053196A5B89B7FBF3F30E
:1043A4001944FFF7D9F90028F0D107F1010805F500
:1043B40080535B89B7FBF3F203FB127714F001041B
:1043C40026D0EA5702F00F02310101F47F610A435B
:1043D400D2B2EA5505F5805201211171116AB8FB78
:1043E400F3F319442846FFF7B7F90028CED105F5B1
:1043F40080535B89B8FBF3F203FB128854B1C6F314
:10440400071205F8082005F5805501232B71BDE737
:10441400F2B2DEE715F9082022F00F02C6F30326F4
:104424003243D2B2EDE700F58053196A5B895B0829
:10443400B4FBF3F31944FFF78FF90028A6D1640005
:1044440005F580535A89B4FBF2F102FB1144291992
:104454002E55C6F307224A7001221A7196E700F519
:104464008053196A5B899B08B4FBF3F31944FFF783
:1044740073F900288AD1A40005F580577B89B4FB21
:10448400F3F203FB12442919CA788B781B0443EA1C
:10449400026303F0704333432E55C6F307224A7078
:1044A400C6F307428A701B0ECB7001233B716DE784
:1044B40002207047022069E7F8B505460E4641B967
:1044C40000F58053DF689FB15B69BB4211D80127B7
:1044D4000FE0FFF741FE034601284CD9B0F1FF3F3E
:1044E4004ED005F580525269824249D8374600E0E1
:1044F40001273C460CE021462846FFF72DFE0346E3
:1045040080B1B0F1FF3F3BD0012839D0BC4236D056
:10451400013405F580535B69A342ECD8012F2CD9F3
:104524000224E8E76FF0704221462846FFF716FFA1
:10453400034600B98EB9BBB905F58053DC601B692D
:10454400B3F1FF3F1ED005F58055013B2B616B791C
:1045540043F001036B71234612E02246314628469C
:10456400FFF7FCFE0346E6E7012B01D0012307E039
:104574004FF0FF3304E0012302E0002300E00023B6
:104584001846F8BD2346FBE72DE9F84300F58053B0
:10459400DE88751CABB2002B00F0A38004460F46E6
:1045A40000F580531A69002A00F09D80186800F510
:1045B40080535B895B09B5FBF3F103FB11535BB9D2
:1045C40004F5805301321A61D968C1B900F58050ED
:1045D4000389AB4240F28980013604F58054E680B9
:1045E400236803F5805252895209B5FBF2F102FBAC
:1045F400115503EB451565610020BDE8F88300F50E
:10460400805253895B09B5FBF3F392F8028008F1F9
:10461400FF3813EA0808DFD1FFF79EFD8146012821
:1046240065D9B0F1FF3F64D004F58053186800F5F4
:1046340080535B694B454AD8002F5CD004F5805306
:10464400D968FFF739FF8146002856D0012856D093
:10465400B0F1FF3F55D004F580531868FFF74DF8CB
:1046640008B10120C9E704F58057386800F5805384
:104674005A890021FEF7D2FD3F6849463846FFF7C4
:104684005BFD07F58057F86204F580531B6803F55A
:1046940080529278424514D903F5805301221A714D
:1046A40004F580531868FFF728F860BB04F58053BD
:1046B4001B6803F58053DA6A0132DA6208F10108F3
:1046C400E2E703F58053DA6AA2EB0802DA6204F542
:1046D4008057C7F80C9049463868FFF72DFD3861BC
:1046E4007AE7042089E7042087E7042085E702208D
:1046F40083E7012081E704207FE707207DE702208C
:104704007BE7012079E7012077E72DE9F0410446B2
:104714000021FFF7B2FD804600286AD104F58053DA
:104724004FF6FF729A84FF273E460CE004F580534F
:104734004FF6FF729A84FF2600212046FFF724FFDC
:104744008046002855D104F5805319691868FFF78D
:1047540003F8804600284CD104F580535D692B781A
:10476400002B44D0EA7A02F03F01E52BDED012F0B0
:10477400080F01D00F29D9D10F2918D026B92846FE
:10478400FEF784FFB84234D004F580539969CB7A9C
:1047940013F0010F04D10B222846FEF747FD40B366
:1047A40004F580534FF6FF729A84FF26C4E704F59C
:1047B4008052106A0028BFD013F0400F05D06F7BE1
:1047C40003F0BF03D18891841E46B34201D0FF2673
:1047D400B2E76B7BBB4201D0FF26ADE72946FFF76A
:1047E40067FC10B1013EF6B2A6E7FF26A4E74FF03E
:1047F40004084046BDE8F08130B583B00446019119
:104804000B782F2B01D05C2B01D10131019104F5E0
:10481400805300229A60019B1B781F2B1FD901A98A
:104824002046FFF703FB034610BB2046FFF76DFF4E
:1048340004F580539B69DA7A0346E0B912F0040F59
:1048440016D104F580535969CB7A13F0100F19D09F
:1048540004F580552868FEF722FEA860DFE71146BC
:104864002046FFF70AFD034604F5805400226261E6
:10487400184603B030BD0428FAD112F0040FF7D162
:104884000523F5E70523F3E770B504460E4600213A
:10489400FFF7F3FC0246E0B9002508E00135B54214
:1048A40017D001212046FFF76FFE024688B904F5B0
:1048B400805319691868FEF74FFF024648B904F59A
:1048C40080535B691B78E52BE8D0002BE6D00025EC
:1048D400E7E7042A01D0104670BD0722FBE7000079
:1048E4002DE9F04184B0054600F58053D3F81880D3
:1048F4001E6A0C22414601A8FEF786FC9DF80F3083
:1049040013F0010F20D0002388F80B3005F58052F6
:1049140013620124632C0CD82346324601A9404675
:10492400FEF756FE2846FFF7F0FE074608B90134A5
:10493400F0E7642C7AD0042F16D19DF80F3088F854
:104944000B3005F580531E629DF80F3013F0020FF3
:1049540019D1012421462846FFF796FF074608B9D6
:10496400013C12D1002F40D0384604B0BDE8F0819C
:10497400013336F81320002AFAD119332C4CA4FB46
:104984000334A408E6E70023F3E705F58053D98848
:10499400091B2846FFF771FC07460028E2D105F5FC
:1049A40080539869FEF772FE804605F580531969B5
:1049B4001868FEF7D1FE07460028D3D105F58056C6
:1049C4004346E2B27169306AFEF7C6FD336803F507
:1049D400805301221A7100212846FFF7D5FD0746AE
:1049E4000028BFD1013CE0D1BCE705F5805319692B
:1049F4001868FEF7B1FE07460028B5D105F58055C5
:104A0400202200216869FEF709FC0B22A969686964
:104A1400FEF7FAFBAB69DB7A6A6903F018031373D8
:104A24002B6803F5805301221A719DE707279BE742
:104A34004FECC44E2DE9F04104460E46FF273D4697
:104A44004FF0040834E00F2A1DD113F0400F07D0B3
:104A54004F7B03F0BF0304F58052D08890841D4639
:104A6400AB4201D0FF251DE04B7BBB4201D0FF25AB
:104A740018E004F58053186AFEF72EFD002838D09C
:104A8400013DEDB20EE025B90846FEF7FFFDB84240
:104A940033D004F580534FF6FF729A842DE0FF253E
:104AA40000E0FF2500212046FFF76EFD804620BB75
:104AB40004F58053196901B304F580531868FEF7AF
:104AC4004BFE8046C8B904F5805359690B7893B1FD
:104AD400CA7A02F03F02E52BE1D02E2BE1D022F07E
:104AE4002000082814BF00200120B042ABD0FF25CD
:104AF400D8E7FF25D6E74FF00408B8F1000F03D03C
:104B040004F58054002323614046BDE8F081F8B5E4
:104B1400054600F58053DE8831469B8C4FF6FF72C4
:104B2400934200D019462846FFF7A7FB074610BB5F
:104B340005F5805319691868FEF70EFE0746C0B9DB
:104B440005F58054202200216069FEF767FB636944
:104B5400E5221A70236803F5805301221A71E38851
:104B64009E4206D900212846FFF70EFD074600287D
:104B7400DED0042F01D03846F8BD0227FBE7F8B594
:104B840001292FD904460D4600F580535B698B42F9
:104B94002BD9002700E0354604F580535B69AB420E
:104BA40021D929462046FFF7D7FA0646D8B101286D
:104BB4001DD0B0F1FF3F1CD0002229462046FFF74C
:104BC400CDFB074678B904F580531B69B3F1FF3F69
:104BD400E1D004F5805201331361537943F00103AA
:104BE4005371D8E702273846F8BD0227FBE70227AE
:104BF400F9E70127F7E7000070B584B00190009150
:104C04001646039103A8FEF74FFD051E1FDB124B4A
:104C140053F8254034B12046FEF708FC04F58054CF
:104C240000232370019B1BB103F5805200211170F6
:104C3400094A42F8253063B1012E02D0002004B0A5
:104C440070BD0022694601A8FEF70EFEF7E70B20AF
:104C5400F5E70020F3E700BF8C2600202DE9F0479C
:104C6400ADF5925D0191002800F0FE8014460646E1
:104C740000F5805300221A6004F01F0704F01E029E
:104C840001A90DF590501830FEF7EEFD054620B150
:104C940028460DF5925DBDE8F08790AD83ABC5F86D
:104CA400F03F03ABC5F8F83F01AB196886A8FFF7DE
:104CB400A3FDD5F8EC8F054658B9B8F1000F61D0C3
:104CC40037F0010314BF0121002186A8FEF7C6FABC
:104CD400054614F01C0F00F0B380002D5ED0042DA7
:104CE40052D047F008070DF591530C33D3F80080E8
:104CF40015B917F0080F5DD1E5B917F0080F01D009
:104D040047F020070DF5905318331B6803F58053C3
:104D1400DB6A06F58054E361C4F8208037F00103B0
:104D240014BF0121002186A8FEF7F2FAA062002830
:104D340000F09C80002DABD106F58056B77100279A
:104D4400F7710DF5905318331C6841462046FEF761
:104D5400A6FB306198F81F2098F81E301B0443EA24
:104D6400026398F81D2043EA022398F81C20134399
:104D7400F360B760B7617762346004F58054E38808
:104D8400B38085E70625A4E7FEF7B0FA08B9122533
:104D9400A7E786A8FFF7A4FD0546A2E798F80B301D
:104DA40013F0110F04D114F0040FA1D008259FE7CC
:104DB40007259DE7FEF796F888F80E00C0F3072351
:104DC40088F80F30C0F3074388F81030000E88F8D5
:104DD4001100002488F80B4088F81C4088F81D4016
:104DE40088F81E4088F81F400DF5107A4146DAF81D
:104DF400D80FFEF754FB814621464046FEF761FB7F
:104E0400DAF8D80F00F5805301221A71B9F1000FB6
:104E14003FF472AFDC6A4946FFF7B1FE054600284D
:104E24007FF46AAF0DF590531833186809F1FF3316
:104E340000F58052D3602146FEF78EFC05465BE701
:104E4400002D7FF459AF98F80B3013F0100F09D1EF
:104E540014F0020F3FF450AF13F0010F3FF44CAFC6
:104E6400072549E7042547E7092511E702250FE748
:104E74002DE9F04F83B004460F46154698460023AB
:104E8400C8F80030FEF7D0FC0190002840F00781FC
:104E940004F58053DB790193002B40F0008104F585
:104EA40080539B7913F0010F00F00F8104F58053B8
:104EB400DE689B68F61AAE42C0F097802E4694E0F6
:104EC40004F580535B6A1BB12046FEF7D1FAAAE0D1
:104ED40004F580535969FFF73FF9A4E004F58054C1
:104EE4004FF0020B84F807B0CDF804B0D7E004F516
:104EF40080544FF0010B84F807B0CDF804B0CEE035
:104F040004F580544FF0020B84F807B0CDF804B0D8
:104F1400C5E004F580539B7913F0400F06D004F5E7
:104F240080539869A0EB0A00584508D304F58053D0
:104F34001B6803F580535D890BFB05F549E01B688D
:104F440003F580535A89214602FB0070FEF75CF991
:104F5400ECE704F580539A69524522D09B7913F00B
:104F6400400F10D009F580590123214699F801001A
:104F7400FEF732F9002840F0968004F580529379C8
:104F840023F04003937104F58053186800F58050B2
:104F94000123524621464078FEF712F9002840F0DA
:104FA4008B8004F58053C3F818A004F5805213686D
:104FB40003F580535D899168B1FBF5F305FB13118B
:104FC4006D1AAE4200D235462A4621443846FEF7D1
:104FD4001BF92F4404F5805293682B449360D8F84E
:104FE40000302B44C8F80030761B002E57D004F54F
:104FF40080539968186800F580535D89B1FBF5F317
:1050040005FB1313002BD0D1B1FBF5F500F580534C
:105014009B78013BDBB21D400FD100297FF450AFD8
:1050240004F58053186901287FF658AFB0F1FF3FAB
:105034003FF45DAF04F58053586104F58053D3F811
:10504400009059694846FFF777F8824600283FF4F4
:1050540057AFAA4409F580535B89B6FBF3FBB3420F
:105064003FF677AF05EB0B0309F580529278934234
:1050740001D9A2EB050B09F580595B465246394626
:1050840099F80100FEF79CF800283FF442AF04F5BC
:1050940080544FF0010B84F807B0CDF804B00198A8
:1050A40003B0BDE8F08F04F580544FF0010B84F891
:1050B40007B0CDF804B0F2E704F580544FF0010BCB
:1050C40084F807B0CDF804B0E9E707230193E6E7D5
:1050D4002DE9F04F83B004460F4615469846002349
:1050E400C8F80030FEF7A0FB0190002862D104F557
:1050F4008053DB790193002B5CD104F580539B79B9
:1051040013F0020F00F0368104F580539B68EB42E4
:10511400C0F0E6800025E3E004F580535B6A002BD1
:105124004CD02046FEF7A4F90346002B00F0128170
:10513400012B4AD0B3F1FF3F50D004F580525361A4
:10514400126912B904F58052136104F580539B79F6
:1051540013F0400F4BD104F58053D3F800905969F4
:105164004846FEF7E9FF824600285CD0B24409F5C0
:1051740080535B89B5FBF3FBAB427CD806EB0B0396
:1051840009F580529278934201D9A2EB060B09F5F6
:1051940080595B465246394699F80100FEF71CF8DF
:1051A400002849D004F580544FF0010B84F807B06F
:1051B400CDF804B0019803B0BDE8F08F04F5805336
:1051C4005969FFF779F90346AFE704F580544FF0C6
:1051D400020B84F807B0CDF804B0EBE704F5805473
:1051E4004FF0010B84F807B0CDF804B0E2E704F502
:1051F4008052136803F58050012392692146407858
:10520400FDF7EAFF30B904F58052937923F04003A7
:105214009371A0E704F580544FF0010B84F807B0B4
:10522400CDF804B0C6E704F580544FF0020B84F8BF
:1052340007B0CDF804B0BDE704F580539969A1EB3C
:105244000A01594508D304F580531B6803F58053BC
:105254005E890BFB06F637E01E461B6803F5805398
:105264005A8902FB01712046FDF7CEFFB37923F082
:105274004003B371E7E704F580539B69534505D0B8
:1052840004F580539A68DB689A424FD304F580533F
:10529400C3F818A004F58052136803F580535E899F
:1052A4009068B0FBF6F306FB1300361AB54200D241
:1052B4002E46324639462044FDF7A6FF04F58052B7
:1052C400937943F040039371374404F58052936813
:1052D40033449360D8F800303344C8F80030AD1B31
:1052E400002D37D004F580539968186800F5805371
:1052F4005E89B1FBF6F306FB1313002BCAD1B1FB95
:10530400F6F600F580539B78013BDBB21E407FF438
:105314001CAF00297FF400AF04F580531B69002BF8
:105324007FF403AFFFF7C8F80346FEE609F580599A
:1053340001235246214699F80100FDF741FF002858
:10534400A4D004F580544FF0010B84F807B0CDF8D5
:1053540004B02FE704F580539A68DB689A4202D9B7
:1053640004F58053DA6004F58054A37943F02003F4
:10537400A3711FE7072301931CE738B50546FEF721
:1053840053FA10BB05F580539B7913F0200F1CD002
:1053940013F0400F12D005F58052136803F58050C6
:1053A4000123926929464078FDF716FF00283CD175
:1053B40005F58052937923F04003937105F58053EA
:1053C400D9691868FEF7C8F900B138BD05F58055EC
:1053D4002C6AE37A43F02003E3722B7B2377AB89B7
:1053E4001B0A6377AB7BA377EB7BE37729692046C2
:1053F400FEF767F8FDF776FDA075C0F30723E375A4
:10540400C0F307432376000E60760023A374E3748D
:10541400AB7923F02003AB712B6803F58053012291
:105424001A712868FEF726FCCFE70120CDE710B5F6
:105434000446FFF7A2FF00B110BD2046FEF7F4F9C1
:105444000028F9D104F58053986AFDF7CBFF0028B2
:10545400F2D104F580542060EEE72DE9F84F0446BC
:105464000D46FEF7E1F90646002840F0B68104F542
:105474008053DB79002B40F0AF8104F580535B6AE5
:10548400002B00F0B480B5F1FF3F57D004F58053F2
:10549400DF68AF4200D32F4604F580539F60002F8E
:1054A40000F09B817D1E29462046FDF7E1FF014661
:1054B40004F580535861D3F800804046FEF73CFE63
:1054C400002800F0858008F580525389B5FBF3F578
:1054D4009278013A15400544B7FBF3F203FB1277C7
:1054E400002F00F07A8104F580539A69AA4200F0F3
:1054F40074819B7913F0400F0FD008F58058012375
:10550400214698F80100FDF767FE002865D104F5EF
:105514008052937923F04003937104F58053186803
:1055240000F5805001232A4621464078FDF748FEC5
:10553400002857D104F58054A5614EE1984658F8E7
:1055440004BB04F58053D3F810A0BAF1000F31D096
:105554004FF0020909F102095146002701370D46AF
:1055640004F580531868FEF7F7FD0146012817D9A2
:10557400B0F1FF3F19D001358542EFD0CB4505D3BB
:10558400434643F8087BC8F804A0984604F58053C2
:105594001B6803F580535B698B420DD98A46D9E7B2
:1055A40004F580540226E67117E104F580540126BF
:1055B400E67112E14FF0020904F58054636AC3F8FE
:1055C4000090D94500F20C810023C8F8003004E1B2
:1055D40004F580540226E671FFE004F580540126A8
:1055E400E671FAE004F580540126E671F5E004F56D
:1055F4008053DB68AB4206D204F58052927912F0F4
:10560400020F00D11D4604F580539A680021996069
:105614002DB3186800F5805393F802805B8903FB6F
:1056240008F882B16B1EB3FBF8F3013AB2FBF8F150
:105634008B4208D3C8F10007174004F580539F60DC
:10564400EF1B5D6909E004F580531B69002B4BD007
:1056540004F5805253612F461D46002D77D104F581
:1056640080529368116801F580525289B3FBF2F0BD
:1056740002FB10334BB304F580539A69AA4224D039
:105684009B7913F0400F0FD001F580500123214680
:105694004078FDF7A1FD002840F0948004F5805285
:1056A400937923F04003937104F58053186800F54F
:1056B400805001232A4621464078FDF781FD0028C9
:1056C40040F0858004F580539D6104F580539A6809
:1056D400DB689A4240F2818004F58054E260A37949
:1056E40043F02003A37178E00021FEF7E5FE0346B2
:1056F400012806D0B0F1FF3F08D004F580521061B4
:10570400A6E704F580540226E67166E004F58054A9
:105714000126E67161E004F5805329461868FEF716
:105724001BFD0546B5F1FF3F3BD0012D3ED904F5E5
:1057340080531B6803F580535B69AB4236D904F58B
:1057440080535D619A6842449A60A7EB0807474515
:105754000FD904F580539B7913F0020FDBD004F5C5
:10576400805329461868FEF7A7FE05460028D9D1BC
:10577400474604F580539A683A449A60186800F5DD
:105784008053B3F80A80B7FBF8F308FB1373BBB17B
:105794002946FEF7D1FC054668B1B7FBF8F73D444E
:1057A4005DE704F580540126E67116E004F58054A3
:1057B4000226E67111E004F580540226E6710CE03D
:1057C4001D464CE704F580540126E67105E004F516
:1057D40080540126E67100E01E463046BDE8F88F8D
:1057E4001126FAE730B5ADF5077D0191002851D0B7
:1057F4000546002201A985A8FEF736F8044640B103
:105804001CB105F5805500232B6020460DF5077D5E
:1058140030BD05F58053859A1A6082AA9A6102AA5E
:105824001A6201992846FEF7E7FF044670BB05F5A6
:105834008053596949B1CB7A13F0100F25D085985C
:10584400FDF72DFE05F580539860859B03F5805385
:10585400DA8805F580539A8000212846FEF70DFD6D
:10586400044698B905F580539B6823B905F5805320
:105874000022DA610AE000212846FDF749FD05F51A
:105884008053D86110B91224BAE70524042CB7D187
:105894000524B6E70924B8E710B50446FDF7C4FFAC
:1058A40040B904F58053DB692BB918B904F5805469
:1058B4000023236010BD1846FDF794FDF5E770B58D
:1058C400ADF5047D04460D46FDF7AEFF064620BB4C
:1058D40075B104F5805381AA9A6101AA1A62002164
:1058E4002046FFF7A7F8042808D058B1064614E06C
:1058F40000212046FEF7C1FC06460EE004F5805365
:1059040000221A6129462046FEF713FA0021204698
:10591400FEF73AFE042804D0064630460DF5047D11
:1059240070BD04F5805400232361F6E72DE9F047A8
:1059340082B001900F461446002201A92046FDF7CB
:1059440093FF25688046002869D105F580531A69BC
:105954005C69A31E9A4201D83A6060E005F5805361
:1059640093F80090B9F1010F06D005F58053196A38
:1059740000221046164631E00224002605E00134D8
:1059840005F580535B69A34241D921462846FEF7B9
:10599400E3FBB0F1FF3F39D0012844D00028EED119
:1059A4000136ECE701F1010A2846FDF7D5FE8046F1
:1059B40068BB2A4605F580535889514610E092F891
:1059C40001C0137843EA0C231BB203B90136023237
:1059D400023801E004320438013C18D00028E1D038
:1059E400B9F1020FEBD092F803C093781B0443EA99
:1059F4000C6392F801C043EA0C2392F800C043EA16
:105A04000C0333F07043E5D10136E3E7C84605F5EE
:105A140080552E616B7943F001036B713E60404603
:105A240002B0BDE8F0874FF00208F0E770B5044615
:105A3400FDF7FAFE054660B904F58053DB793BB9FE
:105A440004F580539B7913F0020F02D1072522E05D
:105A54001D4605BB04F58053DA689B689A4216D943
:105A640004F58052D360917941F020019171A3B97A
:105A7400164611691068FFF782F805460023336162
:105A84002DB904F580539B7913F0400F31D115B132
:105A940004F58054E571284670BD04F580535969B6
:105AA4001868FEF759FB0646B0F1FF3F1DD0012EE2
:105AB4001DD0002DE4D104F58053186800F58053FF
:105AC4005B69B342DCD904F580536FF070425969C5
