:020000040800F2
:100000000000012099500008310400083304000862
:100010003504000837040008390400080000000017
:100020000000000000000000000000003B04000889
:100030003D040008000000003F04000841040008DF
:10004000E1500008E1500008E1500008E1500008CC
:10005000E1500008E1500008E1500008E1500008BC
:10006000E1500008E1500008E1500008E1500008AC
:1000700049040008590400086904000879040008CC
:10008000E1500008E1500008E1500008E15000088C
:10009000E1500008E1500008E1500008E15000087C
:1000A000E1500008E1500008E1500008E15000086C
:1000B000E1500008E1500008E1500008E15000085C
:1000C000E1500008E1500008E150000889040008F0
:1000D000E15000089904000809050008E1500008F3
:1000E000E1500008E1500008E1500008E15000082C
:1000F000E1500008E1500008E1500008E15000081C
:10010000E1500008E1500008E1500008E15000080B
:10011000E1500008E1500008E1500008E1500008FB
:10012000E1500008E1500008E1500008E1500008EB
:1001300000000000000000000000000000000000BF
:1001400000000000000000000000000000000000AF
:10015000000000000000000000000000000000009F
:10016000000000000000000000000000000000008F
:10017000000000000000000000000000000000007F
:10018000000000000000000000000000000000006F
:10019000000000000000000000000000000000005F
:1001A000000000000000000000000000000000004F
:1001B000000000000000000000000000000000003F
:1001C000000000000000000000000000000000002F
:1001D000000000000000000000000000000000001F
:0401E0005FF8E0F1F3
:1001E40010B5054C237833B9044B13B10448AFF36D
:1001F40000800123237010BD700000200000000067
:10020400B85A000808B5034B1BB103490348AFF3C0
:10021400008008BD0000000074000020B85A0008E7
:10022400034613F8012B002AFBD1181A0138704732
:100234000FB4F0B583B008AD55F8047B0E4C4FF401
:10024400807632460021204604F08CFF01952B462F
:100254003A463146204604F0C5FF2046FFF7E0FF4A
:100264004FF47A7382B22146044801F040FD03B092
:10027400BDE8F04004B07047C01000208C1400208A
:1002840072B6FEE700B591B02822002106A804F05A
:1002940069FF0023019302930393049305930122BE
:1002A40006924FF4803307930A9202220D920E9322
:1002B4004FF4E0130F9306A800F060FC80B90F23FD
:1002C400019302210291002303934FF4806204926C
:1002D400059301A800F084FE20B911B05DF804FB79
:1002E400FFF7CEFFFFF7CCFF10B5ADF5815D86B00B
:1002F40000F0F6FBFFF7C6FF02F060F802F08CFA9C
:1003040002F09EF902F0AAF802F0CCF802F0B8F973
:1003140002F0B4FA322000F007FC04F0FFFD374885
:10032400FFF786FF01223649364803F03DFE364B7F
:1003340018700D281FD0344B1978002951D1334837
:10034400FFF776FF0A22324904A803F059FE01465A
:100354002D4B1870002840D16B4610222D490DEB0F
:10036400020003F04FFF04A804F092F800992A4811
:10037400FFF75EFF38E02948FFF75AFF6A4600237B
:10038400009353609360D36009238DF800300223F7
:100394008DF8013001230193402302934FF48053DD
:1003A400039304AA6946164804F082F80146164CE1
:1003B40020701B48FFF73CFF2378002BBBD1104C67
:1003C40000222146104603F0EFFD012221460D488C
:1003D40003F0EAFD0C4B1870ADE71248FFF728FF55
:1003E40002E01148FFF724FF002400F097FBA0422D
:1003F400FBD000F093FB0446F7E700BFD05A000897
:10040400F85A00088C000020C0110020345B00085A
:100414004C5B0008585B00086C5B0008FC5A000841
:10042400205B0008985B0008B85B0008FEE7FEE765
:10043400FEE7FEE7FEE770477047704708B500F037
:1004440061FB08BD08B5024801F042F908BD00BFD0
:10045400C811002008B5024801F03AF908BD00BFF0
:100464000C12002008B5024801F032F908BD00BFA3
:100474004814002008B5024801F02AF908BD00BF5D
:100484000414002008B5024800F078FA08BD00BF43
:100494005012002000B583B0154B1B681A6812F087
:1004A400100F05D1124801F083FD03B05DF804FB81
:1004B400002201921A6801925B680193019B0C4827
:1004C40001F07BFC0B4B1B685B68C3F580739BB22C
:1004D400094A138013889BB213B1084B01221A7086
:1004E4004FF480720649024801F054FFDAE700BF76
:1004F4008C14002004140020021400200014002096
:100504000013002008B5024801F052FD08BD00BFE9
:10051400D414002082B00E4B9A6942F001029A6111
:100524009A6902F001020092009ADA6942F080525C
:10053400DA61DB6903F080530193019B054A536838
:1005440023F0E06343F00073536002B0704700BFD0
:1005540000100240000001402DE9F04782B005463A
:10056400884617461E4600F0D9FA0A9B1B1A03EB6D
:10057400060900F0D3FA82462B4B1B68C3F3CB3336
:1005840009FB03F301932B689C6838EA04030CBF4E
:100594004FF0010C4FF0000CBC4540D0B6F1FF3FCA
:1005A400F1D000F0BBFAA0EB0A0048450AD2B9F139
:1005B400000F07D0019A02B14A46019B013B019307
:1005C4009146E0E72A68536823F0E00353606B68C0
:1005D400B3F5827F0BD0AB6AB3F5005F14D001236F
:1005E40085F85130002385F85030032018E0AB68BB
:1005F400B3F5004F02D0B3F5806FECD12A681368CD
:1006040023F040031360E6E72A68136823F40053D9
:1006140013602A68136843F400531360DFE7002073
:1006240002B0BDE8F08700BF0800002070B582B0BA
:1006340006460C46154600920B4601220221FFF79E
:100644008BFF48B900952346002280213046FFF7EE
:1006540083FF38B902B070BD736D43F02003736536
:100664000320F7E7736D43F0200373650320F1E77C
:10067400002856D010B50446436A33B94368B3F52D
:10068400827F05D00023C36102E00023036143613C
:100694000023A36294F85130002B3CD0022384F849
:1006A40051302268136823F040031360636803F435
:1006B4008273A26802F404421343E26802F4006203
:1006C4001343226902F002021343626902F0010239
:1006D4001343A26902F400721343E26902F0380280
:1006E4001343226A02F080021343A26A02F4005206
:1006F400216813430B60638B226803F00403536087
:100704002268D36923F40063D36100206065012368
:1007140084F8513010BD84F85030204601F0E4FED6
:10072400BCE7012070472DE9F04383B004468846B6
:1007340091461F460A9D00F0F1F9064694F851309F
:10074400DBB26268012B0AD0B2F5827F40F00581EA
:10075400A268002A40F00581042B40F00481B8F11E
:10076400000F00F00281B9F1000F00F00081002FAA
:1007740000F0FF8094F85030012B00F0FC8001233E
:1007840084F8503094F85130DBB2042B02D00523A6
:1007940084F8513000236365C4F83890E787A7874D
:1007A400C4F83080E786A7862364636423681A68E4
:1007B40012F0400F03D11A6842F040021A60E36855
:1007C400B3F5006F11D063680BB1012F0BD1226B0D
:1007D400236812781A73236B01332363E38E9BB26D
:1007E400013B9BB2E386012771E063680BB1012FE3
:1007F4000BD1226B23681288DA60236B02332363E4
:10080400E38E9BB2013B9BB2E38601271BE0236886
:100814009A6812F0010F0ED0E28F92B25AB1DA68E0
:10082400A36B1A80A36B0233A363E38F9BB2013BD8
:100834009BB2E387012700F071F9801BA84202D321
:10084400B5F1FF3F1ED1E38E9BB21BB9E38F9BB280
:10085400002B62D023689A6812F0020FD7D0E28E80
:1008640092B2002AD3D0002FD1D0226B1288DA6042
:10087400236B02332363E38E9BB2013B9BB2E3867B
:100884000027C4E7012384F85130002384F8503052
:10089400032063E023689A6812F0010F0ED0E28F00
:1008A40092B25AB1DA68A36B1A70A36B0133A363D3
:1008B400E38F9BB2013B9BB2E387012700F02EF943
:1008C400831BAB4202D3B5F1FF3F1ED1EDB1E38EE2
:1008D4009BB213B9E38F9BB2FBB123689A6812F001
:1008E400020FD7D0E28E92B2002AD3D0002FD1D0FB
:1008F400226B12781A73236B01332363E38E9BB24A
:10090400013B9BB2E3860027C4E7012384F85130FE
:10091400002384F85030032020E032462946204644
:10092400FFF784FE90B9A36833B901932368DA68AA
:1009340001929B680193019B012384F851300023A9
:1009440084F85030636D4BB1012007E020236365C8
:10095400002384F85030012000E0022003B0BDE8F9
:10096400F0830220FAE70220F8E70120F6E70120ED
:10097400F4E70120F2E70220F0E7704730B585B0D4
:100984000446026851689368C3F3801013F0400F63
:1009940005D113F0010F02D011F0400F5AD113F01A
:1009A400020F02D011F0800F58D1C3F3401513F099
:1009B400200F01D1002854D011F0200F51D078B16C
:1009C40094F85130DBB2032B4DD0636D43F0040334
:1009D400636500230193D368019393680193019B9A
:1009E40065B1636D43F0010363650023039393686A
:1009F4000393136823F040031360039B636D002B80
:100A04002FD02268536823F0E0035360012384F855
:100A1400513011F0030F2ED02268536823F00303E2
:100A24005360E36C4BB1164A5A63E06C00F09AFDD4
:100A340018B1636D43F040036365A36C8BB1104A36
:100A44005A63A06C00F08EFD58B1636D43F040030F
:100A5400636506E0236C2046984702E0636C2046F9
:100A6400984705B030BD00230293D368029393687E
:100A74000293029BF5E72046FFF77FFFF1E700BFF3
:100A8400890A000808B5406A0023C387C386FFF7B4
:100A940074FF08BD10B504460E4B18784FF47A73F2
:100AA400B3FBF0F30C4A1068B0FBF3F000F0DEFF88
:100AB40068B90F2C01D901200AE0002221464FF029
:100AC400FF3000F08DFF054B1C60002000E001208A
:100AD40010BD00BF0000002008000020040000201A
:100AE40008B5074A136843F010031360032000F0AD
:100AF40065FF0F20FFF7CEFFFFF70CFD002008BDB8
:100B040000200240034A1168034B1B780B44136016
:100B1400704700BFC411002000000020014B18687A
:100B2400704700BFC411002038B50446FFF7F6FF34
:100B34000546B4F1FF3F02D0044B1B781C44FFF779
:100B4400EDFF401BA042FAD338BD00BF00000020D7
:100B540082B0084B1B68084AA2FB03235B0A00FB14
:100B640003F3019300BF019B5A1E0192002BF9D19C
:100B740002B0704708000020D34D6210002800F036
:100B8400F18170B582B00446036813F0010F2CD0D4
:100B9400994B5B6803F00C03042B1DD0964B5B68E8
:100BA40003F00C03082B12D06368B3F5803F41D0E7
:100BB400002B55D103F1804303F504331A6822F462
:100BC40080321A601A6822F480221A6037E08A4B55
:100BD4005B6813F4803FE7D0874B1B6813F4003F36
:100BE40003D06368002B00F0BF81236813F0020F69
:100BF40075D0814B5B6813F00C0F5FD07E4B5B6844
:100C040003F00C03082B54D02369002B00F08A80D6
:100C14007A4B01221A60FFF781FF0546764B1B6869
:100C240013F0020F75D1FFF779FF401B0228F5D9A5
:100C340003209EE1704A136843F4803313606368B1
:100C440043B3FFF76BFF05466B4B1B6813F4003F80
:100C5400CBD1FFF763FF401B6428F5D9032088E15B
:100C6400B3F5A02F09D0644B1A6822F480321A60BD
:100C74001A6822F480221A60E1E703F18043A3F5A5
:100C84003C331A6842F480221A601A6842F48032B3
:100C94001A60D4E7FFF742FF0546574B1B6813F46D
:100CA400003FA2D0FFF73AFF401B6428F5D9032088
:100CB4005FE1514B5B6813F4803FA5D14E4B1B6839
:100CC40013F0020F03D02369012B40F04F814A4AED
:100CD400136823F0F803616943EAC10313602368CE
:100CE40013F0080F33D0A369002B5CD0434B0122CF
:100CF400C3F88024FFF712FF05463F4B5B6A13F0ED
:100D0400020F21D1FFF70AFF401B0228F5D9032067
:100D14002FE1394A136823F0F803616943EAC103F8
:100D24001360DCE7354B00221A60FFF7F7FE054637
:100D3400314B1B6813F0020FD1D0FFF7EFFE401BBD
:100D44000228F5D9032014E10120FFF701FF2368ED
:100D540013F0040F00F09680274BDB6913F0805FDB
:100D640034D1254BDA6942F08052DA61DB6903F051
:100D740080530193019B0125214B1B6813F4807F51
:100D840026D0E368012B3DD0002B53D103F18043DF
:100D940003F504331A6A22F001021A621A6A22F075
:100DA40004021A6233E0154B0022C3F88024FFF7D3
:100DB400B5FE0546104B5B6A13F0020FC7D0FFF770
:100DC400ADFE401B0228F5D90320D2E00025D3E76D
:100DD4000B4A136843F480731360FFF79FFE0646C3
:100DE400074B1B6813F4807FCBD1FFF797FE801B62
:100DF4006428F5D90320BCE0001002400000424200
:100E0400007000405F4A136A43F001031362E36811
:100E140033B3FFF783FE06465A4B1B6A13F0020FE7
:100E24002FD1FFF77BFE801B41F288339842F3D920
:100E340003209EE0052B09D0524B1A6A22F00102CE
:100E44001A621A6A22F004021A62E0E74D4B1A6A27
:100E540042F004021A621A6A42F001021A62D6E7E8
:100E6400FFF75CFE0646474B1B6A13F0020F08D0DF
:100E7400FFF754FE801B41F288339842F3D90320D4
:100E840077E0E5B9E369002B72D03E4A526802F07C
:100E94000C02082A56D0022B17D03B4B00221A66AC
:100EA400FFF73CFE0446374B1B6813F0007F47D026
:100EB400FFF734FE001B0228F5D9032059E0314A1C
:100EC400D36923F08053D361DCE72F4B00221A66E9
:100ED400FFF724FE05462B4B1B6813F0007F06D05A
:100EE400FFF71CFE401B0228F5D9032041E0236ACA
:100EF400B3F5803F1AD023494B6823F47413226A54
:100F0400606A024313434B601F4B01221A66FFF7CA
:100F140005FE04461B4B1B6813F0007F0ED1FFF740
:100F2400FDFD001B0228F5D9032022E0154A536871
:100F340023F40033A1680B435360DCE7002018E07E
:100F4400002016E0012B16D00E4B5B6803F48031B1
:100F5400226A914211D103F47013626A93420ED152
:100F6400002006E001207047012002E0012000E09B
:100F7400002002B070BD0120FBE70120F9E7012049
:100F8400F7E700BF00100240000042420F4B5B68CD
:100F940003F00C02082A01D00D487047C3F38342C2
:100FA4000C49885C13F4803F0BD0084B5B68C3F397
:100FB4004043094AD35C064A02FB00F0B0FBF3F05D
:100FC4007047064B03FB00F0704700BF001002405F
:100FD40000127A00D05B0008E05B000800093D00C5
:100FE400002800F0A08070B50D460446524B1B68E3
:100FF40003F007038B420BD24F4A136823F0070315
:101004000B431360136803F007038B4240F08D8099
:10101400236813F0020F17D013F0040F04D0474ACB
:10102400536843F4E0635360236813F0080F04D05B
:10103400424A536843F460535360404A536823F070
:10104400F003A1680B435360236813F0010F31D000
:101054006368012B20D0022B25D0384A126812F085
:10106400020F64D035494A6822F0030213434B60EF
:10107400FFF754FD0646314B5B6803F00C036268CE
:10108400B3EB820F16D0FFF749FD801B41F2883382
:101094009842F0D9032045E0284A126812F4003F30
:1010A400E0D101203EE0254A126812F0007FD9D138
:1010B400012037E0204B1B6803F00703AB420AD939
:1010C4001D4A136823F007032B431360136803F0CE
:1010D4000703AB422DD1236813F0040F06D0174A3F
:1010E400536823F4E063E1680B435360236813F00F
:1010F400080F07D0114A536823F46053216943EA67
:10110400C1035360FFF742FF0C4B5B68C3F3031347
:101114000B4AD35CD8400B4B18600B4B1868FFF795
:10112400B9FC002070BD012070470120FAE70120BE
:10113400F8E70120F6E700BF00200240001002405B
:10114400E45B00080800002004000020014B18683C
:10115400704700BF0800002008B5FFF7F7FF044BF5
:101164005B68C3F30223034AD35CD84008BD00BFC5
:1011740000100240F45B000808B5FFF7E7FF044BDA
:101184005B68C3F3C223034AD35CD84008BD00BFE5
:1011940000100240F45B000870B582B00024A4463D
:1011A400B0E0874DAA4210D007D9864DAA420CD090
:1011B40005F58035AA4208D013E0A5F58015AA42AA
:1011C40003D005F57025AA4207D18A68002A62D0A7
:1011D400012A5BD04361082403E0A5F58015AA42E7
:1011E400F3D0BEF1FF0F58D80646BEF1FF0F56D814
:1011F4004FEA8C0233680F25954023EA050304FA6D
:1012040002F2134333604B6813F0805F78D06E4B67
:101214009A6942F001029A619B6903F00103019308
:10122400019B4FEA9C02951C684B53F825600CF017
:1012340003039D000F23AB4026EA0306644B984248
:1012440033D003F58063984200F0988003F58063FF
:10125400984200F0958003F58063984200F09280F4
:1012640003F58063984200F08F8003F58063984211
:1012740019D006231AE0CC68B3E7CC680434B0E78D
:10128400CC680834ADE7CC680C34AAE703610824C1
:10129400A7E70024A5E70424A3E7061DA5E7ACF10E
:1012A40008029200A6E7052300E00023AB40334385
:1012B4000232464D45F822304B6813F4801F65D046
:1012C400444A936843EA0E0393604B6813F4001F87
:1012D40062D0404AD36843EA0E03D3604B6813F4E8
:1012E400003F5FD03B4A536843EA0E0353604B68A8
:1012F40013F4803F5CD0374A136843EA0E0313604B
:101304000CF1010C0A6832FA0CF357D0012303FAEA
:101314000CF302EA030E33EA0202F1D14A68122AFC
:101324003FF63FAF122A3FF65CAF01A555F822F015
:10133400CF1100087B1200088512000897120008DC
:10134400E7110008E7110008E7110008E711000899
:10135400E7110008E7110008E7110008E711000889
:10136400E7110008E7110008E7110008E711000879
:10137400E71100087F1200088B120008012395E78B
:10138400022393E7032391E704238FE7114A936829
:1013940023EA0E03936098E70E4AD36823EA0E0308
:1013A400D3609BE70B4A536823EA0E0353609EE71E
:1013B400084A136823EA0E031360A1E702B070BD64
:1013C4000000221000003110001002400000014013
:1013D40000080140000401400AB10161704709049A
:1013E4000161704730B40124056CAC40C56B6C607E
:1013F400046863604368102B05D003689960036830
:10140400DA6030BC704703689A600368D960F8E713
:1014140000283AD010B4024600681D4B984229D8DF
:101424001C4B03441C49A1FB03131B099B001364BD
:101434001A4BD363022382F82130016821F47F51CF
:1014440021F03001536894682343D468234314691A
:1014540023435469234394692343D46923430B43AB
:10146400036000209063012382F8213082F8200079
:1014740010BC70470A4B03440749A1FB03131B0923
:101484009B001364074BD363D4E70120704700BF6C
:1014940007040240F8FFFDBFCDCCCCCC00000240D5
:1014A400F8FBFDBF0004024038B5044690F8200064
:1014B400012832D0012084F8200094F82100C0B221
:1014C400012804D0002384F82030022038BD0220F3
:1014D40084F821000020A0632568286820F001001A
:1014E40028602046FFF77EFFE36A5BB12268136839
:1014F40043F00E0313602268136843F00103136082
:101504000020E3E72268136823F0040313602268D1
:10151400136843F00A031360EDE70220D6E790F85E
:101524002130DBB2022B06D004238363002380F82E
:101534002030012070470268136823F00E03136003
:101544000268136823F001031360036CC16B01226A
:1015540002FA03F34B6080F82120002380F8203046
:101564001846704708B590F82130DBB2022B03D03F
:1015740004238363012008BD0268136823F00E036B
:1015840013600268136823F00103136003684C4A74
:1015940093424ED9783A934224D01432934230D0B5
:1015A400143293422FD0143293422FD014329342E8
:1015B4002FD0143293422FD0143293422FD002F5FD
:1015C400627293422ED0143293422DD0143293423D
:1015D4002CD01432934202D04FF4803203E04FF403
:1015E400805200E00122374B5A60012380F82130F9
:1015F400002380F82030436B002B5ED098470020F6
:10160400B9E71022EFE74FF48072ECE74FF4805211
:10161400E9E74FF48032E6E74FF48012E3E74FF056
:101624008072E0E70122DEE71022DCE74FF48072EB
:10163400D9E7254A934224D01432934225D0143258
:10164400934224D01432934224D01432934224D0AF
:101654001432934224D01432934224D002F562729D
:10166400934223D01432934222D01432934221D095
:101674001432934202D04FF4803203E04FF480528C
:1016840000E00122114B5A60AFE71022FAE74FF451
:101694008072F7E74FF48052F4E74FF48032F1E7B9
:1016A4004FF48012EEE74FF08072EBE70122E9E796
:1016B4001022E7E74FF48072E4E700205BE700BF05
:1016C4008000024000040240080002400000024082
:1016D40038B5C36B1A6804682568016C04238B4011
:1016E400134200F09B8015F0040F00F097802368EC
:1016F40013F0200F03D1236823F00403236003684D
:101704009A4A934246D9783A934224D01432934267
:1017140028D01432934227D01432934227D0143263
:10172400934227D01432934227D01432934227D0C5
:1017340002F56272934226D01432934225D01432B9
:10174400934224D01432934202D04FF4802203E017
:101754004FF4804200E00422854B5A60C36A03B10F
:10176400984738BD4022F7E74FF48062F4E74FF41E
:101774008042F1E74FF48022EEE74FF48002EBE77A
:101784004FF08062E8E70422E6E74022E4E74FF402
:101794008062E1E7774A934224D01432934225D001
:1017A4001432934224D01432934224D014329342FC
:1017B40024D01432934224D01432934224D002F51C
:1017C4006272934223D01432934222D01432934251
:1017D40021D01432934202D04FF4802203E04FF41C
:1017E400804200E00422644B5A60B7E74022FAE7E3
:1017F4004FF48062F7E74FF48042F4E74FF480221D
:10180400F1E74FF48002EEE74FF08062EBE7042249
:10181400E9E74022E7E74FF48062E4E702238B40E4
:10182400134200F0AB8015F0020F00F0A78023688C
:1018340013F0200F06D1236823F00A032360012349
:1018440080F821300368494A93424BD9783A93424D
:1018540024D0143293422DD0143293422CD014321B
:1018640093422CD0143293422CD0143293422CD075
:10187400143293422CD002F5627293422BD014326C
:1018840093422AD01432934229D01432934202D084
:101894004FF4003203E04FF4005200E00222344BD4
:1018A4005A60002380F82030836A002B3FF459AF3C
:1018B400984756E72022F2E74FF40072EFE74FF41F
:1018C4000052ECE74FF40032E9E74FF40012E6E788
:1018D4004FF00072E3E70222E1E72022DFE74FF452
:1018E4000072DCE7234A934224D01432934225D079
:1018F4001432934224D01432934224D014329342AB
:1019040024D01432934224D01432934224D002F5CA
:101914006272934223D01432934222D014329342FF
:1019240021D01432934202D04FF4003203E04FF43A
:10193400005200E00222104B5A60B2E72022FAE77C
:101944004FF40072F7E74FF40052F4E74FF400321B
:10195400F1E74FF40012EEE74FF00072EBE70222DA
:10196400E9E72022E7E74FF40072E4E78000024051
:10197400000402400800024000000240082303FA69
:1019840001F111423FF4EDAE15F0080F3FF4E9AE5A
:10199400236823F00E032360026CC16B012303FA56
:1019A40002F24A60836380F82130002380F82030FB
:1019B400036B002B3FF4D5AE9847D2E6074AD368B1
:1019C40023F4E0631B041B0C000200F4E0600343F7
:1019D40043F0BF6343F40033D360704700ED00E08D
:1019E40000B5194BDB68C3F30223C3F1070CBCF148
:1019F400040F28BF4FF0040C03F1040EBEF1060FD0
:101A040018D9033B4FF0FF3E0EFA0CFC21EA0C01FF
:101A140099400EFA03F322EA0303194300280BDB6F
:101A24000901C9B200F1604000F5614080F800137B
:101A34005DF804FB0023E5E700F00F000901C9B2DB
:101A4400024B1954F4E700BF00ED00E014ED00E090
:101A5400002807DB00F01F02400901239340024ADB
:101A640042F82030704700BF00E100E00138B0F1D7
:101A7400807F0BD24FF0E0235861054AF02182F8B1
:101A840023100020986107221A61704701207047D3
:101A940000ED00E0026802F10C0353E8003F23F07C
:101AA400C0030C3242E800310029F3D1202380F82E
:101AB40041307047026802F10C0353E8003F23F4FD
:101AC40090730C3242E800310029F3D1026802F12C
:101AD400140353E8003F23F00103143242E80031B9
:101AE4000029F3D1036B012B05D0202380F8423069
:101AF400002303637047026802F10C0353E8003FBC
:101B040023F010030C3242E800310029F3D1ECE752
:101B140090F84130DBB2212B01D00220704783685A
:101B2400B3F5805F17D0036A5A1C02621A780368FF
:101B34005A60C38C9BB2013B9BB2C3844BB902680D
:101B4400D36823F08003D3600268D36843F0400372
:101B5400D360002070470369002BE4D1036A1B881B
:101B64000268C3F308035360036A02330362E0E7C5
:101B740010B504460268136923F44053C1680B434B
:101B8400136183680269134342691A430168CB688D
:101B940023F4B05323F00C031343CB60026853695E
:101BA40023F4407381690B4353610268134B9A42D7
:101BB40020D0FFF7D1FA024602EB820202EB820246
:101BC40063689B00B2FBF3F20D48A0FB02314909A4
:101BD400642303FB11231B013233A0FB03235B09A2
:101BE40003F0F00202EB011203F00F032168134427
:101BF4008B6010BDFFF7C0FA0246DDE700380140F4
:101C04001F85EB512DE9F04383B005460E46174678
:101C14009946DDF828802C68246836EA04030CBF52
:101C24004FF0010C4FF0000CBC4528D1B8F1FF3F38
:101C3400F1D0FEF773FFA0EB0900404523D8B8F1BB
:101C4400000F22D02B68DA6812F0040FE3D0802E44
:101C5400E1D0402EDFD01A6812F0080FDBD0002448
:101C640001941A6801925B680193019B2846FFF76F
:101C740021FF08236B6485F84040012000E0002028
:101C840003B0BDE8F0830320FAE70320F8E760B36C
:101C940010B5044690F8413013B3242384F841303E
:101CA4002268D36823F40053D3602046FFF760FF13
:101CB4002268136923F4904313612268536923F063
:101CC4002A0353612268D36843F40053D36000208D
:101CD4006064202384F8413084F84230606310BD8E
:101CE40080F8403000F0E6FCD7E7012070472DE98A
:101CF400F04182B01E4690F84130DBB2202B56D121
:101D040004460D469046002955D00AB901204FE0FB
:101D140000234364212380F84130FEF7FFFE074689
:101D2400A4F82480A4F82680A368B3F5805F02D0C9
:101D34004FF0000814E023692BB34FF000080FE0C4
:101D4400202384F84130032032E038F8023B226833
:101D5400C3F308035360E28C92B2013A92B2E28474
:101D6400E38C9BB293B100963B460022802120462F
:101D7400FFF748FF0028E3D1002DE6D015F8012B2A
:101D840023685A60E7E7A8460025E9E700963B4642
:101D9400002240212046FFF735FF18B9202384F89C
:101DA400413005E0202384F84130032000E0022084
:101DB40002B0BDE8F0810120FAE710B504460368DB
:101DC4005A6990F84130DBB2212B0AD023685A6952
:101DD40002F0400294F84230DBB2222B19D00020EA
:101DE40010BD02F08002002AF0D0226802F1140330
:101DF40053E8003F23F08003143242E80031002905
:101E0400F3D1A06B08B1FFF78AFB2046FFF742FE2F
:101E1400DCE7002AE3D0226802F1140353E8003F10
:101E240023F04003143242E800310029F3D1E06B7F
:101E340008B1FFF774FB2046FFF73CFECFE770477D
:101E440008B50168CA6822F04002CA60202280F8FE
:101E54004120FFF7F4FF002008BD7047704770472A
:101E640010B5446A23685A6994F84130DBB2212BD7
:101E740010D023685A6902F0400294F84230DBB271
:101E8400222B11D0636C43F0100363642046FFF7E8
:101E9400E6FF10BD02F08002002AEAD00023E384AA
:101EA4002046FFF7F7FDE4E7002AEBD00023E385A3
:101EB4002046FFF7FFFDE5E708B5406A0023C38528
:101EC400C384FFF7CCFF08BD704790F84230DBB203
:101ED400222B69D18368B3F5805F4FD0826AB3F552
:101EE400805F04D0002B56D10369002B53D10368C3
:101EF4005B681370836A01338362C38D9BB2013BB9
:101F04009BB2C385002B51D100B583B00268D3685E
:101F140023F02003D3600268D36823F48073D36072
:101F24000268536923F001035361202380F842308F
:101F340000234363036B012B33D100230363026843
:101F440002F10C0353E8003F23F010030C3242E883
:101F540000310029F3D103681A6812F0100F06D07B
:101F6400002201921A6801925B680193019B818DA2
:101F7400FFF7AAFF002003B05DF804FB0269002A02
:101F8400ACD1826A03685B68C3F308031380836A75
:101F940002338362B1E703685B6803F07F03137065
:101FA400A8E7FFF75AFFE5E70220704700207047D3
:101FB40030B583B0044602681368D068516913F0E1
:101FC4000F0505D113F0200F02D010F0200F19D106
:101FD4002DB111F0010119D110F4907F16D1216BAC
:101FE40001297DD013F0800F03D010F0800F40F052
:101FF400188113F0400F03D010F0400F40F015810A
:1020040003B030BD2046FFF760FFF9E713F0010F7E
:1020140006D010F4807F03D0626C42F00102626447
:1020240013F0040F04D019B1626C42F0020262642E
:1020340013F0020F04D019B1626C42F0040262641E
:1020440013F0080F07D010F0200F00D119B1626C03
:1020540042F008026264626C002AD1D013F0200FAF
:1020640002D010F0200F29D123685B6903F04003EC
:10207400626C12F0080F00D163B32046FFF71AFD1B
:1020840023685B6913F0400F20D0226802F1140327
:1020940053E8003F23F04003143242E800310029A2
:1020A400F3D1E36B73B1634A5A63E06BFFF75AFAF7
:1020B4000028A5D0E06B436B9847A1E72046FFF7C3
:1020C40004FFD1E72046FFF7CAFE99E72046FFF751
:1020D400C6FE95E72046FFF7C2FE002363648FE740
:1020E40013F0100F3FF47EAF10F0100F3FF47AAFEF
:1020F400002301931368019353680193019B53696F
:1021040013F0400F51D0E26B13685B689BB2002B55
:102114003FF476AFA18D99427FF672AFE385936960
:10212400202B37D0226802F10C0353E8003F23F43C
:1021340080730C3242E800310029F3D1226802F1A5
:10214400140353E8003F23F00103143242E8003142
:102154000029F3D1226802F1140353E8003F23F06D
:102164004003143242E800310029F3D1202384F8DB
:10217400423000232363226802F10C0353E8003F3A
:1021840023F010030C3242E800310029F3D1E06B54
:10219400FFF7C5F902236363A18DE38D9BB2C91ACE
:1021A40089B22046FFF790FE2AE7A18DE38D9BB20A
:1021B400C91A89B2E38D9BB2002B3FF421AF0029E9
:1021C4003FF41EAF226802F10C0353E8003F23F4EE
:1021D40090730C3242E800300028F3D1226802F1F7
:1021E400140353E8003F23F00103143242E80030A3
:1021F4000028F3D1202384F842300023236322688B
:1022040002F10C0353E8003F23F010030C3242E8C0
:1022140000300028F3D1022363632046FFF754FE05
:10222400EEE62046FFF774FCEAE62046FFF708FED8
:10223400E6E600BFBD1E000808B5406A01234363FB
:10224400036B012B02D0FFF709FE08BD818D4908FD
:10225400FFF73AFEF9E708B50346406A1B681B68B6
:1022640013F0200F2BD10023C385026802F10C0365
:1022740053E8003F23F480730C3242E80031002914
:10228400F3D1026802F1140353E8003F23F0010381
:10229400143242E800310029F3D1026802F1140338
:1022A40053E8003F23F04003143242E80031002990
:1022B400F3D1202380F84230036B012B07D0002395
:1022C4004363036B012B0FD0FFF7C7FD08BD026802
:1022D40002F10C0353E8003F23F010030C3242E8F0
:1022E40000310029F3D1EAE7818DFFF7EDFDEDE739
:1022F40030B583B004461346816282850025456467
:10230400222280F84220C26B1F489062E26B1F4871
:10231400D062E26B1E481063E26B556320680A4684
:10232400011DE06BFFF7C0F8019523681A6801925C
:102334005B680193019B23695BB1226802F10C0382
:1023440053E8003F43F480730C3242E80031002923
:10235400F3D1226802F1140353E8003F43F0010370
:10236400143242E800310029F3D1226802F1140347
:1023740053E8003F43F04003143242E8003100299F
:10238400F3D1002003B030BD5B2200083D220008D9
:10239400651E000808B590F84230DBB2202B08D146
:1023A40049B10AB9012008BD00230363FFF7A0FF68
:1023B400F9E70220F7E70120F5E770472DE9F0413E
:1023C40088B000240494059406940794204B9A69D9
:1023D40042F010029A619A6902F010020192019A85
:1023E4009A6942F004029A619A6902F00402029224
:1023F400029A9A6942F008029A619B6903F0080301
:102404000393039BDFF84C80224610214046FEF7DD
:10241400E3FF114D224640212846FEF7DDFF10233D
:102424000493012705970694022607960DEB0301F2
:102434004046FEF7B1FE40230493059706940796A1
:1024440004A92846FEF7A8FE08B0BDE8F08100BF45
:1024540000100240000801400010014008B50F4878
:102464000F4B03604FF48273436000238360C360A7
:1024740002220261012242614FF400728261202231
:10248400C2610362436283620A23C362FEF7F0F807
:1024940000B908BDFDF7F4FEFBE700BF50120020B1
:1024A4000030014008B50E480E4B03604FF48273B0
:1024B400436000238360C3600361012242614FF4DF
:1024C400007282612822C2610362436283620A232A
:1024D400C362FEF7CDF800B908BDFDF7D1FEFBE7F6
:1024E400A81200200038004070B588B0002304937F
:1024F4000593069307930368484A934204D0484AD5
:10250400934260D008B070BD0446464B9A6942F4C9
:1025140080529A619A6902F480520092009A9A69F0
:1025240042F004029A619B6903F004030193019B46
:10253400A023049302230593032307933A4E04A98B
:102544003046FEF729FE40230493002505950695A1
:1025540004A93046FEF720FE3448354B036045603D
:1025640085608023C3600561456185614FF44053F4
:10257400C361FEF74DFF00BB2C4BE3645C622D4846
:102584002D4B036010234360002383608022C260CC
:102594000361436183614FF44053C361FEF738FF25
:1025A40070B9244BA3645C62002211462320FFF718
:1025B40017FA2320FFF74CFAA4E7FDF761FEDBE7E7
:1025C400FDF75EFEEDE7174BDA6942F48042DA610B
:1025D400DA6902F480420292029A9A6942F008028D
:1025E4009A619B6903F008030393039B4FF4204310
:1025F40004930223059303230793104C04A9204654
:10260400FEF7CAFD4FF48043049300230593069319
:1026140004A92046FEF7C0FD74E700BF0030014066
:10262400003800400010024000080140C81100209A
:102634001C0002400C12002030000240000C01403B
:1026440008B50D480D4B03604FF46123436000232C
:102654008360C36003610C2242618361C361FFF73D
:1026640016FB30B9044B1A68D36843F01003D360E7
:1026740008BDFDF705FEF5E78C1400200038014085
:1026840008B50A480A4B03604FF4E1334360002362
:102694008360C36003610C2242618361C361FFF7FD
:1026A400F6FA00B908BDFDF7EBFDFBE7D4140020F2
:1026B4000044004070B588B000230493059306934A
:1026C400079303684C4A934204D04C4A934262D025
:1026D40008B070BD04464A4B9A6942F480429A613C
:1026E4009A6902F480420092009A9A6942F00402C4
:1026F4009A619B6903F004030193019B4FF40073F7
:10270400049302230593032307933E4E04A9304602
:10271400FEF742FD4FF4806304930025059506956A
:1027240004A93046FEF738FD3748384B036045604E
:1027340085608023C3600561456185614FF4405322
:10274400C361FEF765FE00BB2F4BE3635C62304858
:10275400304B036010234360002383608022C260F7
:102764000361436183614FF44053C361FEF750FE3C
:1027740070B9274BA3635C62002211462520FFF742
:102784002FF92520FFF764F9A2E7FDF779FDDBE7D0
:10279400FDF776FDEDE71A4BDA6942F40032DA61AF
:1027A400DA6902F400320292029A9A6942F004024F
:1027B4009A619B6903F004030393039B042304932A
:1027C40002230593032307930E4D04A92846FEF71D
:1027D400E3FC0823049300240594069404A92846E2
:1027E400FEF7DAFC224621462620FFF7F9F82620D8
:1027F400FFF72EF96CE700BF0038014000440040A9
:102804000010024000080140041400205800024057
:10281400481400204400024000B583B0164B5A69A6
:1028240042F001025A615B6903F001030193019BC9
:10283400002211460C20FFF7D3F80C20FFF708F90B
:10284400002211460D20FFF7CBF80D20FFF700F909
:10285400002211460E20FFF7C3F80E20FFF7F8F808
:10286400002211460F20FFF7BBF80F20FFF7F0F806
:1028740003B05DF804FB00BF0010024008B50B482C
:102884000B4B03600B4B436000238360C3604FF426
:102894008042026143618361C361036200F03EF8D8
:1028A40000B908BDFDF7ECFCFBE700BF1C150020D8
:1028B40000540040801A060010B586B0002302932D
:1028C4000393049305930268114B9A4201D006B016
:1028D40010BD104CA36943F00803A361A36903F07E
:1028E40008030093009BC023029312230393032342
:1028F400059302A90848FEF74FFCE36943F400136B
:10290400E361E36903F400130193019BDFE700BF74
:102914000054004000100240000C0140002800F068
:10292400CC8070B5044690F83D30002B77D024233A
:1029340084F83D302268136823F001031360226891
:10294400136843F4004313602268136823F40043BC
:102954001360FEF701FC62685A4B9A4264D85A4BE2
:1029640098428CBF00230123002B40F0A8805749D4
:10297400A1FB00318B0C25686A6822F03F0242EA11
:1029840091426A6021680A6A22F03F0266684D4DEE
:10299400AE424FD8013313430B622168CA6922F453
:1029A4004F4222F0FF026668464B9E424CD8431EBB
:1029B4007600B3FBF6F3013340F6FC70034278D0A3
:1029C400C3F30B031343CB6121680B6823F0C003EB
:1029D400E269206A024313430B6021688B6823F485
:1029E400034323F0FF032269E068024313438B602F
:1029F4002168CB6823F0FF036269A0690243134393
:102A0400CB602268136843F0010313600020206444
:102A1400202384F83D30206384F83E0070BD80F8A4
:102A24003C30FFF749FF82E7294B98428CBF0023D3
:102A3400012399E74FF4967505FB03F3254DA5FB98
:102A440003539B090133A6E7A368BBB9451E06EBF4
:102A5400460CB5FBFCF50135C5F30B05B5FA85F558
:102A64006D0945BBC3B9013806EB4603B0FBF3F36C
:102A74000133C3F30B0343F40043A3E7451E06EB02
:102A8400860C0CEB8C0CB5FBFCF50135C5F30B0582
:102A9400B5FA85F56D09E4E7013806EB860303EB27
:102AA4008303B0FBF3F30133C3F30B0343F4404359
:102AB40088E7042386E7012384E701207047012087
:102AC400ACE700BFA08601007F841E0083DE1B43A9
:102AD400FF083D00D34D62104278007840EA02209E
:102AE4007047C278837843EA0222437843EA022398
:102AF400007840EA032070470170090A417070476A
:102B04000170C1F307234370C1F307438370090EB7
:102B1400C1707047802804D9FF2804D128B100204F
:102B24007047002070470120704701207047000063
:102B340000B58646026812F8013B184613F0800F70
:102B440003D1CEF800205DF804FB03F0E001C029B6
:102B54000BD003F0F001E02932D003F0F801F029A2
:102B640032D103F00700032102E003F01F0001212A
:102B74001378013203F0C00CBCF1800F27D103F0AD
:102B84003F0343EA80100139F2D17F2822D9A0F50E
:102B94005843B3F5006F20D3B0F5881F20D2B0F5A9
:102BA400803FCED3A0F580330F4901EA8311C0F3EF
:102BB400090341EA030040F0584040F45C40C0E798
:102BC40003F00F000221D3E74FF0FF30BBE74FF0D3
:102BD400FF30B8E74FF0FF30B5E74FF0FF30B2E712
:102BE4004FF0FF30AFE700BF0000FF0302398369F5
:102BF400023B8B4204D9036B408901FB00307047D0
:102C04000020704770B506460D4601F11A00FFF723
:102C140063FF3378032B00D070BD044605F1140024
:102C2400FFF75AFF44EA0040F6E770B506460C4643
:102C3400154691B204F11A00FFF75EFF3378032BB7
:102C440000D070BD290C04F11400FFF755FFF8E71C
:102C54002DE9F84380460F4691464B730F23CB7200
:102C640000240C73214607F11A00FFF745FF09F110
:102C7400FF3606EB460306EB8306254602E00134E5
:102C84000C2C11D84FF6FF739D4202D038F8165021
:102C940001360C4B185D29463844FFF72DFF002DF3
:102CA400EDD14FF6FF75EAE74FF6FF739D4202D070
:102CB40038F816300BB949F0400987F80090BDE8A0
:102CC400F88300BF505C000802460B210020C301BA
:102CD40043EA5000C0B2137801321844C0B201393B
:102CE400F5D1704784460168C9B10A4613780132A8
:102CF4001F2B01D93A2BF9D13A2B01D00020704770
:102D04000878A0F13003DBB2092B0BD802319142D1
:102D14000BD1303800280BDCCCF8002070474FF082
:102D2400FF3070474FF0FF3070474FF0FF3070476F
:102D34004FF0FF30704738B50D46044698B103682C
:102D44009BB11A78A2B18188DA88914203D0092014
:102D540000242C6038BD587801F0D8FE10F0010032
:102D640009D12468F5E70920F3E71C460920F0E7B8
:102D740009200024EDE709200024EAE770B505796D
:102D84000DB9284670BD044600F134060123026AD9
:102D94003146407801F028FF054688B900232371A5
:102DA400216AA36ACB1AE2699342EAD2E378022B3E
:102DB400E7D101230A443146607801F015FFE0E7CA
:102DC4000125DEE770B5036A8B4202D10026304646
:102DD40070BD04460D46FFF7D1FF06460028F6D124
:102DE40001232A4604F13401607801F0C1FE10B1D8
:102DF40001264FF0FF352562E9E7000038B50446A7
:102E0400002303714FF0FF330362FFF7DBFF002859
:102E14005AD104F23220FFF75FFE054694F83430AD
:102E2400EB2B09D0E92B07D0E82B05D04AF6552324
:102E34009D4247D0032038BD4AF655239D4237D0E2
:102E440004F13F00FFF748FE94F84120431E184266
:102E5400ECD1B0F5805FE9D3E8D8002AE6D0531E60
:102E64001A42E3D104F14200FFF736FE0028DDD018
:102E740094F84430013B012BD8D804F14500FFF706
:102E84002BFE0028D2D004F14700FFF725FE7F284F
:102E940006D804F15400FFF724FEB0F5803FC5D3F3
:102EA40004F14A00FFF718FE0028BFD00020C2E753
:102EB4000822064904F1860002F036F90028BFD141
:102EC4000020B8E70220B6E70420B4E7FC5B000862
:102ED40070B584B006460D460021FFF78FFF022827
:102EE40003D02BD855B3002400E00024032C0ED8C3
:102EF40006F13400230103F5E3731844FFF7F1FDF1
:102F040004AB03EB840343F8100C0134EEE70DB17A
:102F14006C1E0AE02C4608E03046FFF76FFF6DB9DF
:102F240001280BD90134032C08D804AB03EB840328
:102F340053F8101C0029EFD10320F0E704B070BD52
:102F44002DE9F84F0D46164600230B60FFF7CAFE25
:102F54000028C0F217819E4B53F82040002C00F04B
:102F640015812C6006F0FE06237873B1607801F0B9
:102F7400CDFD10F0010508D1002E00F0048110F001
:102F8400040F00F000810A25FDE00023237060781F
:102F940001F0D2FD10F0010540F0FA801EB110F0EE
:102FA400040F40F0F78000212046FFF791FF04282A
:102FB40000F0F280012800F2F180266A04F13F005B
:102FC400FFF78AFDB0F5805F40F0EA8004F14A0023
:102FD400FFF782FD074620B904F15800FFF781FD91
:102FE4000746E76194F84420E270531EDBB2012BDC
:102FF40000F2D88007FB02F894F84190A4F80A90F4
:10300400B9F1000F00F0D08009F1FF3319EA030F82
:1030140040F0CC8004F14500FFF75EFD824620813C
:1030240010F07F0F40F0C48004F14700FFF754FD17
:10303400834620B904F15400FFF753FD834604F19D
:103044004200FFF749FD0246002800F0B38000EB80
:10305400080303EBDA139B45C0F0AE80ABEB030B24
:10306400BBFBF9F1CB45C0F0A9805A48814210D985
:103074004FF0000B4FF6F570814201D84FF0020B70
:1030840040F6F570814207D9BBF1000F06D10D253A
:1030940079E04FF0030BEDE74FF0010B01F102096A
:1030A400C4F8189066623244A26233442363BBF1CD
:1030B400030F25D0BAF1000F00F086804244E2628B
:1030C400BBF1020F2DD009EB490309F0010909EB0B
:1030D400530909F6FF73B7EB133F77D34FF0FF3370
:1030E4006361236180236371BBF1030F1CD084F8F7
:1030F40000B0394A138801339BB21380E38042E065
:1031040004F15E00FFF7E8FC002859D1BAF1000F82
:1031140058D104F16000FFF7E4FCE0624FEA89094A
:10312400D7E74FEA4909D4E704F16400FFF7D4FC78
:103134000128DCD1711C2046FFF744FE0028D6D1BB
:103144000023637104F13400FFF7CBFC234B984256
:10315400CDD104F50670FFF7C4FC214B9842C6D1CB
:1031640004F50C70FFF7BDFC1E4B9842BFD104F56B
:103174000770FFF7B6FC606104F50870FFF7B1FC57
:103184002061B4E70B252846BDE8F88F0C25FAE743
:103194000325F8E70A25F6E70125F4E70D25F2E70C
:1031A4000D25F0E70D25EEE70D25ECE70D25EAE703
:1031B4000D25E8E70D25E6E70D25E4E70D25E2E713
:1031C4000D25E0E70D25DEE70D25DCE70D25DAE723
:1031D40070150020F5FFFF0F741500205252614155
:1031E40072724161000055AA2DE9F047012940F2AD
:1031F400818007460C46164683698B427CD9037846
:10320400022B45D0032B58D0012B03D0022528468E
:10321400BDE8F08701EB5108816A01EB1831FFF733
:10322400D1FD05460028F2D107F1340A08F101095D
:10323400C8F30B0814F001041FD01AF9083003F086
:103244000F03320102F47F621343DBB20AF8083041
:1032540001233B71B96A01EB19313846FFF7B2FD1E
:1032640005460028D3D1C9F30B0944B1C6F30712AC
:103274000AF8092001233B71C9E7F3B2E6E71AF91A
:10328400092022F00F02C6F303263243D2B2EFE73D
:10329400816A01EBD421FFF795FD05460028B6D1DC
:1032A40007F1340040F6FE7303EA4404B1B220444B
:1032B400FFF722FC01233B71A9E7816A01EB94210A
:1032C400FFF780FD05460028A1D126F0704607F1DE
:1032D400340340F6FC7202EA84041C442046FFF7DF
:1032E40000FC00F0704131432046FFF709FC012344
:1032F4003B718CE702258AE7022588E7F8B5056863
:10330400012957D90C46AB698B4255D92B78022B2E
:103314002DD0032B3CD0012B01D001204BE001EB3D
:103324005106A96A01EB16312846FFF74BFD10B18F
:103334004FF0FF303FE0771CC6F30B062E4496F89F
:103344003460A96A01EB17312846FFF73BFDA8BB9F
:10335400C7F30B073D4495F8340046EA002014F007
:10336400010F01D0000926E0C0F30B0023E0A96A95
:1033740001EBD4212846FFF725FD10BB05F13400ED
:1033840040F6FE7303EA44042044FFF7A5FB12E071
:10339400A96A01EB94212846FFF714FDA0B934353E
:1033A40040F6FC7000EA84002844FFF79AFB20F002
:1033B400704000E00120F8BD0120FCE74FF0FF3031
:1033C400F9E74FF0FF30F6E74FF0FF30F3E72DE970
:1033D400F041D0F80080B1F5001F40D206460F46F8
:1033E40011F01F0F3DD1016184682CB998F80030A9
:1033F400022B01D9D8F82C40B4B9B8F80830B3EB93
:10340400571F30D9D8F82C30B3617461B36993B3C2
:1034140003EB1733B36108F13403C7F30B01194409
:10342400F1610020BDE8F081B8F80A502D03AF42E5
:103434000FD321463046FFF761FF0446B0F1FF3F4A
:1034440013D0012813D9D8F81830834211D97F1B1F
:10345400EDE721464046FFF7C9FBB061D5E70220FE
:10346400E0E70220DEE70220DCE70120DAE70220C1
:10347400D8E70220D6E70220D4E72DE9F04105463B
:1034840006680F4651B9D6F81080B8F1000F12D073
:10349400B369434511D84FF001080EE0FFF72EFF42
:1034A4000346012869D9B0F1FF3F6BD0B26982426B
:1034B40068D8B84601E04FF001087369002B61D069
:1034C400B84501D0444641E008F10104B369A34280
:1034D40000D8022421462846FFF710FF034601289E
:1034E40050D0B0F1FF3F4DD038B13369012BE9D949
:1034F400B2699A42E6D99846E4E7002CE2D04FF04C
:10350400FF3221463046FFF76FFE034600B937BB52
:1035140063BB34617369C3B3B269023A934236D868
:10352400013B7361737943F001037371234629E00E
:1035340021462846FFF7E2FE03460028DFD0012893
:1035440020D0B0F1FF3F1DD044451AD00134B369F7
:10355400A342EDD8B8F1010F11D90224E8E72246BD
:1035640039463046FFF740FE0346D1E7012B01D030
:10357400012307E04FF0FF3304E0012302E00023BE
:1035840000E000231846BDE8F0812346FAE723460D
:10359400F8E7F8B50C46056801292ED90646114608
:1035A400AB69A3422BD94AB14FF0FF322846FFF74B
:1035B4001BFE074610B123E0A24221D9274621462B
:1035C4003046FFF79BFE0446E0B101281CD0B0F161
:1035D400FF3F1BD0002239462846FFF705FE074669
:1035E40070B96B69AA69911E8B42E5D201336B6194
:1035F4006B7943F001036B71DEE7022700E00227D9
:103604003846F8BD0027FBE70227F9E70127F7E76B
:10361400F8B505460C46FFF7B1FB08B10120F8BD2B
:1036240021462846FFF7E2FA0646286205F13407E8
:103634004FF480520021384601F094FD002400E04C
:1036440001346B89A34207D90123A219394668784A
:1036540001F0CAFA0028F3D06889001B18BF0120C2
:10366400DDE72DE9F84304468846076805692035F7
:10367400B5F5001F01D300238361A369002B46D055
:10368400C5F30B063EB90133A361616979B93B897E
:10369400B3EB551F07D9256107F134033344E361C4
:1036A4000020BDE8F8830023A3610420F9E77B89A7
:1036B400013B13EA1533EED12046FFF71FFE814686
:1036C400012826D9B0F1FF3F25D0BB69834212D827
:1036D400B8F1000F17D061692046FFF7CEFE81468E
:1036E400D8B101281BD0B0F1FF3F1AD001463846AB
:1036F400FFF78EFFB8B9C4F8149049463846FFF76F
:1037040075FAA061C7E70023A3610420C9E7042078
:10371400C7E70220C5E70120C3E70720C1E702206D
:10372400BFE70120BDE70120BBE7F8B504460E461C
:1037340007680021FFF74BFE0246C0B9002508E0E8
:103744000135B54213D001212046FFF78AFF024616
:1037540068B9A1693846FFF735FB024638B9E36911
:103764001B78E52BECD0002BEAD00025EBE7042AEC
:1037740001D01046F8BD0722FBE700002DE9F04711
:1037840081460F4601F11A00FFF7A6F9C8BB3E783F
:1037940006F03F06013E06EB460306EB83064FF0B8
:1037A4000108002506E000202CE04FF6FF73984244
:1037B4002AD101350C2D18D8174B585D3844FFF722
:1037C4008BF90446B8F1000FEFD0FF2EEBD801F0CF
:1037D400D5FA804606F1010A39F8160001F0CEFA4E
:1037E4008045E0D1A0465646E3E73B7813F0400F0E
:1037F4000CD0B8F1000F0BD039F8163053B90120B2
:1038040000E00020BDE8F0870020FBE70120F9E795
:103814000120F7E70020F5E7505C00082DE9F843A4
:103824000446D0F800800021FFF7D1FD06460028A9
:1038340064D14FF0FF33E3624FF0FF094F460AE0D3
:103844004FF0FF33E362FF2700212046FFF709FF13
:103854000646002852D1A1694046FFF7B3FA06464E
:1038640000284BD1E5692B78002B46D0E97A01F08A
:103874003F02A271E52BE3D011F0080F01D00F2A0B
:10388400DED10F2A16D027B92846FFF71DFA48457E
:1038940034D094F82B3013F0010F06D10B2204F12D
:1038A4002001284601F040FC40B34FF0FF33E362AF
:1038B400FF27C9E794F82B2012F0400FC4D113F06E
:1038C400400F06D003F0BF032269E26295F80D9021
:1038D4001F46BB4201D0FF27B6E76B7B4B4501D0A7
:1038E400FF27B1E72946D8F80C00FFF747FF10B1CE
:1038F400013FFFB2A8E7FF27A6E704263046BDE84C
:10390400F88300002DE9F04F85B0064689460B6820
:1039140003930368DD68002405E0FE2C00F20A81AD
:1039240025F81470013403A8FFF702F9B0F1FF3F42
:1039340000F0FE80B0F5803F03D3030C25F814306B
:10394400013487B21F2F0DD92F2F0BD05C2F09D034
:103954007F2FE2D83946784801F00CFC0028DCD0EF
:10396400062096E01F2F07D84FF00408039BC9F8E0
:10397400003010E001330393039B1A782F2AF9D007
:103984005C2AF7D01F2A02D94FF00008EEE74FF067
:103994000408EBE7013C44B104F10043013B35F872
:1039A4001330202BF6D02E2BF4D0002325F814301E
:1039B40014B906206DE0013335F81320202AFAD01B
:1039C4000BB92E2A01D148F0030844B104F1004296
:1039D400013A35F812202E2A01D0013CF5E74FF0C8
:1039E400203232627262C6F827204FF0080B0022A0
:1039F4000192924603F1010935F8137047B3202F61
:103A040019D02E2F15D0019B5B4518D24C4516D0EA
:103A14007F2F4ED8FF2F5DD90BF1FF33019A9342CC
:103A240052D901994B1CC7F30722711881F8202041
:103A34005AE04C45E7D048F003084B46DAE7BBF1BF
:103A44000B0F29D04C4501D048F003084C4526D231
:103A540096F82030E52B62D0BBF1080F63D00AF052
:103A64000C030C2B03D00AF00303032B01D148F001
:103A7400020818F0020F09D11AF0010F01D048F022
:103A840010081AF0040F01D048F0080886F82B80BB
:103A9400002005B0BDE8F08F48F00308D8E74FEAEE
:103AA4008A0A5FFA8AFA23464FF00B0B0822019226
:103AB400A0E748F00208384601F060F94FF46A7153
:103AC40001F02AF90746A5E748F003084B46CDF86C
:103AD40004B08FE727B13946184801F04BFB50B1C9
:103AE40048F00308019B5F275A1C0192334483F872
:103AF40020704B467EE7A7F141039BB2192B01D8F6
:103B04004AF0020AA7F161039BB2192B05D84AF0C7
:103B1400010A203FBFB2019BE6E7019BE4E70523CE
:103B240086F8203098E74FEA8A0A5FFA8AFA96E71D
:103B34000620AEE70620ACE7085C0008145C000829
:103B440070B582B004460191056801E00133019328
:103B5400019B1A782F2AF9D05C2AF7D00022A260A0
:103B64001B781F2B1ED901A92046FFF7CBFE034665
:103B740000BB94F82B602046FFF750FE0346E0B9E3
:103B840016F0040F16D1A37913F0100F1CD005F111
:103B940034032169C1F30B0119442846FFF732F8B5
:103BA400A060E0E7802384F82B3011462046FFF71D
:103BB4000EFC0346184602B070BD0428FAD116F074
:103BC400040FF7D10523F5E70523F3E7F0B583B038
:103BD40005460C6848682C6068600889897A2881E1
:103BE400A972052B18D91188A9B102324FF0000C23
:103BF40001E00CF1010CBCF10F0FF4D801F0010E3F
:103C04000EEB4303490813F4803FF2D083F4883366
:103C140083F02103EDE79BB2072709E007F10801D0
:103C2400694401F8082C7E1E0DD00F280BD93746A5
:103C340003F00F0101F1300218461B09392AEDD9AE
:103C440001F13702EAE77E2206F108036B4403F828
:103C5400082C002400E00134B44211D2285D20284D
:103C64000ED0FEF757FF0028F5D0BB1EA34207D0A5
:103C74000134F0E72022631C2A55072B09D81C467F
:103C8400072EF7D806F108036B4413F8082C013605
:103C9400F1E703B0F0BD00002DE9F04184B00768FE
:103CA40090F82B5015F0A00F40F0918006460024A8
:103CB40000E00134FB6833F81430002BF9D101AB78
:103CC400306A716AB26A07C315F0010F1DD0402330
:103CD40086F82B30012500E00135632D0CD8ABB2FA
:103CE400FA6801A906F12000FFF770FF3046FFF7DC
:103CF40095FD80460028EFD0642D6BD0B8F1040FF9
:103D04001BD19DF80F3086F82B309DF80F3013F03F
:103D1400020F06D00C34314BA3FB0434A408013445
:103D240000E0012421463046FFF7FFFC804608B935
:103D3400013C06D1B8F1000F2AD0404604B0BDE8DA
:103D4400F0813169A1EB44113046FFF740FB804616
:103D54000028EFD106F12000FEF7B6FF0546B16951
:103D64003846FFF72FF880460028E3D12B46E2B20D
:103D7400F169F868FEF76CFF01233B7100213046BE
:103D8400FFF76FFC80460028D4D1013CE7D1D1E78E
:103D9400B1693846FFF716F880460028CDD12022B5
:103DA4000021F06901F0DEF9F369316A726A196081
:103DB4005A60318D96F82A2019819A7296F82B3020
:103DC400F26903F01803137301233B71B5E74FF055
:103DD4000608B2E74FF00708AFE700BF4FECC44E48
:103DE40070B50446FEF7CAFF054648B96379012B4E
:103DF40008D000221146607800F058FF00B1012578
:103E0400284670BD002363712378032BF1D104F19C
:103E140034064FF480520021304601F0A3F91049D2
:103E24003046FEF76DFE0F4904F50670FEF768FE96
:103E3400616904F50770FEF763FE216904F50870F3
:103E4400FEF75EFE084904F50C70FEF759FE626A3F
:103E54000132226201233146607800F0C5FEC8E7D2
:103E64005252614172724161000055AA2DE9F04F2E
:103E740085B001908B4600929A4603AA012100F076
:103E840015FF002840F08880DDF80C80082444B138
:103E9400B8FBF4F24FF63E439A4202D96400E4B20E
:103EA400F5E704B9FF244FF480520021504601F095
:103EB40059F90AF5DF763F254FF0000945E04746FA
:103EC40054E0A8EB0507002F56D0294606F1080058
:103ED400FEF716FE394606F10C00FEF711FE009BB4
:103EE40033712F4AA2FB0513E91A03EB51035B0953
:103EF400B3FBF4F104FB1130C3EB8313EB1ADBB215
:103F04000133DBB27070880800F0C0000343B37063
:103F1400F1703D446B1EA2FB0312991A02EB51028D
:103F24005209B2FBF4F104FB1120C2EB82129A1A7B
:103F3400D2B20132D2B270718B0803F0C0031A43BB
:103F4400B271F171103609F10109B9F1030F13D8F7
:103F540095B1454510D25BF82970642F06D8AED0D0
:103F6400104BA3FB08235B0903FB07F7EB1943453D
:103F7400A7D8AB42A7D2A4E74AF655210AF5FF70A9
:103F8400FEF7BAFD012300225146019800F02CFEF1
:103F940020B905B0BDE8F08F0120FAE70120F8E769
:103FA400054110041F85EB5110B584B001900091B8
:103FB4001446039103A8FEF795FE00281CDB0F4B63
:103FC40053F8203023B100220C4941F820201A7004
:103FD400019B3BB15870019B00221A70074B019A58
:103FE40043F8202014B9204604B010BD002201A9D2
:103FF4006846FEF7A5FFF7E70B20F5E770150020EC
:104004002DE9F047ADF5107D0191002800F0F58011
:104014001546064602F03F073A4683A901A8FEF773
:104024008FFF044638B10CB10023336020460DF5F0
:10403400107DBDE8F087839B3360849303AADA6024
:10404400019984A8FFF77CFD044618B99DF93B3219
:10405400002B44DB15F01C0F52D0002C46D0042C4E
:104064003FD047F00807002C59D117F0080F56D05D
:10407400634D29468B980E30FEF742FD29468B98F6
:104084001630FEF73DFDDDF80C82DDF82C92494632
:104094004046FEF7B7FD0546202389F80B30002281
:1040A4008B994046FEF7C1FD00218B981C30FEF72A
:1040B40027FD839B01221A718DB3D3F8208000223F
:1040C400294684A8FFF765FA044640BB4146839815
:1040D400FEF778FE0446013D839B1D611FE0062424
:1040E400B8E784A8FFF7D8FD0446BAE715F0040F33
:1040F40014D19DF8163213F0110FB4D007240EE03A
:104104006CB99DF8163213F0100F43D115F0020F5D
:1041140005D013F0010F02D007240BE008244CB99A
:1041240017F0080F01D047F04007839B1B6A3362E6
:104134008B9B7362002C7FF476AFDDF80CA2DDF864
:104144002C8241465046FEF75DFD0546B06008F1FD
:104154001C00FEF7C6FC8046F060BAF80630B38057
:10416400377400217174F161716106F128094FF40B
:104174008052484600F0F6FF17F0200F3FF453AF8B
:10418400B8F1000F3FF44FAFC6F81480BAF80A70C4
:104194003F0306E00424CDE7B5F1FF3F0DD0A8EBC3
:1041A400070864B9B8450AD929463046FFF7A6F886
:1041B40005460128F0D80224EEE70124EFE7B561B3
:1041C400002C7FF430AFC8F30B03002B3FF42BAF6C
:1041D400839F29463846FEF709FD08B9022423E7E0
:1041E40000EB1832F26101234946787800F0C0FCF4
:1041F40000283FF418AF012416E7092416E700BF8E
:104204000000215A2DE9F04F85B004460E461546AC
:1042140098460023C8F8003003A9FEF78CFD0190EE
:10422400002840F0CD80637C0193002B40F0C880CF
:10423400237C13F0020F00F0DD806369EB4275D339
:10424400DD4373E000212046FFF717F981E0A169FF
:104254002046FFF712F97CE04FF0020A84F811A01F
:10426400CDF804A0ACE04FF0010A84F811A0CDF819
:1042740004A0A5E00123E26904F128010398407831
:1042840000F0B2FC20B9237C03F07F03237470E0B8
:104294004FF0010A84F811A0CDF804A090E04FF08B
:1042A400020A84F811A0CDF804A089E0E169A1EB29
:1042B4000901514502D34FEA0A3728E04FF48052EE
:1042C40006EB013104F1280000F03EFF237C03F0EB
:1042D4007F032374EFE7E3694B4503D06269E36826
:1042E4009A4271D3C4F81C906369C3F30B03C3F5FA
:1042F4008057BD4200D22F4604F128003A46314689
:10430400184400F021FF237C63F07F032374ED1B2A
:10431400D8F800303B44C8F800303E4463691F4479
:104324006761E3689F4238BF1F46E760002D5CD099
:104334006369C3F30B02002AD6D1039A5789013F5C
:1043440017EA133711D1002B81D1A06800283FF45C
:1043540079AF002849D001283FF47EAFB0F1FF3F88
:1043640081D0A061A36803B9A06094F91030002B38
:1043740080DBDDF80CB0A1695846FEF737FC8146B6
:1043840000288CD0B9444FEA153AB5F5805FA2D322
:1043940007EB0A03BBF80A20934201D9A2EB070AF0
:1043A40053464A4631469BF8010000F01DFC0028A4
:1043B4003FF47CAF4FF0010A84F811A0CDF804A0BB
:1043C400019805B0BDE8F08F01234A4604F12801A5
:1043D4009BF8010000F0CCFB002883D04FF0010AC9
:1043E40084F811A0CDF804A0EAE7237C43F040034D
:1043F4002374E5E707230193E2E7000030B583B0B7
:10440400044601A9FEF797FC58B9237C13F0400F2A
:1044140007D013F0800F06D1216A0198FEF7D2FC71
:1044240078B103B030BD0123E26904F12801019899
:10443400407800F0D9FB38BB237C03F07F0323745E
:10444400EAE7656AEB7A43F02003EB72A268294637
:104454002068FEF7EAFBE16805F11C00FEF750FB5B
:104464000A4905F11600FEF74BFB002105F1120085
:10447400FEF742FB019801230371FFF7B1FC237C93
:1044840023F040032374CCE70120CAE70000215A3B
:1044940010B582B00446FFF7B1FF08B102B010BDF9
:1044A40001A92046FEF747FC0028F7D12060F5E774
:1044B4002DE9F04F91B00B900D46029201930BA899
:1044C400FEF710FC0028C0F2F082A24B53F8203013
:1044D4000BB100221A70C4B2204600F02DFB10F07C
:1044E400010F40F0E48210F0040F40F0E48205B3C1
:1044F4006B680F93FBB10F9A531EB3F5004F01D2B3
:104504001A4201D001230F932E786A78531EDBB22E
:10451400012B16D94FF0010BD5F8089009F1FF33A0
:10452400B3F5004F0FD219F07F0F0ED04FF400797E
:104534000BE0894DDCE70FAA0321204600F0B6FB0F
:10454400D9E79346E8E74FF40079ED68B5F1807F49
:1045540004D86B1E1D4202D0002500E000254FEA5E
:104564001538019B1A0B0492B3F5805FC0F0A58245
:10457400029B002B00F0A38200230E930EAA0121BC
:10458400204600F093FB002840F09B8216F00803BD
:10459400059307D10E9B3F2B7AD93F3B0E933F23C4
:1045A400039301E0002303930E997F2940F28B8249
:1045B400B5F5012F01D34FF0800816F0020002D0A8
:1045C40016F0010F67D016F0010F00F07E824FF055
:1045D400020A01F1B44303F5041307930694444615
:1045E400BAF1030F5ED0002C7FD02646B1FBF6F360
:1045F40040F6F572934240F287809D1C6D0005F6EB
:10460400FF752D0BC9F3D3184FF0010C039B0CEB72
:10461400030E0BFB05E242440F9FBB18013B7F4294
:104624003B409B1ABAF1030F76D0B3FBFBF70BFBAD
:10463400173727B1013B0CF1010C0EF1010EB3FB4E
:10464400FBF31D4402EB0612039BD21A9142C0F005
:104654004D82A1EB0C070BFB1577A7EB0807B7FB03
:10466400F6F7BAF1030F5AD0BAF1020F7CD14FF624
:10467400F5739F4260D914B97300402B0ED978B9F1
:10468400002C40F037827400802CA9D90E200FE250
:104694000023039388E74FF0030A9AE71C469FE739
:1046A4004FF0030A9CB12646B1FBF6F39D1CAD0006
:1046B40005F6FF752D0BA3F57F43F63B274A93427E
:1046C40000F205824FF000084FF0200C9EE74D0CDD
:1046D4002246012601E001327600214B33F81230E4
:1046E400002BE1D0AB42F6D9DEE70D0B22460126C2
:1046F4001C4B33F81230002B3FF478AFAB423FF63B
:1047040075AF01327600F3E703EB430501356D081D
:1047140003354FF0010A72E79C449E4492E74FF63A
:10472400F5739F42A0D8002C40F0E2817408012E5A
:104734003FF656AF0E20BBE140F6F5739F4213D807
:10474400002C40F0D9817400802C7FF649AF0E20F4
:10475400AEE100BF70150020805C0008FFFFFE0F73
:10476400705C0008605C0008CDF824C0CDF820E03F
:10477400CDF82880069CBAF1010F04D140F6F573F8
:104784009F4200F2BB814FF48058424600210298B8
:1047940000F0E8FCCF4B03CB029A10601046516046
:1047A4001A889B7802818372414680460B30FEF75B
:1047B400A3F9404688F80D60BDF824100E30FEF7CA
:1047C4009BF9404688F810B01130BAF1030F00F09D
:1047D400A1801FFA89F1FEF78FF90E99B1F5803F98
:1047E40080F09A8089B2029B03F11300FEF784F9EA
:1047F400F823DDF8088088F815303F2108F1180007
:10480400FEF77AF9FF2108F11A00FEF775F903990A
:1048140008F11C00FEF774F9BAF1030F00F082806E
:104824000799DDF8088008F12700FEF769F9A9B2B5
:1048340008F11600FEF760F9802388F82430292354
:1048440088F82630DFF890C2BCE80F00C8F82B00C7
:10485400C8F82F10C8F83320C8F83730BCF8002047
:104864009CF80230A8F83B2088F83D30DDF8089029
:1048740009F5FF784AF655214046FEF73DF9012334
:10488400039A4946204600F0AFF9002840F03881E9
:10489400BAF1030F7CD0019B23F47F6222F00F0254
:1048A4000021DDF80880404600F05CFC4FF0000970
:1048B400089F06960395CDF804B0DDF810B0019B6F
:1048C400994580F0AE80BAF1030F00F09680BAF1FA
:1048D400010F00F0A4806FF007014046FEF710F9C5
:1048E400039E35465E4528BF5D462B463A46414603
:1048F400204600F079F9002840F004814FF48052FA
:104904000021404600F02EFC2F44761BE9D109F12A
:104914000109D4E700215EE7029B03F12000FEF7C2
:10492400EFF865E70799DDF8088008F14300FEF722
:10493400E7F8294608F12400FEF7E2F8022108F11D
:104944002C00FEF7DDF8012108F13000FEF7D4F861
:10495400062108F13200FEF7CFF8802388F84030B2
:10496400292388F84230DFF874C1BCE80F00C8F886
:104974004700C8F84B10C8F84F20C8F85330BCF8AB
:1049840000209CF80230A8F8572088F859306DE7C9
:104994000123039A0632DDF808904946204600F0C8
:1049A40023F94FF480520021484600F0DBFB4C49C8
:1049B4004846FEF7A5F84B4909F5F270FEF7A0F852
:1049C400791E09F5F470FEF79BF8022109F5F670DB
:1049D400FEF796F84AF655214046FEF78DF8012376
:1049E400039FFA1D4946204600F0FEF80123FA18F9
:1049F4004946204600F0F8F84DE76FF007014046BD
:104A0400FEF77EF84FF0FF3108F10400FEF778F866
:104A14006FF0704108F10800FEF772F860E7324960
:104A24005BE70897069EBAF1030F20D0089F0A9E01
:104A3400DDF81080DDF808903546464528BF454628
:104A44002B463A464946204600F0CEF800285BD172
:104A54002F44761BF0D1BAF1030F0FD00E9BB3F5A0
:104A6400803F20D2BAF1020F06D0012207E0DDF820
:104A74001080DDF80890DFE7042200E00C22059B9B
:104A84004BB90E9B0C9300230D93029B0CA920465B
:104A9400FFF7ECF960B900221146204600F006F950
:104AA40030B1012004E00622E9E70B2000E00320F6
:104AB40011B0BDE8F08F0A20FAE71120F8E71120C1
:104AC400F6E70120F4E70E20F2E71320F0E70E20CA
:104AD400EEE700BF1C5C00083C5C0008285C000892
:104AE4005252614172724161F8FFFF000E20DFE70C
:104AF4000E20DDE70E20DBE70E20D9E70E20D7E7F6
:104B04000120D5E70120D3E70120D1E710B510B18A
:104B14000124204610BD044600F000FA01464EF67A
:104B24001673984200D0012422460248FBF780FB0A
:104B3400EFE700BF905C000810B598B90A4B93F8F2
:104B440051304BB10020FFF7E1FF0446014607480E
:104B5400FBF76EFB204610BDFDF780FC1420FBF72D
:104B6400E3FFEFE70124F5E750120020B05C0008F2
:104B7400F0B583B0D8B916461C460546B9B1B3B1F1
:104B84001344B3F5007F17D81703220302F47042CD
:104B9400384600F041FA012817D100953B462246D9
:104BA40031460D48FBF744FB284603B0F0BD0B48E3
:104BB400FBF73EFB0420F8E74FF40073224631462E
:104BC4000748FBF735FB0120EFE73A460146054865
:104BD400FBF72EFB0125E0E7585D0008C45C0008E4
:104BE400E05C0008245D00082DE9F84F20B14FF087
:104BF400040A5046BDE8F88F0F4691461E46824689
:104C04001A4649462348FBF713FBF7B1EEB109EB0B
:104C14000603B3F5007F1ED84FEA093B0024B442D3
:104C240027D24FEA04380BEB0435284600F09CF9F0
:104C3400012816D14FF4805207EB0801284600F0F2
:104C4400BDF901281CD10134E9E71348FBF7F0FA58
:104C54004FF0040ACDE71148FBF7EAFA4FF0010AD6
:104C6400C7E72A4604EB09010D48FBF7E1FA4FF0C8
:104C7400010A5346324649460A48FBF7D9FAB8E7CF
:104C84002A4604EB09010848FBF7D2FA4FF0010A5F
:104C9400EFE700BF905D0008B85D0008D85D00082C
:104CA400FC5D0008645E0008305E000870B50546CF
:104CB40040B90C4662B11668032C21D8DFE804F031
:104CC4000A15191D01461148FBF7B2FA04250AE03A
:104CD4000026F1E700F0D0F8254633462A4621465F
:104CE4000B48FBF7A5FA284670BD4FF40076166012
:104CF400F3E74FF480561680EFE710261660ECE7D2
:104D040021460448FBF794FA0425E6E7905E000880
:104D1400D05E0008B05E00087F2801D880B27047DA
:104D2400B0F5803F22D2B1F56A7F01D000207047F0
:104D340000B580B245F2205E4FF0000C10226346AD
:104D440001E09E46013A5AB1AEEB0C030CEB53035F
:104D5400094931F82310814202D0F2D29C46F1E78E
:104D640032B19B000233044A985A02E00020704793
:104D740000205DF804FB00BFA8610008B0F5803F87
:104D840047D230B585B2B5F5805F01D2214B02E040
:104D9400214B00E023461A88EAB195421BD31C1D1F
:104DA4005B88190ADBB21FFA80FC03EB020EF445A0
:104DB40004DB0029EED104EB4303ECE708290AD80D
:104DC400DFE801F0050B1114171A1D202300ACEBCA
:104DD400020234F81250284630BDAB1A03F0010326
:104DE400ED1AADB2F7E7103DADB2F4E7203DADB238
:104DF400F1E7303DADB2EEE71A3DADB2EBE7083571
:104E0400ADB2E8E7503DADB2E5E7A5F5E355ADB287
:104E1400E1E77047F85E0008EC60000800B587B071
:104E24008DF80F0000238DF81730642300930123BD
:104E34000DF117020DF10F010348FBF774FC9DF807
:104E4400170007B05DF804FB5012002010B5094CA0
:104E5400002210212046FCF7BFFA0620FFF7DEFFF0
:104E6400012210212046FCF7B7FA0120FBF75CFE73
:104E740010BD00BF0008014008B5002210210948F8
:104E8400FCF7AAFA0520FFF7C9FFFF20FFF7C6FFCA
:104E940010F0010FF9D1012210210248FCF79CFA0D
:104EA40008BD00BF00080140B2F5807F31D870B55D
:104EB40004460E46154610F0FF0F01D0002070BDC9
:104EC400FFF7C4FFFFF7D8FF002210211248FCF7B8
:104ED40083FA0220FFF7A2FFC4F30740FFF79EFF07
:104EE400C4F30720FFF79AFFE0B2FFF797FF00240F
:104EF40004E0305DFFF792FF0134A4B2AC42F8D372
:104F0400012210210448FCF767FAFFF7B5FF0120DE
:104F1400D5E70020704700BF0008014070B5114E6E
:104F2400002210213046FCF757FA9020FFF776FF55
:104F34000020FFF773FF0020FFF770FF0020FFF74A
:104F44006DFFFF20FFF76AFF0402A5B2FF20FFF701
:104F540065FF84B22C43012210213046FCF73CFA51
:104F6400204670BD0008014038B5C0F30B030BB1F7
:104F7400002038BD0446FFF769FFFFF77DFF0E4DA3
:104F8400002210212846FCF727FA2020FFF746FFCD
:104F9400C4F30740FFF742FFC4F30720FFF73EFFC7
:104FA400E0B2FFF73BFF012210212846FCF714FA78
:104FB400FFF762FF0120DCE70008014009B3F8B500
:104FC400064615460F46F2B1B0F5000F1DD2131870
:104FD400B3F5000F1BD895B1F4B2C4F58074A4B234
:104FE400AC4228BF2C46224639463046FFF75CFFC8
:104FF40001280ED1264427442C1BA5B2EBE701203F
:1050040002E0002070470020F8BD0020FCE70020EB
:10501400FAE70020F8E7000099B370B50446154696
:105024000E4682B3B0F5000F2FD21318B3F5000F5C
:1050340001D9002028E0FFF71FFF002210211448A7
:10504400FCF7CAF90320FFF7E9FEC4F30740FFF7B2
:10505400E5FEC4F30720FFF7E1FEE0B2FFF7DEFE52
:10506400002405E0FF20FFF7D9FE30550134A4B237
:10507400AC42F7D3012210210548FCF7ADF9012019
:1050840002E000207047002070BD0020FCE700BF54
:1050940000080140FDF791F90B480C490C4A002324
:1050A40002E0D458C4500433C4188C42F9D3094ADA
:1050B400094C002301E013600432A242FBD300F048
:1050C4000FF8FBF711F97047000000207000002072
:1050D40068B60108700000208C150020FEE700006F
:1050E40070B500260C4D0D4C641BA410A64209D1CA
:1050F40000F0E0FC00260A4D0A4C641BA410A642F2
:1051040005D170BD55F8043B98470136EEE755F8D4
:10511400043B98470136F2E760B6010860B601081F
:1051240060B6010864B6010810B501390244904222
:1051340001D1002005E0037811F8014FA34201D00A
:10514400181B10BD0130F2E70A44914200F1FF330D
:1051540000D1704710B511F8014B914203F8014F8B
:10516400F9D110BD03460244934200D1704703F8BD
:10517400011BF9E70346C9B2184613F8012B12B113
:105184008A42F9D17047002918BF0020704730B512
:105194001446002C05461A469BB005DA8B2303609F
:1051A4004FF0FF301BB030BD4FF40273ADF80C303C
:1051B4000CBF234604F1FF33029305934FF6FF73AC
:1051C40000910491ADF80E3069461E9B00F074F80E
:1051D400431CBCBF8B232B60002CE3D00022009B1C
:1051E4001A70DFE707B5009313460A4601460348E1
:1051F4000068FFF7CCFF03B05DF804FB0C0000204F
:105204002DE9F0478E6882469E420C4690461F4622
:1052140038D88A8912F4906F32D02568096901332D
:10522400A5EB010965694B4405EB450505EBD5750F
:105234006D109D4238BF1D46530531D5294600F0F7
:1052440061FB064650B90C234FF0FF30CAF800301A
:10525400A38943F04003A381BDE8F0874A4621694E
:10526400FFF772FFA38923F4906343F08003A381C3
:1052740026614E4426603E466561A5EB0905A5609E
:10528400BE4200D93E4632464146206800F0B8FA94
:10529400A36800209B1BA360236833442360DBE7DF
:1052A4002A4600F0A3FB06460028E1D150462169B6
:1052B40000F0C0FAC7E700002DE9F04F98468B894B
:1052C40007461B060D4614469DB00ED50B6963B9FF
:1052D400402100F017FB2860286120B90C233B60B3
:1052E4004FF0FF30D1E040236B610023099320236A
:1052F4008DF8293030234FF00109CDF80C80DFF808
:10530400A4818DF82A3023469A4613F8012B0AB15A
:10531400252AF9D1BAEB040B0BD05B462246294669
:105324003846FFF76DFF013000F0AA80099A5A440D
:1053340009929AF80030002B00F0A28000234FF06D
:10534400FF32CDE905230AF1010A049307938DF88E
:1053540053301A935446052214F8011B514800F0A7
:1053640041FA049AD8B9D00644BF20238DF85330AB
:10537400110744BF2B238DF853309AF800302A2BA1
:1053840015D0544600204FF00A0C079A214611F814
:10539400013B303B092B4ED9B0B1079214E0A0EB8E
:1053A400080309FA03F31343A2460493D2E7039BC9
:1053B400191D1B680391002BBBBF5B4242F0020224
:1053C40007930793B8BF049223782E2B0CD16378EC
:1053D4002A2B35D1039B02341A1D1B680392002B20
:1053E400B8BF4FF0FF330593DFF8BCA0032250464B
:1053F400217800F0F7F940B14023A0EB0A0003FA4A
:1054040000F0049B01340343049314F8011B0622A7
:1054140026488DF8281000F0E5F9002838D0244BF0
:105424001BBB039B073323F0070308330393099B38
:105434003344099367E70C4601200CFB0232A5E7CD
:1054440000234FF00A0C194601340593204610F846
:10545400012B303A092A03D9002BC5D00591C3E7A3
:10546400044601230CFB0121F0E703AB00932A4619
:105474003846104B04A9AFF30080421C0646D6D12F
:10548400AB895B063FF52CAF09981DB0BDE8F08FE2
:1054940003AB00932A463846064B04A900F07CF877
:1054A400EBE700BF2CB6010832B6010836B6010896
:1054B40000000000055200082DE9F0471646994601
:1054C4008A680B6907469342B8BF1346336091F864
:1054D40043200C46DDF820800AB101333360236891
:1054E400990642BF336802333360256815F0060518
:1054F40006D104F1190AE36832689B1AAB4228DC2E
:1055040094F84320131E226818BF012392062DD459
:105514004946384604F14302C047013020D023688D
:10552400E56803F00603042B18BF002532684FF02A
:105534000006A36808BFAD1A226908BF25EAE5750D
:105544009342C4BF9B1AED181A34B5421AD10020F5
:1055540008E00123524649463846C047013003D18A
:105564004FF0FF30BDE8F0870135C4E73020E11883
:1055740081F843005A1C94F845102244023382F8FF
:105584004310C5E70123224649463846C047013047
:10559400E6D00136D9E700002DE9FF470F7E91469A
:1055A400782F80460C469A460C9D01F1430207D899
:1055B400622F0AD8002F00F0D980582F00F0A48061
:1055C40004F1420584F842703AE0A7F16303152B15
:1055D400F6D801A151F823F03556000849560008C1
:1055E400C5550008C5550008C5550008C55500082F
:1055F40049560008C5550008C5550008C55500089A
:10560400C55500085757000879560008395700084F
:10561400C5550008C555000879570008C555000848
:1056240079560008C5550008C555000841570008BB
:105634002B681A1D1B682A6004F1420584F8423065
:105644000123A4E020682968060601F104030AD5B1
:105654000E682B60002E03DA2D23764284F8433043
:105664000A235E4819E00E6810F0400F2B6018BF43
:1056740036B2EFE72B682068191D2960010601D5B1
:105684001E6802E04606FBD51E886F2F0CBF082358
:105694000A235248002184F843106568002DA8BFEE
:1056A4002168A560A4BF21F0040121600EB9002D7A
:1056B4004DD01546B6FBF3F103FB1167C75D05F842
:1056C400017D3746BB420E46F4D9082B0BD1236823
:1056D400DE0708D5236961689942DEBF302305F8E7
:1056E400013C05F1FF35521B22614B4621464046E1
:1056F400CDF800A003AAFFF7DFFE01304CD14FF034
:10570400FF3004B0BDE8F087344881F8457029685B
:10571400236851F8046B29601D0614D5DF0744BFC4
:1057240043F0200323601EB9236823F02003236081
:105734001023AFE7236843F020032360782328482D
:1057440084F84530E3E7590648BFB6B2E6E71546A4
:10575400BBE72B682668181D6169286035061B683D
:1057640001D5196002E07006FBD5198000231546A7
:105774002361BAE72B6800211A1D2A601D6862683C
:10578400284600F02FF808B1401B6060636823616D
:10579400002384F84330A8E72A4649464046236953
:1057A400D0470130ABD023689B0713D4E068039B38
:1057B4009842B8BF1846A4E70123324649464046FA
:1057C400D04701309BD00135E36803995B1AAB42A3
:1057D400F2DCEBE7002504F11906F5E73DB6010814
:1057E4004EB60108034610B5C9B2024493421846A6
:1057F40001D1002003E0047801338C42F6D110BDBE
:10580400884210B501EB020402D98442234607D82A
:10581400431EA14208D011F8012B03F8012FF8E729
:10582400014602448A4200D110BD13F8014D02F82A
:10583400014DF7E738B50546002940D051F8043C3E
:105844000C1F002BB8BFE41800F010F91C4A1368B1
:1058540033B9636014602846BDE8384000F00CB9E1
:10586400A34208D9206821188B4201BF19685B68DC
:1058740009182160EDE71A465B680BB1A342FAD917
:1058840011685018A0420BD120680144501883427B
:105894001160E0D118685B68014411605360DAE775
:1058A40002D90C232B60D6E7206821188B4201BF54
:1058B40019685B680918216063605460CBE738BDE0
:1058C4007815002070B50E4E0C463168054611B9A6
:1058D40000F0BCF830602146284600F0B7F8431CBD
:1058E4000AD0C41C24F00304A04207D0211A28467D
:1058F40000F0ACF8013001D14FF0FF34204670BD08
:105904007C1500202DE9F041CD1C25F00305083558
:105914000C2D38BF0C25002D074601DBA94205D903
:105924000C2300263B603046BDE8F0812E4E00F08B
:105934009DF833681C4634BB29463846FFF7C2FF3E
:10594400431C04464DD134682646002E40D12368BA
:105954003146384604EB030800F078F880453AD124
:10596400216803356D1A25F0030508350C2D38BF61
:105974000C2538462946FFF7A5FF01302BD02368B4
:105984002B4423600EE02268521B1ED40B2A16D926
:105994006119A342256018BF5960636808BF31606C
:1059A40062514B60384604F10B0600F065F826F0AE
:1059B4000706231DF21AB6D09B1BA350B3E76268F7
:1059C400A3420CBF32605A60ECE723466468B2E736
:1059D40034467668B9E70C2338463B6000F04CF84F
:1059E400A1E72560DEE700BF781500202DE9F0412E
:1059F400804614460E4621B91146BDE8F041FFF732
:105A040081BF2AB9FFF716FF25462846BDE8F08175
:105A140000F038F88442074602D8B4EB500F12D88D
:105A240021464046FFF76EFF05460028EDD0BC42F4
:105A34002246314628BF3A46FFF786FB31464046A8
:105A4400FFF7F8FEE1E73546DFE7000038B500234D
:105A5400054D044608462B6000F01EF8431C02D195
:105A64002B6803B1236038BD80150020014800F085
:105A740011B800BF84150020014800F00CB800BF25
:105A84008415002051F8043C181F002BBCBF0B5890
:105A9400C018704770477047044A05491368002BC3
:105AA40008BF0B461844106018467047881500203C
:105AB40090150020F8B500BFF8BC08BC9E4670479E
:0C5AC400F8B500BFF8BC08BC9E46704757
