:020000040800F2
:100000000000012001630108290C0008350C0008DC
:100010003B0C0008410C0008470C000800000000E1
:100020000000000000000000000000004D0C00086F
:10003000590C000800000000650C0008710C000855
:1000400049630108496301084963010849630108DC
:1000500049630108496301084963010849630108CC
:1000600049630108496301084963010849630108BC
:1000700049630108496301084963010849630108AC
:10008000496301084963010849630108496301089C
:10009000496301084963010849630108496301088C
:1000A000496301084963010849630108496301087C
:1000B000496301084963010849630108496301086C
:1000C000496301084963010849630108496301085C
:1000D00049630108810E000849630108496301086A
:1000E000496301084963010849630108496301083C
:1000F000496301084963010849630108496301082C
:10010000496301084963010849630108496301081B
:10011000496301084963010849630108496301080B
:1001200049630108496301084963010849630108FB
:1001300000000000000000000000000000000000BF
:1001400000000000000000000000000000000000AF
:10015000000000000000000000000000000000009F
:10016000000000000000000000000000000000008F
:10017000000000000000000000000000000000007F
:10018000000000000000000000000000000000006F
:10019000000000000000000000000000000000005F
:1001A000000000000000000000000000000000004F
:1001B000000000000000000000000000000000003F
:1001C000000000000000000000000000000000002F
:1001D000000000000000000000000000000000001F
:0401E0005FF8E0F1F3
:1001E80010B5054C237833B9044B13B10448AFF369
:1001F80000800123237010BDA850002000000000DB
:10020800E401000808B5034B1BB103490348AFF3E9
:10021800008008BD00000000AC500020E401000888
:1002280010F8012B11F8013B012A28BF9A42F7D098
:10023800D01A7047034613F8012B002AFBD1181A6D
:100248000138704781F0004102E000BF83F00043AD
:1002580030B54FEA41044FEA430594EA050F08BF59
:1002680090EA020F1FBF54EA000C55EA020C7FEA1D
:10027800645C7FEA655C00F0E2804FEA5454D4EB9A
:100288005555B8BF6D420CDD2C4480EA020281EA64
:10029800030382EA000083EA010180EA020281EA9C
:1002A8000303362D88BF30BD11F0004F4FEA0131EE
:1002B8004FF4801C4CEA113102D0404261EB4101FD
:1002C80013F0004F4FEA03334CEA133302D0524283
:1002D80063EB430394EA050F00F0A780A4F101043F
:1002E800D5F1200E0DDB02FA0EFC22FA05F2801879
:1002F80041F1000103FA0EF2801843FA05F359415F
:100308000EE0A5F120050EF1200E012A03FA0EFCDD
:1003180028BF4CF0020C43FA05F3C01851EBE37107
:1003280001F0004507D54FF0000EDCF1000C7EEB24
:1003380000006EEB0101B1F5801F1BD3B1F5001F62
:100348000CD349085FEA30004FEA3C0C04F1010481
:100358004FEA445212F5800F80F09A80BCF1004FAA
:1003680008BF5FEA500C50F1000041EB045141EA2C
:10037800050130BD5FEA4C0C404141EB0101013CF5
:1003880028BFB1F5801FE9D291F0000F04BF0146E4
:100398000020B1FA81F308BF2033A3F10B03B3F1B6
:1003A80020020CDA0C3208DD02F1140CC2F10C0246
:1003B80001FA0CF021FA02F10CE002F11402D8BFA4
:1003C800C2F1200C01FA02F120FA0CFCDCBF41EA70
:1003D8000C019040E41AA2BF01EB0451294330BD3F
:1003E8006FEA04041F3C1CDA0C340EDC04F114041C
:1003F800C4F1200220FA04F001FA02F340EA0300F3
:1004080021FA04F345EA030130BDC4F10C04C4F138
:10041800200220FA02F001FA04F340EA0300294618
:1004280030BD21FA04F0294630BD94F0000F83F462
:10043800801306BF81F480110134013D4EE77FEA45
:10044800645C18BF7FEA655C29D094EA050F08BF91
:1004580090EA020F05D054EA000C04BF1946104672
:1004680030BD91EA030F1EBF0021002030BD5FEAB6
:10047800545C05D14000494128BF41F0004130BDDE
:1004880014F580043CBF01F5801130BD01F0004532
:1004980045F0FE4141F470014FF0000030BD7FEAA5
:1004A800645C1ABF194610467FEA655C1CBF0B46A0
:1004B800024650EA013406BF52EA033591EA030FB7
:1004C80041F4002130BD00BF90F0000F04BF0021AF
:1004D800704730B54FF4806404F132044FF00005E2
:1004E8004FF0000150E700BF90F0000F04BF00215B
:1004F800704730B54FF4806404F1320410F00045C1
:1005080048BF40424FF000013EE700BF42004FEABB
:10051800E2014FEA31014FEA02701FBF12F07F4338
:1005280093F07F4F81F06051704732F07F4208BFEF
:10053800704793F07F4F04BF41F40021704730B5F6
:100548004FF4607401F0004521F000411CE700BF42
:1005580050EA010208BF704730B54FF000050AE0C5
:1005680050EA010208BF704730B511F0004502D5C6
:10057800404261EB41014FF4806404F132045FEAC8
:10058800915C3FF4D8AE4FF003025FEADC0C18BF71
:1005980003325FEADC0C18BF033202EBDC02C2F163
:1005A800200300FA03FC20FA02F001FA03FE40EAF5
:1005B8000E0021FA02F11444BDE600BF70B54FF0F9
:1005C800FF0C4CF4E06C1CEA11541DBF1CEA1355D7
:1005D80094EA0C0F95EA0C0F00F0DEF82C4481EA3F
:1005E800030621EA4C5123EA4C5350EA013518BF5F
:1005F80052EA033541F4801143F4801338D0A0FB4C
:1006080002CE4FF00005E1FB02E506F00042E0FBF8
:1006180003E54FF00006E1FB03569CF0000F18BFFE
:100628004EF0010EA4F1FF04B6F5007F64F54074A6
:1006380004D25FEA4E0E6D4146EB060642EAC62139
:1006480041EA55514FEAC52040EA5E504FEACE2EA6
:10065800B4F1FD0C88BFBCF5E06F1ED8BEF1004FA9
:1006680008BF5FEA500E50F1000041EB045170BD25
:1006780006F0004646EA010140EA020081EA030169
:10068800B4EB5C04C2BFD4EB0C0541EA045170BD65
:1006980041F480114FF0000E013C00F3AB8014F1DF
:1006A800360FDEBF002001F0004170BDC4F1000428
:1006B800203C35DA0C341BDC04F11404C4F12005A9
:1006C80000FA05F320FA04F001FA05F240EA020004
:1006D80001F0004221F0004110EBD37021FA04F63A
:1006E80042EB06015EEA430E08BF20EAD37070BDF4
:1006F800C4F10C04C4F1200500FA04F320FA05F053
:1007080001FA04F240EA020001F0004110EBD37054
:1007180041F100015EEA430E08BF20EAD37070BDC4
:10072800C4F1200500FA05F24EEA020E20FA04F39D
:1007380001FA05F243EA020321FA04F001F000414C
:1007480021FA04F220EA020000EBD3705EEA430EBD
:1007580008BF20EAD37070BD94F0000F0FD101F0EC
:100768000046400041EB010111F4801F08BF013C25
:10077800F7D041EA060195F0000F18BF704703F063
:100788000046520043EB030313F4801F08BF013DEA
:10079800F7D043EA0603704794EA0C0F0CEA1355A6
:1007A80018BF95EA0C0F0CD050EA410618BF52EA60
:1007B8004306D1D181EA030101F000414FF0000066
:1007C80070BD50EA410606BF1046194652EA430674
:1007D80019D094EA0C0F02D150EA013613D195EAE8
:1007E8000C0F05D152EA03361CBF104619460AD130
:1007F80081EA030101F0004141F0FE4141F470013A
:100808004FF0000070BD41F0FE4141F4780170BD29
:1008180070B54FF0FF0C4CF4E06C1CEA11541DBF8E
:100828001CEA135594EA0C0F95EA0C0F00F0A7F890
:10083800A4EB050481EA030E52EA03354FEA0131BD
:1008480000F088804FEA03334FF0805545EA1313D0
:1008580043EA12634FEA022245EA111545EA106598
:100868004FEA00260EF000419D4208BF964244F12F
:10087800FD0404F5407402D25B084FEA3202B61A4E
:1008880065EB03055B084FEA32024FF480104FF422
:10089800002CB6EB020E75EB030E22BFB61A754696
:1008A80040EA0C005B084FEA3202B6EB020E75EB29
:1008B800030E22BFB61A754640EA5C005B084FEA91
:1008C8003202B6EB020E75EB030E22BFB61A75465E
:1008D80040EA9C005B084FEA3202B6EB020E75EB69
:1008E800030E22BFB61A754640EADC0055EA060E2A
:1008F80018D04FEA051545EA16754FEA06164FEA6D
:10090800C30343EA52734FEAC2025FEA1C1CC0D118
:1009180011F4801F0BD141EA00014FF000004FF0A5
:10092800004CB6E711F4801F04BF01430020B4F166
:10093800FD0C88BFBCF5E06F3FF6AFAEB5EB030C1E
:1009480004BFB6EB020C5FEA500C50F1000041EB1B
:10095800045170BD0EF0004E4EEA113114EB5C04E8
:10096800C2BFD4EB0C0541EA045170BD41F48011BB
:100978004FF0000E013C90E645EA060E8DE60CEAC3
:10098800135594EA0C0F08BF95EA0C0F3FF43BAFE0
:1009980094EA0C0F0AD150EA01347FF434AF95EA97
:1009A8000C0F7FF425AF104619462CE795EA0C0F7B
:1009B80006D152EA03353FF4FDAE1046194622E748
:1009C80050EA410618BF52EA43067FF4C5AE50EA22
:1009D80041047FF40DAF52EA43057FF4EBAE12E712
:1009E8004FF0FF3C06E000BF4FF0010C02E000BFF3
:1009F8004FF0010C4DF804CD4FEA410C7FEA6C5CD6
:100A08004FEA430C18BF7FEA6C5C1BD001B050EA78
:100A1800410C0CBF52EA430C91EA030F02BF90EA63
:100A2800020F0020704710F1000F91EA030F58BF22
:100A3800994208BF90422CBFD8176FEAE37040F084
:100A4800010070474FEA410C7FEA6C5C02D150EA22
:100A5800013C07D14FEA430C7FEA6C5CD6D152EADD
:100A6800033CD3D05DF8040B704700BF84461046A2
:100A780062468C461946634600E000BF01B5FFF7A1
:100A8800B7FF002848BF10F1000F01BD4DF808ED71
:100A9800FFF7F4FF0CBF012000205DF808FB00BF42
:100AA8004DF808EDFFF7EAFF34BF012000205DF89C
:100AB80008FB00BF4DF808EDFFF7E0FF94BF0120E9
:100AC80000205DF808FB00BF4DF808EDFFF7CEFFEA
:100AD80094BF012000205DF808FB00BF4DF808ED29
:100AE800FFF7C4FF34BF012000205DF808FB00BFFA
:100AF8004FEA410C7FEA6C5C02D150EA013C0AD112
:100B08004FEA430C7FEA6C5C02D152EA033C02D103
:100B18004FF0000070474FF0010070474FEA410264
:100B280012F5001215D211D56FF47873B3EB625237
:100B380012D94FEAC12343F0004343EA505311F05E
:100B4800004F23FA02F018BF404270474FF00000F0
:100B5800704750EA013005D111F0004008BF6FF02E
:100B6800004070474FF00000704700BF4A0011D2A4
:100B780012F5001211D20DD56FF47873B3EB6252EF
:100B88000ED44FEAC12343F0004343EA505323FAFB
:100B980002F070474FF00000704750EA013002D170
:100BA8004FF0FF3070474FF00000704780B582B0BB
:100BB80002AF184815F0FAF80FF045F804F09CFF5A
:100BC80007F0EAF807F0DAFD00F094F80EF080FE7E
:100BD8000EF02EFF00200EF095FE0F4B00933C23E5
:100BE8005022002121200FF017FB06230B4A372142
:100BF80065200FF09FF90FF0B1F84FF448700EF030
:100C080003FF0FF0CBF814F011FE00F083FE00F0A4
:100C18008FFFF8E7C4500020849C010890920108D7
:100C280080B400AF00BFBD4680BC704780B400AF41
:100C3800FEE780B400AFFEE780B400AFFEE780B403
:100C480000AFFEE780B400AF00BFBD4680BC704770
:100C580080B400AF00BFBD4680BC704780B400AF11
:100C680000BFBD4680BC704780B400AF00BFBD4622
:100C780080BC704780B400AF0B4B1B78012B04D1AC
:100C8800094B00221A70012309E0074B1B78022B3D
:100C980004D1054B00221A70022300E000231846F5
:100CA800BD4680BC704700BF3D51002080B485B070
:100CB80000AF78600023FB730BE0FB7B0B4A32F834
:100CC8001310FB7B7A681344CAB21A70FB7B01339A
:100CD800FB73074B1B78FA7B9A42EED3044B002236
:100CE8001A7000BF1437BD4680BC704740510020C1
:100CF8003E51002080B586B000AF01214FF48040FE
:100D080015F00AF90121042015F006F91823FB75DE
:100D18004FF40073BB820323BB7507F11403194614
:100D28001F4814F03BFF0423FB754FF48063BB821C
:100D38000323BB7507F114031946194814F02EFF55
:100D48004FF496437B6000233B820C23FB810023F6
:100D5800BB8100237B8100233B813B1D1946114841
:100D680015F0F8F8012240F225510E4815F0CBF99C
:100D78004FF4A06014F09EFE25233B700123FB7006
:100D880001237B700123BB703B46184614F0A4FE78
:100D98000121044815F098F900BF1837BD4680BDF9
:100DA800000801400038014080B582B000AF78608B
:100DB8000B46FB70FB789BB21946786815F0EAF988
:100DC80000BF8021786815F005FA0346002BF8D09B
:100DD80000BF00BF0837BD4680BD000080B582B0A7
:100DE80000AF0346FB71FB799BB21946074815F023
:100DF800D1F900BF8021054815F0ECF90346002B16
:100E0800F8D000BF00BF0837BD4680BD003801409C
:100E180080B584B000AF78600023FB7309E0FB7BEA
:100E28007A6813441B781846FFF7D8FFFB7B013319
:100E3800FB73FB7B7A6813441B78002BEFD100BF50
:100E480000BF1037BD4680BD0FB480B59AB000AF63
:100E580007F174033B603B1D3A68396F184615F07B
:100E680013FF3B1D1846FFF7D3FF00BF6837BD4689
:100E7800BDE8804004B0704780B582B000AF40F252
:100E880025511A4815F0C1F90346002B00F03385A7
:100E9800164815F090F90346FB80154B1B78022B7A
:100EA8002CD0022B00F3DC84002B03D0012B0AD0BA
:100EB80000F0D6BCFB88BC2B40F0D4840C4B01223C
:100EC8001A7000F0CFBCFB88CD2B0AD1084B022248
:100ED8001A70084B00221A70074B00221A7000F093
:100EE800C2BC034B00221A7000F0BDBC00380140A0
:100EF8009A5100203E5100203D510020054B1B789F
:100F08001946054AFB8822F81130034B1B88013B20
:100F180004E000BF3E51002040510020FC2B00F2AD
:100F2800658401A252F823F0E11700085114000863
:100F3800E117000851140008E1170008E714000839
:100F480019150008F5170008F5170008F517000827
:100F5800F5170008F5170008F5170008F517000839
:100F6800F5170008E117000825130008E117000825
:100F7800B5140008E117000825130008E117000858
:100F880025130008E117000889160008E117000872
:100F9800F5170008E1170008E1170008E117000835
:100FA800E1170008E11700084B150008E1170008D1
:100FB8007D150008E117000889160008F5170008D4
:100FC800F5170008F5170008F5170008E1170008DD
:100FD800E1170008E1170008E1170008E117000809
:100FE80083140008F5170008F5170008F51700081E
:100FF800F5170008F5170008F5170008E1170008AD
:1010080025130008E117000825130008E117000858
:10101800E1170008E1170008E11700082513000888
:10102800B5140008E1170008B5140008E117000816
:10103800F3150008E1170008C1150008E1170008BA
:1010480019150008E11700082513000857160008AD
:1010580083140008E1170008E1170008E1170008E9
:1010680051170008E117000825130008E1170008C8
:1010780057130008E117000825160008F51700089F
:1010880057160008E1170008251300088117000803
:1010980081170008B1170008F5170008F5170008B0
:1010A800F5170008E117000825130008E1170008E4
:1010B80057130008E1170008BB160008E1170008DD
:1010C80057160008E117000825130008F51700084F
:1010D800F5170008F5170008F5170008F5170008B8
:1010E800F5170008E117000825130008E1170008A4
:1010F800ED160008E117000825160008E11700089A
:1011080057160008E117000825130008F51700080E
:10111800F5170008F5170008F5170008F517000877
:10112800F51700082513000857130008BB1300081B
:10113800ED130008571300081F170008E1170008EF
:10114800C1150008E117000825130008F517000865
:10115800F5170008F5170008F5170008F517000837
:10116800F5170008E117000825130008E117000823
:10117800B5140008E117000851170008E117000826
:101188001F140008E117000825130008B51400080B
:1011980057130008F5170008F5170008F517000899
:1011A800F5170008E117000825130008E1170008E3
:1011B800831400088314000825130008E1170008A9
:1011C800E117000825130008F5170008F5170008AF
:1011D800F5170008F517000883140008E117000840
:1011E80089130008F5170008F5170008E11700082B
:1011F800F5170008F5170008B5140008E1170008EE
:10120800F5170008F5170008F51700081F1400085F
:10121800E1170008F51700081F1400082513000837
:10122800E1170008F5170008E1170008F51700088E
:10123800F5170008F5170008B5140008E1170008AD
:10124800F5170008F5170008F5170008F517000846
:10125800F5170008F5170008F5170008F517000836
:10126800F5170008F5170008F5170008F517000826
:10127800F5170008F5170008B5140008E11700086D
:10128800F5170008F5170008F5170008F517000806
:10129800F5170008F5170008F5170008F5170008F6
:1012A800F5170008F5170008F5170008F5170008E6
:1012B800F5170008F5170008B5140008E11700082D
:1012C800B5140008E1170008F517000851140008C4
:1012D800F5170008F5170008F5170008F5170008B6
:1012E800F5170008F5170008F5170008F5170008A6
:1012F800E1170008E1170008E1170008F5170008D2
:10130800F5170008F5170008F5170008E117000899
:10131800E1170008E1170008E1170008A24B1B7845
:101328000133DAB2A04B1A709F4B1B78072B40F29F
:101338005F829D4B1B781A469C4B002123F81210A4
:101348009B4B00221A709B4B01221A7050E2964B5D
:101358001B780133DAB2944B1A70934B1B78142B19
:1013680040F24882904B1B781A46904B002123F894
:1013780012108F4B00221A708E4B01221A7039E21C
:10138800894B1B780133DAB2874B1A70864B1B786E
:10139800122B40F23182844B1B781A46834B002172
:1013A80023F81210824B00221A70824B01221A7005
:1013B80022E27D4B1B780133DAB27B4B1A707A4BF1
:1013C8001B782C2B40F21A82774B1B781A46774BE6
:1013D800002123F81210764B00221A70754B012257
:1013E8001A700BE2704B1B780133DAB26E4B1A702D
:1013F8006D4B1B780C2B40F203826B4B1B781A4603
:101408006A4B002123F81210694B00221A70694BAD
:1014180001221A70F4E1644B1B780133DAB2624B93
:101428001A70614B1B78132B40F2EC815E4B1B78D2
:101438001A465E4B002123F812105D4B00221A70E9
:101448005C4B01221A70DDE1574B1B780133DAB28D
:10145800554B1A70544B1B78082B40F2D581524BD0
:101468001B781A46514B002123F81210504B0022CA
:101478001A70504B01221A70C6E14B4B1B7801338E
:10148800DAB2494B1A70484B1B78202B40F2BE81C8
:10149800454B1B781A46454B002123F81210444B44
:1014A80000221A70434B01221A70AFE13E4B1B78A1
:1014B8000133DAB23C4B1A703B4B1B78102B40F2CD
:1014C800A781394B1B781A46384B002123F8121094
:1014D800374B00221A70374B01221A7098E1324BB1
:1014E8001B780133DAB2304B1A702F4B1B78152B4F
:1014F80040F290812C4B1B781A462C4B002123F884
:1015080012102B4B00221A702A4B01221A7081E10B
:10151800254B1B780133DAB2234B1A70224B1B7808
:101528000D2B40F27981204B1B781A461F4B002166
:1015380023F812101E4B00221A701E4B01221A703B
:101548006AE1194B1B780133DAB2174B1A70164B44
:101558001B78162B40F26281134B1B781A46134BEB
:10156800002123F81210124B00221A70114B01228D
:101578001A7053E10C4B1B780133DAB20A4B1A701C
:10158800094B1B78362B40F24B81074B1B781A46C8
:10159800064B002123F81210054B00221A70054B48
:1015A80001221A703CE100BF3E510020405100204A
:1015B8009A5100203D510020A54B1B780133DAB227
:1015C800A34B1A70A24B1B78452B40F22B81A04BE2
:1015D8001B781A469F4B002123F812109E4B0022BD
:1015E8001A709E4B01221A701CE1994B1B7801332B
:1015F800DAB2974B1A70964B1B780B2B40F214817A
:10160800934B1B781A46934B002123F81210924BE8
:1016180000221A70914B01221A7005E18C4B1B783D
:101628000133DAB28A4B1A70894B1B784E2B40F281
:10163800FD80874B1B781A46864B002123F8121031
:10164800854B00221A70854B01221A70EEE0804B00
:101658001B780133DAB27E4B1A707D4B1B78042B52
:1016680040F2E6807A4B1B781A467A4B002123F821
:101678001210794B00221A70784B01221A70D7E0A9
:10168800734B1B780133DAB2714B1A70704B1B78AD
:101698000F2B40F2CF806E4B1B781A466D4B002102
:1016A80023F812106C4B00221A706C4B01221A702E
:1016B800C0E0674B1B780133DAB2654B1A70644B94
:1016C8001B784D2B40F2B880614B1B781A46614B52
:1016D800002123F81210604B00221A705F4B012280
:1016E8001A70A9E05A4B1B780133DAB2584B1A70BA
:1016F800574B1B78112B40F2A180554B1B781A468B
:10170800544B002123F81210534B00221A70534BEC
:1017180001221A7092E04E4B1B780133DAB24C4B1F
:101728001A704B4B1B78182B40F28A80484B1B7859
:101738001A46484B002123F81210474B00221A7012
:10174800464B01221A707BE0414B1B780133DAB219
:101758003F4B1A703E4B1B78092B73D93C4B1B78B7
:101768001A463C4B002123F812103B4B00221A70FA
:101778003A4B01221A7065E0354B1B780133DAB217
:10178800334B1A70324B1B78022B5DD9304B1B78C8
:101798001A46304B002123F812102F4B00221A70E2
:1017A8002E4B01221A704FE0294B1B780133DAB215
:1017B800274B1A70264B1B781F2B47D9244B1B78B5
:1017C8001A46244B002123F81210234B00221A70CA
:1017D800224B01221A7039E01F4B00221A701C4B51
:1017E80001221A701D4B02221A7030E000BF3AE045
:1017F80000BF38E000BF36E000BF34E000BF32E091
:1018080000BF30E000BF2EE000BF2CE000BF2AE0A0
:1018180000BF28E000BF26E000BF24E000BF22E0B0
:1018280000BF20E000BF1EE000BF1CE000BF1AE0C0
:1018380000BF18E000BF16E000BF14E000BF12E0D0
:1018480000BF10E000BF0EE000BF0CE000BF0AE0E0
:101858003E510020405100209A5100203D51002067
:1018680000BF00E000BF264B1B78022B29D0022BBB
:1018780037DC002B02D0012B0ED032E0FB88402B46
:1018880031D1204B1B78002B2DD11D4B01221A7012
:101898001D4B00221A7026E0FB880D2B03D1184B34
:1018A80002221A7022E0184B1B781A46FB88D9B21C
:1018B800164B9954144B1B780133DAB2124B1A7039
:1018C80014E0FB880A2B10D10D4B00221A700E4B26
:1018D8001B781A460D4B002199540A4B01221A70A5
:1018E80003E000BF02E000BF00E000BF40F2255166
:1018F800074814F0E4FC00BF0837BD4680BD00BFB0
:101908009B5100203C5100209C510020D8500020C1
:101918000038014080B500AF574B1B78012B40F0D1
:10192800A88056495648FEF77BFC0346002B02D197
:1019380001F058FE9AE053495148FEF771FC0346FE
:10194800002B02D101F0A2FE90E04F494C48FEF76F
:1019580067FC0346002B02D101F098FE86E04B4954
:101968004748FEF75DFC0346002B02D101F08EFECE
:101978007CE047494248FEF753FC0346002B02D15E
:1019880001F084FE72E043493D48FEF749FC0346F6
:10199800002B02D101F07AFE68E03F493848FEF793
:1019A8003FFC0346002B02D101F070FE5EE03B498C
:1019B8003348FEF735FC0346002B02D101F066FEE2
:1019C80054E037492E48FEF72BFC0346002B02D182
:1019D80001F05CFE4AE033492948FEF721FC034642
:1019E800002B02D101F052FE40E02F492448FEF7B7
:1019F80017FC0346002B02D101F048FE36E02B49C4
:101A08001F48FEF70DFC0346002B02D101F03EFEF5
:101A18002CE027491A48FEF703FC0346002B02D1A5
:101A280001F034FE22E023491548FEF7F9FB03468E
:101A3800002B02D101F02AFE18E01F491048FEF7DA
:101A4800EFFB0346002B02D101F020FE0EE01B49FC
:101A58000B48FEF7E5FB0346002B02D101F016FE0A
:101A680004E001F02DFE1648FFF7D2F9024B0022E0
:101A78001A7000BF80BD00BF3C5100209892010839
:101A8800D8500020A0920108A8920108B09201083D
:101A9800B4920108B8920108C4920108C8920108DA
:101AA800D0920108D8920108E0920108E892010852
:101AB800F0920108F89201080493010810930108B4
:101AC8001C93010880B582B000AF0346FB71FB7917
:101AD80019460348FFF768F900BF0837BD4680BDBF
:101AE8000038014080B584B000AF03460A46FB7158
:101AF8001346BB710123FB7309E0FB7B0A4AD35CE5
:101B080019460A48FFF750F9FB7B0133FB73FA7B50
:101B1800FB799A42F1D9BB7919460448FFF744F991
:101B280000BF1037BD4680BDA051002000380140DD
:101B380080B582B000AFFFF79DF80346FB71FB79D3
:101B4800012B40F0C7850023FB71F048FFF7AEF882
:101B5800EE4B1B78023BBC2B00F2B18501A252F878
:101B680023F000BF99200008C72600089920000824
:101B7800C7260008BB200008DD200008C72600088B
:101B8800C7260008C7260008C7260008C726000879
:101B9800C7260008C7260008C7260008C726000869
:101BA80055200008C726000877200008C726000827
:101BB800FF200008C726000821210008C7260008C2
:101BC80043210008C7260008C7260008C7260008C2
:101BD800C7260008C7260008C7260008C726000829
:101BE80065210008C726000887210008C7260008C5
:101BF800A9210008C7260008C7260008C72600082C
:101C0800C7260008C7260008C7260008C7260008F8
:101C1800C7260008C7260008A3220008C726000810
:101C2800C7260008C7260008C7260008C7260008D8
:101C3800C7260008C7260008CB210008C7260008C9
:101C4800ED210008C7260008C7260008C726000897
:101C5800C7260008C3240008E5240008C726000892
:101C68000F220008C72600083D220008C7260008E2
:101C78005F220008C726000881220008C72600083E
:101C8800C52200085125000873250008C72600084A
:101C9800C7260008C72600083F260008C7260008F0
:101CA800E7220008C726000809230008C7260008FD
:101CB8002B230008C72600084D230008C726000864
:101CC8006F2300086126000883260008A52600085F
:101CD800C7260008C7260008C7260008C726000828
:101CE80091230008C7260008B3230008C726000868
:101CF800D5230008C7260008F7230008C7260008D0
:101D080019240008C7260008C7260008C7260008A7
:101D1800C7260008C7260008C7260008C7260008E7
:101D28003B240008C72600085D240008C7260008D1
:101D38007F240008C7260008A1240008C726000839
:101D4800C3240008C7260008C7260008C7260008BD
:101D5800C7260008C7260008C7260008211F000854
:101D6800611E0008431F0008AB1F0008CD1F0008B4
:101D780007250008C726000829250008C7260008E7
:101D880095250008C7260008C7260008C7260008AA
:101D9800C7260008C7260008C7260008C726000867
:101DA80095250008C7260008B7250008C72600089B
:101DB800D9250008C7260008FB250008C726000803
:101DC8001D26000833200008871E0008C7260008C3
:101DD800C7260008C7260008C7260008C726000827
:101DE8001D260008C7260008AD1E0008D11E0008E1
:101DF800211F0008C7260008C7260008F31E000890
:101E0800C7260008C7260008C7260008C7260008F6
:101E1800EF1F0008C726000811200008C726000881
:101E2800C7260008C7260008C7260008C7260008D6
:101E3800C7260008C7260008C7260008C7260008C6
:101E4800C7260008C7260008C7260008C7260008B6
:101E5800C7260008211F00082D490023142200204E
:101E680003F0FBFC0346002B04D1EE20FFF72AFE0B
:101E780000F026BC6020FFF725FE00F021BC2549B4
:101E880000230D22072003F0E8FC0346002B04D1B1
:101E9800EE20FFF717FE00F013BC6120FFF712FEDB
:101EA80000F00EBC1A4900232022002003F0D5FCC4
:101EB8000346002B04D1EE20FFF704FE00F000BC1F
:101EC8006920FFF7FFFDFBE31249002317220720D3
:101ED80003F0C3FC0346002B03D1EE20FFF7F2FD0D
:101EE800EEE37320FFF7EEFDEAE309490123072239
:101EF800002003F0B2FC0346002B03D1EE20FFF7CD
:101F0800E1FDDDE36720FFF7DDFDD9E3A051002007
:101F1800A1510020A8510020C34900230722002016
:101F280003F09BFC0346002B03D1EE20FFF7CAFD0C
:101F3800C6E36220FFF7C6FDC2E3BB4900232C229B
:101F4800142003F08AFC0346002B03D1EE20FFF790
:101F5800B9FDB5E3B44B2C2118460BF0D3F8034672
:101F6800BB71B14900232C22142003F05FFC034607
:101F7800002B03D1EE20FFF7A5FDA1E3AA4B2C21EE
:101F880018460BF0BFF803467B71BA797B799A4201
:101F980003D16320FFF796FD92E36420FFF792FDDB
:101FA8008EE3A14900230C22142003F056FC0346BB
:101FB800002B03D1EE20FFF785FD81E36320FFF7B7
:101FC80081FD7DE39849002314222C2003F045FC71
:101FD8000346002B03D1EE20FFF774FD70E3702059
:101FE800FFF770FD6CE3904900232022402003F0A6
:101FF80034FC0346002B03D1EE20FFF763FD5FE3BB
:102008007120FFF75FFD5BE3874900231222602000
:1020180003F023FC0346002B03D1EE20FFF752FD0B
:102028004EE37220FFF74EFD4AE380490023092260
:10203800702003F012FC0346002B03D1EE20FFF7BB
:1020480041FD3DE36520FFF73DFD39E37649002377
:10205800072202200DF01FFC0346002B03D1EE20BF
:10206800FFF730FD2CE36520FFF72CFD28E36E49D0
:102078000023102200200DF00EFC0346002B03D194
:10208800EE20FFF71FFD1BE36520FFF71BFD17E39D
:10209800674900230722002003F0DFFB0346002BDB
:1020A80003D1EE20FFF70EFD0AE36220FFF70AFDD9
:1020B80006E35F4900231422002003F0CEFB034609
:1020C800002B03D1EE20FFF7FDFCF9E26220FFF7B9
:1020D800F9FCF5E2564900230C22152003F0BDFB5C
:1020E8000346002B03D1EE20FFF7ECFCE8E2622068
:1020F800FFF7E8FCE4E24C4900230722102005F032
:102108001EFE0346002B03D1EE20FFF7DBFCD7E2CF
:102118006220FFF7D7FCD3E24349002307221020AF
:1021280005F00DFE0346002B03D1EE20FFF7CAFC95
:10213800C6E26220FFF7C6FCC2E23B4900230F2239
:10214800102005F0FCFD0346002B03D1EE20FFF71D
:10215800B9FCB5E26220FFF7B5FCB1E232490023D1
:102168001622202005F0EBFD0346002B03D1EE20BC
:10217800FFF7A8FCA4E26220FFF7A4FCA0E22A492A
:10218800002336227C2005F0DAFD0346002B03D11C
:10219800EE20FFF797FC93E26220FFF793FC8FE2B3
:1021A800214900230422FC2005F0C9FD0346002B29
:1021B80003D1EE20FFF786FC82E26220FFF782FC63
:1021C8007EE219490023072200200CF0DAFD0346BD
:1021D800002B03D1EE20FFF775FC71E26220FFF7B8
:1021E80071FC6DE210490023072200200CF0C9FDA4
:1021F8000346002B03D1EE20FFF764FC60E2622067
:10220800FFF760FC5CE208490023102200200CF074
:10221800B8FD0346002B03D1EE20FFF753FC4FE235
:102228006220FFF74FFC4BE2A1510020A85100208B
:10223800A2510020C34900230B2217200CF0A1FD56
:102248000346002B03D1EE20FFF73CFC38E2622066
:10225800FFF738FC34E2BB49002345226D200CF01F
:1022680090FD0346002B03D1EE20FFF72BFC27E25D
:102278006220FFF727FC23E2B24900230D22F22057
:102288000CF07FFD0346002B03D1EE20FFF71AFC6C
:1022980016E26220FFF716FC12E2AA490023202268
:1022A800BA200CF06EFD0346002B03D1EE20FFF799
:1022B80009FC05E26220FFF705FC01E2A1490023C1
:1022C8000722002008F087F90346002B03D1EE20EF
:1022D800FFF7F8FBF4E16220FFF7F4FBF0E199491E
:1022E80000230722002008F076F90346002B03D1CB
:1022F800EE20FFF7E7FBE3E16220FFF7E3FBDFE116
:10230800904900231422002008F065F90346002BA9
:1023180003D1EE20FFF7D6FBD2E16220FFF7D2FB14
:10232800CEE1884900234E226C2008F054F9034678
:10233800002B03D1EE20FFF7C5FBC1E16220FFF7B8
:10234800C1FBBDE17F4900230422FB2008F043F9CB
:102358000346002B03D1EE20FFF7B4FBB0E1622067
:10236800FFF7B0FBACE1774900230722002004F017
:10237800CCFD0346002B03D1EE20FFF7A3FB9FE122
:102388006220FFF79FFB9BE16E4900230722002094
:1023980004F0BBFD0346002B03D1EE20FFF792FBB0
:1023A8008EE16220FFF78EFB8AE166490023142242
:1023B800002004F0AAFD0346002B03D1EE20FFF70E
:1023C80081FB7DE16220FFF77DFB79E15D49002318
:1023D8004E226D2004F099FD0346002B03D1EE2018
:1023E800FFF770FB6CE16220FFF76CFB68E1554971
:1023F80000230422FB2004F088FD0346002B03D1B0
:10240800EE20FFF75FFB5BE16220FFF75BFB57E124
:102418004C4900230722002009F03DFF0346002B0A
:1024280003D1EE20FFF74EFB4AE16220FFF74AFB9B
:1024380046E1444900230722002009F02CFF034607
:10244800002B03D1EE20FFF73DFB39E16220FFF7B7
:1024580039FB35E13B4900231122002009F01BFF1D
:102468000346002B03D1EE20FFF72CFB28E1622066
:10247800FFF728FB24E1334900234E226C2009F0A2
:102488000AFF0346002B03D1EE20FFF71BFB17E1E1
:102498006220FFF717FB13E12A4900230422FB20DF
:1024A80009F0F9FE0346002B03D1EE20FFF70AFBE3
:1024B80006E16220FFF706FB02E12249002307221A
:1024C800002008F0C6FF0346002B03D1EE20FFF7DB
:1024D800F9FAF5E06220FFF7F5FAF1E0194900236F
:1024E8001022002008F0B5FF0346002B03D1EE2090
:1024F800FFF7E8FAE4E06220FFF7E4FAE0E01149C8
:1025080000231822102008F0A4FF0346002B03D153
:10251800EE20FFF7D7FAD3E06220FFF7D3FACFE037
:102528000849002345226D2008F093FF0346002B3D
:1025380003D1EE20FFF7C6FAC2E06220FFF7C2FA25
:10254800BEE000BFA1510020604900230422FB2007
:1025580008F07FFF0346002B03D1EE20FFF7B2FA05
:10256800AEE06220FFF7AEFAAAE058490023202225
:10257800BA2008F06EFF0346002B03D1EE20FFF7C8
:10258800A1FA9DE06220FFF79DFA99E04F4B0722E0
:102598001946002007F002F80346002B03D1EE206D
:1025A800FFF790FA8CE06220FFF78CFA88E0474B3F
:1025B80010221946002006F0F1FF0346002B03D134
:1025C800EE20FFF77FFA7BE06220FFF77BFA77E0E7
:1025D8003E4B09221946422006F0E0FF0346002B35
:1025E80003D1EE20FFF76EFA6AE06220FFF76AFA7D
:1025F80066E0364B132219466D2006F0CFFF0346DE
:10260800002B03D1EE20FFF75DFA59E06220FFF7B7
:1026180059FA55E02D4B07221946802007F06DF82E
:102628000346002B03D1EE20FFF74CFA48E0622066
:10263800FFF748FA44E0254B09221946802007F0A5
:102648005CF80346002B03D1EE20FFF73BFA37E096
:102658006220FFF737FA33E01C4B02221946B220FA
:1026680007F04BF80346002B03D1EE20FFF72AFAB8
:1026780026E06220FFF726FA22E0144B02221946D0
:10268800BA2007F03AF80346002B03D1EE20FFF7F3
:1026980019FA15E06220FFF715FA11E00B4B1F221B
:1026A8001946C02007F029F80346002B03D1EE2075
:1026B800FFF708FA04E06220FFF704FA00E000BF21
:1026C800034B00221A7000F084BF00BFA151002004
:1026D800A0510020FB79022B40F07B870023FB717F
:1026E8000348FEF7E3FA024B1B78013B02E000BF08
:1026F800A0510020FC2B00F2688701A252F823F0B9
:10270800732D0008D33500089D2D0008D335000827
:10271800C72D0008D3350008D3350008D335000885
:10272800D3350008D3350008D3350008D335000861
:10273800D3350008D3350008D33500081F2D00080D
:10274800D3350008492D0008D3350008ED2D0008C1
:10275800D3350008132E0008D3350008392E000899
:10276800D3350008DB2E0008D3350008E92F000810
:1027780013300008F5300008E7310008692E00081A
:10278800D33500088F2E0008D3350008B52E000871
:10279800D3350008D3350008D3350008D3350008F1
:1027A800D3350008CF320008D7330008A334000817
:1027B80089350008B1350008D3350008D33500083D
:1027C800D3350008D3350008D3350008D3350008C1
:1027D800D3350008052F0008D33500082B2F000833
:1027E800D3350008F3320008193300083F330008D6
:1027F8008B330008D3350008D3350008512F000863
:10280800D3350008772F0008D33500089D2F00081E
:10281800D3350008C32F0008D33500083730000827
:10282800D3350008D3350008D3350008173500081C
:102838003D35000863350008D33500085D300008D1
:10284800D335000883300008D3350008A9300008C4
:10285800D3350008D3350008D3350008CF30000839
:10286800D3350008D3350008D3350008D335000820
:10287800D3350008D3350008D33500081F310008C8
:10288800D335000845310008D335000875310008F4
:10289800D33500089B310008D3350008C131000842
:1028A800D3350008D3350008D3350008D3350008E0
:1028B800D3350008D3350008D33500081132000895
:1028C800D335000837320008D33500085D320008D8
:1028D800D335000883320008D3350008A932000830
:1028E800D3350008D3350008D3350008D3350008A0
:1028F800D3350008D3350008D3350008D335000890
:10290800D3350008D3350008D3350008D33500087F
:10291800D335000865330008D3350008B133000803
:10292800D3350008D3350008D3350008D33500085F
:10293800D3350008D3350008D33500080134000822
:10294800D335000827340008D33500084D34000873
:10295800D335000873340008D3350008CB34000899
:10296800D3350008D3350008D3350008D33500081F
:10297800D3350008D3350008D3350008CB34000818
:10298800D3350008F1340008D3350008D3350008E2
:10299800D3350008A12C0008772C0008D33500088F
:1029A800D3350008D3350008D3350008D3350008DF
:1029B800D33500084D2C0008D3350008D33500085E
:1029C800D3350008272B0008D3350008D335000875
:1029D800D3350008D3350008D3350008D3350008AF
:1029E800D3350008D3350008D3350008D33500089F
:1029F800D3350008D3350008FD2A0008D335000870
:102A0800232C0008D3350008D3350008D335000837
:102A1800D3350008D3350008D3350008D33500086E
:102A2800D3350008D3350008D3350008D33500085E
:102A3800D3350008D3350008D3350008D33500084E
:102A4800D3350008D3350008D3350008D33500083E
:102A5800D3350008D3350008D3350008D33500082E
:102A6800D3350008D3350008D3350008D33500081E
:102A7800D3350008D3350008D3350008D33500080E
:102A8800D3350008D3350008D3350008D3350008FE
:102A9800D3350008D3350008D3350008D3350008EE
:102AA800D3350008D3350008D3350008D3350008DE
:102AB800D3350008D3350008D3350008D3350008CE
:102AC800D3350008D3350008512B0008792B0008AE
:102AD800A72B0008D3350008D3350008D3350008E4
:102AE800D3350008CB2C0008CF2B0008F92B0008A1
:102AF800F52C0008D84900230722002002F096FE92
:102B08000346002B05D1EE210720FEF7EBFF00F06E
:102B18005DBDCC210720FEF7E5FF00F057BDCE498B
:102B280000230722002002F081FE0346002B05D176
:102B3800EE210720FEF7D6FF00F048BDCC21072084
:102B4800FEF7D0FF00F042BDC34B0021184602F04B
:102B5800B2FE0346002B05D1EE210820FEF7C2FF86
:102B680000F034BDBB210820FEF7BCFF00F02EBDED
:102B7800002002F087FB03461A46B84B5A70B74B41
:102B88005B78002B05D1EE210120FEF7ABFF00F0AA
:102B98001DBDBB210120FEF7A5FF00F017BDAE4B00
:102BA8000021184602F054FC0346002B05D1EE2103
:102BB8000220FEF797FF00F009BDBB210220FEF7B7
:102BC80091FF00F003BDA44900232C22142002F039
:102BD8002DFE0346002B05D1EE212C20FEF782FFA7
:102BE80000F0F4BCBB212C20FEF77CFF00F0EEBC0B
:102BF800994900230C22142002F018FE0346002BEA
:102C080005D1EE210C20FEF76DFF00F0DFBCBB21E3
:102C18000C20FEF767FF00F0D9BC8F490023202263
:102C2800202002F003FE0346002B05D1EE212020D0
:102C3800FEF758FF00F0CABCBB212020FEF752FF68
:102C480000F0C4BC844900232022402002F0EEFD9D
:102C58000346002B05D1EE212020FEF743FF00F0AC
:102C6800B5BCBB212020FEF73DFF00F0AFBC7A4980
:102C780000231A22602002F0D9FD0346002B05D15B
:102C8800EE211A20FEF72EFF00F0A0BCBB211A206F
:102C9800FEF728FF00F09ABC6F490023202200208D
:102CA80002F0C4FD0346002B05D1EE212020FEF7DB
:102CB80019FF00F08BBCBB212020FEF713FF00F0AA
:102CC80085BC654900231422002002F0AFFD0346AD
:102CD800002B05D1EE211420FEF704FF00F076BC8E
:102CE800BB211420FEF7FEFE00F070BC5A490023F9
:102CF8001022002002F09AFD0346002B05D1EE2198
:102D08001020FEF7EFFE00F061BCBB211020FEF79B
:102D1800E9FE00F05BBC50490023072202200CF0BA
:102D2800A3FD0346002B05D1EE210720FEF7DAFEAE
:102D380000F04CBCBB210720FEF7D4FE00F046BCD7
:102D480045490023102200200CF08EFD0346002B7D
:102D580005D1EE211020FEF7C5FE00F037BCBB21DF
:102D68001020FEF7BFFE00F031BC3B4900230722CC
:102D7800002002F05BFD0346002B05D1EE21072061
:102D8800FEF7B0FE00F022BCCC210720FEF7AAFE19
:102D980000F01CBC304900231422002002F046FD3C
:102DA8000346002B05D1EE211420FEF79BFE00F010
:102DB8000DBCCC211420FEF795FE00F007BC264977
:102DC80000230C22152002F031FD0346002B04D10C
:102DD800EE210C20FEF786FEF8E3CC210C20FEF74E
:102DE80081FEF3E31C4900230722102004F090FF22
:102DF8000346002B04D1EE210720FEF773FEE5E31E
:102E0800CC210720FEF76EFEE0E3134900231022D1
:102E1800102004F07DFF0346002B04D1EE21102082
:102E2800FEF760FED2E3CC211020FEF75BFECDE377
:102E3800094900231622202004F06AFF0346002BCC
:102E480004D1EE211620FEF74DFEBFE3CC2116205B
:102E5800FEF748FEBAE300BFA1510020A0510020B0
:102E6800C04900233E227C2004F052FF0346002B79
:102E780004D1EE213E20FEF735FEA7E3CC213E200B
:102E8800FEF730FEA2E3B74900230422FB2004F03A
:102E98003FFF0346002B04D1EE210420FEF722FE5B
:102EA80094E3CC210420FEF71DFE8FE3AD490023F7
:102EB8000822B22004F02CFF0346002B04D1EE2197
:102EC8000820FEF70FFE81E3CC210820FEF70AFE5A
:102ED8007CE3002004F022F903461A46A24B5A70FC
:102EE800A14B5B78002B04D1EE210120FEF7FAFDFF
:102EF8006CE3BB210120FEF7F5FD67E39949002348
:102F0800072200200BF026FF0346002B04D1EE21F8
:102F18000720FEF7E7FD59E3CC210720FEF7E2FD85
:102F280054E390490023102200200BF013FF0346BE
:102F3800002B04D1EE211020FEF7D4FD46E3CC216E
:102F48001020FEF7CFFD41E3864900230B2217200E
:102F58000BF000FF0346002B04D1EE210B20FEF7F7
:102F6800C1FD33E3CC210B20FEF7BCFD2EE37D49E8
:102F7800002345226D200BF0EDFE0346002B04D103
:102F8800EE216D20FEF7AEFD20E3CC216D20FEF78B
:102F9800A9FD1BE3734900230D22F2200BF0DAFE92
:102FA8000346002B04D1EE210D20FEF79BFD0DE317
:102FB800CC210D20FEF796FD08E36A49002308227C
:102FC800B2200BF0C7FE0346002B04D1EE210820E7
:102FD800FEF788FDFAE2CC210820FEF783FDF5E232
:102FE80000200BF001F903461A465F4B5A705E4BFE
:102FF8005B78002B04D1EE210120FEF773FDE5E29A
:10300800BB210120FEF76EFDE0E2564B0021184679
:103018000BF094F90346002B04D1EE210220FEF7B1
:1030280061FDD3E2BB210220FEF75CFDCEE24D49F3
:1030380000230722002007F0B7FA0346002B04D12B
:10304800EE210720FEF74EFDC0E2CC210720FEF757
:1030580049FDBBE2434900231422002007F0A4FAEB
:103068000346002B04D1EE211420FEF73BFDADE210
:10307800CC211420FEF736FDA8E23A4900234E225F
:103088006C2007F091FA0346002B04D1EE214E2064
:10309800FEF728FD9AE2CC214E20FEF723FD95E2AB
:1030A800304900230422FB2007F07EFA0346002B58
:1030B80004D1EE210420FEF715FD87E2CC2104207F
:1030C800FEF710FD82E2274900230822B22007F00C
:1030D8006BFA0346002B04D1EE210820FEF702FD0F
:1030E80074E2CC210820FEF7FDFC6FE2002006F018
:1030F80009FD03461A461C4B5A701B4B5B78002B84
:1031080004D1EE210120FEF7EDFC5FE2BB21012096
:10311800FEF7E8FC5AE2134900230722002003F0D7
:10312800DDFE0346002B04D1EE210720FEF7DAFC72
:103138004CE2CC210720FEF7D5FC47E209490023E1
:103148001422002003F0CAFE0346002B04D1EE210E
:103158001420FEF7C7FC39E2CC211420FEF7C2FC8C
:1031680034E200BFA1510020A0510020C64900232D
:103178004D22002003F0B2FE0346002B04D1EE21BD
:103188004E20FEF7AFFC21E2CC214E20FEF7AAFC30
:103198001CE2BD4900230422FB2003F09FFE0346E6
:1031A800002B04D1EE210420FEF79CFC0EE2CC217A
:1031B8000420FEF797FC09E2B34900230822B22055
:1031C80003F08CFE0346002B04D1EE210820FEF705
:1031D80089FCFBE1CC210820FEF784FCF6E1002005
:1031E80003F064F903461A46A84B5A70A74B5B785C
:1031F800002B04D1EE210120FEF774FCE6E1BB218F
:103208000120FEF76FFCE1E19F490023072200201F
:1032180009F02AF80346002B04D1EE210720FEF717
:1032280061FCD3E1CC210720FEF75CFCCEE1964996
:1032380000231122002009F017F80346002B04D1BF
:10324800EE211020FEF74EFCC0E1CC211020FEF745
:1032580049FCBBE18C4900234E226C2009F004F89C
:103268000346002B04D1EE214E20FEF73BFCADE1D6
:10327800CC214E20FEF736FCA8E183490023042226
:10328800FB2008F0F1FF0346002B04D1EE210420B7
:10329800FEF728FC9AE1CC210420FEF723FC95E1F7
:1032A800794900230822B22008F0DEFF0346002BEC
:1032B80004D1EE210820FEF715FC87E1CC21082077
:1032C800FEF710FC82E1704B0021184608F0B4FAB2
:1032D8000346002B04D1EE210220FEF703FC75E122
:1032E800BB210220FEF7FEFB70E16749002307229D
:1032F800002008F097F80346002B04D1EE210720A0
:10330800FEF7F0FB62E1CC210720FEF7EBFB5DE165
:103318005D4900230722002008F084F80346002BAB
:1033280004D1EE210720FEF7DDFB4FE1CC21072079
:10333800FEF7D8FB4AE1544900231022002008F088
:1033480071F80346002B04D1EE211020FEF7CAFBCA
:103358003CE1CC211020FEF7C5FB37E14A490023A8
:103368001822102008F05EF80346002B04D1EE2145
:103378001820FEF7B7FB29E1CC211820FEF7B2FB95
:1033880024E14149002345226D2008F04BF803460B
:10339800002B04D1EE214520FEF7A4FB16E1CC2139
:1033A8004520FEF79FFB11E1374900230822B22090
:1033B80008F038F80346002B04D1EE210820FEF768
:1033C80091FB03E1CC210820FEF78CFBFEE00020F6
:1033D80007F010FB03461A462C4B5A702B4B5B78B0
:1033E800002B04D1EE210120FEF77CFBEEE0BB218F
:1033F8000120FEF777FBE9E0234B0722194600205E
:1034080006F0B9F80346002B04D1EE210720FEF799
:1034180069FBDBE0CC210720FEF764FBD6E01A4B02
:1034280010221946002006F0A6F80346002B04D106
:10343800EE211020FEF756FBC8E0CC211020FEF745
:1034480051FBC3E0104B09221946422006F093F8BD
:103458000346002B04D1EE210920FEF743FBB5E01B
:10346800CC210920FEF73EFBB0E0074B132219469A
:103478006D2006F080F80346002B09D1EE211320B9
:10348800FEF730FBA2E000BFA1510020A0510020B0
:10349800CC211320FEF726FB98E005F0A9FD034692
:1034A8001A464E4B5A704D4B5B78002B04D1EE21D7
:1034B8000120FEF717FB89E0BB210120FEF712FB74
:1034C80084E0474B07221946812006F003F903469A
:1034D800002B04D1EE210720FEF704FB76E0CC2177
:1034E8000720FEF7FFFA71E03D4B0A2219468F20AC
:1034F80006F0F0F80346002B04D1EE210A20FEF76F
:10350800F1FA63E0CC210A20FEF7ECFA5EE0344BD6
:1035180008221946AF2006F0DDF80346002B04D137
:10352800EE210820FEF7DEFA50E0CC210820FEF755
:10353800D9FA4BE02A4B1F221946C12006F0CAF8D7
:103548000346002B04D1EE211F20FEF7CBFA3DE005
:10355800CC211F20FEF7C6FA38E0214B0822194675
:10356800932006F0B7F80346002B04D1EE2108207B
:10357800FEF7B8FA2AE0CC210820FEF7B3FA25E0D6
:1035880005F05EFF03461A46144B5A70134B5B78DE
:10359800002B04D1EE210120FEF7A4FA16E0BB218E
:1035A8000120FEF79FFA11E00D4B184605F0C8FF01
:1035B8000346002B04D1EE210220FEF793FA05E022
:1035C800BB210220FEF78EFA00E000BF034B002269
:1035D8001A7000BF0837BD4680BD00BFA05100204B
:1035E800A151002080B500AF1848FDF72DFC184800
:1035F800FDF72AFC1748FDF727FC1748FDF724FCC0
:103608001648FDF721FC1648FDF71EFC1548FDF786
:103618001BFC1548FDF718FC1448FDF715FC144869
:10362800FDF712FC1348FDF70FFC1348FDF70CFCDF
:103638001248FDF709FC1248FDF706FC1148FDF792
:1036480003FC1148FDF700FC00BF80BD389301085A
:1036580074930108A8930108D89301080C940108F1
:10366800349401086494010888940108B894010806
:10367800EC94010824950108589501088C950108D7
:10368800C4950108089601084896010880B500AF5E
:103698000648FDF7D9FB0648FDF7D6FB054A06495B
:1036A8000648FDF7D1FB00BF80BD00BF8C9601081E
:1036B800A4960108C8960108D4960108E096010866
:1036C80080B500AF0248FDF7BFFB00BF80BD00BF5B
:1036D8003097010880B483B000AF0346FB71FB79D3
:1036E8000D4AA2FB0323DB08DBB21B0158B2FA79AF
:1036F800094BA3FB0213D9080B469B000B445B0044
:10370800D31ADBB25BB203435BB2DBB218460C37A9
:10371800BD4680BC704700BFCDCCCCCC80B483B054
:1037280000AF0346FB71FB791B09DBB21A46920016
:1037380013445B00DAB2FB7903F00F03DBB21344E6
:10374800DBB218460C37BD4680BC704780B584B0E4
:1037580002AF396011461A460346FB710B46BB712E
:1037680013467B71BA79F9797B79009313463A68E5
:10377800642002F0FEFB0346022B01D0072300E081
:10378800062318460837BD4680BD80B584B002AF11
:10379800396011461A460346FB710B46BB71134646
:1037A8007B71BA79F9797B79009313463A6864207A
:1037B80002F061FC0346022B01D0072300E0062338
:1037C80018460837BD4680BD80B584B000AF0346B3
:1037D800FB718023FB73FB7907F10F010122102095
:1037E800FFF7D3FF0346062B01D008230EE0FF2383
:1037F800FB73FB7907F10F0101220F20FFF7C5FFCB
:103808000346062B01D0082300E00623184610378C
:10381800BD4680BD80B584B000AF0346FB717B23F5
:10382800FB73FB7907F10F0101220F20FFF7ADFFB2
:103838000346062B01D008230EE00023FB73FB7917
:1038480007F10F0101221020FFF79FFF0346062B07
:1038580001D0082300E0062318461037BD4680BD76
:1038680080B584B000AF78600B46FB70FB7807F139
:10387800080107220020FFF769FF0346062B01D045
:1038880008233BE03B7A1846FFF748FF03461A46F1
:103898007B681A707B7A1846FFF740FF03461A4682
:1038A8007B685A70BB7A03F07F03DBB21846FFF7D8
:1038B80035FF03461A467B689A70FB7A1846FFF76D
:1038C8002DFF03461A467B68DA703B7B1846FFF7E4
:1038D80025FF03461A467B681A717B7B1846FFF75B
:1038E8001DFF03461A467B685A71BB7B1846FFF7D3
:1038F80015FF03461A467B689A7106231846103747
:10390800BD4680BD80B584B000AF78600B46FB70C3
:10391800FB781846FFF758FF7B681B781846FFF7B7
:10392800D9FE03463B727B685B781846FFF7D2FEE8
:1039380003467B727B689B781846FFF7CBFE0346ED
:1039480063F07F03DBB2BB727B68DB781846FFF756
:10395800C1FE0346FB727B681B791846FFF7BAFE67
:1039680003463B737B685B791846FFF7B3FE034653
:103978007B737B689B791846FFF7ACFE0346BB73E5
:10398800FB7807F1080107220020FFF7FEFE034637
:10399800062B01D0082304E0FB781846FFF73AFF0E
:1039A800062318461037BD4680BD000080B588B094
:1039B80002AF3B1D01211846FFF752FF0346062BB5
:1039C80004D07C48FDF740FA0023EEE0BB7A7A4A3F
:1039D800A2FB0323DB08FB75BA7A774BA3FB021320
:1039E800D9080B469B000B445B00D31ABB757B7A46
:1039F800714AA2FB0323DB087B757A7A6E4BA3FB23
:103A08000213D9080B469B000B445B00D31A3B7585
:103A18003B7A694AA2FB0323DB08FB743A7A664BBC
:103A2800A3FB0213D9080B469B000B445B00D31A77
:103A3800BB74FB797B74BB795F4AA2FB0323DB0869
:103A48003B74BA795C4BA3FB0213D9080B469B0065
:103A58000B445B00D31AFB737B79574AA2FB032301
:103A6800DB08BB737A79544BA3FB0213D9080B46C6
:103A78009B000B445B00D31A7B733B794E4AA2FB35
:103A88000323DB083B733A794B4BA3FB0213D9089A
:103A98000B469B000B445B00D31AFB72FA7D06238E
:103AA800009301230A211E200CF070FABA7D062328
:103AB800009301230A2125200CF068FA06232D2201
:103AC8000A212C200CF0FCF97A7D062300930123AF
:103AD8000A2133200CF05AFA3A7D06230093012379
:103AE8000A213A200CF052FA06232D220A214120FD
:103AF8000CF0E6F9FA7C0623009301230A214820FA
:103B08000CF044FABA7C0623009301230A214F20C3
:103B18000CF03CFA062357220A215A200CF0D0F95F
:103B28007A7C0623009301230A2163200CF02EFAE5
:103B38003A7C062300930123162123200CF026FA51
:103B4800FA7B06230093012316212A200CF01EFA83
:103B580006233A22162131200CF0B2F9BA7B06234B
:103B680000930123162138200CF010FA7A7B0623E3
:103B78000093012316213F200CF008FA06233A226D
:103B8800162146200CF09CF93A7B0623009301236A
:103B980016214D200CF0FAF9FA7A06230093012336
:103BA800162154200CF0F2F9012318461837BD46A7
:103BB80080BD00BF68970108CDCCCCCC80B588B05B
:103BC80002AF3B1D01211846FFF74AFE0346062BAC
:103BD80004D07C48FDF738F90023EEE0BB7A7A4A36
:103BE800A2FB0323DB08FB75BA7A774BA3FB02130E
:103BF800D9080B469B000B445B00D31ABB757B7A34
:103C0800714AA2FB0323DB087B757A7A6E4BA3FB10
:103C18000213D9080B469B000B445B00D31A3B7573
:103C28003B7A694AA2FB0323DB08FB743A7A664BAA
:103C3800A3FB0213D9080B469B000B445B00D31A65
:103C4800BB74FB797B74BB795F4AA2FB0323DB0857
:103C58003B74BA795C4BA3FB0213D9080B469B0053
:103C68000B445B00D31AFB737B79574AA2FB0323EF
:103C7800DB08BB737A79544BA3FB0213D9080B46B4
:103C88009B000B445B00D31A7B733B794E4AA2FB23
:103C98000323DB083B733A794B4BA3FB0213D90888
:103CA8000B469B000B445B00D31AFB72FA7D08237A
:103CB8000093012308211E200CF068F9BA7D08231F
:103CC80000930123082125200CF060F908232D22F8
:103CD80008212C200CF0F4F87A7D082300930123A6
:103CE800082133200CF052F93A7D08230093012370
:103CF80008213A200CF04AF908232D2208214120F6
:103D08000CF0DEF8FA7C08230093012308214820F0
:103D18000CF03CF9BA7C08230093012308214F20BA
:103D28000CF034F90823572208215A200CF0C8F85F
:103D38007A7C082300930123082163200CF026F9DC
:103D48003A7C082300930123162123200CF01EF946
:103D5800FA7B08230093012316212A200CF016F978
:103D680008233A22162131200CF0AAF8BA7B08233E
:103D780000930123162138200CF008F97A7B0823D8
:103D88000093012316213F200CF000F908233A2262
:103D9800162146200CF094F83A7B0823009301235F
:103DA80016214D200CF0F2F8FA7A0823009301232B
:103DB800162154200CF0EAF8012318461837BD469E
:103DC80080BD00BF68970108CDCCCCCC80B500AFD2
:103DD800FFF7ECFD01F010F900213C48FFF740FD2A
:103DE8000346082B03D000F027FE06236CE00623C9
:103DF8002D222A211E200CF063F806232D222A21C9
:103E080025200CF05DF806232D222A212C200CF009
:103E180057F806232D222A2133200CF051F80623C7
:103E28002D222A213A200CF04BF806232D222A2194
:103E380041200CF045F806232D222A2148200CF0B9
:103E48003FF806232D222A214F200CF039F80623AB
:103E580057222A215A200CF033F806232D222A2132
:103E680063200CF02DF806232D22352123200CF099
:103E780027F806232D2235212A200CF021F80623C5
:103E88003A22352131200CF01BF806232D2235214A
:103E980038200CF015F806232D2235213F200CF090
:103EA8000FF806233A22352146200CF009F806239C
:103EB8002D2235214D200CF003F806232D22352123
:103EC80054200BF0FDFF0123184680BDD05100207F
:103ED80080B586B002AF0021AE48FFF7C1FC0346AB
:103EE800082B00F05D81AB4B9B79AB4AA2FB032307
:103EF800DB08FB73A74B9A79A74BA3FB0213D908DE
:103F08000B469B000B445B00D31ABB73A14B5B7938
:103F1800A14AA2FB0323DB087B739E4B5A799E4B75
:103F2800A3FB0213D9080B469B000B445B00D31A72
:103F38003B73984B1B79984AA2FB0323DB08FB725F
:103F4800944B1A79944BA3FB0213D9080B469B0098
:103F58000B445B00D31ABB728E4BDB787B728D4BA4
:103F68009B788D4AA2FB0323DB083B72894B9A7826
:103F7800894BA3FB0213D9080B469B000B445B003B
:103F8800D31AFB71834B5B78834AA2FB0323DB08BC
:103F9800BB71804B5A78804BA3FB0213D9080B46A0
:103FA8009B000B445B00D31A7B717A4B1B787A4ACF
:103FB800A2FB0323DB083B71764B1A78764BA3FBF5
:103FC8000213D9080B469B000B445B00D31AFB7005
:103FD800FA7B0823009301230F211E200BF0D6FF44
:103FE800BA7B0823009301230F2125200BF0CEFF75
:103FF80008232D220F212C200BF062FF7A7B082347
:10400800009301230F2133200BF0C0FF3A7B0823D4
:10401800009301230F213A200BF0B8FF08232D222B
:104028000F2141200BF04CFFFA7A0823009301235B
:104038000F2148200BF0AAFFBA7A08230093012326
:104048000F214F200BF0A2FF082357220F215A20DF
:104058000BF036FF7A7A0823009301230F2163209F
:104068000BF094FF3A7A0823009301231E212320A2
:104078000BF08CFFFA790823009301231E212A20D4
:104088000BF084FF08233A221E2131200BF018FF81
:10409800BA790823009301231E2138200BF076FFFC
:1040A8007A790823009301231E213F200BF06EFF2D
:1040B80008233A221E2146200BF002FF3A790823F2
:1040C800009301231E214D200BF060FFFA7808238E
:1040D800009301231E2154200BF058FF08232D22A2
:1040E800002100200BF0ECFE08232D2200210520E2
:1040F8000BF0E6FE08232D2200210A200BF0E0FE3B
:1041080008232D2200210F200BF0DAFE08232D2290
:10411800002114200BF0D4FE08232D2200211920A1
:104128000BF0CEFE08232D2200211E200BF0C8FE26
:1041380008231A4A002128200BF0FCFE08232D2210
:1041480000215F200BF0BCFE08232D2200216420F3
:104158000BF0B6FE08232D22002169200BF0B0FEDB
:1041680008232D2200216E200BF0AAFE08232D2201
:10417800002173200BF0A4FE08232D2200217820B3
:104188000BF09EFE08232D2200217D200BF098FEC7
:10419800062372E0D0510020CDCCCCCC7897010812
:1041A80008232D220F211E200BF08AFE08232D2222
:1041B8000F2125200BF084FE08232D220F212C200F
:1041C8000BF07EFE08232D220F2133200BF078FE02
:1041D80008232D220F213A200BF072FE08232D22EE
:1041E8000F2141200BF06CFE08232D220F214820BF
:1041F8000BF066FE08232D220F214F200BF060FEE6
:10420800082357220F215A200BF05AFE08232D228B
:104218000F2163200BF054FE08232D221E2123209A
:104228000BF04EFE08232D221E212A200BF048FEFB
:1042380008233A221E2131200BF042FE08232D22AA
:104248001E2138200BF03CFE08232D221E213F2082
:104258000BF036FE08233A221E2146200BF030FED2
:1042680008232D221E214D200BF02AFE08232D2283
:104278001E2154200BF024FE012318461037BD469A
:1042880080BD00BF80B588B002AF3B1D0121184634
:10429800FFF7E6FA0346062B04D08048FCF7D4FD66
:1042A8000023F7E03B1D00211846FFF72BFB0346D0
:1042B800082B00F0EE80BB7A794AA2FB0323DB08C7
:1042C800FB75BA7A764BA3FB0213D9080B469B0001
:1042D8000B445B00D31ABB757B7A714AA2FB03239C
:1042E800DB087B757A7A6E4BA3FB0213D9080B4661
:1042F8009B000B445B00D31A3B753B7A684AA2FBD0
:104308000323DB08FB743A7A654BA3FB0213D90835
:104318000B469B000B445B00D31ABB74FB797B7480
:10432800BB795F4AA2FB0323DB083B74BA795C4B79
:10433800A3FB0213D9080B469B000B445B00D31A5E
:10434800FB737B79564AA2FB0323DB08BB737A799C
:10435800534BA3FB0213D9080B469B000B445B008D
:10436800D31A7B733B794E4AA2FB0323DB083B73CA
:104378003A794B4BA3FB0213D9080B469B000B441D
:104388005B00D31AFB72FA7D0623009301232A21CE
:104398001E200BF0FBFDBA7D0623009301232A2182
:1043A80025200BF0F3FD06232D222A212C200BF0CB
:1043B80087FD7A7D0623009301232A2133200BF001
:1043C800E5FD3A7D0623009301232A213A200BF0CC
:1043D800DDFD06232D222A2141200BF071FDFA7CF8
:1043E8000623009301232A2148200BF0CFFDBA7C35
:1043F8000623009301232A214F200BF0C7FD062333
:1044080057222A215A200BF05BFD7A7C0623009361
:1044180001232A2163200BF0B9FD3A7C062300937F
:104428000123352123200BF0B1FDFA7B06230093ED
:10443800012335212A200BF0A9FD06233A22352134
:1044480031200BF03DFDBA7B062300930123352173
:1044580038200BF09BFD7A7B06230093012335213E
:104468003F200BF093FD06233A22352146200BF01E
:1044780027FD3A7B06230093012335214D200BF0BD
:1044880085FDFA7A062300930123352154200BF089
:104498007DFD012318461837BD4680BD6897010881
:1044A800CDCCCCCC80B588B002AF3B1D00211846DE
:1044B800FFF7D6F90346082B00F0F180BB7AB14A22
:1044C800A2FB0323DB08FB75BA7AAE4BA3FB0213EE
:1044D800D9080B469B000B445B00D31ABB757B7A4B
:1044E800A84AA2FB0323DB087B757A7AA54BA3FBBA
:1044F8000213D9080B469B000B445B00D31A3B758B
:104508003B7AA04AA2FB0323DB08FB743A7A9D4B53
:10451800A3FB0213D9080B469B000B445B00D31A7C
:10452800BB74FB797B74BB79964AA2FB0323DB0837
:104538003B74BA79934BA3FB0213D9080B469B0033
:104548000B445B00D31AFB737B798E4AA2FB0323CF
:10455800DB08BB737A798B4BA3FB0213D9080B4694
:104568009B000B445B00D31A7B733B79854AA2FB03
:104578000323DB083B733A79824BA3FB0213D90868
:104588000B469B000B445B00D31AFB72FA7D082391
:104598000093012308211E200BF0F8FCBA7D0823A4
:1045A80000930123082125200BF0F0FC08232D227D
:1045B80008212C200BF084FC7A7D0823009301232A
:1045C800082133200BF0E2FC3A7D082300930123F5
:1045D80008213A200BF0DAFC08232D22082141207B
:1045E8000BF06EFCFA7C0823009301230821482075
:1045F8000BF0CCFCBA7C08230093012308214F2040
:104608000BF0C4FC0823572208215A200BF058FC51
:104618007A7C082300930123082163200BF0B6FC61
:104628003A7C082300930123162123200BF0AEFCCB
:10463800FA7B08230093012316212A200BF0A6FCFD
:1046480008233A22162131200BF03AFCBA7B0823C2
:1046580000930123162138200BF098FC7A7B08235D
:104668000093012316213F200BF090FC08233A22E7
:10467800162146200BF024FC3A7B082300930123E3
:1046880016214D200BF082FCFA7A082300930123AF
:10469800162154200BF07AFC00F08CFB6DE0082307
:1046A8002D2208211E200BF00BFC08232D220821A7
:1046B80025200BF005FC08232D2208212C200BF0C7
:1046C800FFFB08232D22082133200BF0F9FB0823D8
:1046D8002D2208213A200BF0F3FB08232D22082174
:1046E80041200BF0EDFB08232D22082148200BF078
:1046F800E7FB08232D2208214F200BF0E1FB0823BC
:10470800572208215A200BF0DBFB08232D22082111
:1047180063200BF0D5FB08232D22162123200BF054
:10472800CFFB08232D2216212A200BF0C9FB0823D2
:104738003A22162131200BF0C3FB08232D22162123
:1047480038200BF0BDFB08232D2216213F200BF04B
:10475800B7FB08233A22162146200BF0B1FB0823A9
:104768002D2216214D200BF0ABFB08232D221621FC
:1047780054200BF0A5FB00F0DBFB0123184618378B
:10478800BD4680BDCDCCCCCC80B500AFFFF70EF9CF
:1047980000F032FC00210748FFF762F80346082BB7
:1047A80003D000F049F9062302E000F0FBFC0123E6
:1047B800184680BDD051002080B588B002AF3B1D9F
:1047C80001211846FFF74CF80346062B04D0804811
:1047D800FCF73AFB0023F7E03B1D00211846FFF7E2
:1047E80091F80346082B00F0EE80BB7A794AA2FBC9
:1047F8000323DB08FB75BA7A764BA3FB0213D908AF
:104808000B469B000B445B00D31ABB757B7A714A3D
:10481800A2FB0323DB087B757A7A6E4BA3FB02139A
:10482800D9080B469B000B445B00D31A3B753B7AB7
:10483800684AA2FB0323DB08FB743A7A654BA3FBA7
:104848000213D9080B469B000B445B00D31ABB74B8
:10485800FB797B74BB795F4AA2FB0323DB083B74BB
:10486800BA795C4BA3FB0213D9080B469B000B4497
:104878005B00D31AFB737B79564AA2FB0323DB0840
:10488800BB737A79534BA3FB0213D9080B469B00E1
:104898000B445B00D31A7B733B794E4AA2FB03237C
:1048A800DB083B733A794B4BA3FB0213D9080B4641
:1048B8009B000B445B00D31AFB72FA7D062300931E
:1048C80001232A211E200BF061FBBA7D06230093E9
:1048D80001232A2125200BF059FB06232D222A210A
:1048E8002C200BF0EDFA7A7D0623009301232A2170
:1048F80033200BF04BFB3A7D0623009301232A213A
:104908003A200BF043FB06232D222A2141200BF0ED
:10491800D7FAFA7C0623009301232A2148200BF0BA
:1049280035FBBA7C0623009301232A214F200BF084
:104938002DFB062357222A215A200BF0C1FA7A7C34
:104948000623009301232A2163200BF01FFB3A7CE6
:10495800062300930123352123200BF017FBFA7B54
:1049680006230093012335212A200BF00FFB062391
:104978003A22352131200BF0A3FABA7B06230093A3
:104988000123352138200BF001FB7A7B06230093A5
:10499800012335213F200BF0F9FA06233A2235216D
:1049A80046200BF08DFA3A7B06230093012335212C
:1049B8004D200BF0EBFAFA7A0623009301233521F8
:1049C80054200BF0E3FA012318461837BD4680BD82
:1049D80068970108CDCCCCCC80B584B002AF8223D7
:1049E800FB71F91D002301221820FEF7CEFE064BAD
:1049F800009314230C2228216E200BF00DFC00BF1D
:104A08000837BD4680BD00BF049F010880B582B04D
:104A180000AF0023FB71F91D002301221820FEF7C7
:104A2800B4FE14230C2228216E200BF0DDF900BF00
:104A38000837BD4680BD000080B586B002AF7F4B09
:104A48009B797F4AA2FB0323DB08FB737B4B9A7994
:104A58007B4BA3FB0213D9080B469B000B445B005E
:104A6800D31ABB73754B5B79754AA2FB0323DB082A
:104A78007B73724B5A79724BA3FB0213D9080B460E
:104A88009B000B445B00D31A3B736C4B1B796C4A3D
:104A9800A2FB0323DB08FB72684B1A79684BA3FB64
:104AA8000213D9080B469B000B445B00D31ABB7258
:104AB800624BDB787B72614B9B78614AA2FB0323D4
:104AC800DB083B725D4B9A785D4BA3FB0213D90858
:104AD8000B469B000B445B00D31AFB71574B5B786A
:104AE800574AA2FB0323DB08BB71544B5A78544B3B
:104AF800A3FB0213D9080B469B000B445B00D31A97
:104B08007B714E4B1B784E4AA2FB0323DB083B719B
:104B18004A4B1A784A4BA3FB0213D9080B469B0051
:104B28000B445B00D31AFB70FA7B06230093012326
:104B38002A211E200BF02AFABA7B062300930123B0
:104B48002A2125200BF022FA06232D222A212C20A7
:104B58000BF0B6F97A7B0623009301232A21332030
:104B68000BF014FA3A7B0623009301232A213A20FA
:104B78000BF00CFA06232D222A2141200BF0A0F974
:104B8800FA7A0623009301232A2148200BF0FEF924
:104B9800BA7A0623009301232A214F200BF0F6F955
:104BA800062357222A215A200BF08AF97A7A0623FB
:104BB800009301232A2163200BF0E8F93A7A0623AF
:104BC80000930123352123200BF0E0F9FA7906231D
:104BD8000093012335212A200BF0D8F906233A2225
:104BE800352131200BF06CF9BA79062300930123A3
:104BF800352138200BF0CAF97A790623009301236E
:104C080035213F200BF0C2F906233A2235214620F0
:104C18000BF056F93A7906230093012335214D20EC
:104C28000BF0B4F9FA7806230093012335215420B8
:104C38000BF0ACF900BF1037BD4680BDD051002045
:104C4800CDCCCCCC80B584B004AF00F057FC0120AB
:104C580000F018FB012000F083FB514B1B781A462B
:104C68000623009302232B2124200BF08FF906231F
:104C780043222B2131200BF023F9292131200BF07D
:104C88008DFB0623474A2B2144200BF053F9464B52
:104C9800D3E900230621029102210191012100910B
:104CA8002B215C200BF0B6F9062356222B217A2003
:104CB8000BF006F906233D4A2B2100200BF03AF9A8
:104CC80006232D22002100200BF0FAF806232D22BE
:104CD800002105200BF0F4F806232D2200210A20DC
:104CE8000BF0EEF806232D2200210F200BF0E8F838
:104CF80006232D22002114200BF0E2F806232D2292
:104D0800002119200BF0DCF806232D2200211E209B
:104D18000BF0D6F806232D22002123200BF0D0F823
:104D28000623234A002128200BF004F906232D220C
:104D3800002158200BF0C4F806232D2200215A2008
:104D48000BF0BEF806232D2200215F200BF0B8F8E7
:104D580006232D22002164200BF0B2F806232D2211
:104D6800002169200BF0ACF806232D2200216E20CB
:104D78000BF0A6F806232D22002173200BF0A0F8D3
:104D880006232D22002178200BF09AF806232D22E5
:104D980000217D200BF094F800BFBD4680BD00BF08
:104DA800E051002080970108D85100208897010819
:104DB8009097010880B584B004AF00F06BFC002028
:104DC80000F060FA002000F0CBFA544B1B781A462A
:104DD8000623009302232B2124200BF0D7F8062367
:104DE80043222B2131200BF06BF8292131200BF0C5
:104DF800D5FA06234A4A2B2144200BF09BF8494B4D
:104E0800D3E9002306210291022101910121009199
:104E18002B215C200BF0FEF8062356222B217A204A
:104E28000BF04EF80623404A2B2100200BF082F8A5
:104E380006232D22002100200BF042F806232D2204
:104E4800002105200BF03CF806232D2200210A2022
:104E58000BF036F806232D2200210F200BF030F836
:104E680006232D22002114200BF02AF806232D22D8
:104E7800002119200BF024F806232D2200211E20E2
:104E88000BF01EF806232D22002123200BF018F822
:104E98000623264A002128200BF04CF806232D2251
:104EA800002153200BF00CF806232D220021582056
:104EB8000BF006F806232D2200215A200BF000F8EB
:104EC80006232D2200215F200AF0FAFF06232D2257
:104ED800002164200AF0F4FF06232D220021692016
:104EE8000AF0EEFF06232D2200216E200AF0E8FFCB
:104EF80006232D22002173200AF0E2FF06232D222B
:104F0800002178200AF0DCFF06232D2200217D20D5
:104F18000AF0D6FF00BFBD4680BD00BFE0510020AB
:104F280080970108D85100208897010878970108D0
:104F380080B500AF06232C4A2B2124200AF0FAFF63
:104F4800062343222B2131200AF0BAFF29213120E0
:104F58000BF024FA0623254A2B215C200AF0EAFFED
:104F6800062356222B217A200AF0AAFF0623204A7C
:104F78002B2100200AF0DEFF06231E4A2B214420A5
:104F88000AF0D8FF0623184A372111200AF0D2FF69
:104F98000623154A37211F200AF0CCFF0623124AA0
:104FA80037212D200AF0C6FF06230F4A37213C205F
:104FB8000AF0C0FF06230C4A37214A200AF0BAFF3C
:104FC8000623094A372158200AF0B4FF0623064A67
:104FD800372166200AF0AEFF0623034A37217420E2
:104FE8000AF0A8FF00BF80BD9C970108A0970108A0
:104FF800889701088097010880B500AF06232D2205
:10500800002100200AF05CFF06232D220021052044
:105018000AF056FF06232D2200210A200AF050FF2D
:1050280006232D2200210F200AF04AFF06232D22F5
:10503800002114200AF044FF06232D220021192004
:105048000AF03EFF06232D2200211E200AF038FF19
:1050580006232D22002123200AF032FF06234E4A80
:10506800002128200AF066FF06232D22002158205F
:105078000AF026FF06232D2200215A200AF020FFDD
:1050880006232D2200215F200AF01AFF06232D2275
:10509800002164200AF014FF06232D220021692034
:1050A8000AF00EFF06232D2200216E200AF008FFC9
:1050B80006232D22002173200AF002FF06232D2249
:1050C800002178200AF0FCFE06232D2200217D20F5
:1050D8000AF0F6FE06232D22202100200AF0F0FE19
:1050E80006232D2220210A200AF0EAFE06232D227B
:1050F800202114200AF0E4FE06232D2220211E2060
:105108000AF0DEFE06232D22202128200AF0D8FEF0
:1051180006232D22202132200AF0D2FE06232D223A
:1051280020213C200AF0CCFE06232D2220214620F7
:105138000AF0C6FE06232D22202150200AF0C0FEC8
:1051480006232D2220215A200AF0BAFE06232D22FA
:10515800202164200AF0B4FE06232D2220216E208F
:105168000AF0AEFE06232D22202178200AF0A8FEA0
:1051780006232D2220217D200AF0A2FE0623074ABD
:10518800292100200AF0D6FE0623054A33210520EE
:105198000AF0D0FE00BF80BD90970108A8970108CB
:1051A800B097010880B500AF06232D222A211E20C2
:1051B8000AF086FE06232D222A2125200AF080FEE9
:1051C80006232D222A212C200AF07AFE06232D22DE
:1051D8002A2133200AF074FE06232D222A213A20A0
:1051E8000AF06EFE06232D222A2141200AF068FECD
:1051F80006232D222A2148200AF062FE06232D22AA
:105208002A214F200AF05CFE062357222A215A2021
:105218000AF056FE06232D222A2163200AF050FEAA
:1052280006232D22352123200AF04AFE06232D22AB
:1052380035212A200AF044FE06233A22352131205E
:105248000AF03EFE06232D22352138200AF038FECA
:1052580006232D2235213F200AF032FE06233A226A
:10526800352146200AF02CFE06232D2235214D201B
:105278000AF026FE06232D22352154200AF020FEAE
:1052880000BF80BD80B584B000AF0346FB71052325
:10529800FB73FB791846FEF797FA0346062B01D0F5
:1052A800052356E0FB7910221721642000F013FE35
:1052B8000346022B01D005234BE0FB791846FEF785
:1052C800A9FA0346062B3DD0052342E001200AF047
:1052D8009BFBFB791946172000F0AFFD034603F04E
:1052E8002003002B2ED1FB791946162000F0A5FDCE
:1052F8000346BB7397F90E30002B17DABB7B5B4272
:10530800BB73164ABB7B1370144B1B781846FEF709
:1053180005FA124B1B785B42DAB2104B1A7006235F
:105328002D222B211E200AF0CBFD0BE0BB7B03F0C6
:105338007F03BB73094ABB7B1370084B1B78184665
:10534800FEF7ECF9FB7B5A1EFA73002BBED1034B18
:105358001B7818461037BD4680BD00BFE0510020BD
:1053680080B584B000AF0346FB710523FB73FB795E
:105378001846FEF729FA0346062B03D04FF0000221
:10538800304B5AE0FB7910221921642000F0A3FD6C
:105398000346022B03D04FF000022A4B4DE0FB7965
:1053A8001846FEF737FA0346062B3ED04FF00002A8
:1053B800244B42E001200AF027FBFB7919461A200A
:1053C80000F03BFD0346BB73FB7919461B2000F038
:1053D80034FD03467B73BB7BDB09DBB21A461346FD
:1053E8001B029A1A7B7B13441846FBF77DF802468A
:1053F8000B461549C1E90023134BD3E900014FF0CF
:105408000002124BFBF704FA02460B460E49C1E9AB
:1054180000230D4BD3E9002310461946FBF7A6FBE2
:105428000346DBB21846FEF779F9FB7B5A1EFA737E
:10543800002BBFD1044BD3E900231046194610377F
:10544800BD4680BD00001440D851002000005940DE
:1054580080B584B000AF78600B46FB700523FB7302
:105468001023BB73FB781846FEF7AEF90346062BEC
:1054780001D0082326E0FB7807F10E01012219204C
:10548800FEF783F90346062B01D007231AE0FB78C1
:105498001846FEF7BFF90346062B0CD0082311E087
:1054A80001200AF0B1FAFB78022279681A20FEF787
:1054B8004DF9012306E000BFFB7B5A1EFA73002B4F
:1054C800EED1002318461037BD4680BD80B584B0A4
:1054D80002AF78600B46FB70FB78009308237A686C
:1054E8007221642000F045FD0346022B01D00523FC
:1054F80000E0012318460837BD4680BD80B586B058
:1055080002AF3B4601211846FFF7E0FF3B781B0935
:10551800DBB21A46920013445B00DAB23B7803F020
:105528000F03DBB21344FB737B781B09DBB21A460B
:10553800920013445B00DAB27B7803F00F03DBB20E
:105548001344BB73BB781B09DBB21A4692001344A1
:105558005B00DAB2BB7803F00F03DBB213447B7352
:10556800FB781B09DBB21A46920013445B00DAB2DF
:10557800FB7803F00F03DBB213443B733B791B0941
:10558800DBB21A46920013445B00DAB23B7903F0AF
:105598000F03DBB21344FB727B791B09DBB21A469B
:1055A800920013445B00DAB27B7903F00F03DBB29D
:1055B8001344BB72BB791B09DBB21A469200134431
:1055C8005B00DAB2BB7903F00F03DBB213447B72E2
:1055D800FB791B09DBB21A46920013445B00DAB26E
:1055E800FB7903F00F03DBB213443B720623274A0F
:1055F800372100200AF09EFC0623254A37210C207B
:105608000AF098FCFA7B0623009302233721112025
:105618000AF0BCFCBA7B06230093022337211F2023
:105628000AF0B4FC7A7B06230093022337212D204D
:105638000AF0ACFC3A7B06230093022337213C2076
:105648000AF0A4FCFA7A06230093022337214A20A1
:105658000AF09CFCBA7A06230093022337215820CB
:105668000AF094FC7A7A06230093022337216620F5
:105678000AF08CFC3A7A062300930223372174201F
:105688000AF084FC00BF1037BD4680BDF8970108BA
:10569800FC97010880B586B002AF3B46002118464A
:1056A800FFF714FF3B781B09DBB21A46920013443C
:1056B8005B00DAB23B7803F00F03DBB21344FB73F1
:1056C8007B781B09DBB21A46920013445B00DAB2FE
:1056D8007B7803F00F03DBB21344BB73BB781B0961
:1056E800DBB21A46920013445B00DAB2BB7803F0CF
:1056F8000F03DBB213447B73FB781B09DBB21A463A
:10570800920013445B00DAB2FB7803F00F03DBB2BC
:1057180013443B733B791B09DBB21A4692001344CE
:105728005B00DAB23B7903F00F03DBB21344FB7280
:105738007B791B09DBB21A46920013445B00DAB28C
:105748007B7903F00F03DBB21344BB72BB791B09EF
:10575800DBB21A46920013445B00DAB2BB7903F05D
:105768000F03DBB213447B72FB791B09DBB21A46C9
:10577800920013445B00DAB2FB7903F00F03DBB24B
:1057880013443B720623274A372100200AF0D2FB34
:105798000623254A37210C200AF0CCFBFA7B062386
:1057A80000930223372111200AF0F0FBBA7B06236D
:1057B8000093022337211F200AF0E8FB7A7B062397
:1057C8000093022337212D200AF0E0FB3A7B0623C1
:1057D8000093022337213C200AF0D8FBFA7A0623EB
:1057E8000093022337214A200AF0D0FBBA7A062315
:1057F80000930223372158200AF0C8FB7A7A06233F
:1058080000930223372166200AF0C0FB3A7A062368
:1058180000930223372174200AF0B8FB00BF103729
:10582800BD4680BDF8970108FC97010880B582B095
:1058380000AF396011461A460346FB710B46BB712F
:1058480013467B717B79BA79F8793968FDF77EFF61
:10585800034618460837BD4680BD80B582B000AF04
:10586800396011461A460346FB710B46BB71134655
:105878007B717B791846FDF7A7FF0346062B01D0FD
:10588800082314E07B79BA79F8793968FDF77DFF48
:105898000346062B01D0072309E07B791846FDF75C
:1058A800B9FF0346062B01D0082300E00123184660
:1058B8000837BD4680BD80B582B000AF78600B4622
:1058C800FB70FB78082279687220FDF73FFF0346DA
:1058D800062B01D0072300E0012318460837BD46F0
:1058E80080BD000080B483B000AF0346FB71FB7934
:1058F800032B1BD801A252F823F000BF155900084A
:105908001D590008255900082D5900080A4B802206
:105918001A610CE0094B04221A6108E0084B802246
:105928001A6104E0044B80221A6100E000BF00BF46
:105938000C37BD4680BC7047000C01400018014080
:105948000010014080B483B000AF0346FB71FB79BF
:10595800032B1BD801A252F823F000BF7559000889
:105968007D590008855900088D5900080A4B802286
:105978005A610CE0094B04225A6108E0084B802266
:105988005A6104E0044B80225A6100E000BF00BF66
:105998000C37BD4680BC7047000C01400018014020
:1059A8000010014080B483B000AF0346FB71FB795F
:1059B800032B1BD801A252F823F000BFD5590008C9
:1059C800DD590008E5590008ED5900080A4B402246
:1059D8001A610CE0094B08221A6108E0084B4022C2
:1059E8001A6104E0044B40221A6100E000BF00BFC6
:1059F8000C37BD4680BC7047000C014000180140C0
:105A08000010014080B483B000AF0346FB71FB79FE
:105A1800032B1BD801A252F823F000BF355A000807
:105A28003D5A0008455A00084D5A00080A4B4022C2
:105A38005A610CE0094B08225A6108E0084B4022E1
:105A48005A6104E0044B40225A6100E000BF00BFE5
:105A58000C37BD4680BC7047000C0140001801405F
:105A68000010014080B483B000AF0346FB71FB799E
:105A7800032B33D801A252F823F000BF955A00082F
:105A8800A95A0008BD5A0008D15A0008174B9B684C
:105A980003F08003002B01D0012321E000231FE045
:105AA800134B9B6803F00403002B01D0012317E07C
:105AB800002315E00F4B9B6803F08003002B01D0F7
:105AC80001230DE000230BE0084B9B6803F08003E3
