:020000040800F2
:1000000000000120E5120008750B0008810B0008B4
:10001000870B00088D0B0008930B00080000000000
:10002000000000000000000000000000990B000824
:10003000A50B000800000000B10B0008BD0B000874
:100040002D1300082D1300082D1300082D13000890
:100050002D1300082D1300082D1300082D13000880
:100060002D1300082D1300082D1300082D13000870
:100070002D1300082D1300082D1300082D13000860
:100080002D1300082D1300082D1300082D13000850
:100090002D1300082D1300082D1300082D13000840
:1000A0002D1300082D1300082D1300082D13000830
:1000B0002D1300082D1300082D1300082D13000820
:1000C0002D1300082D1300082D1300082D13000810
:1000D0002D1300082D1300082D1300082D13000800
:1000E0002D1300082D1300082D1300082D130008F0
:1000F0002D1300082D1300082D1300082D130008E0
:100100002D1300082D1300082D1300082D130008CF
:100110002D1300082D1300082D1300082D130008BF
:100120002D1300082D1300082D1300082D130008AF
:1001300000000000000000000000000000000000BF
:1001400000000000000000000000000000000000AF
:10015000000000000000000000000000000000009F
:10016000000000000000000000000000000000008F
:10017000000000000000000000000000000000007F
:10018000000000000000000000000000000000006F
:10019000000000000000000000000000000000005F
:1001A000000000000000000000000000000000004F
:1001B000000000000000000000000000000000003F
:1001C000000000000000000000000000000000002F
:1001D000000000000000000000000000000000001F
:0401E0005FF8E0F1F3
:1001E80010B5054C237833B9044B13B10448AFF369
:1001F80000800123237010BDE401002000000000EE
:10020800E401000808B5034B1BB103490348AFF3E9
:10021800008008BD00000000E8010020E40100089B
:10022800034613F8012B002AFBD1181A013870472E
:1002380081F0004102E000BF83F0004330B54FEA8F
:1002480041044FEA430594EA050F08BF90EA020FFC
:100258001FBF54EA000C55EA020C7FEA645C7FEA8F
:10026800655C00F0E2804FEA5454D4EB5555B8BFB2
:100278006D420CDD2C4480EA020281EA030382EA23
:10028800000083EA010180EA020281EA0303362DB5
:1002980088BF30BD11F0004F4FEA01314FF4801C88
:1002A8004CEA113102D0404261EB410113F0004F9A
:1002B8004FEA03334CEA133302D0524263EB430351
:1002C80094EA050F00F0A780A4F10104D5F1200EEF
:1002D8000DDB02FA0EFC22FA05F2801841F100014A
:1002E80003FA0EF2801843FA05F359410EE0A5F11E
:1002F80020050EF1200E012A03FA0EFC28BF4CF04F
:10030800020C43FA05F3C01851EBE37101F0004504
:1003180007D54FF0000EDCF1000C7EEB00006EEB11
:100328000101B1F5801F1BD3B1F5001F0CD349089B
:100338005FEA30004FEA3C0C04F101044FEA4452F2
:1003480012F5800F80F09A80BCF1004F08BF5FEA79
:10035800500C50F1000041EB045141EA050130BD59
:100368005FEA4C0C404141EB0101013C28BFB1F56B
:10037800801FE9D291F0000F04BF01460020B1FAB6
:1003880081F308BF2033A3F10B03B3F120020CDA89
:100398000C3208DD02F1140CC2F10C0201FA0CF067
:1003A80021FA02F10CE002F11402D8BFC2F1200CCC
:1003B80001FA02F120FA0CFCDCBF41EA0C01904082
:1003C800E41AA2BF01EB0451294330BD6FEA0404CB
:1003D8001F3C1CDA0C340EDC04F11404C4F12002B6
:1003E80020FA04F001FA02F340EA030021FA04F3C8
:1003F80045EA030130BDC4F10C04C4F1200220FA1F
:1004080002F001FA04F340EA0300294630BD21FA5C
:1004180004F0294630BD94F0000F83F4801306BF22
:1004280081F480110134013D4EE77FEA645C18BF16
:100438007FEA655C29D094EA050F08BF90EA020FAD
:1004480005D054EA000C04BF1946104630BD91EAA5
:10045800030F1EBF0021002030BD5FEA545C05D1A8
:100468004000494128BF41F0004130BD14F58004E7
:100478003CBF01F5801130BD01F0004545F0FE415B
:1004880041F470014FF0000030BD7FEA645C1ABF90
:10049800194610467FEA655C1CBF0B46024650EAC7
:1004A800013406BF52EA033591EA030F41F40021F3
:1004B80030BD00BF90F0000F04BF0021704730B579
:1004C8004FF4806404F132044FF000054FF000014E
:1004D80050E700BF90F0000F04BF0021704730B50F
:1004E8004FF4806404F1320410F0004548BF4042E4
:1004F8004FF000013EE700BF42004FEAE2014FEA39
:1005080031014FEA02701FBF12F07F4393F07F4F13
:1005180081F06051704732F07F4208BF704793F016
:100528007F4F04BF41F40021704730B54FF4607429
:1005380001F0004521F000411CE700BF50EA01022C
:1005480008BF704730B54FF000050AE050EA0102D5
:1005580008BF704730B511F0004502D5404261EB45
:1005680041014FF4806404F132045FEA915C3FF486
:10057800D8AE4FF003025FEADC0C18BF03325FEA23
:10058800DC0C18BF033202EBDC02C2F1200300FAD4
:1005980003FC20FA02F001FA03FE40EA0E0021FAF9
:1005A80002F11444BDE600BF70B54FF0FF0C4CF4E7
:1005B800E06C1CEA11541DBF1CEA135594EA0C0F99
:1005C80095EA0C0F00F0DEF82C4481EA030621EAD4
:1005D8004C5123EA4C5350EA013518BF52EA03350F
:1005E80041F4801143F4801338D0A0FB02CE4FF0C1
:1005F8000005E1FB02E506F00042E0FB03E54FF0F1
:100608000006E1FB03569CF0000F18BF4EF0010EE8
:10061800A4F1FF04B6F5007F64F5407404D25FEAE4
:100628004E0E6D4146EB060642EAC62141EA555197
:100638004FEAC52040EA5E504FEACE2EB4F1FD0CD9
:1006480088BFBCF5E06F1ED8BEF1004F08BF5FEA57
:10065800500E50F1000041EB045170BD06F0004609
:1006680046EA010140EA020081EA0301B4EB5C04B6
:10067800C2BFD4EB0C0541EA045170BD41F48011AE
:100688004FF0000E013C00F3AB8014F1360FDEBFD3
:10069800002001F0004170BDC4F10004203C35DAAF
:1006A8000C341BDC04F11404C4F1200500FA05F332
:1006B80020FA04F001FA05F240EA020001F00042D3
:1006C80021F0004110EBD37021FA04F642EB060149
:1006D8005EEA430E08BF20EAD37070BDC4F10C0473
:1006E800C4F1200500FA04F320FA05F001FA04F237
:1006F80040EA020001F0004110EBD37041F1000123
:100708005EEA430E08BF20EAD37070BDC4F120052D
:1007180000FA05F24EEA020E20FA04F301FA05F295
:1007280043EA020321FA04F001F0004121FA04F23D
:1007380020EA020000EBD3705EEA430E08BF20EA0D
:10074800D37070BD94F0000F0FD101F00046400047
:1007580041EB010111F4801F08BF013CF7D041EAC9
:10076800060195F0000F18BF704703F000465200CD
:1007780043EB030313F4801F08BF013DF7D043EA9E
:100788000603704794EA0C0F0CEA135518BF95EA54
:100798000C0F0CD050EA410618BF52EA4306D1D1DB
:1007A80081EA030101F000414FF0000070BD50EAFA
:1007B800410606BF1046194652EA430619D094EA84
:1007C8000C0F02D150EA013613D195EA0C0F05D16E
:1007D80052EA03361CBF104619460AD181EA0301C2
:1007E80001F0004141F0FE4141F470014FF000007A
:1007F80070BD41F0FE4141F4780170BD70B54FF015
:10080800FF0C4CF4E06C1CEA11541DBF1CEA135594
:1008180094EA0C0F95EA0C0F00F0A7F8A4EB050476
:1008280081EA030E52EA03354FEA013100F088806D
:100838004FEA03334FF0805545EA131343EA126336
:100848004FEA022245EA111545EA10654FEA0026EB
:100858000EF000419D4208BF964244F1FD0404F5A4
:10086800407402D25B084FEA3202B61A65EB030500
:100878005B084FEA32024FF480104FF4002CB6EBBD
:10088800020E75EB030E22BFB61A754640EA0C003D
:100898005B084FEA3202B6EB020E75EB030E22BF7D
:1008A800B61A754640EA5C005B084FEA3202B6EBBE
:1008B800020E75EB030E22BFB61A754640EA9C007D
:1008C8005B084FEA3202B6EB020E75EB030E22BF4D
:1008D800B61A754640EADC0055EA060E18D04FEA0B
:1008E800051545EA16754FEA06164FEAC30343EAAB
:1008F80052734FEAC2025FEA1C1CC0D111F4801F78
:100908000BD141EA00014FF000004FF0004CB6E770
:1009180011F4801F04BF01430020B4F1FD0C88BF0F
:10092800BCF5E06F3FF6AFAEB5EB030C04BFB6EB1A
:10093800020C5FEA500C50F1000041EB045170BD0D
:100948000EF0004E4EEA113114EB5C04C2BFD4EB3A
:100958000C0541EA045170BD41F480114FF0000EBE
:10096800013C90E645EA060E8DE60CEA135594EA3A
:100978000C0F08BF95EA0C0F3FF43BAF94EA0C0F3D
:100988000AD150EA01347FF434AF95EA0C0F7FF4B2
:1009980025AF104619462CE795EA0C0F06D152EA06
:1009A80003353FF4FDAE1046194622E750EA4106EA
:1009B80018BF52EA43067FF4C5AE50EA41047FF4FB
:1009C8000DAF52EA43057FF4EBAE12E74FF0FF3C60
:1009D80006E000BF4FF0010C02E000BF4FF0010C31
:1009E8004DF804CD4FEA410C7FEA6C5C4FEA430CAA
:1009F80018BF7FEA6C5C1BD001B050EA410C0CBFF9
:100A080052EA430C91EA030F02BF90EA020F00205A
:100A1800704710F1000F91EA030F58BF994208BFC1
:100A280090422CBFD8176FEAE37040F0010070477E
:100A38004FEA410C7FEA6C5C02D150EA013C07D1D5
:100A48004FEA430C7FEA6C5CD6D152EA033CD3D020
:100A58005DF8040B704700BF8446104662468C461A
:100A68001946634600E000BF01B5FFF7B7FF00284D
:100A780048BF10F1000F01BD4DF808EDFFF7F4FF76
:100A88000CBF012000205DF808FB00BF4DF808ED01
:100A9800FFF7EAFF34BF012000205DF808FB00BF24
:100AA8004DF808EDFFF7E0FF94BF012000205DF846
:100AB80008FB00BF4DF808EDFFF7CEFF94BF0120FB
:100AC80000205DF808FB00BF4DF808EDFFF7C4FFF4
:100AD80034BF012000205DF808FB00BF4FEA410C3D
:100AE8007FEA6C5C02D150EA013C0AD14FEA430C20
:100AF8007FEA6C5C02D152EA033C02D14FF000005D
:100B080070474FF0010070474FEA410212F500129A
:100B180015D211D56FF47873B3EB625212D94FEA3C
:100B2800C12343F0004343EA505311F0004F23FA26
:100B380002F018BF404270474FF00000704750EA7B
:100B4800013005D111F0004008BF6FF00040704738
:100B58004FF00000704700BF80B500AF00F030F8DC
:100B6800014801F0DBF8FEE71C3F000880B400AF45
:100B780000BFBD4680BC704780B400AFFEE780B4BC
:100B880000AFFEE780B400AFFEE780B400AFFEE739
:100B980080B400AF00BFBD4680BC704780B400AFD2
:100BA80000BFBD4680BC704780B400AF00BFBD46E3
:100BB80080BC704780B400AF00BFBD4680BC7047A2
:100BC80080B586B000AF0121042000F08FFA012122
:100BD8004FF4804000F08AFA4FF40073BB82182368
:100BE800FB750323BB7507F114031946134800F07E
:100BF8000BF94FF48063BB820423FB7507F11403E0
:100C080019460E4800F000F94FF4E1337B600023E9
:100C18003B8100237B810023BB8100233B820C2383
:100C2800FB813B1D1946064800F07EFA0121044865
:100C380000F034FB00BF1837BD4680BD00080140F6
:100C48000038014080B487B000AFF860B9607A60BE
:100C580000237B6111E000BF0D4B1B889BB203F0A2
:100C68004003002BF8D07B69BA6813441A78084B04
:100C780092B29A807B6901337B617A697B689A4278
:100C8800E9DB7B6818461C37BD4680BC704700BF4F
:100C98000038014080B500AF154B1B68144A43F07B
:100CA80001031360124B5A681149124B13404B60F1
:100CB8000F4B1B680E4A23F0847323F480331360B0
:100CC8000B4B1B680A4A23F480231360084B5B68AC
:100CD800074A23F4FE035360054B4FF41F029A6042
:100CE80000F00CF8044B4FF000629A6000BF80BD22
:100CF800001002400000FFF800ED00E080B500AFF2
:100D080000F002F800BF80BD80B483B000AF0023BC
:100D18007B6000233B603A4B1B68394A43F48033BD
:100D28001360374B1B6803F400333B607B68013367
:100D38007B603B68002B03D17B68B3F5A06FF0D1D3
:100D48002F4B1B6803F40033002B02D001233B60B8
:100D580001E000233B603B68012B4BD1294B1B680A
:100D6800284A43F010031360264B1B68254A23F0DA
:100D780003031360234B1B68224A43F002031360EA
:100D88001F4B1F4A5B6853601D4B1D4A5B685360CD
:100D98001B4B5B681A4A43F480635360184B5B68CB
:100DA800174A23F47C135360154B5B68144A43F4C9
:100DB800E8135360124B1B68114A43F080731360A9
:100DC80000BF0F4B1B6803F00073002BF9D00C4BCE
:100DD8005B680B4A23F003035360094B5B68084ABE
:100DE80043F00203536000BF054B5B6803F00C033C
:100DF800082BF9D100BF0C37BD4680BC704700BF37
:100E0800001002400020024080B489B000AF786032
:100E180039600023FB6100233B610023BB61002391
:100E2800FB6000237B610023BB603B68DB7803F039
:100E38000F03FB613B68DB7803F01003002B05D040
:100E48003B689B781A46FB691343FB613B681B8828
:100E5800DBB2002B44D07B681B687B610023BB613D
:100E680038E00122BB6902FA03F3FB603B681B8888
:100E78001A46FB6813403B613A69FB689A4226D1DF
:100E8800BB699B00FB600F22FB6802FA03F3BB609F
:100E9800BB68DB437A6913407B61FA69FB6802FA35
:100EA80003F37A6913437B613B68DB78282B05D110
:100EB8000122BB699A407B685A6108E03B68DB788D
:100EC800482B04D10122BB699A407B681A61BB692F
:100ED8000133BB61BB69072BC3D97B687A691A6088
:100EE8003B681B88FF2B46D97B685B687B610023C6
:100EF800BB613AE0BB690833012202FA03F3FB60E5
:100F08003B681B881A46FB6813403B613A69FB68DB
:100F18009A4227D1BB699B00FB600F22FB6802FA4B
:100F280003F3BB60BB68DB437A6913407B61FA69F2
:100F3800FB6802FA03F37A6913437B613B68DB7849
:100F4800282B05D1BB69083301229A407B685A6176
:100F58003B68DB78482B05D1BB69083301229A40EE
:100F68007B681A61BB690133BB61BB69072BC1D9B7
:100F78007B687A695A6000BF2437BD4680BC7047D9
:100F880080B487B000AF786000237B6100233B61A9
:100F98000023FB600023BB604F4B5B6803F00C032E
:100FA8007B617B69082B11D07B69082B3AD87B6958
:100FB800002B03D07B69042B04D033E07B68474ABD
:100FC8001A6033E07B68454A1A602FE0424B5B6841
:100FD80003F470133B61404B5B6803F48033FB60A0
:100FE8003B699B0C02333B61FB68002B06D13B69D4
:100FF8003B4A03FB02F27B681A6017E0364B5B68DA
:1010080003F40033002B06D03B69354A03FB02F298
:101018007B681A600AE03B69304A03FB02F27B688E
:101028001A6003E07B682D4A1A6000BF2A4B5B6890
:1010380003F0F0037B617B691B097B61294A7B69AB
:1010480013441B78DBB2BB607B681A68BB68DA4064
:101058007B685A60204B5B6803F4E0637B617B69C3
:101068001B0A7B611F4A7B6913441B78DBB2BB6098
:101078007B685A68BB68DA407B689A60164B5B6885
:1010880003F460537B617B69DB0A7B61154A7B69EA
:1010980013441B78DBB2BB607B685A68BB68DA40D4
:1010A8007B68DA600C4B5B6803F440437B617B69C7
:1010B8009B0B7B610C4A7B6913441B78DBB2BB60DA
:1010C8007B68DA68BB68B2FBF3F27B681A6100BF21
:1010D8001C37BD4680BC70470010024000127A00E1
:1010E80000093D00000000201000002080B483B0FB
:1010F80000AF78600B46FB70FB78002B06D0094BDD
:101108009A6908497B6813438B6106E0054B9A6925
:101118007B68DB43034913408B6100BF0C37BD4636
:1011280080BC70470010024080B58CB000AF78607A
:1011380039600023FB620023BB6200237B6200232B
:101148003B620023FB617B68FB617B681B8A9BB267
:10115800FB62FA6A4CF6FF731340FB623B68DB885C
:101168001A46FB6A1343FB62FB6A9AB27B681A82CF
:101178007B689B899BB2FB62FA6A4EF6F3131340B5
:10118800FB623B689A883B681B8913439AB23B68A9
:101198005B8913439BB21A46FB6A1343FB62FB6AE3
:1011A8009AB27B689A817B689B8A9BB2FB62FA6AD7
:1011B8004FF6FF431340FB623B689B891A46FB6A64
:1011C8001343FB62FB6A9AB27B689A8207F10803B1
:1011D8001846FFF7D5FEFB692E4A934202D17B6978
:1011E800BB6201E03B69BB627B689B899BB21BB217
:1011F800002B0CDABA6A13469B0013449A001A446F
:101208003B681B685B00B2FBF3F37B620BE0BA6AD6
:1012180013469B0013449A001A443B681B689B00C2
:10122800B2FBF3F37B627B6A1B4AA2FB03235B09D5
:101238001B01FB62FB6A1B09642202FB03F37A6A47
:10124800D31A3B627B689B899BB21BB2002B0CDADA
:101258003B6ADB003233104AA2FB03235B0903F02D
:101268000703FA6A1343FB620BE03B6A1B01323344
:10127800094AA2FB03235B0903F00F03FA6A13432D
:10128800FB62FB6A9AB27B681A8100BF3037BD46A1
:1012980080BD00BF003801401F85EB5180B483B08A
:1012A80000AF78600B46FB70FB78002B08D07B689A
:1012B8009B899BB243F400539AB27B689A8107E0FA
:1012C8007B689B899BB223F400539AB27B689A810E
:1012D80000BF0C37BD4680BC70470000002103E00A
:1012E8000B4B5B58435004310A480B4B42189A4247
:1012F800F6D30A4A02E0002342F8043B084B9A421C
:10130800F9D3FFF7C7FC00F00FF8FFF725FC70478B
:101318006C43000800000020E4010020E4010020E4
:1013280014020020FEE7000070B500260C4D0D4C9D
:10133800641BA410A64209D103F004F800260A4D44
:101348000A4C641BA410A64205D170BD55F8043B95
:1013580098470136EEE755F8043B98470136F2E71F
:1013680064430008644300086443000868430008B5
:1013780003460244934200D1704703F8011BF9E782
:10138800002B2DE9F0471F46BBBF03F100431F4662
:1013980000232D2388B01446129A109D1370149BB5
:1013A800DDF84CA023F02008B8F1460F05D0B8F1BD
:1013B800450F00D10135022300E0032307AA049258
:1013C80006AACDE902A2CDE9003522463B4600F047
:1013D800FBFDB8F1470F064602D1119BDB0722D56A
:1013E800B8F1460F06EB050910D13378302B0AD136
:1013F8000022002320463946FFF73EFB18B9C5F105
:101408000105CAF80050DAF8003099440022002398
:1014180020463946FFF730FB08B1CDF81C90302242
:10142800079B4B4507D33046079B159A9B1B1360B8
:1014380008B0BDE8F087591C07911A70F0E7034619
:10144800F7B5002903F8022BB6BF2D222B224942FB
:10145800092942702BDD0DF10704A4460A2791FBE8
:10146800F7F60A46A64607FB1615632A05F1300566
:10147800314604F1FF340EF8015CF0DC3031AEF196
:10148800020504F8011C2946441C61450AD30DF1E4
:101498000902A2EB0E02654588BF00221344181A00
:1014A80003B0F0BD11F8012B04F8012FEDE730234C
:1014B80030318370C170031DF1E700002DE9F04F52
:1014C80091B00C46DDF8688016461F46054601F0C7
:1014D8001DFD036818460993FEF7A2FE00230E932C
:1014E800D8F800300A90073323F0070303F1080205
:1014F80094F81890D4F800B0C8F80020D3E9002375
:10150800C4E91223D4E9128A2AF000430B934FF05E
:10151800FF3240469C4B0B99FFF7E0FA70BB4FF047
:10152800FF324046984B0B99FFF7BAFA30BB0022BE
:10153800002340465146FFF7A9FA10B12D2384F83D
:101548004330924B9248B9F1470F94BF9846804672
:1015580003234FF0000A23612BF004032360334672
:101568002146284600970FAA00F0D4F9013040F030
:1015780090804FF0FF3011B0BDE8F08F42465346DF
:1015880040465146FFF7AAFA48B1BAF1000FB8BF72
:101598002D238048B8BF84F843307F4BD3E7636876
:1015A80009F0DF015A1C42D106236360002206922B
:1015B8000EAACDE904920DAA4BF4806303920DF1B3
:1015C8003302CDE90132236063684246009328461E
:1015D80053460B91FFF7D4FE0B99804647290D9986
:1015E80008D1C81C02DB6368994240DDA9F10209F1
:1015F8005FFA89F9B9F1650F1FD84A46013904F134
:1016080050000D91FFF71BFF0E9A82461318012A0E
:10161800236102DC2268D20701D5013323619DF8DA
:101628003330002B9BD02D2384F8433097E747298C
:10163800BCD1002BBAD10123B7E7B9F1660F18D195
:10164800002963680BDD216113B92268D00702D530
:1016580001330B4423614FF0000AA165DFE713B99A
:101668002268D20701D50233F4E70123F2E74FF0ED
:1016780067090E9B994205DB23682161D807EAD5E3
:101688004B1CE7E70029CCBF0122C1F10202134439
:10169800E0E723685A0507D42369424631462846BD
:1016A800B84701302BD164E7B9F1650F40F2DD800E
:1016B800D4E9120100220023FFF7DEF9002833D015
:1016C800012331462846354AB84701303FF451AF27
:1016D800DDE90D239A4202DB2368D8070FD5DDE93F
:1016E800092331462846B84701303FF442AF4FF04E
:1016F800000804F11A090E9B013B434509DC2368E5
:101708009B0700F10281E0680F9B9842B8BF18461A
:1017180031E701234A4631462846B84701303FF4AD
:1017280028AF08F10108E6E70D9B002B38DC012300
:1017380031462846194AB84701303FF41AAFDDE967
:101748000D23134302D12368D907D8D5DDE909232E
:1017580031462846B84701303FF40BAF4FF0000937
:1017680004F11A0A0D9B5B424B4501DC0E9B94E782
:101778000123524631462846B84701303FF4F9AEB6
:1017880009F10109EEE700BFFFFFEF7F2C3F0008DA
:10179800303F0008383F0008343F00083C3F00084D
:1017A8000E9AA36D9A42A8BF1A46002A914637DCC2
:1017B8004FF0000B29EAE97904F11A02D4F858A08D
:1017C800AAEB09035B4533DCDDE90D239A423BDBD9
:1017D8002368DA0738D40E9B0D99A3EB0A02A3EB12
:1017E80001099145A8BF9146B9F1000F34DC4FF0CB
:1017F800000829EAE97904F11A0ADDE90D239B1AA0
:10180800A3EB090343457FF77AAF012352463146DC
:101818002846B84701303FF4ACAE08F10108ECE7C0
:101828001346314642462846B8470130C0D1A0E6A3
:101838000123314628460B92B84701303FF499AE50
:101848000B9A0BF1010BB9E73146DDE9092328466C
:10185800B8470130BFD18CE64B463146284608EBE5
:101868000A02B8470130C2D183E60E9A012A01DC88
:10187800DB0737D50123424631462846B8470130B1
:101888003FF477AEDDE9092331462846B8470130F1
:101898003FF46FAED4E9120100220023FFF7ECF801
:1018A800D8B90E9B08F10102013B31462846B847DA
:1018B80001300ED15DE601234A4631462846B84735
:1018C80001303FF456AE08F101080E9B013B434539
:1018D800F1DC534604F15002E0E64FF0000804F151
:1018E8001A09F2E701234246DFE701234A46314657
:1018F8002846B84701303FF43CAE08F10108E368D8
:101908000F995B1A4345F0DCFDE64FF0000804F13F
:101918001909F4E72DE9F047164699468A680B69D4
:1019280007469342B8BF1346336091F843200C46EC
:10193800DDF820800AB1013333602368990642BF7D
:10194800336802333360256815F0060506D104F1C3
:10195800190AE36832689B1AAB4228DC94F84320E2
:10196800131E226818BF012392062DD44946384613
:1019780004F14302C047013020D02368E56803F032
:101988000603042B18BF002532684FF00006A36831
:1019980008BFAD1A226908BF25EAE5759342C4BF9E
:1019A8009B1AED181A34B5421AD1002008E0012319
:1019B800524649463846C047013003D14FF0FF3000
:1019C800BDE8F0870135C4E73020E11881F843000D
:1019D8005A1C94F845102244023382F84310C5E794
:1019E8000123224649463846C0470130E6D0013631
:1019F800D9E700002DE9FF470F7E9146782F8046F2
:101A08000C469A460C9D01F1430207D8622F0AD86A
:101A1800002F00F0D980582F00F0A48004F142056F
:101A280084F842703AE0A7F16303152BF6D801A1B8
:101A380051F823F0951A0008A91A0008251A000879
:101A4800251A0008251A0008251A0008A91A0008EE
:101A5800251A0008251A0008251A0008251A000862
:101A6800B71B0008D91A0008991B0008251A000896
:101A7800251A0008D91B0008251A0008D91A0008D9
:101A8800251A0008251A0008A11B00082B681A1D32
:101A98001B682A6004F1420584F842300123A4E05F
:101AA80020682968060601F104030AD50E682B6030
:101AB800002E03DA2D23764284F843300A235E4849
:101AC80019E00E6810F0400F2B6018BF36B2EFE730
:101AD8002B682068191D2960010601D51E6802E0DF
:101AE8004606FBD51E886F2F0CBF08230A235248D1
:101AF800002184F843106568002DA8BF2168A560FF
:101B0800A4BF21F0040121600EB9002D4DD0154667
:101B1800B6FBF3F103FB1167C75D05F8017D374696
:101B2800BB420E46F4D9082B0BD12368DE0708D533
:101B3800236961689942DEBF302305F8013C05F14D
:101B4800FF35521B22614B4621464046CDF800A086
:101B580003AAFFF7DFFE01304CD14FF0FF3004B08D
:101B6800BDE8F087344881F845702968236851F842
:101B7800046B29601D0614D5DF0744BF43F020031A
:101B880023601EB9236823F0200323601023AFE7E6
:101B9800236843F0200323607823284884F84530DD
:101BA800E3E7590648BFB6B2E6E71546BBE72B6838
:101BB8002668181D6169286035061B6801D51960FB
:101BC80002E07006FBD51980002315462361BAE7A9
:101BD8002B6800211A1D2A601D686268284601F0DA
:101BE80009FA08B1401B606063682361002384F828
:101BF8004330A8E72A46494640462369D047013082
:101C0800ABD023689B0713D4E068039B9842B8BF06
:101C18001846A4E70123324649464046D0470130DA
:101C28009BD00135E36803995B1AAB42F2DCEBE722
:101C3800002504F11906F5E73E3F00084F3F00086C
:101C480070B50E46054618B183690BB901F0C0F8A6
:101C5800AB69AC6813B9284601F0BAF82C4B9C4222
:101C680020D16C68636EDB0705D4A389980502D47C
:101C7800A06D01F050F9A38919071DD52369DBB1BF
:101C8800013EA36816F8011F013BA36039BB002B76
:101C980038DA22460A21284600F048F8013011D0E7
:101CA8000A2511E01B4B9C4201D1AC68DAE71A4BBC
:101CB8009C4208BFEC68D5E72146284600F088F822
:101CC8000028DDD04FF0FF35636EDA0705D4A3890D
:101CD8009B0502D4A06D01F01FF9284670BD002BAA
:101CE80004DAA2699A4206DC0A2904D023685A1C3D
:101CF80022601970C5E72246284600F017F801301F
:101D0800BFD1DFE70A2523685A1C22601D70DBE774
:101D1800344000085440000814400008024B0146B3
:101D28001868FFF78DBF00BF14000020F8B50E46F5
:101D38001446054618B183690BB901F049F8214BDF
:101D48009C422BD16C68A369A360A3891A072FD57D
:101D580023696BB323692068F6B2C01A63693746F2
:101D6800834204DC2146284600F09EFF30BBA3686E
:101D78000130013BA36023685A1C22601E7063690E
:101D8800834204D0A389DB0706D50A2E04D1214655
:101D9800284600F089FF88B93846F8BD0A4B9C42AE
:101DA80001D1AC68CFE7094B9C4208BFEC68CAE791
:101DB8002146284600F00CF80028CBD04FF0FF371A
:101DC800EAE700BF34400008544000081440000807
:101DD800324B70B51D6806460C4625B1AB6913B980
:101DE800284600F0F5FF2E4B9C420FD16C68A38962
:101DF800B4F90C2019072CD4DD0611D4092333605B
:101E080042F040034FF0FF30A3813EE0254B9C4257
:101E180001D1AC68EBE7244B9C4208BFEC68E6E7CD
:101E2800580712D5616B41B104F14403994202D0BD
:101E3800304601F091FC00236363A38923F0240357
:101E4800A3810023636023692360A38943F0080307
:101E5800A38123694BB9A38903F42073B3F5007FE9
:101E680003D02146304601F07DF8A089B4F90C2052
:101E780010F001030AD00023A36063695B42A361E9
:101E8800236943B910F08000BAD170BD810758BFEB
:101E98006369A360F4E70020F7E700BF140000209F
:101EA8003440000854400008144000082DE9F74F5A
:101EB80003690C690746A342C0F28280013C00F125
:101EC800140501F1140805EB8403019358F8243034
:101ED80055F8242001339A42B2FBF3F64FEA840BFB
:101EE80008EB840931D34FF0000E4046AC46F24669
:101EF80050F8042B93B206FB03E3120C4FEA134E7F
:101F08009BB206FB02E2AAEB0303DCF800A04FEA4F
:101F1800124E1FFA8AFA5344DCF800A092B2C2EBC0
:101F28001A4202EB23429BB243EA024381454FEA3D
:101F3800224A4CF8043BDBD255F80B302BB9019BF5
:101F4800043B9D421A462FD33C61384601F0ECFA17
:101F5800002825DB28464FF0000C013658F8041BF2
:101F6800D0F800E08BB2ACEB03031FFA8EF21344F7
:101F78000A0CC2EB1E4202EB23429BB243EA024325
:101F8800C1454FEA224C40F8043BE7D255F82420DB
:101F980005EB840322B9043B9D421A460AD33C61EF
:101FA800304603B0BDE8F08F1268043B002ACBD15D
:101FB800013CC6E71268043B002AF0D1013CEBE77C
:101FC8000020EEE7000000002DE9F04F16461F46FE
:101FD800446A99B00546CDE90467DDF8948074B980
:101FE800102000F0FFFF0246686220B9EA21A84BE2
:101FF800A84801F0F3FCC0E901440460C4606B6ABE
:10200800196851B15A68012393404A608B60284689
:1020180001F04CF800226B6A1A603B1EAFBF002328
:10202800012223F000430593A8BFC8F80030DDF86B
:102038001490994BB8BFC8F8002033EA090319D1A6
:1020480042F20F73249A1360C9F31303334300F069
:102058007F85269B53B9914B22E0914B039308331C
:10206800269A1360039819B0BDE8F08F8B4B039341
:102078000333F5E7DDE90434CDE90C34DDE90C017F
:1020880000220023FEF7F8FC804658B10123249A69
:102098001360269B002B00F0588582481860431E69
:1020A8000393DFE716AB019317AB00932846DDE9EE
:1020B8000C2301F0E1FAC9F30A548346002C7FD0BF
:1020C800DDE90C010D9BA4F2FF34C3F3130343F0C5
:1020D8007F5141F44011CDF84C800022724BFEF73D
:1020E800ABF865A3D3E90023FEF75EFA64A3D3E94E
:1020F8000023FEF7A3F8064620460F46FEF7EAF946
:1021080061A3D3E90023FEF74FFA02460B46304697
:102118003946FEF793F806460F46FEF7F5FC00220F
:102128008246002330463946FEF7B0FC48B1504697
:10213800FEF7D0F932463B46FEF79EFC08B90AF195
:10214800FF3ABAF1160F58D8DDE90C01574B03EBEB
:10215800CA03D3E90023FEF799FC00284FD00023D7
:102168000AF1FF3A0F93169B1C1B631E099349BF84
:10217800C4F1010300230693002354BF0693099377
:10218800BAF1000F3DDB099BCDF838A05344099301
:1021980000230A93229B092B00F28C80052BC4BFD5
:1021A800043B2293229BC8BF0024A3F10203D8BF9B
:1021B8000124032B00F28A80DFE803F02D4F4D5BEA
:1021C800DDE916431C4404F23243202BC3BFC3F19C
:1021D800400304F2124009FA03F3C3F12003C6BF17
:1021E80026FA00F0184306FA03F0FEF763F9012314
:1021F800A1F1F871013C13936FE70123B2E70F9047
:10220800B1E7069BA3EB0A030693CAF100030A93FE
:1022180000230E93BEE700230B93239B002B58DC6F
:102228004FF001094B46CDF82090CDF88C90002254
:10223800686A4260042202F114069E4241684ED93F
:10224800284600F0F3FE039000284CD102464FF4D4
:10225800D571174BCCE60123DEE700230B93239BB4
:102268000AEB030909F10103012B0893B8BF012305
:10227800DDE70123F2E700BF61436F63A787D23F21
:10228800B3C8608B288AC63FFB799F501344D33F5D
:102298006D3F0008843F00080000F07F693F000898
:1022A800603F00083D3F00080000F83F204100085B
:1022B80002400008012400230B9422934FF0FF39B9
:1022C80000221223CDF820902392B0E701230B932C
:1022D800F4E7DDF88C904B46CDF82090A7E7013164
:1022E80041605200A7E76B6A039A1A60089B0E2B9D
:1022F80000F2A880002C00F0A580BAF1000F34DDB0
:102308009A4A0AF00F0302EBC3031AF4807FD3E959
:102318000034CDE910344FEA2A1416D0DDE90C0157
:10232800934B0327D3E90823FEF768FACDE90401A4
:1023380004F00F048E4E54B9DDE91023DDE90401E1
:10234800FEF75CFACDE9040129E00227F2E7E1078C
:1023580008D5DDE91001D6E90023FEF725F9CDE916
:102368001001013764100836E5E700F0A580DDE9C3
:102378000C01CAF100047D4B04F00F0203EBC20309
:10238800D3E90023FEF710F902270023CDE9040161
:10239800774E2411002C40F08480002BD2D10F9B63
:1023A800002B00F08B80DDE90434CDE91034DDE941
:1023B800100100226F4BFEF769FB00287ED0089BB6
:1023C800002B7BD0B9F1000F38DDDDE910010022C8
:1023D800694BFEF7E9F84C46CDE904010AF1FF38EC
:1023E80001373846FEF776F8DDE90423FEF7DCF816
:1023F8000022624BFDF722FFA1F15076CDE91001D2
:102408001196002C5DD1DDE9040100225C4BFDF73B
:1024180013FF02460B46CDE904233346109AFEF714
:1024280053FB002840F09C82DDE90401109A06F174
:102438000043FEF72BFB002840F09082DDE90C34C6
:10244800CDE90434179B002BC0F25281BAF10E0F6C
:1024580000F34E81454B03EBCA03D3E90034CDE9C1
:102468000634239B002B80F2DB80089B002B00F3B3
:10247800D78040F07282DDE906010022404BFEF76A
:1024880093F8DDE90423FEF715FB089C264600288F
:1024980040F048823123039F0AF1010A07F8013B03
:1024A80044E2E20705D5D6E90023FEF77DF80123CB
:1024B8000137641008366DE7022770E7D046089C9C
:1024C8008FE70399294B214412910B9903EBC4031D
:1024D800DDE9106753E90223002955D00020294976
:1024E800FEF78CF93B463246FDF7A6FECDE9100112
:1024F800039FDDE90401FEF707FB0446FDF7EAFF49
:1025080002460B46DDE90401FDF796FE02460B463E
:102518003034CDE90423DDE9102307F8014BFEF739
:10252800B5FA002874D1DDE9042300201149FDF72C
:1025380083FEDDE91023FEF7A9FA002840F0B780F2
:10254800129B9F423FF47AAFDDE9100100220A4B4B
:10255800FEF72AF80022CDE91001DDE90401064B57
:10256800FEF722F8CDE90401C3E700BF20410008C7
:10257800F84000080000F03F0000244000001C4024
:10258800000014400000E03F30463946FEF70CF8E2
:10259800129BCDE91001039C1493DDE90401FEF7B9
:1025A800B3FA1590FDF796FF02460B46DDE90401E4
:1025B800FDF742FE159B0646303304F8013B129B9B
:1025C8000F469C424FF0000224D1DDE91001B04BC8
:1025D800FDF734FE02460B4630463946FEF774FADC
:1025E800002863D1DDE910230020A949FDF724FE66
:1025F80002460B4630463946FEF748FA00283FF4B3
:102608001DAF149F7B1E149317F8013C302BF8D094
:10261800C2463BE09F4BFDF7C7FFCDE90401BCE78D
:10262800039FDDE90489DDE9062340464946FEF7B4
:10263800E5F8FEF769FA0446FDF74CFFDDE90623E5
:10264800FDF7B2FF02460B4640464946FDF7F4FD4A
:1026580004F1300607F8016B039EDDF820C0BE1BAD
:10266800B44502460B4636D1FDF7E8FDDDE9062301
:1026780080468946FEF728FA58BBDDE9062340461E
:102688004946FEF7F9F908B1E10722D42846594628
:1026980000F00CFD00233B70249B0AF10100186038
:1026A800269B002B3FF4DEAC1F60DBE427463B464D
:1026B8001F4613F8012D392A07D1039A9A42F7D1F8
:1026C8003022039908F101080A701A7801321A7049
:1026D8009EE7D046EBE700226E4BFDF765FF002230
:1026E800002380468946FEF7C7F900289BD0CDE72E
:1026F8000B9A002A00F0D080229A012A00F3AE80BB
:10270800139A002A00F0A68003F233430A9C069F1E
:10271800069A01211A440692099A28461A440992EF
:1027280000F07AFD0646002F0CDD099B002B09DD21
:10273800BB42A8BF3B46069AFF1AD21A0692099ACC
:10274800D31A09930A9BF3B10B9B002B00F0A880C6
:10275800002C10DD31462246284600F01BFE5A4662
:1027680001460646284600F06DFD80465946284633
:1027780000F09CFCC3460A9B1A1B04D05946284605
:1027880000F008FE83460121284600F045FD0E9B17
:102798000446002B40F386801A460146284600F07E
:1027A800F9FD229B0446012B7FDD4FF000082369C9
:1027B80004EB8303186900F0E1FCC0F12000099BD9
:1027C800184410F01F0000F09280C0F12003042B81
:1027D80040F38A80C0F11C00069B0744034406931B
:1027E800099B03440993069B002B05DD59461A46AD
:1027F800284600F029FE8346099B002B05DD21466B
:102808001A46284600F020FE04460F9B002B70D085
:102818002146584600F088FE00286ADA0023594607
:102828000A22284600F064FC0B9B83460AF1FF3A13
:10283800002B00F09481314600230A22284600F03C
:1028480057FCB9F1000F064600F39380229B022B38
:1028580057DC8EE0169BC3F1360357E7089B5C1ED6
:102868000A9BA342B7BF0A9B1C1BE21A0E9BBEBF62
:102878000A949B180E93089BB8BF0024002BBBBF7B
:10288800069B089A069F9F1AACBF089B00233FE748
:102898000000E03F000024400A9C069F0B9E42E790
:1028A8000A9A6BE7229B012B19DC049BBBB9059B99
:1028B800C3F313039BB9059B23F000431B0D1B05B2
:1028C80083B14FF00108069B01330693099B01333E
:1028D80009930E9B002B7FF46AAF01206FE74FF03E
:1028E8000008F6E79846F4E73FF47DAF18461C3039
:1028F80072E7089B002B36DC229B022B33DDDDF8C8
:102908002090B9F1000F0DD121464B4605222846EB
:1029180000F0EEFB01460446584600F005FE00288C
:102928003FF7B8AD239B039F6FEA030A4FF00008F7
:102938002146284600F0BAFB002E3FF4A7AEB8F1B6
:10294800000F05D0B04503D04146284600F0AEFB45
:102958003146284600F0AAFB98E600242646E1E71F
:10296800C246264696E50B9BDDF82090002B00F02A
:10297800FD80002F05DD31463A46284600F064FD0B
:102988000646B8F1000F5CD02846716800F04EFB8F
:10299800074628B9024640F2EA217F4BFFF728BBD9
:1029A800326906F10C01023292000C3000F030FB63
:1029B80001223946284600F047FDB0460646039BEB
:1029C80001330893039B4B440A93049B03F00103D0
:1029D8000993089B2146013B58460493FFF766FA82
:1029E800034641463033069058460B9300F09CFD51
:1029F800324681462146284600F0B2FDC2680746A5
:102A08000B9B02BB0146584600F08EFD02460B9B0D
:102A180039462846CDE90B3200F048FB229B0C9A38
:102A2800089F43EA0201099B0B430B9B0DD1392BED
:102A380029D0B9F1000F01DD069B3133049A1370D8
:102A480076E73046B9E70122E2E7B9F1000F06DB85
:102A5800229941EA0909099959EA010120D1002A74
:102A6800ECDD594601222846089300F0EDFC21468A
:102A7800834600F059FD0028089B02DCDED1DA0706
:102A8800DCD5392BD8D13923049A13703B461F461D
:102A980017F8012C013B392A50D001321A7047E748
:102AA800002A03DD392BEED00133C7E7089A0A99CB
:102AB80002F8013C8A422AD0594600230A222846B5
:102AC80000F016FBB04583464FF000034FF00A02B2
:102AD8004146284607D100F00BFB80460646089B76
:102AE8000133089375E700F003FB31468046002365
:102AF8000A22284600F0FCFA0646F0E7B9F1000F72
:102B0800CCBF4F4601274FF00008039A1744594697
:102B180001222846089300F097FC2146834600F0DE
:102B280003FD0028B2DC02D1089BDB07AED43B468C
:102B38001F4613F8012D302AFAD0F9E6039A9A4273
:102B4800A5D131230AF1010A79E7144BFFF7A8BA96
:102B5800269B002B7FF481AA114BFFF7A1BAB9F18C
:102B6800000F03DC229B022B3FF7CBAE039F2146CD
:102B78005846FFF79BF9039A00F1300307F8013B29
:102B8800BA1A9145BADD594600230A22284600F0B0
:102B9800AFFA8346EBE700BF024000083C3F00085D
:102BA800603F00088A89F8B5054610070C4657D4D7
:102BB8004B68002B04DC0B6C002B01DC0020F8BDFB
:102BC800E66A002EFAD0002312F480522F682B6098
:102BD80032D0606DA3895A0705D56368C01A636B44
:102BE8000BB1236CC01A00230246E66A2846216A04
:102BF800B047431CA38906D129681D292CD8294A26
:102C0800CA40D60728D5002262602269D90422600A
:102C180004D5421C01D12B6803B96065616B2F6034
:102C28000029CBD004F14403994202D0284600F091
:102C380093FD00206063C2E7216A01232846B0475C
:102C4800411CC7D12B68002BC4D01D2B01D0162BDB
:102C580001D12F60B2E7A38943F04003A381AEE717
:102C68000F69002FAAD0930718BF00230E6808BF6A
:102C78004B69F61B0F608B60002E9FDD33463A468A
:102C88002846216AD4F828C0E047002806DCA38932
:102C98004FF0FF3043F04003A38190E70744361A12
:102CA800EAE700BF0100402038B50B6905460C462D
:102CB80013B90025284638BD18B183690BB900F04F
:102CC80087F8144B9C421BD16C68B4F90C30002B6C
:102CD800EFD0626ED00704D4990502D4A06D00F03D
:102CE8001AF928462146FFF75DFF636E0546DA07A5
:102CF800E0D4A3899B05DDD4A06D00F00DF9D9E7D8
:102D0800054B9C4201D1AC68DFE7044B9C4208BFED
:102D1800EC68DAE734400008544000081440000822
:102D2800002310B50446C0E90033C0E904338360CA
:102D380081814366C2818361194608225C30FEF7AF
:102D480017FB054B24626362044BA362044BE362E6
:102D5800044B236310BD00BF393900085B390008F4
:102D680093390008B7390008014900F0AFB800BF2F
:102D7800B12C0008682270B54D1E55430E4605F16A
:102D8800740100F051FD044640B10021C0E900166D
:102D98000C30A06005F16802FEF7EAFA204670BD23
:102DA800014800F0B8B800BF01020020014800F057
:102DB800B3B800BF01020020014800F0ACB800BF62
:102DC80002020020014800F0A7B800BF020200205C
:102DD80010B50446FFF7F0FFA3691BB1BDE810402A
:102DE800FFF7F0BFC4E912332365134B134A1B687E
:102DF800A262A34208BF0123204608BFA36100F0D6
:102E08001FF86060204600F01BF8A060204600F024
:102E180017F800220421E0606068FFF781FF0122B3
:102E28000921A068FFF77CFF02221221E068FFF762
:102E380077FF0123A361D1E7283F0008712D00081F
:102E4800F8B50746FFF7ACFF1E4B1E68B36913B908
:102E58003046FFF7BDFF4836D6E90134013B03D5BC
:102E680033680BB33668F7E7B4F90C50D5B9164B8D
:102E780004F15800E360656600F04CF8FFF796FF30
:102E880008222946C4E90155C4E904552560A5610D
:102E980004F15C00FEF76CFAC4E90D55C4E912555B
:102EA8002046F8BD6834D9E704213846FFF762FFA9
:102EB800044630600028D5D1FFF778FF0C233B602B
:102EC800EEE700BF283F00080100FFFF2DE9F843A7
:102ED80006468846002700F14804D4E90195B9F16F
:102EE800010905D52468002CF7D13846BDE8F883D8
:102EF800AB89012B07D9B5F90E30013303D0294628
:102F08003046C04707436835E9E700000048704786
:102F18006801002070477047704770B50E46B1F9D8
:102F28000E10144600291D4696B008DA0022B6F99C
:102F38000C302A601A0610D44FF480630EE06A46FB
:102F480000F08CFD0028F1DB019A02F47042A2F532
:102F580000535A425A412A60EEE74023002023607A
:102F680016B070BD8B8973B59D0706460C4607D50C
:102F780004F14703236023610123636102B070BD3C
:102F88006A4601ABFFF7C9FF00990546304600F0D5
:102F98004BFC48B9B4F90C309A05EFD423F003037D
:102FA80043F00203A381E3E70D4BB362A3892060DA
:102FB80043F08003A381009B20616361019B5BB1A7
:102FC8003046B4F90E1000F05BFD28B1A38923F058
:102FD800030343F00103A381A0890543A581CDE73D
:102FE800712D0008024B0146186800F01DBC00BF97
:102FF80014000020034610B5C9B202449342184693
:1030080001D1002003E0047801338C42F6D110BDD1
:103018000A44914200F1FF3300D1704710B511F80E
:10302800014B914203F8014FF9D110BD70B5466AC2
:1030380004460D4676B91020FFF7D4FF02466062B9
:1030480020B96621174B184800F0C8FCC0E9016692
:103058000660C660666AF36883B1636ADB6853F822
:103068002500B8B9012101FA05F6721D2046920023
:1030780000F05EFB60B1C0E901560EE02122042198
:10308800204600F055FB636AF060DB68002BE4D152
:10309800002070BD026843F825200023C0E90333EF
:1030A800F7E700BF6D3F00087440000870B5466A36
:1030B80005460C4676B91020FFF794FF0246686271
:1030C80020B98A21084B094800F088FCC0E901664C
:1030D8000660C6603CB16B6A6268DB6853F8221010
:1030E800216043F8224070BD6D3F0008744000081D
:1030F8002DE9F04107460C461E4600200D6901F1F6
:10310800140CDCF80030013099B202FB01611E0C8E
:103118000B0C02FB063389B201EB034185424FEAEF
:1031280013464CF8041BECDC0EB3A368AB4219DC65
:10313800616838460131FFF779FF804628B90246B1
:10314800B5210C4B0C4800F049FC226904F10C0134
:10315800023292000C30FFF75BFF21463846FFF73A
:10316800A5FF444604EB850301355E6125612046D1
:10317800BDE8F0810240000874400008020C120407
:103188000346CAB90304102013F07F4F04BF1B0283
:10319800083013F0704F04BF1B01043013F0404F88
:1031A80004BF9B000230002B05DB13F0804F00F1B9
:1031B800010008BF202070470020E5E703680246A9
:1031C80013F007000BD0D90721D4980749BF5B0833
:1031D8009B08012013605CBF02201360704799B2FE
:1031E80009B910201B0CD9B209B908301B0A1907F4
:1031F80004BF1B090430990704BF9B080230D90794
:1032080003D45B0800F1010003D01360704700206D
:10321800704720207047000010B50C460121FFF7C9
:1032280005FF024628B94FF4A071044B044800F08A
:10323800D5FB01234461036110BD00BF02400008B3
:10324800744000082DE9F04F91460A69D9F810300A
:103258000C469A42BEBF0B464C4699462769D9F898
:1032680010A0A368616807EB0A06B34285B0B8BF2F
:103278000131FFF7DBFE30B9024640F25D11434BE6
:10328800434800F0ABFB00F114052B46002205EB88
:103298008608434521D304F1140303EB870709F19A
:1032A800140303EB8A0202923A1B153A22F0030236
:1032B800043204F115018F4238BF04220192029AA8
:1032C80003939A420CD8002E03DD58F8043D002BD6
:1032D80059D0066105B0BDE8F08F43F8042BD8E754
:1032E800B3F800A0BAF1000F23D0A9464FF0000CA4
:1032F80004F1140E5EF8042BD9F800101FFA82FBB3
:1033080089B20AFB0B116144D9F800C0120C4FEACC
:103318001C4C0AFB02C202EB114289B241EA02418B
:1033280077454FEA124C49F8041BE3D8019A45F84F
:1033380002C0039A0433B2F80290B9F1000F20D00A
:10334800AE464FF0000A296804F1140CBCF800B02E
:10335800BEF8022089B209FB0B22924441EA0A41D5
:103368004EF8041B5CF8042BBEF80010120C09FB85
:103378000211674501EB1A414FEA114AE6D8019A52
:10338800A95004359BE7013E9DE700BF02400008B5
:10339800744000082DE9F843154612F0030206466A
:1033A8000F4607D0254C013A002354F82220FFF796
:1033B8009FFE0746AD103DD0746A7CB91020FFF718
:1033C80011FE0246706228B94FF4D7711C4B1D4894
:1033D80000F004FBC0E901440460C460D6F824800E
:1033E800D8F808404CB940F271213046FFF714FF75
:1033F80000230446C8F8080003604FF00009EB07F3
:103408000AD5394622463046FFF71CFF8046394622
:103418003046FFF74BFE47466D100BD0206838B991
:10342800224621463046FFF70DFF2060C0F8009085
:103438000446E4E73846BDE8F88300BFE8410008E1
:103448006D3F0008744000082DE9F0470C46074618
:1034580091462369496803EB6218A3684FEA621A28
:1034680008F10106B3420BDB3846FFF7DFFD0546DE
:1034780048B9024640F2D911294B2A4800F0AEFA61
:1034880001315B00EEE7002300F1140100F11002A6
:103498001846534537DB20692AEAEA7A04F114030F
:1034A80019F01F0901EB8A0103EB80002FD08A462F
:1034B8004FF0000CC9F1200E1A6802FA09F242EA2C
:1034C8000C024AF8042B53F8042B984222FA0EFCFB
:1034D800F2D8031B153B23F00303043304F1150250
:1034E800904238BF042341F803C0BCF1000F01D05B
:1034F80008F10206013E384621462E61FFF7D6FD47
:103508002846BDE8F08742F8040F0133C1E70439C3
:1035180053F8042B984241F8042FF9D8EAE700BF82
:10352800024000087440000803460A69006930B583
:10353800801A0DD11433143103EB820401EB82019C
:1035480054F8045D51F8042D954202D004D30120AB
:1035580030BDA342F4D3FBE74FF0FF30F8E700009B
:103568002DE9F84F0D460746114628461446FFF741
:10357800DBFF061E11D131463846FFF757FD0246DC
:1035880028B940F232213A4B3A4800F027FA012391
:10359800C0E904361046BDE8F88FA4BF23462C4680
:1035A80038466168A6BF1D4600260126FFF73EFD86
:1035B800024618B94FF410712D4BE5E702F11408D3
:1035C800C2464FF0000C2769C6602E6904F114004A
:1035D80005F1140900EB870E09EB8606103454F840
:1035E80004BF59F8043B1FFA8BF18C4499B21B0CA9
:1035F800ACEB0101C3EB1B4303EB214389B24FEA58
:10360800234C4E4541EA03434AF8043BE7D8731B71
:10361800153B23F0030315350433AE4238BF0423AA
:10362800184443441E46054675450ED30EF1030162
:10363800091A21F003010338864538BF00211944CF
:1036480051F8043D8BB11761A4E755F8048B1FFAB4
:1036580088F161440C1404EB184489B241EA04412E
:103668004FEA244C46F8041BDEE7013FE8E700BFB9
:1036780002400008744000082DE9F3410121DDE90A
:10368800087690461D46FFF7D1FC044630B902463D
:1036980040F20A31244B254800F0A0F9C5F3130382
:1036A800C5F30A552DBB0193B8F1000326D068462F
:1036B8000093FFF783FD0099F0B1019AC0F1200350
:1036C80002FA03F30B43C24063610192019B002B92
:1036D80014BF02210121A3612161C5B1A5F23345BF
:1036E8000544C0F135003D603060204602B0BDE8B9
:1036F800F08143F48013D6E76161E7E701A8FFF79B
:103708005DFD0121019B216163612030E5E704EB48
:103718008103A0F2324038601869FFF72FFDC0EB33
:1037280041113160E1E700BF024000087440000821
:1037380070B5A1FB025434B9294600F075F8064665
:1037480028B9304670BD0C2200260260F9E72A46E7
:103758002146FDF70DFEF4E738B50546002940D0AF
:1037680051F8043C0C1F002BB8BFE41800F0BCF95A
:103778001C4A136833B9636014602846BDE83840B2
:1037880000F0B8B9A34208D9206821188B4201BFBC
:1037980019685B6809182160EDE71A465B680BB188
:1037A800A342FAD911685018A0420BD120680144ED
:1037B800501883421160E0D118685B6801441160B9
:1037C8005360DAE702D90C232B60D6E7206821186A
:1037D8008B4201BF19685B680918216063605460F7
:1037E800CBE738BD0402002070B50E4E0C46316898
:1037F800054611B900F08CF830602146284600F0E3
:1038080087F8431C0AD0C41C24F00304A04207D044
:10381800211A284600F07CF8013001D14FF0FF341E
:10382800204670BD080200202DE9F041CD1C25F08E
:10383800030508350C2D38BF0C25002D074601DB84
:10384800A94205D90C2300263B603046BDE8F0812B
:103858002E4E00F049F933681C4634BB29463846D9
:10386800FFF7C2FF431C04464DD134682646002E9C
:1038780040D123683146384604EB030800F048F885
:1038880080453AD1216803356D1A25F003050835BE
:103898000C2D38BF0C2538462946FFF7A5FF013007
:1038A8002BD023682B4423600EE02268521B1ED4C1
:1038B8000B2A16D96119A342256018BF596063689D
:1038C80008BF316062514B60384604F10B0600F0C6
:1038D80011F926F00706231DF21AB6D09B1BA35038
:1038E800B3E76268A3420CBF32605A60ECE7234634
:1038F8006468B2E734467668B9E70C2338463B601B
:1039080000F0F8F8A1E72560DEE700BF0402002018
:1039180038B50023054D044608462B6000F0EAFA46
:10392800431C02D12B6803B1236038BD0C02002070
:1039380010B50C46B1F90E1000F03AFA0028ABBFEA
:10394800636DA3891B1823F48053ACBF6365A381FF
:1039580010BD2DE9F0411F468B890546DB050C4655
:10396800164605D502230022B1F90E1000F098F88A
:10397800A389324623F48053A38128463B46B4F9F1
:103988000E10BDE8F04100F017B810B50C46B1F9BB
:103998000E1000F085F8431CA38915BF606523F459
:1039A800805343F48053A38118BFA38110BDB1F99C
:1039B8000E1000F031B8000038B50446084611462C
:1039C8000022054D2A601A46FDF73CF9431C02D136
:1039D8002B6803B1236038BD0C0200201FB51446C4
:1039E8001A46094B05461B68D8684CB1074BCDE908
:1039F800013400912B46064900F01EF800F0F7F953
:103A0800044B1C46F3E700BF14000020F4410008F3
:103A1800014200082F42000838B50023054D04462E
:103A280008462B6000F02EFA431C02D12B6803B124
:103A3800236038BD0C0200200EB403B5014603AB69
:103A4800054853F8042B0068019300F081F802B090
:103A58005DF804EB03B070471400002038B500236C
:103A6800064D0446084611462B6000F013FA431C25
:103A780002D12B6803B1236038BD00BF0C020020BF
:103A880038B50023054D044608462B6000F012FAAD
:103A9800431C02D12B6803B1236038BD0C020020FF
:103AA80038B50446084611460022054D2A601A46D4
:103AB80000F010FA431C02D12B6803B1236038BD13
:103AC8000C02002082B001B901A942B14BB11378B0
:103AD8000B601278101E18BF012002B07047104604
:103AE800FBE76FF00100F8E70148FFF714BA00BFE1
:103AF800000200200148FFF70FBA00BF00020020B3
:103B0800936810B4013B002B936007DA9469A342D1
:103B180001DB0A2902D110BCFEF708B91368581C4A
:103B280010601970084610BC7047F8B506460F4675
:103B38001446D518AC4201D1002007E03A46304679
:103B480014F8011BFFF7DCFF431CF3D1F8BD00009C
:103B58002DE9F04F0D461446984606469DB018B11B
:103B680083690BB9FFF734F9894B9D421BD17568FE
:103B78006B6ED90705D4AB899A0502D4A86DFFF7F7
:103B8800CAF9AB891B0701D52B69EBB92946304621
:103B9800FEF71EF9C0B16B6EDC070ED54FF0FF3093
:103BA8001DB0BDE8F08F7B4B9D4201D1B568DFE7C2
:103BB800794B9D4208BFF568DAE7AB899805EDD4E3
:103BC800A86DFFF7A9F9E9E70023099320238DF8E9
:103BD800293030234FF00109CDF80C80DFF8BC8183
:103BE8008DF82A3023469A4613F8012B0AB1252A64
:103BF800F9D1BAEB040B0BD05B4622462946304676
:103C0800FFF793FF013000F0AA80099A5A440992FD
:103C18009AF80030002B00F0A28000234FF0FF320A
:103C2800CDE905230AF1010A049307938DF853306F
:103C38001A935446052214F8011B5848FFF7DAF97D
:103C4800049AD8B9D10644BF20238DF853301307FE
:103C580044BF2B238DF853309AF800302A2B15D007
:103C6800544600204FF00A0C079A214611F8013BF0
:103C7800303B092B4ED9B0B1079214E0A0EB0803F2
:103C880009FA03F31343A2460493D2E7039B191DD1
:103C98001B680391002BBBBF5B4242F002020793F3
:103CA8000793B8BF049223782E2B0CD163782A2B64
:103CB80035D1039B02341A1D1B680392002BB8BF31
:103CC8004FF0FF330593DFF8D8A003225046217840
:103CD800FFF790F940B14023A0EB0A0003FA00F087
:103CE800049B01340343049314F8011B06222D4856
:103CF8008DF82810FFF77EF900283FD02A4B1BBB10
:103D0800039B073323F0070308330393099B3B44C2
:103D1800099367E70C4601200CFB0232A5E7002354
:103D28004FF00A0C194601340593204610F8012B70
:103D3800303A092A03D9002BC5D00591C3E70446B8
:103D480001230CFB0121F0E703AB00932A46304620
:103D5800164B04A9FDF7B2FB0746781CD6D16B6E4B
:103D6800D90705D4AB899A0502D4A86DFFF7D4F812
:103D7800AB895B063FF512AF099811E703AB0093D7
:103D88002A463046094B04A9FDF734FEE4E700BF94
:103D98003440000854400008144000083A42000823
:103DA8004042000844420008C5140008333B00089C
:103DB80038B50446084611460022054D2A601A46C1
:103DC80000F090F8431C02D12B6803B1236038BD82
:103DD8000C0200200346084641B1FF2A04D98A2272
:103DE8004FF0FF301A60704701200A7070470620B4
:103DF80008B500F02BF8012000F08AF81F2938B523
:103E080004460D4604D9162303604FF0FF3038BD31
:103E1800426C12B152F821304BB9204600F030F80C
:103E28002A4601462046BDE8384000F017B8012B65
:103E38000AD0591C03D1162303600120E7E70024A8
:103E4800284642F8254098470020E0E7024B014603
:103E58001868FFF7D3BF00BF1400002038B500234F
:103E6800064D0446084611462B6000F02BF8431C0B
:103E780002D12B6803B1236038BD00BF0C020020BB
:103E880000F010B85822024B4FF0FF301A6070470C
:103E98000C0200205822024B4FF0FF301A60704786
:103EA8000C0200205822024B4FF0FF301A60704776
:103EB8000C0200205822024B00201A60704700BFF5
:103EC8000C0200205822024B4FF0FF301A60704756
:103ED8000C0200205822024B4FF0FF301A60704746
:103EE8000C0200205822024B4FF0FF301A60704736
:103EF8000C020020044A05491368002B08BF0B4632
:103F08001844106018467047100200201402002060
:103F1800FEE700BF48656C6C6F20776F726C6400B9
:103F280018000020494E4600696E66004E414E005A
:103F38006E616E00300030313233343536373839FF
:103F48004142434445460030313233343536373800
:103F58003961626364656600496E66696E69747981
:103F6800004E614E005245454E54206D616C6C6F99
:103F78006320737563636565646564002F6D6E7493
:103F88002F776F726B73706163652F776F726B73C6
:103F9800706163652F4743432D31302D706970651B
:103FA8006C696E652F6A656E6B696E732D47434346
:103FB8002D31302D706970656C696E652D3333381D
:103FC8005F32303231313031385F31363334353168
:103FD800363230332F7372632F6E65776C69622FB8
:103FE8006E65776C69622F6C6962632F7374646C99
:103FF80069622F64746F612E630042616C6C6F6339
:1040080020737563636565646564000000000000E3
:104018000000000000000000000000000000000098
:104028000000000000000000000000000000000088
:104038000000000000000000000000000000000078
:104048000000000000000000000000000000000068
:104058000000000000000000000000000000000058
:104068000000000000000000000000002F6D6E74CA
:104078002F776F726B73706163652F776F726B73D5
:10408800706163652F4743432D31302D706970652A
:104098006C696E652F6A656E6B696E732D47434355
:1040A8002D31302D706970656C696E652D3333382C
:1040B8005F32303231313031385F31363334353177
:1040C800363230332F7372632F6E65776C69622FC7
:1040D8006E65776C69622F6C6962632F7374646CA8
:1040E80069622F6D707265632E6300000000000026
:1040F8000080E03779C34143176E05B5B5B89346DC
:10410800F5F93FE9034F384D321D30F94877825AA7
:104118003CBF737FDD4F1575000000000000F03FC5
:10412800000000000000244000000000000059408A
:104138000000000000408F40000000000088C340DD
:1041480000000000006AF8400000000080842E4152
:1041580000000000D01263410000000084D797419E
:104168000000000065CDCD41000000205FA00242A4
:10417800000000E876483742000000A2941A6D4219
:10418800000040E59C30A2420000901EC4BCD6420C
:1041980000003426F56B0C430080E03779C34143B7
:1041A80000A0D8855734764300C84E676DC1AB432D
:1041B800003D9160E458E143408CB5781DAF15444B
:1041C80050EFE2D6E41A4B4492D54D06CFF0804426
:1041D800F64AE1C7022DB544B49DD9794378EA443B
:1041E80005000000190000007D0000002C20667505
:1041F8006E6374696F6E3A200061737365727469D7
:104208006F6E2022257322206661696C65643A20EE
:1042180066696C6520222573222C206C696E6520E6
:104228002564257325730A004300504F53495800ED
:104238002E00232D302B2000686C4C0065666745E6
:104248004647000020202020202020202028282841
:104258002828202020202020202020202020202046
:10426800202020208810101010101010101010108E
:1042780010101010040404040404040404041010AE
:10428800101010101041414141414101010101014B
:1042980001010101010101010101010101010110F7
:1042A8001010101010424242424242020202020220
:1042B80002020202020202020202020202020210C8
:1042C8001010102000000000000000000000000096
:1042D80000000000000000000000000000000000D6
:1042E80000000000000000000000000000000000C6
:1042F80000000000000000000000000000000000B6
:1043080000000000000000000000000000000000A5
:104318000000000000000000000000000000000095
:104328000000000000000000000000000000000085
:104338000000000000000000000000000000000075
:1043480000000000F8B500BFF8BC08BC9E467047E6
:0C435800F8B500BFF8BC08BC9E467047DA
:044364000D0200083E
:04436800E90100085F
:10436C00000000000102030401020304060708090F
:10437C000204060818000020000000003440000869
:10438C005440000814400008000000000000000029
:10439C000000000000000000000000000000000011
:1043AC000000000000000000000000000000000001
:1043BC0000000000000000000000000000000000F1
:1043CC0000000000000000000000000000000000E1
:1043DC00000000000000000043000000000000008E
:1043EC0000000000000000000000000000000000C1
:1043FC00000000000000000043000000000000006E
:10440C0000000000000000000000000000000000A0
:10441C00000000000000000043000000000000004D
:10442C000000000000000000000000000000000080
:10443C00000000000000000043000000000000002D
:10444C000000000000000000000000000000000060
:10445C00000000000000000043000000000000000D
:10446C000000000000000000000000000000000040
:10447C0000000000000000004300000000000000ED
:10448C000000000000000000000000000000000020
:10449C0000000000000000004300000000000000CD
:1044AC000000000000000000000000000000000000
:1044BC000000000000000000DD3D0008CD3A0008BF
:1044CC00000000004B420008384200082F42000850
:1044DC002F4200082F4200082F4200082F420008EC
:1044EC002F4200082F4200082F4200082F420008DC
:1044FC00FFFFFFFFFFFFFFFFFFFFFFFFFFFF0000BE
:10450C000100415343494900000000000000000035
:10451C00000000000000000000000000000000008F
:10452C000000415343494900000000000000000016
:10453C00000000000000000000000000000000006F
:04454C00000000006B
:04000005080012E5F8
:00000001FF
